{"contracts/MockUserAbility.sol":{"MockUserAbility":{"abi":[{"anonymous":false,"inputs":[{"indexed":true,"internalType":"address","name":"user","type":"address"},{"indexed":true,"internalType":"uint256","name":"communityId","type":"uint256"}],"name":"MockRecordCompletion","type":"event"},{"inputs":[{"internalType":"address","name":"_user","type":"address"},{"internalType":"uint8","name":"_category","type":"uint8"}],"name":"getAbilityScore","outputs":[{"internalType":"uint256","name":"","type":"uint256"}],"stateMutability":"pure","type":"function"},{"inputs":[{"internalType":"address","name":"_user","type":"address"},{"internalType":"uint256","name":"_communityId","type":"uint256"}],"name":"isCompletionRecorded","outputs":[{"internalType":"bool","name":"","type":"bool"}],"stateMutability":"pure","type":"function"},{"inputs":[{"internalType":"uint256","name":"_communityId","type":"uint256"}],"name":"recordCompletion","outputs":[],"stateMutability":"nonpayable","type":"function"},{"inputs":[{"internalType":"address","name":"","type":"address"},{"internalType":"uint256","name":"","type":"uint256"}],"name":"recordedCommunities","outputs":[{"internalType":"bool","name":"","type":"bool"}],"stateMutability":"view","type":"function"}],"evm":{"bytecode":{"linkReferences":{},"object":"60808060405234601557610179908161001b8239f35b600080fdfe608080604052600436101561001357600080fd5b60003560e01c90816396f480f91461010a57508063a56d6884146100bd578063b4106fba146100815763de668d071461004b57600080fd5b3461007c57604036600319011261007c5761006461012d565b5060243560ff81160361007c57602060405160008152f35b600080fd5b3461007c57602036600319011261007c57600435337f0d1d4080ad1ae6a7866276802f037e5e0d0936bce7f243f8e42652acfb870153600080a3005b3461007c57604036600319011261007c576001600160a01b036100de61012d565b1660005260006020526040600020602435600052602052602060ff604060002054166040519015158152f35b3461007c57604036600319011261007c5760209061012661012d565b5060008152f35b600435906001600160a01b038216820361007c5756fea2646970667358221220b39cceb803de95bb0cb350d1821efd392c15670a8d529de6e868eaf0fc80177664736f6c634300081c0033","opcodes":"PUSH1 0x80 DUP1 PUSH1 0x40 MSTORE CALLVALUE PUSH1 0x15 JUMPI PUSH2 0x179 SWAP1 DUP2 PUSH2 0x1B DUP3 CODECOPY RETURN JUMPDEST PUSH1 0x0 DUP1 REVERT INVALID PUSH1 0x80 DUP1 PUSH1 0x40 MSTORE PUSH1 0x4 CALLDATASIZE LT ISZERO PUSH2 0x13 JUMPI PUSH1 0x0 DUP1 REVERT JUMPDEST PUSH1 0x0 CALLDATALOAD PUSH1 0xE0 SHR SWAP1 DUP2 PUSH4 0x96F480F9 EQ PUSH2 0x10A JUMPI POP DUP1 PUSH4 0xA56D6884 EQ PUSH2 0xBD JUMPI DUP1 PUSH4 0xB4106FBA EQ PUSH2 0x81 JUMPI PUSH4 0xDE668D07 EQ PUSH2 0x4B JUMPI PUSH1 0x0 DUP1 REVERT JUMPDEST CALLVALUE PUSH2 0x7C JUMPI PUSH1 0x40 CALLDATASIZE PUSH1 0x3 NOT ADD SLT PUSH2 0x7C JUMPI PUSH2 0x64 PUSH2 0x12D JUMP JUMPDEST POP PUSH1 0x24 CALLDATALOAD PUSH1 0xFF DUP2 AND SUB PUSH2 0x7C JUMPI PUSH1 0x20 PUSH1 0x40 MLOAD PUSH1 0x0 DUP2 MSTORE RETURN JUMPDEST PUSH1 0x0 DUP1 REVERT JUMPDEST CALLVALUE PUSH2 0x7C JUMPI PUSH1 0x20 CALLDATASIZE PUSH1 0x3 NOT ADD SLT PUSH2 0x7C JUMPI PUSH1 0x4 CALLDATALOAD CALLER PUSH32 0xD1D4080AD1AE6A7866276802F037E5E0D0936BCE7F243F8E42652ACFB870153 PUSH1 0x0 DUP1 LOG3 STOP JUMPDEST CALLVALUE PUSH2 0x7C JUMPI PUSH1 0x40 CALLDATASIZE PUSH1 0x3 NOT ADD SLT PUSH2 0x7C JUMPI PUSH1 0x1 PUSH1 0x1 PUSH1 0xA0 SHL SUB PUSH2 0xDE PUSH2 0x12D JUMP JUMPDEST AND PUSH1 0x0 MSTORE PUSH1 0x0 PUSH1 0x20 MSTORE PUSH1 0x40 PUSH1 0x0 KECCAK256 PUSH1 0x24 CALLDATALOAD PUSH1 0x0 MSTORE PUSH1 0x20 MSTORE PUSH1 0x20 PUSH1 0xFF PUSH1 0x40 PUSH1 0x0 KECCAK256 SLOAD AND PUSH1 0x40 MLOAD SWAP1 ISZERO ISZERO DUP2 MSTORE RETURN JUMPDEST CALLVALUE PUSH2 0x7C JUMPI PUSH1 0x40 CALLDATASIZE PUSH1 0x3 NOT ADD SLT PUSH2 0x7C JUMPI PUSH1 0x20 SWAP1 PUSH2 0x126 PUSH2 0x12D JUMP JUMPDEST POP PUSH1 0x0 DUP2 MSTORE RETURN JUMPDEST PUSH1 0x4 CALLDATALOAD SWAP1 PUSH1 0x1 PUSH1 0x1 PUSH1 0xA0 SHL SUB DUP3 AND DUP3 SUB PUSH2 0x7C JUMPI JUMP INVALID LOG2 PUSH5 0x6970667358 0x22 SLT KECCAK256 0xB3 SWAP13 0xCE 0xB8 SUB 0xDE SWAP6 0xBB 0xC 0xB3 POP 0xD1 DUP3 0x1E REVERT CODECOPY 0x2C ISZERO PUSH8 0xA8D529DE6E868EA CREATE 0xFC DUP1 OR PUSH23 0x64736F6C634300081C0033000000000000000000000000 "},"methodIdentifiers":{"getAbilityScore(address,uint8)":"de668d07","isCompletionRecorded(address,uint256)":"96f480f9","recordCompletion(uint256)":"b4106fba","recordedCommunities(address,uint256)":"a56d6884"}}}}}