{"contracts/UserAbility.sol":{"UserAbility":{"abi":[{"inputs":[{"internalType":"address","name":"_communityAddress","type":"address"}],"stateMutability":"nonpayable","type":"constructor"},{"anonymous":false,"inputs":[{"indexed":true,"internalType":"address","name":"user","type":"address"},{"indexed":true,"internalType":"enum CommunityTypes.Category","name":"category","type":"uint8"},{"indexed":false,"internalType":"uint256","name":"newScore","type":"uint256"}],"name":"AbilityScoreIncreased","type":"event"},{"anonymous":false,"inputs":[{"indexed":true,"internalType":"address","name":"user","type":"address"},{"indexed":true,"internalType":"uint256","name":"communityId","type":"uint256"},{"indexed":false,"internalType":"enum CommunityTypes.Category","name":"category","type":"uint8"}],"name":"CommunityCompletionRecorded","type":"event"},{"inputs":[{"internalType":"address","name":"","type":"address"},{"internalType":"enum CommunityTypes.Category","name":"","type":"uint8"}],"name":"abilityScores","outputs":[{"internalType":"uint256","name":"","type":"uint256"}],"stateMutability":"view","type":"function"},{"inputs":[{"internalType":"enum CommunityTypes.Category","name":"","type":"uint8"}],"name":"categoryExists","outputs":[{"internalType":"bool","name":"","type":"bool"}],"stateMutability":"view","type":"function"},{"inputs":[{"internalType":"uint256","name":"","type":"uint256"}],"name":"categoryNames","outputs":[{"internalType":"string","name":"","type":"string"}],"stateMutability":"view","type":"function"},{"inputs":[],"name":"communityContract","outputs":[{"internalType":"contract GoalOrientedCommunity","name":"","type":"address"}],"stateMutability":"view","type":"function"},{"inputs":[{"internalType":"address","name":"_user","type":"address"},{"internalType":"enum CommunityTypes.Category","name":"_category","type":"uint8"}],"name":"getAbilityScore","outputs":[{"internalType":"uint256","name":"","type":"uint256"}],"stateMutability":"view","type":"function"},{"inputs":[{"internalType":"address","name":"_user","type":"address"}],"name":"getAllAbilityScores","outputs":[{"internalType":"enum CommunityTypes.Category[]","name":"categories","type":"uint8[]"},{"internalType":"uint256[]","name":"scores","type":"uint256[]"}],"stateMutability":"view","type":"function"},{"inputs":[{"internalType":"enum CommunityTypes.Category","name":"_category","type":"uint8"}],"name":"getCategoryName","outputs":[{"internalType":"string","name":"","type":"string"}],"stateMutability":"view","type":"function"},{"inputs":[{"internalType":"address","name":"_user","type":"address"}],"name":"getTopAbility","outputs":[{"internalType":"enum CommunityTypes.Category","name":"","type":"uint8"},{"internalType":"uint256","name":"","type":"uint256"}],"stateMutability":"view","type":"function"},{"inputs":[{"internalType":"address","name":"_user","type":"address"}],"name":"getTotalAbilityScore","outputs":[{"internalType":"uint256","name":"","type":"uint256"}],"stateMutability":"view","type":"function"},{"inputs":[{"internalType":"address","name":"_user","type":"address"},{"internalType":"uint256","name":"_communityId","type":"uint256"}],"name":"isCompletionRecorded","outputs":[{"internalType":"bool","name":"","type":"bool"}],"stateMutability":"view","type":"function"},{"inputs":[{"internalType":"uint256","name":"_communityId","type":"uint256"}],"name":"recordCompletion","outputs":[],"stateMutability":"nonpayable","type":"function"},{"inputs":[{"internalType":"address","name":"","type":"address"},{"internalType":"uint256","name":"","type":"uint256"}],"name":"recordedCommunities","outputs":[{"internalType":"bool","name":"","type":"bool"}],"stateMutability":"view","type":"function"}],"evm":{"bytecode":{"linkReferences":{},"object":"60803461036c57601f610f8738819003918201601f19168301916001600160401b038311848410176103715780849260209460405283398101031261036c57516001600160a01b0381169081900361036c5760016000526000602052604060002061007361006d8254610387565b826103c1565b600a644d7573696360d81b019055600260009081526020527fabbb5caa7dda850e60932de0934eb1f9d0f59695050f761dc64e443e5030a56980546100b790610387565b601f811161033f575b50600662105c9d60ea1b019055600360009081526020527f101e368776582e57ab3d116ffe2517c0a585cd5b23174b01e275c2d8329c3d83805461010390610387565b601f8111610312575b50600c6553706f72747360d01b019055600460009081526020527f52d75039926638d3c558b2bdefb945d5be8dae29dedd1c313212a4d472d9fde5805461015290610387565b601f81116102e5575b507f456475636174696f6e00000000000000000000000000000000000000000000129055600560009081526020527f2b232c97452f0950c94e2539fdc7e69d21166113cf7a9bcb99b220a3fe5d720a80546101b590610387565b601f81116102b8575b507f546563686e6f6c6f6779000000000000000000000000000000000000000000149055600660009081526020527f62103cf3131c85df57aad364d21cba02556d3092d6cb54c298c2e7726a7870bd805461021c9061006d90610387565b600a6427ba3432b960d91b01905560005b600681111561025a5750600280546001600160a01b031916919091179055604051610b8f90816103f88239f35b60078110156102a25760406000828152600160205220600160ff19825416179055600019811461028c5760010161022d565b634e487b7160e01b600052601160045260246000fd5b634e487b7160e01b600052602160045260246000fd5b81600052601f6020600020910160051c8101905b8181106102d957506101be565b600081556001016102cc565b81600052601f6020600020910160051c8101905b818110610306575061015b565b600081556001016102f9565b81600052601f6020600020910160051c8101905b818110610333575061010c565b60008155600101610326565b81600052601f6020600020910160051c8101905b81811061036057506100c0565b60008155600101610353565b600080fd5b634e487b7160e01b600052604160045260246000fd5b90600182811c921680156103b7575b60208310146103a157565b634e487b7160e01b600052602260045260246000fd5b91607f1691610396565b601f82116103cd575050565b600052601f6020600020910160051c8101905b8181106103eb575050565b600081556001016103e056fe6080604052600436101561001257600080fd5b60003560e01c806339aa43bb146106d75780633f9a61e01461064b57806361661c08146100a0578063784940c51461060f5780638e634029146105e657806396f480f914610599578063a56d688414610599578063b4106fba14610259578063b51bcc0e14610223578063bfd7cdca14610195578063d910558a146100de5763de668d07146100a057600080fd5b346100d95760206100d06100b33661093e565b6001600160a01b0390911660009081526003845260409020610986565b54604051908152f35b600080fd5b346100d95760203660031901126100d9576100f76108cc565b60009081906001600160a01b0316815b600681111561012657604080518561011f82876108e2565b6020820152f35b600781101561017f5781600052600360205283610147826040600020610986565b541161015c575b61015790610aa6565b610107565b91508092506000526003602052610177816040600020610986565b54918161014e565b634e487b7160e01b600052602160045260246000fd5b346100d95760203660031901126100d9576101ae6108cc565b60009081906001600160a01b03165b60068311156101d157602082604051908152f35b90600783101561017f578160005260036020526101f2836040600020610986565b54810180911161020d576102069092610aa6565b91906101bd565b634e487b7160e01b600052601160045260246000fd5b346100d95760203660031901126100d95760043560078110156100d95760ff61024d60209261096d565b54166040519015158152f35b346100d95760203660031901126100d95760043533600052600460205260406000208160005260205260ff6040600020541661053a5760018060a01b03600254166040516326e98b8b60e01b8152826004820152336024820152604081604481855afa80156104995760009182916104f2575b50816104ea575b50156104a5576000602491604051928380926372c85ab560e11b82528660048301525afa908115610499576000916103d6575b5033600052600360205261031e816040600020610986565b8054906001820180921161020d57553360005260046020526040600020826000526020526040600020600160ff19825416179055336000526003602052610369816040600020610986565b54600782101561017f5781906040519081527ffacd5d2406fdd8dfca6fb41b3fead78c8a79939d15d0e708e593c5a5fca1dbd660203392a36103ae60405180926108e2565b7f06b956ac162f72fc4ec3412f42e0601da2103bf25f2e66de4ff6a4bb5328647660203392a3005b3d8083833e6103e5818361099e565b81016102008282031261049557602082015167ffffffffffffffff81116104915781610412918401610b04565b50604082015167ffffffffffffffff81116104915781610433918401610b04565b5060608201516001600160a01b038116036104955760c082015167ffffffffffffffff811161049157829161046c916101c09401610b04565b5061047a6101a08201610af7565b50015190600782101561048e575082610306565b80fd5b8380fd5b8280fd5b6040513d6000823e3d90fd5b60405162461bcd60e51b815260206004820152601c60248201527f436f6d6d756e697479207461736b206e6f7420636f6d706c65746564000000006044820152606490fd5b9050836102d3565b9190506040823d604011610532575b8161050e6040938361099e565b8101031261048e575061052c602061052583610af7565b9201610af7565b846102cc565b3d9150610501565b60405162461bcd60e51b815260206004820152603160248201527f4162696c6974792073636f726520616c7265616479207265636f7264656420666044820152706f72207468697320636f6d6d756e69747960781b6064820152608490fd5b346100d95760403660031901126100d9576001600160a01b036105ba6108cc565b1660005260046020526040600020602435600052602052602060ff604060002054166040519015158152f35b346100d95760003660031901126100d9576002546040516001600160a01b039091168152602090f35b346100d95760203660031901126100d957600435600052600060205261064761063b60406000206109d6565b60405191829182610912565b0390f35b346100d95760203660031901126100d95760043560078110156100d95760ff6106738261096d565b54161561069257600052600060205261064761063b60406000206109d6565b60405162461bcd60e51b815260206004820152601760248201527f43617465676f727920646f6573206e6f742065786973740000000000000000006044820152606490fd5b346100d95760203660031901126100d9576106f06108cc565b6000906001600160a01b0316815b6006811115610883575061071182610ab5565b9061071f604051928361099e565b82825261072b83610ab5565b6020830190601f190136823761075961074385610ab5565b94610751604051968761099e565b808652610ab5565b602085019290601f190136843760009060005b6006811115610801575050506040519384936040850190604086525180915260608501929060005b8181106107da5750505060209084830382860152519182815201919060005b8181106107c1575050500390f35b82518452859450602093840193909201916001016107b3565b919495509192602080826107f160019489516108e2565b0195019101918695949392610794565b6007819794959697101561017f57816000526003602052610826816040600020610986565b5461083f575b61083590610aa6565b959493929561076c565b9161087b8161086a856040610857610835968d610acd565b8260009152878152600360205220610986565b546108758288610acd565b52610aa6565b92905061082c565b600781101561017f578160005260036020526108a3816040600020610986565b546108b7575b6108b290610aa6565b6106fe565b916108c46108b291610aa6565b9290506108a9565b600435906001600160a01b03821682036100d957565b90600782101561017f5752565b60005b8381106109025750506000910152565b81810151838201526020016108f2565b6040916020825261093281518092816020860152602086860191016108ef565b601f01601f1916010190565b60409060031901126100d9576004356001600160a01b03811681036100d9579060243560078110156100d95790565b600781101561017f576000526001602052604060002090565b90600781101561017f57600052602052604060002090565b90601f8019910116810190811067ffffffffffffffff8211176109c057604052565b634e487b7160e01b600052604160045260246000fd5b906040519160008154918260011c92600181168015610a9c575b602085108114610a8857848752869392918115610a665750600114610a1f575b50610a1d9250038361099e565b565b90506000929192526020600020906000915b818310610a4a575050906020610a1d9282010138610a10565b6020919350806001915483858901015201910190918492610a31565b905060209250610a1d94915060ff191682840152151560051b82010138610a10565b634e487b7160e01b84526022600452602484fd5b93607f16936109f0565b600019811461020d5760010190565b67ffffffffffffffff81116109c05760051b60200190565b8051821015610ae15760209160051b010190565b634e487b7160e01b600052603260045260246000fd5b519081151582036100d957565b81601f820112156100d957805167ffffffffffffffff81116109c05760405192610b38601f8301601f19166020018561099e565b818452602082840101116100d957610b5691602080850191016108ef565b9056fea2646970667358221220483fb7e13b042a280a81789a8ae2ca77dece9ac8a924620dcf5f2f081439b34f64736f6c634300081c0033","opcodes":"PUSH1 0x80 CALLVALUE PUSH2 0x36C JUMPI PUSH1 0x1F PUSH2 0xF87 CODESIZE DUP2 SWAP1 SUB SWAP2 DUP3 ADD PUSH1 0x1F NOT AND DUP4 ADD SWAP2 PUSH1 0x1 PUSH1 0x1 PUSH1 0x40 SHL SUB DUP4 GT DUP5 DUP5 LT OR PUSH2 0x371 JUMPI DUP1 DUP5 SWAP3 PUSH1 0x20 SWAP5 PUSH1 0x40 MSTORE DUP4 CODECOPY DUP2 ADD SUB SLT PUSH2 0x36C JUMPI MLOAD PUSH1 0x1 PUSH1 0x1 PUSH1 0xA0 SHL SUB DUP2 AND SWAP1 DUP2 SWAP1 SUB PUSH2 0x36C JUMPI PUSH1 0x1 PUSH1 0x0 MSTORE PUSH1 0x0 PUSH1 0x20 MSTORE PUSH1 0x40 PUSH1 0x0 KECCAK256 PUSH2 0x73 PUSH2 0x6D DUP3 SLOAD PUSH2 0x387 JUMP JUMPDEST DUP3 PUSH2 0x3C1 JUMP JUMPDEST PUSH1 0xA PUSH5 0x4D75736963 PUSH1 0xD8 SHL ADD SWAP1 SSTORE PUSH1 0x2 PUSH1 0x0 SWAP1 DUP2 MSTORE PUSH1 0x20 MSTORE PUSH32 0xABBB5CAA7DDA850E60932DE0934EB1F9D0F59695050F761DC64E443E5030A569 DUP1 SLOAD PUSH2 0xB7 SWAP1 PUSH2 0x387 JUMP JUMPDEST PUSH1 0x1F DUP2 GT PUSH2 0x33F JUMPI JUMPDEST POP PUSH1 0x6 PUSH3 0x105C9D PUSH1 0xEA SHL ADD SWAP1 SSTORE PUSH1 0x3 PUSH1 0x0 SWAP1 DUP2 MSTORE PUSH1 0x20 MSTORE PUSH32 0x101E368776582E57AB3D116FFE2517C0A585CD5B23174B01E275C2D8329C3D83 DUP1 SLOAD PUSH2 0x103 SWAP1 PUSH2 0x387 JUMP JUMPDEST PUSH1 0x1F DUP2 GT PUSH2 0x312 JUMPI JUMPDEST POP PUSH1 0xC PUSH6 0x53706F727473 PUSH1 0xD0 SHL ADD SWAP1 SSTORE PUSH1 0x4 PUSH1 0x0 SWAP1 DUP2 MSTORE PUSH1 0x20 MSTORE PUSH32 0x52D75039926638D3C558B2BDEFB945D5BE8DAE29DEDD1C313212A4D472D9FDE5 DUP1 SLOAD PUSH2 0x152 SWAP1 PUSH2 0x387 JUMP JUMPDEST PUSH1 0x1F DUP2 GT PUSH2 0x2E5 JUMPI JUMPDEST POP PUSH32 0x456475636174696F6E0000000000000000000000000000000000000000000012 SWAP1 SSTORE PUSH1 0x5 PUSH1 0x0 SWAP1 DUP2 MSTORE PUSH1 0x20 MSTORE PUSH32 0x2B232C97452F0950C94E2539FDC7E69D21166113CF7A9BCB99B220A3FE5D720A DUP1 SLOAD PUSH2 0x1B5 SWAP1 PUSH2 0x387 JUMP JUMPDEST PUSH1 0x1F DUP2 GT PUSH2 0x2B8 JUMPI JUMPDEST POP PUSH32 0x546563686E6F6C6F677900000000000000000000000000000000000000000014 SWAP1 SSTORE PUSH1 0x6 PUSH1 0x0 SWAP1 DUP2 MSTORE PUSH1 0x20 MSTORE PUSH32 0x62103CF3131C85DF57AAD364D21CBA02556D3092D6CB54C298C2E7726A7870BD DUP1 SLOAD PUSH2 0x21C SWAP1 PUSH2 0x6D SWAP1 PUSH2 0x387 JUMP JUMPDEST PUSH1 0xA PUSH5 0x27BA3432B9 PUSH1 0xD9 SHL ADD SWAP1 SSTORE PUSH1 0x0 JUMPDEST PUSH1 0x6 DUP2 GT ISZERO PUSH2 0x25A JUMPI POP PUSH1 0x2 DUP1 SLOAD PUSH1 0x1 PUSH1 0x1 PUSH1 0xA0 SHL SUB NOT AND SWAP2 SWAP1 SWAP2 OR SWAP1 SSTORE PUSH1 0x40 MLOAD PUSH2 0xB8F SWAP1 DUP2 PUSH2 0x3F8 DUP3 CODECOPY RETURN JUMPDEST PUSH1 0x7 DUP2 LT ISZERO PUSH2 0x2A2 JUMPI PUSH1 0x40 PUSH1 0x0 DUP3 DUP2 MSTORE PUSH1 0x1 PUSH1 0x20 MSTORE KECCAK256 PUSH1 0x1 PUSH1 0xFF NOT DUP3 SLOAD AND OR SWAP1 SSTORE PUSH1 0x0 NOT DUP2 EQ PUSH2 0x28C JUMPI PUSH1 0x1 ADD PUSH2 0x22D JUMP JUMPDEST PUSH4 0x4E487B71 PUSH1 0xE0 SHL PUSH1 0x0 MSTORE PUSH1 0x11 PUSH1 0x4 MSTORE PUSH1 0x24 PUSH1 0x0 REVERT JUMPDEST PUSH4 0x4E487B71 PUSH1 0xE0 SHL PUSH1 0x0 MSTORE PUSH1 0x21 PUSH1 0x4 MSTORE PUSH1 0x24 PUSH1 0x0 REVERT JUMPDEST DUP2 PUSH1 0x0 MSTORE PUSH1 0x1F PUSH1 0x20 PUSH1 0x0 KECCAK256 SWAP2 ADD PUSH1 0x5 SHR DUP2 ADD SWAP1 JUMPDEST DUP2 DUP2 LT PUSH2 0x2D9 JUMPI POP PUSH2 0x1BE JUMP JUMPDEST PUSH1 0x0 DUP2 SSTORE PUSH1 0x1 ADD PUSH2 0x2CC JUMP JUMPDEST DUP2 PUSH1 0x0 MSTORE PUSH1 0x1F PUSH1 0x20 PUSH1 0x0 KECCAK256 SWAP2 ADD PUSH1 0x5 SHR DUP2 ADD SWAP1 JUMPDEST DUP2 DUP2 LT PUSH2 0x306 JUMPI POP PUSH2 0x15B JUMP JUMPDEST PUSH1 0x0 DUP2 SSTORE PUSH1 0x1 ADD PUSH2 0x2F9 JUMP JUMPDEST DUP2 PUSH1 0x0 MSTORE PUSH1 0x1F PUSH1 0x20 PUSH1 0x0 KECCAK256 SWAP2 ADD PUSH1 0x5 SHR DUP2 ADD SWAP1 JUMPDEST DUP2 DUP2 LT PUSH2 0x333 JUMPI POP PUSH2 0x10C JUMP JUMPDEST PUSH1 0x0 DUP2 SSTORE PUSH1 0x1 ADD PUSH2 0x326 JUMP JUMPDEST DUP2 PUSH1 0x0 MSTORE PUSH1 0x1F PUSH1 0x20 PUSH1 0x0 KECCAK256 SWAP2 ADD PUSH1 0x5 SHR DUP2 ADD SWAP1 JUMPDEST DUP2 DUP2 LT PUSH2 0x360 JUMPI POP PUSH2 0xC0 JUMP JUMPDEST PUSH1 0x0 DUP2 SSTORE PUSH1 0x1 ADD PUSH2 0x353 JUMP JUMPDEST PUSH1 0x0 DUP1 REVERT JUMPDEST PUSH4 0x4E487B71 PUSH1 0xE0 SHL PUSH1 0x0 MSTORE PUSH1 0x41 PUSH1 0x4 MSTORE PUSH1 0x24 PUSH1 0x0 REVERT JUMPDEST SWAP1 PUSH1 0x1 DUP3 DUP2 SHR SWAP3 AND DUP1 ISZERO PUSH2 0x3B7 JUMPI JUMPDEST PUSH1 0x20 DUP4 LT EQ PUSH2 0x3A1 JUMPI JUMP JUMPDEST PUSH4 0x4E487B71 PUSH1 0xE0 SHL PUSH1 0x0 MSTORE PUSH1 0x22 PUSH1 0x4 MSTORE PUSH1 0x24 PUSH1 0x0 REVERT JUMPDEST SWAP2 PUSH1 0x7F AND SWAP2 PUSH2 0x396 JUMP JUMPDEST PUSH1 0x1F DUP3 GT PUSH2 0x3CD JUMPI POP POP JUMP JUMPDEST PUSH1 0x0 MSTORE PUSH1 0x1F PUSH1 0x20 PUSH1 0x0 KECCAK256 SWAP2 ADD PUSH1 0x5 SHR DUP2 ADD SWAP1 JUMPDEST DUP2 DUP2 LT PUSH2 0x3EB JUMPI POP POP JUMP JUMPDEST PUSH1 0x0 DUP2 SSTORE PUSH1 0x1 ADD PUSH2 0x3E0 JUMP INVALID PUSH1 0x80 PUSH1 0x40 MSTORE PUSH1 0x4 CALLDATASIZE LT ISZERO PUSH2 0x12 JUMPI PUSH1 0x0 DUP1 REVERT JUMPDEST PUSH1 0x0 CALLDATALOAD PUSH1 0xE0 SHR DUP1 PUSH4 0x39AA43BB EQ PUSH2 0x6D7 JUMPI DUP1 PUSH4 0x3F9A61E0 EQ PUSH2 0x64B JUMPI DUP1 PUSH4 0x61661C08 EQ PUSH2 0xA0 JUMPI DUP1 PUSH4 0x784940C5 EQ PUSH2 0x60F JUMPI DUP1 PUSH4 0x8E634029 EQ PUSH2 0x5E6 JUMPI DUP1 PUSH4 0x96F480F9 EQ PUSH2 0x599 JUMPI DUP1 PUSH4 0xA56D6884 EQ PUSH2 0x599 JUMPI DUP1 PUSH4 0xB4106FBA EQ PUSH2 0x259 JUMPI DUP1 PUSH4 0xB51BCC0E EQ PUSH2 0x223 JUMPI DUP1 PUSH4 0xBFD7CDCA EQ PUSH2 0x195 JUMPI DUP1 PUSH4 0xD910558A EQ PUSH2 0xDE JUMPI PUSH4 0xDE668D07 EQ PUSH2 0xA0 JUMPI PUSH1 0x0 DUP1 REVERT JUMPDEST CALLVALUE PUSH2 0xD9 JUMPI PUSH1 0x20 PUSH2 0xD0 PUSH2 0xB3 CALLDATASIZE PUSH2 0x93E JUMP JUMPDEST PUSH1 0x1 PUSH1 0x1 PUSH1 0xA0 SHL SUB SWAP1 SWAP2 AND PUSH1 0x0 SWAP1 DUP2 MSTORE PUSH1 0x3 DUP5 MSTORE PUSH1 0x40 SWAP1 KECCAK256 PUSH2 0x986 JUMP JUMPDEST SLOAD PUSH1 0x40 MLOAD SWAP1 DUP2 MSTORE RETURN JUMPDEST PUSH1 0x0 DUP1 REVERT JUMPDEST CALLVALUE PUSH2 0xD9 JUMPI PUSH1 0x20 CALLDATASIZE PUSH1 0x3 NOT ADD SLT PUSH2 0xD9 JUMPI PUSH2 0xF7 PUSH2 0x8CC JUMP JUMPDEST PUSH1 0x0 SWAP1 DUP2 SWAP1 PUSH1 0x1 PUSH1 0x1 PUSH1 0xA0 SHL SUB AND DUP2 JUMPDEST PUSH1 0x6 DUP2 GT ISZERO PUSH2 0x126 JUMPI PUSH1 0x40 DUP1 MLOAD DUP6 PUSH2 0x11F DUP3 DUP8 PUSH2 0x8E2 JUMP JUMPDEST PUSH1 0x20 DUP3 ADD MSTORE RETURN JUMPDEST PUSH1 0x7 DUP2 LT ISZERO PUSH2 0x17F JUMPI DUP2 PUSH1 0x0 MSTORE PUSH1 0x3 PUSH1 0x20 MSTORE DUP4 PUSH2 0x147 DUP3 PUSH1 0x40 PUSH1 0x0 KECCAK256 PUSH2 0x986 JUMP JUMPDEST SLOAD GT PUSH2 0x15C JUMPI JUMPDEST PUSH2 0x157 SWAP1 PUSH2 0xAA6 JUMP JUMPDEST PUSH2 0x107 JUMP JUMPDEST SWAP2 POP DUP1 SWAP3 POP PUSH1 0x0 MSTORE PUSH1 0x3 PUSH1 0x20 MSTORE PUSH2 0x177 DUP2 PUSH1 0x40 PUSH1 0x0 KECCAK256 PUSH2 0x986 JUMP JUMPDEST SLOAD SWAP2 DUP2 PUSH2 0x14E JUMP JUMPDEST PUSH4 0x4E487B71 PUSH1 0xE0 SHL PUSH1 0x0 MSTORE PUSH1 0x21 PUSH1 0x4 MSTORE PUSH1 0x24 PUSH1 0x0 REVERT JUMPDEST CALLVALUE PUSH2 0xD9 JUMPI PUSH1 0x20 CALLDATASIZE PUSH1 0x3 NOT ADD SLT PUSH2 0xD9 JUMPI PUSH2 0x1AE PUSH2 0x8CC JUMP JUMPDEST PUSH1 0x0 SWAP1 DUP2 SWAP1 PUSH1 0x1 PUSH1 0x1 PUSH1 0xA0 SHL SUB AND JUMPDEST PUSH1 0x6 DUP4 GT ISZERO PUSH2 0x1D1 JUMPI PUSH1 0x20 DUP3 PUSH1 0x40 MLOAD SWAP1 DUP2 MSTORE RETURN JUMPDEST SWAP1 PUSH1 0x7 DUP4 LT ISZERO PUSH2 0x17F JUMPI DUP2 PUSH1 0x0 MSTORE PUSH1 0x3 PUSH1 0x20 MSTORE PUSH2 0x1F2 DUP4 PUSH1 0x40 PUSH1 0x0 KECCAK256 PUSH2 0x986 JUMP JUMPDEST SLOAD DUP2 ADD DUP1 SWAP2 GT PUSH2 0x20D JUMPI PUSH2 0x206 SWAP1 SWAP3 PUSH2 0xAA6 JUMP JUMPDEST SWAP2 SWAP1 PUSH2 0x1BD JUMP JUMPDEST PUSH4 0x4E487B71 PUSH1 0xE0 SHL PUSH1 0x0 MSTORE PUSH1 0x11 PUSH1 0x4 MSTORE PUSH1 0x24 PUSH1 0x0 REVERT JUMPDEST CALLVALUE PUSH2 0xD9 JUMPI PUSH1 0x20 CALLDATASIZE PUSH1 0x3 NOT ADD SLT PUSH2 0xD9 JUMPI PUSH1 0x4 CALLDATALOAD PUSH1 0x7 DUP2 LT ISZERO PUSH2 0xD9 JUMPI PUSH1 0xFF PUSH2 0x24D PUSH1 0x20 SWAP3 PUSH2 0x96D JUMP JUMPDEST SLOAD AND PUSH1 0x40 MLOAD SWAP1 ISZERO ISZERO DUP2 MSTORE RETURN JUMPDEST CALLVALUE PUSH2 0xD9 JUMPI PUSH1 0x20 CALLDATASIZE PUSH1 0x3 NOT ADD SLT PUSH2 0xD9 JUMPI PUSH1 0x4 CALLDATALOAD CALLER PUSH1 0x0 MSTORE PUSH1 0x4 PUSH1 0x20 MSTORE PUSH1 0x40 PUSH1 0x0 KECCAK256 DUP2 PUSH1 0x0 MSTORE PUSH1 0x20 MSTORE PUSH1 0xFF PUSH1 0x40 PUSH1 0x0 KECCAK256 SLOAD AND PUSH2 0x53A JUMPI PUSH1 0x1 DUP1 PUSH1 0xA0 SHL SUB PUSH1 0x2 SLOAD AND PUSH1 0x40 MLOAD PUSH4 0x26E98B8B PUSH1 0xE0 SHL DUP2 MSTORE DUP3 PUSH1 0x4 DUP3 ADD MSTORE CALLER PUSH1 0x24 DUP3 ADD MSTORE PUSH1 0x40 DUP2 PUSH1 0x44 DUP2 DUP6 GAS STATICCALL DUP1 ISZERO PUSH2 0x499 JUMPI PUSH1 0x0 SWAP2 DUP3 SWAP2 PUSH2 0x4F2 JUMPI JUMPDEST POP DUP2 PUSH2 0x4EA JUMPI JUMPDEST POP ISZERO PUSH2 0x4A5 JUMPI PUSH1 0x0 PUSH1 0x24 SWAP2 PUSH1 0x40 MLOAD SWAP3 DUP4 DUP1 SWAP3 PUSH4 0x72C85AB5 PUSH1 0xE1 SHL DUP3 MSTORE DUP7 PUSH1 0x4 DUP4 ADD MSTORE GAS STATICCALL SWAP1 DUP2 ISZERO PUSH2 0x499 JUMPI PUSH1 0x0 SWAP2 PUSH2 0x3D6 JUMPI JUMPDEST POP CALLER PUSH1 0x0 MSTORE PUSH1 0x3 PUSH1 0x20 MSTORE PUSH2 0x31E DUP2 PUSH1 0x40 PUSH1 0x0 KECCAK256 PUSH2 0x986 JUMP JUMPDEST DUP1 SLOAD SWAP1 PUSH1 0x1 DUP3 ADD DUP1 SWAP3 GT PUSH2 0x20D JUMPI SSTORE CALLER PUSH1 0x0 MSTORE PUSH1 0x4 PUSH1 0x20 MSTORE PUSH1 0x40 PUSH1 0x0 KECCAK256 DUP3 PUSH1 0x0 MSTORE PUSH1 0x20 MSTORE PUSH1 0x40 PUSH1 0x0 KECCAK256 PUSH1 0x1 PUSH1 0xFF NOT DUP3 SLOAD AND OR SWAP1 SSTORE CALLER PUSH1 0x0 MSTORE PUSH1 0x3 PUSH1 0x20 MSTORE PUSH2 0x369 DUP2 PUSH1 0x40 PUSH1 0x0 KECCAK256 PUSH2 0x986 JUMP JUMPDEST SLOAD PUSH1 0x7 DUP3 LT ISZERO PUSH2 0x17F JUMPI DUP2 SWAP1 PUSH1 0x40 MLOAD SWAP1 DUP2 MSTORE PUSH32 0xFACD5D2406FDD8DFCA6FB41B3FEAD78C8A79939D15D0E708E593C5A5FCA1DBD6 PUSH1 0x20 CALLER SWAP3 LOG3 PUSH2 0x3AE PUSH1 0x40 MLOAD DUP1 SWAP3 PUSH2 0x8E2 JUMP JUMPDEST PUSH32 0x6B956AC162F72FC4EC3412F42E0601DA2103BF25F2E66DE4FF6A4BB53286476 PUSH1 0x20 CALLER SWAP3 LOG3 STOP JUMPDEST RETURNDATASIZE DUP1 DUP4 DUP4 RETURNDATACOPY PUSH2 0x3E5 DUP2 DUP4 PUSH2 0x99E JUMP JUMPDEST DUP2 ADD PUSH2 0x200 DUP3 DUP3 SUB SLT PUSH2 0x495 JUMPI PUSH1 0x20 DUP3 ADD MLOAD PUSH8 0xFFFFFFFFFFFFFFFF DUP2 GT PUSH2 0x491 JUMPI DUP2 PUSH2 0x412 SWAP2 DUP5 ADD PUSH2 0xB04 JUMP JUMPDEST POP PUSH1 0x40 DUP3 ADD MLOAD PUSH8 0xFFFFFFFFFFFFFFFF DUP2 GT PUSH2 0x491 JUMPI DUP2 PUSH2 0x433 SWAP2 DUP5 ADD PUSH2 0xB04 JUMP JUMPDEST POP PUSH1 0x60 DUP3 ADD MLOAD PUSH1 0x1 PUSH1 0x1 PUSH1 0xA0 SHL SUB DUP2 AND SUB PUSH2 0x495 JUMPI PUSH1 0xC0 DUP3 ADD MLOAD PUSH8 0xFFFFFFFFFFFFFFFF DUP2 GT PUSH2 0x491 JUMPI DUP3 SWAP2 PUSH2 0x46C SWAP2 PUSH2 0x1C0 SWAP5 ADD PUSH2 0xB04 JUMP JUMPDEST POP PUSH2 0x47A PUSH2 0x1A0 DUP3 ADD PUSH2 0xAF7 JUMP JUMPDEST POP ADD MLOAD SWAP1 PUSH1 0x7 DUP3 LT ISZERO PUSH2 0x48E JUMPI POP DUP3 PUSH2 0x306 JUMP JUMPDEST DUP1 REVERT JUMPDEST DUP4 DUP1 REVERT JUMPDEST DUP3 DUP1 REVERT JUMPDEST PUSH1 0x40 MLOAD RETURNDATASIZE PUSH1 0x0 DUP3 RETURNDATACOPY RETURNDATASIZE SWAP1 REVERT JUMPDEST PUSH1 0x40 MLOAD PUSH3 0x461BCD PUSH1 0xE5 SHL DUP2 MSTORE PUSH1 0x20 PUSH1 0x4 DUP3 ADD MSTORE PUSH1 0x1C PUSH1 0x24 DUP3 ADD MSTORE PUSH32 0x436F6D6D756E697479207461736B206E6F7420636F6D706C6574656400000000 PUSH1 0x44 DUP3 ADD MSTORE PUSH1 0x64 SWAP1 REVERT JUMPDEST SWAP1 POP DUP4 PUSH2 0x2D3 JUMP JUMPDEST SWAP2 SWAP1 POP PUSH1 0x40 DUP3 RETURNDATASIZE PUSH1 0x40 GT PUSH2 0x532 JUMPI JUMPDEST DUP2 PUSH2 0x50E PUSH1 0x40 SWAP4 DUP4 PUSH2 0x99E JUMP JUMPDEST DUP2 ADD SUB SLT PUSH2 0x48E JUMPI POP PUSH2 0x52C PUSH1 0x20 PUSH2 0x525 DUP4 PUSH2 0xAF7 JUMP JUMPDEST SWAP3 ADD PUSH2 0xAF7 JUMP JUMPDEST DUP5 PUSH2 0x2CC JUMP JUMPDEST RETURNDATASIZE SWAP2 POP PUSH2 0x501 JUMP JUMPDEST PUSH1 0x40 MLOAD PUSH3 0x461BCD PUSH1 0xE5 SHL DUP2 MSTORE PUSH1 0x20 PUSH1 0x4 DUP3 ADD MSTORE PUSH1 0x31 PUSH1 0x24 DUP3 ADD MSTORE PUSH32 0x4162696C6974792073636F726520616C7265616479207265636F726465642066 PUSH1 0x44 DUP3 ADD MSTORE PUSH17 0x6F72207468697320636F6D6D756E697479 PUSH1 0x78 SHL PUSH1 0x64 DUP3 ADD MSTORE PUSH1 0x84 SWAP1 REVERT JUMPDEST CALLVALUE PUSH2 0xD9 JUMPI PUSH1 0x40 CALLDATASIZE PUSH1 0x3 NOT ADD SLT PUSH2 0xD9 JUMPI PUSH1 0x1 PUSH1 0x1 PUSH1 0xA0 SHL SUB PUSH2 0x5BA PUSH2 0x8CC JUMP JUMPDEST AND PUSH1 0x0 MSTORE PUSH1 0x4 PUSH1 0x20 MSTORE PUSH1 0x40 PUSH1 0x0 KECCAK256 PUSH1 0x24 CALLDATALOAD PUSH1 0x0 MSTORE PUSH1 0x20 MSTORE PUSH1 0x20 PUSH1 0xFF PUSH1 0x40 PUSH1 0x0 KECCAK256 SLOAD AND PUSH1 0x40 MLOAD SWAP1 ISZERO ISZERO DUP2 MSTORE RETURN JUMPDEST CALLVALUE PUSH2 0xD9 JUMPI PUSH1 0x0 CALLDATASIZE PUSH1 0x3 NOT ADD SLT PUSH2 0xD9 JUMPI PUSH1 0x2 SLOAD PUSH1 0x40 MLOAD PUSH1 0x1 PUSH1 0x1 PUSH1 0xA0 SHL SUB SWAP1 SWAP2 AND DUP2 MSTORE PUSH1 0x20 SWAP1 RETURN JUMPDEST CALLVALUE PUSH2 0xD9 JUMPI PUSH1 0x20 CALLDATASIZE PUSH1 0x3 NOT ADD SLT PUSH2 0xD9 JUMPI PUSH1 0x4 CALLDATALOAD PUSH1 0x0 MSTORE PUSH1 0x0 PUSH1 0x20 MSTORE PUSH2 0x647 PUSH2 0x63B PUSH1 0x40 PUSH1 0x0 KECCAK256 PUSH2 0x9D6 JUMP JUMPDEST PUSH1 0x40 MLOAD SWAP2 DUP3 SWAP2 DUP3 PUSH2 0x912 JUMP JUMPDEST SUB SWAP1 RETURN JUMPDEST CALLVALUE PUSH2 0xD9 JUMPI PUSH1 0x20 CALLDATASIZE PUSH1 0x3 NOT ADD SLT PUSH2 0xD9 JUMPI PUSH1 0x4 CALLDATALOAD PUSH1 0x7 DUP2 LT ISZERO PUSH2 0xD9 JUMPI PUSH1 0xFF PUSH2 0x673 DUP3 PUSH2 0x96D JUMP JUMPDEST SLOAD AND ISZERO PUSH2 0x692 JUMPI PUSH1 0x0 MSTORE PUSH1 0x0 PUSH1 0x20 MSTORE PUSH2 0x647 PUSH2 0x63B PUSH1 0x40 PUSH1 0x0 KECCAK256 PUSH2 0x9D6 JUMP JUMPDEST PUSH1 0x40 MLOAD PUSH3 0x461BCD PUSH1 0xE5 SHL DUP2 MSTORE PUSH1 0x20 PUSH1 0x4 DUP3 ADD MSTORE PUSH1 0x17 PUSH1 0x24 DUP3 ADD MSTORE PUSH32 0x43617465676F727920646F6573206E6F74206578697374000000000000000000 PUSH1 0x44 DUP3 ADD MSTORE PUSH1 0x64 SWAP1 REVERT JUMPDEST CALLVALUE PUSH2 0xD9 JUMPI PUSH1 0x20 CALLDATASIZE PUSH1 0x3 NOT ADD SLT PUSH2 0xD9 JUMPI PUSH2 0x6F0 PUSH2 0x8CC JUMP JUMPDEST PUSH1 0x0 SWAP1 PUSH1 0x1 PUSH1 0x1 PUSH1 0xA0 SHL SUB AND DUP2 JUMPDEST PUSH1 0x6 DUP2 GT ISZERO PUSH2 0x883 JUMPI POP PUSH2 0x711 DUP3 PUSH2 0xAB5 JUMP JUMPDEST SWAP1 PUSH2 0x71F PUSH1 0x40 MLOAD SWAP3 DUP4 PUSH2 0x99E JUMP JUMPDEST DUP3 DUP3 MSTORE PUSH2 0x72B DUP4 PUSH2 0xAB5 JUMP JUMPDEST PUSH1 0x20 DUP4 ADD SWAP1 PUSH1 0x1F NOT ADD CALLDATASIZE DUP3 CALLDATACOPY PUSH2 0x759 PUSH2 0x743 DUP6 PUSH2 0xAB5 JUMP JUMPDEST SWAP5 PUSH2 0x751 PUSH1 0x40 MLOAD SWAP7 DUP8 PUSH2 0x99E JUMP JUMPDEST DUP1 DUP7 MSTORE PUSH2 0xAB5 JUMP JUMPDEST PUSH1 0x20 DUP6 ADD SWAP3 SWAP1 PUSH1 0x1F NOT ADD CALLDATASIZE DUP5 CALLDATACOPY PUSH1 0x0 SWAP1 PUSH1 0x0 JUMPDEST PUSH1 0x6 DUP2 GT ISZERO PUSH2 0x801 JUMPI POP POP POP PUSH1 0x40 MLOAD SWAP4 DUP5 SWAP4 PUSH1 0x40 DUP6 ADD SWAP1 PUSH1 0x40 DUP7 MSTORE MLOAD DUP1 SWAP2 MSTORE PUSH1 0x60 DUP6 ADD SWAP3 SWAP1 PUSH1 0x0 JUMPDEST DUP2 DUP2 LT PUSH2 0x7DA JUMPI POP POP POP PUSH1 0x20 SWAP1 DUP5 DUP4 SUB DUP3 DUP7 ADD MSTORE MLOAD SWAP2 DUP3 DUP2 MSTORE ADD SWAP2 SWAP1 PUSH1 0x0 JUMPDEST DUP2 DUP2 LT PUSH2 0x7C1 JUMPI POP POP POP SUB SWAP1 RETURN JUMPDEST DUP3 MLOAD DUP5 MSTORE DUP6 SWAP5 POP PUSH1 0x20 SWAP4 DUP5 ADD SWAP4 SWAP1 SWAP3 ADD SWAP2 PUSH1 0x1 ADD PUSH2 0x7B3 JUMP JUMPDEST SWAP2 SWAP5 SWAP6 POP SWAP2 SWAP3 PUSH1 0x20 DUP1 DUP3 PUSH2 0x7F1 PUSH1 0x1 SWAP5 DUP10 MLOAD PUSH2 0x8E2 JUMP JUMPDEST ADD SWAP6 ADD SWAP2 ADD SWAP2 DUP7 SWAP6 SWAP5 SWAP4 SWAP3 PUSH2 0x794 JUMP JUMPDEST PUSH1 0x7 DUP2 SWAP8 SWAP5 SWAP6 SWAP7 SWAP8 LT ISZERO PUSH2 0x17F JUMPI DUP2 PUSH1 0x0 MSTORE PUSH1 0x3 PUSH1 0x20 MSTORE PUSH2 0x826 DUP2 PUSH1 0x40 PUSH1 0x0 KECCAK256 PUSH2 0x986 JUMP JUMPDEST SLOAD PUSH2 0x83F JUMPI JUMPDEST PUSH2 0x835 SWAP1 PUSH2 0xAA6 JUMP JUMPDEST SWAP6 SWAP5 SWAP4 SWAP3 SWAP6 PUSH2 0x76C JUMP JUMPDEST SWAP2 PUSH2 0x87B DUP2 PUSH2 0x86A DUP6 PUSH1 0x40 PUSH2 0x857 PUSH2 0x835 SWAP7 DUP14 PUSH2 0xACD JUMP JUMPDEST DUP3 PUSH1 0x0 SWAP2 MSTORE DUP8 DUP2 MSTORE PUSH1 0x3 PUSH1 0x20 MSTORE KECCAK256 PUSH2 0x986 JUMP JUMPDEST SLOAD PUSH2 0x875 DUP3 DUP9 PUSH2 0xACD JUMP JUMPDEST MSTORE PUSH2 0xAA6 JUMP JUMPDEST SWAP3 SWAP1 POP PUSH2 0x82C JUMP JUMPDEST PUSH1 0x7 DUP2 LT ISZERO PUSH2 0x17F JUMPI DUP2 PUSH1 0x0 MSTORE PUSH1 0x3 PUSH1 0x20 MSTORE PUSH2 0x8A3 DUP2 PUSH1 0x40 PUSH1 0x0 KECCAK256 PUSH2 0x986 JUMP JUMPDEST SLOAD PUSH2 0x8B7 JUMPI JUMPDEST PUSH2 0x8B2 SWAP1 PUSH2 0xAA6 JUMP JUMPDEST PUSH2 0x6FE JUMP JUMPDEST SWAP2 PUSH2 0x8C4 PUSH2 0x8B2 SWAP2 PUSH2 0xAA6 JUMP JUMPDEST SWAP3 SWAP1 POP PUSH2 0x8A9 JUMP JUMPDEST PUSH1 0x4 CALLDATALOAD SWAP1 PUSH1 0x1 PUSH1 0x1 PUSH1 0xA0 SHL SUB DUP3 AND DUP3 SUB PUSH2 0xD9 JUMPI JUMP JUMPDEST SWAP1 PUSH1 0x7 DUP3 LT ISZERO PUSH2 0x17F JUMPI MSTORE JUMP JUMPDEST PUSH1 0x0 JUMPDEST DUP4 DUP2 LT PUSH2 0x902 JUMPI POP POP PUSH1 0x0 SWAP2 ADD MSTORE JUMP JUMPDEST DUP2 DUP2 ADD MLOAD DUP4 DUP3 ADD MSTORE PUSH1 0x20 ADD PUSH2 0x8F2 JUMP JUMPDEST PUSH1 0x40 SWAP2 PUSH1 0x20 DUP3 MSTORE PUSH2 0x932 DUP2 MLOAD DUP1 SWAP3 DUP2 PUSH1 0x20 DUP7 ADD MSTORE PUSH1 0x20 DUP7 DUP7 ADD SWAP2 ADD PUSH2 0x8EF JUMP JUMPDEST PUSH1 0x1F ADD PUSH1 0x1F NOT AND ADD ADD SWAP1 JUMP JUMPDEST PUSH1 0x40 SWAP1 PUSH1 0x3 NOT ADD SLT PUSH2 0xD9 JUMPI PUSH1 0x4 CALLDATALOAD PUSH1 0x1 PUSH1 0x1 PUSH1 0xA0 SHL SUB DUP2 AND DUP2 SUB PUSH2 0xD9 JUMPI SWAP1 PUSH1 0x24 CALLDATALOAD PUSH1 0x7 DUP2 LT ISZERO PUSH2 0xD9 JUMPI SWAP1 JUMP JUMPDEST PUSH1 0x7 DUP2 LT ISZERO PUSH2 0x17F JUMPI PUSH1 0x0 MSTORE PUSH1 0x1 PUSH1 0x20 MSTORE PUSH1 0x40 PUSH1 0x0 KECCAK256 SWAP1 JUMP JUMPDEST SWAP1 PUSH1 0x7 DUP2 LT ISZERO PUSH2 0x17F JUMPI PUSH1 0x0 MSTORE PUSH1 0x20 MSTORE PUSH1 0x40 PUSH1 0x0 KECCAK256 SWAP1 JUMP JUMPDEST SWAP1 PUSH1 0x1F DUP1 NOT SWAP2 ADD AND DUP2 ADD SWAP1 DUP2 LT PUSH8 0xFFFFFFFFFFFFFFFF DUP3 GT OR PUSH2 0x9C0 JUMPI PUSH1 0x40 MSTORE JUMP JUMPDEST PUSH4 0x4E487B71 PUSH1 0xE0 SHL PUSH1 0x0 MSTORE PUSH1 0x41 PUSH1 0x4 MSTORE PUSH1 0x24 PUSH1 0x0 REVERT JUMPDEST SWAP1 PUSH1 0x40 MLOAD SWAP2 PUSH1 0x0 DUP2 SLOAD SWAP2 DUP3 PUSH1 0x1 SHR SWAP3 PUSH1 0x1 DUP2 AND DUP1 ISZERO PUSH2 0xA9C JUMPI JUMPDEST PUSH1 0x20 DUP6 LT DUP2 EQ PUSH2 0xA88 JUMPI DUP5 DUP8 MSTORE DUP7 SWAP4 SWAP3 SWAP2 DUP2 ISZERO PUSH2 0xA66 JUMPI POP PUSH1 0x1 EQ PUSH2 0xA1F JUMPI JUMPDEST POP PUSH2 0xA1D SWAP3 POP SUB DUP4 PUSH2 0x99E JUMP JUMPDEST JUMP JUMPDEST SWAP1 POP PUSH1 0x0 SWAP3 SWAP2 SWAP3 MSTORE PUSH1 0x20 PUSH1 0x0 KECCAK256 SWAP1 PUSH1 0x0 SWAP2 JUMPDEST DUP2 DUP4 LT PUSH2 0xA4A JUMPI POP POP SWAP1 PUSH1 0x20 PUSH2 0xA1D SWAP3 DUP3 ADD ADD CODESIZE PUSH2 0xA10 JUMP JUMPDEST PUSH1 0x20 SWAP2 SWAP4 POP DUP1 PUSH1 0x1 SWAP2 SLOAD DUP4 DUP6 DUP10 ADD ADD MSTORE ADD SWAP2 ADD SWAP1 SWAP2 DUP5 SWAP3 PUSH2 0xA31 JUMP JUMPDEST SWAP1 POP PUSH1 0x20 SWAP3 POP PUSH2 0xA1D SWAP5 SWAP2 POP PUSH1 0xFF NOT AND DUP3 DUP5 ADD MSTORE ISZERO ISZERO PUSH1 0x5 SHL DUP3 ADD ADD CODESIZE PUSH2 0xA10 JUMP JUMPDEST PUSH4 0x4E487B71 PUSH1 0xE0 SHL DUP5 MSTORE PUSH1 0x22 PUSH1 0x4 MSTORE PUSH1 0x24 DUP5 REVERT JUMPDEST SWAP4 PUSH1 0x7F AND SWAP4 PUSH2 0x9F0 JUMP JUMPDEST PUSH1 0x0 NOT DUP2 EQ PUSH2 0x20D JUMPI PUSH1 0x1 ADD SWAP1 JUMP JUMPDEST PUSH8 0xFFFFFFFFFFFFFFFF DUP2 GT PUSH2 0x9C0 JUMPI PUSH1 0x5 SHL PUSH1 0x20 ADD SWAP1 JUMP JUMPDEST DUP1 MLOAD DUP3 LT ISZERO PUSH2 0xAE1 JUMPI PUSH1 0x20 SWAP2 PUSH1 0x5 SHL ADD ADD SWAP1 JUMP JUMPDEST PUSH4 0x4E487B71 PUSH1 0xE0 SHL PUSH1 0x0 MSTORE PUSH1 0x32 PUSH1 0x4 MSTORE PUSH1 0x24 PUSH1 0x0 REVERT JUMPDEST MLOAD SWAP1 DUP2 ISZERO ISZERO DUP3 SUB PUSH2 0xD9 JUMPI JUMP JUMPDEST DUP2 PUSH1 0x1F DUP3 ADD SLT ISZERO PUSH2 0xD9 JUMPI DUP1 MLOAD PUSH8 0xFFFFFFFFFFFFFFFF DUP2 GT PUSH2 0x9C0 JUMPI PUSH1 0x40 MLOAD SWAP3 PUSH2 0xB38 PUSH1 0x1F DUP4 ADD PUSH1 0x1F NOT AND PUSH1 0x20 ADD DUP6 PUSH2 0x99E JUMP JUMPDEST DUP2 DUP5 MSTORE PUSH1 0x20 DUP3 DUP5 ADD ADD GT PUSH2 0xD9 JUMPI PUSH2 0xB56 SWAP2 PUSH1 0x20 DUP1 DUP6 ADD SWAP2 ADD PUSH2 0x8EF JUMP JUMPDEST SWAP1 JUMP INVALID LOG2 PUSH5 0x6970667358 0x22 SLT KECCAK256 BASEFEE EXTCODEHASH 0xB7 0xE1 EXTCODESIZE DIV 0x2A 0x28 EXP DUP2 PUSH25 0x9A8AE2CA77DECE9AC8A924620DCF5F2F081439B34F64736F6C PUSH4 0x4300081C STOP CALLER "},"methodIdentifiers":{"abilityScores(address,uint8)":"61661c08","categoryExists(uint8)":"b51bcc0e","categoryNames(uint256)":"784940c5","communityContract()":"8e634029","getAbilityScore(address,uint8)":"de668d07","getAllAbilityScores(address)":"39aa43bb","getCategoryName(uint8)":"3f9a61e0","getTopAbility(address)":"d910558a","getTotalAbilityScore(address)":"bfd7cdca","isCompletionRecorded(address,uint256)":"96f480f9","recordCompletion(uint256)":"b4106fba","recordedCommunities(address,uint256)":"a56d6884"}}}}}