{"contracts/community.sol":{"GoalOrientedCommunity":{"abi":[{"inputs":[{"internalType":"address","name":"_senateAddress","type":"address"},{"internalType":"address","name":"_tokenAddress","type":"address"}],"stateMutability":"nonpayable","type":"constructor"},{"anonymous":false,"inputs":[{"indexed":true,"internalType":"uint256","name":"id","type":"uint256"},{"indexed":true,"internalType":"address","name":"member","type":"address"},{"indexed":false,"internalType":"bool","name":"vote","type":"bool"}],"name":"CloseVoteSubmitted","type":"event"},{"anonymous":false,"inputs":[{"indexed":true,"internalType":"uint256","name":"id","type":"uint256"}],"name":"CommunityClosed","type":"event"},{"anonymous":false,"inputs":[{"indexed":true,"internalType":"uint256","name":"id","type":"uint256"},{"indexed":false,"internalType":"address","name":"creator","type":"address"},{"indexed":false,"internalType":"enum CommunityTypes.Category","name":"category","type":"uint8"}],"name":"CommunityCreated","type":"event"},{"anonymous":false,"inputs":[{"indexed":true,"internalType":"uint256","name":"communityId","type":"uint256"},{"indexed":false,"internalType":"string","name":"publicKey","type":"string"}],"name":"CommunityKeysGenerated","type":"event"},{"anonymous":false,"inputs":[{"indexed":true,"internalType":"uint256","name":"id","type":"uint256"},{"indexed":false,"internalType":"address","name":"member","type":"address"}],"name":"GoalApproved","type":"event"},{"anonymous":false,"inputs":[{"indexed":true,"internalType":"uint256","name":"id","type":"uint256"},{"indexed":false,"internalType":"address","name":"member","type":"address"}],"name":"MemberJoined","type":"event"},{"anonymous":false,"inputs":[{"indexed":true,"internalType":"uint256","name":"communityId","type":"uint256"},{"indexed":true,"internalType":"address","name":"accessor","type":"address"},{"indexed":false,"internalType":"bool","name":"isSenator","type":"bool"}],"name":"PrivateKeyEncrypted","type":"event"},{"anonymous":false,"inputs":[{"indexed":true,"internalType":"uint256","name":"id","type":"uint256"},{"indexed":true,"internalType":"address","name":"reviewer","type":"address"}],"name":"ReviewerAdded","type":"event"},{"anonymous":false,"inputs":[{"indexed":true,"internalType":"uint256","name":"id","type":"uint256"},{"indexed":true,"internalType":"address","name":"reviewer","type":"address"},{"indexed":true,"internalType":"address","name":"member","type":"address"},{"indexed":false,"internalType":"bool","name":"approved","type":"bool"}],"name":"ReviewerApproval","type":"event"},{"anonymous":false,"inputs":[{"indexed":true,"internalType":"uint256","name":"id","type":"uint256"},{"indexed":false,"internalType":"address","name":"member","type":"address"},{"indexed":false,"internalType":"uint256","name":"amount","type":"uint256"}],"name":"RewardClaimed","type":"event"},{"anonymous":false,"inputs":[{"indexed":true,"internalType":"uint256","name":"id","type":"uint256"},{"indexed":true,"internalType":"address","name":"member","type":"address"},{"indexed":true,"internalType":"address","name":"senator","type":"address"},{"indexed":false,"internalType":"uint256","name":"score","type":"uint256"}],"name":"ScoreSubmitted","type":"event"},{"anonymous":false,"inputs":[{"indexed":true,"internalType":"uint256","name":"id","type":"uint256"},{"indexed":false,"internalType":"address","name":"member","type":"address"},{"indexed":false,"internalType":"string","name":"submissionUrl","type":"string"}],"name":"SubmissionUploaded","type":"event"},{"inputs":[],"name":"STAKE_AMOUNT","outputs":[{"internalType":"uint256","name":"","type":"uint256"}],"stateMutability":"view","type":"function"},{"inputs":[{"internalType":"enum CommunityTypes.Category","name":"","type":"uint8"}],"name":"categoryExists","outputs":[{"internalType":"bool","name":"","type":"bool"}],"stateMutability":"view","type":"function"},{"inputs":[{"internalType":"uint256","name":"","type":"uint256"}],"name":"categoryNames","outputs":[{"internalType":"string","name":"","type":"string"}],"stateMutability":"view","type":"function"},{"inputs":[{"internalType":"uint256","name":"_communityId","type":"uint256"}],"name":"claimReward","outputs":[],"stateMutability":"nonpayable","type":"function"},{"inputs":[{"internalType":"uint256","name":"_communityId","type":"uint256"}],"name":"closeCommunityByAuthor","outputs":[],"stateMutability":"nonpayable","type":"function"},{"inputs":[{"internalType":"uint256","name":"","type":"uint256"}],"name":"communities","outputs":[{"internalType":"uint256","name":"id","type":"uint256"},{"internalType":"string","name":"name","type":"string"},{"internalType":"string","name":"description","type":"string"},{"internalType":"address","name":"creator","type":"address"},{"internalType":"uint256","name":"startTime","type":"uint256"},{"internalType":"uint256","name":"endTime","type":"uint256"},{"internalType":"string","name":"targetGoal","type":"string"},{"internalType":"uint256","name":"memberDeposit","type":"uint256"},{"internalType":"uint256","name":"rewardPerMember","type":"uint256"},{"internalType":"uint256","name":"maxMembers","type":"uint256"},{"internalType":"uint256","name":"totalMembers","type":"uint256"},{"internalType":"uint256","name":"rewardPool","type":"uint256"},{"internalType":"uint256","name":"depositPool","type":"uint256"},{"internalType":"bool","name":"isClosed","type":"bool"},{"internalType":"enum CommunityTypes.Category","name":"category","type":"uint8"},{"internalType":"uint256","name":"passingScore","type":"uint256"}],"stateMutability":"view","type":"function"},{"inputs":[],"name":"communityCount","outputs":[{"internalType":"uint256","name":"","type":"uint256"}],"stateMutability":"view","type":"function"},{"inputs":[{"internalType":"uint256","name":"","type":"uint256"}],"name":"communityEncryptionKey","outputs":[{"internalType":"string","name":"","type":"string"}],"stateMutability":"view","type":"function"},{"inputs":[],"name":"communityToken","outputs":[{"internalType":"contract IERC20","name":"","type":"address"}],"stateMutability":"view","type":"function"},{"inputs":[{"internalType":"string","name":"_name","type":"string"},{"internalType":"string","name":"_description","type":"string"},{"internalType":"string","name":"_targetGoal","type":"string"},{"internalType":"uint256","name":"_startTime","type":"uint256"},{"internalType":"uint256","name":"_endTime","type":"uint256"},{"internalType":"uint256","name":"_memberDeposit","type":"uint256"},{"internalType":"uint256","name":"_rewardPerMember","type":"uint256"},{"internalType":"uint256","name":"_maxMembers","type":"uint256"},{"internalType":"enum CommunityTypes.Category","name":"_category","type":"uint8"}],"name":"createCommunity","outputs":[],"stateMutability":"payable","type":"function"},{"inputs":[{"internalType":"uint256","name":"","type":"uint256"},{"internalType":"address","name":"","type":"address"}],"name":"encryptedDecryptionKeys","outputs":[{"internalType":"string","name":"","type":"string"}],"stateMutability":"view","type":"function"},{"inputs":[{"internalType":"uint256","name":"","type":"uint256"}],"name":"encryptedKeysCount","outputs":[{"internalType":"uint256","name":"","type":"uint256"}],"stateMutability":"view","type":"function"},{"inputs":[{"internalType":"enum CommunityTypes.Category","name":"_category","type":"uint8"}],"name":"getCategoryName","outputs":[{"internalType":"string","name":"","type":"string"}],"stateMutability":"view","type":"function"},{"inputs":[{"internalType":"uint256","name":"communityId","type":"uint256"}],"name":"getMemberCount","outputs":[{"internalType":"uint256","name":"","type":"uint256"}],"stateMutability":"view","type":"function"},{"inputs":[{"internalType":"uint256","name":"_communityId","type":"uint256"},{"internalType":"address","name":"_member","type":"address"}],"name":"getMemberStatus","outputs":[{"internalType":"bool","name":"isScored","type":"bool"},{"internalType":"bool","name":"isApproved","type":"bool"}],"stateMutability":"view","type":"function"},{"inputs":[{"internalType":"uint256","name":"communityId","type":"uint256"}],"name":"getReviewersLength","outputs":[{"internalType":"uint256","name":"","type":"uint256"}],"stateMutability":"view","type":"function"},{"inputs":[{"internalType":"uint256","name":"_communityId","type":"uint256"},{"internalType":"address","name":"_member","type":"address"}],"name":"getScores","outputs":[{"components":[{"internalType":"address","name":"senator","type":"address"},{"internalType":"uint256","name":"score","type":"uint256"},{"internalType":"string","name":"comment","type":"string"}],"internalType":"struct GoalOrientedCommunity.Score[]","name":"","type":"tuple[]"}],"stateMutability":"view","type":"function"},{"inputs":[{"internalType":"uint256","name":"","type":"uint256"}],"name":"hasGeneratedKeys","outputs":[{"internalType":"bool","name":"","type":"bool"}],"stateMutability":"view","type":"function"},{"inputs":[{"internalType":"uint256","name":"","type":"uint256"},{"internalType":"address","name":"","type":"address"},{"internalType":"address","name":"","type":"address"}],"name":"hasReviewerVoted","outputs":[{"internalType":"bool","name":"","type":"bool"}],"stateMutability":"view","type":"function"},{"inputs":[{"internalType":"uint256","name":"","type":"uint256"},{"internalType":"address","name":"","type":"address"},{"internalType":"address","name":"","type":"address"}],"name":"hasSenatorScored","outputs":[{"internalType":"bool","name":"","type":"bool"}],"stateMutability":"view","type":"function"},{"inputs":[{"internalType":"uint256","name":"_communityId","type":"uint256"}],"name":"joinCommunity","outputs":[],"stateMutability":"payable","type":"function"},{"inputs":[{"internalType":"uint256","name":"","type":"uint256"},{"internalType":"uint256","name":"","type":"uint256"}],"name":"memberAddresses","outputs":[{"internalType":"address","name":"","type":"address"}],"stateMutability":"view","type":"function"},{"inputs":[{"internalType":"uint256","name":"","type":"uint256"},{"internalType":"address","name":"","type":"address"},{"internalType":"uint256","name":"","type":"uint256"}],"name":"memberScores","outputs":[{"internalType":"address","name":"senator","type":"address"},{"internalType":"uint256","name":"score","type":"uint256"},{"internalType":"string","name":"comment","type":"string"}],"stateMutability":"view","type":"function"},{"inputs":[{"internalType":"uint256","name":"","type":"uint256"},{"internalType":"address","name":"","type":"address"}],"name":"members","outputs":[{"internalType":"uint256","name":"joinTime","type":"uint256"},{"internalType":"bool","name":"isApproved","type":"bool"},{"internalType":"bool","name":"hasClaimed","type":"bool"},{"internalType":"string","name":"submissionUrl","type":"string"},{"internalType":"uint256","name":"finalScore","type":"uint256"},{"internalType":"bool","name":"isScored","type":"bool"},{"internalType":"bool","name":"isReviewer","type":"bool"},{"internalType":"bool","name":"hasVotedForClose","type":"bool"},{"internalType":"bool","name":"closeVote","type":"bool"},{"internalType":"uint256","name":"totalReviewerScores","type":"uint256"},{"internalType":"uint256","name":"reviewerCount","type":"uint256"}],"stateMutability":"view","type":"function"},{"inputs":[{"internalType":"uint256","name":"_communityId","type":"uint256"}],"name":"proposeCloseCommunity","outputs":[],"stateMutability":"nonpayable","type":"function"},{"inputs":[{"internalType":"uint256","name":"","type":"uint256"},{"internalType":"address","name":"","type":"address"},{"internalType":"address","name":"","type":"address"}],"name":"reviewerApprovals","outputs":[{"internalType":"bool","name":"","type":"bool"}],"stateMutability":"view","type":"function"},{"inputs":[{"internalType":"uint256","name":"_communityId","type":"uint256"},{"internalType":"address","name":"_member","type":"address"},{"internalType":"uint256","name":"_score","type":"uint256"},{"internalType":"string","name":"_comment","type":"string"}],"name":"reviewerScore","outputs":[],"stateMutability":"nonpayable","type":"function"},{"inputs":[{"internalType":"uint256","name":"","type":"uint256"},{"internalType":"uint256","name":"","type":"uint256"}],"name":"reviewers","outputs":[{"internalType":"address","name":"","type":"address"}],"stateMutability":"view","type":"function"},{"inputs":[{"internalType":"uint256","name":"_communityId","type":"uint256"},{"internalType":"address","name":"_member","type":"address"},{"internalType":"uint256","name":"_score","type":"uint256"},{"internalType":"string","name":"_comment","type":"string"}],"name":"senateAuditScore","outputs":[],"stateMutability":"nonpayable","type":"function"},{"inputs":[],"name":"senateContract","outputs":[{"internalType":"contract Senate","name":"","type":"address"}],"stateMutability":"view","type":"function"},{"inputs":[{"internalType":"uint256","name":"_communityId","type":"uint256"},{"internalType":"string","name":"_encryptionKey","type":"string"}],"name":"setCommunityKeys","outputs":[],"stateMutability":"nonpayable","type":"function"},{"inputs":[{"internalType":"uint256","name":"_communityId","type":"uint256"},{"internalType":"address","name":"_accessor","type":"address"},{"internalType":"string","name":"_encryptedKey","type":"string"},{"internalType":"bool","name":"_isSenator","type":"bool"}],"name":"setEncryptedDecryptionKey","outputs":[],"stateMutability":"nonpayable","type":"function"},{"inputs":[{"internalType":"uint256","name":"_communityId","type":"uint256"},{"internalType":"string","name":"_submissionUrl","type":"string"}],"name":"submitCompletion","outputs":[],"stateMutability":"nonpayable","type":"function"},{"inputs":[{"internalType":"uint256","name":"_communityId","type":"uint256"},{"internalType":"bool","name":"_vote","type":"bool"}],"name":"voteForClose","outputs":[],"stateMutability":"nonpayable","type":"function"}],"evm":{"bytecode":{"linkReferences":{},"object":"60803461038957601f613c7638819003918201601f19168301916001600160401b0383118484101761038e57808492604094855283398101031261038957610052602061004b836103a4565b92016103a4565b9060016000526000602052604060002061007561006f82546103b8565b826103f2565b600a644d7573696360d81b019055600260009081526020527fabbb5caa7dda850e60932de0934eb1f9d0f59695050f761dc64e443e5030a56980546100b9906103b8565b601f811161035c575b50600662105c9d60ea1b019055600360009081526020527f101e368776582e57ab3d116ffe2517c0a585cd5b23174b01e275c2d8329c3d838054610105906103b8565b601f811161032f575b50600c6553706f72747360d01b019055600460009081526020527f52d75039926638d3c558b2bdefb945d5be8dae29dedd1c313212a4d472d9fde58054610154906103b8565b601f8111610302575b507f456475636174696f6e00000000000000000000000000000000000000000000129055600560009081526020527f2b232c97452f0950c94e2539fdc7e69d21166113cf7a9bcb99b220a3fe5d720a80546101b7906103b8565b601f81116102d5575b507f546563686e6f6c6f6779000000000000000000000000000000000000000000149055600660009081526020527f62103cf3131c85df57aad364d21cba02556d3092d6cb54c298c2e7726a7870bd805461021e9061006f906103b8565b600a6427ba3432b960d91b01905560005b60068111156102775750600680546001600160a01b039283166001600160a01b0319918216179091556002805493909216921691909117905560405161384d90816104298239f35b60078110156102bf5760406000828152600160205220600160ff1982541617905560001981146102a95760010161022f565b634e487b7160e01b600052601160045260246000fd5b634e487b7160e01b600052602160045260246000fd5b81600052601f6020600020910160051c8101905b8181106102f657506101c0565b600081556001016102e9565b81600052601f6020600020910160051c8101905b818110610323575061015d565b60008155600101610316565b81600052601f6020600020910160051c8101905b818110610350575061010e565b60008155600101610343565b81600052601f6020600020910160051c8101905b81811061037d57506100c2565b60008155600101610370565b600080fd5b634e487b7160e01b600052604160045260246000fd5b51906001600160a01b038216820361038957565b90600182811c921680156103e8575b60208310146103d257565b634e487b7160e01b600052602260045260246000fd5b91607f16916103c7565b601f82116103fe575050565b600052601f6020600020910160051c8101905b81811061041c575050565b6000815560010161041156fe6080604052600436101561001257600080fd5b60003560e01c80630427bdf1146131ec5780631214ee66146131c05780631fa4a560146124b357806326e98b8b1461245657806329aa16171461242d5780632ae2b664146121dc5780632c90365b14611f785780632c9342de14611d285780633f0db81214611ce05780633f9a61e014611c5457806344d0288114611bc35780635130084a1461170557806355e6a6db146114e75780635ce9284f146114bb5780635d85fa1814611492578063676eeee51461143e578063784940c5146113fa5780637a37128c146113c95780637dcec09f1461139d57806387a6280f1461125157806388c52d7c146111fd5780638fd0f3b4146111cc578063ae169a5014610f0b578063aee8461314610eed578063b122a0ef146109b2578063b51bcc0e1461097c578063b7800e5314610932578063bb1895c814610851578063d42f02d114610472578063e590b56a1461033b578063ed571f0614610290578063f2509ad514610207578063fa95cefb146101b35763faf5625f1461019257600080fd5b346101ae5760003660031901126101ae57602060405160018152f35b600080fd5b346101ae576101c1366134a6565b91600052600c60205260406000209060018060a01b031660005260205260406000209060018060a01b0316600052602052602060ff604060002054166040519015158152f35b346101ae57610215366133fb565b5080600052600f60205260ff60406000205416610252576000908152600f60209081526040808320805460ff191660011790556010909152812055005b60405162461bcd60e51b815260206004820152601660248201527512d95e5cc8185b1c9958591e4819d95b995c985d195960521b6044820152606490fd5b346101ae5760203660031901126101ae57600435600081815260086020526040902060038101546001600160a01b0316330361030857600d01600181546102da60ff82161561360d565b60ff19161790557fe68f10f94ca2685d65a39a1841c1e1e00e8df8b2fa15dd0562e32c33af49fe17600080a2005b60405162461bcd60e51b815260206004820152600b60248201526a2737ba1031b932b0ba37b960a91b6044820152606490fd5b346101ae5760203660031901126101ae576004356000526008602052604060002080546001820161036b906132aa565b90610378600284016132aa565b60038401546004850154600586015492956001600160a01b03909216926103a1600684016132aa565b946007840154956008850154600986015491600a87015493600b88015495600c89015497600d8a015499600e01549a6040519e8f9e8f95865260208601610200905261020086016103f19161334e565b85810360408701526104029161334e565b936060015260808d015260a08c01528a810360c08c01526104229161334e565b9760e08a015261010089015261012088015261014087015261016086015261018085015260ff811615156101a08501526101c084019060081c60ff16906104689161353d565b6101e08301520390f35b346101ae576104803661345f565b506000838152600860209081526040808320600983528184203385529092528083206001600160a01b03861684529220600d82015493959194919390929060ff16610819576004015460081c60ff16156107e3576104e16002830154613218565b156107a857600482019360ff85541661077057600e90610504606488111561369e565b60008581526005602090815260408083206001600160a01b0387168452825280832033845290915290205461053c9060ff161561364a565b01805460008581526004602090815260408083206001600160a01b038716845282528083203384529091529020805460ff19169188101560ff169190911790559260008181526005602081815260408084206001600160a01b03871685528252808420338552909152909120805460ff19166001179055830180549093906105c59088906136ea565b80945560068101966105d7885461354a565b8098558554111560405190815260018060a01b03841690837fb0ad8b9f0729f50b6025f5db451debbc7da11dd3f0b6a4ecb8d8919609026b6260203393a460009360009560005b8460005260036020526040600020548110156107195784600052600560205260ff6040808060002060009060018060a01b038b1682526020522087600052600360205261066e84836000206134f6565b905460039190911b1c6001600160a01b0316600090815260209190915220541661069b575b60010161061e565b956106a59061354a565b9584600052600460205260ff6040808060002060009060018060a01b038b168252602052208760005260036020526106e084836000206134f6565b905460039190911b1c6001600160a01b0316600090815260209190915220541615610693579661071160019161354a565b979050610693565b5087868a95600052600360205260406000205460011c111561073757005b61076e94600193610751928560ff198254161790556136f7565b9081600385015554111591019060ff801983541691151516179055565b005b60405162461bcd60e51b815260206004820152601060248201526f105b1c9958591e481c995d9a595dd95960821b6044820152606490fd5b60405162461bcd60e51b8152602060048201526013602482015272139bc81cdd589b5a5cdcda5bdb88199bdd5b99606a1b6044820152606490fd5b60405162461bcd60e51b815260206004820152600e60248201526d2737ba1030903932bb34b2bbb2b960911b6044820152606490fd5b60405162461bcd60e51b815260206004820152601060248201526f10dbdb5b5d5b9a5d1e4818db1bdcd95960821b6044820152606490fd5b346101ae5760403660031901126101ae57604061086c6133e5565b60043560005260096020528160002060009160018060a01b031682526020522080546001820154916108a0600282016132aa565b60038201549160ff60048201546108ec600660058501549401549483604051998a998a52818116151560208b015260081c1615156040890152610160606089015261016088019061334e565b946080870152818116151560a0870152818160081c16151560c0870152818160101c16151560e087015260181c1615156101008501526101208401526101408301520390f35b346101ae57610940366134e0565b90600052600a602052604060002080548210156101ae57602091610963916134f6565b905460405160039290921b1c6001600160a01b03168152f35b346101ae5760203660031901126101ae5760043560078110156101ae5760ff6109a660209261350e565b54166040519015158152f35b60203660031901126101ae5760043580600052600860205260406000209060078201543403610ea8576000818152600960209081526040808320338452909152902054610e72576002546040516323b872dd60e01b81523360048201523060248201526001604482015290602090829060649082906000906001600160a01b03165af1908115610e6657600091610e37575b5015610dfa57604051610a568161326d565b4281526020810192600084526040820160008152602092604051610a7a8582613289565b6000815260608201908152608082019660008852600060a084015260c083019160008352610b1a60e085019260008452600061010087015260006101208701526000610140870152896000526009895260408060002060009060018060a01b03331682528b52209686518855610b036001890192511515839060ff801983541691151516179055565b51815461ff00191690151560081b61ff0016179055565b519788516001600160401b038111610de457610b396002870154613218565b601f8111610d9b575b508799601f8211600114610cf85793610c0361014094600c9998979484610c23957f78da64a590c3052953ad9e0a5546bbf12bb68ae7634e3fb2a774e22a8c6557c19e9f60069a600092610ced575b50508160011b916000199060031b1c19161760028a01555b516003890155610bea6004890193610bd360a08801511515869060ff801983541691151516179055565b51845461ff00191690151560081b61ff0016178455565b51825462ff0000191690151560101b62ff000016178255565b610100830151815463ff000000191690151560181b63ff00000016179055565b6101208101516005850155015191015584600052600a8352610c4933604060002061356a565b600a8101610c57815461354a565b905501610c653482546136ea565b90558260005260038152600a60406000205410610c86575b604051338152a2005b600083815260098252604080822033808452908452818320600401805461ff001916610100179055858352600384529120610cc1919061356a565b33837f8fcd9f5c27415bf85b1f568fbe33a98aaebd94a2f721378109a4a48142f1e3fb600080a3610c7d565b015190503880610b91565b9960028701600052886000209a60005b601f1984168110610d84575061014094600c999897946001857f78da64a590c3052953ad9e0a5546bbf12bb68ae7634e3fb2a774e22a8c6557c19e9f60069a96610c0396610c2399601f19811610610d6b575b505050811b0160028a0155610ba9565b015160001960f88460031b161c19169055388080610d5b565b828201518d556001909c019b918a01918a01610d08565b6002870160005288600020601f830160051c8101918a8410610dda575b601f0160051c01905b818110610dce5750610b42565b60008155600101610dc1565b9091508190610db8565b634e487b7160e01b600052604160045260246000fd5b60405162461bcd60e51b8152602060048201526015602482015274151bdad95b881d1c985b9cd9995c8819985a5b1959605a1b6044820152606490fd5b610e59915060203d602011610e5f575b610e518183613289565b810190613686565b83610a44565b503d610e47565b6040513d6000823e3d90fd5b60405162461bcd60e51b815260206004820152600e60248201526d105b1c9958591e481a9bda5b995960921b6044820152606490fd5b60405162461bcd60e51b815260206004820152601860248201527f496e636f7272656374206465706f73697420616d6f756e7400000000000000006044820152606490fd5b346101ae5760003660031901126101ae576020600754604051908152f35b346101ae5760203660031901126101ae57600435600081815260086020908152604080832060098352818420338552909252909120600d820154610f529060ff16156135cb565b60ff6004820154161561119457600101805460ff8160081c1661115d5760ff811615611118576000848152600b60209081526040808320338085529252822080548392909190835b83811061109f57505050508161103f575b50506101009061ff0019161790556000808080610ff4600886015495600b8101610fd6888254613717565b9055600c60078201549101610fec828254613717565b9055866136ea565b818115611036575b3390f115610e665760407f24b5efa61dd1cfc659205a97fb8ed868f3cb8c81922bab2b96423e5de1de2cb7918151903382526020820152a2005b506108fc610ffc565b90611049916136f7565b600e8401541161105a578480610fab565b60405162461bcd60e51b815260206004820152601960248201527f446964206e6f7420706173732073656e617465206175646974000000000000006044820152606490fd5b89600052600c60205260ff60408080600020600090868252602052206110c5848761342d565b50546001600160a01b031660009081526020919091522054166110eb575b600101610f9a565b949361111061110a600192836111018a8861342d565b500154906136ea565b9561354a565b9590506110e3565b60405162461bcd60e51b815260206004820152601e60248201527f5461736b206e6f7420617070726f7665642062792072657669657765727300006044820152606490fd5b60405162461bcd60e51b815260206004820152600f60248201526e105b1c9958591e4818db185a5b5959608a1b6044820152606490fd5b60405162461bcd60e51b815260206004820152601060248201526f139bdd081c995d9a595dd959081e595d60821b6044820152606490fd5b346101ae576111da366134e0565b906000526003602052604060002080548210156101ae57602091610963916134f6565b346101ae5761120b366134a6565b91600052600560205260406000209060018060a01b031660005260205260406000209060018060a01b0316600052602052602060ff604060002054166040519015158152f35b346101ae5760403660031901126101ae5761126a6133e5565b600435600052600b60205260406000209060018060a01b031660005260205260406000208054906001600160401b038211610de457604051916112b360208260051b0184613289565b80835260208301809260005260206000206000915b83831061135857848660405191829160208301906020845251809152604083019060408160051b85010192916000905b82821061130757505050500390f35b919360019193955060206113488192603f198a8203018652606060408a51878060a01b0381511684528581015186850152015191816040820152019061334e565b96019201920185949391926112f8565b6003602060019260405161136b81613252565b848060a01b038654168152848601548382015261138a600287016132aa565b60408201528152019201920191906112c8565b346101ae5760203660031901126101ae5760043560005260036020526020604060002054604051908152f35b346101ae5760203660031901126101ae57600435600052600f602052602060ff604060002054166040519015158152f35b346101ae5760203660031901126101ae57600435600052600060205261143a61142660406000206132aa565b60405191829160208352602083019061334e565b0390f35b346101ae5761144c366134a6565b91600052600460205260406000209060018060a01b031660005260205260406000209060018060a01b0316600052602052602060ff604060002054166040519015158152f35b346101ae5760003660031901126101ae576006546040516001600160a01b039091168152602090f35b346101ae5760203660031901126101ae57600435600052600a6020526020604060002054604051908152f35b346101ae5760803660031901126101ae576004356115036133e5565b6044356001600160401b0381116101ae5761152290369060040161338f565b5060643580151581036101ae5782600052600f60205260ff60406000205416156116c7571561161f5760206115909160018060a01b0360065416846000526008835260ff600d6040600020015460081c1691604051809581948293630eb2f16160e41b8452600484016135ab565b03915afa908115610e6657600091611600575b50156115c5575b600052601060205260406000206115c1815461354a565b9055005b60405162461bcd60e51b81526020600482015260136024820152722737ba1030903b30b634b21039b2b730ba37b960691b6044820152606490fd5b611619915060203d602011610e5f57610e518183613289565b826115a3565b6000906001600160a01b0316815b8360005260036020526040600020548110156116c0578360005260036020528161165b8260406000206134f6565b905460039190911b1c6001600160a01b03161461167a5760010161162d565b50505060015b6115aa5760405162461bcd60e51b81526020600482015260146024820152732737ba1030903b30b634b2103932bb34b2bbb2b960611b6044820152606490fd5b5050611680565b60405162461bcd60e51b815260206004820152601660248201527512d95e5cc81b9bdd0819d95b995c985d1959081e595d60521b6044820152606490fd5b346101ae576117133661345f565b92909161175a602060018060a01b0360065416846000526008825260ff600d6040600020015460081c16906040518080958194630eb2f16160e41b835233600484016135ab565b03915afa908115610e6657600091611ba4575b5015611b6657611780606484111561369e565b6000828152600c602090815260408083206001600160a01b0385168452825280832033845290915290205460ff16611b305781600052600960205260408060002060009060018060a01b0384168252602052209260ff60048501541615611aeb5782600052600b60205260408060002060009060018060a01b0385168252602052206040519061180f82613252565b3382526020820190838252604083019788528054600160401b811015610de45761183e9160018201815561342d565b919091611ad557915181546001600160a01b0319166001600160a01b039190911617815590516001820155945180519095600201906001600160401b038111610de45761188b8254613218565b601f8111611a8d575b506020601f8211600114611a235781906040969798600092611a18575b50508160011b916000199060031b1c19161790555b6000848152600c60209081528482206001600160a01b0385168084529082528583203380855290835292869020805460ff191660011790558551938452919286917f378f514d49e4abb7486bee29952af6519de11cb70a74cd68479f52457b0518f791a482600052600b6020528160002060009160018060a01b03168252602052208054916000906000926000915b8583106119be575050506003831015809181926119b1575b5015611994575060019291611981916136f7565b600382015501805460ff19166001179055005b91505061199d57005b60006003820155600101805460ff19169055005b90508360011c108561196d565b9091936119d1906001611101878661342d565b9360016119de828561342d565b500154826000526008602052600e604060002001541115611a04575b6001019190611955565b92611a1060019161354a565b9390506119fa565b0151905088806118b1565b601f1982169783600052816000209860005b818110611a75575091604097989991846001959410611a5c575b505050811b0190556118c6565b015160001960f88460031b161c19169055888080611a4f565b838301518b556001909a019960209384019301611a35565b826000526020600020601f830160051c81019160208410611acb575b601f0160051c01905b818110611abf5750611894565b60008155600101611ab2565b9091508190611aa9565b634e487b7160e01b600052600060045260246000fd5b60405162461bcd60e51b815260206004820152601d60248201527f4e6f7420726576696577656420627920726576696577657273207965740000006044820152606490fd5b60405162461bcd60e51b815260206004820152600e60248201526d105b1c9958591e481cd8dbdc995960921b6044820152606490fd5b60405162461bcd60e51b81526020600482015260166024820152752737ba1030baba3437b934bd32b21039b2b730ba37b960511b6044820152606490fd5b611bbd915060203d602011610e5f57610e518183613289565b8561176d565b346101ae5760603660031901126101ae57611bdc6133e5565b60443590600435600052600b60205260406000209060018060a01b031660005260205260406000209081548110156101ae57611c179161342d565b5060018060a01b0381541661143a611c366002600185015494016132aa565b6040519384938452602084015260606040840152606083019061334e565b346101ae5760203660031901126101ae5760043560078110156101ae5760ff611c7c8261350e565b541615611c9b57600052600060205261143a61142660406000206132aa565b60405162461bcd60e51b815260206004820152601760248201527f43617465676f727920646f6573206e6f742065786973740000000000000000006044820152606490fd5b346101ae5760403660031901126101ae57611cf96133e5565b600435600052600e60205260406000209060018060a01b031660005260205261143a61142660406000206132aa565b346101ae5760403660031901126101ae576004356024358015158082036101ae578260005260086020526040600020836000526009602052604060002060018060a01b033316600052602052600d6040600020910192611d8c60ff8554161561360d565b815415611f44576004611dd79201620100008154611db060ff8260101c161561364a565b63ff0000001990911663ffff0000199091161791151560181b63ff00000016919091179055565b604051908152827fa953b79a8bda2946b1e815d9e09876df8d499a7d04ace4eccec405ae4a96cf0860203393a3600080805b84600052600a602052604060002054811015611eac57846000526009602052600460408060002087600052600a602052611e4684836000206134f6565b905460039190911b1c6001600160a01b03166000908152602091909152200154601081901c60ff16611e7c575b50600101611e09565b91611e8860ff9161354a565b9260181c16611e98575b85611e73565b91611ea460019161354a565b929050611e92565b5080159182159283611efd575b505050611ec257005b805460ff19166001179055611ed681613724565b7fe68f10f94ca2685d65a39a1841c1e1e00e8df8b2fa15dd0562e32c33af49fe17600080a2005b90919250600382029180830460031490151715611f2e578260011b9283046002141715611f2e571015838080611eb9565b634e487b7160e01b600052601160045260246000fd5b60405162461bcd60e51b815260206004820152600c60248201526b2737ba10309036b2b6b132b960a11b6044820152606490fd5b346101ae5760203660031901126101ae57600435600081815260086020526040902060038101546001600160a01b031633036121975780611fc260ff600d6005940154161561360d565b0154421061215e5760405160018152817fa953b79a8bda2946b1e815d9e09876df8d499a7d04ace4eccec405ae4a96cf0860203393a360008181526009602090815260408083203380855281845282852060048101805463ffff000019166301010000179055868652600885529285209452909152600d909101805490919061204e9060ff161561360d565b805415611f445760040162010000815461206e60ff8260101c161561364a565b62ff00001916178155630100000063ff0000001982541617905560405160018152827fa953b79a8bda2946b1e815d9e09876df8d499a7d04ace4eccec405ae4a96cf0860203393a3600080805b84600052600a602052604060002054811015611eac57846000526009602052600460408060002087600052600a6020526120f884836000206134f6565b905460039190911b1c6001600160a01b03166000908152602091909152200154601081901c60ff1661212e575b506001016120bb565b9161213a60ff9161354a565b9260181c1661214a575b85612125565b9161215660019161354a565b929050612144565b60405162461bcd60e51b8152602060048201526011602482015270436f6d6d756e697479206f6e676f696e6760781b6044820152606490fd5b60405162461bcd60e51b815260206004820152601860248201527f4f6e6c792063726561746f722063616e2070726f706f736500000000000000006044820152606490fd5b346101ae576121ea366133fb565b908060005260086020526040600020816000526009602052604060002060018060a01b03331660005260205261222c60ff600d604060002093015416156135cb565b60ff6004820154166123f4578251156123b857600201918051926001600160401b038411610de45761225e8154613218565b601f8111612370575b50602093601f81116001146122e65790816122d693927fbf478fda32150efbea16148df9d2dc95245fe55fe761f2bd87b66ce55637b2af95966000916122db575b508160011b916000199060031b1c19161790555b60405191829133835260406020840152604083019061334e565b0390a2005b9050830151876122a8565b601f19811682600052856000209060005b8181106123585750916001917fbf478fda32150efbea16148df9d2dc95245fe55fe761f2bd87b66ce55637b2af9697826122d69796951061233f575b5050811b0190556122bc565b85015160001960f88460031b161c191690558780612333565b858801518355602097880197600190930192016122f7565b816000526020600020601f860160051c810191602087106123ae575b601f0160051c01905b8181106123a25750612267565b60008155600101612395565b909150819061238c565b60405162461bcd60e51b8152602060048201526014602482015273115b5c1d1e481cdd589b5a5cdcda5bdb8815549360621b6044820152606490fd5b60405162461bcd60e51b8152602060048201526011602482015270105b1c9958591e481cdd589b5a5d1d1959607a1b6044820152606490fd5b346101ae5760003660031901126101ae576002546040516001600160a01b039091168152602090f35b346101ae5760403660031901126101ae5761246f6133e5565b600435600052600960205260406000209060018060a01b031660005260205260408060002060ff600181600484015416920154168251911515825215156020820152f35b6101203660031901126101ae576004356001600160401b0381116101ae576124df90369060040161338f565b6024356001600160401b0381116101ae576124fe90369060040161338f565b6044356001600160401b0381116101ae5761251d90369060040161338f565b916064359260a43560c4359160e43560076101043510156101ae574287111561317b5782156131365783156130e65780156130a1578084029084820403611f2e57341061305c57602495600754956125748761354a565b600755600654604051631ce87ebb60e01b8152986020918a919082906001600160a01b03166125a9600483016101043561353d565b5afa978815610e6657600098613028575b506040519561020087018781106001600160401b03821117610de45760405287875260208701526040860152336060860152608085015260843560a085015260c084015260e08301526101008201526064610120820152600061014082015234610160820152600061018082015260006101a0820152600092610104356101c08301526101e0820152818352600860205260408320908051825560208101518051906001600160401b038211612e825781906126796001860154613218565b601f8111612fd8575b50602090601f8311600114612f6a578792612f5f575b50508160011b916000199060031b1c19161760018301555b60408101518051906001600160401b038211612e825781906126d56002860154613218565b601f8111612f0f575b50602090601f8311600114612ea1578792612e96575b50508160011b916000199060031b1c19161760028301555b60608101516003830180546001600160a01b0319166001600160a01b03929092169190911790556080810151600483015560a0810151600583015560c08101518051906001600160401b038211612e8257819061276c6006860154613218565b601f8111612e32575b50602090601f8311600114612dc9578792612dbe575b50508160011b916000199060031b1c19161760068301555b60e0810151600783015561010081015160088301556101208101516009830155610140810151600a830155610160810151600b830155610180810151600c830155600d82016128056101a08301511515829060ff801983541691151516179055565b6101c08201516007811015612daa57815461ff00191660089190911b61ff00161790556101e00151600e919091015560405161284081613252565b73f39fd6e51aad88f6f4ce6ab8827279cfffb9226681527370997970c51812dc3a010c7d01b50e0d17dc79c860208201527370997970c51812dc3a010c7d01b50e0d17dc79c8604082015282906020915b60038110612b4f5750506040516128a78161326d565b42815281810190848252604081019185835261293f604051916128ca8684613289565b878352606084019283528760808501528760a08501528760c08501528760e0850152876101008501528761012085015287610140850152868852600986526040882060018060a01b03331689528652604088209484518655610b036001870192511515839060ff801983541691151516179055565b518051906001600160401b038211612b3b5761295e6002850154613218565b601f8111612af9575b508490601f8311600114612a875792826006936101409360089897968b92612a7c575b50508160011b916000199060031b1c19161760028501555b60808101516003850155612a08600485016129cf60a08401511515829060ff801983541691151516179055565b60c0830151815461ff00191690151560081b61ff001617815560e0830151815462ff0000191690151560101b62ff000016178155610c03565b61012081015160058501550151910155828452600a8152612a2c336040862061356a565b82845252600a6040832001612a41815461354a565b90557f4406e0fd454e0f528174e628e0716cd1972c77f1fffd2faa8d73f468957ff39160405180612a766101043533836135ab565b0390a280f35b015190508a8061298a565b6002850188528588209190601f198416895b818110612ae2575093610140936008989796936001938360069810612ac9575b505050811b0160028501556129a2565b015160001960f88460031b161c191690558a8080612ab9565b929388600181928786015181550195019301612a99565b600285018852858820601f840160051c8101878510612b34575b601f830160051c82018110612b29575050612967565b898155600101612b13565b5080612b13565b634e487b7160e01b87526041600452602487fd5b8385526003835260408520612b78906001600160a01b03612b708486613559565b51169061356a565b604051612b848161326d565b428152838101908682526040810191878352612c2f60405191612ba78884613289565b898352606084019283528960808501528960a0850152600160c08501528960e0850152896101008501528961012085015289610140850152888a526009885260408a2060018060a01b03612bfb888a613559565b511660018060a01b03168b52885260408a209484518655610b036001870192511515839060ff801983541691151516179055565b518051906001600160401b038211612d9657612c4e6002850154613218565b601f8111612d54575b508690601f8311600114612cdf5792826006936101409360019897968d92612cd4575b5050600019600383901b1c191690871b1760028501555b60808101516003850155612cbe600485016129cf60a08401511515829060ff801983541691151516179055565b6101208101516005850155015191015501612891565b015190508c80612c7a565b90600285018a52878a20918a5b89601f1986168210612d3e57505083610140936001989796938993600697601f19811610612d25575b505050811b016002850155612c91565b015160001960f88460031b161c191690558c8080612d15565b6001849582939585015181550194019201612cec565b600285018a52878a20601f840160051c8101898510612d8f575b601f830160051c82018110612d84575050612c57565b8b8155600101612d6e565b5080612d6e565b634e487b7160e01b89526041600452602489fd5b634e487b7160e01b86526021600452602486fd5b01519050868061278b565b6006860188528188209250601f198416885b818110612e1a5750908460019594939210612e01575b505050811b0160068301556127a3565b015160001960f88460031b161c19169055868080612df1565b92936020600181928786015181550195019301612ddb565b90915060068501875260208720601f840160051c810160208510612e7b575b90849392915b601f830160051c82018110612e6d575050612775565b898155859450600101612e57565b5080612e51565b634e487b7160e01b86526041600452602486fd5b0151905086806126f4565b92506002850187528087209087935b601f1984168510612ef4576001945083601f19811610612edb575b505050811b01600283015561270c565b015160001960f88460031b161c19169055868080612ecb565b81810151835560209485019460019093019290910190612eb0565b90915060028501875260208720601f840160051c810160208510612f58575b90849392915b601f830160051c82018110612f4a5750506126de565b898155859450600101612f34565b5080612f2e565b015190508680612698565b92506001850187528087209087935b601f1984168510612fbd576001945083601f19811610612fa4575b505050811b0160018301556126b0565b015160001960f88460031b161c19169055868080612f94565b81810151835560209485019460019093019290910190612f79565b90915060018501875260208720601f840160051c810160208510613021575b90849392915b601f830160051c82018110613013575050612682565b898155859450600101612ffd565b5080612ff7565b9097506020813d602011613054575b8161304460209383613289565b810103126101ae575196886125ba565b3d9150613037565b60405162461bcd60e51b815260206004820152601860248201527f496e73756666696369656e742072657761726420706f6f6c00000000000000006044820152606490fd5b60405162461bcd60e51b815260206004820152601c60248201527f4d6178206d656d62657273206d75737420626520706f736974697665000000006044820152606490fd5b60405162461bcd60e51b815260206004820152602260248201527f52657761726420706572206d656d626572206d75737420626520706f73697469604482015261766560f01b6064820152608490fd5b60405162461bcd60e51b815260206004820152601f60248201527f4d656d626572206465706f736974206d75737420626520706f736974697665006044820152606490fd5b60405162461bcd60e51b815260206004820152601c60248201527f53746172742074696d65206d75737420626520696e20667574757265000000006044820152606490fd5b346101ae5760203660031901126101ae5760043560005260106020526020604060002054604051908152f35b346101ae5760203660031901126101ae57600435600052600d60205261143a61142660406000206132aa565b90600182811c92168015613248575b602083101461323257565b634e487b7160e01b600052602260045260246000fd5b91607f1691613227565b606081019081106001600160401b03821117610de457604052565b61016081019081106001600160401b03821117610de457604052565b90601f801991011681019081106001600160401b03821117610de457604052565b90604051918260008254926132be84613218565b808452936001811690811561332c57506001146132e5575b506132e392500383613289565b565b90506000929192526020600020906000915b8183106133105750509060206132e392820101386132d6565b60209193508060019154838589010152019101909184926132f7565b9050602092506132e394915060ff191682840152151560051b820101386132d6565b919082519283825260005b84811061337a575050826000602080949584010152601f8019910116010190565b80602080928401015182828601015201613359565b81601f820112156101ae578035906001600160401b038211610de457604051926133c3601f8401601f191660200185613289565b828452602083830101116101ae57816000926020809301838601378301015290565b602435906001600160a01b03821682036101ae57565b9060406003198301126101ae5760043591602435906001600160401b0382116101ae5761342a9160040161338f565b90565b8054821015613449576000526003602060002091020190600090565b634e487b7160e01b600052603260045260246000fd5b9060806003198301126101ae57600435916024356001600160a01b03811681036101ae579160443591606435906001600160401b0382116101ae5761342a9160040161338f565b60609060031901126101ae57600435906024356001600160a01b03811681036101ae57906044356001600160a01b03811681036101ae5790565b60409060031901126101ae576004359060243590565b80548210156134495760005260206000200190600090565b6007811015613527576000526001602052604060002090565b634e487b7160e01b600052602160045260246000fd5b9060078210156135275752565b6000198114611f2e5760010190565b9060038110156134495760051b0190565b8054600160401b811015610de457613587916001820181556134f6565b81546001600160a01b0393841660039290921b91821b9390911b1916919091179055565b6001600160a01b0390911681526040810192916132e3916020019061353d565b156135d257565b60405162461bcd60e51b815260206004820152601360248201527210dbdb5b5d5b9a5d1e481a5cc818db1bdcd959606a1b6044820152606490fd5b1561361457565b60405162461bcd60e51b815260206004820152600e60248201526d105b1c9958591e4818db1bdcd95960921b6044820152606490fd5b1561365157565b60405162461bcd60e51b815260206004820152600d60248201526c105b1c9958591e481d9bdd1959609a1b6044820152606490fd5b908160209103126101ae575180151581036101ae5790565b156136a557565b60405162461bcd60e51b815260206004820152601f60248201527f53636f7265206d757374206265206265747765656e203020616e6420313030006044820152606490fd5b91908201809211611f2e57565b8115613701570490565b634e487b7160e01b600052601260045260246000fd5b91908203918211611f2e57565b80600052600860205260406000209080600052600a602052604060002054801561381257600b83019161375f600c84549501948554906136ea565b801561380b578261376f916136f7565b9060005b838110613787575050505090600080925555565b81600052600a6020528261379f8260406000206134f6565b9054600085815260096020908152604080832060039590951b9390931c6001600160a01b0316808352939052206001015460081c60ff16156137e6575b5050600101613773565b60008080938193828215613802575bf115610e665782386137dc565b506108fc6137f5565b5050505050565b50505056fea2646970667358221220e0c9a63424d4974b9d34b1280aa8dd843b1f4988ce2799dca33d47c282ff3b2064736f6c634300081c0033","opcodes":"PUSH1 0x80 CALLVALUE PUSH2 0x389 JUMPI PUSH1 0x1F PUSH2 0x3C76 CODESIZE DUP2 SWAP1 SUB SWAP2 DUP3 ADD PUSH1 0x1F NOT AND DUP4 ADD SWAP2 PUSH1 0x1 PUSH1 0x1 PUSH1 0x40 SHL SUB DUP4 GT DUP5 DUP5 LT OR PUSH2 0x38E JUMPI DUP1 DUP5 SWAP3 PUSH1 0x40 SWAP5 DUP6 MSTORE DUP4 CODECOPY DUP2 ADD SUB SLT PUSH2 0x389 JUMPI PUSH2 0x52 PUSH1 0x20 PUSH2 0x4B DUP4 PUSH2 0x3A4 JUMP JUMPDEST SWAP3 ADD PUSH2 0x3A4 JUMP JUMPDEST SWAP1 PUSH1 0x1 PUSH1 0x0 MSTORE PUSH1 0x0 PUSH1 0x20 MSTORE PUSH1 0x40 PUSH1 0x0 KECCAK256 PUSH2 0x75 PUSH2 0x6F DUP3 SLOAD PUSH2 0x3B8 JUMP JUMPDEST DUP3 PUSH2 0x3F2 JUMP JUMPDEST PUSH1 0xA PUSH5 0x4D75736963 PUSH1 0xD8 SHL ADD SWAP1 SSTORE PUSH1 0x2 PUSH1 0x0 SWAP1 DUP2 MSTORE PUSH1 0x20 MSTORE PUSH32 0xABBB5CAA7DDA850E60932DE0934EB1F9D0F59695050F761DC64E443E5030A569 DUP1 SLOAD PUSH2 0xB9 SWAP1 PUSH2 0x3B8 JUMP JUMPDEST PUSH1 0x1F DUP2 GT PUSH2 0x35C JUMPI JUMPDEST POP PUSH1 0x6 PUSH3 0x105C9D PUSH1 0xEA SHL ADD SWAP1 SSTORE PUSH1 0x3 PUSH1 0x0 SWAP1 DUP2 MSTORE PUSH1 0x20 MSTORE PUSH32 0x101E368776582E57AB3D116FFE2517C0A585CD5B23174B01E275C2D8329C3D83 DUP1 SLOAD PUSH2 0x105 SWAP1 PUSH2 0x3B8 JUMP JUMPDEST PUSH1 0x1F DUP2 GT PUSH2 0x32F JUMPI JUMPDEST POP PUSH1 0xC PUSH6 0x53706F727473 PUSH1 0xD0 SHL ADD SWAP1 SSTORE PUSH1 0x4 PUSH1 0x0 SWAP1 DUP2 MSTORE PUSH1 0x20 MSTORE PUSH32 0x52D75039926638D3C558B2BDEFB945D5BE8DAE29DEDD1C313212A4D472D9FDE5 DUP1 SLOAD PUSH2 0x154 SWAP1 PUSH2 0x3B8 JUMP JUMPDEST PUSH1 0x1F DUP2 GT PUSH2 0x302 JUMPI JUMPDEST POP PUSH32 0x456475636174696F6E0000000000000000000000000000000000000000000012 SWAP1 SSTORE PUSH1 0x5 PUSH1 0x0 SWAP1 DUP2 MSTORE PUSH1 0x20 MSTORE PUSH32 0x2B232C97452F0950C94E2539FDC7E69D21166113CF7A9BCB99B220A3FE5D720A DUP1 SLOAD PUSH2 0x1B7 SWAP1 PUSH2 0x3B8 JUMP JUMPDEST PUSH1 0x1F DUP2 GT PUSH2 0x2D5 JUMPI JUMPDEST POP PUSH32 0x546563686E6F6C6F677900000000000000000000000000000000000000000014 SWAP1 SSTORE PUSH1 0x6 PUSH1 0x0 SWAP1 DUP2 MSTORE PUSH1 0x20 MSTORE PUSH32 0x62103CF3131C85DF57AAD364D21CBA02556D3092D6CB54C298C2E7726A7870BD DUP1 SLOAD PUSH2 0x21E SWAP1 PUSH2 0x6F SWAP1 PUSH2 0x3B8 JUMP JUMPDEST PUSH1 0xA PUSH5 0x27BA3432B9 PUSH1 0xD9 SHL ADD SWAP1 SSTORE PUSH1 0x0 JUMPDEST PUSH1 0x6 DUP2 GT ISZERO PUSH2 0x277 JUMPI POP PUSH1 0x6 DUP1 SLOAD PUSH1 0x1 PUSH1 0x1 PUSH1 0xA0 SHL SUB SWAP3 DUP4 AND PUSH1 0x1 PUSH1 0x1 PUSH1 0xA0 SHL SUB NOT SWAP2 DUP3 AND OR SWAP1 SWAP2 SSTORE PUSH1 0x2 DUP1 SLOAD SWAP4 SWAP1 SWAP3 AND SWAP3 AND SWAP2 SWAP1 SWAP2 OR SWAP1 SSTORE PUSH1 0x40 MLOAD PUSH2 0x384D SWAP1 DUP2 PUSH2 0x429 DUP3 CODECOPY RETURN JUMPDEST PUSH1 0x7 DUP2 LT ISZERO PUSH2 0x2BF JUMPI PUSH1 0x40 PUSH1 0x0 DUP3 DUP2 MSTORE PUSH1 0x1 PUSH1 0x20 MSTORE KECCAK256 PUSH1 0x1 PUSH1 0xFF NOT DUP3 SLOAD AND OR SWAP1 SSTORE PUSH1 0x0 NOT DUP2 EQ PUSH2 0x2A9 JUMPI PUSH1 0x1 ADD PUSH2 0x22F JUMP JUMPDEST PUSH4 0x4E487B71 PUSH1 0xE0 SHL PUSH1 0x0 MSTORE PUSH1 0x11 PUSH1 0x4 MSTORE PUSH1 0x24 PUSH1 0x0 REVERT JUMPDEST PUSH4 0x4E487B71 PUSH1 0xE0 SHL PUSH1 0x0 MSTORE PUSH1 0x21 PUSH1 0x4 MSTORE PUSH1 0x24 PUSH1 0x0 REVERT JUMPDEST DUP2 PUSH1 0x0 MSTORE PUSH1 0x1F PUSH1 0x20 PUSH1 0x0 KECCAK256 SWAP2 ADD PUSH1 0x5 SHR DUP2 ADD SWAP1 JUMPDEST DUP2 DUP2 LT PUSH2 0x2F6 JUMPI POP PUSH2 0x1C0 JUMP JUMPDEST PUSH1 0x0 DUP2 SSTORE PUSH1 0x1 ADD PUSH2 0x2E9 JUMP JUMPDEST DUP2 PUSH1 0x0 MSTORE PUSH1 0x1F PUSH1 0x20 PUSH1 0x0 KECCAK256 SWAP2 ADD PUSH1 0x5 SHR DUP2 ADD SWAP1 JUMPDEST DUP2 DUP2 LT PUSH2 0x323 JUMPI POP PUSH2 0x15D JUMP JUMPDEST PUSH1 0x0 DUP2 SSTORE PUSH1 0x1 ADD PUSH2 0x316 JUMP JUMPDEST DUP2 PUSH1 0x0 MSTORE PUSH1 0x1F PUSH1 0x20 PUSH1 0x0 KECCAK256 SWAP2 ADD PUSH1 0x5 SHR DUP2 ADD SWAP1 JUMPDEST DUP2 DUP2 LT PUSH2 0x350 JUMPI POP PUSH2 0x10E JUMP JUMPDEST PUSH1 0x0 DUP2 SSTORE PUSH1 0x1 ADD PUSH2 0x343 JUMP JUMPDEST DUP2 PUSH1 0x0 MSTORE PUSH1 0x1F PUSH1 0x20 PUSH1 0x0 KECCAK256 SWAP2 ADD PUSH1 0x5 SHR DUP2 ADD SWAP1 JUMPDEST DUP2 DUP2 LT PUSH2 0x37D JUMPI POP PUSH2 0xC2 JUMP JUMPDEST PUSH1 0x0 DUP2 SSTORE PUSH1 0x1 ADD PUSH2 0x370 JUMP JUMPDEST PUSH1 0x0 DUP1 REVERT JUMPDEST PUSH4 0x4E487B71 PUSH1 0xE0 SHL PUSH1 0x0 MSTORE PUSH1 0x41 PUSH1 0x4 MSTORE PUSH1 0x24 PUSH1 0x0 REVERT JUMPDEST MLOAD SWAP1 PUSH1 0x1 PUSH1 0x1 PUSH1 0xA0 SHL SUB DUP3 AND DUP3 SUB PUSH2 0x389 JUMPI JUMP JUMPDEST SWAP1 PUSH1 0x1 DUP3 DUP2 SHR SWAP3 AND DUP1 ISZERO PUSH2 0x3E8 JUMPI JUMPDEST PUSH1 0x20 DUP4 LT EQ PUSH2 0x3D2 JUMPI JUMP JUMPDEST PUSH4 0x4E487B71 PUSH1 0xE0 SHL PUSH1 0x0 MSTORE PUSH1 0x22 PUSH1 0x4 MSTORE PUSH1 0x24 PUSH1 0x0 REVERT JUMPDEST SWAP2 PUSH1 0x7F AND SWAP2 PUSH2 0x3C7 JUMP JUMPDEST PUSH1 0x1F DUP3 GT PUSH2 0x3FE JUMPI POP POP JUMP JUMPDEST PUSH1 0x0 MSTORE PUSH1 0x1F PUSH1 0x20 PUSH1 0x0 KECCAK256 SWAP2 ADD PUSH1 0x5 SHR DUP2 ADD SWAP1 JUMPDEST DUP2 DUP2 LT PUSH2 0x41C JUMPI POP POP JUMP JUMPDEST PUSH1 0x0 DUP2 SSTORE PUSH1 0x1 ADD PUSH2 0x411 JUMP INVALID PUSH1 0x80 PUSH1 0x40 MSTORE PUSH1 0x4 CALLDATASIZE LT ISZERO PUSH2 0x12 JUMPI PUSH1 0x0 DUP1 REVERT JUMPDEST PUSH1 0x0 CALLDATALOAD PUSH1 0xE0 SHR DUP1 PUSH4 0x427BDF1 EQ PUSH2 0x31EC JUMPI DUP1 PUSH4 0x1214EE66 EQ PUSH2 0x31C0 JUMPI DUP1 PUSH4 0x1FA4A560 EQ PUSH2 0x24B3 JUMPI DUP1 PUSH4 0x26E98B8B EQ PUSH2 0x2456 JUMPI DUP1 PUSH4 0x29AA1617 EQ PUSH2 0x242D JUMPI DUP1 PUSH4 0x2AE2B664 EQ PUSH2 0x21DC JUMPI DUP1 PUSH4 0x2C90365B EQ PUSH2 0x1F78 JUMPI DUP1 PUSH4 0x2C9342DE EQ PUSH2 0x1D28 JUMPI DUP1 PUSH4 0x3F0DB812 EQ PUSH2 0x1CE0 JUMPI DUP1 PUSH4 0x3F9A61E0 EQ PUSH2 0x1C54 JUMPI DUP1 PUSH4 0x44D02881 EQ PUSH2 0x1BC3 JUMPI DUP1 PUSH4 0x5130084A EQ PUSH2 0x1705 JUMPI DUP1 PUSH4 0x55E6A6DB EQ PUSH2 0x14E7 JUMPI DUP1 PUSH4 0x5CE9284F EQ PUSH2 0x14BB JUMPI DUP1 PUSH4 0x5D85FA18 EQ PUSH2 0x1492 JUMPI DUP1 PUSH4 0x676EEEE5 EQ PUSH2 0x143E JUMPI DUP1 PUSH4 0x784940C5 EQ PUSH2 0x13FA JUMPI DUP1 PUSH4 0x7A37128C EQ PUSH2 0x13C9 JUMPI DUP1 PUSH4 0x7DCEC09F EQ PUSH2 0x139D JUMPI DUP1 PUSH4 0x87A6280F EQ PUSH2 0x1251 JUMPI DUP1 PUSH4 0x88C52D7C EQ PUSH2 0x11FD JUMPI DUP1 PUSH4 0x8FD0F3B4 EQ PUSH2 0x11CC JUMPI DUP1 PUSH4 0xAE169A50 EQ PUSH2 0xF0B JUMPI DUP1 PUSH4 0xAEE84613 EQ PUSH2 0xEED JUMPI DUP1 PUSH4 0xB122A0EF EQ PUSH2 0x9B2 JUMPI DUP1 PUSH4 0xB51BCC0E EQ PUSH2 0x97C JUMPI DUP1 PUSH4 0xB7800E53 EQ PUSH2 0x932 JUMPI DUP1 PUSH4 0xBB1895C8 EQ PUSH2 0x851 JUMPI DUP1 PUSH4 0xD42F02D1 EQ PUSH2 0x472 JUMPI DUP1 PUSH4 0xE590B56A EQ PUSH2 0x33B JUMPI DUP1 PUSH4 0xED571F06 EQ PUSH2 0x290 JUMPI DUP1 PUSH4 0xF2509AD5 EQ PUSH2 0x207 JUMPI DUP1 PUSH4 0xFA95CEFB EQ PUSH2 0x1B3 JUMPI PUSH4 0xFAF5625F EQ PUSH2 0x192 JUMPI PUSH1 0x0 DUP1 REVERT JUMPDEST CALLVALUE PUSH2 0x1AE JUMPI PUSH1 0x0 CALLDATASIZE PUSH1 0x3 NOT ADD SLT PUSH2 0x1AE JUMPI PUSH1 0x20 PUSH1 0x40 MLOAD PUSH1 0x1 DUP2 MSTORE RETURN JUMPDEST PUSH1 0x0 DUP1 REVERT JUMPDEST CALLVALUE PUSH2 0x1AE JUMPI PUSH2 0x1C1 CALLDATASIZE PUSH2 0x34A6 JUMP JUMPDEST SWAP2 PUSH1 0x0 MSTORE PUSH1 0xC PUSH1 0x20 MSTORE PUSH1 0x40 PUSH1 0x0 KECCAK256 SWAP1 PUSH1 0x1 DUP1 PUSH1 0xA0 SHL SUB AND PUSH1 0x0 MSTORE PUSH1 0x20 MSTORE PUSH1 0x40 PUSH1 0x0 KECCAK256 SWAP1 PUSH1 0x1 DUP1 PUSH1 0xA0 SHL SUB AND PUSH1 0x0 MSTORE PUSH1 0x20 MSTORE PUSH1 0x20 PUSH1 0xFF PUSH1 0x40 PUSH1 0x0 KECCAK256 SLOAD AND PUSH1 0x40 MLOAD SWAP1 ISZERO ISZERO DUP2 MSTORE RETURN JUMPDEST CALLVALUE PUSH2 0x1AE JUMPI PUSH2 0x215 CALLDATASIZE PUSH2 0x33FB JUMP JUMPDEST POP DUP1 PUSH1 0x0 MSTORE PUSH1 0xF PUSH1 0x20 MSTORE PUSH1 0xFF PUSH1 0x40 PUSH1 0x0 KECCAK256 SLOAD AND PUSH2 0x252 JUMPI PUSH1 0x0 SWAP1 DUP2 MSTORE PUSH1 0xF PUSH1 0x20 SWAP1 DUP2 MSTORE PUSH1 0x40 DUP1 DUP4 KECCAK256 DUP1 SLOAD PUSH1 0xFF NOT AND PUSH1 0x1 OR SWAP1 SSTORE PUSH1 0x10 SWAP1 SWAP2 MSTORE DUP2 KECCAK256 SSTORE STOP JUMPDEST PUSH1 0x40 MLOAD PUSH3 0x461BCD PUSH1 0xE5 SHL DUP2 MSTORE PUSH1 0x20 PUSH1 0x4 DUP3 ADD MSTORE PUSH1 0x16 PUSH1 0x24 DUP3 ADD MSTORE PUSH22 0x12D95E5CC8185B1C9958591E4819D95B995C985D1959 PUSH1 0x52 SHL PUSH1 0x44 DUP3 ADD MSTORE PUSH1 0x64 SWAP1 REVERT JUMPDEST CALLVALUE PUSH2 0x1AE JUMPI PUSH1 0x20 CALLDATASIZE PUSH1 0x3 NOT ADD SLT PUSH2 0x1AE JUMPI PUSH1 0x4 CALLDATALOAD PUSH1 0x0 DUP2 DUP2 MSTORE PUSH1 0x8 PUSH1 0x20 MSTORE PUSH1 0x40 SWAP1 KECCAK256 PUSH1 0x3 DUP2 ADD SLOAD PUSH1 0x1 PUSH1 0x1 PUSH1 0xA0 SHL SUB AND CALLER SUB PUSH2 0x308 JUMPI PUSH1 0xD ADD PUSH1 0x1 DUP2 SLOAD PUSH2 0x2DA PUSH1 0xFF DUP3 AND ISZERO PUSH2 0x360D JUMP JUMPDEST PUSH1 0xFF NOT AND OR SWAP1 SSTORE PUSH32 0xE68F10F94CA2685D65A39A1841C1E1E00E8DF8B2FA15DD0562E32C33AF49FE17 PUSH1 0x0 DUP1 LOG2 STOP JUMPDEST PUSH1 0x40 MLOAD PUSH3 0x461BCD PUSH1 0xE5 SHL DUP2 MSTORE PUSH1 0x20 PUSH1 0x4 DUP3 ADD MSTORE PUSH1 0xB PUSH1 0x24 DUP3 ADD MSTORE PUSH11 0x2737BA1031B932B0BA37B9 PUSH1 0xA9 SHL PUSH1 0x44 DUP3 ADD MSTORE PUSH1 0x64 SWAP1 REVERT JUMPDEST CALLVALUE PUSH2 0x1AE JUMPI PUSH1 0x20 CALLDATASIZE PUSH1 0x3 NOT ADD SLT PUSH2 0x1AE JUMPI PUSH1 0x4 CALLDATALOAD PUSH1 0x0 MSTORE PUSH1 0x8 PUSH1 0x20 MSTORE PUSH1 0x40 PUSH1 0x0 KECCAK256 DUP1 SLOAD PUSH1 0x1 DUP3 ADD PUSH2 0x36B SWAP1 PUSH2 0x32AA JUMP JUMPDEST SWAP1 PUSH2 0x378 PUSH1 0x2 DUP5 ADD PUSH2 0x32AA JUMP JUMPDEST PUSH1 0x3 DUP5 ADD SLOAD PUSH1 0x4 DUP6 ADD SLOAD PUSH1 0x5 DUP7 ADD SLOAD SWAP3 SWAP6 PUSH1 0x1 PUSH1 0x1 PUSH1 0xA0 SHL SUB SWAP1 SWAP3 AND SWAP3 PUSH2 0x3A1 PUSH1 0x6 DUP5 ADD PUSH2 0x32AA JUMP JUMPDEST SWAP5 PUSH1 0x7 DUP5 ADD SLOAD SWAP6 PUSH1 0x8 DUP6 ADD SLOAD PUSH1 0x9 DUP7 ADD SLOAD SWAP2 PUSH1 0xA DUP8 ADD SLOAD SWAP4 PUSH1 0xB DUP9 ADD SLOAD SWAP6 PUSH1 0xC DUP10 ADD SLOAD SWAP8 PUSH1 0xD DUP11 ADD SLOAD SWAP10 PUSH1 0xE ADD SLOAD SWAP11 PUSH1 0x40 MLOAD SWAP15 DUP16 SWAP15 DUP16 SWAP6 DUP7 MSTORE PUSH1 0x20 DUP7 ADD PUSH2 0x200 SWAP1 MSTORE PUSH2 0x200 DUP7 ADD PUSH2 0x3F1 SWAP2 PUSH2 0x334E JUMP JUMPDEST DUP6 DUP2 SUB PUSH1 0x40 DUP8 ADD MSTORE PUSH2 0x402 SWAP2 PUSH2 0x334E JUMP JUMPDEST SWAP4 PUSH1 0x60 ADD MSTORE PUSH1 0x80 DUP14 ADD MSTORE PUSH1 0xA0 DUP13 ADD MSTORE DUP11 DUP2 SUB PUSH1 0xC0 DUP13 ADD MSTORE PUSH2 0x422 SWAP2 PUSH2 0x334E JUMP JUMPDEST SWAP8 PUSH1 0xE0 DUP11 ADD MSTORE PUSH2 0x100 DUP10 ADD MSTORE PUSH2 0x120 DUP9 ADD MSTORE PUSH2 0x140 DUP8 ADD MSTORE PUSH2 0x160 DUP7 ADD MSTORE PUSH2 0x180 DUP6 ADD MSTORE PUSH1 0xFF DUP2 AND ISZERO ISZERO PUSH2 0x1A0 DUP6 ADD MSTORE PUSH2 0x1C0 DUP5 ADD SWAP1 PUSH1 0x8 SHR PUSH1 0xFF AND SWAP1 PUSH2 0x468 SWAP2 PUSH2 0x353D JUMP JUMPDEST PUSH2 0x1E0 DUP4 ADD MSTORE SUB SWAP1 RETURN JUMPDEST CALLVALUE PUSH2 0x1AE JUMPI PUSH2 0x480 CALLDATASIZE PUSH2 0x345F JUMP JUMPDEST POP PUSH1 0x0 DUP4 DUP2 MSTORE PUSH1 0x8 PUSH1 0x20 SWAP1 DUP2 MSTORE PUSH1 0x40 DUP1 DUP4 KECCAK256 PUSH1 0x9 DUP4 MSTORE DUP2 DUP5 KECCAK256 CALLER DUP6 MSTORE SWAP1 SWAP3 MSTORE DUP1 DUP4 KECCAK256 PUSH1 0x1 PUSH1 0x1 PUSH1 0xA0 SHL SUB DUP7 AND DUP5 MSTORE SWAP3 KECCAK256 PUSH1 0xD DUP3 ADD SLOAD SWAP4 SWAP6 SWAP2 SWAP5 SWAP2 SWAP4 SWAP1 SWAP3 SWAP1 PUSH1 0xFF AND PUSH2 0x819 JUMPI PUSH1 0x4 ADD SLOAD PUSH1 0x8 SHR PUSH1 0xFF AND ISZERO PUSH2 0x7E3 JUMPI PUSH2 0x4E1 PUSH1 0x2 DUP4 ADD SLOAD PUSH2 0x3218 JUMP JUMPDEST ISZERO PUSH2 0x7A8 JUMPI PUSH1 0x4 DUP3 ADD SWAP4 PUSH1 0xFF DUP6 SLOAD AND PUSH2 0x770 JUMPI PUSH1 0xE SWAP1 PUSH2 0x504 PUSH1 0x64 DUP9 GT ISZERO PUSH2 0x369E JUMP JUMPDEST PUSH1 0x0 DUP6 DUP2 MSTORE PUSH1 0x5 PUSH1 0x20 SWAP1 DUP2 MSTORE PUSH1 0x40 DUP1 DUP4 KECCAK256 PUSH1 0x1 PUSH1 0x1 PUSH1 0xA0 SHL SUB DUP8 AND DUP5 MSTORE DUP3 MSTORE DUP1 DUP4 KECCAK256 CALLER DUP5 MSTORE SWAP1 SWAP2 MSTORE SWAP1 KECCAK256 SLOAD PUSH2 0x53C SWAP1 PUSH1 0xFF AND ISZERO PUSH2 0x364A JUMP JUMPDEST ADD DUP1 SLOAD PUSH1 0x0 DUP6 DUP2 MSTORE PUSH1 0x4 PUSH1 0x20 SWAP1 DUP2 MSTORE PUSH1 0x40 DUP1 DUP4 KECCAK256 PUSH1 0x1 PUSH1 0x1 PUSH1 0xA0 SHL SUB DUP8 AND DUP5 MSTORE DUP3 MSTORE DUP1 DUP4 KECCAK256 CALLER DUP5 MSTORE SWAP1 SWAP2 MSTORE SWAP1 KECCAK256 DUP1 SLOAD PUSH1 0xFF NOT AND SWAP2 DUP9 LT ISZERO PUSH1 0xFF AND SWAP2 SWAP1 SWAP2 OR SWAP1 SSTORE SWAP3 PUSH1 0x0 DUP2 DUP2 MSTORE PUSH1 0x5 PUSH1 0x20 DUP2 DUP2 MSTORE PUSH1 0x40 DUP1 DUP5 KECCAK256 PUSH1 0x1 PUSH1 0x1 PUSH1 0xA0 SHL SUB DUP8 AND DUP6 MSTORE DUP3 MSTORE DUP1 DUP5 KECCAK256 CALLER DUP6 MSTORE SWAP1 SWAP2 MSTORE SWAP1 SWAP2 KECCAK256 DUP1 SLOAD PUSH1 0xFF NOT AND PUSH1 0x1 OR SWAP1 SSTORE DUP4 ADD DUP1 SLOAD SWAP1 SWAP4 SWAP1 PUSH2 0x5C5 SWAP1 DUP9 SWAP1 PUSH2 0x36EA JUMP JUMPDEST DUP1 SWAP5 SSTORE PUSH1 0x6 DUP2 ADD SWAP7 PUSH2 0x5D7 DUP9 SLOAD PUSH2 0x354A JUMP JUMPDEST DUP1 SWAP9 SSTORE DUP6 SLOAD GT ISZERO PUSH1 0x40 MLOAD SWAP1 DUP2 MSTORE PUSH1 0x1 DUP1 PUSH1 0xA0 SHL SUB DUP5 AND SWAP1 DUP4 PUSH32 0xB0AD8B9F0729F50B6025F5DB451DEBBC7DA11DD3F0B6A4ECB8D8919609026B62 PUSH1 0x20 CALLER SWAP4 LOG4 PUSH1 0x0 SWAP4 PUSH1 0x0 SWAP6 PUSH1 0x0 JUMPDEST DUP5 PUSH1 0x0 MSTORE PUSH1 0x3 PUSH1 0x20 MSTORE PUSH1 0x40 PUSH1 0x0 KECCAK256 SLOAD DUP2 LT ISZERO PUSH2 0x719 JUMPI DUP5 PUSH1 0x0 MSTORE PUSH1 0x5 PUSH1 0x20 MSTORE PUSH1 0xFF PUSH1 0x40 DUP1 DUP1 PUSH1 0x0 KECCAK256 PUSH1 0x0 SWAP1 PUSH1 0x1 DUP1 PUSH1 0xA0 SHL SUB DUP12 AND DUP3 MSTORE PUSH1 0x20 MSTORE KECCAK256 DUP8 PUSH1 0x0 MSTORE PUSH1 0x3 PUSH1 0x20 MSTORE PUSH2 0x66E DUP5 DUP4 PUSH1 0x0 KECCAK256 PUSH2 0x34F6 JUMP JUMPDEST SWAP1 SLOAD PUSH1 0x3 SWAP2 SWAP1 SWAP2 SHL SHR PUSH1 0x1 PUSH1 0x1 PUSH1 0xA0 SHL SUB AND PUSH1 0x0 SWAP1 DUP2 MSTORE PUSH1 0x20 SWAP2 SWAP1 SWAP2 MSTORE KECCAK256 SLOAD AND PUSH2 0x69B JUMPI JUMPDEST PUSH1 0x1 ADD PUSH2 0x61E JUMP JUMPDEST SWAP6 PUSH2 0x6A5 SWAP1 PUSH2 0x354A JUMP JUMPDEST SWAP6 DUP5 PUSH1 0x0 MSTORE PUSH1 0x4 PUSH1 0x20 MSTORE PUSH1 0xFF PUSH1 0x40 DUP1 DUP1 PUSH1 0x0 KECCAK256 PUSH1 0x0 SWAP1 PUSH1 0x1 DUP1 PUSH1 0xA0 SHL SUB DUP12 AND DUP3 MSTORE PUSH1 0x20 MSTORE KECCAK256 DUP8 PUSH1 0x0 MSTORE PUSH1 0x3 PUSH1 0x20 MSTORE PUSH2 0x6E0 DUP5 DUP4 PUSH1 0x0 KECCAK256 PUSH2 0x34F6 JUMP JUMPDEST SWAP1 SLOAD PUSH1 0x3 SWAP2 SWAP1 SWAP2 SHL SHR PUSH1 0x1 PUSH1 0x1 PUSH1 0xA0 SHL SUB AND PUSH1 0x0 SWAP1 DUP2 MSTORE PUSH1 0x20 SWAP2 SWAP1 SWAP2 MSTORE KECCAK256 SLOAD AND ISZERO PUSH2 0x693 JUMPI SWAP7 PUSH2 0x711 PUSH1 0x1 SWAP2 PUSH2 0x354A JUMP JUMPDEST SWAP8 SWAP1 POP PUSH2 0x693 JUMP JUMPDEST POP DUP8 DUP7 DUP11 SWAP6 PUSH1 0x0 MSTORE PUSH1 0x3 PUSH1 0x20 MSTORE PUSH1 0x40 PUSH1 0x0 KECCAK256 SLOAD PUSH1 0x1 SHR GT ISZERO PUSH2 0x737 JUMPI STOP JUMPDEST PUSH2 0x76E SWAP5 PUSH1 0x1 SWAP4 PUSH2 0x751 SWAP3 DUP6 PUSH1 0xFF NOT DUP3 SLOAD AND OR SWAP1 SSTORE PUSH2 0x36F7 JUMP JUMPDEST SWAP1 DUP2 PUSH1 0x3 DUP6 ADD SSTORE SLOAD GT ISZERO SWAP2 ADD SWAP1 PUSH1 0xFF DUP1 NOT DUP4 SLOAD AND SWAP2 ISZERO ISZERO AND OR SWAP1 SSTORE JUMP JUMPDEST STOP JUMPDEST PUSH1 0x40 MLOAD PUSH3 0x461BCD PUSH1 0xE5 SHL DUP2 MSTORE PUSH1 0x20 PUSH1 0x4 DUP3 ADD MSTORE PUSH1 0x10 PUSH1 0x24 DUP3 ADD MSTORE PUSH16 0x105B1C9958591E481C995D9A595DD959 PUSH1 0x82 SHL PUSH1 0x44 DUP3 ADD MSTORE PUSH1 0x64 SWAP1 REVERT JUMPDEST PUSH1 0x40 MLOAD PUSH3 0x461BCD PUSH1 0xE5 SHL DUP2 MSTORE PUSH1 0x20 PUSH1 0x4 DUP3 ADD MSTORE PUSH1 0x13 PUSH1 0x24 DUP3 ADD MSTORE PUSH19 0x139BC81CDD589B5A5CDCDA5BDB88199BDD5B99 PUSH1 0x6A SHL PUSH1 0x44 DUP3 ADD MSTORE PUSH1 0x64 SWAP1 REVERT JUMPDEST PUSH1 0x40 MLOAD PUSH3 0x461BCD PUSH1 0xE5 SHL DUP2 MSTORE PUSH1 0x20 PUSH1 0x4 DUP3 ADD MSTORE PUSH1 0xE PUSH1 0x24 DUP3 ADD MSTORE PUSH14 0x2737BA1030903932BB34B2BBB2B9 PUSH1 0x91 SHL PUSH1 0x44 DUP3 ADD MSTORE PUSH1 0x64 SWAP1 REVERT JUMPDEST PUSH1 0x40 MLOAD PUSH3 0x461BCD PUSH1 0xE5 SHL DUP2 MSTORE PUSH1 0x20 PUSH1 0x4 DUP3 ADD MSTORE PUSH1 0x10 PUSH1 0x24 DUP3 ADD MSTORE PUSH16 0x10DBDB5B5D5B9A5D1E4818DB1BDCD959 PUSH1 0x82 SHL PUSH1 0x44 DUP3 ADD MSTORE PUSH1 0x64 SWAP1 REVERT JUMPDEST CALLVALUE PUSH2 0x1AE JUMPI PUSH1 0x40 CALLDATASIZE PUSH1 0x3 NOT ADD SLT PUSH2 0x1AE JUMPI PUSH1 0x40 PUSH2 0x86C PUSH2 0x33E5 JUMP JUMPDEST PUSH1 0x4 CALLDATALOAD PUSH1 0x0 MSTORE PUSH1 0x9 PUSH1 0x20 MSTORE DUP2 PUSH1 0x0 KECCAK256 PUSH1 0x0 SWAP2 PUSH1 0x1 DUP1 PUSH1 0xA0 SHL SUB AND DUP3 MSTORE PUSH1 0x20 MSTORE KECCAK256 DUP1 SLOAD PUSH1 0x1 DUP3 ADD SLOAD SWAP2 PUSH2 0x8A0 PUSH1 0x2 DUP3 ADD PUSH2 0x32AA JUMP JUMPDEST PUSH1 0x3 DUP3 ADD SLOAD SWAP2 PUSH1 0xFF PUSH1 0x4 DUP3 ADD SLOAD PUSH2 0x8EC PUSH1 0x6 PUSH1 0x5 DUP6 ADD SLOAD SWAP5 ADD SLOAD SWAP5 DUP4 PUSH1 0x40 MLOAD SWAP10 DUP11 SWAP10 DUP11 MSTORE DUP2 DUP2 AND ISZERO ISZERO PUSH1 0x20 DUP12 ADD MSTORE PUSH1 0x8 SHR AND ISZERO ISZERO PUSH1 0x40 DUP10 ADD MSTORE PUSH2 0x160 PUSH1 0x60 DUP10 ADD MSTORE PUSH2 0x160 DUP9 ADD SWAP1 PUSH2 0x334E JUMP JUMPDEST SWAP5 PUSH1 0x80 DUP8 ADD MSTORE DUP2 DUP2 AND ISZERO ISZERO PUSH1 0xA0 DUP8 ADD MSTORE DUP2 DUP2 PUSH1 0x8 SHR AND ISZERO ISZERO PUSH1 0xC0 DUP8 ADD MSTORE DUP2 DUP2 PUSH1 0x10 SHR AND ISZERO ISZERO PUSH1 0xE0 DUP8 ADD MSTORE PUSH1 0x18 SHR AND ISZERO ISZERO PUSH2 0x100 DUP6 ADD MSTORE PUSH2 0x120 DUP5 ADD MSTORE PUSH2 0x140 DUP4 ADD MSTORE SUB SWAP1 RETURN JUMPDEST CALLVALUE PUSH2 0x1AE JUMPI PUSH2 0x940 CALLDATASIZE PUSH2 0x34E0 JUMP JUMPDEST SWAP1 PUSH1 0x0 MSTORE PUSH1 0xA PUSH1 0x20 MSTORE PUSH1 0x40 PUSH1 0x0 KECCAK256 DUP1 SLOAD DUP3 LT ISZERO PUSH2 0x1AE JUMPI PUSH1 0x20 SWAP2 PUSH2 0x963 SWAP2 PUSH2 0x34F6 JUMP JUMPDEST SWAP1 SLOAD PUSH1 0x40 MLOAD PUSH1 0x3 SWAP3 SWAP1 SWAP3 SHL SHR PUSH1 0x1 PUSH1 0x1 PUSH1 0xA0 SHL SUB AND DUP2 MSTORE RETURN JUMPDEST CALLVALUE PUSH2 0x1AE JUMPI PUSH1 0x20 CALLDATASIZE PUSH1 0x3 NOT ADD SLT PUSH2 0x1AE JUMPI PUSH1 0x4 CALLDATALOAD PUSH1 0x7 DUP2 LT ISZERO PUSH2 0x1AE JUMPI PUSH1 0xFF PUSH2 0x9A6 PUSH1 0x20 SWAP3 PUSH2 0x350E JUMP JUMPDEST SLOAD AND PUSH1 0x40 MLOAD SWAP1 ISZERO ISZERO DUP2 MSTORE RETURN JUMPDEST PUSH1 0x20 CALLDATASIZE PUSH1 0x3 NOT ADD SLT PUSH2 0x1AE JUMPI PUSH1 0x4 CALLDATALOAD DUP1 PUSH1 0x0 MSTORE PUSH1 0x8 PUSH1 0x20 MSTORE PUSH1 0x40 PUSH1 0x0 KECCAK256 SWAP1 PUSH1 0x7 DUP3 ADD SLOAD CALLVALUE SUB PUSH2 0xEA8 JUMPI PUSH1 0x0 DUP2 DUP2 MSTORE PUSH1 0x9 PUSH1 0x20 SWAP1 DUP2 MSTORE PUSH1 0x40 DUP1 DUP4 KECCAK256 CALLER DUP5 MSTORE SWAP1 SWAP2 MSTORE SWAP1 KECCAK256 SLOAD PUSH2 0xE72 JUMPI PUSH1 0x2 SLOAD PUSH1 0x40 MLOAD PUSH4 0x23B872DD PUSH1 0xE0 SHL DUP2 MSTORE CALLER PUSH1 0x4 DUP3 ADD MSTORE ADDRESS PUSH1 0x24 DUP3 ADD MSTORE PUSH1 0x1 PUSH1 0x44 DUP3 ADD MSTORE SWAP1 PUSH1 0x20 SWAP1 DUP3 SWAP1 PUSH1 0x64 SWAP1 DUP3 SWAP1 PUSH1 0x0 SWAP1 PUSH1 0x1 PUSH1 0x1 PUSH1 0xA0 SHL SUB AND GAS CALL SWAP1 DUP2 ISZERO PUSH2 0xE66 JUMPI PUSH1 0x0 SWAP2 PUSH2 0xE37 JUMPI JUMPDEST POP ISZERO PUSH2 0xDFA JUMPI PUSH1 0x40 MLOAD PUSH2 0xA56 DUP2 PUSH2 0x326D JUMP JUMPDEST TIMESTAMP DUP2 MSTORE PUSH1 0x20 DUP2 ADD SWAP3 PUSH1 0x0 DUP5 MSTORE PUSH1 0x40 DUP3 ADD PUSH1 0x0 DUP2 MSTORE PUSH1 0x20 SWAP3 PUSH1 0x40 MLOAD PUSH2 0xA7A DUP6 DUP3 PUSH2 0x3289 JUMP JUMPDEST PUSH1 0x0 DUP2 MSTORE PUSH1 0x60 DUP3 ADD SWAP1 DUP2 MSTORE PUSH1 0x80 DUP3 ADD SWAP7 PUSH1 0x0 DUP9 MSTORE PUSH1 0x0 PUSH1 0xA0 DUP5 ADD MSTORE PUSH1 0xC0 DUP4 ADD SWAP2 PUSH1 0x0 DUP4 MSTORE PUSH2 0xB1A PUSH1 0xE0 DUP6 ADD SWAP3 PUSH1 0x0 DUP5 MSTORE PUSH1 0x0 PUSH2 0x100 DUP8 ADD MSTORE PUSH1 0x0 PUSH2 0x120 DUP8 ADD MSTORE PUSH1 0x0 PUSH2 0x140 DUP8 ADD MSTORE DUP10 PUSH1 0x0 MSTORE PUSH1 0x9 DUP10 MSTORE PUSH1 0x40 DUP1 PUSH1 0x0 KECCAK256 PUSH1 0x0 SWAP1 PUSH1 0x1 DUP1 PUSH1 0xA0 SHL SUB CALLER AND DUP3 MSTORE DUP12 MSTORE KECCAK256 SWAP7 DUP7 MLOAD DUP9 SSTORE PUSH2 0xB03 PUSH1 0x1 DUP10 ADD SWAP3 MLOAD ISZERO ISZERO DUP4 SWAP1 PUSH1 0xFF DUP1 NOT DUP4 SLOAD AND SWAP2 ISZERO ISZERO AND OR SWAP1 SSTORE JUMP JUMPDEST MLOAD DUP2 SLOAD PUSH2 0xFF00 NOT AND SWAP1 ISZERO ISZERO PUSH1 0x8 SHL PUSH2 0xFF00 AND OR SWAP1 SSTORE JUMP JUMPDEST MLOAD SWAP8 DUP9 MLOAD PUSH1 0x1 PUSH1 0x1 PUSH1 0x40 SHL SUB DUP2 GT PUSH2 0xDE4 JUMPI PUSH2 0xB39 PUSH1 0x2 DUP8 ADD SLOAD PUSH2 0x3218 JUMP JUMPDEST PUSH1 0x1F DUP2 GT PUSH2 0xD9B JUMPI JUMPDEST POP DUP8 SWAP10 PUSH1 0x1F DUP3 GT PUSH1 0x1 EQ PUSH2 0xCF8 JUMPI SWAP4 PUSH2 0xC03 PUSH2 0x140 SWAP5 PUSH1 0xC SWAP10 SWAP9 SWAP8 SWAP5 DUP5 PUSH2 0xC23 SWAP6 PUSH32 0x78DA64A590C3052953AD9E0A5546BBF12BB68AE7634E3FB2A774E22A8C6557C1 SWAP15 SWAP16 PUSH1 0x6 SWAP11 PUSH1 0x0 SWAP3 PUSH2 0xCED JUMPI JUMPDEST POP POP DUP2 PUSH1 0x1 SHL SWAP2 PUSH1 0x0 NOT SWAP1 PUSH1 0x3 SHL SHR NOT AND OR PUSH1 0x2 DUP11 ADD SSTORE JUMPDEST MLOAD PUSH1 0x3 DUP10 ADD SSTORE PUSH2 0xBEA PUSH1 0x4 DUP10 ADD SWAP4 PUSH2 0xBD3 PUSH1 0xA0 DUP9 ADD MLOAD ISZERO ISZERO DUP7 SWAP1 PUSH1 0xFF DUP1 NOT DUP4 SLOAD AND SWAP2 ISZERO ISZERO AND OR SWAP1 SSTORE JUMP JUMPDEST MLOAD DUP5 SLOAD PUSH2 0xFF00 NOT AND SWAP1 ISZERO ISZERO PUSH1 0x8 SHL PUSH2 0xFF00 AND OR DUP5 SSTORE JUMP JUMPDEST MLOAD DUP3 SLOAD PUSH3 0xFF0000 NOT AND SWAP1 ISZERO ISZERO PUSH1 0x10 SHL PUSH3 0xFF0000 AND OR DUP3 SSTORE JUMP JUMPDEST PUSH2 0x100 DUP4 ADD MLOAD DUP2 SLOAD PUSH4 0xFF000000 NOT AND SWAP1 ISZERO ISZERO PUSH1 0x18 SHL PUSH4 0xFF000000 AND OR SWAP1 SSTORE JUMP JUMPDEST PUSH2 0x120 DUP2 ADD MLOAD PUSH1 0x5 DUP6 ADD SSTORE ADD MLOAD SWAP2 ADD SSTORE DUP5 PUSH1 0x0 MSTORE PUSH1 0xA DUP4 MSTORE PUSH2 0xC49 CALLER PUSH1 0x40 PUSH1 0x0 KECCAK256 PUSH2 0x356A JUMP JUMPDEST PUSH1 0xA DUP2 ADD PUSH2 0xC57 DUP2 SLOAD PUSH2 0x354A JUMP JUMPDEST SWAP1 SSTORE ADD PUSH2 0xC65 CALLVALUE DUP3 SLOAD PUSH2 0x36EA JUMP JUMPDEST SWAP1 SSTORE DUP3 PUSH1 0x0 MSTORE PUSH1 0x3 DUP2 MSTORE PUSH1 0xA PUSH1 0x40 PUSH1 0x0 KECCAK256 SLOAD LT PUSH2 0xC86 JUMPI JUMPDEST PUSH1 0x40 MLOAD CALLER DUP2 MSTORE LOG2 STOP JUMPDEST PUSH1 0x0 DUP4 DUP2 MSTORE PUSH1 0x9 DUP3 MSTORE PUSH1 0x40 DUP1 DUP3 KECCAK256 CALLER DUP1 DUP5 MSTORE SWAP1 DUP5 MSTORE DUP2 DUP4 KECCAK256 PUSH1 0x4 ADD DUP1 SLOAD PUSH2 0xFF00 NOT AND PUSH2 0x100 OR SWAP1 SSTORE DUP6 DUP4 MSTORE PUSH1 0x3 DUP5 MSTORE SWAP2 KECCAK256 PUSH2 0xCC1 SWAP2 SWAP1 PUSH2 0x356A JUMP JUMPDEST CALLER DUP4 PUSH32 0x8FCD9F5C27415BF85B1F568FBE33A98AAEBD94A2F721378109A4A48142F1E3FB PUSH1 0x0 DUP1 LOG3 PUSH2 0xC7D JUMP JUMPDEST ADD MLOAD SWAP1 POP CODESIZE DUP1 PUSH2 0xB91 JUMP JUMPDEST SWAP10 PUSH1 0x2 DUP8 ADD PUSH1 0x0 MSTORE DUP9 PUSH1 0x0 KECCAK256 SWAP11 PUSH1 0x0 JUMPDEST PUSH1 0x1F NOT DUP5 AND DUP2 LT PUSH2 0xD84 JUMPI POP PUSH2 0x140 SWAP5 PUSH1 0xC SWAP10 SWAP9 SWAP8 SWAP5 PUSH1 0x1 DUP6 PUSH32 0x78DA64A590C3052953AD9E0A5546BBF12BB68AE7634E3FB2A774E22A8C6557C1 SWAP15 SWAP16 PUSH1 0x6 SWAP11 SWAP7 PUSH2 0xC03 SWAP7 PUSH2 0xC23 SWAP10 PUSH1 0x1F NOT DUP2 AND LT PUSH2 0xD6B JUMPI JUMPDEST POP POP POP DUP2 SHL ADD PUSH1 0x2 DUP11 ADD SSTORE PUSH2 0xBA9 JUMP JUMPDEST ADD MLOAD PUSH1 0x0 NOT PUSH1 0xF8 DUP5 PUSH1 0x3 SHL AND SHR NOT AND SWAP1 SSTORE CODESIZE DUP1 DUP1 PUSH2 0xD5B JUMP JUMPDEST DUP3 DUP3 ADD MLOAD DUP14 SSTORE PUSH1 0x1 SWAP1 SWAP13 ADD SWAP12 SWAP2 DUP11 ADD SWAP2 DUP11 ADD PUSH2 0xD08 JUMP JUMPDEST PUSH1 0x2 DUP8 ADD PUSH1 0x0 MSTORE DUP9 PUSH1 0x0 KECCAK256 PUSH1 0x1F DUP4 ADD PUSH1 0x5 SHR DUP2 ADD SWAP2 DUP11 DUP5 LT PUSH2 0xDDA JUMPI JUMPDEST PUSH1 0x1F ADD PUSH1 0x5 SHR ADD SWAP1 JUMPDEST DUP2 DUP2 LT PUSH2 0xDCE JUMPI POP PUSH2 0xB42 JUMP JUMPDEST PUSH1 0x0 DUP2 SSTORE PUSH1 0x1 ADD PUSH2 0xDC1 JUMP JUMPDEST SWAP1 SWAP2 POP DUP2 SWAP1 PUSH2 0xDB8 JUMP JUMPDEST PUSH4 0x4E487B71 PUSH1 0xE0 SHL PUSH1 0x0 MSTORE PUSH1 0x41 PUSH1 0x4 MSTORE PUSH1 0x24 PUSH1 0x0 REVERT JUMPDEST PUSH1 0x40 MLOAD PUSH3 0x461BCD PUSH1 0xE5 SHL DUP2 MSTORE PUSH1 0x20 PUSH1 0x4 DUP3 ADD MSTORE PUSH1 0x15 PUSH1 0x24 DUP3 ADD MSTORE PUSH21 0x151BDAD95B881D1C985B9CD9995C8819985A5B1959 PUSH1 0x5A SHL PUSH1 0x44 DUP3 ADD MSTORE PUSH1 0x64 SWAP1 REVERT JUMPDEST PUSH2 0xE59 SWAP2 POP PUSH1 0x20 RETURNDATASIZE PUSH1 0x20 GT PUSH2 0xE5F JUMPI JUMPDEST PUSH2 0xE51 DUP2 DUP4 PUSH2 0x3289 JUMP JUMPDEST DUP2 ADD SWAP1 PUSH2 0x3686 JUMP JUMPDEST DUP4 PUSH2 0xA44 JUMP JUMPDEST POP RETURNDATASIZE PUSH2 0xE47 JUMP JUMPDEST PUSH1 0x40 MLOAD RETURNDATASIZE PUSH1 0x0 DUP3 RETURNDATACOPY RETURNDATASIZE SWAP1 REVERT JUMPDEST PUSH1 0x40 MLOAD PUSH3 0x461BCD PUSH1 0xE5 SHL DUP2 MSTORE PUSH1 0x20 PUSH1 0x4 DUP3 ADD MSTORE PUSH1 0xE PUSH1 0x24 DUP3 ADD MSTORE PUSH14 0x105B1C9958591E481A9BDA5B9959 PUSH1 0x92 SHL PUSH1 0x44 DUP3 ADD MSTORE PUSH1 0x64 SWAP1 REVERT JUMPDEST PUSH1 0x40 MLOAD PUSH3 0x461BCD PUSH1 0xE5 SHL DUP2 MSTORE PUSH1 0x20 PUSH1 0x4 DUP3 ADD MSTORE PUSH1 0x18 PUSH1 0x24 DUP3 ADD MSTORE PUSH32 0x496E636F7272656374206465706F73697420616D6F756E740000000000000000 PUSH1 0x44 DUP3 ADD MSTORE PUSH1 0x64 SWAP1 REVERT JUMPDEST CALLVALUE PUSH2 0x1AE JUMPI PUSH1 0x0 CALLDATASIZE PUSH1 0x3 NOT ADD SLT PUSH2 0x1AE JUMPI PUSH1 0x20 PUSH1 0x7 SLOAD PUSH1 0x40 MLOAD SWAP1 DUP2 MSTORE RETURN JUMPDEST CALLVALUE PUSH2 0x1AE JUMPI PUSH1 0x20 CALLDATASIZE PUSH1 0x3 NOT ADD SLT PUSH2 0x1AE JUMPI PUSH1 0x4 CALLDATALOAD PUSH1 0x0 DUP2 DUP2 MSTORE PUSH1 0x8 PUSH1 0x20 SWAP1 DUP2 MSTORE PUSH1 0x40 DUP1 DUP4 KECCAK256 PUSH1 0x9 DUP4 MSTORE DUP2 DUP5 KECCAK256 CALLER DUP6 MSTORE SWAP1 SWAP3 MSTORE SWAP1 SWAP2 KECCAK256 PUSH1 0xD DUP3 ADD SLOAD PUSH2 0xF52 SWAP1 PUSH1 0xFF AND ISZERO PUSH2 0x35CB JUMP JUMPDEST PUSH1 0xFF PUSH1 0x4 DUP3 ADD SLOAD AND ISZERO PUSH2 0x1194 JUMPI PUSH1 0x1 ADD DUP1 SLOAD PUSH1 0xFF DUP2 PUSH1 0x8 SHR AND PUSH2 0x115D JUMPI PUSH1 0xFF DUP2 AND ISZERO PUSH2 0x1118 JUMPI PUSH1 0x0 DUP5 DUP2 MSTORE PUSH1 0xB PUSH1 0x20 SWAP1 DUP2 MSTORE PUSH1 0x40 DUP1 DUP4 KECCAK256 CALLER DUP1 DUP6 MSTORE SWAP3 MSTORE DUP3 KECCAK256 DUP1 SLOAD DUP4 SWAP3 SWAP1 SWAP2 SWAP1 DUP4 JUMPDEST DUP4 DUP2 LT PUSH2 0x109F JUMPI POP POP POP POP DUP2 PUSH2 0x103F JUMPI JUMPDEST POP POP PUSH2 0x100 SWAP1 PUSH2 0xFF00 NOT AND OR SWAP1 SSTORE PUSH1 0x0 DUP1 DUP1 DUP1 PUSH2 0xFF4 PUSH1 0x8 DUP7 ADD SLOAD SWAP6 PUSH1 0xB DUP2 ADD PUSH2 0xFD6 DUP9 DUP3 SLOAD PUSH2 0x3717 JUMP JUMPDEST SWAP1 SSTORE PUSH1 0xC PUSH1 0x7 DUP3 ADD SLOAD SWAP2 ADD PUSH2 0xFEC DUP3 DUP3 SLOAD PUSH2 0x3717 JUMP JUMPDEST SWAP1 SSTORE DUP7 PUSH2 0x36EA JUMP JUMPDEST DUP2 DUP2 ISZERO PUSH2 0x1036 JUMPI JUMPDEST CALLER SWAP1 CALL ISZERO PUSH2 0xE66 JUMPI PUSH1 0x40 PUSH32 0x24B5EFA61DD1CFC659205A97FB8ED868F3CB8C81922BAB2B96423E5DE1DE2CB7 SWAP2 DUP2 MLOAD SWAP1 CALLER DUP3 MSTORE PUSH1 0x20 DUP3 ADD MSTORE LOG2 STOP JUMPDEST POP PUSH2 0x8FC PUSH2 0xFFC JUMP JUMPDEST SWAP1 PUSH2 0x1049 SWAP2 PUSH2 0x36F7 JUMP JUMPDEST PUSH1 0xE DUP5 ADD SLOAD GT PUSH2 0x105A JUMPI DUP5 DUP1 PUSH2 0xFAB JUMP JUMPDEST PUSH1 0x40 MLOAD PUSH3 0x461BCD PUSH1 0xE5 SHL DUP2 MSTORE PUSH1 0x20 PUSH1 0x4 DUP3 ADD MSTORE PUSH1 0x19 PUSH1 0x24 DUP3 ADD MSTORE PUSH32 0x446964206E6F7420706173732073656E61746520617564697400000000000000 PUSH1 0x44 DUP3 ADD MSTORE PUSH1 0x64 SWAP1 REVERT JUMPDEST DUP10 PUSH1 0x0 MSTORE PUSH1 0xC PUSH1 0x20 MSTORE PUSH1 0xFF PUSH1 0x40 DUP1 DUP1 PUSH1 0x0 KECCAK256 PUSH1 0x0 SWAP1 DUP7 DUP3 MSTORE PUSH1 0x20 MSTORE KECCAK256 PUSH2 0x10C5 DUP5 DUP8 PUSH2 0x342D JUMP JUMPDEST POP SLOAD PUSH1 0x1 PUSH1 0x1 PUSH1 0xA0 SHL SUB AND PUSH1 0x0 SWAP1 DUP2 MSTORE PUSH1 0x20 SWAP2 SWAP1 SWAP2 MSTORE KECCAK256 SLOAD AND PUSH2 0x10EB JUMPI JUMPDEST PUSH1 0x1 ADD PUSH2 0xF9A JUMP JUMPDEST SWAP5 SWAP4 PUSH2 0x1110 PUSH2 0x110A PUSH1 0x1 SWAP3 DUP4 PUSH2 0x1101 DUP11 DUP9 PUSH2 0x342D JUMP JUMPDEST POP ADD SLOAD SWAP1 PUSH2 0x36EA JUMP JUMPDEST SWAP6 PUSH2 0x354A JUMP JUMPDEST SWAP6 SWAP1 POP PUSH2 0x10E3 JUMP JUMPDEST PUSH1 0x40 MLOAD PUSH3 0x461BCD PUSH1 0xE5 SHL DUP2 MSTORE PUSH1 0x20 PUSH1 0x4 DUP3 ADD MSTORE PUSH1 0x1E PUSH1 0x24 DUP3 ADD MSTORE PUSH32 0x5461736B206E6F7420617070726F766564206279207265766965776572730000 PUSH1 0x44 DUP3 ADD MSTORE PUSH1 0x64 SWAP1 REVERT JUMPDEST PUSH1 0x40 MLOAD PUSH3 0x461BCD PUSH1 0xE5 SHL DUP2 MSTORE PUSH1 0x20 PUSH1 0x4 DUP3 ADD MSTORE PUSH1 0xF PUSH1 0x24 DUP3 ADD MSTORE PUSH15 0x105B1C9958591E4818DB185A5B5959 PUSH1 0x8A SHL PUSH1 0x44 DUP3 ADD MSTORE PUSH1 0x64 SWAP1 REVERT JUMPDEST PUSH1 0x40 MLOAD PUSH3 0x461BCD PUSH1 0xE5 SHL DUP2 MSTORE PUSH1 0x20 PUSH1 0x4 DUP3 ADD MSTORE PUSH1 0x10 PUSH1 0x24 DUP3 ADD MSTORE PUSH16 0x139BDD081C995D9A595DD959081E595D PUSH1 0x82 SHL PUSH1 0x44 DUP3 ADD MSTORE PUSH1 0x64 SWAP1 REVERT JUMPDEST CALLVALUE PUSH2 0x1AE JUMPI PUSH2 0x11DA CALLDATASIZE PUSH2 0x34E0 JUMP JUMPDEST SWAP1 PUSH1 0x0 MSTORE PUSH1 0x3 PUSH1 0x20 MSTORE PUSH1 0x40 PUSH1 0x0 KECCAK256 DUP1 SLOAD DUP3 LT ISZERO PUSH2 0x1AE JUMPI PUSH1 0x20 SWAP2 PUSH2 0x963 SWAP2 PUSH2 0x34F6 JUMP JUMPDEST CALLVALUE PUSH2 0x1AE JUMPI PUSH2 0x120B CALLDATASIZE PUSH2 0x34A6 JUMP JUMPDEST SWAP2 PUSH1 0x0 MSTORE PUSH1 0x5 PUSH1 0x20 MSTORE PUSH1 0x40 PUSH1 0x0 KECCAK256 SWAP1 PUSH1 0x1 DUP1 PUSH1 0xA0 SHL SUB AND PUSH1 0x0 MSTORE PUSH1 0x20 MSTORE PUSH1 0x40 PUSH1 0x0 KECCAK256 SWAP1 PUSH1 0x1 DUP1 PUSH1 0xA0 SHL SUB AND PUSH1 0x0 MSTORE PUSH1 0x20 MSTORE PUSH1 0x20 PUSH1 0xFF PUSH1 0x40 PUSH1 0x0 KECCAK256 SLOAD AND PUSH1 0x40 MLOAD SWAP1 ISZERO ISZERO DUP2 MSTORE RETURN JUMPDEST CALLVALUE PUSH2 0x1AE JUMPI PUSH1 0x40 CALLDATASIZE PUSH1 0x3 NOT ADD SLT PUSH2 0x1AE JUMPI PUSH2 0x126A PUSH2 0x33E5 JUMP JUMPDEST PUSH1 0x4 CALLDATALOAD PUSH1 0x0 MSTORE PUSH1 0xB PUSH1 0x20 MSTORE PUSH1 0x40 PUSH1 0x0 KECCAK256 SWAP1 PUSH1 0x1 DUP1 PUSH1 0xA0 SHL SUB AND PUSH1 0x0 MSTORE PUSH1 0x20 MSTORE PUSH1 0x40 PUSH1 0x0 KECCAK256 DUP1 SLOAD SWAP1 PUSH1 0x1 PUSH1 0x1 PUSH1 0x40 SHL SUB DUP3 GT PUSH2 0xDE4 JUMPI PUSH1 0x40 MLOAD SWAP2 PUSH2 0x12B3 PUSH1 0x20 DUP3 PUSH1 0x5 SHL ADD DUP5 PUSH2 0x3289 JUMP JUMPDEST DUP1 DUP4 MSTORE PUSH1 0x20 DUP4 ADD DUP1 SWAP3 PUSH1 0x0 MSTORE PUSH1 0x20 PUSH1 0x0 KECCAK256 PUSH1 0x0 SWAP2 JUMPDEST DUP4 DUP4 LT PUSH2 0x1358 JUMPI DUP5 DUP7 PUSH1 0x40 MLOAD SWAP2 DUP3 SWAP2 PUSH1 0x20 DUP4 ADD SWAP1 PUSH1 0x20 DUP5 MSTORE MLOAD DUP1 SWAP2 MSTORE PUSH1 0x40 DUP4 ADD SWAP1 PUSH1 0x40 DUP2 PUSH1 0x5 SHL DUP6 ADD ADD SWAP3 SWAP2 PUSH1 0x0 SWAP1 JUMPDEST DUP3 DUP3 LT PUSH2 0x1307 JUMPI POP POP POP POP SUB SWAP1 RETURN JUMPDEST SWAP2 SWAP4 PUSH1 0x1 SWAP2 SWAP4 SWAP6 POP PUSH1 0x20 PUSH2 0x1348 DUP2 SWAP3 PUSH1 0x3F NOT DUP11 DUP3 SUB ADD DUP7 MSTORE PUSH1 0x60 PUSH1 0x40 DUP11 MLOAD DUP8 DUP1 PUSH1 0xA0 SHL SUB DUP2 MLOAD AND DUP5 MSTORE DUP6 DUP2 ADD MLOAD DUP7 DUP6 ADD MSTORE ADD MLOAD SWAP2 DUP2 PUSH1 0x40 DUP3 ADD MSTORE ADD SWAP1 PUSH2 0x334E JUMP JUMPDEST SWAP7 ADD SWAP3 ADD SWAP3 ADD DUP6 SWAP5 SWAP4 SWAP2 SWAP3 PUSH2 0x12F8 JUMP JUMPDEST PUSH1 0x3 PUSH1 0x20 PUSH1 0x1 SWAP3 PUSH1 0x40 MLOAD PUSH2 0x136B DUP2 PUSH2 0x3252 JUMP JUMPDEST DUP5 DUP1 PUSH1 0xA0 SHL SUB DUP7 SLOAD AND DUP2 MSTORE DUP5 DUP7 ADD SLOAD DUP4 DUP3 ADD MSTORE PUSH2 0x138A PUSH1 0x2 DUP8 ADD PUSH2 0x32AA JUMP JUMPDEST PUSH1 0x40 DUP3 ADD MSTORE DUP2 MSTORE ADD SWAP3 ADD SWAP3 ADD SWAP2 SWAP1 PUSH2 0x12C8 JUMP JUMPDEST CALLVALUE PUSH2 0x1AE JUMPI PUSH1 0x20 CALLDATASIZE PUSH1 0x3 NOT ADD SLT PUSH2 0x1AE JUMPI PUSH1 0x4 CALLDATALOAD PUSH1 0x0 MSTORE PUSH1 0x3 PUSH1 0x20 MSTORE PUSH1 0x20 PUSH1 0x40 PUSH1 0x0 KECCAK256 SLOAD PUSH1 0x40 MLOAD SWAP1 DUP2 MSTORE RETURN JUMPDEST CALLVALUE PUSH2 0x1AE JUMPI PUSH1 0x20 CALLDATASIZE PUSH1 0x3 NOT ADD SLT PUSH2 0x1AE JUMPI PUSH1 0x4 CALLDATALOAD PUSH1 0x0 MSTORE PUSH1 0xF PUSH1 0x20 MSTORE PUSH1 0x20 PUSH1 0xFF PUSH1 0x40 PUSH1 0x0 KECCAK256 SLOAD AND PUSH1 0x40 MLOAD SWAP1 ISZERO ISZERO DUP2 MSTORE RETURN JUMPDEST CALLVALUE PUSH2 0x1AE JUMPI PUSH1 0x20 CALLDATASIZE PUSH1 0x3 NOT ADD SLT PUSH2 0x1AE JUMPI PUSH1 0x4 CALLDATALOAD PUSH1 0x0 MSTORE PUSH1 0x0 PUSH1 0x20 MSTORE PUSH2 0x143A PUSH2 0x1426 PUSH1 0x40 PUSH1 0x0 KECCAK256 PUSH2 0x32AA JUMP JUMPDEST PUSH1 0x40 MLOAD SWAP2 DUP3 SWAP2 PUSH1 0x20 DUP4 MSTORE PUSH1 0x20 DUP4 ADD SWAP1 PUSH2 0x334E JUMP JUMPDEST SUB SWAP1 RETURN JUMPDEST CALLVALUE PUSH2 0x1AE JUMPI PUSH2 0x144C CALLDATASIZE PUSH2 0x34A6 JUMP JUMPDEST SWAP2 PUSH1 0x0 MSTORE PUSH1 0x4 PUSH1 0x20 MSTORE PUSH1 0x40 PUSH1 0x0 KECCAK256 SWAP1 PUSH1 0x1 DUP1 PUSH1 0xA0 SHL SUB AND PUSH1 0x0 MSTORE PUSH1 0x20 MSTORE PUSH1 0x40 PUSH1 0x0 KECCAK256 SWAP1 PUSH1 0x1 DUP1 PUSH1 0xA0 SHL SUB AND PUSH1 0x0 MSTORE PUSH1 0x20 MSTORE PUSH1 0x20 PUSH1 0xFF PUSH1 0x40 PUSH1 0x0 KECCAK256 SLOAD AND PUSH1 0x40 MLOAD SWAP1 ISZERO ISZERO DUP2 MSTORE RETURN JUMPDEST CALLVALUE PUSH2 0x1AE JUMPI PUSH1 0x0 CALLDATASIZE PUSH1 0x3 NOT ADD SLT PUSH2 0x1AE JUMPI PUSH1 0x6 SLOAD PUSH1 0x40 MLOAD PUSH1 0x1 PUSH1 0x1 PUSH1 0xA0 SHL SUB SWAP1 SWAP2 AND DUP2 MSTORE PUSH1 0x20 SWAP1 RETURN JUMPDEST CALLVALUE PUSH2 0x1AE JUMPI PUSH1 0x20 CALLDATASIZE PUSH1 0x3 NOT ADD SLT PUSH2 0x1AE JUMPI PUSH1 0x4 CALLDATALOAD PUSH1 0x0 MSTORE PUSH1 0xA PUSH1 0x20 MSTORE PUSH1 0x20 PUSH1 0x40 PUSH1 0x0 KECCAK256 SLOAD PUSH1 0x40 MLOAD SWAP1 DUP2 MSTORE RETURN JUMPDEST CALLVALUE PUSH2 0x1AE JUMPI PUSH1 0x80 CALLDATASIZE PUSH1 0x3 NOT ADD SLT PUSH2 0x1AE JUMPI PUSH1 0x4 CALLDATALOAD PUSH2 0x1503 PUSH2 0x33E5 JUMP JUMPDEST PUSH1 0x44 CALLDATALOAD PUSH1 0x1 PUSH1 0x1 PUSH1 0x40 SHL SUB DUP2 GT PUSH2 0x1AE JUMPI PUSH2 0x1522 SWAP1 CALLDATASIZE SWAP1 PUSH1 0x4 ADD PUSH2 0x338F JUMP JUMPDEST POP PUSH1 0x64 CALLDATALOAD DUP1 ISZERO ISZERO DUP2 SUB PUSH2 0x1AE JUMPI DUP3 PUSH1 0x0 MSTORE PUSH1 0xF PUSH1 0x20 MSTORE PUSH1 0xFF PUSH1 0x40 PUSH1 0x0 KECCAK256 SLOAD AND ISZERO PUSH2 0x16C7 JUMPI ISZERO PUSH2 0x161F JUMPI PUSH1 0x20 PUSH2 0x1590 SWAP2 PUSH1 0x1 DUP1 PUSH1 0xA0 SHL SUB PUSH1 0x6 SLOAD AND DUP5 PUSH1 0x0 MSTORE PUSH1 0x8 DUP4 MSTORE PUSH1 0xFF PUSH1 0xD PUSH1 0x40 PUSH1 0x0 KECCAK256 ADD SLOAD PUSH1 0x8 SHR AND SWAP2 PUSH1 0x40 MLOAD DUP1 SWAP6 DUP2 SWAP5 DUP3 SWAP4 PUSH4 0xEB2F161 PUSH1 0xE4 SHL DUP5 MSTORE PUSH1 0x4 DUP5 ADD PUSH2 0x35AB JUMP JUMPDEST SUB SWAP2 GAS STATICCALL SWAP1 DUP2 ISZERO PUSH2 0xE66 JUMPI PUSH1 0x0 SWAP2 PUSH2 0x1600 JUMPI JUMPDEST POP ISZERO PUSH2 0x15C5 JUMPI JUMPDEST PUSH1 0x0 MSTORE PUSH1 0x10 PUSH1 0x20 MSTORE PUSH1 0x40 PUSH1 0x0 KECCAK256 PUSH2 0x15C1 DUP2 SLOAD PUSH2 0x354A JUMP JUMPDEST SWAP1 SSTORE STOP JUMPDEST PUSH1 0x40 MLOAD PUSH3 0x461BCD PUSH1 0xE5 SHL DUP2 MSTORE PUSH1 0x20 PUSH1 0x4 DUP3 ADD MSTORE PUSH1 0x13 PUSH1 0x24 DUP3 ADD MSTORE PUSH19 0x2737BA1030903B30B634B21039B2B730BA37B9 PUSH1 0x69 SHL PUSH1 0x44 DUP3 ADD MSTORE PUSH1 0x64 SWAP1 REVERT JUMPDEST PUSH2 0x1619 SWAP2 POP PUSH1 0x20 RETURNDATASIZE PUSH1 0x20 GT PUSH2 0xE5F JUMPI PUSH2 0xE51 DUP2 DUP4 PUSH2 0x3289 JUMP JUMPDEST DUP3 PUSH2 0x15A3 JUMP JUMPDEST PUSH1 0x0 SWAP1 PUSH1 0x1 PUSH1 0x1 PUSH1 0xA0 SHL SUB AND DUP2 JUMPDEST DUP4 PUSH1 0x0 MSTORE PUSH1 0x3 PUSH1 0x20 MSTORE PUSH1 0x40 PUSH1 0x0 KECCAK256 SLOAD DUP2 LT ISZERO PUSH2 0x16C0 JUMPI DUP4 PUSH1 0x0 MSTORE PUSH1 0x3 PUSH1 0x20 MSTORE DUP2 PUSH2 0x165B DUP3 PUSH1 0x40 PUSH1 0x0 KECCAK256 PUSH2 0x34F6 JUMP JUMPDEST SWAP1 SLOAD PUSH1 0x3 SWAP2 SWAP1 SWAP2 SHL SHR PUSH1 0x1 PUSH1 0x1 PUSH1 0xA0 SHL SUB AND EQ PUSH2 0x167A JUMPI PUSH1 0x1 ADD PUSH2 0x162D JUMP JUMPDEST POP POP POP PUSH1 0x1 JUMPDEST PUSH2 0x15AA JUMPI PUSH1 0x40 MLOAD PUSH3 0x461BCD PUSH1 0xE5 SHL DUP2 MSTORE PUSH1 0x20 PUSH1 0x4 DUP3 ADD MSTORE PUSH1 0x14 PUSH1 0x24 DUP3 ADD MSTORE PUSH20 0x2737BA1030903B30B634B2103932BB34B2BBB2B9 PUSH1 0x61 SHL PUSH1 0x44 DUP3 ADD MSTORE PUSH1 0x64 SWAP1 REVERT JUMPDEST POP POP PUSH2 0x1680 JUMP JUMPDEST PUSH1 0x40 MLOAD PUSH3 0x461BCD PUSH1 0xE5 SHL DUP2 MSTORE PUSH1 0x20 PUSH1 0x4 DUP3 ADD MSTORE PUSH1 0x16 PUSH1 0x24 DUP3 ADD MSTORE PUSH22 0x12D95E5CC81B9BDD0819D95B995C985D1959081E595D PUSH1 0x52 SHL PUSH1 0x44 DUP3 ADD MSTORE PUSH1 0x64 SWAP1 REVERT JUMPDEST CALLVALUE PUSH2 0x1AE JUMPI PUSH2 0x1713 CALLDATASIZE PUSH2 0x345F JUMP JUMPDEST SWAP3 SWAP1 SWAP2 PUSH2 0x175A PUSH1 0x20 PUSH1 0x1 DUP1 PUSH1 0xA0 SHL SUB PUSH1 0x6 SLOAD AND DUP5 PUSH1 0x0 MSTORE PUSH1 0x8 DUP3 MSTORE PUSH1 0xFF PUSH1 0xD PUSH1 0x40 PUSH1 0x0 KECCAK256 ADD SLOAD PUSH1 0x8 SHR AND SWAP1 PUSH1 0x40 MLOAD DUP1 DUP1 SWAP6 DUP2 SWAP5 PUSH4 0xEB2F161 PUSH1 0xE4 SHL DUP4 MSTORE CALLER PUSH1 0x4 DUP5 ADD PUSH2 0x35AB JUMP JUMPDEST SUB SWAP2 GAS STATICCALL SWAP1 DUP2 ISZERO PUSH2 0xE66 JUMPI PUSH1 0x0 SWAP2 PUSH2 0x1BA4 JUMPI JUMPDEST POP ISZERO PUSH2 0x1B66 JUMPI PUSH2 0x1780 PUSH1 0x64 DUP5 GT ISZERO PUSH2 0x369E JUMP JUMPDEST PUSH1 0x0 DUP3 DUP2 MSTORE PUSH1 0xC PUSH1 0x20 SWAP1 DUP2 MSTORE PUSH1 0x40 DUP1 DUP4 KECCAK256 PUSH1 0x1 PUSH1 0x1 PUSH1 0xA0 SHL SUB DUP6 AND DUP5 MSTORE DUP3 MSTORE DUP1 DUP4 KECCAK256 CALLER DUP5 MSTORE SWAP1 SWAP2 MSTORE SWAP1 KECCAK256 SLOAD PUSH1 0xFF AND PUSH2 0x1B30 JUMPI DUP2 PUSH1 0x0 MSTORE PUSH1 0x9 PUSH1 0x20 MSTORE PUSH1 0x40 DUP1 PUSH1 0x0 KECCAK256 PUSH1 0x0 SWAP1 PUSH1 0x1 DUP1 PUSH1 0xA0 SHL SUB DUP5 AND DUP3 MSTORE PUSH1 0x20 MSTORE KECCAK256 SWAP3 PUSH1 0xFF PUSH1 0x4 DUP6 ADD SLOAD AND ISZERO PUSH2 0x1AEB JUMPI DUP3 PUSH1 0x0 MSTORE PUSH1 0xB PUSH1 0x20 MSTORE PUSH1 0x40 DUP1 PUSH1 0x0 KECCAK256 PUSH1 0x0 SWAP1 PUSH1 0x1 DUP1 PUSH1 0xA0 SHL SUB DUP6 AND DUP3 MSTORE PUSH1 0x20 MSTORE KECCAK256 PUSH1 0x40 MLOAD SWAP1 PUSH2 0x180F DUP3 PUSH2 0x3252 JUMP JUMPDEST CALLER DUP3 MSTORE PUSH1 0x20 DUP3 ADD SWAP1 DUP4 DUP3 MSTORE PUSH1 0x40 DUP4 ADD SWAP8 DUP9 MSTORE DUP1 SLOAD PUSH1 0x1 PUSH1 0x40 SHL DUP2 LT ISZERO PUSH2 0xDE4 JUMPI PUSH2 0x183E SWAP2 PUSH1 0x1 DUP3 ADD DUP2 SSTORE PUSH2 0x342D JUMP JUMPDEST SWAP2 SWAP1 SWAP2 PUSH2 0x1AD5 JUMPI SWAP2 MLOAD DUP2 SLOAD PUSH1 0x1 PUSH1 0x1 PUSH1 0xA0 SHL SUB NOT AND PUSH1 0x1 PUSH1 0x1 PUSH1 0xA0 SHL SUB SWAP2 SWAP1 SWAP2 AND OR DUP2 SSTORE SWAP1 MLOAD PUSH1 0x1 DUP3 ADD SSTORE SWAP5 MLOAD DUP1 MLOAD SWAP1 SWAP6 PUSH1 0x2 ADD SWAP1 PUSH1 0x1 PUSH1 0x1 PUSH1 0x40 SHL SUB DUP2 GT PUSH2 0xDE4 JUMPI PUSH2 0x188B DUP3 SLOAD PUSH2 0x3218 JUMP JUMPDEST PUSH1 0x1F DUP2 GT PUSH2 0x1A8D JUMPI JUMPDEST POP PUSH1 0x20 PUSH1 0x1F DUP3 GT PUSH1 0x1 EQ PUSH2 0x1A23 JUMPI DUP2 SWAP1 PUSH1 0x40 SWAP7 SWAP8 SWAP9 PUSH1 0x0 SWAP3 PUSH2 0x1A18 JUMPI JUMPDEST POP POP DUP2 PUSH1 0x1 SHL SWAP2 PUSH1 0x0 NOT SWAP1 PUSH1 0x3 SHL SHR NOT AND OR SWAP1 SSTORE JUMPDEST PUSH1 0x0 DUP5 DUP2 MSTORE PUSH1 0xC PUSH1 0x20 SWAP1 DUP2 MSTORE DUP5 DUP3 KECCAK256 PUSH1 0x1 PUSH1 0x1 PUSH1 0xA0 SHL SUB DUP6 AND DUP1 DUP5 MSTORE SWAP1 DUP3 MSTORE DUP6 DUP4 KECCAK256 CALLER DUP1 DUP6 MSTORE SWAP1 DUP4 MSTORE SWAP3 DUP7 SWAP1 KECCAK256 DUP1 SLOAD PUSH1 0xFF NOT AND PUSH1 0x1 OR SWAP1 SSTORE DUP6 MLOAD SWAP4 DUP5 MSTORE SWAP2 SWAP3 DUP7 SWAP2 PUSH32 0x378F514D49E4ABB7486BEE29952AF6519DE11CB70A74CD68479F52457B0518F7 SWAP2 LOG4 DUP3 PUSH1 0x0 MSTORE PUSH1 0xB PUSH1 0x20 MSTORE DUP2 PUSH1 0x0 KECCAK256 PUSH1 0x0 SWAP2 PUSH1 0x1 DUP1 PUSH1 0xA0 SHL SUB AND DUP3 MSTORE PUSH1 0x20 MSTORE KECCAK256 DUP1 SLOAD SWAP2 PUSH1 0x0 SWAP1 PUSH1 0x0 SWAP3 PUSH1 0x0 SWAP2 JUMPDEST DUP6 DUP4 LT PUSH2 0x19BE JUMPI POP POP POP PUSH1 0x3 DUP4 LT ISZERO DUP1 SWAP2 DUP2 SWAP3 PUSH2 0x19B1 JUMPI JUMPDEST POP ISZERO PUSH2 0x1994 JUMPI POP PUSH1 0x1 SWAP3 SWAP2 PUSH2 0x1981 SWAP2 PUSH2 0x36F7 JUMP JUMPDEST PUSH1 0x3 DUP3 ADD SSTORE ADD DUP1 SLOAD PUSH1 0xFF NOT AND PUSH1 0x1 OR SWAP1 SSTORE STOP JUMPDEST SWAP2 POP POP PUSH2 0x199D JUMPI STOP JUMPDEST PUSH1 0x0 PUSH1 0x3 DUP3 ADD SSTORE PUSH1 0x1 ADD DUP1 SLOAD PUSH1 0xFF NOT AND SWAP1 SSTORE STOP JUMPDEST SWAP1 POP DUP4 PUSH1 0x1 SHR LT DUP6 PUSH2 0x196D JUMP JUMPDEST SWAP1 SWAP2 SWAP4 PUSH2 0x19D1 SWAP1 PUSH1 0x1 PUSH2 0x1101 DUP8 DUP7 PUSH2 0x342D JUMP JUMPDEST SWAP4 PUSH1 0x1 PUSH2 0x19DE DUP3 DUP6 PUSH2 0x342D JUMP JUMPDEST POP ADD SLOAD DUP3 PUSH1 0x0 MSTORE PUSH1 0x8 PUSH1 0x20 MSTORE PUSH1 0xE PUSH1 0x40 PUSH1 0x0 KECCAK256 ADD SLOAD GT ISZERO PUSH2 0x1A04 JUMPI JUMPDEST PUSH1 0x1 ADD SWAP2 SWAP1 PUSH2 0x1955 JUMP JUMPDEST SWAP3 PUSH2 0x1A10 PUSH1 0x1 SWAP2 PUSH2 0x354A JUMP JUMPDEST SWAP4 SWAP1 POP PUSH2 0x19FA JUMP JUMPDEST ADD MLOAD SWAP1 POP DUP9 DUP1 PUSH2 0x18B1 JUMP JUMPDEST PUSH1 0x1F NOT DUP3 AND SWAP8 DUP4 PUSH1 0x0 MSTORE DUP2 PUSH1 0x0 KECCAK256 SWAP9 PUSH1 0x0 JUMPDEST DUP2 DUP2 LT PUSH2 0x1A75 JUMPI POP SWAP2 PUSH1 0x40 SWAP8 SWAP9 SWAP10 SWAP2 DUP5 PUSH1 0x1 SWAP6 SWAP5 LT PUSH2 0x1A5C JUMPI JUMPDEST POP POP POP DUP2 SHL ADD SWAP1 SSTORE PUSH2 0x18C6 JUMP JUMPDEST ADD MLOAD PUSH1 0x0 NOT PUSH1 0xF8 DUP5 PUSH1 0x3 SHL AND SHR NOT AND SWAP1 SSTORE DUP9 DUP1 DUP1 PUSH2 0x1A4F JUMP JUMPDEST DUP4 DUP4 ADD MLOAD DUP12 SSTORE PUSH1 0x1 SWAP1 SWAP11 ADD SWAP10 PUSH1 0x20 SWAP4 DUP5 ADD SWAP4 ADD PUSH2 0x1A35 JUMP JUMPDEST DUP3 PUSH1 0x0 MSTORE PUSH1 0x20 PUSH1 0x0 KECCAK256 PUSH1 0x1F DUP4 ADD PUSH1 0x5 SHR DUP2 ADD SWAP2 PUSH1 0x20 DUP5 LT PUSH2 0x1ACB JUMPI JUMPDEST PUSH1 0x1F ADD PUSH1 0x5 SHR ADD SWAP1 JUMPDEST DUP2 DUP2 LT PUSH2 0x1ABF JUMPI POP PUSH2 0x1894 JUMP JUMPDEST PUSH1 0x0 DUP2 SSTORE PUSH1 0x1 ADD PUSH2 0x1AB2 JUMP JUMPDEST SWAP1 SWAP2 POP DUP2 SWAP1 PUSH2 0x1AA9 JUMP JUMPDEST PUSH4 0x4E487B71 PUSH1 0xE0 SHL PUSH1 0x0 MSTORE PUSH1 0x0 PUSH1 0x4 MSTORE PUSH1 0x24 PUSH1 0x0 REVERT JUMPDEST PUSH1 0x40 MLOAD PUSH3 0x461BCD PUSH1 0xE5 SHL DUP2 MSTORE PUSH1 0x20 PUSH1 0x4 DUP3 ADD MSTORE PUSH1 0x1D PUSH1 0x24 DUP3 ADD MSTORE PUSH32 0x4E6F742072657669657765642062792072657669657765727320796574000000 PUSH1 0x44 DUP3 ADD MSTORE PUSH1 0x64 SWAP1 REVERT JUMPDEST PUSH1 0x40 MLOAD PUSH3 0x461BCD PUSH1 0xE5 SHL DUP2 MSTORE PUSH1 0x20 PUSH1 0x4 DUP3 ADD MSTORE PUSH1 0xE PUSH1 0x24 DUP3 ADD MSTORE PUSH14 0x105B1C9958591E481CD8DBDC9959 PUSH1 0x92 SHL PUSH1 0x44 DUP3 ADD MSTORE PUSH1 0x64 SWAP1 REVERT JUMPDEST PUSH1 0x40 MLOAD PUSH3 0x461BCD PUSH1 0xE5 SHL DUP2 MSTORE PUSH1 0x20 PUSH1 0x4 DUP3 ADD MSTORE PUSH1 0x16 PUSH1 0x24 DUP3 ADD MSTORE PUSH22 0x2737BA1030BABA3437B934BD32B21039B2B730BA37B9 PUSH1 0x51 SHL PUSH1 0x44 DUP3 ADD MSTORE PUSH1 0x64 SWAP1 REVERT JUMPDEST PUSH2 0x1BBD SWAP2 POP PUSH1 0x20 RETURNDATASIZE PUSH1 0x20 GT PUSH2 0xE5F JUMPI PUSH2 0xE51 DUP2 DUP4 PUSH2 0x3289 JUMP JUMPDEST DUP6 PUSH2 0x176D JUMP JUMPDEST CALLVALUE PUSH2 0x1AE JUMPI PUSH1 0x60 CALLDATASIZE PUSH1 0x3 NOT ADD SLT PUSH2 0x1AE JUMPI PUSH2 0x1BDC PUSH2 0x33E5 JUMP JUMPDEST PUSH1 0x44 CALLDATALOAD SWAP1 PUSH1 0x4 CALLDATALOAD PUSH1 0x0 MSTORE PUSH1 0xB PUSH1 0x20 MSTORE PUSH1 0x40 PUSH1 0x0 KECCAK256 SWAP1 PUSH1 0x1 DUP1 PUSH1 0xA0 SHL SUB AND PUSH1 0x0 MSTORE PUSH1 0x20 MSTORE PUSH1 0x40 PUSH1 0x0 KECCAK256 SWAP1 DUP2 SLOAD DUP2 LT ISZERO PUSH2 0x1AE JUMPI PUSH2 0x1C17 SWAP2 PUSH2 0x342D JUMP JUMPDEST POP PUSH1 0x1 DUP1 PUSH1 0xA0 SHL SUB DUP2 SLOAD AND PUSH2 0x143A PUSH2 0x1C36 PUSH1 0x2 PUSH1 0x1 DUP6 ADD SLOAD SWAP5 ADD PUSH2 0x32AA JUMP JUMPDEST PUSH1 0x40 MLOAD SWAP4 DUP5 SWAP4 DUP5 MSTORE PUSH1 0x20 DUP5 ADD MSTORE PUSH1 0x60 PUSH1 0x40 DUP5 ADD MSTORE PUSH1 0x60 DUP4 ADD SWAP1 PUSH2 0x334E JUMP JUMPDEST CALLVALUE PUSH2 0x1AE JUMPI PUSH1 0x20 CALLDATASIZE PUSH1 0x3 NOT ADD SLT PUSH2 0x1AE JUMPI PUSH1 0x4 CALLDATALOAD PUSH1 0x7 DUP2 LT ISZERO PUSH2 0x1AE JUMPI PUSH1 0xFF PUSH2 0x1C7C DUP3 PUSH2 0x350E JUMP JUMPDEST SLOAD AND ISZERO PUSH2 0x1C9B JUMPI PUSH1 0x0 MSTORE PUSH1 0x0 PUSH1 0x20 MSTORE PUSH2 0x143A PUSH2 0x1426 PUSH1 0x40 PUSH1 0x0 KECCAK256 PUSH2 0x32AA JUMP JUMPDEST PUSH1 0x40 MLOAD PUSH3 0x461BCD PUSH1 0xE5 SHL DUP2 MSTORE PUSH1 0x20 PUSH1 0x4 DUP3 ADD MSTORE PUSH1 0x17 PUSH1 0x24 DUP3 ADD MSTORE PUSH32 0x43617465676F727920646F6573206E6F74206578697374000000000000000000 PUSH1 0x44 DUP3 ADD MSTORE PUSH1 0x64 SWAP1 REVERT JUMPDEST CALLVALUE PUSH2 0x1AE JUMPI PUSH1 0x40 CALLDATASIZE PUSH1 0x3 NOT ADD SLT PUSH2 0x1AE JUMPI PUSH2 0x1CF9 PUSH2 0x33E5 JUMP JUMPDEST PUSH1 0x4 CALLDATALOAD PUSH1 0x0 MSTORE PUSH1 0xE PUSH1 0x20 MSTORE PUSH1 0x40 PUSH1 0x0 KECCAK256 SWAP1 PUSH1 0x1 DUP1 PUSH1 0xA0 SHL SUB AND PUSH1 0x0 MSTORE PUSH1 0x20 MSTORE PUSH2 0x143A PUSH2 0x1426 PUSH1 0x40 PUSH1 0x0 KECCAK256 PUSH2 0x32AA JUMP JUMPDEST CALLVALUE PUSH2 0x1AE JUMPI PUSH1 0x40 CALLDATASIZE PUSH1 0x3 NOT ADD SLT PUSH2 0x1AE JUMPI PUSH1 0x4 CALLDATALOAD PUSH1 0x24 CALLDATALOAD DUP1 ISZERO ISZERO DUP1 DUP3 SUB PUSH2 0x1AE JUMPI DUP3 PUSH1 0x0 MSTORE PUSH1 0x8 PUSH1 0x20 MSTORE PUSH1 0x40 PUSH1 0x0 KECCAK256 DUP4 PUSH1 0x0 MSTORE PUSH1 0x9 PUSH1 0x20 MSTORE PUSH1 0x40 PUSH1 0x0 KECCAK256 PUSH1 0x1 DUP1 PUSH1 0xA0 SHL SUB CALLER AND PUSH1 0x0 MSTORE PUSH1 0x20 MSTORE PUSH1 0xD PUSH1 0x40 PUSH1 0x0 KECCAK256 SWAP2 ADD SWAP3 PUSH2 0x1D8C PUSH1 0xFF DUP6 SLOAD AND ISZERO PUSH2 0x360D JUMP JUMPDEST DUP2 SLOAD ISZERO PUSH2 0x1F44 JUMPI PUSH1 0x4 PUSH2 0x1DD7 SWAP3 ADD PUSH3 0x10000 DUP2 SLOAD PUSH2 0x1DB0 PUSH1 0xFF DUP3 PUSH1 0x10 SHR AND ISZERO PUSH2 0x364A JUMP JUMPDEST PUSH4 0xFF000000 NOT SWAP1 SWAP2 AND PUSH4 0xFFFF0000 NOT SWAP1 SWAP2 AND OR SWAP2 ISZERO ISZERO PUSH1 0x18 SHL PUSH4 0xFF000000 AND SWAP2 SWAP1 SWAP2 OR SWAP1 SSTORE JUMP JUMPDEST PUSH1 0x40 MLOAD SWAP1 DUP2 MSTORE DUP3 PUSH32 0xA953B79A8BDA2946B1E815D9E09876DF8D499A7D04ACE4ECCEC405AE4A96CF08 PUSH1 0x20 CALLER SWAP4 LOG3 PUSH1 0x0 DUP1 DUP1 JUMPDEST DUP5 PUSH1 0x0 MSTORE PUSH1 0xA PUSH1 0x20 MSTORE PUSH1 0x40 PUSH1 0x0 KECCAK256 SLOAD DUP2 LT ISZERO PUSH2 0x1EAC JUMPI DUP5 PUSH1 0x0 MSTORE PUSH1 0x9 PUSH1 0x20 MSTORE PUSH1 0x4 PUSH1 0x40 DUP1 PUSH1 0x0 KECCAK256 DUP8 PUSH1 0x0 MSTORE PUSH1 0xA PUSH1 0x20 MSTORE PUSH2 0x1E46 DUP5 DUP4 PUSH1 0x0 KECCAK256 PUSH2 0x34F6 JUMP JUMPDEST SWAP1 SLOAD PUSH1 0x3 SWAP2 SWAP1 SWAP2 SHL SHR PUSH1 0x1 PUSH1 0x1 PUSH1 0xA0 SHL SUB AND PUSH1 0x0 SWAP1 DUP2 MSTORE PUSH1 0x20 SWAP2 SWAP1 SWAP2 MSTORE KECCAK256 ADD SLOAD PUSH1 0x10 DUP2 SWAP1 SHR PUSH1 0xFF AND PUSH2 0x1E7C JUMPI JUMPDEST POP PUSH1 0x1 ADD PUSH2 0x1E09 JUMP JUMPDEST SWAP2 PUSH2 0x1E88 PUSH1 0xFF SWAP2 PUSH2 0x354A JUMP JUMPDEST SWAP3 PUSH1 0x18 SHR AND PUSH2 0x1E98 JUMPI JUMPDEST DUP6 PUSH2 0x1E73 JUMP JUMPDEST SWAP2 PUSH2 0x1EA4 PUSH1 0x1 SWAP2 PUSH2 0x354A JUMP JUMPDEST SWAP3 SWAP1 POP PUSH2 0x1E92 JUMP JUMPDEST POP DUP1 ISZERO SWAP2 DUP3 ISZERO SWAP3 DUP4 PUSH2 0x1EFD JUMPI JUMPDEST POP POP POP PUSH2 0x1EC2 JUMPI STOP JUMPDEST DUP1 SLOAD PUSH1 0xFF NOT AND PUSH1 0x1 OR SWAP1 SSTORE PUSH2 0x1ED6 DUP2 PUSH2 0x3724 JUMP JUMPDEST PUSH32 0xE68F10F94CA2685D65A39A1841C1E1E00E8DF8B2FA15DD0562E32C33AF49FE17 PUSH1 0x0 DUP1 LOG2 STOP JUMPDEST SWAP1 SWAP2 SWAP3 POP PUSH1 0x3 DUP3 MUL SWAP2 DUP1 DUP4 DIV PUSH1 0x3 EQ SWAP1 ISZERO OR ISZERO PUSH2 0x1F2E JUMPI DUP3 PUSH1 0x1 SHL SWAP3 DUP4 DIV PUSH1 0x2 EQ OR ISZERO PUSH2 0x1F2E JUMPI LT ISZERO DUP4 DUP1 DUP1 PUSH2 0x1EB9 JUMP JUMPDEST PUSH4 0x4E487B71 PUSH1 0xE0 SHL PUSH1 0x0 MSTORE PUSH1 0x11 PUSH1 0x4 MSTORE PUSH1 0x24 PUSH1 0x0 REVERT JUMPDEST PUSH1 0x40 MLOAD PUSH3 0x461BCD PUSH1 0xE5 SHL DUP2 MSTORE PUSH1 0x20 PUSH1 0x4 DUP3 ADD MSTORE PUSH1 0xC PUSH1 0x24 DUP3 ADD MSTORE PUSH12 0x2737BA10309036B2B6B132B9 PUSH1 0xA1 SHL PUSH1 0x44 DUP3 ADD MSTORE PUSH1 0x64 SWAP1 REVERT JUMPDEST CALLVALUE PUSH2 0x1AE JUMPI PUSH1 0x20 CALLDATASIZE PUSH1 0x3 NOT ADD SLT PUSH2 0x1AE JUMPI PUSH1 0x4 CALLDATALOAD PUSH1 0x0 DUP2 DUP2 MSTORE PUSH1 0x8 PUSH1 0x20 MSTORE PUSH1 0x40 SWAP1 KECCAK256 PUSH1 0x3 DUP2 ADD SLOAD PUSH1 0x1 PUSH1 0x1 PUSH1 0xA0 SHL SUB AND CALLER SUB PUSH2 0x2197 JUMPI DUP1 PUSH2 0x1FC2 PUSH1 0xFF PUSH1 0xD PUSH1 0x5 SWAP5 ADD SLOAD AND ISZERO PUSH2 0x360D JUMP JUMPDEST ADD SLOAD TIMESTAMP LT PUSH2 0x215E JUMPI PUSH1 0x40 MLOAD PUSH1 0x1 DUP2 MSTORE DUP2 PUSH32 0xA953B79A8BDA2946B1E815D9E09876DF8D499A7D04ACE4ECCEC405AE4A96CF08 PUSH1 0x20 CALLER SWAP4 LOG3 PUSH1 0x0 DUP2 DUP2 MSTORE PUSH1 0x9 PUSH1 0x20 SWAP1 DUP2 MSTORE PUSH1 0x40 DUP1 DUP4 KECCAK256 CALLER DUP1 DUP6 MSTORE DUP2 DUP5 MSTORE DUP3 DUP6 KECCAK256 PUSH1 0x4 DUP2 ADD DUP1 SLOAD PUSH4 0xFFFF0000 NOT AND PUSH4 0x1010000 OR SWAP1 SSTORE DUP7 DUP7 MSTORE PUSH1 0x8 DUP6 MSTORE SWAP3 DUP6 KECCAK256 SWAP5 MSTORE SWAP1 SWAP2 MSTORE PUSH1 0xD SWAP1 SWAP2 ADD DUP1 SLOAD SWAP1 SWAP2 SWAP1 PUSH2 0x204E SWAP1 PUSH1 0xFF AND ISZERO PUSH2 0x360D JUMP JUMPDEST DUP1 SLOAD ISZERO PUSH2 0x1F44 JUMPI PUSH1 0x4 ADD PUSH3 0x10000 DUP2 SLOAD PUSH2 0x206E PUSH1 0xFF DUP3 PUSH1 0x10 SHR AND ISZERO PUSH2 0x364A JUMP JUMPDEST PUSH3 0xFF0000 NOT AND OR DUP2 SSTORE PUSH4 0x1000000 PUSH4 0xFF000000 NOT DUP3 SLOAD AND OR SWAP1 SSTORE PUSH1 0x40 MLOAD PUSH1 0x1 DUP2 MSTORE DUP3 PUSH32 0xA953B79A8BDA2946B1E815D9E09876DF8D499A7D04ACE4ECCEC405AE4A96CF08 PUSH1 0x20 CALLER SWAP4 LOG3 PUSH1 0x0 DUP1 DUP1 JUMPDEST DUP5 PUSH1 0x0 MSTORE PUSH1 0xA PUSH1 0x20 MSTORE PUSH1 0x40 PUSH1 0x0 KECCAK256 SLOAD DUP2 LT ISZERO PUSH2 0x1EAC JUMPI DUP5 PUSH1 0x0 MSTORE PUSH1 0x9 PUSH1 0x20 MSTORE PUSH1 0x4 PUSH1 0x40 DUP1 PUSH1 0x0 KECCAK256 DUP8 PUSH1 0x0 MSTORE PUSH1 0xA PUSH1 0x20 MSTORE PUSH2 0x20F8 DUP5 DUP4 PUSH1 0x0 KECCAK256 PUSH2 0x34F6 JUMP JUMPDEST SWAP1 SLOAD PUSH1 0x3 SWAP2 SWAP1 SWAP2 SHL SHR PUSH1 0x1 PUSH1 0x1 PUSH1 0xA0 SHL SUB AND PUSH1 0x0 SWAP1 DUP2 MSTORE PUSH1 0x20 SWAP2 SWAP1 SWAP2 MSTORE KECCAK256 ADD SLOAD PUSH1 0x10 DUP2 SWAP1 SHR PUSH1 0xFF AND PUSH2 0x212E JUMPI JUMPDEST POP PUSH1 0x1 ADD PUSH2 0x20BB JUMP JUMPDEST SWAP2 PUSH2 0x213A PUSH1 0xFF SWAP2 PUSH2 0x354A JUMP JUMPDEST SWAP3 PUSH1 0x18 SHR AND PUSH2 0x214A JUMPI JUMPDEST DUP6 PUSH2 0x2125 JUMP JUMPDEST SWAP2 PUSH2 0x2156 PUSH1 0x1 SWAP2 PUSH2 0x354A JUMP JUMPDEST SWAP3 SWAP1 POP PUSH2 0x2144 JUMP JUMPDEST PUSH1 0x40 MLOAD PUSH3 0x461BCD PUSH1 0xE5 SHL DUP2 MSTORE PUSH1 0x20 PUSH1 0x4 DUP3 ADD MSTORE PUSH1 0x11 PUSH1 0x24 DUP3 ADD MSTORE PUSH17 0x436F6D6D756E697479206F6E676F696E67 PUSH1 0x78 SHL PUSH1 0x44 DUP3 ADD MSTORE PUSH1 0x64 SWAP1 REVERT JUMPDEST PUSH1 0x40 MLOAD PUSH3 0x461BCD PUSH1 0xE5 SHL DUP2 MSTORE PUSH1 0x20 PUSH1 0x4 DUP3 ADD MSTORE PUSH1 0x18 PUSH1 0x24 DUP3 ADD MSTORE PUSH32 0x4F6E6C792063726561746F722063616E2070726F706F73650000000000000000 PUSH1 0x44 DUP3 ADD MSTORE PUSH1 0x64 SWAP1 REVERT JUMPDEST CALLVALUE PUSH2 0x1AE JUMPI PUSH2 0x21EA CALLDATASIZE PUSH2 0x33FB JUMP JUMPDEST SWAP1 DUP1 PUSH1 0x0 MSTORE PUSH1 0x8 PUSH1 0x20 MSTORE PUSH1 0x40 PUSH1 0x0 KECCAK256 DUP2 PUSH1 0x0 MSTORE PUSH1 0x9 PUSH1 0x20 MSTORE PUSH1 0x40 PUSH1 0x0 KECCAK256 PUSH1 0x1 DUP1 PUSH1 0xA0 SHL SUB CALLER AND PUSH1 0x0 MSTORE PUSH1 0x20 MSTORE PUSH2 0x222C PUSH1 0xFF PUSH1 0xD PUSH1 0x40 PUSH1 0x0 KECCAK256 SWAP4 ADD SLOAD AND ISZERO PUSH2 0x35CB JUMP JUMPDEST PUSH1 0xFF PUSH1 0x4 DUP3 ADD SLOAD AND PUSH2 0x23F4 JUMPI DUP3 MLOAD ISZERO PUSH2 0x23B8 JUMPI PUSH1 0x2 ADD SWAP2 DUP1 MLOAD SWAP3 PUSH1 0x1 PUSH1 0x1 PUSH1 0x40 SHL SUB DUP5 GT PUSH2 0xDE4 JUMPI PUSH2 0x225E DUP2 SLOAD PUSH2 0x3218 JUMP JUMPDEST PUSH1 0x1F DUP2 GT PUSH2 0x2370 JUMPI JUMPDEST POP PUSH1 0x20 SWAP4 PUSH1 0x1F DUP2 GT PUSH1 0x1 EQ PUSH2 0x22E6 JUMPI SWAP1 DUP2 PUSH2 0x22D6 SWAP4 SWAP3 PUSH32 0xBF478FDA32150EFBEA16148DF9D2DC95245FE55FE761F2BD87B66CE55637B2AF SWAP6 SWAP7 PUSH1 0x0 SWAP2 PUSH2 0x22DB JUMPI JUMPDEST POP DUP2 PUSH1 0x1 SHL SWAP2 PUSH1 0x0 NOT SWAP1 PUSH1 0x3 SHL SHR NOT AND OR SWAP1 SSTORE JUMPDEST PUSH1 0x40 MLOAD SWAP2 DUP3 SWAP2 CALLER DUP4 MSTORE PUSH1 0x40 PUSH1 0x20 DUP5 ADD MSTORE PUSH1 0x40 DUP4 ADD SWAP1 PUSH2 0x334E JUMP JUMPDEST SUB SWAP1 LOG2 STOP JUMPDEST SWAP1 POP DUP4 ADD MLOAD DUP8 PUSH2 0x22A8 JUMP JUMPDEST PUSH1 0x1F NOT DUP2 AND DUP3 PUSH1 0x0 MSTORE DUP6 PUSH1 0x0 KECCAK256 SWAP1 PUSH1 0x0 JUMPDEST DUP2 DUP2 LT PUSH2 0x2358 JUMPI POP SWAP2 PUSH1 0x1 SWAP2 PUSH32 0xBF478FDA32150EFBEA16148DF9D2DC95245FE55FE761F2BD87B66CE55637B2AF SWAP7 SWAP8 DUP3 PUSH2 0x22D6 SWAP8 SWAP7 SWAP6 LT PUSH2 0x233F JUMPI JUMPDEST POP POP DUP2 SHL ADD SWAP1 SSTORE PUSH2 0x22BC JUMP JUMPDEST DUP6 ADD MLOAD PUSH1 0x0 NOT PUSH1 0xF8 DUP5 PUSH1 0x3 SHL AND SHR NOT AND SWAP1 SSTORE DUP8 DUP1 PUSH2 0x2333 JUMP JUMPDEST DUP6 DUP9 ADD MLOAD DUP4 SSTORE PUSH1 0x20 SWAP8 DUP9 ADD SWAP8 PUSH1 0x1 SWAP1 SWAP4 ADD SWAP3 ADD PUSH2 0x22F7 JUMP JUMPDEST DUP2 PUSH1 0x0 MSTORE PUSH1 0x20 PUSH1 0x0 KECCAK256 PUSH1 0x1F DUP7 ADD PUSH1 0x5 SHR DUP2 ADD SWAP2 PUSH1 0x20 DUP8 LT PUSH2 0x23AE JUMPI JUMPDEST PUSH1 0x1F ADD PUSH1 0x5 SHR ADD SWAP1 JUMPDEST DUP2 DUP2 LT PUSH2 0x23A2 JUMPI POP PUSH2 0x2267 JUMP JUMPDEST PUSH1 0x0 DUP2 SSTORE PUSH1 0x1 ADD PUSH2 0x2395 JUMP JUMPDEST SWAP1 SWAP2 POP DUP2 SWAP1 PUSH2 0x238C JUMP JUMPDEST PUSH1 0x40 MLOAD PUSH3 0x461BCD PUSH1 0xE5 SHL DUP2 MSTORE PUSH1 0x20 PUSH1 0x4 DUP3 ADD MSTORE PUSH1 0x14 PUSH1 0x24 DUP3 ADD MSTORE PUSH20 0x115B5C1D1E481CDD589B5A5CDCDA5BDB88155493 PUSH1 0x62 SHL PUSH1 0x44 DUP3 ADD MSTORE PUSH1 0x64 SWAP1 REVERT JUMPDEST PUSH1 0x40 MLOAD PUSH3 0x461BCD PUSH1 0xE5 SHL DUP2 MSTORE PUSH1 0x20 PUSH1 0x4 DUP3 ADD MSTORE PUSH1 0x11 PUSH1 0x24 DUP3 ADD MSTORE PUSH17 0x105B1C9958591E481CDD589B5A5D1D1959 PUSH1 0x7A SHL PUSH1 0x44 DUP3 ADD MSTORE PUSH1 0x64 SWAP1 REVERT JUMPDEST CALLVALUE PUSH2 0x1AE JUMPI PUSH1 0x0 CALLDATASIZE PUSH1 0x3 NOT ADD SLT PUSH2 0x1AE JUMPI PUSH1 0x2 SLOAD PUSH1 0x40 MLOAD PUSH1 0x1 PUSH1 0x1 PUSH1 0xA0 SHL SUB SWAP1 SWAP2 AND DUP2 MSTORE PUSH1 0x20 SWAP1 RETURN JUMPDEST CALLVALUE PUSH2 0x1AE JUMPI PUSH1 0x40 CALLDATASIZE PUSH1 0x3 NOT ADD SLT PUSH2 0x1AE JUMPI PUSH2 0x246F PUSH2 0x33E5 JUMP JUMPDEST PUSH1 0x4 CALLDATALOAD PUSH1 0x0 MSTORE PUSH1 0x9 PUSH1 0x20 MSTORE PUSH1 0x40 PUSH1 0x0 KECCAK256 SWAP1 PUSH1 0x1 DUP1 PUSH1 0xA0 SHL SUB AND PUSH1 0x0 MSTORE PUSH1 0x20 MSTORE PUSH1 0x40 DUP1 PUSH1 0x0 KECCAK256 PUSH1 0xFF PUSH1 0x1 DUP2 PUSH1 0x4 DUP5 ADD SLOAD AND SWAP3 ADD SLOAD AND DUP3 MLOAD SWAP2 ISZERO ISZERO DUP3 MSTORE ISZERO ISZERO PUSH1 0x20 DUP3 ADD MSTORE RETURN JUMPDEST PUSH2 0x120 CALLDATASIZE PUSH1 0x3 NOT ADD SLT PUSH2 0x1AE JUMPI PUSH1 0x4 CALLDATALOAD PUSH1 0x1 PUSH1 0x1 PUSH1 0x40 SHL SUB DUP2 GT PUSH2 0x1AE JUMPI PUSH2 0x24DF SWAP1 CALLDATASIZE SWAP1 PUSH1 0x4 ADD PUSH2 0x338F JUMP JUMPDEST PUSH1 0x24 CALLDATALOAD PUSH1 0x1 PUSH1 0x1 PUSH1 0x40 SHL SUB DUP2 GT PUSH2 0x1AE JUMPI PUSH2 0x24FE SWAP1 CALLDATASIZE SWAP1 PUSH1 0x4 ADD PUSH2 0x338F JUMP JUMPDEST PUSH1 0x44 CALLDATALOAD PUSH1 0x1 PUSH1 0x1 PUSH1 0x40 SHL SUB DUP2 GT PUSH2 0x1AE JUMPI PUSH2 0x251D SWAP1 CALLDATASIZE SWAP1 PUSH1 0x4 ADD PUSH2 0x338F JUMP JUMPDEST SWAP2 PUSH1 0x64 CALLDATALOAD SWAP3 PUSH1 0xA4 CALLDATALOAD PUSH1 0xC4 CALLDATALOAD SWAP2 PUSH1 0xE4 CALLDATALOAD PUSH1 0x7 PUSH2 0x104 CALLDATALOAD LT ISZERO PUSH2 0x1AE JUMPI TIMESTAMP DUP8 GT ISZERO PUSH2 0x317B JUMPI DUP3 ISZERO PUSH2 0x3136 JUMPI DUP4 ISZERO PUSH2 0x30E6 JUMPI DUP1 ISZERO PUSH2 0x30A1 JUMPI DUP1 DUP5 MUL SWAP1 DUP5 DUP3 DIV SUB PUSH2 0x1F2E JUMPI CALLVALUE LT PUSH2 0x305C JUMPI PUSH1 0x24 SWAP6 PUSH1 0x7 SLOAD SWAP6 PUSH2 0x2574 DUP8 PUSH2 0x354A JUMP JUMPDEST PUSH1 0x7 SSTORE PUSH1 0x6 SLOAD PUSH1 0x40 MLOAD PUSH4 0x1CE87EBB PUSH1 0xE0 SHL DUP2 MSTORE SWAP9 PUSH1 0x20 SWAP2 DUP11 SWAP2 SWAP1 DUP3 SWAP1 PUSH1 0x1 PUSH1 0x1 PUSH1 0xA0 SHL SUB AND PUSH2 0x25A9 PUSH1 0x4 DUP4 ADD PUSH2 0x104 CALLDATALOAD PUSH2 0x353D JUMP JUMPDEST GAS STATICCALL SWAP8 DUP9 ISZERO PUSH2 0xE66 JUMPI PUSH1 0x0 SWAP9 PUSH2 0x3028 JUMPI JUMPDEST POP PUSH1 0x40 MLOAD SWAP6 PUSH2 0x200 DUP8 ADD DUP8 DUP2 LT PUSH1 0x1 PUSH1 0x1 PUSH1 0x40 SHL SUB DUP3 GT OR PUSH2 0xDE4 JUMPI PUSH1 0x40 MSTORE DUP8 DUP8 MSTORE PUSH1 0x20 DUP8 ADD MSTORE PUSH1 0x40 DUP7 ADD MSTORE CALLER PUSH1 0x60 DUP7 ADD MSTORE PUSH1 0x80 DUP6 ADD MSTORE PUSH1 0x84 CALLDATALOAD PUSH1 0xA0 DUP6 ADD MSTORE PUSH1 0xC0 DUP5 ADD MSTORE PUSH1 0xE0 DUP4 ADD MSTORE PUSH2 0x100 DUP3 ADD MSTORE PUSH1 0x64 PUSH2 0x120 DUP3 ADD MSTORE PUSH1 0x0 PUSH2 0x140 DUP3 ADD MSTORE CALLVALUE PUSH2 0x160 DUP3 ADD MSTORE PUSH1 0x0 PUSH2 0x180 DUP3 ADD MSTORE PUSH1 0x0 PUSH2 0x1A0 DUP3 ADD MSTORE PUSH1 0x0 SWAP3 PUSH2 0x104 CALLDATALOAD PUSH2 0x1C0 DUP4 ADD MSTORE PUSH2 0x1E0 DUP3 ADD MSTORE DUP2 DUP4 MSTORE PUSH1 0x8 PUSH1 0x20 MSTORE PUSH1 0x40 DUP4 KECCAK256 SWAP1 DUP1 MLOAD DUP3 SSTORE PUSH1 0x20 DUP2 ADD MLOAD DUP1 MLOAD SWAP1 PUSH1 0x1 PUSH1 0x1 PUSH1 0x40 SHL SUB DUP3 GT PUSH2 0x2E82 JUMPI DUP2 SWAP1 PUSH2 0x2679 PUSH1 0x1 DUP7 ADD SLOAD PUSH2 0x3218 JUMP JUMPDEST PUSH1 0x1F DUP2 GT PUSH2 0x2FD8 JUMPI JUMPDEST POP PUSH1 0x20 SWAP1 PUSH1 0x1F DUP4 GT PUSH1 0x1 EQ PUSH2 0x2F6A JUMPI DUP8 SWAP3 PUSH2 0x2F5F JUMPI JUMPDEST POP POP DUP2 PUSH1 0x1 SHL SWAP2 PUSH1 0x0 NOT SWAP1 PUSH1 0x3 SHL SHR NOT AND OR PUSH1 0x1 DUP4 ADD SSTORE JUMPDEST PUSH1 0x40 DUP2 ADD MLOAD DUP1 MLOAD SWAP1 PUSH1 0x1 PUSH1 0x1 PUSH1 0x40 SHL SUB DUP3 GT PUSH2 0x2E82 JUMPI DUP2 SWAP1 PUSH2 0x26D5 PUSH1 0x2 DUP7 ADD SLOAD PUSH2 0x3218 JUMP JUMPDEST PUSH1 0x1F DUP2 GT PUSH2 0x2F0F JUMPI JUMPDEST POP PUSH1 0x20 SWAP1 PUSH1 0x1F DUP4 GT PUSH1 0x1 EQ PUSH2 0x2EA1 JUMPI DUP8 SWAP3 PUSH2 0x2E96 JUMPI JUMPDEST POP POP DUP2 PUSH1 0x1 SHL SWAP2 PUSH1 0x0 NOT SWAP1 PUSH1 0x3 SHL SHR NOT AND OR PUSH1 0x2 DUP4 ADD SSTORE JUMPDEST PUSH1 0x60 DUP2 ADD MLOAD PUSH1 0x3 DUP4 ADD DUP1 SLOAD PUSH1 0x1 PUSH1 0x1 PUSH1 0xA0 SHL SUB NOT AND PUSH1 0x1 PUSH1 0x1 PUSH1 0xA0 SHL SUB SWAP3 SWAP1 SWAP3 AND SWAP2 SWAP1 SWAP2 OR SWAP1 SSTORE PUSH1 0x80 DUP2 ADD MLOAD PUSH1 0x4 DUP4 ADD SSTORE PUSH1 0xA0 DUP2 ADD MLOAD PUSH1 0x5 DUP4 ADD SSTORE PUSH1 0xC0 DUP2 ADD MLOAD DUP1 MLOAD SWAP1 PUSH1 0x1 PUSH1 0x1 PUSH1 0x40 SHL SUB DUP3 GT PUSH2 0x2E82 JUMPI DUP2 SWAP1 PUSH2 0x276C PUSH1 0x6 DUP7 ADD SLOAD PUSH2 0x3218 JUMP JUMPDEST PUSH1 0x1F DUP2 GT PUSH2 0x2E32 JUMPI JUMPDEST POP PUSH1 0x20 SWAP1 PUSH1 0x1F DUP4 GT PUSH1 0x1 EQ PUSH2 0x2DC9 JUMPI DUP8 SWAP3 PUSH2 0x2DBE JUMPI JUMPDEST POP POP DUP2 PUSH1 0x1 SHL SWAP2 PUSH1 0x0 NOT SWAP1 PUSH1 0x3 SHL SHR NOT AND OR PUSH1 0x6 DUP4 ADD SSTORE JUMPDEST PUSH1 0xE0 DUP2 ADD MLOAD PUSH1 0x7 DUP4 ADD SSTORE PUSH2 0x100 DUP2 ADD MLOAD PUSH1 0x8 DUP4 ADD SSTORE PUSH2 0x120 DUP2 ADD MLOAD PUSH1 0x9 DUP4 ADD SSTORE PUSH2 0x140 DUP2 ADD MLOAD PUSH1 0xA DUP4 ADD SSTORE PUSH2 0x160 DUP2 ADD MLOAD PUSH1 0xB DUP4 ADD SSTORE PUSH2 0x180 DUP2 ADD MLOAD PUSH1 0xC DUP4 ADD SSTORE PUSH1 0xD DUP3 ADD PUSH2 0x2805 PUSH2 0x1A0 DUP4 ADD MLOAD ISZERO ISZERO DUP3 SWAP1 PUSH1 0xFF DUP1 NOT DUP4 SLOAD AND SWAP2 ISZERO ISZERO AND OR SWAP1 SSTORE JUMP JUMPDEST PUSH2 0x1C0 DUP3 ADD MLOAD PUSH1 0x7 DUP2 LT ISZERO PUSH2 0x2DAA JUMPI DUP2 SLOAD PUSH2 0xFF00 NOT AND PUSH1 0x8 SWAP2 SWAP1 SWAP2 SHL PUSH2 0xFF00 AND OR SWAP1 SSTORE PUSH2 0x1E0 ADD MLOAD PUSH1 0xE SWAP2 SWAP1 SWAP2 ADD SSTORE PUSH1 0x40 MLOAD PUSH2 0x2840 DUP2 PUSH2 0x3252 JUMP JUMPDEST PUSH20 0xF39FD6E51AAD88F6F4CE6AB8827279CFFFB92266 DUP2 MSTORE PUSH20 0x70997970C51812DC3A010C7D01B50E0D17DC79C8 PUSH1 0x20 DUP3 ADD MSTORE PUSH20 0x70997970C51812DC3A010C7D01B50E0D17DC79C8 PUSH1 0x40 DUP3 ADD MSTORE DUP3 SWAP1 PUSH1 0x20 SWAP2 JUMPDEST PUSH1 0x3 DUP2 LT PUSH2 0x2B4F JUMPI POP POP PUSH1 0x40 MLOAD PUSH2 0x28A7 DUP2 PUSH2 0x326D JUMP JUMPDEST TIMESTAMP DUP2 MSTORE DUP2 DUP2 ADD SWAP1 DUP5 DUP3 MSTORE PUSH1 0x40 DUP2 ADD SWAP2 DUP6 DUP4 MSTORE PUSH2 0x293F PUSH1 0x40 MLOAD SWAP2 PUSH2 0x28CA DUP7 DUP5 PUSH2 0x3289 JUMP JUMPDEST DUP8 DUP4 MSTORE PUSH1 0x60 DUP5 ADD SWAP3 DUP4 MSTORE DUP8 PUSH1 0x80 DUP6 ADD MSTORE DUP8 PUSH1 0xA0 DUP6 ADD MSTORE DUP8 PUSH1 0xC0 DUP6 ADD MSTORE DUP8 PUSH1 0xE0 DUP6 ADD MSTORE DUP8 PUSH2 0x100 DUP6 ADD MSTORE DUP8 PUSH2 0x120 DUP6 ADD MSTORE DUP8 PUSH2 0x140 DUP6 ADD MSTORE DUP7 DUP9 MSTORE PUSH1 0x9 DUP7 MSTORE PUSH1 0x40 DUP9 KECCAK256 PUSH1 0x1 DUP1 PUSH1 0xA0 SHL SUB CALLER AND DUP10 MSTORE DUP7 MSTORE PUSH1 0x40 DUP9 KECCAK256 SWAP5 DUP5 MLOAD DUP7 SSTORE PUSH2 0xB03 PUSH1 0x1 DUP8 ADD SWAP3 MLOAD ISZERO ISZERO DUP4 SWAP1 PUSH1 0xFF DUP1 NOT DUP4 SLOAD AND SWAP2 ISZERO ISZERO AND OR SWAP1 SSTORE JUMP JUMPDEST MLOAD DUP1 MLOAD SWAP1 PUSH1 0x1 PUSH1 0x1 PUSH1 0x40 SHL SUB DUP3 GT PUSH2 0x2B3B JUMPI PUSH2 0x295E PUSH1 0x2 DUP6 ADD SLOAD PUSH2 0x3218 JUMP JUMPDEST PUSH1 0x1F DUP2 GT PUSH2 0x2AF9 JUMPI JUMPDEST POP DUP5 SWAP1 PUSH1 0x1F DUP4 GT PUSH1 0x1 EQ PUSH2 0x2A87 JUMPI SWAP3 DUP3 PUSH1 0x6 SWAP4 PUSH2 0x140 SWAP4 PUSH1 0x8 SWAP9 SWAP8 SWAP7 DUP12 SWAP3 PUSH2 0x2A7C JUMPI JUMPDEST POP POP DUP2 PUSH1 0x1 SHL SWAP2 PUSH1 0x0 NOT SWAP1 PUSH1 0x3 SHL SHR NOT AND OR PUSH1 0x2 DUP6 ADD SSTORE JUMPDEST PUSH1 0x80 DUP2 ADD MLOAD PUSH1 0x3 DUP6 ADD SSTORE PUSH2 0x2A08 PUSH1 0x4 DUP6 ADD PUSH2 0x29CF PUSH1 0xA0 DUP5 ADD MLOAD ISZERO ISZERO DUP3 SWAP1 PUSH1 0xFF DUP1 NOT DUP4 SLOAD AND SWAP2 ISZERO ISZERO AND OR SWAP1 SSTORE JUMP JUMPDEST PUSH1 0xC0 DUP4 ADD MLOAD DUP2 SLOAD PUSH2 0xFF00 NOT AND SWAP1 ISZERO ISZERO PUSH1 0x8 SHL PUSH2 0xFF00 AND OR DUP2 SSTORE PUSH1 0xE0 DUP4 ADD MLOAD DUP2 SLOAD PUSH3 0xFF0000 NOT AND SWAP1 ISZERO ISZERO PUSH1 0x10 SHL PUSH3 0xFF0000 AND OR DUP2 SSTORE PUSH2 0xC03 JUMP JUMPDEST PUSH2 0x120 DUP2 ADD MLOAD PUSH1 0x5 DUP6 ADD SSTORE ADD MLOAD SWAP2 ADD SSTORE DUP3 DUP5 MSTORE PUSH1 0xA DUP2 MSTORE PUSH2 0x2A2C CALLER PUSH1 0x40 DUP7 KECCAK256 PUSH2 0x356A JUMP JUMPDEST DUP3 DUP5 MSTORE MSTORE PUSH1 0xA PUSH1 0x40 DUP4 KECCAK256 ADD PUSH2 0x2A41 DUP2 SLOAD PUSH2 0x354A JUMP JUMPDEST SWAP1 SSTORE PUSH32 0x4406E0FD454E0F528174E628E0716CD1972C77F1FFFD2FAA8D73F468957FF391 PUSH1 0x40 MLOAD DUP1 PUSH2 0x2A76 PUSH2 0x104 CALLDATALOAD CALLER DUP4 PUSH2 0x35AB JUMP JUMPDEST SUB SWAP1 LOG2 DUP1 RETURN JUMPDEST ADD MLOAD SWAP1 POP DUP11 DUP1 PUSH2 0x298A JUMP JUMPDEST PUSH1 0x2 DUP6 ADD DUP9 MSTORE DUP6 DUP9 KECCAK256 SWAP2 SWAP1 PUSH1 0x1F NOT DUP5 AND DUP10 JUMPDEST DUP2 DUP2 LT PUSH2 0x2AE2 JUMPI POP SWAP4 PUSH2 0x140 SWAP4 PUSH1 0x8 SWAP9 SWAP8 SWAP7 SWAP4 PUSH1 0x1 SWAP4 DUP4 PUSH1 0x6 SWAP9 LT PUSH2 0x2AC9 JUMPI JUMPDEST POP POP POP DUP2 SHL ADD PUSH1 0x2 DUP6 ADD SSTORE PUSH2 0x29A2 JUMP JUMPDEST ADD MLOAD PUSH1 0x0 NOT PUSH1 0xF8 DUP5 PUSH1 0x3 SHL AND SHR NOT AND SWAP1 SSTORE DUP11 DUP1 DUP1 PUSH2 0x2AB9 JUMP JUMPDEST SWAP3 SWAP4 DUP9 PUSH1 0x1 DUP2 SWAP3 DUP8 DUP7 ADD MLOAD DUP2 SSTORE ADD SWAP6 ADD SWAP4 ADD PUSH2 0x2A99 JUMP JUMPDEST PUSH1 0x2 DUP6 ADD DUP9 MSTORE DUP6 DUP9 KECCAK256 PUSH1 0x1F DUP5 ADD PUSH1 0x5 SHR DUP2 ADD DUP8 DUP6 LT PUSH2 0x2B34 JUMPI JUMPDEST PUSH1 0x1F DUP4 ADD PUSH1 0x5 SHR DUP3 ADD DUP2 LT PUSH2 0x2B29 JUMPI POP POP PUSH2 0x2967 JUMP JUMPDEST DUP10 DUP2 SSTORE PUSH1 0x1 ADD PUSH2 0x2B13 JUMP JUMPDEST POP DUP1 PUSH2 0x2B13 JUMP JUMPDEST PUSH4 0x4E487B71 PUSH1 0xE0 SHL DUP8 MSTORE PUSH1 0x41 PUSH1 0x4 MSTORE PUSH1 0x24 DUP8 REVERT JUMPDEST DUP4 DUP6 MSTORE PUSH1 0x3 DUP4 MSTORE PUSH1 0x40 DUP6 KECCAK256 PUSH2 0x2B78 SWAP1 PUSH1 0x1 PUSH1 0x1 PUSH1 0xA0 SHL SUB PUSH2 0x2B70 DUP5 DUP7 PUSH2 0x3559 JUMP JUMPDEST MLOAD AND SWAP1 PUSH2 0x356A JUMP JUMPDEST PUSH1 0x40 MLOAD PUSH2 0x2B84 DUP2 PUSH2 0x326D JUMP JUMPDEST TIMESTAMP DUP2 MSTORE DUP4 DUP2 ADD SWAP1 DUP7 DUP3 MSTORE PUSH1 0x40 DUP2 ADD SWAP2 DUP8 DUP4 MSTORE PUSH2 0x2C2F PUSH1 0x40 MLOAD SWAP2 PUSH2 0x2BA7 DUP9 DUP5 PUSH2 0x3289 JUMP JUMPDEST DUP10 DUP4 MSTORE PUSH1 0x60 DUP5 ADD SWAP3 DUP4 MSTORE DUP10 PUSH1 0x80 DUP6 ADD MSTORE DUP10 PUSH1 0xA0 DUP6 ADD MSTORE PUSH1 0x1 PUSH1 0xC0 DUP6 ADD MSTORE DUP10 PUSH1 0xE0 DUP6 ADD MSTORE DUP10 PUSH2 0x100 DUP6 ADD MSTORE DUP10 PUSH2 0x120 DUP6 ADD MSTORE DUP10 PUSH2 0x140 DUP6 ADD MSTORE DUP9 DUP11 MSTORE PUSH1 0x9 DUP9 MSTORE PUSH1 0x40 DUP11 KECCAK256 PUSH1 0x1 DUP1 PUSH1 0xA0 SHL SUB PUSH2 0x2BFB DUP9 DUP11 PUSH2 0x3559 JUMP JUMPDEST MLOAD AND PUSH1 0x1 DUP1 PUSH1 0xA0 SHL SUB AND DUP12 MSTORE DUP9 MSTORE PUSH1 0x40 DUP11 KECCAK256 SWAP5 DUP5 MLOAD DUP7 SSTORE PUSH2 0xB03 PUSH1 0x1 DUP8 ADD SWAP3 MLOAD ISZERO ISZERO DUP4 SWAP1 PUSH1 0xFF DUP1 NOT DUP4 SLOAD AND SWAP2 ISZERO ISZERO AND OR SWAP1 SSTORE JUMP JUMPDEST MLOAD DUP1 MLOAD SWAP1 PUSH1 0x1 PUSH1 0x1 PUSH1 0x40 SHL SUB DUP3 GT PUSH2 0x2D96 JUMPI PUSH2 0x2C4E PUSH1 0x2 DUP6 ADD SLOAD PUSH2 0x3218 JUMP JUMPDEST PUSH1 0x1F DUP2 GT PUSH2 0x2D54 JUMPI JUMPDEST POP DUP7 SWAP1 PUSH1 0x1F DUP4 GT PUSH1 0x1 EQ PUSH2 0x2CDF JUMPI SWAP3 DUP3 PUSH1 0x6 SWAP4 PUSH2 0x140 SWAP4 PUSH1 0x1 SWAP9 SWAP8 SWAP7 DUP14 SWAP3 PUSH2 0x2CD4 JUMPI JUMPDEST POP POP PUSH1 0x0 NOT PUSH1 0x3 DUP4 SWAP1 SHL SHR NOT AND SWAP1 DUP8 SHL OR PUSH1 0x2 DUP6 ADD SSTORE JUMPDEST PUSH1 0x80 DUP2 ADD MLOAD PUSH1 0x3 DUP6 ADD SSTORE PUSH2 0x2CBE PUSH1 0x4 DUP6 ADD PUSH2 0x29CF PUSH1 0xA0 DUP5 ADD MLOAD ISZERO ISZERO DUP3 SWAP1 PUSH1 0xFF DUP1 NOT DUP4 SLOAD AND SWAP2 ISZERO ISZERO AND OR SWAP1 SSTORE JUMP JUMPDEST PUSH2 0x120 DUP2 ADD MLOAD PUSH1 0x5 DUP6 ADD SSTORE ADD MLOAD SWAP2 ADD SSTORE ADD PUSH2 0x2891 JUMP JUMPDEST ADD MLOAD SWAP1 POP DUP13 DUP1 PUSH2 0x2C7A JUMP JUMPDEST SWAP1 PUSH1 0x2 DUP6 ADD DUP11 MSTORE DUP8 DUP11 KECCAK256 SWAP2 DUP11 JUMPDEST DUP10 PUSH1 0x1F NOT DUP7 AND DUP3 LT PUSH2 0x2D3E JUMPI POP POP DUP4 PUSH2 0x140 SWAP4 PUSH1 0x1 SWAP9 SWAP8 SWAP7 SWAP4 DUP10 SWAP4 PUSH1 0x6 SWAP8 PUSH1 0x1F NOT DUP2 AND LT PUSH2 0x2D25 JUMPI JUMPDEST POP POP POP DUP2 SHL ADD PUSH1 0x2 DUP6 ADD SSTORE PUSH2 0x2C91 JUMP JUMPDEST ADD MLOAD PUSH1 0x0 NOT PUSH1 0xF8 DUP5 PUSH1 0x3 SHL AND SHR NOT AND SWAP1 SSTORE DUP13 DUP1 DUP1 PUSH2 0x2D15 JUMP JUMPDEST PUSH1 0x1 DUP5 SWAP6 DUP3 SWAP4 SWAP6 DUP6 ADD MLOAD DUP2 SSTORE ADD SWAP5 ADD SWAP3 ADD PUSH2 0x2CEC JUMP JUMPDEST PUSH1 0x2 DUP6 ADD DUP11 MSTORE DUP8 DUP11 KECCAK256 PUSH1 0x1F DUP5 ADD PUSH1 0x5 SHR DUP2 ADD DUP10 DUP6 LT PUSH2 0x2D8F JUMPI JUMPDEST PUSH1 0x1F DUP4 ADD PUSH1 0x5 SHR DUP3 ADD DUP2 LT PUSH2 0x2D84 JUMPI POP POP PUSH2 0x2C57 JUMP JUMPDEST DUP12 DUP2 SSTORE PUSH1 0x1 ADD PUSH2 0x2D6E JUMP JUMPDEST POP DUP1 PUSH2 0x2D6E JUMP JUMPDEST PUSH4 0x4E487B71 PUSH1 0xE0 SHL DUP10 MSTORE PUSH1 0x41 PUSH1 0x4 MSTORE PUSH1 0x24 DUP10 REVERT JUMPDEST PUSH4 0x4E487B71 PUSH1 0xE0 SHL DUP7 MSTORE PUSH1 0x21 PUSH1 0x4 MSTORE PUSH1 0x24 DUP7 REVERT JUMPDEST ADD MLOAD SWAP1 POP DUP7 DUP1 PUSH2 0x278B JUMP JUMPDEST PUSH1 0x6 DUP7 ADD DUP9 MSTORE DUP2 DUP9 KECCAK256 SWAP3 POP PUSH1 0x1F NOT DUP5 AND DUP9 JUMPDEST DUP2 DUP2 LT PUSH2 0x2E1A JUMPI POP SWAP1 DUP5 PUSH1 0x1 SWAP6 SWAP5 SWAP4 SWAP3 LT PUSH2 0x2E01 JUMPI JUMPDEST POP POP POP DUP2 SHL ADD PUSH1 0x6 DUP4 ADD SSTORE PUSH2 0x27A3 JUMP JUMPDEST ADD MLOAD PUSH1 0x0 NOT PUSH1 0xF8 DUP5 PUSH1 0x3 SHL AND SHR NOT AND SWAP1 SSTORE DUP7 DUP1 DUP1 PUSH2 0x2DF1 JUMP JUMPDEST SWAP3 SWAP4 PUSH1 0x20 PUSH1 0x1 DUP2 SWAP3 DUP8 DUP7 ADD MLOAD DUP2 SSTORE ADD SWAP6 ADD SWAP4 ADD PUSH2 0x2DDB JUMP JUMPDEST SWAP1 SWAP2 POP PUSH1 0x6 DUP6 ADD DUP8 MSTORE PUSH1 0x20 DUP8 KECCAK256 PUSH1 0x1F DUP5 ADD PUSH1 0x5 SHR DUP2 ADD PUSH1 0x20 DUP6 LT PUSH2 0x2E7B JUMPI JUMPDEST SWAP1 DUP5 SWAP4 SWAP3 SWAP2 JUMPDEST PUSH1 0x1F DUP4 ADD PUSH1 0x5 SHR DUP3 ADD DUP2 LT PUSH2 0x2E6D JUMPI POP POP PUSH2 0x2775 JUMP JUMPDEST DUP10 DUP2 SSTORE DUP6 SWAP5 POP PUSH1 0x1 ADD PUSH2 0x2E57 JUMP JUMPDEST POP DUP1 PUSH2 0x2E51 JUMP JUMPDEST PUSH4 0x4E487B71 PUSH1 0xE0 SHL DUP7 MSTORE PUSH1 0x41 PUSH1 0x4 MSTORE PUSH1 0x24 DUP7 REVERT JUMPDEST ADD MLOAD SWAP1 POP DUP7 DUP1 PUSH2 0x26F4 JUMP JUMPDEST SWAP3 POP PUSH1 0x2 DUP6 ADD DUP8 MSTORE DUP1 DUP8 KECCAK256 SWAP1 DUP8 SWAP4 JUMPDEST PUSH1 0x1F NOT DUP5 AND DUP6 LT PUSH2 0x2EF4 JUMPI PUSH1 0x1 SWAP5 POP DUP4 PUSH1 0x1F NOT DUP2 AND LT PUSH2 0x2EDB JUMPI JUMPDEST POP POP POP DUP2 SHL ADD PUSH1 0x2 DUP4 ADD SSTORE PUSH2 0x270C JUMP JUMPDEST ADD MLOAD PUSH1 0x0 NOT PUSH1 0xF8 DUP5 PUSH1 0x3 SHL AND SHR NOT AND SWAP1 SSTORE DUP7 DUP1 DUP1 PUSH2 0x2ECB JUMP JUMPDEST DUP2 DUP2 ADD MLOAD DUP4 SSTORE PUSH1 0x20 SWAP5 DUP6 ADD SWAP5 PUSH1 0x1 SWAP1 SWAP4 ADD SWAP3 SWAP1 SWAP2 ADD SWAP1 PUSH2 0x2EB0 JUMP JUMPDEST SWAP1 SWAP2 POP PUSH1 0x2 DUP6 ADD DUP8 MSTORE PUSH1 0x20 DUP8 KECCAK256 PUSH1 0x1F DUP5 ADD PUSH1 0x5 SHR DUP2 ADD PUSH1 0x20 DUP6 LT PUSH2 0x2F58 JUMPI JUMPDEST SWAP1 DUP5 SWAP4 SWAP3 SWAP2 JUMPDEST PUSH1 0x1F DUP4 ADD PUSH1 0x5 SHR DUP3 ADD DUP2 LT PUSH2 0x2F4A JUMPI POP POP PUSH2 0x26DE JUMP JUMPDEST DUP10 DUP2 SSTORE DUP6 SWAP5 POP PUSH1 0x1 ADD PUSH2 0x2F34 JUMP JUMPDEST POP DUP1 PUSH2 0x2F2E JUMP JUMPDEST ADD MLOAD SWAP1 POP DUP7 DUP1 PUSH2 0x2698 JUMP JUMPDEST SWAP3 POP PUSH1 0x1 DUP6 ADD DUP8 MSTORE DUP1 DUP8 KECCAK256 SWAP1 DUP8 SWAP4 JUMPDEST PUSH1 0x1F NOT DUP5 AND DUP6 LT PUSH2 0x2FBD JUMPI PUSH1 0x1 SWAP5 POP DUP4 PUSH1 0x1F NOT DUP2 AND LT PUSH2 0x2FA4 JUMPI JUMPDEST POP POP POP DUP2 SHL ADD PUSH1 0x1 DUP4 ADD SSTORE PUSH2 0x26B0 JUMP JUMPDEST ADD MLOAD PUSH1 0x0 NOT PUSH1 0xF8 DUP5 PUSH1 0x3 SHL AND SHR NOT AND SWAP1 SSTORE DUP7 DUP1 DUP1 PUSH2 0x2F94 JUMP JUMPDEST DUP2 DUP2 ADD MLOAD DUP4 SSTORE PUSH1 0x20 SWAP5 DUP6 ADD SWAP5 PUSH1 0x1 SWAP1 SWAP4 ADD SWAP3 SWAP1 SWAP2 ADD SWAP1 PUSH2 0x2F79 JUMP JUMPDEST SWAP1 SWAP2 POP PUSH1 0x1 DUP6 ADD DUP8 MSTORE PUSH1 0x20 DUP8 KECCAK256 PUSH1 0x1F DUP5 ADD PUSH1 0x5 SHR DUP2 ADD PUSH1 0x20 DUP6 LT PUSH2 0x3021 JUMPI JUMPDEST SWAP1 DUP5 SWAP4 SWAP3 SWAP2 JUMPDEST PUSH1 0x1F DUP4 ADD PUSH1 0x5 SHR DUP3 ADD DUP2 LT PUSH2 0x3013 JUMPI POP POP PUSH2 0x2682 JUMP JUMPDEST DUP10 DUP2 SSTORE DUP6 SWAP5 POP PUSH1 0x1 ADD PUSH2 0x2FFD JUMP JUMPDEST POP DUP1 PUSH2 0x2FF7 JUMP JUMPDEST SWAP1 SWAP8 POP PUSH1 0x20 DUP2 RETURNDATASIZE PUSH1 0x20 GT PUSH2 0x3054 JUMPI JUMPDEST DUP2 PUSH2 0x3044 PUSH1 0x20 SWAP4 DUP4 PUSH2 0x3289 JUMP JUMPDEST DUP2 ADD SUB SLT PUSH2 0x1AE JUMPI MLOAD SWAP7 DUP9 PUSH2 0x25BA JUMP JUMPDEST RETURNDATASIZE SWAP2 POP PUSH2 0x3037 JUMP JUMPDEST PUSH1 0x40 MLOAD PUSH3 0x461BCD PUSH1 0xE5 SHL DUP2 MSTORE PUSH1 0x20 PUSH1 0x4 DUP3 ADD MSTORE PUSH1 0x18 PUSH1 0x24 DUP3 ADD MSTORE PUSH32 0x496E73756666696369656E742072657761726420706F6F6C0000000000000000 PUSH1 0x44 DUP3 ADD MSTORE PUSH1 0x64 SWAP1 REVERT JUMPDEST PUSH1 0x40 MLOAD PUSH3 0x461BCD PUSH1 0xE5 SHL DUP2 MSTORE PUSH1 0x20 PUSH1 0x4 DUP3 ADD MSTORE PUSH1 0x1C PUSH1 0x24 DUP3 ADD MSTORE PUSH32 0x4D6178206D656D62657273206D75737420626520706F73697469766500000000 PUSH1 0x44 DUP3 ADD MSTORE PUSH1 0x64 SWAP1 REVERT JUMPDEST PUSH1 0x40 MLOAD PUSH3 0x461BCD PUSH1 0xE5 SHL DUP2 MSTORE PUSH1 0x20 PUSH1 0x4 DUP3 ADD MSTORE PUSH1 0x22 PUSH1 0x24 DUP3 ADD MSTORE PUSH32 0x52657761726420706572206D656D626572206D75737420626520706F73697469 PUSH1 0x44 DUP3 ADD MSTORE PUSH2 0x7665 PUSH1 0xF0 SHL PUSH1 0x64 DUP3 ADD MSTORE PUSH1 0x84 SWAP1 REVERT JUMPDEST PUSH1 0x40 MLOAD PUSH3 0x461BCD PUSH1 0xE5 SHL DUP2 MSTORE PUSH1 0x20 PUSH1 0x4 DUP3 ADD MSTORE PUSH1 0x1F PUSH1 0x24 DUP3 ADD MSTORE PUSH32 0x4D656D626572206465706F736974206D75737420626520706F73697469766500 PUSH1 0x44 DUP3 ADD MSTORE PUSH1 0x64 SWAP1 REVERT JUMPDEST PUSH1 0x40 MLOAD PUSH3 0x461BCD PUSH1 0xE5 SHL DUP2 MSTORE PUSH1 0x20 PUSH1 0x4 DUP3 ADD MSTORE PUSH1 0x1C PUSH1 0x24 DUP3 ADD MSTORE PUSH32 0x53746172742074696D65206D75737420626520696E2066757475726500000000 PUSH1 0x44 DUP3 ADD MSTORE PUSH1 0x64 SWAP1 REVERT JUMPDEST CALLVALUE PUSH2 0x1AE JUMPI PUSH1 0x20 CALLDATASIZE PUSH1 0x3 NOT ADD SLT PUSH2 0x1AE JUMPI PUSH1 0x4 CALLDATALOAD PUSH1 0x0 MSTORE PUSH1 0x10 PUSH1 0x20 MSTORE PUSH1 0x20 PUSH1 0x40 PUSH1 0x0 KECCAK256 SLOAD PUSH1 0x40 MLOAD SWAP1 DUP2 MSTORE RETURN JUMPDEST CALLVALUE PUSH2 0x1AE JUMPI PUSH1 0x20 CALLDATASIZE PUSH1 0x3 NOT ADD SLT PUSH2 0x1AE JUMPI PUSH1 0x4 CALLDATALOAD PUSH1 0x0 MSTORE PUSH1 0xD PUSH1 0x20 MSTORE PUSH2 0x143A PUSH2 0x1426 PUSH1 0x40 PUSH1 0x0 KECCAK256 PUSH2 0x32AA JUMP JUMPDEST SWAP1 PUSH1 0x1 DUP3 DUP2 SHR SWAP3 AND DUP1 ISZERO PUSH2 0x3248 JUMPI JUMPDEST PUSH1 0x20 DUP4 LT EQ PUSH2 0x3232 JUMPI JUMP JUMPDEST PUSH4 0x4E487B71 PUSH1 0xE0 SHL PUSH1 0x0 MSTORE PUSH1 0x22 PUSH1 0x4 MSTORE PUSH1 0x24 PUSH1 0x0 REVERT JUMPDEST SWAP2 PUSH1 0x7F AND SWAP2 PUSH2 0x3227 JUMP JUMPDEST PUSH1 0x60 DUP2 ADD SWAP1 DUP2 LT PUSH1 0x1 PUSH1 0x1 PUSH1 0x40 SHL SUB DUP3 GT OR PUSH2 0xDE4 JUMPI PUSH1 0x40 MSTORE JUMP JUMPDEST PUSH2 0x160 DUP2 ADD SWAP1 DUP2 LT PUSH1 0x1 PUSH1 0x1 PUSH1 0x40 SHL SUB DUP3 GT OR PUSH2 0xDE4 JUMPI PUSH1 0x40 MSTORE JUMP JUMPDEST SWAP1 PUSH1 0x1F DUP1 NOT SWAP2 ADD AND DUP2 ADD SWAP1 DUP2 LT PUSH1 0x1 PUSH1 0x1 PUSH1 0x40 SHL SUB DUP3 GT OR PUSH2 0xDE4 JUMPI PUSH1 0x40 MSTORE JUMP JUMPDEST SWAP1 PUSH1 0x40 MLOAD SWAP2 DUP3 PUSH1 0x0 DUP3 SLOAD SWAP3 PUSH2 0x32BE DUP5 PUSH2 0x3218 JUMP JUMPDEST DUP1 DUP5 MSTORE SWAP4 PUSH1 0x1 DUP2 AND SWAP1 DUP2 ISZERO PUSH2 0x332C JUMPI POP PUSH1 0x1 EQ PUSH2 0x32E5 JUMPI JUMPDEST POP PUSH2 0x32E3 SWAP3 POP SUB DUP4 PUSH2 0x3289 JUMP JUMPDEST JUMP JUMPDEST SWAP1 POP PUSH1 0x0 SWAP3 SWAP2 SWAP3 MSTORE PUSH1 0x20 PUSH1 0x0 KECCAK256 SWAP1 PUSH1 0x0 SWAP2 JUMPDEST DUP2 DUP4 LT PUSH2 0x3310 JUMPI POP POP SWAP1 PUSH1 0x20 PUSH2 0x32E3 SWAP3 DUP3 ADD ADD CODESIZE PUSH2 0x32D6 JUMP JUMPDEST PUSH1 0x20 SWAP2 SWAP4 POP DUP1 PUSH1 0x1 SWAP2 SLOAD DUP4 DUP6 DUP10 ADD ADD MSTORE ADD SWAP2 ADD SWAP1 SWAP2 DUP5 SWAP3 PUSH2 0x32F7 JUMP JUMPDEST SWAP1 POP PUSH1 0x20 SWAP3 POP PUSH2 0x32E3 SWAP5 SWAP2 POP PUSH1 0xFF NOT AND DUP3 DUP5 ADD MSTORE ISZERO ISZERO PUSH1 0x5 SHL DUP3 ADD ADD CODESIZE PUSH2 0x32D6 JUMP JUMPDEST SWAP2 SWAP1 DUP3 MLOAD SWAP3 DUP4 DUP3 MSTORE PUSH1 0x0 JUMPDEST DUP5 DUP2 LT PUSH2 0x337A JUMPI POP POP DUP3 PUSH1 0x0 PUSH1 0x20 DUP1 SWAP5 SWAP6 DUP5 ADD ADD MSTORE PUSH1 0x1F DUP1 NOT SWAP2 ADD AND ADD ADD SWAP1 JUMP JUMPDEST DUP1 PUSH1 0x20 DUP1 SWAP3 DUP5 ADD ADD MLOAD DUP3 DUP3 DUP7 ADD ADD MSTORE ADD PUSH2 0x3359 JUMP JUMPDEST DUP2 PUSH1 0x1F DUP3 ADD SLT ISZERO PUSH2 0x1AE JUMPI DUP1 CALLDATALOAD SWAP1 PUSH1 0x1 PUSH1 0x1 PUSH1 0x40 SHL SUB DUP3 GT PUSH2 0xDE4 JUMPI PUSH1 0x40 MLOAD SWAP3 PUSH2 0x33C3 PUSH1 0x1F DUP5 ADD PUSH1 0x1F NOT AND PUSH1 0x20 ADD DUP6 PUSH2 0x3289 JUMP JUMPDEST DUP3 DUP5 MSTORE PUSH1 0x20 DUP4 DUP4 ADD ADD GT PUSH2 0x1AE JUMPI DUP2 PUSH1 0x0 SWAP3 PUSH1 0x20 DUP1 SWAP4 ADD DUP4 DUP7 ADD CALLDATACOPY DUP4 ADD ADD MSTORE SWAP1 JUMP JUMPDEST PUSH1 0x24 CALLDATALOAD SWAP1 PUSH1 0x1 PUSH1 0x1 PUSH1 0xA0 SHL SUB DUP3 AND DUP3 SUB PUSH2 0x1AE JUMPI JUMP JUMPDEST SWAP1 PUSH1 0x40 PUSH1 0x3 NOT DUP4 ADD SLT PUSH2 0x1AE JUMPI PUSH1 0x4 CALLDATALOAD SWAP2 PUSH1 0x24 CALLDATALOAD SWAP1 PUSH1 0x1 PUSH1 0x1 PUSH1 0x40 SHL SUB DUP3 GT PUSH2 0x1AE JUMPI PUSH2 0x342A SWAP2 PUSH1 0x4 ADD PUSH2 0x338F JUMP JUMPDEST SWAP1 JUMP JUMPDEST DUP1 SLOAD DUP3 LT ISZERO PUSH2 0x3449 JUMPI PUSH1 0x0 MSTORE PUSH1 0x3 PUSH1 0x20 PUSH1 0x0 KECCAK256 SWAP2 MUL ADD SWAP1 PUSH1 0x0 SWAP1 JUMP JUMPDEST PUSH4 0x4E487B71 PUSH1 0xE0 SHL PUSH1 0x0 MSTORE PUSH1 0x32 PUSH1 0x4 MSTORE PUSH1 0x24 PUSH1 0x0 REVERT JUMPDEST SWAP1 PUSH1 0x80 PUSH1 0x3 NOT DUP4 ADD SLT PUSH2 0x1AE JUMPI PUSH1 0x4 CALLDATALOAD SWAP2 PUSH1 0x24 CALLDATALOAD PUSH1 0x1 PUSH1 0x1 PUSH1 0xA0 SHL SUB DUP2 AND DUP2 SUB PUSH2 0x1AE JUMPI SWAP2 PUSH1 0x44 CALLDATALOAD SWAP2 PUSH1 0x64 CALLDATALOAD SWAP1 PUSH1 0x1 PUSH1 0x1 PUSH1 0x40 SHL SUB DUP3 GT PUSH2 0x1AE JUMPI PUSH2 0x342A SWAP2 PUSH1 0x4 ADD PUSH2 0x338F JUMP JUMPDEST PUSH1 0x60 SWAP1 PUSH1 0x3 NOT ADD SLT PUSH2 0x1AE JUMPI PUSH1 0x4 CALLDATALOAD SWAP1 PUSH1 0x24 CALLDATALOAD PUSH1 0x1 PUSH1 0x1 PUSH1 0xA0 SHL SUB DUP2 AND DUP2 SUB PUSH2 0x1AE JUMPI SWAP1 PUSH1 0x44 CALLDATALOAD PUSH1 0x1 PUSH1 0x1 PUSH1 0xA0 SHL SUB DUP2 AND DUP2 SUB PUSH2 0x1AE JUMPI SWAP1 JUMP JUMPDEST PUSH1 0x40 SWAP1 PUSH1 0x3 NOT ADD SLT PUSH2 0x1AE JUMPI PUSH1 0x4 CALLDATALOAD SWAP1 PUSH1 0x24 CALLDATALOAD SWAP1 JUMP JUMPDEST DUP1 SLOAD DUP3 LT ISZERO PUSH2 0x3449 JUMPI PUSH1 0x0 MSTORE PUSH1 0x20 PUSH1 0x0 KECCAK256 ADD SWAP1 PUSH1 0x0 SWAP1 JUMP JUMPDEST PUSH1 0x7 DUP2 LT ISZERO PUSH2 0x3527 JUMPI PUSH1 0x0 MSTORE PUSH1 0x1 PUSH1 0x20 MSTORE PUSH1 0x40 PUSH1 0x0 KECCAK256 SWAP1 JUMP JUMPDEST PUSH4 0x4E487B71 PUSH1 0xE0 SHL PUSH1 0x0 MSTORE PUSH1 0x21 PUSH1 0x4 MSTORE PUSH1 0x24 PUSH1 0x0 REVERT JUMPDEST SWAP1 PUSH1 0x7 DUP3 LT ISZERO PUSH2 0x3527 JUMPI MSTORE JUMP JUMPDEST PUSH1 0x0 NOT DUP2 EQ PUSH2 0x1F2E JUMPI PUSH1 0x1 ADD SWAP1 JUMP JUMPDEST SWAP1 PUSH1 0x3 DUP2 LT ISZERO PUSH2 0x3449 JUMPI PUSH1 0x5 SHL ADD SWAP1 JUMP JUMPDEST DUP1 SLOAD PUSH1 0x1 PUSH1 0x40 SHL DUP2 LT ISZERO PUSH2 0xDE4 JUMPI PUSH2 0x3587 SWAP2 PUSH1 0x1 DUP3 ADD DUP2 SSTORE PUSH2 0x34F6 JUMP JUMPDEST DUP2 SLOAD PUSH1 0x1 PUSH1 0x1 PUSH1 0xA0 SHL SUB SWAP4 DUP5 AND PUSH1 0x3 SWAP3 SWAP1 SWAP3 SHL SWAP2 DUP3 SHL SWAP4 SWAP1 SWAP2 SHL NOT AND SWAP2 SWAP1 SWAP2 OR SWAP1 SSTORE JUMP JUMPDEST PUSH1 0x1 PUSH1 0x1 PUSH1 0xA0 SHL SUB SWAP1 SWAP2 AND DUP2 MSTORE PUSH1 0x40 DUP2 ADD SWAP3 SWAP2 PUSH2 0x32E3 SWAP2 PUSH1 0x20 ADD SWAP1 PUSH2 0x353D JUMP JUMPDEST ISZERO PUSH2 0x35D2 JUMPI JUMP JUMPDEST PUSH1 0x40 MLOAD PUSH3 0x461BCD PUSH1 0xE5 SHL DUP2 MSTORE PUSH1 0x20 PUSH1 0x4 DUP3 ADD MSTORE PUSH1 0x13 PUSH1 0x24 DUP3 ADD MSTORE PUSH19 0x10DBDB5B5D5B9A5D1E481A5CC818DB1BDCD959 PUSH1 0x6A SHL PUSH1 0x44 DUP3 ADD MSTORE PUSH1 0x64 SWAP1 REVERT JUMPDEST ISZERO PUSH2 0x3614 JUMPI JUMP JUMPDEST PUSH1 0x40 MLOAD PUSH3 0x461BCD PUSH1 0xE5 SHL DUP2 MSTORE PUSH1 0x20 PUSH1 0x4 DUP3 ADD MSTORE PUSH1 0xE PUSH1 0x24 DUP3 ADD MSTORE PUSH14 0x105B1C9958591E4818DB1BDCD959 PUSH1 0x92 SHL PUSH1 0x44 DUP3 ADD MSTORE PUSH1 0x64 SWAP1 REVERT JUMPDEST ISZERO PUSH2 0x3651 JUMPI JUMP JUMPDEST PUSH1 0x40 MLOAD PUSH3 0x461BCD PUSH1 0xE5 SHL DUP2 MSTORE PUSH1 0x20 PUSH1 0x4 DUP3 ADD MSTORE PUSH1 0xD PUSH1 0x24 DUP3 ADD MSTORE PUSH13 0x105B1C9958591E481D9BDD1959 PUSH1 0x9A SHL PUSH1 0x44 DUP3 ADD MSTORE PUSH1 0x64 SWAP1 REVERT JUMPDEST SWAP1 DUP2 PUSH1 0x20 SWAP2 SUB SLT PUSH2 0x1AE JUMPI MLOAD DUP1 ISZERO ISZERO DUP2 SUB PUSH2 0x1AE JUMPI SWAP1 JUMP JUMPDEST ISZERO PUSH2 0x36A5 JUMPI JUMP JUMPDEST PUSH1 0x40 MLOAD PUSH3 0x461BCD PUSH1 0xE5 SHL DUP2 MSTORE PUSH1 0x20 PUSH1 0x4 DUP3 ADD MSTORE PUSH1 0x1F PUSH1 0x24 DUP3 ADD MSTORE PUSH32 0x53636F7265206D757374206265206265747765656E203020616E642031303000 PUSH1 0x44 DUP3 ADD MSTORE PUSH1 0x64 SWAP1 REVERT JUMPDEST SWAP2 SWAP1 DUP3 ADD DUP1 SWAP3 GT PUSH2 0x1F2E JUMPI JUMP JUMPDEST DUP2 ISZERO PUSH2 0x3701 JUMPI DIV SWAP1 JUMP JUMPDEST PUSH4 0x4E487B71 PUSH1 0xE0 SHL PUSH1 0x0 MSTORE PUSH1 0x12 PUSH1 0x4 MSTORE PUSH1 0x24 PUSH1 0x0 REVERT JUMPDEST SWAP2 SWAP1 DUP3 SUB SWAP2 DUP3 GT PUSH2 0x1F2E JUMPI JUMP JUMPDEST DUP1 PUSH1 0x0 MSTORE PUSH1 0x8 PUSH1 0x20 MSTORE PUSH1 0x40 PUSH1 0x0 KECCAK256 SWAP1 DUP1 PUSH1 0x0 MSTORE PUSH1 0xA PUSH1 0x20 MSTORE PUSH1 0x40 PUSH1 0x0 KECCAK256 SLOAD DUP1 ISZERO PUSH2 0x3812 JUMPI PUSH1 0xB DUP4 ADD SWAP2 PUSH2 0x375F PUSH1 0xC DUP5 SLOAD SWAP6 ADD SWAP5 DUP6 SLOAD SWAP1 PUSH2 0x36EA JUMP JUMPDEST DUP1 ISZERO PUSH2 0x380B JUMPI DUP3 PUSH2 0x376F SWAP2 PUSH2 0x36F7 JUMP JUMPDEST SWAP1 PUSH1 0x0 JUMPDEST DUP4 DUP2 LT PUSH2 0x3787 JUMPI POP POP POP POP SWAP1 PUSH1 0x0 DUP1 SWAP3 SSTORE SSTORE JUMP JUMPDEST DUP2 PUSH1 0x0 MSTORE PUSH1 0xA PUSH1 0x20 MSTORE DUP3 PUSH2 0x379F DUP3 PUSH1 0x40 PUSH1 0x0 KECCAK256 PUSH2 0x34F6 JUMP JUMPDEST SWAP1 SLOAD PUSH1 0x0 DUP6 DUP2 MSTORE PUSH1 0x9 PUSH1 0x20 SWAP1 DUP2 MSTORE PUSH1 0x40 DUP1 DUP4 KECCAK256 PUSH1 0x3 SWAP6 SWAP1 SWAP6 SHL SWAP4 SWAP1 SWAP4 SHR PUSH1 0x1 PUSH1 0x1 PUSH1 0xA0 SHL SUB AND DUP1 DUP4 MSTORE SWAP4 SWAP1 MSTORE KECCAK256 PUSH1 0x1 ADD SLOAD PUSH1 0x8 SHR PUSH1 0xFF AND ISZERO PUSH2 0x37E6 JUMPI JUMPDEST POP POP PUSH1 0x1 ADD PUSH2 0x3773 JUMP JUMPDEST PUSH1 0x0 DUP1 DUP1 SWAP4 DUP2 SWAP4 DUP3 DUP3 ISZERO PUSH2 0x3802 JUMPI JUMPDEST CALL ISZERO PUSH2 0xE66 JUMPI DUP3 CODESIZE PUSH2 0x37DC JUMP JUMPDEST POP PUSH2 0x8FC PUSH2 0x37F5 JUMP JUMPDEST POP POP POP POP POP JUMP JUMPDEST POP POP POP JUMP INVALID LOG2 PUSH5 0x6970667358 0x22 SLT KECCAK256 0xE0 0xC9 0xA6 CALLVALUE 0x24 0xD4 SWAP8 0x4B SWAP14 CALLVALUE 0xB1 0x28 EXP 0xA8 0xDD DUP5 EXTCODESIZE 0x1F BLOBHASH DUP9 0xCE 0x27 SWAP10 0xDC LOG3 RETURNDATASIZE SELFBALANCE 0xC2 DUP3 SELFDESTRUCT EXTCODESIZE KECCAK256 PUSH5 0x736F6C6343 STOP ADDMOD SHR STOP CALLER "},"methodIdentifiers":{"STAKE_AMOUNT()":"faf5625f","categoryExists(uint8)":"b51bcc0e","categoryNames(uint256)":"784940c5","claimReward(uint256)":"ae169a50","closeCommunityByAuthor(uint256)":"ed571f06","communities(uint256)":"e590b56a","communityCount()":"aee84613","communityEncryptionKey(uint256)":"0427bdf1","communityToken()":"29aa1617","createCommunity(string,string,string,uint256,uint256,uint256,uint256,uint256,uint8)":"1fa4a560","encryptedDecryptionKeys(uint256,address)":"3f0db812","encryptedKeysCount(uint256)":"1214ee66","getCategoryName(uint8)":"3f9a61e0","getMemberCount(uint256)":"5ce9284f","getMemberStatus(uint256,address)":"26e98b8b","getReviewersLength(uint256)":"7dcec09f","getScores(uint256,address)":"87a6280f","hasGeneratedKeys(uint256)":"7a37128c","hasReviewerVoted(uint256,address,address)":"88c52d7c","hasSenatorScored(uint256,address,address)":"fa95cefb","joinCommunity(uint256)":"b122a0ef","memberAddresses(uint256,uint256)":"b7800e53","memberScores(uint256,address,uint256)":"44d02881","members(uint256,address)":"bb1895c8","proposeCloseCommunity(uint256)":"2c90365b","reviewerApprovals(uint256,address,address)":"676eeee5","reviewerScore(uint256,address,uint256,string)":"d42f02d1","reviewers(uint256,uint256)":"8fd0f3b4","senateAuditScore(uint256,address,uint256,string)":"5130084a","senateContract()":"5d85fa18","setCommunityKeys(uint256,string)":"f2509ad5","setEncryptedDecryptionKey(uint256,address,string,bool)":"55e6a6db","submitCompletion(uint256,string)":"2ae2b664","voteForClose(uint256,bool)":"2c9342de"}}}}}