{"contracts/CommunityTypes.sol":{"CommunityTypes":{"abi":[{"inputs":[],"stateMutability":"nonpayable","type":"constructor"},{"inputs":[{"internalType":"enum CommunityTypes.Category","name":"","type":"uint8"}],"name":"categoryExists","outputs":[{"internalType":"bool","name":"","type":"bool"}],"stateMutability":"view","type":"function"},{"inputs":[{"internalType":"uint256","name":"","type":"uint256"}],"name":"categoryNames","outputs":[{"internalType":"string","name":"","type":"string"}],"stateMutability":"view","type":"function"},{"inputs":[{"internalType":"enum CommunityTypes.Category","name":"_category","type":"uint8"}],"name":"getCategoryName","outputs":[{"internalType":"string","name":"","type":"string"}],"stateMutability":"view","type":"function"}],"evm":{"bytecode":{"linkReferences":{},"object":"60806040523461030e57600080526000602052604060002061002a6100248254610313565b8261034d565b600a644d7573696360d81b019055600160009081526020527fada5013122d395ba3c54772283fb069b10426056ef8ca54750cb9bb552a59e7d805461006e90610313565b601f81116102e1575b50600662105c9d60ea1b019055600260009081526020527fabbb5caa7dda850e60932de0934eb1f9d0f59695050f761dc64e443e5030a56980546100ba90610313565b601f81116102b4575b50600c6553706f72747360d01b019055600360009081526020527f101e368776582e57ab3d116ffe2517c0a585cd5b23174b01e275c2d8329c3d83805461010990610313565b601f8111610287575b507f456475636174696f6e00000000000000000000000000000000000000000000129055600460009081526020527f52d75039926638d3c558b2bdefb945d5be8dae29dedd1c313212a4d472d9fde5805461016c90610313565b601f811161025a575b507f546563686e6f6c6f6779000000000000000000000000000000000000000000149055600560009081526020527f2b232c97452f0950c94e2539fdc7e69d21166113cf7a9bcb99b220a3fe5d720a80546101d39061002490610313565b600a6427ba3432b960d91b01905560005b60058111156101fc576040516102d990816103848239f35b60068110156102445760406000828152600160205220600160ff19825416179055600019811461022e576001016101e4565b634e487b7160e01b600052601160045260246000fd5b634e487b7160e01b600052602160045260246000fd5b81600052601f6020600020910160051c8101905b81811061027b5750610175565b6000815560010161026e565b81600052601f6020600020910160051c8101905b8181106102a85750610112565b6000815560010161029b565b81600052601f6020600020910160051c8101905b8181106102d557506100c3565b600081556001016102c8565b81600052601f6020600020910160051c8101905b8181106103025750610077565b600081556001016102f5565b600080fd5b90600182811c92168015610343575b602083101461032d57565b634e487b7160e01b600052602260045260246000fd5b91607f1691610322565b601f8211610359575050565b600052601f6020600020910160051c8101905b818110610377575050565b6000815560010161036c56fe6080604052600436101561001257600080fd5b60003560e01c80633f9a61e0146100b4578063784940c5146100785763b51bcc0e1461003d57600080fd5b346100735760203660031901126100735760043560068110156100735760ff610067602092610274565b54166040519015158152f35b600080fd5b346100735760203660031901126100735760043560005260006020526100b06100a46040600020610189565b60405191829182610140565b0390f35b346100735760203660031901126100735760043560068110156100735760ff6100dc82610274565b5416156100fb5760005260006020526100b06100a46040600020610189565b60405162461bcd60e51b815260206004820152601760248201527f43617465676f727920646f6573206e6f742065786973740000000000000000006044820152606490fd5b91909160208152825180602083015260005b818110610173575060409293506000838284010152601f8019910116010190565b8060208092870101516040828601015201610152565b90604051916000908054908160011c9160018116801561026a575b6020841081146102565783875290811561023857506001146101fd575b5050829003601f01601f1916820167ffffffffffffffff8111838210176101e757604052565b634e487b7160e01b600052604160045260246000fd5b90915060005260206000206000905b82821061022257506020915083010138806101c1565b600181602092548385890101520191019061020c565b9150506020925060ff191682850152151560051b83010138806101c1565b634e487b7160e01b85526022600452602485fd5b92607f16926101a4565b600681101561028d576000526001602052604060002090565b634e487b7160e01b600052602160045260246000fdfea2646970667358221220abf85897fe06dcd220f3537d9fbd8542635a02ae7e0f93e83fbccf1e0c3465d164736f6c634300081c0033","opcodes":"PUSH1 0x80 PUSH1 0x40 MSTORE CALLVALUE PUSH2 0x30E JUMPI PUSH1 0x0 DUP1 MSTORE PUSH1 0x0 PUSH1 0x20 MSTORE PUSH1 0x40 PUSH1 0x0 KECCAK256 PUSH2 0x2A PUSH2 0x24 DUP3 SLOAD PUSH2 0x313 JUMP JUMPDEST DUP3 PUSH2 0x34D JUMP JUMPDEST PUSH1 0xA PUSH5 0x4D75736963 PUSH1 0xD8 SHL ADD SWAP1 SSTORE PUSH1 0x1 PUSH1 0x0 SWAP1 DUP2 MSTORE PUSH1 0x20 MSTORE PUSH32 0xADA5013122D395BA3C54772283FB069B10426056EF8CA54750CB9BB552A59E7D DUP1 SLOAD PUSH2 0x6E SWAP1 PUSH2 0x313 JUMP JUMPDEST PUSH1 0x1F DUP2 GT PUSH2 0x2E1 JUMPI JUMPDEST POP PUSH1 0x6 PUSH3 0x105C9D PUSH1 0xEA SHL ADD SWAP1 SSTORE PUSH1 0x2 PUSH1 0x0 SWAP1 DUP2 MSTORE PUSH1 0x20 MSTORE PUSH32 0xABBB5CAA7DDA850E60932DE0934EB1F9D0F59695050F761DC64E443E5030A569 DUP1 SLOAD PUSH2 0xBA SWAP1 PUSH2 0x313 JUMP JUMPDEST PUSH1 0x1F DUP2 GT PUSH2 0x2B4 JUMPI JUMPDEST POP PUSH1 0xC PUSH6 0x53706F727473 PUSH1 0xD0 SHL ADD SWAP1 SSTORE PUSH1 0x3 PUSH1 0x0 SWAP1 DUP2 MSTORE PUSH1 0x20 MSTORE PUSH32 0x101E368776582E57AB3D116FFE2517C0A585CD5B23174B01E275C2D8329C3D83 DUP1 SLOAD PUSH2 0x109 SWAP1 PUSH2 0x313 JUMP JUMPDEST PUSH1 0x1F DUP2 GT PUSH2 0x287 JUMPI JUMPDEST POP PUSH32 0x456475636174696F6E0000000000000000000000000000000000000000000012 SWAP1 SSTORE PUSH1 0x4 PUSH1 0x0 SWAP1 DUP2 MSTORE PUSH1 0x20 MSTORE PUSH32 0x52D75039926638D3C558B2BDEFB945D5BE8DAE29DEDD1C313212A4D472D9FDE5 DUP1 SLOAD PUSH2 0x16C SWAP1 PUSH2 0x313 JUMP JUMPDEST PUSH1 0x1F DUP2 GT PUSH2 0x25A JUMPI JUMPDEST POP PUSH32 0x546563686E6F6C6F677900000000000000000000000000000000000000000014 SWAP1 SSTORE PUSH1 0x5 PUSH1 0x0 SWAP1 DUP2 MSTORE PUSH1 0x20 MSTORE PUSH32 0x2B232C97452F0950C94E2539FDC7E69D21166113CF7A9BCB99B220A3FE5D720A DUP1 SLOAD PUSH2 0x1D3 SWAP1 PUSH2 0x24 SWAP1 PUSH2 0x313 JUMP JUMPDEST PUSH1 0xA PUSH5 0x27BA3432B9 PUSH1 0xD9 SHL ADD SWAP1 SSTORE PUSH1 0x0 JUMPDEST PUSH1 0x5 DUP2 GT ISZERO PUSH2 0x1FC JUMPI PUSH1 0x40 MLOAD PUSH2 0x2D9 SWAP1 DUP2 PUSH2 0x384 DUP3 CODECOPY RETURN JUMPDEST PUSH1 0x6 DUP2 LT ISZERO PUSH2 0x244 JUMPI PUSH1 0x40 PUSH1 0x0 DUP3 DUP2 MSTORE PUSH1 0x1 PUSH1 0x20 MSTORE KECCAK256 PUSH1 0x1 PUSH1 0xFF NOT DUP3 SLOAD AND OR SWAP1 SSTORE PUSH1 0x0 NOT DUP2 EQ PUSH2 0x22E JUMPI PUSH1 0x1 ADD PUSH2 0x1E4 JUMP JUMPDEST PUSH4 0x4E487B71 PUSH1 0xE0 SHL PUSH1 0x0 MSTORE PUSH1 0x11 PUSH1 0x4 MSTORE PUSH1 0x24 PUSH1 0x0 REVERT JUMPDEST PUSH4 0x4E487B71 PUSH1 0xE0 SHL PUSH1 0x0 MSTORE PUSH1 0x21 PUSH1 0x4 MSTORE PUSH1 0x24 PUSH1 0x0 REVERT JUMPDEST DUP2 PUSH1 0x0 MSTORE PUSH1 0x1F PUSH1 0x20 PUSH1 0x0 KECCAK256 SWAP2 ADD PUSH1 0x5 SHR DUP2 ADD SWAP1 JUMPDEST DUP2 DUP2 LT PUSH2 0x27B JUMPI POP PUSH2 0x175 JUMP JUMPDEST PUSH1 0x0 DUP2 SSTORE PUSH1 0x1 ADD PUSH2 0x26E JUMP JUMPDEST DUP2 PUSH1 0x0 MSTORE PUSH1 0x1F PUSH1 0x20 PUSH1 0x0 KECCAK256 SWAP2 ADD PUSH1 0x5 SHR DUP2 ADD SWAP1 JUMPDEST DUP2 DUP2 LT PUSH2 0x2A8 JUMPI POP PUSH2 0x112 JUMP JUMPDEST PUSH1 0x0 DUP2 SSTORE PUSH1 0x1 ADD PUSH2 0x29B JUMP JUMPDEST DUP2 PUSH1 0x0 MSTORE PUSH1 0x1F PUSH1 0x20 PUSH1 0x0 KECCAK256 SWAP2 ADD PUSH1 0x5 SHR DUP2 ADD SWAP1 JUMPDEST DUP2 DUP2 LT PUSH2 0x2D5 JUMPI POP PUSH2 0xC3 JUMP JUMPDEST PUSH1 0x0 DUP2 SSTORE PUSH1 0x1 ADD PUSH2 0x2C8 JUMP JUMPDEST DUP2 PUSH1 0x0 MSTORE PUSH1 0x1F PUSH1 0x20 PUSH1 0x0 KECCAK256 SWAP2 ADD PUSH1 0x5 SHR DUP2 ADD SWAP1 JUMPDEST DUP2 DUP2 LT PUSH2 0x302 JUMPI POP PUSH2 0x77 JUMP JUMPDEST PUSH1 0x0 DUP2 SSTORE PUSH1 0x1 ADD PUSH2 0x2F5 JUMP JUMPDEST PUSH1 0x0 DUP1 REVERT JUMPDEST SWAP1 PUSH1 0x1 DUP3 DUP2 SHR SWAP3 AND DUP1 ISZERO PUSH2 0x343 JUMPI JUMPDEST PUSH1 0x20 DUP4 LT EQ PUSH2 0x32D JUMPI JUMP JUMPDEST PUSH4 0x4E487B71 PUSH1 0xE0 SHL PUSH1 0x0 MSTORE PUSH1 0x22 PUSH1 0x4 MSTORE PUSH1 0x24 PUSH1 0x0 REVERT JUMPDEST SWAP2 PUSH1 0x7F AND SWAP2 PUSH2 0x322 JUMP JUMPDEST PUSH1 0x1F DUP3 GT PUSH2 0x359 JUMPI POP POP JUMP JUMPDEST PUSH1 0x0 MSTORE PUSH1 0x1F PUSH1 0x20 PUSH1 0x0 KECCAK256 SWAP2 ADD PUSH1 0x5 SHR DUP2 ADD SWAP1 JUMPDEST DUP2 DUP2 LT PUSH2 0x377 JUMPI POP POP JUMP JUMPDEST PUSH1 0x0 DUP2 SSTORE PUSH1 0x1 ADD PUSH2 0x36C JUMP INVALID PUSH1 0x80 PUSH1 0x40 MSTORE PUSH1 0x4 CALLDATASIZE LT ISZERO PUSH2 0x12 JUMPI PUSH1 0x0 DUP1 REVERT JUMPDEST PUSH1 0x0 CALLDATALOAD PUSH1 0xE0 SHR DUP1 PUSH4 0x3F9A61E0 EQ PUSH2 0xB4 JUMPI DUP1 PUSH4 0x784940C5 EQ PUSH2 0x78 JUMPI PUSH4 0xB51BCC0E EQ PUSH2 0x3D JUMPI PUSH1 0x0 DUP1 REVERT JUMPDEST CALLVALUE PUSH2 0x73 JUMPI PUSH1 0x20 CALLDATASIZE PUSH1 0x3 NOT ADD SLT PUSH2 0x73 JUMPI PUSH1 0x4 CALLDATALOAD PUSH1 0x6 DUP2 LT ISZERO PUSH2 0x73 JUMPI PUSH1 0xFF PUSH2 0x67 PUSH1 0x20 SWAP3 PUSH2 0x274 JUMP JUMPDEST SLOAD AND PUSH1 0x40 MLOAD SWAP1 ISZERO ISZERO DUP2 MSTORE RETURN JUMPDEST PUSH1 0x0 DUP1 REVERT JUMPDEST CALLVALUE PUSH2 0x73 JUMPI PUSH1 0x20 CALLDATASIZE PUSH1 0x3 NOT ADD SLT PUSH2 0x73 JUMPI PUSH1 0x4 CALLDATALOAD PUSH1 0x0 MSTORE PUSH1 0x0 PUSH1 0x20 MSTORE PUSH2 0xB0 PUSH2 0xA4 PUSH1 0x40 PUSH1 0x0 KECCAK256 PUSH2 0x189 JUMP JUMPDEST PUSH1 0x40 MLOAD SWAP2 DUP3 SWAP2 DUP3 PUSH2 0x140 JUMP JUMPDEST SUB SWAP1 RETURN JUMPDEST CALLVALUE PUSH2 0x73 JUMPI PUSH1 0x20 CALLDATASIZE PUSH1 0x3 NOT ADD SLT PUSH2 0x73 JUMPI PUSH1 0x4 CALLDATALOAD PUSH1 0x6 DUP2 LT ISZERO PUSH2 0x73 JUMPI PUSH1 0xFF PUSH2 0xDC DUP3 PUSH2 0x274 JUMP JUMPDEST SLOAD AND ISZERO PUSH2 0xFB JUMPI PUSH1 0x0 MSTORE PUSH1 0x0 PUSH1 0x20 MSTORE PUSH2 0xB0 PUSH2 0xA4 PUSH1 0x40 PUSH1 0x0 KECCAK256 PUSH2 0x189 JUMP JUMPDEST PUSH1 0x40 MLOAD PUSH3 0x461BCD PUSH1 0xE5 SHL DUP2 MSTORE PUSH1 0x20 PUSH1 0x4 DUP3 ADD MSTORE PUSH1 0x17 PUSH1 0x24 DUP3 ADD MSTORE PUSH32 0x43617465676F727920646F6573206E6F74206578697374000000000000000000 PUSH1 0x44 DUP3 ADD MSTORE PUSH1 0x64 SWAP1 REVERT JUMPDEST SWAP2 SWAP1 SWAP2 PUSH1 0x20 DUP2 MSTORE DUP3 MLOAD DUP1 PUSH1 0x20 DUP4 ADD MSTORE PUSH1 0x0 JUMPDEST DUP2 DUP2 LT PUSH2 0x173 JUMPI POP PUSH1 0x40 SWAP3 SWAP4 POP PUSH1 0x0 DUP4 DUP3 DUP5 ADD ADD MSTORE PUSH1 0x1F DUP1 NOT SWAP2 ADD AND ADD ADD SWAP1 JUMP JUMPDEST DUP1 PUSH1 0x20 DUP1 SWAP3 DUP8 ADD ADD MLOAD PUSH1 0x40 DUP3 DUP7 ADD ADD MSTORE ADD PUSH2 0x152 JUMP JUMPDEST SWAP1 PUSH1 0x40 MLOAD SWAP2 PUSH1 0x0 SWAP1 DUP1 SLOAD SWAP1 DUP2 PUSH1 0x1 SHR SWAP2 PUSH1 0x1 DUP2 AND DUP1 ISZERO PUSH2 0x26A JUMPI JUMPDEST PUSH1 0x20 DUP5 LT DUP2 EQ PUSH2 0x256 JUMPI DUP4 DUP8 MSTORE SWAP1 DUP2 ISZERO PUSH2 0x238 JUMPI POP PUSH1 0x1 EQ PUSH2 0x1FD JUMPI JUMPDEST POP POP DUP3 SWAP1 SUB PUSH1 0x1F ADD PUSH1 0x1F NOT AND DUP3 ADD PUSH8 0xFFFFFFFFFFFFFFFF DUP2 GT DUP4 DUP3 LT OR PUSH2 0x1E7 JUMPI PUSH1 0x40 MSTORE JUMP JUMPDEST PUSH4 0x4E487B71 PUSH1 0xE0 SHL PUSH1 0x0 MSTORE PUSH1 0x41 PUSH1 0x4 MSTORE PUSH1 0x24 PUSH1 0x0 REVERT JUMPDEST SWAP1 SWAP2 POP PUSH1 0x0 MSTORE PUSH1 0x20 PUSH1 0x0 KECCAK256 PUSH1 0x0 SWAP1 JUMPDEST DUP3 DUP3 LT PUSH2 0x222 JUMPI POP PUSH1 0x20 SWAP2 POP DUP4 ADD ADD CODESIZE DUP1 PUSH2 0x1C1 JUMP JUMPDEST PUSH1 0x1 DUP2 PUSH1 0x20 SWAP3 SLOAD DUP4 DUP6 DUP10 ADD ADD MSTORE ADD SWAP2 ADD SWAP1 PUSH2 0x20C JUMP JUMPDEST SWAP2 POP POP PUSH1 0x20 SWAP3 POP PUSH1 0xFF NOT AND DUP3 DUP6 ADD MSTORE ISZERO ISZERO PUSH1 0x5 SHL DUP4 ADD ADD CODESIZE DUP1 PUSH2 0x1C1 JUMP JUMPDEST PUSH4 0x4E487B71 PUSH1 0xE0 SHL DUP6 MSTORE PUSH1 0x22 PUSH1 0x4 MSTORE PUSH1 0x24 DUP6 REVERT JUMPDEST SWAP3 PUSH1 0x7F AND SWAP3 PUSH2 0x1A4 JUMP JUMPDEST PUSH1 0x6 DUP2 LT ISZERO PUSH2 0x28D JUMPI PUSH1 0x0 MSTORE PUSH1 0x1 PUSH1 0x20 MSTORE PUSH1 0x40 PUSH1 0x0 KECCAK256 SWAP1 JUMP JUMPDEST PUSH4 0x4E487B71 PUSH1 0xE0 SHL PUSH1 0x0 MSTORE PUSH1 0x21 PUSH1 0x4 MSTORE PUSH1 0x24 PUSH1 0x0 REVERT INVALID LOG2 PUSH5 0x6970667358 0x22 SLT KECCAK256 0xAB 0xF8 PC SWAP8 INVALID MOD 0xDC 0xD2 KECCAK256 RETURN MSTORE8 PUSH30 0x9FBD8542635A02AE7E0F93E83FBCCF1E0C3465D164736F6C634300081C00 CALLER "},"methodIdentifiers":{"categoryExists(uint8)":"b51bcc0e","categoryNames(uint256)":"784940c5","getCategoryName(uint8)":"3f9a61e0"}}}}}