{"contracts/Lock.sol":{"Lock":{"abi":[{"inputs":[{"internalType":"address","name":"_tokenAddress","type":"address"},{"internalType":"address","name":"_communityAddress","type":"address"}],"stateMutability":"nonpayable","type":"constructor"},{"anonymous":false,"inputs":[{"indexed":true,"internalType":"address","name":"user","type":"address"},{"indexed":true,"internalType":"uint256","name":"communityId","type":"uint256"},{"indexed":false,"internalType":"uint256","name":"amount","type":"uint256"}],"name":"TokensStaked","type":"event"},{"anonymous":false,"inputs":[{"indexed":true,"internalType":"address","name":"user","type":"address"},{"indexed":true,"internalType":"uint256","name":"communityId","type":"uint256"},{"indexed":false,"internalType":"uint256","name":"amount","type":"uint256"}],"name":"TokensUnstaked","type":"event"},{"inputs":[],"name":"communityContract","outputs":[{"internalType":"contract GoalOrientedCommunity","name":"","type":"address"}],"stateMutability":"view","type":"function"},{"inputs":[{"internalType":"uint256","name":"_communityId","type":"uint256"},{"internalType":"uint256","name":"_amount","type":"uint256"}],"name":"stake","outputs":[],"stateMutability":"nonpayable","type":"function"},{"inputs":[{"internalType":"address","name":"","type":"address"}],"name":"stakes","outputs":[{"internalType":"uint256","name":"communityId","type":"uint256"},{"internalType":"uint256","name":"amount","type":"uint256"},{"internalType":"uint256","name":"timestamp","type":"uint256"}],"stateMutability":"view","type":"function"},{"inputs":[],"name":"stakingToken","outputs":[{"internalType":"contract IERC20","name":"","type":"address"}],"stateMutability":"view","type":"function"},{"inputs":[],"name":"unstake","outputs":[],"stateMutability":"nonpayable","type":"function"}],"evm":{"bytecode":{"linkReferences":{},"object":"608034608657601f61062638819003918201601f19168301916001600160401b03831184841017608b578084926040948552833981010312608657604b602060458360a1565b920160a1565b600080546001600160a01b039384166001600160a01b0319918216179091556001805492909316911617905560405161057190816100b58239f35b600080fd5b634e487b7160e01b600052604160045260246000fd5b51906001600160a01b038216820360865756fe608080604052600436101561001357600080fd5b60003560e01c90816316934fc41461047b575080632def66201461028557806372f702f31461025c5780637b0472f01461008457638e6340291461005657600080fd5b3461007f57600036600319011261007f576001546040516001600160a01b039091168152602090f35b600080fd5b3461007f57604036600319011261007f576004356024358015610217573360005260026020526001604060002001546101e157600080546040516323b872dd60e01b8152336004820152306024820152604481018490529160209183916064918391906001600160a01b03165af180156101d55760009061019a575b61010a91506104fd565b6040516060810181811067ffffffffffffffff8211176101845760405282815260026020820183815260408301904282523360005282602052604060002093518455516001840155519101556040519081527fdd2a19c3bdd089cbe77c04f5655f83de0504d6140d12c8667646f55d0557c4dc60203392a3005b634e487b7160e01b600052604160045260246000fd5b506020813d6020116101cd575b816101b4602093836104ce565b8101031261007f576101c861010a916104f0565b610100565b3d91506101a7565b6040513d6000823e3d90fd5b60405162461bcd60e51b815260206004820152600e60248201526d105b1c9958591e481cdd185ad95960921b6044820152606490fd5b60405162461bcd60e51b815260206004820152601d60248201527f416d6f756e74206d7573742062652067726561746572207468616e20300000006044820152606490fd5b3461007f57600036600319011261007f576000546040516001600160a01b039091168152602090f35b3461007f57600036600319011261007f57336000526002602052604060002060018101548015610445576001549154604080516326e98b8b60e01b8152600481018390523360248201529193829060449082906001600160a01b03165afa9081156101d5576000916103fe575b50156103c457336000526002602052600060026040822082815582600182015501556000602060018060a01b0382541660446040518094819363a9059cbb60e01b83523360048401528760248401525af180156101d557600090610389575b61035b91506104fd565b6040519081527f6f2d3e000c89d37446b7c0374c0125068ff316d1e3ee302336478a8cd03c233660203392a3005b506020813d6020116103bc575b816103a3602093836104ce565b8101031261007f576103b761035b916104f0565b610351565b3d9150610396565b60405162461bcd60e51b815260206004820152601260248201527115185cdac81b9bdd0818dbdb5c1b195d195960721b6044820152606490fd5b90506040813d60401161043d575b81610419604093836104ce565b8101031261007f57602081610430610437936104f0565b50016104f0565b836102f2565b3d915061040c565b60405162461bcd60e51b815260206004820152600e60248201526d139bc81cdd185ad948199bdd5b9960921b6044820152606490fd5b3461007f57602036600319011261007f576004356001600160a01b038116919082900361007f57606091600052600260205260406000208054906002600182015491015491835260208301526040820152f35b90601f8019910116810190811067ffffffffffffffff82111761018457604052565b5190811515820361007f57565b1561050457565b60405162461bcd60e51b815260206004820152600f60248201526e151c985b9cd9995c8819985a5b1959608a1b6044820152606490fdfea26469706673582212201945d110a8541845083e13c6e496572dd34814eeeaea773837512d801aa4bd8664736f6c634300081c0033","opcodes":"PUSH1 0x80 CALLVALUE PUSH1 0x86 JUMPI PUSH1 0x1F PUSH2 0x626 CODESIZE DUP2 SWAP1 SUB SWAP2 DUP3 ADD PUSH1 0x1F NOT AND DUP4 ADD SWAP2 PUSH1 0x1 PUSH1 0x1 PUSH1 0x40 SHL SUB DUP4 GT DUP5 DUP5 LT OR PUSH1 0x8B JUMPI DUP1 DUP5 SWAP3 PUSH1 0x40 SWAP5 DUP6 MSTORE DUP4 CODECOPY DUP2 ADD SUB SLT PUSH1 0x86 JUMPI PUSH1 0x4B PUSH1 0x20 PUSH1 0x45 DUP4 PUSH1 0xA1 JUMP JUMPDEST SWAP3 ADD PUSH1 0xA1 JUMP JUMPDEST PUSH1 0x0 DUP1 SLOAD PUSH1 0x1 PUSH1 0x1 PUSH1 0xA0 SHL SUB SWAP4 DUP5 AND PUSH1 0x1 PUSH1 0x1 PUSH1 0xA0 SHL SUB NOT SWAP2 DUP3 AND OR SWAP1 SWAP2 SSTORE PUSH1 0x1 DUP1 SLOAD SWAP3 SWAP1 SWAP4 AND SWAP2 AND OR SWAP1 SSTORE PUSH1 0x40 MLOAD PUSH2 0x571 SWAP1 DUP2 PUSH2 0xB5 DUP3 CODECOPY RETURN JUMPDEST PUSH1 0x0 DUP1 REVERT JUMPDEST PUSH4 0x4E487B71 PUSH1 0xE0 SHL PUSH1 0x0 MSTORE PUSH1 0x41 PUSH1 0x4 MSTORE PUSH1 0x24 PUSH1 0x0 REVERT JUMPDEST MLOAD SWAP1 PUSH1 0x1 PUSH1 0x1 PUSH1 0xA0 SHL SUB DUP3 AND DUP3 SUB PUSH1 0x86 JUMPI JUMP INVALID PUSH1 0x80 DUP1 PUSH1 0x40 MSTORE PUSH1 0x4 CALLDATASIZE LT ISZERO PUSH2 0x13 JUMPI PUSH1 0x0 DUP1 REVERT JUMPDEST PUSH1 0x0 CALLDATALOAD PUSH1 0xE0 SHR SWAP1 DUP2 PUSH4 0x16934FC4 EQ PUSH2 0x47B JUMPI POP DUP1 PUSH4 0x2DEF6620 EQ PUSH2 0x285 JUMPI DUP1 PUSH4 0x72F702F3 EQ PUSH2 0x25C JUMPI DUP1 PUSH4 0x7B0472F0 EQ PUSH2 0x84 JUMPI PUSH4 0x8E634029 EQ PUSH2 0x56 JUMPI PUSH1 0x0 DUP1 REVERT JUMPDEST CALLVALUE PUSH2 0x7F JUMPI PUSH1 0x0 CALLDATASIZE PUSH1 0x3 NOT ADD SLT PUSH2 0x7F JUMPI PUSH1 0x1 SLOAD PUSH1 0x40 MLOAD PUSH1 0x1 PUSH1 0x1 PUSH1 0xA0 SHL SUB SWAP1 SWAP2 AND DUP2 MSTORE PUSH1 0x20 SWAP1 RETURN JUMPDEST PUSH1 0x0 DUP1 REVERT JUMPDEST CALLVALUE PUSH2 0x7F JUMPI PUSH1 0x40 CALLDATASIZE PUSH1 0x3 NOT ADD SLT PUSH2 0x7F JUMPI PUSH1 0x4 CALLDATALOAD PUSH1 0x24 CALLDATALOAD DUP1 ISZERO PUSH2 0x217 JUMPI CALLER PUSH1 0x0 MSTORE PUSH1 0x2 PUSH1 0x20 MSTORE PUSH1 0x1 PUSH1 0x40 PUSH1 0x0 KECCAK256 ADD SLOAD PUSH2 0x1E1 JUMPI PUSH1 0x0 DUP1 SLOAD PUSH1 0x40 MLOAD PUSH4 0x23B872DD PUSH1 0xE0 SHL DUP2 MSTORE CALLER PUSH1 0x4 DUP3 ADD MSTORE ADDRESS PUSH1 0x24 DUP3 ADD MSTORE PUSH1 0x44 DUP2 ADD DUP5 SWAP1 MSTORE SWAP2 PUSH1 0x20 SWAP2 DUP4 SWAP2 PUSH1 0x64 SWAP2 DUP4 SWAP2 SWAP1 PUSH1 0x1 PUSH1 0x1 PUSH1 0xA0 SHL SUB AND GAS CALL DUP1 ISZERO PUSH2 0x1D5 JUMPI PUSH1 0x0 SWAP1 PUSH2 0x19A JUMPI JUMPDEST PUSH2 0x10A SWAP2 POP PUSH2 0x4FD JUMP JUMPDEST PUSH1 0x40 MLOAD PUSH1 0x60 DUP2 ADD DUP2 DUP2 LT PUSH8 0xFFFFFFFFFFFFFFFF DUP3 GT OR PUSH2 0x184 JUMPI PUSH1 0x40 MSTORE DUP3 DUP2 MSTORE PUSH1 0x2 PUSH1 0x20 DUP3 ADD DUP4 DUP2 MSTORE PUSH1 0x40 DUP4 ADD SWAP1 TIMESTAMP DUP3 MSTORE CALLER PUSH1 0x0 MSTORE DUP3 PUSH1 0x20 MSTORE PUSH1 0x40 PUSH1 0x0 KECCAK256 SWAP4 MLOAD DUP5 SSTORE MLOAD PUSH1 0x1 DUP5 ADD SSTORE MLOAD SWAP2 ADD SSTORE PUSH1 0x40 MLOAD SWAP1 DUP2 MSTORE PUSH32 0xDD2A19C3BDD089CBE77C04F5655F83DE0504D6140D12C8667646F55D0557C4DC PUSH1 0x20 CALLER SWAP3 LOG3 STOP JUMPDEST PUSH4 0x4E487B71 PUSH1 0xE0 SHL PUSH1 0x0 MSTORE PUSH1 0x41 PUSH1 0x4 MSTORE PUSH1 0x24 PUSH1 0x0 REVERT JUMPDEST POP PUSH1 0x20 DUP2 RETURNDATASIZE PUSH1 0x20 GT PUSH2 0x1CD JUMPI JUMPDEST DUP2 PUSH2 0x1B4 PUSH1 0x20 SWAP4 DUP4 PUSH2 0x4CE JUMP JUMPDEST DUP2 ADD SUB SLT PUSH2 0x7F JUMPI PUSH2 0x1C8 PUSH2 0x10A SWAP2 PUSH2 0x4F0 JUMP JUMPDEST PUSH2 0x100 JUMP JUMPDEST RETURNDATASIZE SWAP2 POP PUSH2 0x1A7 JUMP JUMPDEST PUSH1 0x40 MLOAD RETURNDATASIZE PUSH1 0x0 DUP3 RETURNDATACOPY RETURNDATASIZE SWAP1 REVERT JUMPDEST PUSH1 0x40 MLOAD PUSH3 0x461BCD PUSH1 0xE5 SHL DUP2 MSTORE PUSH1 0x20 PUSH1 0x4 DUP3 ADD MSTORE PUSH1 0xE PUSH1 0x24 DUP3 ADD MSTORE PUSH14 0x105B1C9958591E481CDD185AD959 PUSH1 0x92 SHL PUSH1 0x44 DUP3 ADD MSTORE PUSH1 0x64 SWAP1 REVERT JUMPDEST PUSH1 0x40 MLOAD PUSH3 0x461BCD PUSH1 0xE5 SHL DUP2 MSTORE PUSH1 0x20 PUSH1 0x4 DUP3 ADD MSTORE PUSH1 0x1D PUSH1 0x24 DUP3 ADD MSTORE PUSH32 0x416D6F756E74206D7573742062652067726561746572207468616E2030000000 PUSH1 0x44 DUP3 ADD MSTORE PUSH1 0x64 SWAP1 REVERT JUMPDEST CALLVALUE PUSH2 0x7F JUMPI PUSH1 0x0 CALLDATASIZE PUSH1 0x3 NOT ADD SLT PUSH2 0x7F JUMPI PUSH1 0x0 SLOAD PUSH1 0x40 MLOAD PUSH1 0x1 PUSH1 0x1 PUSH1 0xA0 SHL SUB SWAP1 SWAP2 AND DUP2 MSTORE PUSH1 0x20 SWAP1 RETURN JUMPDEST CALLVALUE PUSH2 0x7F JUMPI PUSH1 0x0 CALLDATASIZE PUSH1 0x3 NOT ADD SLT PUSH2 0x7F JUMPI CALLER PUSH1 0x0 MSTORE PUSH1 0x2 PUSH1 0x20 MSTORE PUSH1 0x40 PUSH1 0x0 KECCAK256 PUSH1 0x1 DUP2 ADD SLOAD DUP1 ISZERO PUSH2 0x445 JUMPI PUSH1 0x1 SLOAD SWAP2 SLOAD PUSH1 0x40 DUP1 MLOAD PUSH4 0x26E98B8B PUSH1 0xE0 SHL DUP2 MSTORE PUSH1 0x4 DUP2 ADD DUP4 SWAP1 MSTORE CALLER PUSH1 0x24 DUP3 ADD MSTORE SWAP2 SWAP4 DUP3 SWAP1 PUSH1 0x44 SWAP1 DUP3 SWAP1 PUSH1 0x1 PUSH1 0x1 PUSH1 0xA0 SHL SUB AND GAS STATICCALL SWAP1 DUP2 ISZERO PUSH2 0x1D5 JUMPI PUSH1 0x0 SWAP2 PUSH2 0x3FE JUMPI JUMPDEST POP ISZERO PUSH2 0x3C4 JUMPI CALLER PUSH1 0x0 MSTORE PUSH1 0x2 PUSH1 0x20 MSTORE PUSH1 0x0 PUSH1 0x2 PUSH1 0x40 DUP3 KECCAK256 DUP3 DUP2 SSTORE DUP3 PUSH1 0x1 DUP3 ADD SSTORE ADD SSTORE PUSH1 0x0 PUSH1 0x20 PUSH1 0x1 DUP1 PUSH1 0xA0 SHL SUB DUP3 SLOAD AND PUSH1 0x44 PUSH1 0x40 MLOAD DUP1 SWAP5 DUP2 SWAP4 PUSH4 0xA9059CBB PUSH1 0xE0 SHL DUP4 MSTORE CALLER PUSH1 0x4 DUP5 ADD MSTORE DUP8 PUSH1 0x24 DUP5 ADD MSTORE GAS CALL DUP1 ISZERO PUSH2 0x1D5 JUMPI PUSH1 0x0 SWAP1 PUSH2 0x389 JUMPI JUMPDEST PUSH2 0x35B SWAP2 POP PUSH2 0x4FD JUMP JUMPDEST PUSH1 0x40 MLOAD SWAP1 DUP2 MSTORE PUSH32 0x6F2D3E000C89D37446B7C0374C0125068FF316D1E3EE302336478A8CD03C2336 PUSH1 0x20 CALLER SWAP3 LOG3 STOP JUMPDEST POP PUSH1 0x20 DUP2 RETURNDATASIZE PUSH1 0x20 GT PUSH2 0x3BC JUMPI JUMPDEST DUP2 PUSH2 0x3A3 PUSH1 0x20 SWAP4 DUP4 PUSH2 0x4CE JUMP JUMPDEST DUP2 ADD SUB SLT PUSH2 0x7F JUMPI PUSH2 0x3B7 PUSH2 0x35B SWAP2 PUSH2 0x4F0 JUMP JUMPDEST PUSH2 0x351 JUMP JUMPDEST RETURNDATASIZE SWAP2 POP PUSH2 0x396 JUMP JUMPDEST PUSH1 0x40 MLOAD PUSH3 0x461BCD PUSH1 0xE5 SHL DUP2 MSTORE PUSH1 0x20 PUSH1 0x4 DUP3 ADD MSTORE PUSH1 0x12 PUSH1 0x24 DUP3 ADD MSTORE PUSH18 0x15185CDAC81B9BDD0818DBDB5C1B195D1959 PUSH1 0x72 SHL PUSH1 0x44 DUP3 ADD MSTORE PUSH1 0x64 SWAP1 REVERT JUMPDEST SWAP1 POP PUSH1 0x40 DUP2 RETURNDATASIZE PUSH1 0x40 GT PUSH2 0x43D JUMPI JUMPDEST DUP2 PUSH2 0x419 PUSH1 0x40 SWAP4 DUP4 PUSH2 0x4CE JUMP JUMPDEST DUP2 ADD SUB SLT PUSH2 0x7F JUMPI PUSH1 0x20 DUP2 PUSH2 0x430 PUSH2 0x437 SWAP4 PUSH2 0x4F0 JUMP JUMPDEST POP ADD PUSH2 0x4F0 JUMP JUMPDEST DUP4 PUSH2 0x2F2 JUMP JUMPDEST RETURNDATASIZE SWAP2 POP PUSH2 0x40C JUMP JUMPDEST PUSH1 0x40 MLOAD PUSH3 0x461BCD PUSH1 0xE5 SHL DUP2 MSTORE PUSH1 0x20 PUSH1 0x4 DUP3 ADD MSTORE PUSH1 0xE PUSH1 0x24 DUP3 ADD MSTORE PUSH14 0x139BC81CDD185AD948199BDD5B99 PUSH1 0x92 SHL PUSH1 0x44 DUP3 ADD MSTORE PUSH1 0x64 SWAP1 REVERT JUMPDEST CALLVALUE PUSH2 0x7F JUMPI PUSH1 0x20 CALLDATASIZE PUSH1 0x3 NOT ADD SLT PUSH2 0x7F JUMPI PUSH1 0x4 CALLDATALOAD PUSH1 0x1 PUSH1 0x1 PUSH1 0xA0 SHL SUB DUP2 AND SWAP2 SWAP1 DUP3 SWAP1 SUB PUSH2 0x7F JUMPI PUSH1 0x60 SWAP2 PUSH1 0x0 MSTORE PUSH1 0x2 PUSH1 0x20 MSTORE PUSH1 0x40 PUSH1 0x0 KECCAK256 DUP1 SLOAD SWAP1 PUSH1 0x2 PUSH1 0x1 DUP3 ADD SLOAD SWAP2 ADD SLOAD SWAP2 DUP4 MSTORE PUSH1 0x20 DUP4 ADD MSTORE PUSH1 0x40 DUP3 ADD MSTORE RETURN JUMPDEST SWAP1 PUSH1 0x1F DUP1 NOT SWAP2 ADD AND DUP2 ADD SWAP1 DUP2 LT PUSH8 0xFFFFFFFFFFFFFFFF DUP3 GT OR PUSH2 0x184 JUMPI PUSH1 0x40 MSTORE JUMP JUMPDEST MLOAD SWAP1 DUP2 ISZERO ISZERO DUP3 SUB PUSH2 0x7F JUMPI JUMP JUMPDEST ISZERO PUSH2 0x504 JUMPI JUMP JUMPDEST PUSH1 0x40 MLOAD PUSH3 0x461BCD PUSH1 0xE5 SHL DUP2 MSTORE PUSH1 0x20 PUSH1 0x4 DUP3 ADD MSTORE PUSH1 0xF PUSH1 0x24 DUP3 ADD MSTORE PUSH15 0x151C985B9CD9995C8819985A5B1959 PUSH1 0x8A SHL PUSH1 0x44 DUP3 ADD MSTORE PUSH1 0x64 SWAP1 REVERT INVALID LOG2 PUSH5 0x6970667358 0x22 SLT KECCAK256 NOT GASLIMIT 0xD1 LT 0xA8 SLOAD XOR GASLIMIT ADDMOD RETURNDATACOPY SGT 0xC6 0xE4 SWAP7 JUMPI 0x2D 0xD3 BASEFEE EQ 0xEE 0xEA 0xEA PUSH24 0x3837512D801AA4BD8664736F6C634300081C003300000000 "},"methodIdentifiers":{"communityContract()":"8e634029","stake(uint256,uint256)":"7b0472f0","stakes(address)":"16934fc4","stakingToken()":"72f702f3","unstake()":"2def6620"}}}}}