{"contracts/Senate.sol":{"Senate":{"abi":[{"inputs":[],"stateMutability":"nonpayable","type":"constructor"},{"anonymous":false,"inputs":[{"indexed":true,"internalType":"enum CommunityTypes.Category","name":"category","type":"uint8"},{"indexed":false,"internalType":"uint256","name":"newScore","type":"uint256"}],"name":"MinPassScoreUpdated","type":"event"},{"anonymous":false,"inputs":[{"indexed":true,"internalType":"enum CommunityTypes.Category","name":"category","type":"uint8"},{"indexed":true,"internalType":"address","name":"senator","type":"address"}],"name":"SenatorElected","type":"event"},{"anonymous":false,"inputs":[{"indexed":true,"internalType":"enum CommunityTypes.Category","name":"category","type":"uint8"},{"indexed":true,"internalType":"address","name":"senator","type":"address"}],"name":"SenatorRetired","type":"event"},{"anonymous":false,"inputs":[{"indexed":true,"internalType":"enum CommunityTypes.Category","name":"category","type":"uint8"},{"indexed":true,"internalType":"address","name":"voter","type":"address"},{"indexed":true,"internalType":"address","name":"candidate","type":"address"}],"name":"VoteCast","type":"event"},{"inputs":[{"internalType":"enum CommunityTypes.Category","name":"","type":"uint8"}],"name":"categoryExists","outputs":[{"internalType":"bool","name":"","type":"bool"}],"stateMutability":"view","type":"function"},{"inputs":[{"internalType":"uint256","name":"","type":"uint256"}],"name":"categoryNames","outputs":[{"internalType":"string","name":"","type":"string"}],"stateMutability":"view","type":"function"},{"inputs":[{"internalType":"enum CommunityTypes.Category","name":"_category","type":"uint8"}],"name":"getActiveSenatorCount","outputs":[{"internalType":"uint256","name":"","type":"uint256"}],"stateMutability":"view","type":"function"},{"inputs":[{"internalType":"enum CommunityTypes.Category","name":"_category","type":"uint8"}],"name":"getCategoryName","outputs":[{"internalType":"string","name":"","type":"string"}],"stateMutability":"view","type":"function"},{"inputs":[{"internalType":"enum CommunityTypes.Category","name":"_category","type":"uint8"}],"name":"getMinPassScore","outputs":[{"internalType":"uint256","name":"","type":"uint256"}],"stateMutability":"view","type":"function"},{"inputs":[{"internalType":"enum CommunityTypes.Category","name":"","type":"uint8"},{"internalType":"address","name":"","type":"address"}],"name":"hasVoted","outputs":[{"internalType":"bool","name":"","type":"bool"}],"stateMutability":"view","type":"function"},{"inputs":[{"internalType":"address","name":"_addr","type":"address"},{"internalType":"enum CommunityTypes.Category","name":"_category","type":"uint8"}],"name":"isSenator","outputs":[{"internalType":"bool","name":"","type":"bool"}],"stateMutability":"view","type":"function"},{"inputs":[{"internalType":"enum CommunityTypes.Category","name":"_category","type":"uint8"}],"name":"nominate","outputs":[],"stateMutability":"nonpayable","type":"function"},{"inputs":[{"internalType":"enum CommunityTypes.Category","name":"","type":"uint8"}],"name":"senateConfigs","outputs":[{"internalType":"uint256","name":"minPassScore","type":"uint256"},{"internalType":"uint256","name":"termDuration","type":"uint256"},{"internalType":"uint256","name":"minVotesToElect","type":"uint256"},{"internalType":"uint256","name":"maxSenators","type":"uint256"}],"stateMutability":"view","type":"function"},{"inputs":[{"internalType":"address","name":"","type":"address"}],"name":"senatorCategories","outputs":[{"internalType":"enum CommunityTypes.Category","name":"","type":"uint8"}],"stateMutability":"view","type":"function"},{"inputs":[{"internalType":"enum CommunityTypes.Category","name":"","type":"uint8"},{"internalType":"uint256","name":"","type":"uint256"}],"name":"senators","outputs":[{"internalType":"address","name":"addr","type":"address"},{"internalType":"uint256","name":"votes","type":"uint256"},{"internalType":"uint256","name":"startTime","type":"uint256"},{"internalType":"uint256","name":"endTime","type":"uint256"},{"internalType":"bool","name":"active","type":"bool"}],"stateMutability":"view","type":"function"},{"inputs":[{"internalType":"enum CommunityTypes.Category","name":"_category","type":"uint8"},{"internalType":"uint256","name":"_newScore","type":"uint256"}],"name":"updateMinPassScore","outputs":[],"stateMutability":"nonpayable","type":"function"},{"inputs":[{"internalType":"enum CommunityTypes.Category","name":"_category","type":"uint8"},{"internalType":"address","name":"_candidate","type":"address"}],"name":"vote","outputs":[],"stateMutability":"nonpayable","type":"function"},{"inputs":[{"internalType":"enum CommunityTypes.Category","name":"","type":"uint8"},{"internalType":"address","name":"","type":"address"}],"name":"votedFor","outputs":[{"internalType":"address","name":"","type":"address"}],"stateMutability":"view","type":"function"}],"evm":{"bytecode":{"linkReferences":{},"object":"60806040523461038e57600080526000602052604060002061002a61002482546103b8565b826103f2565b600a644d7573696360d81b019055600160009081526020527fada5013122d395ba3c54772283fb069b10426056ef8ca54750cb9bb552a59e7d805461006e906103b8565b601f8111610361575b50600662105c9d60ea1b019055600260009081526020527fabbb5caa7dda850e60932de0934eb1f9d0f59695050f761dc64e443e5030a56980546100ba906103b8565b601f8111610334575b50600c6553706f72747360d01b019055600360009081526020527f101e368776582e57ab3d116ffe2517c0a585cd5b23174b01e275c2d8329c3d838054610109906103b8565b601f8111610307575b507f456475636174696f6e00000000000000000000000000000000000000000000129055600460009081526020527f52d75039926638d3c558b2bdefb945d5be8dae29dedd1c313212a4d472d9fde5805461016c906103b8565b601f81116102da575b507f546563686e6f6c6f6779000000000000000000000000000000000000000000149055600560009081526020527f2b232c97452f0950c94e2539fdc7e69d21166113cf7a9bcb99b220a3fe5d720a80546101d390610024906103b8565b600a6427ba3432b960d91b01905560005b60058111156102ab5760005b600581111561020857604051610dc090816104298239f35b6006811015610295576040516080810191906001600160401b0383118184101761027f5761027a926040526046815260036020820162ed4e0081526040830160648152606084019160058352604060008781526002602052209451855551600185015551600284015551910155610393565b6101f0565b634e487b7160e01b600052604160045260246000fd5b634e487b7160e01b600052602160045260246000fd5b6006811015610295576102d59060406000828152600160205220600160ff19825416179055610393565b6101e4565b81600052601f6020600020910160051c8101905b8181106102fb5750610175565b600081556001016102ee565b81600052601f6020600020910160051c8101905b8181106103285750610112565b6000815560010161031b565b81600052601f6020600020910160051c8101905b81811061035557506100c3565b60008155600101610348565b81600052601f6020600020910160051c8101905b8181106103825750610077565b60008155600101610375565b600080fd5b60001981146103a25760010190565b634e487b7160e01b600052601160045260246000fd5b90600182811c921680156103e8575b60208310146103d257565b634e487b7160e01b600052602260045260246000fd5b91607f16916103c7565b601f82116103fe575050565b600052601f6020600020910160051c8101905b81811061041c575050565b6000815560010161041156fe6080604052600436101561001257600080fd5b60003560e01c80631ce87ebb14610a4f57806335d335af1461096e5780633a60a0511461091b5780633e293a6c146108ac5780633f9a61e0146108205780634e2ad8ea146106365780635f167487146105f9578063784940c5146105bd57806387288440146105815780638a1943fd146104f1578063b51bcc0e146104bb578063b81c645314610153578063eb2f1610146101175763ee0d70f4146100b657600080fd5b34610112576020366003190112610112576001600160a01b036100d7610b97565b16600052600460205260ff6040600020541660405160068210156100fc576020918152f35b634e487b7160e01b600052602160045260246000fd5b600080fd5b3461011257604036600319011261011257610130610b97565b6024359060068210156101125760209161014991610d00565b6040519015158152f35b346101125761016136610bad565b61016a82610b03565b336000908152602091909152604090205460ff16610486576001600160a01b03169033821461044a5761019c81610ab8565b90600091825b815481101561044257846101b68284610b1c565b50546001600160a01b0316146101ce576001016101a2565b9192508060016101df848094610b1c565b50016101eb8154610cf1565b90556101fa6001938492610b1c565b500154600261020885610a9f565b015411156102d2575b505b156102975761022181610b03565b33600090815260209190915260409020805460ff1916600117905561024581610aea565b3360009081526020919091526040902080546001600160a01b0319168317905560068110156100fc5733907f8084d6c9657cf625aabd090126fedbc9f3db46379d9518f9591cc324bfa8e62b600080a4005b60405162461bcd60e51b815260206004820152601360248201527210d85b991a59185d19481b9bdd08199bdd5b99606a1b6044820152606490fd5b6102e4906102df84610ab8565b610b1c565b506004810180546102f860ff821615610cb1565b60008481815b6103f7575b5050600361031087610a9f565b015411156103bb5760ff1916831790554260028201558161033084610a9f565b015442018042116103a557600382015580546001600160a01b0316600090815260046020526040902060068410156100fc57805460ff191660ff8516179055546001600160a01b0316827ff969f9b89705fe938fd03aaf3f2b546c05fa9212d04edc8753388de4409d1863600080a383610211565b634e487b7160e01b600052601160045260246000fd5b60405162461bcd60e51b815260206004820152601460248201527313585e081cd95b985d1bdc9cc81c995858da195960621b6044820152606490fd5b61040088610ab8565b5481101561043d5760ff6004610419836102df8c610ab8565b5001541661042a575b8101816102fe565b916104358291610cf1565b929050610422565b610303565b505090610213565b60405162461bcd60e51b815260206004820152601460248201527321b0b73737ba103b37ba32903337b91039b2b63360611b6044820152606490fd5b60405162461bcd60e51b815260206004820152600d60248201526c105b1c9958591e481d9bdd1959609a1b6044820152606490fd5b346101125760203660031901126101125760043560068110156101125760ff6104e5602092610ad1565b54166040519015158152f35b3461011257602036600319011261011257600435600681101561011257610519600091610ab8565b80549060005b82811061053157602084604051908152f35b60ff600461053f8385610b1c565b500154168061056a575b610556575b60010161051f565b92610562600191610cf1565b93905061054e565b5060036105778284610b1c565b5001544210610549565b346101125761059961059236610bad565b9190610b03565b9060018060a01b0316600052602052602060ff604060002054166040519015158152f35b346101125760203660031901126101125760043560005260006020526105f56105e96040600020610bdc565b60405191829182610b4e565b0390f35b346101125761061161060a36610bad565b9190610aea565b6001600160a01b03918216600090815260209182526040908190205490519216825290f35b346101125760203660031901126101125760043560068110156101125760ff61065e82610ad1565b5416156107e85733600052600460205260ff604060002054169060068210156100fc5761068e6106939215610cb1565b610ab8565b80549060005b82811061078c57506040519060a0820182811067ffffffffffffffff821117610776576040523382526020820190600082526040830160008152606084019160008352608085019560008752680100000000000000008110156107765761070591600182018155610b1c565b9390936107605760049460018060a01b039060018060a01b03905116166bffffffffffffffffffffffff60a01b855416178455516001840155516002830155516003820155019051151560ff80198354169116179055600080f35b634e487b7160e01b600052600060045260246000fd5b634e487b7160e01b600052604160045260246000fd5b6107968183610b1c565b50546001600160a01b031633146107af57600101610699565b60405162461bcd60e51b8152602060048201526011602482015270105b1c9958591e481b9bdb5a5b985d1959607a1b6044820152606490fd5b60405162461bcd60e51b815260206004820152601060248201526f496e76616c69642063617465676f727960801b6044820152606490fd5b346101125760203660031901126101125760043560068110156101125760ff61084882610ad1565b5416156108675760005260006020526105f56105e96040600020610bdc565b60405162461bcd60e51b815260206004820152601760248201527f43617465676f727920646f6573206e6f742065786973740000000000000000006044820152606490fd5b34610112576108c46108bd36610a80565b9190610ab8565b80548210156101125760a0916108d991610b1c565b50600180831b0381541690600181015490600281015460ff60046003840154930154169260405194855260208501526040840152606083015215156080820152f35b3461011257602036600319011261011257600435600681101561011257610943608091610a9f565b8054906001810154906003600282015491015491604051938452602084015260408301526060820152f35b346101125761097c36610a80565b6109868233610d00565b15610a1a5780151580610a0f575b156109da57806109a383610a9f565b5560068210156100fc5760207fbb28b82677b93f9743c8cb95950ca0ad87f5ca3d90bbb90bcb80f530208189b591604051908152a2005b60405162461bcd60e51b815260206004820152600d60248201526c496e76616c69642073636f726560981b6044820152606490fd5b506064811115610994565b60405162461bcd60e51b815260206004820152600d60248201526c2737ba10309039b2b730ba37b960991b6044820152606490fd5b3461011257602036600319011261011257600435600681101561011257610a77602091610a9f565b54604051908152f35b6040906003190112610112576004356006811015610112579060243590565b60068110156100fc576000526002602052604060002090565b60068110156100fc576000526003602052604060002090565b60068110156100fc576000526001602052604060002090565b60068110156100fc576000526006602052604060002090565b60068110156100fc576000526005602052604060002090565b8054821015610b38576000526005602060002091020190600090565b634e487b7160e01b600052603260045260246000fd5b91909160208152825180602083015260005b818110610b81575060409293506000838284010152601f8019910116010190565b8060208092870101516040828601015201610b60565b600435906001600160a01b038216820361011257565b604090600319011261011257600435600681101561011257906024356001600160a01b03811681036101125790565b90604051916000908054908160011c91600181168015610ca7575b602084108114610c9357838752908115610c755750600114610c3a575b5050829003601f01601f1916820167ffffffffffffffff81118382101761077657604052565b90915060005260206000206000905b828210610c5f5750602091508301013880610c14565b6001816020925483858901015201910190610c49565b9150506020925060ff191682850152151560051b8301013880610c14565b634e487b7160e01b85526022600452602485fd5b92607f1692610bf7565b15610cb857565b60405162461bcd60e51b815260206004820152601160248201527020b63932b0b23c90309039b2b730ba37b960791b6044820152606490fd5b60001981146103a55760010190565b90610d0a90610ab8565b80549160005b838110610d205750505050600090565b610d2a8184610b1c565b50546001600160a01b0383811691161480610d72575b80610d5b575b610d5257600101610d10565b50505050600190565b506003610d688285610b1c565b5001544210610d46565b5060ff6004610d818386610b1c565b50015416610d4056fea26469706673582212200ed701c5768751b38b909d183b30ffac07158ed3d4938ead1ad38e5c0d81e15764736f6c634300081c0033","opcodes":"PUSH1 0x80 PUSH1 0x40 MSTORE CALLVALUE PUSH2 0x38E JUMPI PUSH1 0x0 DUP1 MSTORE PUSH1 0x0 PUSH1 0x20 MSTORE PUSH1 0x40 PUSH1 0x0 KECCAK256 PUSH2 0x2A PUSH2 0x24 DUP3 SLOAD PUSH2 0x3B8 JUMP JUMPDEST DUP3 PUSH2 0x3F2 JUMP JUMPDEST PUSH1 0xA PUSH5 0x4D75736963 PUSH1 0xD8 SHL ADD SWAP1 SSTORE PUSH1 0x1 PUSH1 0x0 SWAP1 DUP2 MSTORE PUSH1 0x20 MSTORE PUSH32 0xADA5013122D395BA3C54772283FB069B10426056EF8CA54750CB9BB552A59E7D DUP1 SLOAD PUSH2 0x6E SWAP1 PUSH2 0x3B8 JUMP JUMPDEST PUSH1 0x1F DUP2 GT PUSH2 0x361 JUMPI JUMPDEST POP PUSH1 0x6 PUSH3 0x105C9D PUSH1 0xEA SHL ADD SWAP1 SSTORE PUSH1 0x2 PUSH1 0x0 SWAP1 DUP2 MSTORE PUSH1 0x20 MSTORE PUSH32 0xABBB5CAA7DDA850E60932DE0934EB1F9D0F59695050F761DC64E443E5030A569 DUP1 SLOAD PUSH2 0xBA SWAP1 PUSH2 0x3B8 JUMP JUMPDEST PUSH1 0x1F DUP2 GT PUSH2 0x334 JUMPI JUMPDEST POP PUSH1 0xC PUSH6 0x53706F727473 PUSH1 0xD0 SHL ADD SWAP1 SSTORE PUSH1 0x3 PUSH1 0x0 SWAP1 DUP2 MSTORE PUSH1 0x20 MSTORE PUSH32 0x101E368776582E57AB3D116FFE2517C0A585CD5B23174B01E275C2D8329C3D83 DUP1 SLOAD PUSH2 0x109 SWAP1 PUSH2 0x3B8 JUMP JUMPDEST PUSH1 0x1F DUP2 GT PUSH2 0x307 JUMPI JUMPDEST POP PUSH32 0x456475636174696F6E0000000000000000000000000000000000000000000012 SWAP1 SSTORE PUSH1 0x4 PUSH1 0x0 SWAP1 DUP2 MSTORE PUSH1 0x20 MSTORE PUSH32 0x52D75039926638D3C558B2BDEFB945D5BE8DAE29DEDD1C313212A4D472D9FDE5 DUP1 SLOAD PUSH2 0x16C SWAP1 PUSH2 0x3B8 JUMP JUMPDEST PUSH1 0x1F DUP2 GT PUSH2 0x2DA JUMPI JUMPDEST POP PUSH32 0x546563686E6F6C6F677900000000000000000000000000000000000000000014 SWAP1 SSTORE PUSH1 0x5 PUSH1 0x0 SWAP1 DUP2 MSTORE PUSH1 0x20 MSTORE PUSH32 0x2B232C97452F0950C94E2539FDC7E69D21166113CF7A9BCB99B220A3FE5D720A DUP1 SLOAD PUSH2 0x1D3 SWAP1 PUSH2 0x24 SWAP1 PUSH2 0x3B8 JUMP JUMPDEST PUSH1 0xA PUSH5 0x27BA3432B9 PUSH1 0xD9 SHL ADD SWAP1 SSTORE PUSH1 0x0 JUMPDEST PUSH1 0x5 DUP2 GT ISZERO PUSH2 0x2AB JUMPI PUSH1 0x0 JUMPDEST PUSH1 0x5 DUP2 GT ISZERO PUSH2 0x208 JUMPI PUSH1 0x40 MLOAD PUSH2 0xDC0 SWAP1 DUP2 PUSH2 0x429 DUP3 CODECOPY RETURN JUMPDEST PUSH1 0x6 DUP2 LT ISZERO PUSH2 0x295 JUMPI PUSH1 0x40 MLOAD PUSH1 0x80 DUP2 ADD SWAP2 SWAP1 PUSH1 0x1 PUSH1 0x1 PUSH1 0x40 SHL SUB DUP4 GT DUP2 DUP5 LT OR PUSH2 0x27F JUMPI PUSH2 0x27A SWAP3 PUSH1 0x40 MSTORE PUSH1 0x46 DUP2 MSTORE PUSH1 0x3 PUSH1 0x20 DUP3 ADD PUSH3 0xED4E00 DUP2 MSTORE PUSH1 0x40 DUP4 ADD PUSH1 0x64 DUP2 MSTORE PUSH1 0x60 DUP5 ADD SWAP2 PUSH1 0x5 DUP4 MSTORE PUSH1 0x40 PUSH1 0x0 DUP8 DUP2 MSTORE PUSH1 0x2 PUSH1 0x20 MSTORE KECCAK256 SWAP5 MLOAD DUP6 SSTORE MLOAD PUSH1 0x1 DUP6 ADD SSTORE MLOAD PUSH1 0x2 DUP5 ADD SSTORE MLOAD SWAP2 ADD SSTORE PUSH2 0x393 JUMP JUMPDEST PUSH2 0x1F0 JUMP JUMPDEST PUSH4 0x4E487B71 PUSH1 0xE0 SHL PUSH1 0x0 MSTORE PUSH1 0x41 PUSH1 0x4 MSTORE PUSH1 0x24 PUSH1 0x0 REVERT JUMPDEST PUSH4 0x4E487B71 PUSH1 0xE0 SHL PUSH1 0x0 MSTORE PUSH1 0x21 PUSH1 0x4 MSTORE PUSH1 0x24 PUSH1 0x0 REVERT JUMPDEST PUSH1 0x6 DUP2 LT ISZERO PUSH2 0x295 JUMPI PUSH2 0x2D5 SWAP1 PUSH1 0x40 PUSH1 0x0 DUP3 DUP2 MSTORE PUSH1 0x1 PUSH1 0x20 MSTORE KECCAK256 PUSH1 0x1 PUSH1 0xFF NOT DUP3 SLOAD AND OR SWAP1 SSTORE PUSH2 0x393 JUMP JUMPDEST PUSH2 0x1E4 JUMP JUMPDEST DUP2 PUSH1 0x0 MSTORE PUSH1 0x1F PUSH1 0x20 PUSH1 0x0 KECCAK256 SWAP2 ADD PUSH1 0x5 SHR DUP2 ADD SWAP1 JUMPDEST DUP2 DUP2 LT PUSH2 0x2FB JUMPI POP PUSH2 0x175 JUMP JUMPDEST PUSH1 0x0 DUP2 SSTORE PUSH1 0x1 ADD PUSH2 0x2EE JUMP JUMPDEST DUP2 PUSH1 0x0 MSTORE PUSH1 0x1F PUSH1 0x20 PUSH1 0x0 KECCAK256 SWAP2 ADD PUSH1 0x5 SHR DUP2 ADD SWAP1 JUMPDEST DUP2 DUP2 LT PUSH2 0x328 JUMPI POP PUSH2 0x112 JUMP JUMPDEST PUSH1 0x0 DUP2 SSTORE PUSH1 0x1 ADD PUSH2 0x31B JUMP JUMPDEST DUP2 PUSH1 0x0 MSTORE PUSH1 0x1F PUSH1 0x20 PUSH1 0x0 KECCAK256 SWAP2 ADD PUSH1 0x5 SHR DUP2 ADD SWAP1 JUMPDEST DUP2 DUP2 LT PUSH2 0x355 JUMPI POP PUSH2 0xC3 JUMP JUMPDEST PUSH1 0x0 DUP2 SSTORE PUSH1 0x1 ADD PUSH2 0x348 JUMP JUMPDEST DUP2 PUSH1 0x0 MSTORE PUSH1 0x1F PUSH1 0x20 PUSH1 0x0 KECCAK256 SWAP2 ADD PUSH1 0x5 SHR DUP2 ADD SWAP1 JUMPDEST DUP2 DUP2 LT PUSH2 0x382 JUMPI POP PUSH2 0x77 JUMP JUMPDEST PUSH1 0x0 DUP2 SSTORE PUSH1 0x1 ADD PUSH2 0x375 JUMP JUMPDEST PUSH1 0x0 DUP1 REVERT JUMPDEST PUSH1 0x0 NOT DUP2 EQ PUSH2 0x3A2 JUMPI PUSH1 0x1 ADD SWAP1 JUMP JUMPDEST PUSH4 0x4E487B71 PUSH1 0xE0 SHL PUSH1 0x0 MSTORE PUSH1 0x11 PUSH1 0x4 MSTORE PUSH1 0x24 PUSH1 0x0 REVERT JUMPDEST SWAP1 PUSH1 0x1 DUP3 DUP2 SHR SWAP3 AND DUP1 ISZERO PUSH2 0x3E8 JUMPI JUMPDEST PUSH1 0x20 DUP4 LT EQ PUSH2 0x3D2 JUMPI JUMP JUMPDEST PUSH4 0x4E487B71 PUSH1 0xE0 SHL PUSH1 0x0 MSTORE PUSH1 0x22 PUSH1 0x4 MSTORE PUSH1 0x24 PUSH1 0x0 REVERT JUMPDEST SWAP2 PUSH1 0x7F AND SWAP2 PUSH2 0x3C7 JUMP JUMPDEST PUSH1 0x1F DUP3 GT PUSH2 0x3FE JUMPI POP POP JUMP JUMPDEST PUSH1 0x0 MSTORE PUSH1 0x1F PUSH1 0x20 PUSH1 0x0 KECCAK256 SWAP2 ADD PUSH1 0x5 SHR DUP2 ADD SWAP1 JUMPDEST DUP2 DUP2 LT PUSH2 0x41C JUMPI POP POP JUMP JUMPDEST PUSH1 0x0 DUP2 SSTORE PUSH1 0x1 ADD PUSH2 0x411 JUMP INVALID PUSH1 0x80 PUSH1 0x40 MSTORE PUSH1 0x4 CALLDATASIZE LT ISZERO PUSH2 0x12 JUMPI PUSH1 0x0 DUP1 REVERT JUMPDEST PUSH1 0x0 CALLDATALOAD PUSH1 0xE0 SHR DUP1 PUSH4 0x1CE87EBB EQ PUSH2 0xA4F JUMPI DUP1 PUSH4 0x35D335AF EQ PUSH2 0x96E JUMPI DUP1 PUSH4 0x3A60A051 EQ PUSH2 0x91B JUMPI DUP1 PUSH4 0x3E293A6C EQ PUSH2 0x8AC JUMPI DUP1 PUSH4 0x3F9A61E0 EQ PUSH2 0x820 JUMPI DUP1 PUSH4 0x4E2AD8EA EQ PUSH2 0x636 JUMPI DUP1 PUSH4 0x5F167487 EQ PUSH2 0x5F9 JUMPI DUP1 PUSH4 0x784940C5 EQ PUSH2 0x5BD JUMPI DUP1 PUSH4 0x87288440 EQ PUSH2 0x581 JUMPI DUP1 PUSH4 0x8A1943FD EQ PUSH2 0x4F1 JUMPI DUP1 PUSH4 0xB51BCC0E EQ PUSH2 0x4BB JUMPI DUP1 PUSH4 0xB81C6453 EQ PUSH2 0x153 JUMPI DUP1 PUSH4 0xEB2F1610 EQ PUSH2 0x117 JUMPI PUSH4 0xEE0D70F4 EQ PUSH2 0xB6 JUMPI PUSH1 0x0 DUP1 REVERT JUMPDEST CALLVALUE PUSH2 0x112 JUMPI PUSH1 0x20 CALLDATASIZE PUSH1 0x3 NOT ADD SLT PUSH2 0x112 JUMPI PUSH1 0x1 PUSH1 0x1 PUSH1 0xA0 SHL SUB PUSH2 0xD7 PUSH2 0xB97 JUMP JUMPDEST AND PUSH1 0x0 MSTORE PUSH1 0x4 PUSH1 0x20 MSTORE PUSH1 0xFF PUSH1 0x40 PUSH1 0x0 KECCAK256 SLOAD AND PUSH1 0x40 MLOAD PUSH1 0x6 DUP3 LT ISZERO PUSH2 0xFC JUMPI PUSH1 0x20 SWAP2 DUP2 MSTORE RETURN JUMPDEST PUSH4 0x4E487B71 PUSH1 0xE0 SHL PUSH1 0x0 MSTORE PUSH1 0x21 PUSH1 0x4 MSTORE PUSH1 0x24 PUSH1 0x0 REVERT JUMPDEST PUSH1 0x0 DUP1 REVERT JUMPDEST CALLVALUE PUSH2 0x112 JUMPI PUSH1 0x40 CALLDATASIZE PUSH1 0x3 NOT ADD SLT PUSH2 0x112 JUMPI PUSH2 0x130 PUSH2 0xB97 JUMP JUMPDEST PUSH1 0x24 CALLDATALOAD SWAP1 PUSH1 0x6 DUP3 LT ISZERO PUSH2 0x112 JUMPI PUSH1 0x20 SWAP2 PUSH2 0x149 SWAP2 PUSH2 0xD00 JUMP JUMPDEST PUSH1 0x40 MLOAD SWAP1 ISZERO ISZERO DUP2 MSTORE RETURN JUMPDEST CALLVALUE PUSH2 0x112 JUMPI PUSH2 0x161 CALLDATASIZE PUSH2 0xBAD JUMP JUMPDEST PUSH2 0x16A DUP3 PUSH2 0xB03 JUMP JUMPDEST CALLER PUSH1 0x0 SWAP1 DUP2 MSTORE PUSH1 0x20 SWAP2 SWAP1 SWAP2 MSTORE PUSH1 0x40 SWAP1 KECCAK256 SLOAD PUSH1 0xFF AND PUSH2 0x486 JUMPI PUSH1 0x1 PUSH1 0x1 PUSH1 0xA0 SHL SUB AND SWAP1 CALLER DUP3 EQ PUSH2 0x44A JUMPI PUSH2 0x19C DUP2 PUSH2 0xAB8 JUMP JUMPDEST SWAP1 PUSH1 0x0 SWAP2 DUP3 JUMPDEST DUP2 SLOAD DUP2 LT ISZERO PUSH2 0x442 JUMPI DUP5 PUSH2 0x1B6 DUP3 DUP5 PUSH2 0xB1C JUMP JUMPDEST POP SLOAD PUSH1 0x1 PUSH1 0x1 PUSH1 0xA0 SHL SUB AND EQ PUSH2 0x1CE JUMPI PUSH1 0x1 ADD PUSH2 0x1A2 JUMP JUMPDEST SWAP2 SWAP3 POP DUP1 PUSH1 0x1 PUSH2 0x1DF DUP5 DUP1 SWAP5 PUSH2 0xB1C JUMP JUMPDEST POP ADD PUSH2 0x1EB DUP2 SLOAD PUSH2 0xCF1 JUMP JUMPDEST SWAP1 SSTORE PUSH2 0x1FA PUSH1 0x1 SWAP4 DUP5 SWAP3 PUSH2 0xB1C JUMP JUMPDEST POP ADD SLOAD PUSH1 0x2 PUSH2 0x208 DUP6 PUSH2 0xA9F JUMP JUMPDEST ADD SLOAD GT ISZERO PUSH2 0x2D2 JUMPI JUMPDEST POP JUMPDEST ISZERO PUSH2 0x297 JUMPI PUSH2 0x221 DUP2 PUSH2 0xB03 JUMP JUMPDEST CALLER PUSH1 0x0 SWAP1 DUP2 MSTORE PUSH1 0x20 SWAP2 SWAP1 SWAP2 MSTORE PUSH1 0x40 SWAP1 KECCAK256 DUP1 SLOAD PUSH1 0xFF NOT AND PUSH1 0x1 OR SWAP1 SSTORE PUSH2 0x245 DUP2 PUSH2 0xAEA JUMP JUMPDEST CALLER PUSH1 0x0 SWAP1 DUP2 MSTORE PUSH1 0x20 SWAP2 SWAP1 SWAP2 MSTORE PUSH1 0x40 SWAP1 KECCAK256 DUP1 SLOAD PUSH1 0x1 PUSH1 0x1 PUSH1 0xA0 SHL SUB NOT AND DUP4 OR SWAP1 SSTORE PUSH1 0x6 DUP2 LT ISZERO PUSH2 0xFC JUMPI CALLER SWAP1 PUSH32 0x8084D6C9657CF625AABD090126FEDBC9F3DB46379D9518F9591CC324BFA8E62B PUSH1 0x0 DUP1 LOG4 STOP JUMPDEST PUSH1 0x40 MLOAD PUSH3 0x461BCD PUSH1 0xE5 SHL DUP2 MSTORE PUSH1 0x20 PUSH1 0x4 DUP3 ADD MSTORE PUSH1 0x13 PUSH1 0x24 DUP3 ADD MSTORE PUSH19 0x10D85B991A59185D19481B9BDD08199BDD5B99 PUSH1 0x6A SHL PUSH1 0x44 DUP3 ADD MSTORE PUSH1 0x64 SWAP1 REVERT JUMPDEST PUSH2 0x2E4 SWAP1 PUSH2 0x2DF DUP5 PUSH2 0xAB8 JUMP JUMPDEST PUSH2 0xB1C JUMP JUMPDEST POP PUSH1 0x4 DUP2 ADD DUP1 SLOAD PUSH2 0x2F8 PUSH1 0xFF DUP3 AND ISZERO PUSH2 0xCB1 JUMP JUMPDEST PUSH1 0x0 DUP5 DUP2 DUP2 JUMPDEST PUSH2 0x3F7 JUMPI JUMPDEST POP POP PUSH1 0x3 PUSH2 0x310 DUP8 PUSH2 0xA9F JUMP JUMPDEST ADD SLOAD GT ISZERO PUSH2 0x3BB JUMPI PUSH1 0xFF NOT AND DUP4 OR SWAP1 SSTORE TIMESTAMP PUSH1 0x2 DUP3 ADD SSTORE DUP2 PUSH2 0x330 DUP5 PUSH2 0xA9F JUMP JUMPDEST ADD SLOAD TIMESTAMP ADD DUP1 TIMESTAMP GT PUSH2 0x3A5 JUMPI PUSH1 0x3 DUP3 ADD SSTORE DUP1 SLOAD PUSH1 0x1 PUSH1 0x1 PUSH1 0xA0 SHL SUB AND PUSH1 0x0 SWAP1 DUP2 MSTORE PUSH1 0x4 PUSH1 0x20 MSTORE PUSH1 0x40 SWAP1 KECCAK256 PUSH1 0x6 DUP5 LT ISZERO PUSH2 0xFC JUMPI DUP1 SLOAD PUSH1 0xFF NOT AND PUSH1 0xFF DUP6 AND OR SWAP1 SSTORE SLOAD PUSH1 0x1 PUSH1 0x1 PUSH1 0xA0 SHL SUB AND DUP3 PUSH32 0xF969F9B89705FE938FD03AAF3F2B546C05FA9212D04EDC8753388DE4409D1863 PUSH1 0x0 DUP1 LOG3 DUP4 PUSH2 0x211 JUMP JUMPDEST PUSH4 0x4E487B71 PUSH1 0xE0 SHL PUSH1 0x0 MSTORE PUSH1 0x11 PUSH1 0x4 MSTORE PUSH1 0x24 PUSH1 0x0 REVERT JUMPDEST PUSH1 0x40 MLOAD PUSH3 0x461BCD PUSH1 0xE5 SHL DUP2 MSTORE PUSH1 0x20 PUSH1 0x4 DUP3 ADD MSTORE PUSH1 0x14 PUSH1 0x24 DUP3 ADD MSTORE PUSH20 0x13585E081CD95B985D1BDC9CC81C995858DA1959 PUSH1 0x62 SHL PUSH1 0x44 DUP3 ADD MSTORE PUSH1 0x64 SWAP1 REVERT JUMPDEST PUSH2 0x400 DUP9 PUSH2 0xAB8 JUMP JUMPDEST SLOAD DUP2 LT ISZERO PUSH2 0x43D JUMPI PUSH1 0xFF PUSH1 0x4 PUSH2 0x419 DUP4 PUSH2 0x2DF DUP13 PUSH2 0xAB8 JUMP JUMPDEST POP ADD SLOAD AND PUSH2 0x42A JUMPI JUMPDEST DUP2 ADD DUP2 PUSH2 0x2FE JUMP JUMPDEST SWAP2 PUSH2 0x435 DUP3 SWAP2 PUSH2 0xCF1 JUMP JUMPDEST SWAP3 SWAP1 POP PUSH2 0x422 JUMP JUMPDEST PUSH2 0x303 JUMP JUMPDEST POP POP SWAP1 PUSH2 0x213 JUMP JUMPDEST PUSH1 0x40 MLOAD PUSH3 0x461BCD PUSH1 0xE5 SHL DUP2 MSTORE PUSH1 0x20 PUSH1 0x4 DUP3 ADD MSTORE PUSH1 0x14 PUSH1 0x24 DUP3 ADD MSTORE PUSH20 0x21B0B73737BA103B37BA32903337B91039B2B633 PUSH1 0x61 SHL PUSH1 0x44 DUP3 ADD MSTORE PUSH1 0x64 SWAP1 REVERT JUMPDEST PUSH1 0x40 MLOAD PUSH3 0x461BCD PUSH1 0xE5 SHL DUP2 MSTORE PUSH1 0x20 PUSH1 0x4 DUP3 ADD MSTORE PUSH1 0xD PUSH1 0x24 DUP3 ADD MSTORE PUSH13 0x105B1C9958591E481D9BDD1959 PUSH1 0x9A SHL PUSH1 0x44 DUP3 ADD MSTORE PUSH1 0x64 SWAP1 REVERT JUMPDEST CALLVALUE PUSH2 0x112 JUMPI PUSH1 0x20 CALLDATASIZE PUSH1 0x3 NOT ADD SLT PUSH2 0x112 JUMPI PUSH1 0x4 CALLDATALOAD PUSH1 0x6 DUP2 LT ISZERO PUSH2 0x112 JUMPI PUSH1 0xFF PUSH2 0x4E5 PUSH1 0x20 SWAP3 PUSH2 0xAD1 JUMP JUMPDEST SLOAD AND PUSH1 0x40 MLOAD SWAP1 ISZERO ISZERO DUP2 MSTORE RETURN JUMPDEST CALLVALUE PUSH2 0x112 JUMPI PUSH1 0x20 CALLDATASIZE PUSH1 0x3 NOT ADD SLT PUSH2 0x112 JUMPI PUSH1 0x4 CALLDATALOAD PUSH1 0x6 DUP2 LT ISZERO PUSH2 0x112 JUMPI PUSH2 0x519 PUSH1 0x0 SWAP2 PUSH2 0xAB8 JUMP JUMPDEST DUP1 SLOAD SWAP1 PUSH1 0x0 JUMPDEST DUP3 DUP2 LT PUSH2 0x531 JUMPI PUSH1 0x20 DUP5 PUSH1 0x40 MLOAD SWAP1 DUP2 MSTORE RETURN JUMPDEST PUSH1 0xFF PUSH1 0x4 PUSH2 0x53F DUP4 DUP6 PUSH2 0xB1C JUMP JUMPDEST POP ADD SLOAD AND DUP1 PUSH2 0x56A JUMPI JUMPDEST PUSH2 0x556 JUMPI JUMPDEST PUSH1 0x1 ADD PUSH2 0x51F JUMP JUMPDEST SWAP3 PUSH2 0x562 PUSH1 0x1 SWAP2 PUSH2 0xCF1 JUMP JUMPDEST SWAP4 SWAP1 POP PUSH2 0x54E JUMP JUMPDEST POP PUSH1 0x3 PUSH2 0x577 DUP3 DUP5 PUSH2 0xB1C JUMP JUMPDEST POP ADD SLOAD TIMESTAMP LT PUSH2 0x549 JUMP JUMPDEST CALLVALUE PUSH2 0x112 JUMPI PUSH2 0x599 PUSH2 0x592 CALLDATASIZE PUSH2 0xBAD JUMP JUMPDEST SWAP2 SWAP1 PUSH2 0xB03 JUMP JUMPDEST SWAP1 PUSH1 0x1 DUP1 PUSH1 0xA0 SHL SUB AND PUSH1 0x0 MSTORE PUSH1 0x20 MSTORE PUSH1 0x20 PUSH1 0xFF PUSH1 0x40 PUSH1 0x0 KECCAK256 SLOAD AND PUSH1 0x40 MLOAD SWAP1 ISZERO ISZERO DUP2 MSTORE RETURN JUMPDEST CALLVALUE PUSH2 0x112 JUMPI PUSH1 0x20 CALLDATASIZE PUSH1 0x3 NOT ADD SLT PUSH2 0x112 JUMPI PUSH1 0x4 CALLDATALOAD PUSH1 0x0 MSTORE PUSH1 0x0 PUSH1 0x20 MSTORE PUSH2 0x5F5 PUSH2 0x5E9 PUSH1 0x40 PUSH1 0x0 KECCAK256 PUSH2 0xBDC JUMP JUMPDEST PUSH1 0x40 MLOAD SWAP2 DUP3 SWAP2 DUP3 PUSH2 0xB4E JUMP JUMPDEST SUB SWAP1 RETURN JUMPDEST CALLVALUE PUSH2 0x112 JUMPI PUSH2 0x611 PUSH2 0x60A CALLDATASIZE PUSH2 0xBAD JUMP JUMPDEST SWAP2 SWAP1 PUSH2 0xAEA JUMP JUMPDEST PUSH1 0x1 PUSH1 0x1 PUSH1 0xA0 SHL SUB SWAP2 DUP3 AND PUSH1 0x0 SWAP1 DUP2 MSTORE PUSH1 0x20 SWAP2 DUP3 MSTORE PUSH1 0x40 SWAP1 DUP2 SWAP1 KECCAK256 SLOAD SWAP1 MLOAD SWAP3 AND DUP3 MSTORE SWAP1 RETURN JUMPDEST CALLVALUE PUSH2 0x112 JUMPI PUSH1 0x20 CALLDATASIZE PUSH1 0x3 NOT ADD SLT PUSH2 0x112 JUMPI PUSH1 0x4 CALLDATALOAD PUSH1 0x6 DUP2 LT ISZERO PUSH2 0x112 JUMPI PUSH1 0xFF PUSH2 0x65E DUP3 PUSH2 0xAD1 JUMP JUMPDEST SLOAD AND ISZERO PUSH2 0x7E8 JUMPI CALLER PUSH1 0x0 MSTORE PUSH1 0x4 PUSH1 0x20 MSTORE PUSH1 0xFF PUSH1 0x40 PUSH1 0x0 KECCAK256 SLOAD AND SWAP1 PUSH1 0x6 DUP3 LT ISZERO PUSH2 0xFC JUMPI PUSH2 0x68E PUSH2 0x693 SWAP3 ISZERO PUSH2 0xCB1 JUMP JUMPDEST PUSH2 0xAB8 JUMP JUMPDEST DUP1 SLOAD SWAP1 PUSH1 0x0 JUMPDEST DUP3 DUP2 LT PUSH2 0x78C JUMPI POP PUSH1 0x40 MLOAD SWAP1 PUSH1 0xA0 DUP3 ADD DUP3 DUP2 LT PUSH8 0xFFFFFFFFFFFFFFFF DUP3 GT OR PUSH2 0x776 JUMPI PUSH1 0x40 MSTORE CALLER DUP3 MSTORE PUSH1 0x20 DUP3 ADD SWAP1 PUSH1 0x0 DUP3 MSTORE PUSH1 0x40 DUP4 ADD PUSH1 0x0 DUP2 MSTORE PUSH1 0x60 DUP5 ADD SWAP2 PUSH1 0x0 DUP4 MSTORE PUSH1 0x80 DUP6 ADD SWAP6 PUSH1 0x0 DUP8 MSTORE PUSH9 0x10000000000000000 DUP2 LT ISZERO PUSH2 0x776 JUMPI PUSH2 0x705 SWAP2 PUSH1 0x1 DUP3 ADD DUP2 SSTORE PUSH2 0xB1C JUMP JUMPDEST SWAP4 SWAP1 SWAP4 PUSH2 0x760 JUMPI PUSH1 0x4 SWAP5 PUSH1 0x1 DUP1 PUSH1 0xA0 SHL SUB SWAP1 PUSH1 0x1 DUP1 PUSH1 0xA0 SHL SUB SWAP1 MLOAD AND AND PUSH12 0xFFFFFFFFFFFFFFFFFFFFFFFF PUSH1 0xA0 SHL DUP6 SLOAD AND OR DUP5 SSTORE MLOAD PUSH1 0x1 DUP5 ADD SSTORE MLOAD PUSH1 0x2 DUP4 ADD SSTORE MLOAD PUSH1 0x3 DUP3 ADD SSTORE ADD SWAP1 MLOAD ISZERO ISZERO PUSH1 0xFF DUP1 NOT DUP4 SLOAD AND SWAP2 AND OR SWAP1 SSTORE PUSH1 0x0 DUP1 RETURN JUMPDEST PUSH4 0x4E487B71 PUSH1 0xE0 SHL PUSH1 0x0 MSTORE PUSH1 0x0 PUSH1 0x4 MSTORE PUSH1 0x24 PUSH1 0x0 REVERT JUMPDEST PUSH4 0x4E487B71 PUSH1 0xE0 SHL PUSH1 0x0 MSTORE PUSH1 0x41 PUSH1 0x4 MSTORE PUSH1 0x24 PUSH1 0x0 REVERT JUMPDEST PUSH2 0x796 DUP2 DUP4 PUSH2 0xB1C JUMP JUMPDEST POP SLOAD PUSH1 0x1 PUSH1 0x1 PUSH1 0xA0 SHL SUB AND CALLER EQ PUSH2 0x7AF JUMPI PUSH1 0x1 ADD PUSH2 0x699 JUMP JUMPDEST PUSH1 0x40 MLOAD PUSH3 0x461BCD PUSH1 0xE5 SHL DUP2 MSTORE PUSH1 0x20 PUSH1 0x4 DUP3 ADD MSTORE PUSH1 0x11 PUSH1 0x24 DUP3 ADD MSTORE PUSH17 0x105B1C9958591E481B9BDB5A5B985D1959 PUSH1 0x7A SHL PUSH1 0x44 DUP3 ADD MSTORE PUSH1 0x64 SWAP1 REVERT JUMPDEST PUSH1 0x40 MLOAD PUSH3 0x461BCD PUSH1 0xE5 SHL DUP2 MSTORE PUSH1 0x20 PUSH1 0x4 DUP3 ADD MSTORE PUSH1 0x10 PUSH1 0x24 DUP3 ADD MSTORE PUSH16 0x496E76616C69642063617465676F7279 PUSH1 0x80 SHL PUSH1 0x44 DUP3 ADD MSTORE PUSH1 0x64 SWAP1 REVERT JUMPDEST CALLVALUE PUSH2 0x112 JUMPI PUSH1 0x20 CALLDATASIZE PUSH1 0x3 NOT ADD SLT PUSH2 0x112 JUMPI PUSH1 0x4 CALLDATALOAD PUSH1 0x6 DUP2 LT ISZERO PUSH2 0x112 JUMPI PUSH1 0xFF PUSH2 0x848 DUP3 PUSH2 0xAD1 JUMP JUMPDEST SLOAD AND ISZERO PUSH2 0x867 JUMPI PUSH1 0x0 MSTORE PUSH1 0x0 PUSH1 0x20 MSTORE PUSH2 0x5F5 PUSH2 0x5E9 PUSH1 0x40 PUSH1 0x0 KECCAK256 PUSH2 0xBDC JUMP JUMPDEST PUSH1 0x40 MLOAD PUSH3 0x461BCD PUSH1 0xE5 SHL DUP2 MSTORE PUSH1 0x20 PUSH1 0x4 DUP3 ADD MSTORE PUSH1 0x17 PUSH1 0x24 DUP3 ADD MSTORE PUSH32 0x43617465676F727920646F6573206E6F74206578697374000000000000000000 PUSH1 0x44 DUP3 ADD MSTORE PUSH1 0x64 SWAP1 REVERT JUMPDEST CALLVALUE PUSH2 0x112 JUMPI PUSH2 0x8C4 PUSH2 0x8BD CALLDATASIZE PUSH2 0xA80 JUMP JUMPDEST SWAP2 SWAP1 PUSH2 0xAB8 JUMP JUMPDEST DUP1 SLOAD DUP3 LT ISZERO PUSH2 0x112 JUMPI PUSH1 0xA0 SWAP2 PUSH2 0x8D9 SWAP2 PUSH2 0xB1C JUMP JUMPDEST POP PUSH1 0x1 DUP1 DUP4 SHL SUB DUP2 SLOAD AND SWAP1 PUSH1 0x1 DUP2 ADD SLOAD SWAP1 PUSH1 0x2 DUP2 ADD SLOAD PUSH1 0xFF PUSH1 0x4 PUSH1 0x3 DUP5 ADD SLOAD SWAP4 ADD SLOAD AND SWAP3 PUSH1 0x40 MLOAD SWAP5 DUP6 MSTORE PUSH1 0x20 DUP6 ADD MSTORE PUSH1 0x40 DUP5 ADD MSTORE PUSH1 0x60 DUP4 ADD MSTORE ISZERO ISZERO PUSH1 0x80 DUP3 ADD MSTORE RETURN JUMPDEST CALLVALUE PUSH2 0x112 JUMPI PUSH1 0x20 CALLDATASIZE PUSH1 0x3 NOT ADD SLT PUSH2 0x112 JUMPI PUSH1 0x4 CALLDATALOAD PUSH1 0x6 DUP2 LT ISZERO PUSH2 0x112 JUMPI PUSH2 0x943 PUSH1 0x80 SWAP2 PUSH2 0xA9F JUMP JUMPDEST DUP1 SLOAD SWAP1 PUSH1 0x1 DUP2 ADD SLOAD SWAP1 PUSH1 0x3 PUSH1 0x2 DUP3 ADD SLOAD SWAP2 ADD SLOAD SWAP2 PUSH1 0x40 MLOAD SWAP4 DUP5 MSTORE PUSH1 0x20 DUP5 ADD MSTORE PUSH1 0x40 DUP4 ADD MSTORE PUSH1 0x60 DUP3 ADD MSTORE RETURN JUMPDEST CALLVALUE PUSH2 0x112 JUMPI PUSH2 0x97C CALLDATASIZE PUSH2 0xA80 JUMP JUMPDEST PUSH2 0x986 DUP3 CALLER PUSH2 0xD00 JUMP JUMPDEST ISZERO PUSH2 0xA1A JUMPI DUP1 ISZERO ISZERO DUP1 PUSH2 0xA0F JUMPI JUMPDEST ISZERO PUSH2 0x9DA JUMPI DUP1 PUSH2 0x9A3 DUP4 PUSH2 0xA9F JUMP JUMPDEST SSTORE PUSH1 0x6 DUP3 LT ISZERO PUSH2 0xFC JUMPI PUSH1 0x20 PUSH32 0xBB28B82677B93F9743C8CB95950CA0AD87F5CA3D90BBB90BCB80F530208189B5 SWAP2 PUSH1 0x40 MLOAD SWAP1 DUP2 MSTORE LOG2 STOP JUMPDEST PUSH1 0x40 MLOAD PUSH3 0x461BCD PUSH1 0xE5 SHL DUP2 MSTORE PUSH1 0x20 PUSH1 0x4 DUP3 ADD MSTORE PUSH1 0xD PUSH1 0x24 DUP3 ADD MSTORE PUSH13 0x496E76616C69642073636F7265 PUSH1 0x98 SHL PUSH1 0x44 DUP3 ADD MSTORE PUSH1 0x64 SWAP1 REVERT JUMPDEST POP PUSH1 0x64 DUP2 GT ISZERO PUSH2 0x994 JUMP JUMPDEST PUSH1 0x40 MLOAD PUSH3 0x461BCD PUSH1 0xE5 SHL DUP2 MSTORE PUSH1 0x20 PUSH1 0x4 DUP3 ADD MSTORE PUSH1 0xD PUSH1 0x24 DUP3 ADD MSTORE PUSH13 0x2737BA10309039B2B730BA37B9 PUSH1 0x99 SHL PUSH1 0x44 DUP3 ADD MSTORE PUSH1 0x64 SWAP1 REVERT JUMPDEST CALLVALUE PUSH2 0x112 JUMPI PUSH1 0x20 CALLDATASIZE PUSH1 0x3 NOT ADD SLT PUSH2 0x112 JUMPI PUSH1 0x4 CALLDATALOAD PUSH1 0x6 DUP2 LT ISZERO PUSH2 0x112 JUMPI PUSH2 0xA77 PUSH1 0x20 SWAP2 PUSH2 0xA9F JUMP JUMPDEST SLOAD PUSH1 0x40 MLOAD SWAP1 DUP2 MSTORE RETURN JUMPDEST PUSH1 0x40 SWAP1 PUSH1 0x3 NOT ADD SLT PUSH2 0x112 JUMPI PUSH1 0x4 CALLDATALOAD PUSH1 0x6 DUP2 LT ISZERO PUSH2 0x112 JUMPI SWAP1 PUSH1 0x24 CALLDATALOAD SWAP1 JUMP JUMPDEST PUSH1 0x6 DUP2 LT ISZERO PUSH2 0xFC JUMPI PUSH1 0x0 MSTORE PUSH1 0x2 PUSH1 0x20 MSTORE PUSH1 0x40 PUSH1 0x0 KECCAK256 SWAP1 JUMP JUMPDEST PUSH1 0x6 DUP2 LT ISZERO PUSH2 0xFC JUMPI PUSH1 0x0 MSTORE PUSH1 0x3 PUSH1 0x20 MSTORE PUSH1 0x40 PUSH1 0x0 KECCAK256 SWAP1 JUMP JUMPDEST PUSH1 0x6 DUP2 LT ISZERO PUSH2 0xFC JUMPI PUSH1 0x0 MSTORE PUSH1 0x1 PUSH1 0x20 MSTORE PUSH1 0x40 PUSH1 0x0 KECCAK256 SWAP1 JUMP JUMPDEST PUSH1 0x6 DUP2 LT ISZERO PUSH2 0xFC JUMPI PUSH1 0x0 MSTORE PUSH1 0x6 PUSH1 0x20 MSTORE PUSH1 0x40 PUSH1 0x0 KECCAK256 SWAP1 JUMP JUMPDEST PUSH1 0x6 DUP2 LT ISZERO PUSH2 0xFC JUMPI PUSH1 0x0 MSTORE PUSH1 0x5 PUSH1 0x20 MSTORE PUSH1 0x40 PUSH1 0x0 KECCAK256 SWAP1 JUMP JUMPDEST DUP1 SLOAD DUP3 LT ISZERO PUSH2 0xB38 JUMPI PUSH1 0x0 MSTORE PUSH1 0x5 PUSH1 0x20 PUSH1 0x0 KECCAK256 SWAP2 MUL ADD SWAP1 PUSH1 0x0 SWAP1 JUMP JUMPDEST PUSH4 0x4E487B71 PUSH1 0xE0 SHL PUSH1 0x0 MSTORE PUSH1 0x32 PUSH1 0x4 MSTORE PUSH1 0x24 PUSH1 0x0 REVERT JUMPDEST SWAP2 SWAP1 SWAP2 PUSH1 0x20 DUP2 MSTORE DUP3 MLOAD DUP1 PUSH1 0x20 DUP4 ADD MSTORE PUSH1 0x0 JUMPDEST DUP2 DUP2 LT PUSH2 0xB81 JUMPI POP PUSH1 0x40 SWAP3 SWAP4 POP PUSH1 0x0 DUP4 DUP3 DUP5 ADD ADD MSTORE PUSH1 0x1F DUP1 NOT SWAP2 ADD AND ADD ADD SWAP1 JUMP JUMPDEST DUP1 PUSH1 0x20 DUP1 SWAP3 DUP8 ADD ADD MLOAD PUSH1 0x40 DUP3 DUP7 ADD ADD MSTORE ADD PUSH2 0xB60 JUMP JUMPDEST PUSH1 0x4 CALLDATALOAD SWAP1 PUSH1 0x1 PUSH1 0x1 PUSH1 0xA0 SHL SUB DUP3 AND DUP3 SUB PUSH2 0x112 JUMPI JUMP JUMPDEST PUSH1 0x40 SWAP1 PUSH1 0x3 NOT ADD SLT PUSH2 0x112 JUMPI PUSH1 0x4 CALLDATALOAD PUSH1 0x6 DUP2 LT ISZERO PUSH2 0x112 JUMPI SWAP1 PUSH1 0x24 CALLDATALOAD PUSH1 0x1 PUSH1 0x1 PUSH1 0xA0 SHL SUB DUP2 AND DUP2 SUB PUSH2 0x112 JUMPI SWAP1 JUMP JUMPDEST SWAP1 PUSH1 0x40 MLOAD SWAP2 PUSH1 0x0 SWAP1 DUP1 SLOAD SWAP1 DUP2 PUSH1 0x1 SHR SWAP2 PUSH1 0x1 DUP2 AND DUP1 ISZERO PUSH2 0xCA7 JUMPI JUMPDEST PUSH1 0x20 DUP5 LT DUP2 EQ PUSH2 0xC93 JUMPI DUP4 DUP8 MSTORE SWAP1 DUP2 ISZERO PUSH2 0xC75 JUMPI POP PUSH1 0x1 EQ PUSH2 0xC3A JUMPI JUMPDEST POP POP DUP3 SWAP1 SUB PUSH1 0x1F ADD PUSH1 0x1F NOT AND DUP3 ADD PUSH8 0xFFFFFFFFFFFFFFFF DUP2 GT DUP4 DUP3 LT OR PUSH2 0x776 JUMPI PUSH1 0x40 MSTORE JUMP JUMPDEST SWAP1 SWAP2 POP PUSH1 0x0 MSTORE PUSH1 0x20 PUSH1 0x0 KECCAK256 PUSH1 0x0 SWAP1 JUMPDEST DUP3 DUP3 LT PUSH2 0xC5F JUMPI POP PUSH1 0x20 SWAP2 POP DUP4 ADD ADD CODESIZE DUP1 PUSH2 0xC14 JUMP JUMPDEST PUSH1 0x1 DUP2 PUSH1 0x20 SWAP3 SLOAD DUP4 DUP6 DUP10 ADD ADD MSTORE ADD SWAP2 ADD SWAP1 PUSH2 0xC49 JUMP JUMPDEST SWAP2 POP POP PUSH1 0x20 SWAP3 POP PUSH1 0xFF NOT AND DUP3 DUP6 ADD MSTORE ISZERO ISZERO PUSH1 0x5 SHL DUP4 ADD ADD CODESIZE DUP1 PUSH2 0xC14 JUMP JUMPDEST PUSH4 0x4E487B71 PUSH1 0xE0 SHL DUP6 MSTORE PUSH1 0x22 PUSH1 0x4 MSTORE PUSH1 0x24 DUP6 REVERT JUMPDEST SWAP3 PUSH1 0x7F AND SWAP3 PUSH2 0xBF7 JUMP JUMPDEST ISZERO PUSH2 0xCB8 JUMPI JUMP JUMPDEST PUSH1 0x40 MLOAD PUSH3 0x461BCD PUSH1 0xE5 SHL DUP2 MSTORE PUSH1 0x20 PUSH1 0x4 DUP3 ADD MSTORE PUSH1 0x11 PUSH1 0x24 DUP3 ADD MSTORE PUSH17 0x20B63932B0B23C90309039B2B730BA37B9 PUSH1 0x79 SHL PUSH1 0x44 DUP3 ADD MSTORE PUSH1 0x64 SWAP1 REVERT JUMPDEST PUSH1 0x0 NOT DUP2 EQ PUSH2 0x3A5 JUMPI PUSH1 0x1 ADD SWAP1 JUMP JUMPDEST SWAP1 PUSH2 0xD0A SWAP1 PUSH2 0xAB8 JUMP JUMPDEST DUP1 SLOAD SWAP2 PUSH1 0x0 JUMPDEST DUP4 DUP2 LT PUSH2 0xD20 JUMPI POP POP POP POP PUSH1 0x0 SWAP1 JUMP JUMPDEST PUSH2 0xD2A DUP2 DUP5 PUSH2 0xB1C JUMP JUMPDEST POP SLOAD PUSH1 0x1 PUSH1 0x1 PUSH1 0xA0 SHL SUB DUP4 DUP2 AND SWAP2 AND EQ DUP1 PUSH2 0xD72 JUMPI JUMPDEST DUP1 PUSH2 0xD5B JUMPI JUMPDEST PUSH2 0xD52 JUMPI PUSH1 0x1 ADD PUSH2 0xD10 JUMP JUMPDEST POP POP POP POP PUSH1 0x1 SWAP1 JUMP JUMPDEST POP PUSH1 0x3 PUSH2 0xD68 DUP3 DUP6 PUSH2 0xB1C JUMP JUMPDEST POP ADD SLOAD TIMESTAMP LT PUSH2 0xD46 JUMP JUMPDEST POP PUSH1 0xFF PUSH1 0x4 PUSH2 0xD81 DUP4 DUP7 PUSH2 0xB1C JUMP JUMPDEST POP ADD SLOAD AND PUSH2 0xD40 JUMP INVALID LOG2 PUSH5 0x6970667358 0x22 SLT KECCAK256 0xE 0xD7 ADD 0xC5 PUSH23 0x8751B38B909D183B30FFAC07158ED3D4938EAD1AD38E5C 0xD DUP2 0xE1 JUMPI PUSH5 0x736F6C6343 STOP ADDMOD SHR STOP CALLER "},"methodIdentifiers":{"categoryExists(uint8)":"b51bcc0e","categoryNames(uint256)":"784940c5","getActiveSenatorCount(uint8)":"8a1943fd","getCategoryName(uint8)":"3f9a61e0","getMinPassScore(uint8)":"1ce87ebb","hasVoted(uint8,address)":"87288440","isSenator(address,uint8)":"eb2f1610","nominate(uint8)":"4e2ad8ea","senateConfigs(uint8)":"3a60a051","senatorCategories(address)":"ee0d70f4","senators(uint8,uint256)":"3e293a6c","updateMinPassScore(uint8,uint256)":"35d335af","vote(uint8,address)":"b81c6453","votedFor(uint8,address)":"5f167487"}}}}}