{"contracts/Senate.sol":{"Senate":{"abi":[{"inputs":[],"stateMutability":"nonpayable","type":"constructor"},{"anonymous":false,"inputs":[{"indexed":true,"internalType":"enum CommunityTypes.Category","name":"category","type":"uint8"},{"indexed":false,"internalType":"uint256","name":"newScore","type":"uint256"}],"name":"MinPassScoreUpdated","type":"event"},{"anonymous":false,"inputs":[{"indexed":true,"internalType":"enum CommunityTypes.Category","name":"category","type":"uint8"},{"indexed":true,"internalType":"address","name":"senator","type":"address"}],"name":"SenatorElected","type":"event"},{"anonymous":false,"inputs":[{"indexed":true,"internalType":"enum CommunityTypes.Category","name":"category","type":"uint8"},{"indexed":true,"internalType":"address","name":"senator","type":"address"}],"name":"SenatorRetired","type":"event"},{"anonymous":false,"inputs":[{"indexed":true,"internalType":"enum CommunityTypes.Category","name":"category","type":"uint8"},{"indexed":true,"internalType":"address","name":"voter","type":"address"},{"indexed":true,"internalType":"address","name":"candidate","type":"address"}],"name":"VoteCast","type":"event"},{"inputs":[{"internalType":"address","name":"_senator","type":"address"},{"internalType":"enum CommunityTypes.Category","name":"_category","type":"uint8"}],"name":"addSenator","outputs":[],"stateMutability":"nonpayable","type":"function"},{"inputs":[{"internalType":"enum CommunityTypes.Category","name":"","type":"uint8"}],"name":"categoryExists","outputs":[{"internalType":"bool","name":"","type":"bool"}],"stateMutability":"view","type":"function"},{"inputs":[{"internalType":"uint256","name":"","type":"uint256"}],"name":"categoryNames","outputs":[{"internalType":"string","name":"","type":"string"}],"stateMutability":"view","type":"function"},{"inputs":[{"internalType":"enum CommunityTypes.Category","name":"_category","type":"uint8"}],"name":"getActiveSenatorCount","outputs":[{"internalType":"uint256","name":"","type":"uint256"}],"stateMutability":"view","type":"function"},{"inputs":[{"internalType":"enum CommunityTypes.Category","name":"_category","type":"uint8"}],"name":"getCategoryName","outputs":[{"internalType":"string","name":"","type":"string"}],"stateMutability":"view","type":"function"},{"inputs":[{"internalType":"enum CommunityTypes.Category","name":"_category","type":"uint8"}],"name":"getMinPassScore","outputs":[{"internalType":"uint256","name":"","type":"uint256"}],"stateMutability":"view","type":"function"},{"inputs":[{"internalType":"enum CommunityTypes.Category","name":"","type":"uint8"},{"internalType":"address","name":"","type":"address"}],"name":"hasVoted","outputs":[{"internalType":"bool","name":"","type":"bool"}],"stateMutability":"view","type":"function"},{"inputs":[{"internalType":"address","name":"_addr","type":"address"},{"internalType":"enum CommunityTypes.Category","name":"_category","type":"uint8"}],"name":"isSenator","outputs":[{"internalType":"bool","name":"","type":"bool"}],"stateMutability":"view","type":"function"},{"inputs":[{"internalType":"enum CommunityTypes.Category","name":"_category","type":"uint8"}],"name":"nominate","outputs":[],"stateMutability":"nonpayable","type":"function"},{"inputs":[{"internalType":"enum CommunityTypes.Category","name":"","type":"uint8"}],"name":"senateConfigs","outputs":[{"internalType":"uint256","name":"minPassScore","type":"uint256"},{"internalType":"uint256","name":"termDuration","type":"uint256"},{"internalType":"uint256","name":"minVotesToElect","type":"uint256"},{"internalType":"uint256","name":"maxSenators","type":"uint256"}],"stateMutability":"view","type":"function"},{"inputs":[{"internalType":"address","name":"","type":"address"}],"name":"senatorCategories","outputs":[{"internalType":"enum CommunityTypes.Category","name":"","type":"uint8"}],"stateMutability":"view","type":"function"},{"inputs":[{"internalType":"enum CommunityTypes.Category","name":"","type":"uint8"},{"internalType":"uint256","name":"","type":"uint256"}],"name":"senators","outputs":[{"internalType":"address","name":"addr","type":"address"},{"internalType":"uint256","name":"votes","type":"uint256"},{"internalType":"uint256","name":"startTime","type":"uint256"},{"internalType":"uint256","name":"endTime","type":"uint256"},{"internalType":"bool","name":"active","type":"bool"}],"stateMutability":"view","type":"function"},{"inputs":[{"internalType":"enum CommunityTypes.Category","name":"_category","type":"uint8"},{"internalType":"uint256","name":"_newScore","type":"uint256"}],"name":"updateMinPassScore","outputs":[],"stateMutability":"nonpayable","type":"function"},{"inputs":[{"internalType":"enum CommunityTypes.Category","name":"_category","type":"uint8"},{"internalType":"uint256","name":"_newMinVotes","type":"uint256"}],"name":"updateMinVotesToElect","outputs":[],"stateMutability":"nonpayable","type":"function"},{"inputs":[{"internalType":"enum CommunityTypes.Category","name":"_category","type":"uint8"},{"internalType":"uint256","name":"_newDuration","type":"uint256"}],"name":"updateTermDuration","outputs":[],"stateMutability":"nonpayable","type":"function"},{"inputs":[{"internalType":"enum CommunityTypes.Category","name":"_category","type":"uint8"},{"internalType":"address","name":"_candidate","type":"address"}],"name":"vote","outputs":[],"stateMutability":"nonpayable","type":"function"},{"inputs":[{"internalType":"enum CommunityTypes.Category","name":"","type":"uint8"},{"internalType":"address","name":"","type":"address"}],"name":"votedFor","outputs":[{"internalType":"address","name":"","type":"address"}],"stateMutability":"view","type":"function"}],"evm":{"bytecode":{"linkReferences":{},"object":"60806040523461038f5760016000526000602052604060002061002b61002582546103b9565b826103f3565b600a644d7573696360d81b019055600260009081526020527fabbb5caa7dda850e60932de0934eb1f9d0f59695050f761dc64e443e5030a569805461006f906103b9565b601f8111610362575b50600662105c9d60ea1b019055600360009081526020527f101e368776582e57ab3d116ffe2517c0a585cd5b23174b01e275c2d8329c3d8380546100bb906103b9565b601f8111610335575b50600c6553706f72747360d01b019055600460009081526020527f52d75039926638d3c558b2bdefb945d5be8dae29dedd1c313212a4d472d9fde5805461010a906103b9565b601f8111610308575b507f456475636174696f6e00000000000000000000000000000000000000000000129055600560009081526020527f2b232c97452f0950c94e2539fdc7e69d21166113cf7a9bcb99b220a3fe5d720a805461016d906103b9565b601f81116102db575b507f546563686e6f6c6f6779000000000000000000000000000000000000000000149055600660009081526020527f62103cf3131c85df57aad364d21cba02556d3092d6cb54c298c2e7726a7870bd80546101d490610025906103b9565b600a6427ba3432b960d91b01905560005b60068111156102ac5760005b600681111561020957604051611010908161042a8239f35b6007811015610296576040516080810191906001600160401b038311818410176102805761027b926040526046815260036020820162ed4e0081526040830160648152606084019160058352604060008781526002602052209451855551600185015551600284015551910155610394565b6101f1565b634e487b7160e01b600052604160045260246000fd5b634e487b7160e01b600052602160045260246000fd5b6007811015610296576102d69060406000828152600160205220600160ff19825416179055610394565b6101e5565b81600052601f6020600020910160051c8101905b8181106102fc5750610176565b600081556001016102ef565b81600052601f6020600020910160051c8101905b8181106103295750610113565b6000815560010161031c565b81600052601f6020600020910160051c8101905b81811061035657506100c4565b60008155600101610349565b81600052601f6020600020910160051c8101905b8181106103835750610078565b60008155600101610376565b600080fd5b60001981146103a35760010190565b634e487b7160e01b600052601160045260246000fd5b90600182811c921680156103e9575b60208310146103d357565b634e487b7160e01b600052602260045260246000fd5b91607f16916103c8565b601f82116103ff575050565b600052601f6020600020910160051c8101905b81811061041d575050565b6000815560010161041256fe6080604052600436101561001257600080fd5b60003560e01c80631178f84114610b0e5780631ce87ebb14610add57806335d335af14610a335780633a60a051146109e05780633e293a6c146109715780633f9a61e0146108e55780634e2ad8ea146107b05780635f16748714610773578063784940c51461073757806387288440146106fb5780638a1943fd1461066b5780639bac92f314610551578063b51bcc0e1461051b578063b81c6453146101cf578063eb2f1610146101ac578063ee0d70f41461014c5763fb716cbd146100d757600080fd5b34610147576100e536610b73565b906100f86100f38233610f50565b610def565b811561010d57610109600291610b92565b0155005b60405162461bcd60e51b8152602060048201526012602482015271125b9d985b1a59081d9bdd194818dbdd5b9d60721b6044820152606490fd5b600080fd5b34610147576020366003190112610147576004356001600160a01b0381169081900361014757600052600460205260ff604060002054166040516007821015610196576020918152f35b634e487b7160e01b600052602160045260246000fd5b346101475760206101c56101bf36610dc0565b90610f50565b6040519015158152f35b34610147576101dd36610c8a565b6101e682610bf6565b336000908152602091909152604090205460ff166104e6576001600160a01b0316903382146104aa5761021881610bab565b90600091825b81548110156104a257846102328284610c0f565b50546001600160a01b03161461024a5760010161021e565b91925080600161025b848094610c0f565b50016102678154610f06565b90556102766001938492610c0f565b500154600261028485610b92565b0154111561034e575b505b156103135761029d81610bf6565b33600090815260209190915260409020805460ff191660011790556102c181610bdd565b3360009081526020919091526040902080546001600160a01b0319168317905560078110156101965733907f8084d6c9657cf625aabd090126fedbc9f3db46379d9518f9591cc324bfa8e62b600080a4005b60405162461bcd60e51b815260206004820152601360248201527210d85b991a59185d19481b9bdd08199bdd5b99606a1b6044820152606490fd5b6103609061035b84610bab565b610c0f565b5060048101805461037460ff821615610e2b565b60008481815b610457575b5050600361038c87610b92565b0154111561041b5760ff1916831790554260028201556103b7826103af85610b92565b015442610f2b565b600382015560018060a01b0381541660005260046020526103dc836040600020610f38565b546001600160a01b0316600783101561019657827ff969f9b89705fe938fd03aaf3f2b546c05fa9212d04edc8753388de4409d1863600080a38361028d565b60405162461bcd60e51b815260206004820152601460248201527313585e081cd95b985d1bdc9cc81c995858da195960621b6044820152606490fd5b61046088610bab565b5481101561049d5760ff60046104798361035b8c610bab565b5001541661048a575b81018161037a565b916104958291610f06565b929050610482565b61037f565b50509061028f565b60405162461bcd60e51b815260206004820152601460248201527321b0b73737ba103b37ba32903337b91039b2b63360611b6044820152606490fd5b60405162461bcd60e51b815260206004820152600d60248201526c105b1c9958591e481d9bdd1959609a1b6044820152606490fd5b346101475760203660031901126101475760043560078110156101475760ff610545602092610bc4565b54166040519015158152f35b346101475761055f36610dc0565b6001600160a01b039091169081156106265781600052600460205260ff604060002054166007811015610196576105969015610e2b565b6105df6105a282610bab565b6105b060016103af85610b92565b90604051916105be83610cb9565b85835260006020840152426040840152606083015260016080830152610e6b565b8160005260046020526105f6816040600020610f38565b6007811015610196577ff969f9b89705fe938fd03aaf3f2b546c05fa9212d04edc8753388de4409d1863600080a3005b60405162461bcd60e51b815260206004820152601760248201527f496e76616c69642073656e61746f7220616464726573730000000000000000006044820152606490fd5b3461014757602036600319011261014757600435600781101561014757610693600091610bab565b80549060005b8281106106ab57602084604051908152f35b60ff60046106b98385610c0f565b50015416806106e4575b6106d0575b600101610699565b926106dc600191610f06565b9390506106c8565b5060036106f18284610c0f565b50015442106106c3565b346101475761071361070c36610c8a565b9190610bf6565b9060018060a01b0316600052602052602060ff604060002054166040519015158152f35b3461014757602036600319011261014757600435600052600060205261076f6107636040600020610ceb565b60405191829182610c41565b0390f35b346101475761078b61078436610c8a565b9190610bdd565b6001600160a01b03918216600090815260209182526040908190205490519216825290f35b346101475760203660031901126101475760043560078110156101475760ff6107d882610bc4565b5416156108ad5733600052600460205260ff604060002054169060078210156101965761080861080d9215610e2b565b610bab565b80549060005b8281106108515761084f826040519061082b82610cb9565b33825260006020830152600060408301526000606083015260006080830152610e6b565b005b61085b8183610c0f565b50546001600160a01b0316331461087457600101610813565b60405162461bcd60e51b8152602060048201526011602482015270105b1c9958591e481b9bdb5a5b985d1959607a1b6044820152606490fd5b60405162461bcd60e51b815260206004820152601060248201526f496e76616c69642063617465676f727960801b6044820152606490fd5b346101475760203660031901126101475760043560078110156101475760ff61090d82610bc4565b54161561092c57600052600060205261076f6107636040600020610ceb565b60405162461bcd60e51b815260206004820152601760248201527f43617465676f727920646f6573206e6f742065786973740000000000000000006044820152606490fd5b346101475761098961098236610b73565b9190610bab565b80548210156101475760a09161099e91610c0f565b50600180831b0381541690600181015490600281015460ff60046003840154930154169260405194855260208501526040840152606083015215156080820152f35b3461014757602036600319011261014757600435600781101561014757610a08608091610b92565b8054906001810154906003600282015491015491604051938452602084015260408301526060820152f35b3461014757610a4136610b73565b610a4e6100f38333610f50565b80151580610ad2575b15610a9d5780610a6683610b92565b5560078210156101965760207fbb28b82677b93f9743c8cb95950ca0ad87f5ca3d90bbb90bcb80f530208189b591604051908152a2005b60405162461bcd60e51b815260206004820152600d60248201526c496e76616c69642073636f726560981b6044820152606490fd5b506064811115610a57565b3461014757602036600319011261014757600435600781101561014757610b05602091610b92565b54604051908152f35b3461014757610b1c36610b73565b90610b2a6100f38233610f50565b8115610b3b57610109600191610b92565b60405162461bcd60e51b815260206004820152601060248201526f24b73b30b634b210323ab930ba34b7b760811b6044820152606490fd5b6040906003190112610147576004356007811015610147579060243590565b6007811015610196576000526002602052604060002090565b6007811015610196576000526003602052604060002090565b6007811015610196576000526001602052604060002090565b6007811015610196576000526006602052604060002090565b6007811015610196576000526005602052604060002090565b8054821015610c2b576000526005602060002091020190600090565b634e487b7160e01b600052603260045260246000fd5b91909160208152825180602083015260005b818110610c74575060409293506000838284010152601f8019910116010190565b8060208092870101516040828601015201610c53565b604090600319011261014757600435600781101561014757906024356001600160a01b03811681036101475790565b60a0810190811067ffffffffffffffff821117610cd557604052565b634e487b7160e01b600052604160045260246000fd5b90604051916000908054908160011c91600181168015610db6575b602084108114610da257838752908115610d845750600114610d49575b5050829003601f01601f1916820167ffffffffffffffff811183821017610cd557604052565b90915060005260206000206000905b828210610d6e5750602091508301013880610d23565b6001816020925483858901015201910190610d58565b9150506020925060ff191682850152151560051b8301013880610d23565b634e487b7160e01b85526022600452602485fd5b92607f1692610d06565b6040906003190112610147576004356001600160a01b0381168103610147579060243560078110156101475790565b15610df657565b60405162461bcd60e51b815260206004820152600d60248201526c2737ba10309039b2b730ba37b960991b6044820152606490fd5b15610e3257565b60405162461bcd60e51b815260206004820152601160248201527020b63932b0b23c90309039b2b730ba37b960791b6044820152606490fd5b805468010000000000000000811015610cd557610e8d91600182018155610c0f565b610ef057600460809160018060a01b0360018060a01b03855116166bffffffffffffffffffffffff60a01b82541617815560208401516001820155604084015160028201556060840151600382015501910151151560ff80198354169116179055565b634e487b7160e01b600052600060045260246000fd5b6000198114610f155760010190565b634e487b7160e01b600052601160045260246000fd5b91908201809211610f1557565b9060078110156101965760ff80198354169116179055565b90610f5a90610bab565b80549160005b838110610f705750505050600090565b610f7a8184610c0f565b50546001600160a01b0383811691161480610fc2575b80610fab575b610fa257600101610f60565b50505050600190565b506003610fb88285610c0f565b5001544210610f96565b5060ff6004610fd18386610c0f565b50015416610f9056fea2646970667358221220caa40b911cea817d65ce1b8965e6f9fa10334aac6f188af2e84aca62d90f0d4a64736f6c634300081c0033","opcodes":"PUSH1 0x80 PUSH1 0x40 MSTORE CALLVALUE PUSH2 0x38F JUMPI PUSH1 0x1 PUSH1 0x0 MSTORE PUSH1 0x0 PUSH1 0x20 MSTORE PUSH1 0x40 PUSH1 0x0 KECCAK256 PUSH2 0x2B PUSH2 0x25 DUP3 SLOAD PUSH2 0x3B9 JUMP JUMPDEST DUP3 PUSH2 0x3F3 JUMP JUMPDEST PUSH1 0xA PUSH5 0x4D75736963 PUSH1 0xD8 SHL ADD SWAP1 SSTORE PUSH1 0x2 PUSH1 0x0 SWAP1 DUP2 MSTORE PUSH1 0x20 MSTORE PUSH32 0xABBB5CAA7DDA850E60932DE0934EB1F9D0F59695050F761DC64E443E5030A569 DUP1 SLOAD PUSH2 0x6F SWAP1 PUSH2 0x3B9 JUMP JUMPDEST PUSH1 0x1F DUP2 GT PUSH2 0x362 JUMPI JUMPDEST POP PUSH1 0x6 PUSH3 0x105C9D PUSH1 0xEA SHL ADD SWAP1 SSTORE PUSH1 0x3 PUSH1 0x0 SWAP1 DUP2 MSTORE PUSH1 0x20 MSTORE PUSH32 0x101E368776582E57AB3D116FFE2517C0A585CD5B23174B01E275C2D8329C3D83 DUP1 SLOAD PUSH2 0xBB SWAP1 PUSH2 0x3B9 JUMP JUMPDEST PUSH1 0x1F DUP2 GT PUSH2 0x335 JUMPI JUMPDEST POP PUSH1 0xC PUSH6 0x53706F727473 PUSH1 0xD0 SHL ADD SWAP1 SSTORE PUSH1 0x4 PUSH1 0x0 SWAP1 DUP2 MSTORE PUSH1 0x20 MSTORE PUSH32 0x52D75039926638D3C558B2BDEFB945D5BE8DAE29DEDD1C313212A4D472D9FDE5 DUP1 SLOAD PUSH2 0x10A SWAP1 PUSH2 0x3B9 JUMP JUMPDEST PUSH1 0x1F DUP2 GT PUSH2 0x308 JUMPI JUMPDEST POP PUSH32 0x456475636174696F6E0000000000000000000000000000000000000000000012 SWAP1 SSTORE PUSH1 0x5 PUSH1 0x0 SWAP1 DUP2 MSTORE PUSH1 0x20 MSTORE PUSH32 0x2B232C97452F0950C94E2539FDC7E69D21166113CF7A9BCB99B220A3FE5D720A DUP1 SLOAD PUSH2 0x16D SWAP1 PUSH2 0x3B9 JUMP JUMPDEST PUSH1 0x1F DUP2 GT PUSH2 0x2DB JUMPI JUMPDEST POP PUSH32 0x546563686E6F6C6F677900000000000000000000000000000000000000000014 SWAP1 SSTORE PUSH1 0x6 PUSH1 0x0 SWAP1 DUP2 MSTORE PUSH1 0x20 MSTORE PUSH32 0x62103CF3131C85DF57AAD364D21CBA02556D3092D6CB54C298C2E7726A7870BD DUP1 SLOAD PUSH2 0x1D4 SWAP1 PUSH2 0x25 SWAP1 PUSH2 0x3B9 JUMP JUMPDEST PUSH1 0xA PUSH5 0x27BA3432B9 PUSH1 0xD9 SHL ADD SWAP1 SSTORE PUSH1 0x0 JUMPDEST PUSH1 0x6 DUP2 GT ISZERO PUSH2 0x2AC JUMPI PUSH1 0x0 JUMPDEST PUSH1 0x6 DUP2 GT ISZERO PUSH2 0x209 JUMPI PUSH1 0x40 MLOAD PUSH2 0x1010 SWAP1 DUP2 PUSH2 0x42A DUP3 CODECOPY RETURN JUMPDEST PUSH1 0x7 DUP2 LT ISZERO PUSH2 0x296 JUMPI PUSH1 0x40 MLOAD PUSH1 0x80 DUP2 ADD SWAP2 SWAP1 PUSH1 0x1 PUSH1 0x1 PUSH1 0x40 SHL SUB DUP4 GT DUP2 DUP5 LT OR PUSH2 0x280 JUMPI PUSH2 0x27B SWAP3 PUSH1 0x40 MSTORE PUSH1 0x46 DUP2 MSTORE PUSH1 0x3 PUSH1 0x20 DUP3 ADD PUSH3 0xED4E00 DUP2 MSTORE PUSH1 0x40 DUP4 ADD PUSH1 0x64 DUP2 MSTORE PUSH1 0x60 DUP5 ADD SWAP2 PUSH1 0x5 DUP4 MSTORE PUSH1 0x40 PUSH1 0x0 DUP8 DUP2 MSTORE PUSH1 0x2 PUSH1 0x20 MSTORE KECCAK256 SWAP5 MLOAD DUP6 SSTORE MLOAD PUSH1 0x1 DUP6 ADD SSTORE MLOAD PUSH1 0x2 DUP5 ADD SSTORE MLOAD SWAP2 ADD SSTORE PUSH2 0x394 JUMP JUMPDEST PUSH2 0x1F1 JUMP JUMPDEST PUSH4 0x4E487B71 PUSH1 0xE0 SHL PUSH1 0x0 MSTORE PUSH1 0x41 PUSH1 0x4 MSTORE PUSH1 0x24 PUSH1 0x0 REVERT JUMPDEST PUSH4 0x4E487B71 PUSH1 0xE0 SHL PUSH1 0x0 MSTORE PUSH1 0x21 PUSH1 0x4 MSTORE PUSH1 0x24 PUSH1 0x0 REVERT JUMPDEST PUSH1 0x7 DUP2 LT ISZERO PUSH2 0x296 JUMPI PUSH2 0x2D6 SWAP1 PUSH1 0x40 PUSH1 0x0 DUP3 DUP2 MSTORE PUSH1 0x1 PUSH1 0x20 MSTORE KECCAK256 PUSH1 0x1 PUSH1 0xFF NOT DUP3 SLOAD AND OR SWAP1 SSTORE PUSH2 0x394 JUMP JUMPDEST PUSH2 0x1E5 JUMP JUMPDEST DUP2 PUSH1 0x0 MSTORE PUSH1 0x1F PUSH1 0x20 PUSH1 0x0 KECCAK256 SWAP2 ADD PUSH1 0x5 SHR DUP2 ADD SWAP1 JUMPDEST DUP2 DUP2 LT PUSH2 0x2FC JUMPI POP PUSH2 0x176 JUMP JUMPDEST PUSH1 0x0 DUP2 SSTORE PUSH1 0x1 ADD PUSH2 0x2EF JUMP JUMPDEST DUP2 PUSH1 0x0 MSTORE PUSH1 0x1F PUSH1 0x20 PUSH1 0x0 KECCAK256 SWAP2 ADD PUSH1 0x5 SHR DUP2 ADD SWAP1 JUMPDEST DUP2 DUP2 LT PUSH2 0x329 JUMPI POP PUSH2 0x113 JUMP JUMPDEST PUSH1 0x0 DUP2 SSTORE PUSH1 0x1 ADD PUSH2 0x31C JUMP JUMPDEST DUP2 PUSH1 0x0 MSTORE PUSH1 0x1F PUSH1 0x20 PUSH1 0x0 KECCAK256 SWAP2 ADD PUSH1 0x5 SHR DUP2 ADD SWAP1 JUMPDEST DUP2 DUP2 LT PUSH2 0x356 JUMPI POP PUSH2 0xC4 JUMP JUMPDEST PUSH1 0x0 DUP2 SSTORE PUSH1 0x1 ADD PUSH2 0x349 JUMP JUMPDEST DUP2 PUSH1 0x0 MSTORE PUSH1 0x1F PUSH1 0x20 PUSH1 0x0 KECCAK256 SWAP2 ADD PUSH1 0x5 SHR DUP2 ADD SWAP1 JUMPDEST DUP2 DUP2 LT PUSH2 0x383 JUMPI POP PUSH2 0x78 JUMP JUMPDEST PUSH1 0x0 DUP2 SSTORE PUSH1 0x1 ADD PUSH2 0x376 JUMP JUMPDEST PUSH1 0x0 DUP1 REVERT JUMPDEST PUSH1 0x0 NOT DUP2 EQ PUSH2 0x3A3 JUMPI PUSH1 0x1 ADD SWAP1 JUMP JUMPDEST PUSH4 0x4E487B71 PUSH1 0xE0 SHL PUSH1 0x0 MSTORE PUSH1 0x11 PUSH1 0x4 MSTORE PUSH1 0x24 PUSH1 0x0 REVERT JUMPDEST SWAP1 PUSH1 0x1 DUP3 DUP2 SHR SWAP3 AND DUP1 ISZERO PUSH2 0x3E9 JUMPI JUMPDEST PUSH1 0x20 DUP4 LT EQ PUSH2 0x3D3 JUMPI JUMP JUMPDEST PUSH4 0x4E487B71 PUSH1 0xE0 SHL PUSH1 0x0 MSTORE PUSH1 0x22 PUSH1 0x4 MSTORE PUSH1 0x24 PUSH1 0x0 REVERT JUMPDEST SWAP2 PUSH1 0x7F AND SWAP2 PUSH2 0x3C8 JUMP JUMPDEST PUSH1 0x1F DUP3 GT PUSH2 0x3FF JUMPI POP POP JUMP JUMPDEST PUSH1 0x0 MSTORE PUSH1 0x1F PUSH1 0x20 PUSH1 0x0 KECCAK256 SWAP2 ADD PUSH1 0x5 SHR DUP2 ADD SWAP1 JUMPDEST DUP2 DUP2 LT PUSH2 0x41D JUMPI POP POP JUMP JUMPDEST PUSH1 0x0 DUP2 SSTORE PUSH1 0x1 ADD PUSH2 0x412 JUMP INVALID PUSH1 0x80 PUSH1 0x40 MSTORE PUSH1 0x4 CALLDATASIZE LT ISZERO PUSH2 0x12 JUMPI PUSH1 0x0 DUP1 REVERT JUMPDEST PUSH1 0x0 CALLDATALOAD PUSH1 0xE0 SHR DUP1 PUSH4 0x1178F841 EQ PUSH2 0xB0E JUMPI DUP1 PUSH4 0x1CE87EBB EQ PUSH2 0xADD JUMPI DUP1 PUSH4 0x35D335AF EQ PUSH2 0xA33 JUMPI DUP1 PUSH4 0x3A60A051 EQ PUSH2 0x9E0 JUMPI DUP1 PUSH4 0x3E293A6C EQ PUSH2 0x971 JUMPI DUP1 PUSH4 0x3F9A61E0 EQ PUSH2 0x8E5 JUMPI DUP1 PUSH4 0x4E2AD8EA EQ PUSH2 0x7B0 JUMPI DUP1 PUSH4 0x5F167487 EQ PUSH2 0x773 JUMPI DUP1 PUSH4 0x784940C5 EQ PUSH2 0x737 JUMPI DUP1 PUSH4 0x87288440 EQ PUSH2 0x6FB JUMPI DUP1 PUSH4 0x8A1943FD EQ PUSH2 0x66B JUMPI DUP1 PUSH4 0x9BAC92F3 EQ PUSH2 0x551 JUMPI DUP1 PUSH4 0xB51BCC0E EQ PUSH2 0x51B JUMPI DUP1 PUSH4 0xB81C6453 EQ PUSH2 0x1CF JUMPI DUP1 PUSH4 0xEB2F1610 EQ PUSH2 0x1AC JUMPI DUP1 PUSH4 0xEE0D70F4 EQ PUSH2 0x14C JUMPI PUSH4 0xFB716CBD EQ PUSH2 0xD7 JUMPI PUSH1 0x0 DUP1 REVERT JUMPDEST CALLVALUE PUSH2 0x147 JUMPI PUSH2 0xE5 CALLDATASIZE PUSH2 0xB73 JUMP JUMPDEST SWAP1 PUSH2 0xF8 PUSH2 0xF3 DUP3 CALLER PUSH2 0xF50 JUMP JUMPDEST PUSH2 0xDEF JUMP JUMPDEST DUP2 ISZERO PUSH2 0x10D JUMPI PUSH2 0x109 PUSH1 0x2 SWAP2 PUSH2 0xB92 JUMP JUMPDEST ADD SSTORE STOP JUMPDEST PUSH1 0x40 MLOAD PUSH3 0x461BCD PUSH1 0xE5 SHL DUP2 MSTORE PUSH1 0x20 PUSH1 0x4 DUP3 ADD MSTORE PUSH1 0x12 PUSH1 0x24 DUP3 ADD MSTORE PUSH18 0x125B9D985B1A59081D9BDD194818DBDD5B9D PUSH1 0x72 SHL PUSH1 0x44 DUP3 ADD MSTORE PUSH1 0x64 SWAP1 REVERT JUMPDEST PUSH1 0x0 DUP1 REVERT JUMPDEST CALLVALUE PUSH2 0x147 JUMPI PUSH1 0x20 CALLDATASIZE PUSH1 0x3 NOT ADD SLT PUSH2 0x147 JUMPI PUSH1 0x4 CALLDATALOAD PUSH1 0x1 PUSH1 0x1 PUSH1 0xA0 SHL SUB DUP2 AND SWAP1 DUP2 SWAP1 SUB PUSH2 0x147 JUMPI PUSH1 0x0 MSTORE PUSH1 0x4 PUSH1 0x20 MSTORE PUSH1 0xFF PUSH1 0x40 PUSH1 0x0 KECCAK256 SLOAD AND PUSH1 0x40 MLOAD PUSH1 0x7 DUP3 LT ISZERO PUSH2 0x196 JUMPI PUSH1 0x20 SWAP2 DUP2 MSTORE RETURN JUMPDEST PUSH4 0x4E487B71 PUSH1 0xE0 SHL PUSH1 0x0 MSTORE PUSH1 0x21 PUSH1 0x4 MSTORE PUSH1 0x24 PUSH1 0x0 REVERT JUMPDEST CALLVALUE PUSH2 0x147 JUMPI PUSH1 0x20 PUSH2 0x1C5 PUSH2 0x1BF CALLDATASIZE PUSH2 0xDC0 JUMP JUMPDEST SWAP1 PUSH2 0xF50 JUMP JUMPDEST PUSH1 0x40 MLOAD SWAP1 ISZERO ISZERO DUP2 MSTORE RETURN JUMPDEST CALLVALUE PUSH2 0x147 JUMPI PUSH2 0x1DD CALLDATASIZE PUSH2 0xC8A JUMP JUMPDEST PUSH2 0x1E6 DUP3 PUSH2 0xBF6 JUMP JUMPDEST CALLER PUSH1 0x0 SWAP1 DUP2 MSTORE PUSH1 0x20 SWAP2 SWAP1 SWAP2 MSTORE PUSH1 0x40 SWAP1 KECCAK256 SLOAD PUSH1 0xFF AND PUSH2 0x4E6 JUMPI PUSH1 0x1 PUSH1 0x1 PUSH1 0xA0 SHL SUB AND SWAP1 CALLER DUP3 EQ PUSH2 0x4AA JUMPI PUSH2 0x218 DUP2 PUSH2 0xBAB JUMP JUMPDEST SWAP1 PUSH1 0x0 SWAP2 DUP3 JUMPDEST DUP2 SLOAD DUP2 LT ISZERO PUSH2 0x4A2 JUMPI DUP5 PUSH2 0x232 DUP3 DUP5 PUSH2 0xC0F JUMP JUMPDEST POP SLOAD PUSH1 0x1 PUSH1 0x1 PUSH1 0xA0 SHL SUB AND EQ PUSH2 0x24A JUMPI PUSH1 0x1 ADD PUSH2 0x21E JUMP JUMPDEST SWAP2 SWAP3 POP DUP1 PUSH1 0x1 PUSH2 0x25B DUP5 DUP1 SWAP5 PUSH2 0xC0F JUMP JUMPDEST POP ADD PUSH2 0x267 DUP2 SLOAD PUSH2 0xF06 JUMP JUMPDEST SWAP1 SSTORE PUSH2 0x276 PUSH1 0x1 SWAP4 DUP5 SWAP3 PUSH2 0xC0F JUMP JUMPDEST POP ADD SLOAD PUSH1 0x2 PUSH2 0x284 DUP6 PUSH2 0xB92 JUMP JUMPDEST ADD SLOAD GT ISZERO PUSH2 0x34E JUMPI JUMPDEST POP JUMPDEST ISZERO PUSH2 0x313 JUMPI PUSH2 0x29D DUP2 PUSH2 0xBF6 JUMP JUMPDEST CALLER PUSH1 0x0 SWAP1 DUP2 MSTORE PUSH1 0x20 SWAP2 SWAP1 SWAP2 MSTORE PUSH1 0x40 SWAP1 KECCAK256 DUP1 SLOAD PUSH1 0xFF NOT AND PUSH1 0x1 OR SWAP1 SSTORE PUSH2 0x2C1 DUP2 PUSH2 0xBDD JUMP JUMPDEST CALLER PUSH1 0x0 SWAP1 DUP2 MSTORE PUSH1 0x20 SWAP2 SWAP1 SWAP2 MSTORE PUSH1 0x40 SWAP1 KECCAK256 DUP1 SLOAD PUSH1 0x1 PUSH1 0x1 PUSH1 0xA0 SHL SUB NOT AND DUP4 OR SWAP1 SSTORE PUSH1 0x7 DUP2 LT ISZERO PUSH2 0x196 JUMPI CALLER SWAP1 PUSH32 0x8084D6C9657CF625AABD090126FEDBC9F3DB46379D9518F9591CC324BFA8E62B PUSH1 0x0 DUP1 LOG4 STOP JUMPDEST PUSH1 0x40 MLOAD PUSH3 0x461BCD PUSH1 0xE5 SHL DUP2 MSTORE PUSH1 0x20 PUSH1 0x4 DUP3 ADD MSTORE PUSH1 0x13 PUSH1 0x24 DUP3 ADD MSTORE PUSH19 0x10D85B991A59185D19481B9BDD08199BDD5B99 PUSH1 0x6A SHL PUSH1 0x44 DUP3 ADD MSTORE PUSH1 0x64 SWAP1 REVERT JUMPDEST PUSH2 0x360 SWAP1 PUSH2 0x35B DUP5 PUSH2 0xBAB JUMP JUMPDEST PUSH2 0xC0F JUMP JUMPDEST POP PUSH1 0x4 DUP2 ADD DUP1 SLOAD PUSH2 0x374 PUSH1 0xFF DUP3 AND ISZERO PUSH2 0xE2B JUMP JUMPDEST PUSH1 0x0 DUP5 DUP2 DUP2 JUMPDEST PUSH2 0x457 JUMPI JUMPDEST POP POP PUSH1 0x3 PUSH2 0x38C DUP8 PUSH2 0xB92 JUMP JUMPDEST ADD SLOAD GT ISZERO PUSH2 0x41B JUMPI PUSH1 0xFF NOT AND DUP4 OR SWAP1 SSTORE TIMESTAMP PUSH1 0x2 DUP3 ADD SSTORE PUSH2 0x3B7 DUP3 PUSH2 0x3AF DUP6 PUSH2 0xB92 JUMP JUMPDEST ADD SLOAD TIMESTAMP PUSH2 0xF2B JUMP JUMPDEST PUSH1 0x3 DUP3 ADD SSTORE PUSH1 0x1 DUP1 PUSH1 0xA0 SHL SUB DUP2 SLOAD AND PUSH1 0x0 MSTORE PUSH1 0x4 PUSH1 0x20 MSTORE PUSH2 0x3DC DUP4 PUSH1 0x40 PUSH1 0x0 KECCAK256 PUSH2 0xF38 JUMP JUMPDEST SLOAD PUSH1 0x1 PUSH1 0x1 PUSH1 0xA0 SHL SUB AND PUSH1 0x7 DUP4 LT ISZERO PUSH2 0x196 JUMPI DUP3 PUSH32 0xF969F9B89705FE938FD03AAF3F2B546C05FA9212D04EDC8753388DE4409D1863 PUSH1 0x0 DUP1 LOG3 DUP4 PUSH2 0x28D JUMP JUMPDEST PUSH1 0x40 MLOAD PUSH3 0x461BCD PUSH1 0xE5 SHL DUP2 MSTORE PUSH1 0x20 PUSH1 0x4 DUP3 ADD MSTORE PUSH1 0x14 PUSH1 0x24 DUP3 ADD MSTORE PUSH20 0x13585E081CD95B985D1BDC9CC81C995858DA1959 PUSH1 0x62 SHL PUSH1 0x44 DUP3 ADD MSTORE PUSH1 0x64 SWAP1 REVERT JUMPDEST PUSH2 0x460 DUP9 PUSH2 0xBAB JUMP JUMPDEST SLOAD DUP2 LT ISZERO PUSH2 0x49D JUMPI PUSH1 0xFF PUSH1 0x4 PUSH2 0x479 DUP4 PUSH2 0x35B DUP13 PUSH2 0xBAB JUMP JUMPDEST POP ADD SLOAD AND PUSH2 0x48A JUMPI JUMPDEST DUP2 ADD DUP2 PUSH2 0x37A JUMP JUMPDEST SWAP2 PUSH2 0x495 DUP3 SWAP2 PUSH2 0xF06 JUMP JUMPDEST SWAP3 SWAP1 POP PUSH2 0x482 JUMP JUMPDEST PUSH2 0x37F JUMP JUMPDEST POP POP SWAP1 PUSH2 0x28F JUMP JUMPDEST PUSH1 0x40 MLOAD PUSH3 0x461BCD PUSH1 0xE5 SHL DUP2 MSTORE PUSH1 0x20 PUSH1 0x4 DUP3 ADD MSTORE PUSH1 0x14 PUSH1 0x24 DUP3 ADD MSTORE PUSH20 0x21B0B73737BA103B37BA32903337B91039B2B633 PUSH1 0x61 SHL PUSH1 0x44 DUP3 ADD MSTORE PUSH1 0x64 SWAP1 REVERT JUMPDEST PUSH1 0x40 MLOAD PUSH3 0x461BCD PUSH1 0xE5 SHL DUP2 MSTORE PUSH1 0x20 PUSH1 0x4 DUP3 ADD MSTORE PUSH1 0xD PUSH1 0x24 DUP3 ADD MSTORE PUSH13 0x105B1C9958591E481D9BDD1959 PUSH1 0x9A SHL PUSH1 0x44 DUP3 ADD MSTORE PUSH1 0x64 SWAP1 REVERT JUMPDEST CALLVALUE PUSH2 0x147 JUMPI PUSH1 0x20 CALLDATASIZE PUSH1 0x3 NOT ADD SLT PUSH2 0x147 JUMPI PUSH1 0x4 CALLDATALOAD PUSH1 0x7 DUP2 LT ISZERO PUSH2 0x147 JUMPI PUSH1 0xFF PUSH2 0x545 PUSH1 0x20 SWAP3 PUSH2 0xBC4 JUMP JUMPDEST SLOAD AND PUSH1 0x40 MLOAD SWAP1 ISZERO ISZERO DUP2 MSTORE RETURN JUMPDEST CALLVALUE PUSH2 0x147 JUMPI PUSH2 0x55F CALLDATASIZE PUSH2 0xDC0 JUMP JUMPDEST PUSH1 0x1 PUSH1 0x1 PUSH1 0xA0 SHL SUB SWAP1 SWAP2 AND SWAP1 DUP2 ISZERO PUSH2 0x626 JUMPI DUP2 PUSH1 0x0 MSTORE PUSH1 0x4 PUSH1 0x20 MSTORE PUSH1 0xFF PUSH1 0x40 PUSH1 0x0 KECCAK256 SLOAD AND PUSH1 0x7 DUP2 LT ISZERO PUSH2 0x196 JUMPI PUSH2 0x596 SWAP1 ISZERO PUSH2 0xE2B JUMP JUMPDEST PUSH2 0x5DF PUSH2 0x5A2 DUP3 PUSH2 0xBAB JUMP JUMPDEST PUSH2 0x5B0 PUSH1 0x1 PUSH2 0x3AF DUP6 PUSH2 0xB92 JUMP JUMPDEST SWAP1 PUSH1 0x40 MLOAD SWAP2 PUSH2 0x5BE DUP4 PUSH2 0xCB9 JUMP JUMPDEST DUP6 DUP4 MSTORE PUSH1 0x0 PUSH1 0x20 DUP5 ADD MSTORE TIMESTAMP PUSH1 0x40 DUP5 ADD MSTORE PUSH1 0x60 DUP4 ADD MSTORE PUSH1 0x1 PUSH1 0x80 DUP4 ADD MSTORE PUSH2 0xE6B JUMP JUMPDEST DUP2 PUSH1 0x0 MSTORE PUSH1 0x4 PUSH1 0x20 MSTORE PUSH2 0x5F6 DUP2 PUSH1 0x40 PUSH1 0x0 KECCAK256 PUSH2 0xF38 JUMP JUMPDEST PUSH1 0x7 DUP2 LT ISZERO PUSH2 0x196 JUMPI PUSH32 0xF969F9B89705FE938FD03AAF3F2B546C05FA9212D04EDC8753388DE4409D1863 PUSH1 0x0 DUP1 LOG3 STOP JUMPDEST PUSH1 0x40 MLOAD PUSH3 0x461BCD PUSH1 0xE5 SHL DUP2 MSTORE PUSH1 0x20 PUSH1 0x4 DUP3 ADD MSTORE PUSH1 0x17 PUSH1 0x24 DUP3 ADD MSTORE PUSH32 0x496E76616C69642073656E61746F722061646472657373000000000000000000 PUSH1 0x44 DUP3 ADD MSTORE PUSH1 0x64 SWAP1 REVERT JUMPDEST CALLVALUE PUSH2 0x147 JUMPI PUSH1 0x20 CALLDATASIZE PUSH1 0x3 NOT ADD SLT PUSH2 0x147 JUMPI PUSH1 0x4 CALLDATALOAD PUSH1 0x7 DUP2 LT ISZERO PUSH2 0x147 JUMPI PUSH2 0x693 PUSH1 0x0 SWAP2 PUSH2 0xBAB JUMP JUMPDEST DUP1 SLOAD SWAP1 PUSH1 0x0 JUMPDEST DUP3 DUP2 LT PUSH2 0x6AB JUMPI PUSH1 0x20 DUP5 PUSH1 0x40 MLOAD SWAP1 DUP2 MSTORE RETURN JUMPDEST PUSH1 0xFF PUSH1 0x4 PUSH2 0x6B9 DUP4 DUP6 PUSH2 0xC0F JUMP JUMPDEST POP ADD SLOAD AND DUP1 PUSH2 0x6E4 JUMPI JUMPDEST PUSH2 0x6D0 JUMPI JUMPDEST PUSH1 0x1 ADD PUSH2 0x699 JUMP JUMPDEST SWAP3 PUSH2 0x6DC PUSH1 0x1 SWAP2 PUSH2 0xF06 JUMP JUMPDEST SWAP4 SWAP1 POP PUSH2 0x6C8 JUMP JUMPDEST POP PUSH1 0x3 PUSH2 0x6F1 DUP3 DUP5 PUSH2 0xC0F JUMP JUMPDEST POP ADD SLOAD TIMESTAMP LT PUSH2 0x6C3 JUMP JUMPDEST CALLVALUE PUSH2 0x147 JUMPI PUSH2 0x713 PUSH2 0x70C CALLDATASIZE PUSH2 0xC8A JUMP JUMPDEST SWAP2 SWAP1 PUSH2 0xBF6 JUMP JUMPDEST SWAP1 PUSH1 0x1 DUP1 PUSH1 0xA0 SHL SUB AND PUSH1 0x0 MSTORE PUSH1 0x20 MSTORE PUSH1 0x20 PUSH1 0xFF PUSH1 0x40 PUSH1 0x0 KECCAK256 SLOAD AND PUSH1 0x40 MLOAD SWAP1 ISZERO ISZERO DUP2 MSTORE RETURN JUMPDEST CALLVALUE PUSH2 0x147 JUMPI PUSH1 0x20 CALLDATASIZE PUSH1 0x3 NOT ADD SLT PUSH2 0x147 JUMPI PUSH1 0x4 CALLDATALOAD PUSH1 0x0 MSTORE PUSH1 0x0 PUSH1 0x20 MSTORE PUSH2 0x76F PUSH2 0x763 PUSH1 0x40 PUSH1 0x0 KECCAK256 PUSH2 0xCEB JUMP JUMPDEST PUSH1 0x40 MLOAD SWAP2 DUP3 SWAP2 DUP3 PUSH2 0xC41 JUMP JUMPDEST SUB SWAP1 RETURN JUMPDEST CALLVALUE PUSH2 0x147 JUMPI PUSH2 0x78B PUSH2 0x784 CALLDATASIZE PUSH2 0xC8A JUMP JUMPDEST SWAP2 SWAP1 PUSH2 0xBDD JUMP JUMPDEST PUSH1 0x1 PUSH1 0x1 PUSH1 0xA0 SHL SUB SWAP2 DUP3 AND PUSH1 0x0 SWAP1 DUP2 MSTORE PUSH1 0x20 SWAP2 DUP3 MSTORE PUSH1 0x40 SWAP1 DUP2 SWAP1 KECCAK256 SLOAD SWAP1 MLOAD SWAP3 AND DUP3 MSTORE SWAP1 RETURN JUMPDEST CALLVALUE PUSH2 0x147 JUMPI PUSH1 0x20 CALLDATASIZE PUSH1 0x3 NOT ADD SLT PUSH2 0x147 JUMPI PUSH1 0x4 CALLDATALOAD PUSH1 0x7 DUP2 LT ISZERO PUSH2 0x147 JUMPI PUSH1 0xFF PUSH2 0x7D8 DUP3 PUSH2 0xBC4 JUMP JUMPDEST SLOAD AND ISZERO PUSH2 0x8AD JUMPI CALLER PUSH1 0x0 MSTORE PUSH1 0x4 PUSH1 0x20 MSTORE PUSH1 0xFF PUSH1 0x40 PUSH1 0x0 KECCAK256 SLOAD AND SWAP1 PUSH1 0x7 DUP3 LT ISZERO PUSH2 0x196 JUMPI PUSH2 0x808 PUSH2 0x80D SWAP3 ISZERO PUSH2 0xE2B JUMP JUMPDEST PUSH2 0xBAB JUMP JUMPDEST DUP1 SLOAD SWAP1 PUSH1 0x0 JUMPDEST DUP3 DUP2 LT PUSH2 0x851 JUMPI PUSH2 0x84F DUP3 PUSH1 0x40 MLOAD SWAP1 PUSH2 0x82B DUP3 PUSH2 0xCB9 JUMP JUMPDEST CALLER DUP3 MSTORE PUSH1 0x0 PUSH1 0x20 DUP4 ADD MSTORE PUSH1 0x0 PUSH1 0x40 DUP4 ADD MSTORE PUSH1 0x0 PUSH1 0x60 DUP4 ADD MSTORE PUSH1 0x0 PUSH1 0x80 DUP4 ADD MSTORE PUSH2 0xE6B JUMP JUMPDEST STOP JUMPDEST PUSH2 0x85B DUP2 DUP4 PUSH2 0xC0F JUMP JUMPDEST POP SLOAD PUSH1 0x1 PUSH1 0x1 PUSH1 0xA0 SHL SUB AND CALLER EQ PUSH2 0x874 JUMPI PUSH1 0x1 ADD PUSH2 0x813 JUMP JUMPDEST PUSH1 0x40 MLOAD PUSH3 0x461BCD PUSH1 0xE5 SHL DUP2 MSTORE PUSH1 0x20 PUSH1 0x4 DUP3 ADD MSTORE PUSH1 0x11 PUSH1 0x24 DUP3 ADD MSTORE PUSH17 0x105B1C9958591E481B9BDB5A5B985D1959 PUSH1 0x7A SHL PUSH1 0x44 DUP3 ADD MSTORE PUSH1 0x64 SWAP1 REVERT JUMPDEST PUSH1 0x40 MLOAD PUSH3 0x461BCD PUSH1 0xE5 SHL DUP2 MSTORE PUSH1 0x20 PUSH1 0x4 DUP3 ADD MSTORE PUSH1 0x10 PUSH1 0x24 DUP3 ADD MSTORE PUSH16 0x496E76616C69642063617465676F7279 PUSH1 0x80 SHL PUSH1 0x44 DUP3 ADD MSTORE PUSH1 0x64 SWAP1 REVERT JUMPDEST CALLVALUE PUSH2 0x147 JUMPI PUSH1 0x20 CALLDATASIZE PUSH1 0x3 NOT ADD SLT PUSH2 0x147 JUMPI PUSH1 0x4 CALLDATALOAD PUSH1 0x7 DUP2 LT ISZERO PUSH2 0x147 JUMPI PUSH1 0xFF PUSH2 0x90D DUP3 PUSH2 0xBC4 JUMP JUMPDEST SLOAD AND ISZERO PUSH2 0x92C JUMPI PUSH1 0x0 MSTORE PUSH1 0x0 PUSH1 0x20 MSTORE PUSH2 0x76F PUSH2 0x763 PUSH1 0x40 PUSH1 0x0 KECCAK256 PUSH2 0xCEB JUMP JUMPDEST PUSH1 0x40 MLOAD PUSH3 0x461BCD PUSH1 0xE5 SHL DUP2 MSTORE PUSH1 0x20 PUSH1 0x4 DUP3 ADD MSTORE PUSH1 0x17 PUSH1 0x24 DUP3 ADD MSTORE PUSH32 0x43617465676F727920646F6573206E6F74206578697374000000000000000000 PUSH1 0x44 DUP3 ADD MSTORE PUSH1 0x64 SWAP1 REVERT JUMPDEST CALLVALUE PUSH2 0x147 JUMPI PUSH2 0x989 PUSH2 0x982 CALLDATASIZE PUSH2 0xB73 JUMP JUMPDEST SWAP2 SWAP1 PUSH2 0xBAB JUMP JUMPDEST DUP1 SLOAD DUP3 LT ISZERO PUSH2 0x147 JUMPI PUSH1 0xA0 SWAP2 PUSH2 0x99E SWAP2 PUSH2 0xC0F JUMP JUMPDEST POP PUSH1 0x1 DUP1 DUP4 SHL SUB DUP2 SLOAD AND SWAP1 PUSH1 0x1 DUP2 ADD SLOAD SWAP1 PUSH1 0x2 DUP2 ADD SLOAD PUSH1 0xFF PUSH1 0x4 PUSH1 0x3 DUP5 ADD SLOAD SWAP4 ADD SLOAD AND SWAP3 PUSH1 0x40 MLOAD SWAP5 DUP6 MSTORE PUSH1 0x20 DUP6 ADD MSTORE PUSH1 0x40 DUP5 ADD MSTORE PUSH1 0x60 DUP4 ADD MSTORE ISZERO ISZERO PUSH1 0x80 DUP3 ADD MSTORE RETURN JUMPDEST CALLVALUE PUSH2 0x147 JUMPI PUSH1 0x20 CALLDATASIZE PUSH1 0x3 NOT ADD SLT PUSH2 0x147 JUMPI PUSH1 0x4 CALLDATALOAD PUSH1 0x7 DUP2 LT ISZERO PUSH2 0x147 JUMPI PUSH2 0xA08 PUSH1 0x80 SWAP2 PUSH2 0xB92 JUMP JUMPDEST DUP1 SLOAD SWAP1 PUSH1 0x1 DUP2 ADD SLOAD SWAP1 PUSH1 0x3 PUSH1 0x2 DUP3 ADD SLOAD SWAP2 ADD SLOAD SWAP2 PUSH1 0x40 MLOAD SWAP4 DUP5 MSTORE PUSH1 0x20 DUP5 ADD MSTORE PUSH1 0x40 DUP4 ADD MSTORE PUSH1 0x60 DUP3 ADD MSTORE RETURN JUMPDEST CALLVALUE PUSH2 0x147 JUMPI PUSH2 0xA41 CALLDATASIZE PUSH2 0xB73 JUMP JUMPDEST PUSH2 0xA4E PUSH2 0xF3 DUP4 CALLER PUSH2 0xF50 JUMP JUMPDEST DUP1 ISZERO ISZERO DUP1 PUSH2 0xAD2 JUMPI JUMPDEST ISZERO PUSH2 0xA9D JUMPI DUP1 PUSH2 0xA66 DUP4 PUSH2 0xB92 JUMP JUMPDEST SSTORE PUSH1 0x7 DUP3 LT ISZERO PUSH2 0x196 JUMPI PUSH1 0x20 PUSH32 0xBB28B82677B93F9743C8CB95950CA0AD87F5CA3D90BBB90BCB80F530208189B5 SWAP2 PUSH1 0x40 MLOAD SWAP1 DUP2 MSTORE LOG2 STOP JUMPDEST PUSH1 0x40 MLOAD PUSH3 0x461BCD PUSH1 0xE5 SHL DUP2 MSTORE PUSH1 0x20 PUSH1 0x4 DUP3 ADD MSTORE PUSH1 0xD PUSH1 0x24 DUP3 ADD MSTORE PUSH13 0x496E76616C69642073636F7265 PUSH1 0x98 SHL PUSH1 0x44 DUP3 ADD MSTORE PUSH1 0x64 SWAP1 REVERT JUMPDEST POP PUSH1 0x64 DUP2 GT ISZERO PUSH2 0xA57 JUMP JUMPDEST CALLVALUE PUSH2 0x147 JUMPI PUSH1 0x20 CALLDATASIZE PUSH1 0x3 NOT ADD SLT PUSH2 0x147 JUMPI PUSH1 0x4 CALLDATALOAD PUSH1 0x7 DUP2 LT ISZERO PUSH2 0x147 JUMPI PUSH2 0xB05 PUSH1 0x20 SWAP2 PUSH2 0xB92 JUMP JUMPDEST SLOAD PUSH1 0x40 MLOAD SWAP1 DUP2 MSTORE RETURN JUMPDEST CALLVALUE PUSH2 0x147 JUMPI PUSH2 0xB1C CALLDATASIZE PUSH2 0xB73 JUMP JUMPDEST SWAP1 PUSH2 0xB2A PUSH2 0xF3 DUP3 CALLER PUSH2 0xF50 JUMP JUMPDEST DUP2 ISZERO PUSH2 0xB3B JUMPI PUSH2 0x109 PUSH1 0x1 SWAP2 PUSH2 0xB92 JUMP JUMPDEST PUSH1 0x40 MLOAD PUSH3 0x461BCD PUSH1 0xE5 SHL DUP2 MSTORE PUSH1 0x20 PUSH1 0x4 DUP3 ADD MSTORE PUSH1 0x10 PUSH1 0x24 DUP3 ADD MSTORE PUSH16 0x24B73B30B634B210323AB930BA34B7B7 PUSH1 0x81 SHL PUSH1 0x44 DUP3 ADD MSTORE PUSH1 0x64 SWAP1 REVERT JUMPDEST PUSH1 0x40 SWAP1 PUSH1 0x3 NOT ADD SLT PUSH2 0x147 JUMPI PUSH1 0x4 CALLDATALOAD PUSH1 0x7 DUP2 LT ISZERO PUSH2 0x147 JUMPI SWAP1 PUSH1 0x24 CALLDATALOAD SWAP1 JUMP JUMPDEST PUSH1 0x7 DUP2 LT ISZERO PUSH2 0x196 JUMPI PUSH1 0x0 MSTORE PUSH1 0x2 PUSH1 0x20 MSTORE PUSH1 0x40 PUSH1 0x0 KECCAK256 SWAP1 JUMP JUMPDEST PUSH1 0x7 DUP2 LT ISZERO PUSH2 0x196 JUMPI PUSH1 0x0 MSTORE PUSH1 0x3 PUSH1 0x20 MSTORE PUSH1 0x40 PUSH1 0x0 KECCAK256 SWAP1 JUMP JUMPDEST PUSH1 0x7 DUP2 LT ISZERO PUSH2 0x196 JUMPI PUSH1 0x0 MSTORE PUSH1 0x1 PUSH1 0x20 MSTORE PUSH1 0x40 PUSH1 0x0 KECCAK256 SWAP1 JUMP JUMPDEST PUSH1 0x7 DUP2 LT ISZERO PUSH2 0x196 JUMPI PUSH1 0x0 MSTORE PUSH1 0x6 PUSH1 0x20 MSTORE PUSH1 0x40 PUSH1 0x0 KECCAK256 SWAP1 JUMP JUMPDEST PUSH1 0x7 DUP2 LT ISZERO PUSH2 0x196 JUMPI PUSH1 0x0 MSTORE PUSH1 0x5 PUSH1 0x20 MSTORE PUSH1 0x40 PUSH1 0x0 KECCAK256 SWAP1 JUMP JUMPDEST DUP1 SLOAD DUP3 LT ISZERO PUSH2 0xC2B JUMPI PUSH1 0x0 MSTORE PUSH1 0x5 PUSH1 0x20 PUSH1 0x0 KECCAK256 SWAP2 MUL ADD SWAP1 PUSH1 0x0 SWAP1 JUMP JUMPDEST PUSH4 0x4E487B71 PUSH1 0xE0 SHL PUSH1 0x0 MSTORE PUSH1 0x32 PUSH1 0x4 MSTORE PUSH1 0x24 PUSH1 0x0 REVERT JUMPDEST SWAP2 SWAP1 SWAP2 PUSH1 0x20 DUP2 MSTORE DUP3 MLOAD DUP1 PUSH1 0x20 DUP4 ADD MSTORE PUSH1 0x0 JUMPDEST DUP2 DUP2 LT PUSH2 0xC74 JUMPI POP PUSH1 0x40 SWAP3 SWAP4 POP PUSH1 0x0 DUP4 DUP3 DUP5 ADD ADD MSTORE PUSH1 0x1F DUP1 NOT SWAP2 ADD AND ADD ADD SWAP1 JUMP JUMPDEST DUP1 PUSH1 0x20 DUP1 SWAP3 DUP8 ADD ADD MLOAD PUSH1 0x40 DUP3 DUP7 ADD ADD MSTORE ADD PUSH2 0xC53 JUMP JUMPDEST PUSH1 0x40 SWAP1 PUSH1 0x3 NOT ADD SLT PUSH2 0x147 JUMPI PUSH1 0x4 CALLDATALOAD PUSH1 0x7 DUP2 LT ISZERO PUSH2 0x147 JUMPI SWAP1 PUSH1 0x24 CALLDATALOAD PUSH1 0x1 PUSH1 0x1 PUSH1 0xA0 SHL SUB DUP2 AND DUP2 SUB PUSH2 0x147 JUMPI SWAP1 JUMP JUMPDEST PUSH1 0xA0 DUP2 ADD SWAP1 DUP2 LT PUSH8 0xFFFFFFFFFFFFFFFF DUP3 GT OR PUSH2 0xCD5 JUMPI PUSH1 0x40 MSTORE JUMP JUMPDEST PUSH4 0x4E487B71 PUSH1 0xE0 SHL PUSH1 0x0 MSTORE PUSH1 0x41 PUSH1 0x4 MSTORE PUSH1 0x24 PUSH1 0x0 REVERT JUMPDEST SWAP1 PUSH1 0x40 MLOAD SWAP2 PUSH1 0x0 SWAP1 DUP1 SLOAD SWAP1 DUP2 PUSH1 0x1 SHR SWAP2 PUSH1 0x1 DUP2 AND DUP1 ISZERO PUSH2 0xDB6 JUMPI JUMPDEST PUSH1 0x20 DUP5 LT DUP2 EQ PUSH2 0xDA2 JUMPI DUP4 DUP8 MSTORE SWAP1 DUP2 ISZERO PUSH2 0xD84 JUMPI POP PUSH1 0x1 EQ PUSH2 0xD49 JUMPI JUMPDEST POP POP DUP3 SWAP1 SUB PUSH1 0x1F ADD PUSH1 0x1F NOT AND DUP3 ADD PUSH8 0xFFFFFFFFFFFFFFFF DUP2 GT DUP4 DUP3 LT OR PUSH2 0xCD5 JUMPI PUSH1 0x40 MSTORE JUMP JUMPDEST SWAP1 SWAP2 POP PUSH1 0x0 MSTORE PUSH1 0x20 PUSH1 0x0 KECCAK256 PUSH1 0x0 SWAP1 JUMPDEST DUP3 DUP3 LT PUSH2 0xD6E JUMPI POP PUSH1 0x20 SWAP2 POP DUP4 ADD ADD CODESIZE DUP1 PUSH2 0xD23 JUMP JUMPDEST PUSH1 0x1 DUP2 PUSH1 0x20 SWAP3 SLOAD DUP4 DUP6 DUP10 ADD ADD MSTORE ADD SWAP2 ADD SWAP1 PUSH2 0xD58 JUMP JUMPDEST SWAP2 POP POP PUSH1 0x20 SWAP3 POP PUSH1 0xFF NOT AND DUP3 DUP6 ADD MSTORE ISZERO ISZERO PUSH1 0x5 SHL DUP4 ADD ADD CODESIZE DUP1 PUSH2 0xD23 JUMP JUMPDEST PUSH4 0x4E487B71 PUSH1 0xE0 SHL DUP6 MSTORE PUSH1 0x22 PUSH1 0x4 MSTORE PUSH1 0x24 DUP6 REVERT JUMPDEST SWAP3 PUSH1 0x7F AND SWAP3 PUSH2 0xD06 JUMP JUMPDEST PUSH1 0x40 SWAP1 PUSH1 0x3 NOT ADD SLT PUSH2 0x147 JUMPI PUSH1 0x4 CALLDATALOAD PUSH1 0x1 PUSH1 0x1 PUSH1 0xA0 SHL SUB DUP2 AND DUP2 SUB PUSH2 0x147 JUMPI SWAP1 PUSH1 0x24 CALLDATALOAD PUSH1 0x7 DUP2 LT ISZERO PUSH2 0x147 JUMPI SWAP1 JUMP JUMPDEST ISZERO PUSH2 0xDF6 JUMPI JUMP JUMPDEST PUSH1 0x40 MLOAD PUSH3 0x461BCD PUSH1 0xE5 SHL DUP2 MSTORE PUSH1 0x20 PUSH1 0x4 DUP3 ADD MSTORE PUSH1 0xD PUSH1 0x24 DUP3 ADD MSTORE PUSH13 0x2737BA10309039B2B730BA37B9 PUSH1 0x99 SHL PUSH1 0x44 DUP3 ADD MSTORE PUSH1 0x64 SWAP1 REVERT JUMPDEST ISZERO PUSH2 0xE32 JUMPI JUMP JUMPDEST PUSH1 0x40 MLOAD PUSH3 0x461BCD PUSH1 0xE5 SHL DUP2 MSTORE PUSH1 0x20 PUSH1 0x4 DUP3 ADD MSTORE PUSH1 0x11 PUSH1 0x24 DUP3 ADD MSTORE PUSH17 0x20B63932B0B23C90309039B2B730BA37B9 PUSH1 0x79 SHL PUSH1 0x44 DUP3 ADD MSTORE PUSH1 0x64 SWAP1 REVERT JUMPDEST DUP1 SLOAD PUSH9 0x10000000000000000 DUP2 LT ISZERO PUSH2 0xCD5 JUMPI PUSH2 0xE8D SWAP2 PUSH1 0x1 DUP3 ADD DUP2 SSTORE PUSH2 0xC0F JUMP JUMPDEST PUSH2 0xEF0 JUMPI PUSH1 0x4 PUSH1 0x80 SWAP2 PUSH1 0x1 DUP1 PUSH1 0xA0 SHL SUB PUSH1 0x1 DUP1 PUSH1 0xA0 SHL SUB DUP6 MLOAD AND AND PUSH12 0xFFFFFFFFFFFFFFFFFFFFFFFF PUSH1 0xA0 SHL DUP3 SLOAD AND OR DUP2 SSTORE PUSH1 0x20 DUP5 ADD MLOAD PUSH1 0x1 DUP3 ADD SSTORE PUSH1 0x40 DUP5 ADD MLOAD PUSH1 0x2 DUP3 ADD SSTORE PUSH1 0x60 DUP5 ADD MLOAD PUSH1 0x3 DUP3 ADD SSTORE ADD SWAP2 ADD MLOAD ISZERO ISZERO PUSH1 0xFF DUP1 NOT DUP4 SLOAD AND SWAP2 AND OR SWAP1 SSTORE JUMP JUMPDEST PUSH4 0x4E487B71 PUSH1 0xE0 SHL PUSH1 0x0 MSTORE PUSH1 0x0 PUSH1 0x4 MSTORE PUSH1 0x24 PUSH1 0x0 REVERT JUMPDEST PUSH1 0x0 NOT DUP2 EQ PUSH2 0xF15 JUMPI PUSH1 0x1 ADD SWAP1 JUMP JUMPDEST PUSH4 0x4E487B71 PUSH1 0xE0 SHL PUSH1 0x0 MSTORE PUSH1 0x11 PUSH1 0x4 MSTORE PUSH1 0x24 PUSH1 0x0 REVERT JUMPDEST SWAP2 SWAP1 DUP3 ADD DUP1 SWAP3 GT PUSH2 0xF15 JUMPI JUMP JUMPDEST SWAP1 PUSH1 0x7 DUP2 LT ISZERO PUSH2 0x196 JUMPI PUSH1 0xFF DUP1 NOT DUP4 SLOAD AND SWAP2 AND OR SWAP1 SSTORE JUMP JUMPDEST SWAP1 PUSH2 0xF5A SWAP1 PUSH2 0xBAB JUMP JUMPDEST DUP1 SLOAD SWAP2 PUSH1 0x0 JUMPDEST DUP4 DUP2 LT PUSH2 0xF70 JUMPI POP POP POP POP PUSH1 0x0 SWAP1 JUMP JUMPDEST PUSH2 0xF7A DUP2 DUP5 PUSH2 0xC0F JUMP JUMPDEST POP SLOAD PUSH1 0x1 PUSH1 0x1 PUSH1 0xA0 SHL SUB DUP4 DUP2 AND SWAP2 AND EQ DUP1 PUSH2 0xFC2 JUMPI JUMPDEST DUP1 PUSH2 0xFAB JUMPI JUMPDEST PUSH2 0xFA2 JUMPI PUSH1 0x1 ADD PUSH2 0xF60 JUMP JUMPDEST POP POP POP POP PUSH1 0x1 SWAP1 JUMP JUMPDEST POP PUSH1 0x3 PUSH2 0xFB8 DUP3 DUP6 PUSH2 0xC0F JUMP JUMPDEST POP ADD SLOAD TIMESTAMP LT PUSH2 0xF96 JUMP JUMPDEST POP PUSH1 0xFF PUSH1 0x4 PUSH2 0xFD1 DUP4 DUP7 PUSH2 0xC0F JUMP JUMPDEST POP ADD SLOAD AND PUSH2 0xF90 JUMP INVALID LOG2 PUSH5 0x6970667358 0x22 SLT KECCAK256 0xCA LOG4 SIGNEXTEND SWAP2 SHR 0xEA DUP2 PUSH30 0x65CE1B8965E6F9FA10334AAC6F188AF2E84ACA62D90F0D4A64736F6C6343 STOP ADDMOD SHR STOP CALLER "},"methodIdentifiers":{"addSenator(address,uint8)":"9bac92f3","categoryExists(uint8)":"b51bcc0e","categoryNames(uint256)":"784940c5","getActiveSenatorCount(uint8)":"8a1943fd","getCategoryName(uint8)":"3f9a61e0","getMinPassScore(uint8)":"1ce87ebb","hasVoted(uint8,address)":"87288440","isSenator(address,uint8)":"eb2f1610","nominate(uint8)":"4e2ad8ea","senateConfigs(uint8)":"3a60a051","senatorCategories(address)":"ee0d70f4","senators(uint8,uint256)":"3e293a6c","updateMinPassScore(uint8,uint256)":"35d335af","updateMinVotesToElect(uint8,uint256)":"fb716cbd","updateTermDuration(uint8,uint256)":"1178f841","vote(uint8,address)":"b81c6453","votedFor(uint8,address)":"5f167487"}}}}}