{"contracts/SubmissionManager.sol":{"SubmissionManager":{"abi":[{"inputs":[{"internalType":"address","name":"_senateAddress","type":"address"}],"stateMutability":"nonpayable","type":"constructor"},{"anonymous":false,"inputs":[{"indexed":true,"internalType":"uint256","name":"communityId","type":"uint256"},{"indexed":true,"internalType":"address","name":"member","type":"address"},{"indexed":false,"internalType":"uint256","name":"finalScore","type":"uint256"}],"name":"FinalScoreCalculated","type":"event"},{"anonymous":false,"inputs":[{"indexed":true,"internalType":"uint256","name":"communityId","type":"uint256"},{"indexed":true,"internalType":"address","name":"member","type":"address"},{"indexed":true,"internalType":"address","name":"senator","type":"address"},{"indexed":false,"internalType":"uint256","name":"score","type":"uint256"}],"name":"ScoreSubmitted","type":"event"},{"anonymous":false,"inputs":[{"indexed":true,"internalType":"uint256","name":"communityId","type":"uint256"},{"indexed":true,"internalType":"address","name":"member","type":"address"},{"indexed":false,"internalType":"string","name":"contentUrl","type":"string"}],"name":"SubmissionCreated","type":"event"},{"inputs":[],"name":"INITIAL_REPUTATION","outputs":[{"internalType":"uint256","name":"","type":"uint256"}],"stateMutability":"view","type":"function"},{"inputs":[],"name":"MIN_SCORES_REQUIRED","outputs":[{"internalType":"uint256","name":"","type":"uint256"}],"stateMutability":"view","type":"function"},{"inputs":[],"name":"REPUTATION_DECREASE","outputs":[{"internalType":"uint256","name":"","type":"uint256"}],"stateMutability":"view","type":"function"},{"inputs":[],"name":"REPUTATION_INCREASE","outputs":[{"internalType":"uint256","name":"","type":"uint256"}],"stateMutability":"view","type":"function"},{"inputs":[{"internalType":"enum CommunityTypes.Category","name":"","type":"uint8"}],"name":"categoryExists","outputs":[{"internalType":"bool","name":"","type":"bool"}],"stateMutability":"view","type":"function"},{"inputs":[{"internalType":"uint256","name":"","type":"uint256"}],"name":"categoryNames","outputs":[{"internalType":"string","name":"","type":"string"}],"stateMutability":"view","type":"function"},{"inputs":[{"internalType":"enum CommunityTypes.Category","name":"_category","type":"uint8"}],"name":"getCategoryName","outputs":[{"internalType":"string","name":"","type":"string"}],"stateMutability":"view","type":"function"},{"inputs":[{"internalType":"uint256","name":"_communityId","type":"uint256"},{"internalType":"address","name":"_member","type":"address"}],"name":"getFinalScore","outputs":[{"internalType":"uint256","name":"","type":"uint256"},{"internalType":"bool","name":"","type":"bool"}],"stateMutability":"view","type":"function"},{"inputs":[{"internalType":"uint256","name":"_communityId","type":"uint256"},{"internalType":"address","name":"_member","type":"address"},{"internalType":"address","name":"_senator","type":"address"}],"name":"getSenatorScore","outputs":[{"internalType":"uint256","name":"","type":"uint256"}],"stateMutability":"view","type":"function"},{"inputs":[{"internalType":"address","name":"","type":"address"}],"name":"scorerInfo","outputs":[{"internalType":"uint256","name":"reputation","type":"uint256"},{"internalType":"uint256","name":"totalScores","type":"uint256"},{"internalType":"bool","name":"isInitialized","type":"bool"}],"stateMutability":"view","type":"function"},{"inputs":[],"name":"senateContract","outputs":[{"internalType":"contract Senate","name":"","type":"address"}],"stateMutability":"view","type":"function"},{"inputs":[{"internalType":"uint256","name":"","type":"uint256"},{"internalType":"address","name":"","type":"address"},{"internalType":"address","name":"","type":"address"}],"name":"senatorScores","outputs":[{"internalType":"uint256","name":"","type":"uint256"}],"stateMutability":"view","type":"function"},{"inputs":[{"internalType":"uint256","name":"","type":"uint256"},{"internalType":"address","name":"","type":"address"},{"internalType":"uint256","name":"","type":"uint256"}],"name":"submissionScorers","outputs":[{"internalType":"address","name":"","type":"address"}],"stateMutability":"view","type":"function"},{"inputs":[{"internalType":"uint256","name":"","type":"uint256"},{"internalType":"address","name":"","type":"address"}],"name":"submissions","outputs":[{"internalType":"address","name":"member","type":"address"},{"internalType":"uint256","name":"communityId","type":"uint256"},{"internalType":"string","name":"contentUrl","type":"string"},{"internalType":"uint256","name":"submitTime","type":"uint256"},{"internalType":"bool","name":"isScored","type":"bool"},{"internalType":"uint256","name":"finalScore","type":"uint256"},{"internalType":"enum CommunityTypes.Category","name":"category","type":"uint8"}],"stateMutability":"view","type":"function"},{"inputs":[{"internalType":"uint256","name":"_communityId","type":"uint256"},{"internalType":"string","name":"_contentUrl","type":"string"},{"internalType":"enum CommunityTypes.Category","name":"_category","type":"uint8"}],"name":"submitContent","outputs":[],"stateMutability":"nonpayable","type":"function"},{"inputs":[{"internalType":"uint256","name":"_communityId","type":"uint256"},{"internalType":"address","name":"_member","type":"address"},{"internalType":"uint256","name":"_score","type":"uint256"}],"name":"submitScore","outputs":[],"stateMutability":"nonpayable","type":"function"}],"evm":{"bytecode":{"linkReferences":{},"object":"60803461036c57601f61188238819003918201601f19168301916001600160401b038311848410176103715780849260209460405283398101031261036c57516001600160a01b0381169081900361036c5760016000526000602052604060002061007361006d8254610387565b826103c1565b600a644d7573696360d81b019055600260009081526020527fabbb5caa7dda850e60932de0934eb1f9d0f59695050f761dc64e443e5030a56980546100b790610387565b601f811161033f575b50600662105c9d60ea1b019055600360009081526020527f101e368776582e57ab3d116ffe2517c0a585cd5b23174b01e275c2d8329c3d83805461010390610387565b601f8111610312575b50600c6553706f72747360d01b019055600460009081526020527f52d75039926638d3c558b2bdefb945d5be8dae29dedd1c313212a4d472d9fde5805461015290610387565b601f81116102e5575b507f456475636174696f6e00000000000000000000000000000000000000000000129055600560009081526020527f2b232c97452f0950c94e2539fdc7e69d21166113cf7a9bcb99b220a3fe5d720a80546101b590610387565b601f81116102b8575b507f546563686e6f6c6f6779000000000000000000000000000000000000000000149055600660009081526020527f62103cf3131c85df57aad364d21cba02556d3092d6cb54c298c2e7726a7870bd805461021c9061006d90610387565b600a6427ba3432b960d91b01905560005b600681111561025a5750600280546001600160a01b03191691909117905560405161148a90816103f88239f35b60078110156102a25760406000828152600160205220600160ff19825416179055600019811461028c5760010161022d565b634e487b7160e01b600052601160045260246000fd5b634e487b7160e01b600052602160045260246000fd5b81600052601f6020600020910160051c8101905b8181106102d957506101be565b600081556001016102cc565b81600052601f6020600020910160051c8101905b818110610306575061015b565b600081556001016102f9565b81600052601f6020600020910160051c8101905b818110610333575061010c565b60008155600101610326565b81600052601f6020600020910160051c8101905b81811061036057506100c0565b60008155600101610353565b600080fd5b634e487b7160e01b600052604160045260246000fd5b90600182811c921680156103b7575b60208310146103a157565b634e487b7160e01b600052602260045260246000fd5b91607f1691610396565b601f82116103cd575050565b600052601f6020600020910160051c8101905b8181106103eb575050565b600081556001016103e056fe6080604052600436101561001257600080fd5b60003560e01c80630317a6a3146110e45780630504429b14610d545780630e4dbf5c14610ca257806329d8e857146103785780633f9a61e0146102ec57806349e97bf7146100cc5780635c4fe6ca146102925780635d85fa1814610269578063784940c5146102255780637b05725814610208578063818c4368146101aa578063aac38d8c1461018e578063b51bcc0e14610158578063cb66a0f31461013c578063e6fc2d8a146101205763eedfae64146100cc57600080fd5b3461011b576100da366112e1565b91600052600460205260406000209060018060a01b031660005260205260406000209060018060a01b03166000526020526020604060002054604051908152f35b600080fd5b3461011b57600036600319011261011b57602060405160328152f35b3461011b57600036600319011261011b57602060405160038152f35b3461011b57602036600319011261011b57600435600781101561011b5760ff610182602092611349565b54166040519015158152f35b3461011b57600036600319011261011b576020604051600a8152f35b3461011b576101b8366112b7565b91600052600560205260406000209060018060a01b03166000526020526040600020805482101561011b576020916101ef9161131b565b905460405160039290921b1c6001600160a01b03168152f35b3461011b57600036600319011261011b5760206040516103e88152f35b3461011b57602036600319011261011b57600435600052600060205261026561025160406000206111af565b604051918291602083526020830190611253565b0390f35b3461011b57600036600319011261011b576002546040516001600160a01b039091168152602090f35b3461011b57602036600319011261011b576004356001600160a01b0381169081900361011b5760005260066020526060604060002080549060ff600260018301549201541690604051928352602083015215156040820152f35b3461011b57602036600319011261011b57600435600781101561011b5760ff61031482611349565b54161561033357600052600060205261026561025160406000206111af565b60405162461bcd60e51b815260206004820152601760248201527f43617465676f727920646f6573206e6f742065786973740000000000000000006044820152606490fd5b3461011b57610386366112b7565b9190816000526003602052604060002060018060a01b0382166000526020526040600020600381015415610c66576004015460ff16610c305760648311610beb57816000526003602052604060002060018060a01b03821660005260205260ff600660406000200154166020610425604460018060a01b0360025416936040519485938492630eb2f16160e41b84523360048501526024840190611294565b5afa908115610b1a57600091610ba9575b5015610b6b5760008281526004602090815260408083206001600160a01b03851684528252808320338452909152902054610b265760008281526004602090815260408083206001600160a01b0385168085529083528184203385528352818420879055858452600583528184209084529091529020805468010000000000000000811015610738576104ce9160018201815561131b565b81549060031b9033821b9160018060a01b03901b191617905560018060a01b03169160405190815282827f378f514d49e4abb7486bee29952af6519de11cb70a74cd68479f52457b0518f760203394a480600052600360205260406000208260005260205260ff60066040600020015416602061056e602460018060a01b0360025416936040519485938492638a1943fd60e01b84526004840190611294565b5afa908115610b1a57600091610ae8575b5081600052600560205260406000208360005260205260406000205410156105a357005b8060005260056020526040806000206000908482526020522091825460038110610aaa576105d96105d38261137a565b9161137a565b9060009260005b865481101561074e576105f3818861131b565b60018060a01b0391549060031b1c169485600052600660205260ff60026040600020015416156106c5575b600087815260046020908152604080832086845282528083206001600160a01b038a168452909152902054610684919061065884876113ac565b5286600052600660205260406000205461067284886113ac565b5261067d83876113ac565b51906113c0565b94600052600660205260016040600020019081549160001983146106af5760018093019055016105e0565b634e487b7160e01b600052601160045260246000fd5b604051906060820182811067ffffffffffffffff8211176107385761068492610731916040526103e88152600260208201600081526040830190600182528b600052600660205260406000209351845551600184015551151591019060ff801983541691151516179055565b905061061e565b634e487b7160e01b600052604160045260246000fd5b5094929390946000936000945b87518610156107975761078f600191610789610777898c6113ac565b516107828a8a6113ac565b51906113cd565b906113c0565b95019461075b565b6107a6929691939795506113e0565b90600092835b855185101561083757600190846107c387896113ac565b511115610802576107f9906107896107e5876107df8a8c6113ac565b51611400565b6107f3886107df8b8d6113ac565b906113cd565b945b01936107ac565b6108319061078961081d610816898b6113ac565b5188611400565b6107f361082a8a8c6113ac565b5189611400565b946107fb565b610853919593945061084e909692968451906113e0565b61140d565b936000918290600187901b906001600160ff1b03881688141590835b8751811015610a255782610883828a6113ac565b51906106af57610893858b6113c0565b101580610a02575b6108a8575b60010161086f565b95936108c96108d4916107896108be8a8c6113ac565b516107828b8b6113ac565b9461067d88886113ac565b95886108e0828a6113ac565b5111156109e857896108f68a6107df848c6113ac565b1161093b57610905818c61131b565b60018060a01b0391549060031b1c1660005260066020526040600020908154603281018091116106af57600192555b90506108a0565b610945818c61131b565b905460039190911b1c6001600160a01b03166000908152600660205260408120549091908c90600a116109db578192509061097f9161131b565b905460039190911b1c6001600160a01b03166000908152600660205260409020546009198101919082116106af576001916109ba828e61131b565b848060a01b0391549060031b1c166000526006602052604060002055610934565b6109ba826001949261131b565b896109fd6109f6838b6113ac565b518b611400565b6108f6565b509150610a0f82886113ac565b5191600092610a1e858b611400565b111561089b565b50999850505090507f2f0b17ded3481ee6aacbefb24a3e74b8e7c0a3aac8d9b7ca5dc4df68027efd8d945060209350610a5e92506113e0565b8360005260038252604060002085600052825280600560406000200155836000526003825260406000208560005282526004604060002001600160ff19825416179055604051908152a3005b60405162461bcd60e51b81526020600482015260166024820152754e656564206174206c6561737420332073636f72657360501b6044820152606490fd5b90506020813d602011610b12575b81610b0360209383611153565b8101031261011b57518361057f565b3d9150610af6565b6040513d6000823e3d90fd5b60405162461bcd60e51b815260206004820152601e60248201527f416c72656164792073636f72656420627920746869732073656e61746f7200006044820152606490fd5b60405162461bcd60e51b81526020600482015260166024820152752737ba1030baba3437b934bd32b21039b2b730ba37b960511b6044820152606490fd5b6020813d602011610be3575b81610bc260209383611153565b81010312610bdf5751908115158203610bdc575084610436565b80fd5b5080fd5b3d9150610bb5565b60405162461bcd60e51b815260206004820152601f60248201527f53636f7265206d757374206265206265747765656e203020616e6420313030006044820152606490fd5b60405162461bcd60e51b815260206004820152600e60248201526d105b1c9958591e481cd8dbdc995960921b6044820152606490fd5b60405162461bcd60e51b815260206004820152601460248201527314dd589b5a5cdcda5bdb881b9bdd08199bdd5b9960621b6044820152606490fd5b3461011b57604036600319011261011b576040610cbd61113d565b6004356000908152600360209081528382206001600160a01b03938416835290529190912080546001820154921690610265610cfb600283016111af565b60038301549260ff600482015416610d3860ff6006600585015494015416936040519889988952602089015260e0604089015260e0880190611253565b9460608701521515608086015260a085015260c0840190611294565b3461011b57606036600319011261011b5760043560243567ffffffffffffffff811161011b573660238201121561011b57806004013567ffffffffffffffff81116107385760405191610db1601f8301601f191660200184611153565b818352366024838301011161011b5781600092602460209301838601378301015260443591600783101561011b5781511561109f57600081815260036020908152604080832033845290915290206004015460ff1661105a5760405160e0810181811067ffffffffffffffff821117610738576040908152338083526020808401858152848401878152426060870190815260006080880181815260a0890182815260c08a019c8d528a83526003875288832097835296909552958620965187546001600160a01b0319166001600160a01b03919091161787559151600187015551805194989594600286019167ffffffffffffffff821161104657610eb78354611175565b601f8111611001575b506020908b601f8411600114610f935792600698979694928192610f18979592610f88575b50508160011b916000199060031b1c19161790555b516003850155511515600484019060ff801983541691151516179055565b5160058201550190516007811015610f745760ff801983541691161790557f72075524713934864c8a8ff2740c94cd50c441bf186d8ffd9b908ca8dbb4776d6040516020815280610f6e33956020830190611253565b0390a380f35b634e487b7160e01b85526021600452602485fd5b015190508d80610ee5565b50838c52818c209190601f1984168d5b818110610fe95750926001928592610f18989660069c9b9a989610610fd0575b505050811b019055610efa565b015160001960f88460031b161c191690558d8080610fc3565b92936020600181928786015181550195019301610fa3565b838c5260208c20601f840160051c8101916020851061103c575b601f0160051c01905b8181106110315750610ec0565b8c8155600101611024565b909150819061101b565b634e487b7160e01b8b52604160045260248bfd5b60405162461bcd60e51b815260206004820152601c60248201527f416c7265616479207375626d697474656420616e642073636f726564000000006044820152606490fd5b60405162461bcd60e51b815260206004820152601b60248201527f436f6e74656e742055524c2063616e6e6f7420626520656d70747900000000006044820152606490fd5b3461011b57604036600319011261011b576110fd61113d565b600435600052600360205260406000209060018060a01b031660005260205260408060002060ff6004600583015492015416825191825215156020820152f35b602435906001600160a01b038216820361011b57565b90601f8019910116810190811067ffffffffffffffff82111761073857604052565b90600182811c921680156111a5575b602083101461118f57565b634e487b7160e01b600052602260045260246000fd5b91607f1691611184565b90604051918260008254926111c384611175565b808452936001811690811561123157506001146111ea575b506111e892500383611153565b565b90506000929192526020600020906000915b8183106112155750509060206111e892820101386111db565b60209193508060019154838589010152019101909184926111fc565b9050602092506111e894915060ff191682840152151560051b820101386111db565b919082519283825260005b84811061127f575050826000602080949584010152601f8019910116010190565b8060208092840101518282860101520161125e565b9060078210156112a15752565b634e487b7160e01b600052602160045260246000fd5b606090600319011261011b57600435906024356001600160a01b038116810361011b579060443590565b606090600319011261011b57600435906024356001600160a01b038116810361011b57906044356001600160a01b038116810361011b5790565b80548210156113335760005260206000200190600090565b634e487b7160e01b600052603260045260246000fd5b60078110156112a1576000526001602052604060002090565b67ffffffffffffffff81116107385760051b60200190565b9061138482611362565b6113916040519182611153565b82815280926113a2601f1991611362565b0190602036910137565b80518210156113335760209160051b010190565b919082018092116106af57565b818102929181159184041417156106af57565b81156113ea570490565b634e487b7160e01b600052601260045260246000fd5b919082039182116106af57565b801561144e57600181018082116106af5760011c815b82821061142f57505090565b9091506114458261144081846113e0565b6113c0565b60011c90611423565b5060009056fea26469706673582212201eb64931eff4e264db8e7f87ae27d75a6ee21376f2f36d950c0e8bb5346e9d1c64736f6c634300081c0033","opcodes":"PUSH1 0x80 CALLVALUE PUSH2 0x36C JUMPI PUSH1 0x1F PUSH2 0x1882 CODESIZE DUP2 SWAP1 SUB SWAP2 DUP3 ADD PUSH1 0x1F NOT AND DUP4 ADD SWAP2 PUSH1 0x1 PUSH1 0x1 PUSH1 0x40 SHL SUB DUP4 GT DUP5 DUP5 LT OR PUSH2 0x371 JUMPI DUP1 DUP5 SWAP3 PUSH1 0x20 SWAP5 PUSH1 0x40 MSTORE DUP4 CODECOPY DUP2 ADD SUB SLT PUSH2 0x36C JUMPI MLOAD PUSH1 0x1 PUSH1 0x1 PUSH1 0xA0 SHL SUB DUP2 AND SWAP1 DUP2 SWAP1 SUB PUSH2 0x36C JUMPI PUSH1 0x1 PUSH1 0x0 MSTORE PUSH1 0x0 PUSH1 0x20 MSTORE PUSH1 0x40 PUSH1 0x0 KECCAK256 PUSH2 0x73 PUSH2 0x6D DUP3 SLOAD PUSH2 0x387 JUMP JUMPDEST DUP3 PUSH2 0x3C1 JUMP JUMPDEST PUSH1 0xA PUSH5 0x4D75736963 PUSH1 0xD8 SHL ADD SWAP1 SSTORE PUSH1 0x2 PUSH1 0x0 SWAP1 DUP2 MSTORE PUSH1 0x20 MSTORE PUSH32 0xABBB5CAA7DDA850E60932DE0934EB1F9D0F59695050F761DC64E443E5030A569 DUP1 SLOAD PUSH2 0xB7 SWAP1 PUSH2 0x387 JUMP JUMPDEST PUSH1 0x1F DUP2 GT PUSH2 0x33F JUMPI JUMPDEST POP PUSH1 0x6 PUSH3 0x105C9D PUSH1 0xEA SHL ADD SWAP1 SSTORE PUSH1 0x3 PUSH1 0x0 SWAP1 DUP2 MSTORE PUSH1 0x20 MSTORE PUSH32 0x101E368776582E57AB3D116FFE2517C0A585CD5B23174B01E275C2D8329C3D83 DUP1 SLOAD PUSH2 0x103 SWAP1 PUSH2 0x387 JUMP JUMPDEST PUSH1 0x1F DUP2 GT PUSH2 0x312 JUMPI JUMPDEST POP PUSH1 0xC PUSH6 0x53706F727473 PUSH1 0xD0 SHL ADD SWAP1 SSTORE PUSH1 0x4 PUSH1 0x0 SWAP1 DUP2 MSTORE PUSH1 0x20 MSTORE PUSH32 0x52D75039926638D3C558B2BDEFB945D5BE8DAE29DEDD1C313212A4D472D9FDE5 DUP1 SLOAD PUSH2 0x152 SWAP1 PUSH2 0x387 JUMP JUMPDEST PUSH1 0x1F DUP2 GT PUSH2 0x2E5 JUMPI JUMPDEST POP PUSH32 0x456475636174696F6E0000000000000000000000000000000000000000000012 SWAP1 SSTORE PUSH1 0x5 PUSH1 0x0 SWAP1 DUP2 MSTORE PUSH1 0x20 MSTORE PUSH32 0x2B232C97452F0950C94E2539FDC7E69D21166113CF7A9BCB99B220A3FE5D720A DUP1 SLOAD PUSH2 0x1B5 SWAP1 PUSH2 0x387 JUMP JUMPDEST PUSH1 0x1F DUP2 GT PUSH2 0x2B8 JUMPI JUMPDEST POP PUSH32 0x546563686E6F6C6F677900000000000000000000000000000000000000000014 SWAP1 SSTORE PUSH1 0x6 PUSH1 0x0 SWAP1 DUP2 MSTORE PUSH1 0x20 MSTORE PUSH32 0x62103CF3131C85DF57AAD364D21CBA02556D3092D6CB54C298C2E7726A7870BD DUP1 SLOAD PUSH2 0x21C SWAP1 PUSH2 0x6D SWAP1 PUSH2 0x387 JUMP JUMPDEST PUSH1 0xA PUSH5 0x27BA3432B9 PUSH1 0xD9 SHL ADD SWAP1 SSTORE PUSH1 0x0 JUMPDEST PUSH1 0x6 DUP2 GT ISZERO PUSH2 0x25A JUMPI POP PUSH1 0x2 DUP1 SLOAD PUSH1 0x1 PUSH1 0x1 PUSH1 0xA0 SHL SUB NOT AND SWAP2 SWAP1 SWAP2 OR SWAP1 SSTORE PUSH1 0x40 MLOAD PUSH2 0x148A SWAP1 DUP2 PUSH2 0x3F8 DUP3 CODECOPY RETURN JUMPDEST PUSH1 0x7 DUP2 LT ISZERO PUSH2 0x2A2 JUMPI PUSH1 0x40 PUSH1 0x0 DUP3 DUP2 MSTORE PUSH1 0x1 PUSH1 0x20 MSTORE KECCAK256 PUSH1 0x1 PUSH1 0xFF NOT DUP3 SLOAD AND OR SWAP1 SSTORE PUSH1 0x0 NOT DUP2 EQ PUSH2 0x28C JUMPI PUSH1 0x1 ADD PUSH2 0x22D JUMP JUMPDEST PUSH4 0x4E487B71 PUSH1 0xE0 SHL PUSH1 0x0 MSTORE PUSH1 0x11 PUSH1 0x4 MSTORE PUSH1 0x24 PUSH1 0x0 REVERT JUMPDEST PUSH4 0x4E487B71 PUSH1 0xE0 SHL PUSH1 0x0 MSTORE PUSH1 0x21 PUSH1 0x4 MSTORE PUSH1 0x24 PUSH1 0x0 REVERT JUMPDEST DUP2 PUSH1 0x0 MSTORE PUSH1 0x1F PUSH1 0x20 PUSH1 0x0 KECCAK256 SWAP2 ADD PUSH1 0x5 SHR DUP2 ADD SWAP1 JUMPDEST DUP2 DUP2 LT PUSH2 0x2D9 JUMPI POP PUSH2 0x1BE JUMP JUMPDEST PUSH1 0x0 DUP2 SSTORE PUSH1 0x1 ADD PUSH2 0x2CC JUMP JUMPDEST DUP2 PUSH1 0x0 MSTORE PUSH1 0x1F PUSH1 0x20 PUSH1 0x0 KECCAK256 SWAP2 ADD PUSH1 0x5 SHR DUP2 ADD SWAP1 JUMPDEST DUP2 DUP2 LT PUSH2 0x306 JUMPI POP PUSH2 0x15B JUMP JUMPDEST PUSH1 0x0 DUP2 SSTORE PUSH1 0x1 ADD PUSH2 0x2F9 JUMP JUMPDEST DUP2 PUSH1 0x0 MSTORE PUSH1 0x1F PUSH1 0x20 PUSH1 0x0 KECCAK256 SWAP2 ADD PUSH1 0x5 SHR DUP2 ADD SWAP1 JUMPDEST DUP2 DUP2 LT PUSH2 0x333 JUMPI POP PUSH2 0x10C JUMP JUMPDEST PUSH1 0x0 DUP2 SSTORE PUSH1 0x1 ADD PUSH2 0x326 JUMP JUMPDEST DUP2 PUSH1 0x0 MSTORE PUSH1 0x1F PUSH1 0x20 PUSH1 0x0 KECCAK256 SWAP2 ADD PUSH1 0x5 SHR DUP2 ADD SWAP1 JUMPDEST DUP2 DUP2 LT PUSH2 0x360 JUMPI POP PUSH2 0xC0 JUMP JUMPDEST PUSH1 0x0 DUP2 SSTORE PUSH1 0x1 ADD PUSH2 0x353 JUMP JUMPDEST PUSH1 0x0 DUP1 REVERT JUMPDEST PUSH4 0x4E487B71 PUSH1 0xE0 SHL PUSH1 0x0 MSTORE PUSH1 0x41 PUSH1 0x4 MSTORE PUSH1 0x24 PUSH1 0x0 REVERT JUMPDEST SWAP1 PUSH1 0x1 DUP3 DUP2 SHR SWAP3 AND DUP1 ISZERO PUSH2 0x3B7 JUMPI JUMPDEST PUSH1 0x20 DUP4 LT EQ PUSH2 0x3A1 JUMPI JUMP JUMPDEST PUSH4 0x4E487B71 PUSH1 0xE0 SHL PUSH1 0x0 MSTORE PUSH1 0x22 PUSH1 0x4 MSTORE PUSH1 0x24 PUSH1 0x0 REVERT JUMPDEST SWAP2 PUSH1 0x7F AND SWAP2 PUSH2 0x396 JUMP JUMPDEST PUSH1 0x1F DUP3 GT PUSH2 0x3CD JUMPI POP POP JUMP JUMPDEST PUSH1 0x0 MSTORE PUSH1 0x1F PUSH1 0x20 PUSH1 0x0 KECCAK256 SWAP2 ADD PUSH1 0x5 SHR DUP2 ADD SWAP1 JUMPDEST DUP2 DUP2 LT PUSH2 0x3EB JUMPI POP POP JUMP JUMPDEST PUSH1 0x0 DUP2 SSTORE PUSH1 0x1 ADD PUSH2 0x3E0 JUMP INVALID PUSH1 0x80 PUSH1 0x40 MSTORE PUSH1 0x4 CALLDATASIZE LT ISZERO PUSH2 0x12 JUMPI PUSH1 0x0 DUP1 REVERT JUMPDEST PUSH1 0x0 CALLDATALOAD PUSH1 0xE0 SHR DUP1 PUSH4 0x317A6A3 EQ PUSH2 0x10E4 JUMPI DUP1 PUSH4 0x504429B EQ PUSH2 0xD54 JUMPI DUP1 PUSH4 0xE4DBF5C EQ PUSH2 0xCA2 JUMPI DUP1 PUSH4 0x29D8E857 EQ PUSH2 0x378 JUMPI DUP1 PUSH4 0x3F9A61E0 EQ PUSH2 0x2EC JUMPI DUP1 PUSH4 0x49E97BF7 EQ PUSH2 0xCC JUMPI DUP1 PUSH4 0x5C4FE6CA EQ PUSH2 0x292 JUMPI DUP1 PUSH4 0x5D85FA18 EQ PUSH2 0x269 JUMPI DUP1 PUSH4 0x784940C5 EQ PUSH2 0x225 JUMPI DUP1 PUSH4 0x7B057258 EQ PUSH2 0x208 JUMPI DUP1 PUSH4 0x818C4368 EQ PUSH2 0x1AA JUMPI DUP1 PUSH4 0xAAC38D8C EQ PUSH2 0x18E JUMPI DUP1 PUSH4 0xB51BCC0E EQ PUSH2 0x158 JUMPI DUP1 PUSH4 0xCB66A0F3 EQ PUSH2 0x13C JUMPI DUP1 PUSH4 0xE6FC2D8A EQ PUSH2 0x120 JUMPI PUSH4 0xEEDFAE64 EQ PUSH2 0xCC JUMPI PUSH1 0x0 DUP1 REVERT JUMPDEST CALLVALUE PUSH2 0x11B JUMPI PUSH2 0xDA CALLDATASIZE PUSH2 0x12E1 JUMP JUMPDEST SWAP2 PUSH1 0x0 MSTORE PUSH1 0x4 PUSH1 0x20 MSTORE PUSH1 0x40 PUSH1 0x0 KECCAK256 SWAP1 PUSH1 0x1 DUP1 PUSH1 0xA0 SHL SUB AND PUSH1 0x0 MSTORE PUSH1 0x20 MSTORE PUSH1 0x40 PUSH1 0x0 KECCAK256 SWAP1 PUSH1 0x1 DUP1 PUSH1 0xA0 SHL SUB AND PUSH1 0x0 MSTORE PUSH1 0x20 MSTORE PUSH1 0x20 PUSH1 0x40 PUSH1 0x0 KECCAK256 SLOAD PUSH1 0x40 MLOAD SWAP1 DUP2 MSTORE RETURN JUMPDEST PUSH1 0x0 DUP1 REVERT JUMPDEST CALLVALUE PUSH2 0x11B JUMPI PUSH1 0x0 CALLDATASIZE PUSH1 0x3 NOT ADD SLT PUSH2 0x11B JUMPI PUSH1 0x20 PUSH1 0x40 MLOAD PUSH1 0x32 DUP2 MSTORE RETURN JUMPDEST CALLVALUE PUSH2 0x11B JUMPI PUSH1 0x0 CALLDATASIZE PUSH1 0x3 NOT ADD SLT PUSH2 0x11B JUMPI PUSH1 0x20 PUSH1 0x40 MLOAD PUSH1 0x3 DUP2 MSTORE RETURN JUMPDEST CALLVALUE PUSH2 0x11B JUMPI PUSH1 0x20 CALLDATASIZE PUSH1 0x3 NOT ADD SLT PUSH2 0x11B JUMPI PUSH1 0x4 CALLDATALOAD PUSH1 0x7 DUP2 LT ISZERO PUSH2 0x11B JUMPI PUSH1 0xFF PUSH2 0x182 PUSH1 0x20 SWAP3 PUSH2 0x1349 JUMP JUMPDEST SLOAD AND PUSH1 0x40 MLOAD SWAP1 ISZERO ISZERO DUP2 MSTORE RETURN JUMPDEST CALLVALUE PUSH2 0x11B JUMPI PUSH1 0x0 CALLDATASIZE PUSH1 0x3 NOT ADD SLT PUSH2 0x11B JUMPI PUSH1 0x20 PUSH1 0x40 MLOAD PUSH1 0xA DUP2 MSTORE RETURN JUMPDEST CALLVALUE PUSH2 0x11B JUMPI PUSH2 0x1B8 CALLDATASIZE PUSH2 0x12B7 JUMP JUMPDEST SWAP2 PUSH1 0x0 MSTORE PUSH1 0x5 PUSH1 0x20 MSTORE PUSH1 0x40 PUSH1 0x0 KECCAK256 SWAP1 PUSH1 0x1 DUP1 PUSH1 0xA0 SHL SUB AND PUSH1 0x0 MSTORE PUSH1 0x20 MSTORE PUSH1 0x40 PUSH1 0x0 KECCAK256 DUP1 SLOAD DUP3 LT ISZERO PUSH2 0x11B JUMPI PUSH1 0x20 SWAP2 PUSH2 0x1EF SWAP2 PUSH2 0x131B JUMP JUMPDEST SWAP1 SLOAD PUSH1 0x40 MLOAD PUSH1 0x3 SWAP3 SWAP1 SWAP3 SHL SHR PUSH1 0x1 PUSH1 0x1 PUSH1 0xA0 SHL SUB AND DUP2 MSTORE RETURN JUMPDEST CALLVALUE PUSH2 0x11B JUMPI PUSH1 0x0 CALLDATASIZE PUSH1 0x3 NOT ADD SLT PUSH2 0x11B JUMPI PUSH1 0x20 PUSH1 0x40 MLOAD PUSH2 0x3E8 DUP2 MSTORE RETURN JUMPDEST CALLVALUE PUSH2 0x11B JUMPI PUSH1 0x20 CALLDATASIZE PUSH1 0x3 NOT ADD SLT PUSH2 0x11B JUMPI PUSH1 0x4 CALLDATALOAD PUSH1 0x0 MSTORE PUSH1 0x0 PUSH1 0x20 MSTORE PUSH2 0x265 PUSH2 0x251 PUSH1 0x40 PUSH1 0x0 KECCAK256 PUSH2 0x11AF JUMP JUMPDEST PUSH1 0x40 MLOAD SWAP2 DUP3 SWAP2 PUSH1 0x20 DUP4 MSTORE PUSH1 0x20 DUP4 ADD SWAP1 PUSH2 0x1253 JUMP JUMPDEST SUB SWAP1 RETURN JUMPDEST CALLVALUE PUSH2 0x11B JUMPI PUSH1 0x0 CALLDATASIZE PUSH1 0x3 NOT ADD SLT PUSH2 0x11B JUMPI PUSH1 0x2 SLOAD PUSH1 0x40 MLOAD PUSH1 0x1 PUSH1 0x1 PUSH1 0xA0 SHL SUB SWAP1 SWAP2 AND DUP2 MSTORE PUSH1 0x20 SWAP1 RETURN JUMPDEST CALLVALUE PUSH2 0x11B JUMPI PUSH1 0x20 CALLDATASIZE PUSH1 0x3 NOT ADD SLT PUSH2 0x11B JUMPI PUSH1 0x4 CALLDATALOAD PUSH1 0x1 PUSH1 0x1 PUSH1 0xA0 SHL SUB DUP2 AND SWAP1 DUP2 SWAP1 SUB PUSH2 0x11B JUMPI PUSH1 0x0 MSTORE PUSH1 0x6 PUSH1 0x20 MSTORE PUSH1 0x60 PUSH1 0x40 PUSH1 0x0 KECCAK256 DUP1 SLOAD SWAP1 PUSH1 0xFF PUSH1 0x2 PUSH1 0x1 DUP4 ADD SLOAD SWAP3 ADD SLOAD AND SWAP1 PUSH1 0x40 MLOAD SWAP3 DUP4 MSTORE PUSH1 0x20 DUP4 ADD MSTORE ISZERO ISZERO PUSH1 0x40 DUP3 ADD MSTORE RETURN JUMPDEST CALLVALUE PUSH2 0x11B JUMPI PUSH1 0x20 CALLDATASIZE PUSH1 0x3 NOT ADD SLT PUSH2 0x11B JUMPI PUSH1 0x4 CALLDATALOAD PUSH1 0x7 DUP2 LT ISZERO PUSH2 0x11B JUMPI PUSH1 0xFF PUSH2 0x314 DUP3 PUSH2 0x1349 JUMP JUMPDEST SLOAD AND ISZERO PUSH2 0x333 JUMPI PUSH1 0x0 MSTORE PUSH1 0x0 PUSH1 0x20 MSTORE PUSH2 0x265 PUSH2 0x251 PUSH1 0x40 PUSH1 0x0 KECCAK256 PUSH2 0x11AF JUMP JUMPDEST PUSH1 0x40 MLOAD PUSH3 0x461BCD PUSH1 0xE5 SHL DUP2 MSTORE PUSH1 0x20 PUSH1 0x4 DUP3 ADD MSTORE PUSH1 0x17 PUSH1 0x24 DUP3 ADD MSTORE PUSH32 0x43617465676F727920646F6573206E6F74206578697374000000000000000000 PUSH1 0x44 DUP3 ADD MSTORE PUSH1 0x64 SWAP1 REVERT JUMPDEST CALLVALUE PUSH2 0x11B JUMPI PUSH2 0x386 CALLDATASIZE PUSH2 0x12B7 JUMP JUMPDEST SWAP2 SWAP1 DUP2 PUSH1 0x0 MSTORE PUSH1 0x3 PUSH1 0x20 MSTORE PUSH1 0x40 PUSH1 0x0 KECCAK256 PUSH1 0x1 DUP1 PUSH1 0xA0 SHL SUB DUP3 AND PUSH1 0x0 MSTORE PUSH1 0x20 MSTORE PUSH1 0x40 PUSH1 0x0 KECCAK256 PUSH1 0x3 DUP2 ADD SLOAD ISZERO PUSH2 0xC66 JUMPI PUSH1 0x4 ADD SLOAD PUSH1 0xFF AND PUSH2 0xC30 JUMPI PUSH1 0x64 DUP4 GT PUSH2 0xBEB JUMPI DUP2 PUSH1 0x0 MSTORE PUSH1 0x3 PUSH1 0x20 MSTORE PUSH1 0x40 PUSH1 0x0 KECCAK256 PUSH1 0x1 DUP1 PUSH1 0xA0 SHL SUB DUP3 AND PUSH1 0x0 MSTORE PUSH1 0x20 MSTORE PUSH1 0xFF PUSH1 0x6 PUSH1 0x40 PUSH1 0x0 KECCAK256 ADD SLOAD AND PUSH1 0x20 PUSH2 0x425 PUSH1 0x44 PUSH1 0x1 DUP1 PUSH1 0xA0 SHL SUB PUSH1 0x2 SLOAD AND SWAP4 PUSH1 0x40 MLOAD SWAP5 DUP6 SWAP4 DUP5 SWAP3 PUSH4 0xEB2F161 PUSH1 0xE4 SHL DUP5 MSTORE CALLER PUSH1 0x4 DUP6 ADD MSTORE PUSH1 0x24 DUP5 ADD SWAP1 PUSH2 0x1294 JUMP JUMPDEST GAS STATICCALL SWAP1 DUP2 ISZERO PUSH2 0xB1A JUMPI PUSH1 0x0 SWAP2 PUSH2 0xBA9 JUMPI JUMPDEST POP ISZERO PUSH2 0xB6B JUMPI PUSH1 0x0 DUP3 DUP2 MSTORE PUSH1 0x4 PUSH1 0x20 SWAP1 DUP2 MSTORE PUSH1 0x40 DUP1 DUP4 KECCAK256 PUSH1 0x1 PUSH1 0x1 PUSH1 0xA0 SHL SUB DUP6 AND DUP5 MSTORE DUP3 MSTORE DUP1 DUP4 KECCAK256 CALLER DUP5 MSTORE SWAP1 SWAP2 MSTORE SWAP1 KECCAK256 SLOAD PUSH2 0xB26 JUMPI PUSH1 0x0 DUP3 DUP2 MSTORE PUSH1 0x4 PUSH1 0x20 SWAP1 DUP2 MSTORE PUSH1 0x40 DUP1 DUP4 KECCAK256 PUSH1 0x1 PUSH1 0x1 PUSH1 0xA0 SHL SUB DUP6 AND DUP1 DUP6 MSTORE SWAP1 DUP4 MSTORE DUP2 DUP5 KECCAK256 CALLER DUP6 MSTORE DUP4 MSTORE DUP2 DUP5 KECCAK256 DUP8 SWAP1 SSTORE DUP6 DUP5 MSTORE PUSH1 0x5 DUP4 MSTORE DUP2 DUP5 KECCAK256 SWAP1 DUP5 MSTORE SWAP1 SWAP2 MSTORE SWAP1 KECCAK256 DUP1 SLOAD PUSH9 0x10000000000000000 DUP2 LT ISZERO PUSH2 0x738 JUMPI PUSH2 0x4CE SWAP2 PUSH1 0x1 DUP3 ADD DUP2 SSTORE PUSH2 0x131B JUMP JUMPDEST DUP2 SLOAD SWAP1 PUSH1 0x3 SHL SWAP1 CALLER DUP3 SHL SWAP2 PUSH1 0x1 DUP1 PUSH1 0xA0 SHL SUB SWAP1 SHL NOT AND OR SWAP1 SSTORE PUSH1 0x1 DUP1 PUSH1 0xA0 SHL SUB AND SWAP2 PUSH1 0x40 MLOAD SWAP1 DUP2 MSTORE DUP3 DUP3 PUSH32 0x378F514D49E4ABB7486BEE29952AF6519DE11CB70A74CD68479F52457B0518F7 PUSH1 0x20 CALLER SWAP5 LOG4 DUP1 PUSH1 0x0 MSTORE PUSH1 0x3 PUSH1 0x20 MSTORE PUSH1 0x40 PUSH1 0x0 KECCAK256 DUP3 PUSH1 0x0 MSTORE PUSH1 0x20 MSTORE PUSH1 0xFF PUSH1 0x6 PUSH1 0x40 PUSH1 0x0 KECCAK256 ADD SLOAD AND PUSH1 0x20 PUSH2 0x56E PUSH1 0x24 PUSH1 0x1 DUP1 PUSH1 0xA0 SHL SUB PUSH1 0x2 SLOAD AND SWAP4 PUSH1 0x40 MLOAD SWAP5 DUP6 SWAP4 DUP5 SWAP3 PUSH4 0x8A1943FD PUSH1 0xE0 SHL DUP5 MSTORE PUSH1 0x4 DUP5 ADD SWAP1 PUSH2 0x1294 JUMP JUMPDEST GAS STATICCALL SWAP1 DUP2 ISZERO PUSH2 0xB1A JUMPI PUSH1 0x0 SWAP2 PUSH2 0xAE8 JUMPI JUMPDEST POP DUP2 PUSH1 0x0 MSTORE PUSH1 0x5 PUSH1 0x20 MSTORE PUSH1 0x40 PUSH1 0x0 KECCAK256 DUP4 PUSH1 0x0 MSTORE PUSH1 0x20 MSTORE PUSH1 0x40 PUSH1 0x0 KECCAK256 SLOAD LT ISZERO PUSH2 0x5A3 JUMPI STOP JUMPDEST DUP1 PUSH1 0x0 MSTORE PUSH1 0x5 PUSH1 0x20 MSTORE PUSH1 0x40 DUP1 PUSH1 0x0 KECCAK256 PUSH1 0x0 SWAP1 DUP5 DUP3 MSTORE PUSH1 0x20 MSTORE KECCAK256 SWAP2 DUP3 SLOAD PUSH1 0x3 DUP2 LT PUSH2 0xAAA JUMPI PUSH2 0x5D9 PUSH2 0x5D3 DUP3 PUSH2 0x137A JUMP JUMPDEST SWAP2 PUSH2 0x137A JUMP JUMPDEST SWAP1 PUSH1 0x0 SWAP3 PUSH1 0x0 JUMPDEST DUP7 SLOAD DUP2 LT ISZERO PUSH2 0x74E JUMPI PUSH2 0x5F3 DUP2 DUP9 PUSH2 0x131B JUMP JUMPDEST PUSH1 0x1 DUP1 PUSH1 0xA0 SHL SUB SWAP2 SLOAD SWAP1 PUSH1 0x3 SHL SHR AND SWAP5 DUP6 PUSH1 0x0 MSTORE PUSH1 0x6 PUSH1 0x20 MSTORE PUSH1 0xFF PUSH1 0x2 PUSH1 0x40 PUSH1 0x0 KECCAK256 ADD SLOAD AND ISZERO PUSH2 0x6C5 JUMPI JUMPDEST PUSH1 0x0 DUP8 DUP2 MSTORE PUSH1 0x4 PUSH1 0x20 SWAP1 DUP2 MSTORE PUSH1 0x40 DUP1 DUP4 KECCAK256 DUP7 DUP5 MSTORE DUP3 MSTORE DUP1 DUP4 KECCAK256 PUSH1 0x1 PUSH1 0x1 PUSH1 0xA0 SHL SUB DUP11 AND DUP5 MSTORE SWAP1 SWAP2 MSTORE SWAP1 KECCAK256 SLOAD PUSH2 0x684 SWAP2 SWAP1 PUSH2 0x658 DUP5 DUP8 PUSH2 0x13AC JUMP JUMPDEST MSTORE DUP7 PUSH1 0x0 MSTORE PUSH1 0x6 PUSH1 0x20 MSTORE PUSH1 0x40 PUSH1 0x0 KECCAK256 SLOAD PUSH2 0x672 DUP5 DUP9 PUSH2 0x13AC JUMP JUMPDEST MSTORE PUSH2 0x67D DUP4 DUP8 PUSH2 0x13AC JUMP JUMPDEST MLOAD SWAP1 PUSH2 0x13C0 JUMP JUMPDEST SWAP5 PUSH1 0x0 MSTORE PUSH1 0x6 PUSH1 0x20 MSTORE PUSH1 0x1 PUSH1 0x40 PUSH1 0x0 KECCAK256 ADD SWAP1 DUP2 SLOAD SWAP2 PUSH1 0x0 NOT DUP4 EQ PUSH2 0x6AF JUMPI PUSH1 0x1 DUP1 SWAP4 ADD SWAP1 SSTORE ADD PUSH2 0x5E0 JUMP JUMPDEST PUSH4 0x4E487B71 PUSH1 0xE0 SHL PUSH1 0x0 MSTORE PUSH1 0x11 PUSH1 0x4 MSTORE PUSH1 0x24 PUSH1 0x0 REVERT JUMPDEST PUSH1 0x40 MLOAD SWAP1 PUSH1 0x60 DUP3 ADD DUP3 DUP2 LT PUSH8 0xFFFFFFFFFFFFFFFF DUP3 GT OR PUSH2 0x738 JUMPI PUSH2 0x684 SWAP3 PUSH2 0x731 SWAP2 PUSH1 0x40 MSTORE PUSH2 0x3E8 DUP2 MSTORE PUSH1 0x2 PUSH1 0x20 DUP3 ADD PUSH1 0x0 DUP2 MSTORE PUSH1 0x40 DUP4 ADD SWAP1 PUSH1 0x1 DUP3 MSTORE DUP12 PUSH1 0x0 MSTORE PUSH1 0x6 PUSH1 0x20 MSTORE PUSH1 0x40 PUSH1 0x0 KECCAK256 SWAP4 MLOAD DUP5 SSTORE MLOAD PUSH1 0x1 DUP5 ADD SSTORE MLOAD ISZERO ISZERO SWAP2 ADD SWAP1 PUSH1 0xFF DUP1 NOT DUP4 SLOAD AND SWAP2 ISZERO ISZERO AND OR SWAP1 SSTORE JUMP JUMPDEST SWAP1 POP PUSH2 0x61E JUMP JUMPDEST PUSH4 0x4E487B71 PUSH1 0xE0 SHL PUSH1 0x0 MSTORE PUSH1 0x41 PUSH1 0x4 MSTORE PUSH1 0x24 PUSH1 0x0 REVERT JUMPDEST POP SWAP5 SWAP3 SWAP4 SWAP1 SWAP5 PUSH1 0x0 SWAP4 PUSH1 0x0 SWAP5 JUMPDEST DUP8 MLOAD DUP7 LT ISZERO PUSH2 0x797 JUMPI PUSH2 0x78F PUSH1 0x1 SWAP2 PUSH2 0x789 PUSH2 0x777 DUP10 DUP13 PUSH2 0x13AC JUMP JUMPDEST MLOAD PUSH2 0x782 DUP11 DUP11 PUSH2 0x13AC JUMP JUMPDEST MLOAD SWAP1 PUSH2 0x13CD JUMP JUMPDEST SWAP1 PUSH2 0x13C0 JUMP JUMPDEST SWAP6 ADD SWAP5 PUSH2 0x75B JUMP JUMPDEST PUSH2 0x7A6 SWAP3 SWAP7 SWAP2 SWAP4 SWAP8 SWAP6 POP PUSH2 0x13E0 JUMP JUMPDEST SWAP1 PUSH1 0x0 SWAP3 DUP4 JUMPDEST DUP6 MLOAD DUP6 LT ISZERO PUSH2 0x837 JUMPI PUSH1 0x1 SWAP1 DUP5 PUSH2 0x7C3 DUP8 DUP10 PUSH2 0x13AC JUMP JUMPDEST MLOAD GT ISZERO PUSH2 0x802 JUMPI PUSH2 0x7F9 SWAP1 PUSH2 0x789 PUSH2 0x7E5 DUP8 PUSH2 0x7DF DUP11 DUP13 PUSH2 0x13AC JUMP JUMPDEST MLOAD PUSH2 0x1400 JUMP JUMPDEST PUSH2 0x7F3 DUP9 PUSH2 0x7DF DUP12 DUP14 PUSH2 0x13AC JUMP JUMPDEST SWAP1 PUSH2 0x13CD JUMP JUMPDEST SWAP5 JUMPDEST ADD SWAP4 PUSH2 0x7AC JUMP JUMPDEST PUSH2 0x831 SWAP1 PUSH2 0x789 PUSH2 0x81D PUSH2 0x816 DUP10 DUP12 PUSH2 0x13AC JUMP JUMPDEST MLOAD DUP9 PUSH2 0x1400 JUMP JUMPDEST PUSH2 0x7F3 PUSH2 0x82A DUP11 DUP13 PUSH2 0x13AC JUMP JUMPDEST MLOAD DUP10 PUSH2 0x1400 JUMP JUMPDEST SWAP5 PUSH2 0x7FB JUMP JUMPDEST PUSH2 0x853 SWAP2 SWAP6 SWAP4 SWAP5 POP PUSH2 0x84E SWAP1 SWAP7 SWAP3 SWAP7 DUP5 MLOAD SWAP1 PUSH2 0x13E0 JUMP JUMPDEST PUSH2 0x140D JUMP JUMPDEST SWAP4 PUSH1 0x0 SWAP2 DUP3 SWAP1 PUSH1 0x1 DUP8 SWAP1 SHL SWAP1 PUSH1 0x1 PUSH1 0x1 PUSH1 0xFF SHL SUB DUP9 AND DUP9 EQ ISZERO SWAP1 DUP4 JUMPDEST DUP8 MLOAD DUP2 LT ISZERO PUSH2 0xA25 JUMPI DUP3 PUSH2 0x883 DUP3 DUP11 PUSH2 0x13AC JUMP JUMPDEST MLOAD SWAP1 PUSH2 0x6AF JUMPI PUSH2 0x893 DUP6 DUP12 PUSH2 0x13C0 JUMP JUMPDEST LT ISZERO DUP1 PUSH2 0xA02 JUMPI JUMPDEST PUSH2 0x8A8 JUMPI JUMPDEST PUSH1 0x1 ADD PUSH2 0x86F JUMP JUMPDEST SWAP6 SWAP4 PUSH2 0x8C9 PUSH2 0x8D4 SWAP2 PUSH2 0x789 PUSH2 0x8BE DUP11 DUP13 PUSH2 0x13AC JUMP JUMPDEST MLOAD PUSH2 0x782 DUP12 DUP12 PUSH2 0x13AC JUMP JUMPDEST SWAP5 PUSH2 0x67D DUP9 DUP9 PUSH2 0x13AC JUMP JUMPDEST SWAP6 DUP9 PUSH2 0x8E0 DUP3 DUP11 PUSH2 0x13AC JUMP JUMPDEST MLOAD GT ISZERO PUSH2 0x9E8 JUMPI DUP10 PUSH2 0x8F6 DUP11 PUSH2 0x7DF DUP5 DUP13 PUSH2 0x13AC JUMP JUMPDEST GT PUSH2 0x93B JUMPI PUSH2 0x905 DUP2 DUP13 PUSH2 0x131B JUMP JUMPDEST PUSH1 0x1 DUP1 PUSH1 0xA0 SHL SUB SWAP2 SLOAD SWAP1 PUSH1 0x3 SHL SHR AND PUSH1 0x0 MSTORE PUSH1 0x6 PUSH1 0x20 MSTORE PUSH1 0x40 PUSH1 0x0 KECCAK256 SWAP1 DUP2 SLOAD PUSH1 0x32 DUP2 ADD DUP1 SWAP2 GT PUSH2 0x6AF JUMPI PUSH1 0x1 SWAP3 SSTORE JUMPDEST SWAP1 POP PUSH2 0x8A0 JUMP JUMPDEST PUSH2 0x945 DUP2 DUP13 PUSH2 0x131B JUMP JUMPDEST SWAP1 SLOAD PUSH1 0x3 SWAP2 SWAP1 SWAP2 SHL SHR PUSH1 0x1 PUSH1 0x1 PUSH1 0xA0 SHL SUB AND PUSH1 0x0 SWAP1 DUP2 MSTORE PUSH1 0x6 PUSH1 0x20 MSTORE PUSH1 0x40 DUP2 KECCAK256 SLOAD SWAP1 SWAP2 SWAP1 DUP13 SWAP1 PUSH1 0xA GT PUSH2 0x9DB JUMPI DUP2 SWAP3 POP SWAP1 PUSH2 0x97F SWAP2 PUSH2 0x131B JUMP JUMPDEST SWAP1 SLOAD PUSH1 0x3 SWAP2 SWAP1 SWAP2 SHL SHR PUSH1 0x1 PUSH1 0x1 PUSH1 0xA0 SHL SUB AND PUSH1 0x0 SWAP1 DUP2 MSTORE PUSH1 0x6 PUSH1 0x20 MSTORE PUSH1 0x40 SWAP1 KECCAK256 SLOAD PUSH1 0x9 NOT DUP2 ADD SWAP2 SWAP1 DUP3 GT PUSH2 0x6AF JUMPI PUSH1 0x1 SWAP2 PUSH2 0x9BA DUP3 DUP15 PUSH2 0x131B JUMP JUMPDEST DUP5 DUP1 PUSH1 0xA0 SHL SUB SWAP2 SLOAD SWAP1 PUSH1 0x3 SHL SHR AND PUSH1 0x0 MSTORE PUSH1 0x6 PUSH1 0x20 MSTORE PUSH1 0x40 PUSH1 0x0 KECCAK256 SSTORE PUSH2 0x934 JUMP JUMPDEST PUSH2 0x9BA DUP3 PUSH1 0x1 SWAP5 SWAP3 PUSH2 0x131B JUMP JUMPDEST DUP10 PUSH2 0x9FD PUSH2 0x9F6 DUP4 DUP12 PUSH2 0x13AC JUMP JUMPDEST MLOAD DUP12 PUSH2 0x1400 JUMP JUMPDEST PUSH2 0x8F6 JUMP JUMPDEST POP SWAP2 POP PUSH2 0xA0F DUP3 DUP9 PUSH2 0x13AC JUMP JUMPDEST MLOAD SWAP2 PUSH1 0x0 SWAP3 PUSH2 0xA1E DUP6 DUP12 PUSH2 0x1400 JUMP JUMPDEST GT ISZERO PUSH2 0x89B JUMP JUMPDEST POP SWAP10 SWAP9 POP POP POP SWAP1 POP PUSH32 0x2F0B17DED3481EE6AACBEFB24A3E74B8E7C0A3AAC8D9B7CA5DC4DF68027EFD8D SWAP5 POP PUSH1 0x20 SWAP4 POP PUSH2 0xA5E SWAP3 POP PUSH2 0x13E0 JUMP JUMPDEST DUP4 PUSH1 0x0 MSTORE PUSH1 0x3 DUP3 MSTORE PUSH1 0x40 PUSH1 0x0 KECCAK256 DUP6 PUSH1 0x0 MSTORE DUP3 MSTORE DUP1 PUSH1 0x5 PUSH1 0x40 PUSH1 0x0 KECCAK256 ADD SSTORE DUP4 PUSH1 0x0 MSTORE PUSH1 0x3 DUP3 MSTORE PUSH1 0x40 PUSH1 0x0 KECCAK256 DUP6 PUSH1 0x0 MSTORE DUP3 MSTORE PUSH1 0x4 PUSH1 0x40 PUSH1 0x0 KECCAK256 ADD PUSH1 0x1 PUSH1 0xFF NOT DUP3 SLOAD AND OR SWAP1 SSTORE PUSH1 0x40 MLOAD SWAP1 DUP2 MSTORE LOG3 STOP JUMPDEST PUSH1 0x40 MLOAD PUSH3 0x461BCD PUSH1 0xE5 SHL DUP2 MSTORE PUSH1 0x20 PUSH1 0x4 DUP3 ADD MSTORE PUSH1 0x16 PUSH1 0x24 DUP3 ADD MSTORE PUSH22 0x4E656564206174206C6561737420332073636F726573 PUSH1 0x50 SHL PUSH1 0x44 DUP3 ADD MSTORE PUSH1 0x64 SWAP1 REVERT JUMPDEST SWAP1 POP PUSH1 0x20 DUP2 RETURNDATASIZE PUSH1 0x20 GT PUSH2 0xB12 JUMPI JUMPDEST DUP2 PUSH2 0xB03 PUSH1 0x20 SWAP4 DUP4 PUSH2 0x1153 JUMP JUMPDEST DUP2 ADD SUB SLT PUSH2 0x11B JUMPI MLOAD DUP4 PUSH2 0x57F JUMP JUMPDEST RETURNDATASIZE SWAP2 POP PUSH2 0xAF6 JUMP JUMPDEST PUSH1 0x40 MLOAD RETURNDATASIZE PUSH1 0x0 DUP3 RETURNDATACOPY RETURNDATASIZE SWAP1 REVERT JUMPDEST PUSH1 0x40 MLOAD PUSH3 0x461BCD PUSH1 0xE5 SHL DUP2 MSTORE PUSH1 0x20 PUSH1 0x4 DUP3 ADD MSTORE PUSH1 0x1E PUSH1 0x24 DUP3 ADD MSTORE PUSH32 0x416C72656164792073636F72656420627920746869732073656E61746F720000 PUSH1 0x44 DUP3 ADD MSTORE PUSH1 0x64 SWAP1 REVERT JUMPDEST PUSH1 0x40 MLOAD PUSH3 0x461BCD PUSH1 0xE5 SHL DUP2 MSTORE PUSH1 0x20 PUSH1 0x4 DUP3 ADD MSTORE PUSH1 0x16 PUSH1 0x24 DUP3 ADD MSTORE PUSH22 0x2737BA1030BABA3437B934BD32B21039B2B730BA37B9 PUSH1 0x51 SHL PUSH1 0x44 DUP3 ADD MSTORE PUSH1 0x64 SWAP1 REVERT JUMPDEST PUSH1 0x20 DUP2 RETURNDATASIZE PUSH1 0x20 GT PUSH2 0xBE3 JUMPI JUMPDEST DUP2 PUSH2 0xBC2 PUSH1 0x20 SWAP4 DUP4 PUSH2 0x1153 JUMP JUMPDEST DUP2 ADD SUB SLT PUSH2 0xBDF JUMPI MLOAD SWAP1 DUP2 ISZERO ISZERO DUP3 SUB PUSH2 0xBDC JUMPI POP DUP5 PUSH2 0x436 JUMP JUMPDEST DUP1 REVERT JUMPDEST POP DUP1 REVERT JUMPDEST RETURNDATASIZE SWAP2 POP PUSH2 0xBB5 JUMP JUMPDEST PUSH1 0x40 MLOAD PUSH3 0x461BCD PUSH1 0xE5 SHL DUP2 MSTORE PUSH1 0x20 PUSH1 0x4 DUP3 ADD MSTORE PUSH1 0x1F PUSH1 0x24 DUP3 ADD MSTORE PUSH32 0x53636F7265206D757374206265206265747765656E203020616E642031303000 PUSH1 0x44 DUP3 ADD MSTORE PUSH1 0x64 SWAP1 REVERT JUMPDEST PUSH1 0x40 MLOAD PUSH3 0x461BCD PUSH1 0xE5 SHL DUP2 MSTORE PUSH1 0x20 PUSH1 0x4 DUP3 ADD MSTORE PUSH1 0xE PUSH1 0x24 DUP3 ADD MSTORE PUSH14 0x105B1C9958591E481CD8DBDC9959 PUSH1 0x92 SHL PUSH1 0x44 DUP3 ADD MSTORE PUSH1 0x64 SWAP1 REVERT JUMPDEST PUSH1 0x40 MLOAD PUSH3 0x461BCD PUSH1 0xE5 SHL DUP2 MSTORE PUSH1 0x20 PUSH1 0x4 DUP3 ADD MSTORE PUSH1 0x14 PUSH1 0x24 DUP3 ADD MSTORE PUSH20 0x14DD589B5A5CDCDA5BDB881B9BDD08199BDD5B99 PUSH1 0x62 SHL PUSH1 0x44 DUP3 ADD MSTORE PUSH1 0x64 SWAP1 REVERT JUMPDEST CALLVALUE PUSH2 0x11B JUMPI PUSH1 0x40 CALLDATASIZE PUSH1 0x3 NOT ADD SLT PUSH2 0x11B JUMPI PUSH1 0x40 PUSH2 0xCBD PUSH2 0x113D JUMP JUMPDEST PUSH1 0x4 CALLDATALOAD PUSH1 0x0 SWAP1 DUP2 MSTORE PUSH1 0x3 PUSH1 0x20 SWAP1 DUP2 MSTORE DUP4 DUP3 KECCAK256 PUSH1 0x1 PUSH1 0x1 PUSH1 0xA0 SHL SUB SWAP4 DUP5 AND DUP4 MSTORE SWAP1 MSTORE SWAP2 SWAP1 SWAP2 KECCAK256 DUP1 SLOAD PUSH1 0x1 DUP3 ADD SLOAD SWAP3 AND SWAP1 PUSH2 0x265 PUSH2 0xCFB PUSH1 0x2 DUP4 ADD PUSH2 0x11AF JUMP JUMPDEST PUSH1 0x3 DUP4 ADD SLOAD SWAP3 PUSH1 0xFF PUSH1 0x4 DUP3 ADD SLOAD AND PUSH2 0xD38 PUSH1 0xFF PUSH1 0x6 PUSH1 0x5 DUP6 ADD SLOAD SWAP5 ADD SLOAD AND SWAP4 PUSH1 0x40 MLOAD SWAP9 DUP10 SWAP9 DUP10 MSTORE PUSH1 0x20 DUP10 ADD MSTORE PUSH1 0xE0 PUSH1 0x40 DUP10 ADD MSTORE PUSH1 0xE0 DUP9 ADD SWAP1 PUSH2 0x1253 JUMP JUMPDEST SWAP5 PUSH1 0x60 DUP8 ADD MSTORE ISZERO ISZERO PUSH1 0x80 DUP7 ADD MSTORE PUSH1 0xA0 DUP6 ADD MSTORE PUSH1 0xC0 DUP5 ADD SWAP1 PUSH2 0x1294 JUMP JUMPDEST CALLVALUE PUSH2 0x11B JUMPI PUSH1 0x60 CALLDATASIZE PUSH1 0x3 NOT ADD SLT PUSH2 0x11B JUMPI PUSH1 0x4 CALLDATALOAD PUSH1 0x24 CALLDATALOAD PUSH8 0xFFFFFFFFFFFFFFFF DUP2 GT PUSH2 0x11B JUMPI CALLDATASIZE PUSH1 0x23 DUP3 ADD SLT ISZERO PUSH2 0x11B JUMPI DUP1 PUSH1 0x4 ADD CALLDATALOAD PUSH8 0xFFFFFFFFFFFFFFFF DUP2 GT PUSH2 0x738 JUMPI PUSH1 0x40 MLOAD SWAP2 PUSH2 0xDB1 PUSH1 0x1F DUP4 ADD PUSH1 0x1F NOT AND PUSH1 0x20 ADD DUP5 PUSH2 0x1153 JUMP JUMPDEST DUP2 DUP4 MSTORE CALLDATASIZE PUSH1 0x24 DUP4 DUP4 ADD ADD GT PUSH2 0x11B JUMPI DUP2 PUSH1 0x0 SWAP3 PUSH1 0x24 PUSH1 0x20 SWAP4 ADD DUP4 DUP7 ADD CALLDATACOPY DUP4 ADD ADD MSTORE PUSH1 0x44 CALLDATALOAD SWAP2 PUSH1 0x7 DUP4 LT ISZERO PUSH2 0x11B JUMPI DUP2 MLOAD ISZERO PUSH2 0x109F JUMPI PUSH1 0x0 DUP2 DUP2 MSTORE PUSH1 0x3 PUSH1 0x20 SWAP1 DUP2 MSTORE PUSH1 0x40 DUP1 DUP4 KECCAK256 CALLER DUP5 MSTORE SWAP1 SWAP2 MSTORE SWAP1 KECCAK256 PUSH1 0x4 ADD SLOAD PUSH1 0xFF AND PUSH2 0x105A JUMPI PUSH1 0x40 MLOAD PUSH1 0xE0 DUP2 ADD DUP2 DUP2 LT PUSH8 0xFFFFFFFFFFFFFFFF DUP3 GT OR PUSH2 0x738 JUMPI PUSH1 0x40 SWAP1 DUP2 MSTORE CALLER DUP1 DUP4 MSTORE PUSH1 0x20 DUP1 DUP5 ADD DUP6 DUP2 MSTORE DUP5 DUP5 ADD DUP8 DUP2 MSTORE TIMESTAMP PUSH1 0x60 DUP8 ADD SWAP1 DUP2 MSTORE PUSH1 0x0 PUSH1 0x80 DUP9 ADD DUP2 DUP2 MSTORE PUSH1 0xA0 DUP10 ADD DUP3 DUP2 MSTORE PUSH1 0xC0 DUP11 ADD SWAP13 DUP14 MSTORE DUP11 DUP4 MSTORE PUSH1 0x3 DUP8 MSTORE DUP9 DUP4 KECCAK256 SWAP8 DUP4 MSTORE SWAP7 SWAP1 SWAP6 MSTORE SWAP6 DUP7 KECCAK256 SWAP7 MLOAD DUP8 SLOAD PUSH1 0x1 PUSH1 0x1 PUSH1 0xA0 SHL SUB NOT AND PUSH1 0x1 PUSH1 0x1 PUSH1 0xA0 SHL SUB SWAP2 SWAP1 SWAP2 AND OR DUP8 SSTORE SWAP2 MLOAD PUSH1 0x1 DUP8 ADD SSTORE MLOAD DUP1 MLOAD SWAP5 SWAP9 SWAP6 SWAP5 PUSH1 0x2 DUP7 ADD SWAP2 PUSH8 0xFFFFFFFFFFFFFFFF DUP3 GT PUSH2 0x1046 JUMPI PUSH2 0xEB7 DUP4 SLOAD PUSH2 0x1175 JUMP JUMPDEST PUSH1 0x1F DUP2 GT PUSH2 0x1001 JUMPI JUMPDEST POP PUSH1 0x20 SWAP1 DUP12 PUSH1 0x1F DUP5 GT PUSH1 0x1 EQ PUSH2 0xF93 JUMPI SWAP3 PUSH1 0x6 SWAP9 SWAP8 SWAP7 SWAP5 SWAP3 DUP2 SWAP3 PUSH2 0xF18 SWAP8 SWAP6 SWAP3 PUSH2 0xF88 JUMPI JUMPDEST POP POP DUP2 PUSH1 0x1 SHL SWAP2 PUSH1 0x0 NOT SWAP1 PUSH1 0x3 SHL SHR NOT AND OR SWAP1 SSTORE JUMPDEST MLOAD PUSH1 0x3 DUP6 ADD SSTORE MLOAD ISZERO ISZERO PUSH1 0x4 DUP5 ADD SWAP1 PUSH1 0xFF DUP1 NOT DUP4 SLOAD AND SWAP2 ISZERO ISZERO AND OR SWAP1 SSTORE JUMP JUMPDEST MLOAD PUSH1 0x5 DUP3 ADD SSTORE ADD SWAP1 MLOAD PUSH1 0x7 DUP2 LT ISZERO PUSH2 0xF74 JUMPI PUSH1 0xFF DUP1 NOT DUP4 SLOAD AND SWAP2 AND OR SWAP1 SSTORE PUSH32 0x72075524713934864C8A8FF2740C94CD50C441BF186D8FFD9B908CA8DBB4776D PUSH1 0x40 MLOAD PUSH1 0x20 DUP2 MSTORE DUP1 PUSH2 0xF6E CALLER SWAP6 PUSH1 0x20 DUP4 ADD SWAP1 PUSH2 0x1253 JUMP JUMPDEST SUB SWAP1 LOG3 DUP1 RETURN JUMPDEST PUSH4 0x4E487B71 PUSH1 0xE0 SHL DUP6 MSTORE PUSH1 0x21 PUSH1 0x4 MSTORE PUSH1 0x24 DUP6 REVERT JUMPDEST ADD MLOAD SWAP1 POP DUP14 DUP1 PUSH2 0xEE5 JUMP JUMPDEST POP DUP4 DUP13 MSTORE DUP2 DUP13 KECCAK256 SWAP2 SWAP1 PUSH1 0x1F NOT DUP5 AND DUP14 JUMPDEST DUP2 DUP2 LT PUSH2 0xFE9 JUMPI POP SWAP3 PUSH1 0x1 SWAP3 DUP6 SWAP3 PUSH2 0xF18 SWAP9 SWAP7 PUSH1 0x6 SWAP13 SWAP12 SWAP11 SWAP9 SWAP7 LT PUSH2 0xFD0 JUMPI JUMPDEST POP POP POP DUP2 SHL ADD SWAP1 SSTORE PUSH2 0xEFA JUMP JUMPDEST ADD MLOAD PUSH1 0x0 NOT PUSH1 0xF8 DUP5 PUSH1 0x3 SHL AND SHR NOT AND SWAP1 SSTORE DUP14 DUP1 DUP1 PUSH2 0xFC3 JUMP JUMPDEST SWAP3 SWAP4 PUSH1 0x20 PUSH1 0x1 DUP2 SWAP3 DUP8 DUP7 ADD MLOAD DUP2 SSTORE ADD SWAP6 ADD SWAP4 ADD PUSH2 0xFA3 JUMP JUMPDEST DUP4 DUP13 MSTORE PUSH1 0x20 DUP13 KECCAK256 PUSH1 0x1F DUP5 ADD PUSH1 0x5 SHR DUP2 ADD SWAP2 PUSH1 0x20 DUP6 LT PUSH2 0x103C JUMPI JUMPDEST PUSH1 0x1F ADD PUSH1 0x5 SHR ADD SWAP1 JUMPDEST DUP2 DUP2 LT PUSH2 0x1031 JUMPI POP PUSH2 0xEC0 JUMP JUMPDEST DUP13 DUP2 SSTORE PUSH1 0x1 ADD PUSH2 0x1024 JUMP JUMPDEST SWAP1 SWAP2 POP DUP2 SWAP1 PUSH2 0x101B JUMP JUMPDEST PUSH4 0x4E487B71 PUSH1 0xE0 SHL DUP12 MSTORE PUSH1 0x41 PUSH1 0x4 MSTORE PUSH1 0x24 DUP12 REVERT JUMPDEST PUSH1 0x40 MLOAD PUSH3 0x461BCD PUSH1 0xE5 SHL DUP2 MSTORE PUSH1 0x20 PUSH1 0x4 DUP3 ADD MSTORE PUSH1 0x1C PUSH1 0x24 DUP3 ADD MSTORE PUSH32 0x416C7265616479207375626D697474656420616E642073636F72656400000000 PUSH1 0x44 DUP3 ADD MSTORE PUSH1 0x64 SWAP1 REVERT JUMPDEST PUSH1 0x40 MLOAD PUSH3 0x461BCD PUSH1 0xE5 SHL DUP2 MSTORE PUSH1 0x20 PUSH1 0x4 DUP3 ADD MSTORE PUSH1 0x1B PUSH1 0x24 DUP3 ADD MSTORE PUSH32 0x436F6E74656E742055524C2063616E6E6F7420626520656D7074790000000000 PUSH1 0x44 DUP3 ADD MSTORE PUSH1 0x64 SWAP1 REVERT JUMPDEST CALLVALUE PUSH2 0x11B JUMPI PUSH1 0x40 CALLDATASIZE PUSH1 0x3 NOT ADD SLT PUSH2 0x11B JUMPI PUSH2 0x10FD PUSH2 0x113D JUMP JUMPDEST PUSH1 0x4 CALLDATALOAD PUSH1 0x0 MSTORE PUSH1 0x3 PUSH1 0x20 MSTORE PUSH1 0x40 PUSH1 0x0 KECCAK256 SWAP1 PUSH1 0x1 DUP1 PUSH1 0xA0 SHL SUB AND PUSH1 0x0 MSTORE PUSH1 0x20 MSTORE PUSH1 0x40 DUP1 PUSH1 0x0 KECCAK256 PUSH1 0xFF PUSH1 0x4 PUSH1 0x5 DUP4 ADD SLOAD SWAP3 ADD SLOAD AND DUP3 MLOAD SWAP2 DUP3 MSTORE ISZERO ISZERO PUSH1 0x20 DUP3 ADD MSTORE RETURN JUMPDEST PUSH1 0x24 CALLDATALOAD SWAP1 PUSH1 0x1 PUSH1 0x1 PUSH1 0xA0 SHL SUB DUP3 AND DUP3 SUB PUSH2 0x11B JUMPI JUMP JUMPDEST SWAP1 PUSH1 0x1F DUP1 NOT SWAP2 ADD AND DUP2 ADD SWAP1 DUP2 LT PUSH8 0xFFFFFFFFFFFFFFFF DUP3 GT OR PUSH2 0x738 JUMPI PUSH1 0x40 MSTORE JUMP JUMPDEST SWAP1 PUSH1 0x1 DUP3 DUP2 SHR SWAP3 AND DUP1 ISZERO PUSH2 0x11A5 JUMPI JUMPDEST PUSH1 0x20 DUP4 LT EQ PUSH2 0x118F JUMPI JUMP JUMPDEST PUSH4 0x4E487B71 PUSH1 0xE0 SHL PUSH1 0x0 MSTORE PUSH1 0x22 PUSH1 0x4 MSTORE PUSH1 0x24 PUSH1 0x0 REVERT JUMPDEST SWAP2 PUSH1 0x7F AND SWAP2 PUSH2 0x1184 JUMP JUMPDEST SWAP1 PUSH1 0x40 MLOAD SWAP2 DUP3 PUSH1 0x0 DUP3 SLOAD SWAP3 PUSH2 0x11C3 DUP5 PUSH2 0x1175 JUMP JUMPDEST DUP1 DUP5 MSTORE SWAP4 PUSH1 0x1 DUP2 AND SWAP1 DUP2 ISZERO PUSH2 0x1231 JUMPI POP PUSH1 0x1 EQ PUSH2 0x11EA JUMPI JUMPDEST POP PUSH2 0x11E8 SWAP3 POP SUB DUP4 PUSH2 0x1153 JUMP JUMPDEST JUMP JUMPDEST SWAP1 POP PUSH1 0x0 SWAP3 SWAP2 SWAP3 MSTORE PUSH1 0x20 PUSH1 0x0 KECCAK256 SWAP1 PUSH1 0x0 SWAP2 JUMPDEST DUP2 DUP4 LT PUSH2 0x1215 JUMPI POP POP SWAP1 PUSH1 0x20 PUSH2 0x11E8 SWAP3 DUP3 ADD ADD CODESIZE PUSH2 0x11DB JUMP JUMPDEST PUSH1 0x20 SWAP2 SWAP4 POP DUP1 PUSH1 0x1 SWAP2 SLOAD DUP4 DUP6 DUP10 ADD ADD MSTORE ADD SWAP2 ADD SWAP1 SWAP2 DUP5 SWAP3 PUSH2 0x11FC JUMP JUMPDEST SWAP1 POP PUSH1 0x20 SWAP3 POP PUSH2 0x11E8 SWAP5 SWAP2 POP PUSH1 0xFF NOT AND DUP3 DUP5 ADD MSTORE ISZERO ISZERO PUSH1 0x5 SHL DUP3 ADD ADD CODESIZE PUSH2 0x11DB JUMP JUMPDEST SWAP2 SWAP1 DUP3 MLOAD SWAP3 DUP4 DUP3 MSTORE PUSH1 0x0 JUMPDEST DUP5 DUP2 LT PUSH2 0x127F JUMPI POP POP DUP3 PUSH1 0x0 PUSH1 0x20 DUP1 SWAP5 SWAP6 DUP5 ADD ADD MSTORE PUSH1 0x1F DUP1 NOT SWAP2 ADD AND ADD ADD SWAP1 JUMP JUMPDEST DUP1 PUSH1 0x20 DUP1 SWAP3 DUP5 ADD ADD MLOAD DUP3 DUP3 DUP7 ADD ADD MSTORE ADD PUSH2 0x125E JUMP JUMPDEST SWAP1 PUSH1 0x7 DUP3 LT ISZERO PUSH2 0x12A1 JUMPI MSTORE JUMP JUMPDEST PUSH4 0x4E487B71 PUSH1 0xE0 SHL PUSH1 0x0 MSTORE PUSH1 0x21 PUSH1 0x4 MSTORE PUSH1 0x24 PUSH1 0x0 REVERT JUMPDEST PUSH1 0x60 SWAP1 PUSH1 0x3 NOT ADD SLT PUSH2 0x11B JUMPI PUSH1 0x4 CALLDATALOAD SWAP1 PUSH1 0x24 CALLDATALOAD PUSH1 0x1 PUSH1 0x1 PUSH1 0xA0 SHL SUB DUP2 AND DUP2 SUB PUSH2 0x11B JUMPI SWAP1 PUSH1 0x44 CALLDATALOAD SWAP1 JUMP JUMPDEST PUSH1 0x60 SWAP1 PUSH1 0x3 NOT ADD SLT PUSH2 0x11B JUMPI PUSH1 0x4 CALLDATALOAD SWAP1 PUSH1 0x24 CALLDATALOAD PUSH1 0x1 PUSH1 0x1 PUSH1 0xA0 SHL SUB DUP2 AND DUP2 SUB PUSH2 0x11B JUMPI SWAP1 PUSH1 0x44 CALLDATALOAD PUSH1 0x1 PUSH1 0x1 PUSH1 0xA0 SHL SUB DUP2 AND DUP2 SUB PUSH2 0x11B JUMPI SWAP1 JUMP JUMPDEST DUP1 SLOAD DUP3 LT ISZERO PUSH2 0x1333 JUMPI PUSH1 0x0 MSTORE PUSH1 0x20 PUSH1 0x0 KECCAK256 ADD SWAP1 PUSH1 0x0 SWAP1 JUMP JUMPDEST PUSH4 0x4E487B71 PUSH1 0xE0 SHL PUSH1 0x0 MSTORE PUSH1 0x32 PUSH1 0x4 MSTORE PUSH1 0x24 PUSH1 0x0 REVERT JUMPDEST PUSH1 0x7 DUP2 LT ISZERO PUSH2 0x12A1 JUMPI PUSH1 0x0 MSTORE PUSH1 0x1 PUSH1 0x20 MSTORE PUSH1 0x40 PUSH1 0x0 KECCAK256 SWAP1 JUMP JUMPDEST PUSH8 0xFFFFFFFFFFFFFFFF DUP2 GT PUSH2 0x738 JUMPI PUSH1 0x5 SHL PUSH1 0x20 ADD SWAP1 JUMP JUMPDEST SWAP1 PUSH2 0x1384 DUP3 PUSH2 0x1362 JUMP JUMPDEST PUSH2 0x1391 PUSH1 0x40 MLOAD SWAP2 DUP3 PUSH2 0x1153 JUMP JUMPDEST DUP3 DUP2 MSTORE DUP1 SWAP3 PUSH2 0x13A2 PUSH1 0x1F NOT SWAP2 PUSH2 0x1362 JUMP JUMPDEST ADD SWAP1 PUSH1 0x20 CALLDATASIZE SWAP2 ADD CALLDATACOPY JUMP JUMPDEST DUP1 MLOAD DUP3 LT ISZERO PUSH2 0x1333 JUMPI PUSH1 0x20 SWAP2 PUSH1 0x5 SHL ADD ADD SWAP1 JUMP JUMPDEST SWAP2 SWAP1 DUP3 ADD DUP1 SWAP3 GT PUSH2 0x6AF JUMPI JUMP JUMPDEST DUP2 DUP2 MUL SWAP3 SWAP2 DUP2 ISZERO SWAP2 DUP5 DIV EQ OR ISZERO PUSH2 0x6AF JUMPI JUMP JUMPDEST DUP2 ISZERO PUSH2 0x13EA JUMPI DIV SWAP1 JUMP JUMPDEST PUSH4 0x4E487B71 PUSH1 0xE0 SHL PUSH1 0x0 MSTORE PUSH1 0x12 PUSH1 0x4 MSTORE PUSH1 0x24 PUSH1 0x0 REVERT JUMPDEST SWAP2 SWAP1 DUP3 SUB SWAP2 DUP3 GT PUSH2 0x6AF JUMPI JUMP JUMPDEST DUP1 ISZERO PUSH2 0x144E JUMPI PUSH1 0x1 DUP2 ADD DUP1 DUP3 GT PUSH2 0x6AF JUMPI PUSH1 0x1 SHR DUP2 JUMPDEST DUP3 DUP3 LT PUSH2 0x142F JUMPI POP POP SWAP1 JUMP JUMPDEST SWAP1 SWAP2 POP PUSH2 0x1445 DUP3 PUSH2 0x1440 DUP2 DUP5 PUSH2 0x13E0 JUMP JUMPDEST PUSH2 0x13C0 JUMP JUMPDEST PUSH1 0x1 SHR SWAP1 PUSH2 0x1423 JUMP JUMPDEST POP PUSH1 0x0 SWAP1 JUMP INVALID LOG2 PUSH5 0x6970667358 0x22 SLT KECCAK256 0x1E 0xB6 BLOBHASH BALANCE 0xEF DELEGATECALL 0xE2 PUSH5 0xDB8E7F87AE 0x27 0xD7 GAS PUSH15 0xE21376F2F36D950C0E8BB5346E9D1C PUSH5 0x736F6C6343 STOP ADDMOD SHR STOP CALLER "},"methodIdentifiers":{"INITIAL_REPUTATION()":"7b057258","MIN_SCORES_REQUIRED()":"cb66a0f3","REPUTATION_DECREASE()":"aac38d8c","REPUTATION_INCREASE()":"e6fc2d8a","categoryExists(uint8)":"b51bcc0e","categoryNames(uint256)":"784940c5","getCategoryName(uint8)":"3f9a61e0","getFinalScore(uint256,address)":"0317a6a3","getSenatorScore(uint256,address,address)":"eedfae64","scorerInfo(address)":"5c4fe6ca","senateContract()":"5d85fa18","senatorScores(uint256,address,address)":"49e97bf7","submissionScorers(uint256,address,uint256)":"818c4368","submissions(uint256,address)":"0e4dbf5c","submitContent(uint256,string,uint8)":"0504429b","submitScore(uint256,address,uint256)":"29d8e857"}}}}}