{"contracts/MockCommunity.sol":{"MockCommunity":{"abi":[{"inputs":[{"internalType":"uint256","name":"_communityId","type":"uint256"},{"internalType":"address","name":"_member","type":"address"}],"name":"getMemberStatus","outputs":[{"internalType":"bool","name":"isScored","type":"bool"},{"internalType":"bool","name":"isApproved","type":"bool"}],"stateMutability":"view","type":"function"},{"inputs":[{"internalType":"uint256","name":"","type":"uint256"},{"internalType":"address","name":"","type":"address"}],"name":"memberApproved","outputs":[{"internalType":"bool","name":"","type":"bool"}],"stateMutability":"view","type":"function"},{"inputs":[{"internalType":"uint256","name":"","type":"uint256"},{"internalType":"address","name":"","type":"address"}],"name":"memberScored","outputs":[{"internalType":"bool","name":"","type":"bool"}],"stateMutability":"view","type":"function"},{"inputs":[{"internalType":"uint256","name":"_communityId","type":"uint256"},{"internalType":"address","name":"_member","type":"address"},{"internalType":"bool","name":"_isScored","type":"bool"},{"internalType":"bool","name":"_isApproved","type":"bool"}],"name":"setMemberStatus","outputs":[],"stateMutability":"nonpayable","type":"function"}],"evm":{"bytecode":{"linkReferences":{},"object":"60808060405234601557610242908161001b8239f35b600080fdfe6080604052600436101561001257600080fd5b60003560e01c806326e98b8b1461018c578063483489e1146100e7578063547b502d1461009a576365a38d751461004857600080fd5b34610095576040366003190112610095576100616101f6565b600435600052600060205260406000209060018060a01b0316600052602052602060ff604060002054166040519015158152f35b600080fd5b34610095576040366003190112610095576100b36101f6565b600435600052600160205260406000209060018060a01b0316600052602052602060ff604060002054166040519015158152f35b34610095576080366003190112610095576004356101036101f6565b90604435918215158303610095576064359182151583036100955761015861018a94826000526000602052604060002060018060a01b03851660005260205260406000209060ff801983541691151516179055565b600052600160205260406000209060018060a01b031660005260205260406000209060ff801983541691151516179055565b005b346100955760403660031901126100955760406004356101aa6101f6565b600082815260208181528482206001600160a01b0393909316808352928152848220549382526001815284822092825291825283902054835160ff938416151581529216151590820152f35b602435906001600160a01b03821682036100955756fea2646970667358221220833fe6581cdb212cdf2d5b8e38a870e083919418d00a1e86562a5b5023a8094364736f6c634300081c0033","opcodes":"PUSH1 0x80 DUP1 PUSH1 0x40 MSTORE CALLVALUE PUSH1 0x15 JUMPI PUSH2 0x242 SWAP1 DUP2 PUSH2 0x1B DUP3 CODECOPY RETURN JUMPDEST PUSH1 0x0 DUP1 REVERT INVALID PUSH1 0x80 PUSH1 0x40 MSTORE PUSH1 0x4 CALLDATASIZE LT ISZERO PUSH2 0x12 JUMPI PUSH1 0x0 DUP1 REVERT JUMPDEST PUSH1 0x0 CALLDATALOAD PUSH1 0xE0 SHR DUP1 PUSH4 0x26E98B8B EQ PUSH2 0x18C JUMPI DUP1 PUSH4 0x483489E1 EQ PUSH2 0xE7 JUMPI DUP1 PUSH4 0x547B502D EQ PUSH2 0x9A JUMPI PUSH4 0x65A38D75 EQ PUSH2 0x48 JUMPI PUSH1 0x0 DUP1 REVERT JUMPDEST CALLVALUE PUSH2 0x95 JUMPI PUSH1 0x40 CALLDATASIZE PUSH1 0x3 NOT ADD SLT PUSH2 0x95 JUMPI PUSH2 0x61 PUSH2 0x1F6 JUMP JUMPDEST PUSH1 0x4 CALLDATALOAD PUSH1 0x0 MSTORE PUSH1 0x0 PUSH1 0x20 MSTORE PUSH1 0x40 PUSH1 0x0 KECCAK256 SWAP1 PUSH1 0x1 DUP1 PUSH1 0xA0 SHL SUB AND PUSH1 0x0 MSTORE PUSH1 0x20 MSTORE PUSH1 0x20 PUSH1 0xFF PUSH1 0x40 PUSH1 0x0 KECCAK256 SLOAD AND PUSH1 0x40 MLOAD SWAP1 ISZERO ISZERO DUP2 MSTORE RETURN JUMPDEST PUSH1 0x0 DUP1 REVERT JUMPDEST CALLVALUE PUSH2 0x95 JUMPI PUSH1 0x40 CALLDATASIZE PUSH1 0x3 NOT ADD SLT PUSH2 0x95 JUMPI PUSH2 0xB3 PUSH2 0x1F6 JUMP JUMPDEST PUSH1 0x4 CALLDATALOAD PUSH1 0x0 MSTORE PUSH1 0x1 PUSH1 0x20 MSTORE PUSH1 0x40 PUSH1 0x0 KECCAK256 SWAP1 PUSH1 0x1 DUP1 PUSH1 0xA0 SHL SUB AND PUSH1 0x0 MSTORE PUSH1 0x20 MSTORE PUSH1 0x20 PUSH1 0xFF PUSH1 0x40 PUSH1 0x0 KECCAK256 SLOAD AND PUSH1 0x40 MLOAD SWAP1 ISZERO ISZERO DUP2 MSTORE RETURN JUMPDEST CALLVALUE PUSH2 0x95 JUMPI PUSH1 0x80 CALLDATASIZE PUSH1 0x3 NOT ADD SLT PUSH2 0x95 JUMPI PUSH1 0x4 CALLDATALOAD PUSH2 0x103 PUSH2 0x1F6 JUMP JUMPDEST SWAP1 PUSH1 0x44 CALLDATALOAD SWAP2 DUP3 ISZERO ISZERO DUP4 SUB PUSH2 0x95 JUMPI PUSH1 0x64 CALLDATALOAD SWAP2 DUP3 ISZERO ISZERO DUP4 SUB PUSH2 0x95 JUMPI PUSH2 0x158 PUSH2 0x18A SWAP5 DUP3 PUSH1 0x0 MSTORE PUSH1 0x0 PUSH1 0x20 MSTORE PUSH1 0x40 PUSH1 0x0 KECCAK256 PUSH1 0x1 DUP1 PUSH1 0xA0 SHL SUB DUP6 AND PUSH1 0x0 MSTORE PUSH1 0x20 MSTORE PUSH1 0x40 PUSH1 0x0 KECCAK256 SWAP1 PUSH1 0xFF DUP1 NOT DUP4 SLOAD AND SWAP2 ISZERO ISZERO AND OR SWAP1 SSTORE JUMP JUMPDEST PUSH1 0x0 MSTORE PUSH1 0x1 PUSH1 0x20 MSTORE PUSH1 0x40 PUSH1 0x0 KECCAK256 SWAP1 PUSH1 0x1 DUP1 PUSH1 0xA0 SHL SUB AND PUSH1 0x0 MSTORE PUSH1 0x20 MSTORE PUSH1 0x40 PUSH1 0x0 KECCAK256 SWAP1 PUSH1 0xFF DUP1 NOT DUP4 SLOAD AND SWAP2 ISZERO ISZERO AND OR SWAP1 SSTORE JUMP JUMPDEST STOP JUMPDEST CALLVALUE PUSH2 0x95 JUMPI PUSH1 0x40 CALLDATASIZE PUSH1 0x3 NOT ADD SLT PUSH2 0x95 JUMPI PUSH1 0x40 PUSH1 0x4 CALLDATALOAD PUSH2 0x1AA PUSH2 0x1F6 JUMP JUMPDEST PUSH1 0x0 DUP3 DUP2 MSTORE PUSH1 0x20 DUP2 DUP2 MSTORE DUP5 DUP3 KECCAK256 PUSH1 0x1 PUSH1 0x1 PUSH1 0xA0 SHL SUB SWAP4 SWAP1 SWAP4 AND DUP1 DUP4 MSTORE SWAP3 DUP2 MSTORE DUP5 DUP3 KECCAK256 SLOAD SWAP4 DUP3 MSTORE PUSH1 0x1 DUP2 MSTORE DUP5 DUP3 KECCAK256 SWAP3 DUP3 MSTORE SWAP2 DUP3 MSTORE DUP4 SWAP1 KECCAK256 SLOAD DUP4 MLOAD PUSH1 0xFF SWAP4 DUP5 AND ISZERO ISZERO DUP2 MSTORE SWAP3 AND ISZERO ISZERO SWAP1 DUP3 ADD MSTORE RETURN JUMPDEST PUSH1 0x24 CALLDATALOAD SWAP1 PUSH1 0x1 PUSH1 0x1 PUSH1 0xA0 SHL SUB DUP3 AND DUP3 SUB PUSH2 0x95 JUMPI JUMP INVALID LOG2 PUSH5 0x6970667358 0x22 SLT KECCAK256 DUP4 EXTCODEHASH 0xE6 PC SHR 0xDB 0x21 0x2C 0xDF 0x2D JUMPDEST DUP15 CODESIZE 0xA8 PUSH17 0xE083919418D00A1E86562A5B5023A80943 PUSH5 0x736F6C6343 STOP ADDMOD SHR STOP CALLER "},"methodIdentifiers":{"getMemberStatus(uint256,address)":"26e98b8b","memberApproved(uint256,address)":"547b502d","memberScored(uint256,address)":"65a38d75","setMemberStatus(uint256,address,bool,bool)":"483489e1"}}}}}