{"contracts/community.sol":{"GoalOrientedCommunity":{"abi":[{"inputs":[{"internalType":"address","name":"_senateAddress","type":"address"},{"internalType":"address","name":"_tokenAddress","type":"address"}],"stateMutability":"nonpayable","type":"constructor"},{"anonymous":false,"inputs":[{"indexed":true,"internalType":"uint256","name":"id","type":"uint256"},{"indexed":true,"internalType":"address","name":"member","type":"address"},{"indexed":false,"internalType":"bool","name":"vote","type":"bool"}],"name":"CloseVoteSubmitted","type":"event"},{"anonymous":false,"inputs":[{"indexed":true,"internalType":"uint256","name":"id","type":"uint256"}],"name":"CommunityClosed","type":"event"},{"anonymous":false,"inputs":[{"indexed":true,"internalType":"uint256","name":"id","type":"uint256"},{"indexed":false,"internalType":"address","name":"creator","type":"address"},{"indexed":false,"internalType":"enum CommunityTypes.Category","name":"category","type":"uint8"}],"name":"CommunityCreated","type":"event"},{"anonymous":false,"inputs":[{"indexed":true,"internalType":"uint256","name":"communityId","type":"uint256"},{"indexed":false,"internalType":"string","name":"publicKey","type":"string"}],"name":"CommunityKeysGenerated","type":"event"},{"anonymous":false,"inputs":[{"indexed":true,"internalType":"uint256","name":"id","type":"uint256"},{"indexed":false,"internalType":"address","name":"member","type":"address"}],"name":"GoalApproved","type":"event"},{"anonymous":false,"inputs":[{"indexed":true,"internalType":"uint256","name":"id","type":"uint256"},{"indexed":false,"internalType":"address","name":"member","type":"address"}],"name":"MemberJoined","type":"event"},{"anonymous":false,"inputs":[{"indexed":true,"internalType":"uint256","name":"communityId","type":"uint256"},{"indexed":true,"internalType":"address","name":"accessor","type":"address"},{"indexed":false,"internalType":"bool","name":"isSenator","type":"bool"}],"name":"PrivateKeyEncrypted","type":"event"},{"anonymous":false,"inputs":[{"indexed":true,"internalType":"uint256","name":"id","type":"uint256"},{"indexed":true,"internalType":"address","name":"reviewer","type":"address"}],"name":"ReviewerAdded","type":"event"},{"anonymous":false,"inputs":[{"indexed":true,"internalType":"uint256","name":"id","type":"uint256"},{"indexed":true,"internalType":"address","name":"reviewer","type":"address"},{"indexed":true,"internalType":"address","name":"member","type":"address"},{"indexed":false,"internalType":"bool","name":"approved","type":"bool"}],"name":"ReviewerApproval","type":"event"},{"anonymous":false,"inputs":[{"indexed":true,"internalType":"uint256","name":"id","type":"uint256"},{"indexed":false,"internalType":"address","name":"member","type":"address"},{"indexed":false,"internalType":"uint256","name":"amount","type":"uint256"}],"name":"RewardClaimed","type":"event"},{"anonymous":false,"inputs":[{"indexed":true,"internalType":"uint256","name":"id","type":"uint256"},{"indexed":true,"internalType":"address","name":"member","type":"address"},{"indexed":true,"internalType":"address","name":"senator","type":"address"},{"indexed":false,"internalType":"uint256","name":"score","type":"uint256"}],"name":"ScoreSubmitted","type":"event"},{"anonymous":false,"inputs":[{"indexed":true,"internalType":"uint256","name":"id","type":"uint256"},{"indexed":false,"internalType":"address","name":"member","type":"address"},{"indexed":false,"internalType":"string","name":"submissionUrl","type":"string"}],"name":"SubmissionUploaded","type":"event"},{"inputs":[],"name":"STAKE_AMOUNT","outputs":[{"internalType":"uint256","name":"","type":"uint256"}],"stateMutability":"view","type":"function"},{"inputs":[{"internalType":"enum CommunityTypes.Category","name":"","type":"uint8"}],"name":"categoryExists","outputs":[{"internalType":"bool","name":"","type":"bool"}],"stateMutability":"view","type":"function"},{"inputs":[{"internalType":"uint256","name":"","type":"uint256"}],"name":"categoryNames","outputs":[{"internalType":"string","name":"","type":"string"}],"stateMutability":"view","type":"function"},{"inputs":[{"internalType":"uint256","name":"_communityId","type":"uint256"}],"name":"claimReward","outputs":[],"stateMutability":"nonpayable","type":"function"},{"inputs":[{"internalType":"uint256","name":"_communityId","type":"uint256"}],"name":"closeCommunityByAuthor","outputs":[],"stateMutability":"nonpayable","type":"function"},{"inputs":[{"internalType":"uint256","name":"","type":"uint256"}],"name":"communities","outputs":[{"internalType":"uint256","name":"id","type":"uint256"},{"internalType":"string","name":"name","type":"string"},{"internalType":"string","name":"description","type":"string"},{"internalType":"address","name":"creator","type":"address"},{"internalType":"uint256","name":"startTime","type":"uint256"},{"internalType":"uint256","name":"endTime","type":"uint256"},{"internalType":"string","name":"targetGoal","type":"string"},{"internalType":"uint256","name":"memberDeposit","type":"uint256"},{"internalType":"uint256","name":"rewardPerMember","type":"uint256"},{"internalType":"uint256","name":"maxMembers","type":"uint256"},{"internalType":"uint256","name":"totalMembers","type":"uint256"},{"internalType":"uint256","name":"rewardPool","type":"uint256"},{"internalType":"uint256","name":"depositPool","type":"uint256"},{"internalType":"bool","name":"isClosed","type":"bool"},{"internalType":"enum CommunityTypes.Category","name":"category","type":"uint8"},{"internalType":"uint256","name":"passingScore","type":"uint256"}],"stateMutability":"view","type":"function"},{"inputs":[],"name":"communityCount","outputs":[{"internalType":"uint256","name":"","type":"uint256"}],"stateMutability":"view","type":"function"},{"inputs":[{"internalType":"uint256","name":"","type":"uint256"}],"name":"communityPublicKey","outputs":[{"internalType":"string","name":"","type":"string"}],"stateMutability":"view","type":"function"},{"inputs":[],"name":"communityToken","outputs":[{"internalType":"contract IERC20","name":"","type":"address"}],"stateMutability":"view","type":"function"},{"inputs":[{"internalType":"string","name":"_name","type":"string"},{"internalType":"string","name":"_description","type":"string"},{"internalType":"string","name":"_targetGoal","type":"string"},{"internalType":"uint256","name":"_startTime","type":"uint256"},{"internalType":"uint256","name":"_endTime","type":"uint256"},{"internalType":"uint256","name":"_memberDeposit","type":"uint256"},{"internalType":"uint256","name":"_rewardPerMember","type":"uint256"},{"internalType":"uint256","name":"_maxMembers","type":"uint256"},{"internalType":"enum CommunityTypes.Category","name":"_category","type":"uint8"}],"name":"createCommunity","outputs":[],"stateMutability":"payable","type":"function"},{"inputs":[{"internalType":"uint256","name":"","type":"uint256"}],"name":"encryptedKeysCount","outputs":[{"internalType":"uint256","name":"","type":"uint256"}],"stateMutability":"view","type":"function"},{"inputs":[{"internalType":"uint256","name":"","type":"uint256"},{"internalType":"address","name":"","type":"address"}],"name":"encryptedPrivateKeys","outputs":[{"internalType":"string","name":"","type":"string"}],"stateMutability":"view","type":"function"},{"inputs":[{"internalType":"enum CommunityTypes.Category","name":"_category","type":"uint8"}],"name":"getCategoryName","outputs":[{"internalType":"string","name":"","type":"string"}],"stateMutability":"view","type":"function"},{"inputs":[{"internalType":"uint256","name":"communityId","type":"uint256"}],"name":"getMemberCount","outputs":[{"internalType":"uint256","name":"","type":"uint256"}],"stateMutability":"view","type":"function"},{"inputs":[{"internalType":"uint256","name":"_communityId","type":"uint256"},{"internalType":"address","name":"_member","type":"address"}],"name":"getMemberStatus","outputs":[{"internalType":"bool","name":"isScored","type":"bool"},{"internalType":"bool","name":"isApproved","type":"bool"}],"stateMutability":"view","type":"function"},{"inputs":[{"internalType":"uint256","name":"_communityId","type":"uint256"},{"internalType":"address","name":"_member","type":"address"}],"name":"getScores","outputs":[{"components":[{"internalType":"address","name":"senator","type":"address"},{"internalType":"uint256","name":"score","type":"uint256"},{"internalType":"string","name":"comment","type":"string"}],"internalType":"struct GoalOrientedCommunity.Score[]","name":"","type":"tuple[]"}],"stateMutability":"view","type":"function"},{"inputs":[{"internalType":"uint256","name":"","type":"uint256"}],"name":"hasGeneratedKeys","outputs":[{"internalType":"bool","name":"","type":"bool"}],"stateMutability":"view","type":"function"},{"inputs":[{"internalType":"uint256","name":"","type":"uint256"},{"internalType":"address","name":"","type":"address"},{"internalType":"address","name":"","type":"address"}],"name":"hasReviewerVoted","outputs":[{"internalType":"bool","name":"","type":"bool"}],"stateMutability":"view","type":"function"},{"inputs":[{"internalType":"uint256","name":"","type":"uint256"},{"internalType":"address","name":"","type":"address"},{"internalType":"address","name":"","type":"address"}],"name":"hasSenatorScored","outputs":[{"internalType":"bool","name":"","type":"bool"}],"stateMutability":"view","type":"function"},{"inputs":[{"internalType":"uint256","name":"_communityId","type":"uint256"}],"name":"joinCommunity","outputs":[],"stateMutability":"payable","type":"function"},{"inputs":[{"internalType":"uint256","name":"","type":"uint256"},{"internalType":"uint256","name":"","type":"uint256"}],"name":"memberAddresses","outputs":[{"internalType":"address","name":"","type":"address"}],"stateMutability":"view","type":"function"},{"inputs":[{"internalType":"uint256","name":"","type":"uint256"},{"internalType":"address","name":"","type":"address"},{"internalType":"uint256","name":"","type":"uint256"}],"name":"memberScores","outputs":[{"internalType":"address","name":"senator","type":"address"},{"internalType":"uint256","name":"score","type":"uint256"},{"internalType":"string","name":"comment","type":"string"}],"stateMutability":"view","type":"function"},{"inputs":[{"internalType":"uint256","name":"","type":"uint256"},{"internalType":"address","name":"","type":"address"}],"name":"members","outputs":[{"internalType":"uint256","name":"joinTime","type":"uint256"},{"internalType":"bool","name":"isApproved","type":"bool"},{"internalType":"bool","name":"hasClaimed","type":"bool"},{"internalType":"string","name":"submissionUrl","type":"string"},{"internalType":"uint256","name":"finalScore","type":"uint256"},{"internalType":"bool","name":"isScored","type":"bool"},{"internalType":"bool","name":"isReviewer","type":"bool"},{"internalType":"bool","name":"hasVotedForClose","type":"bool"},{"internalType":"bool","name":"closeVote","type":"bool"},{"internalType":"uint256","name":"totalReviewerScores","type":"uint256"},{"internalType":"uint256","name":"reviewerCount","type":"uint256"}],"stateMutability":"view","type":"function"},{"inputs":[{"internalType":"uint256","name":"_communityId","type":"uint256"}],"name":"proposeCloseCommunity","outputs":[],"stateMutability":"nonpayable","type":"function"},{"inputs":[{"internalType":"uint256","name":"","type":"uint256"},{"internalType":"address","name":"","type":"address"},{"internalType":"address","name":"","type":"address"}],"name":"reviewerApprovals","outputs":[{"internalType":"bool","name":"","type":"bool"}],"stateMutability":"view","type":"function"},{"inputs":[{"internalType":"uint256","name":"_communityId","type":"uint256"},{"internalType":"address","name":"_member","type":"address"},{"internalType":"uint256","name":"_score","type":"uint256"},{"internalType":"string","name":"_comment","type":"string"}],"name":"reviewerScore","outputs":[],"stateMutability":"nonpayable","type":"function"},{"inputs":[{"internalType":"uint256","name":"","type":"uint256"},{"internalType":"uint256","name":"","type":"uint256"}],"name":"reviewers","outputs":[{"internalType":"address","name":"","type":"address"}],"stateMutability":"view","type":"function"},{"inputs":[{"internalType":"uint256","name":"_communityId","type":"uint256"},{"internalType":"address","name":"_member","type":"address"},{"internalType":"uint256","name":"_score","type":"uint256"},{"internalType":"string","name":"_comment","type":"string"}],"name":"senateAuditScore","outputs":[],"stateMutability":"nonpayable","type":"function"},{"inputs":[],"name":"senateContract","outputs":[{"internalType":"contract Senate","name":"","type":"address"}],"stateMutability":"view","type":"function"},{"inputs":[{"internalType":"uint256","name":"_communityId","type":"uint256"},{"internalType":"string","name":"_publicKey","type":"string"}],"name":"setCommunityKeys","outputs":[],"stateMutability":"nonpayable","type":"function"},{"inputs":[{"internalType":"uint256","name":"_communityId","type":"uint256"},{"internalType":"address","name":"_accessor","type":"address"},{"internalType":"string","name":"_encryptedKey","type":"string"},{"internalType":"bool","name":"_isSenator","type":"bool"}],"name":"setEncryptedPrivateKey","outputs":[],"stateMutability":"nonpayable","type":"function"},{"inputs":[{"internalType":"uint256","name":"_communityId","type":"uint256"},{"internalType":"string","name":"_submissionUrl","type":"string"}],"name":"submitCompletion","outputs":[],"stateMutability":"nonpayable","type":"function"},{"inputs":[{"internalType":"uint256","name":"_communityId","type":"uint256"},{"internalType":"bool","name":"_vote","type":"bool"}],"name":"voteForClose","outputs":[],"stateMutability":"nonpayable","type":"function"}],"evm":{"bytecode":{"linkReferences":{},"object":"60803461038957601f613ce238819003918201601f19168301916001600160401b0383118484101761038e57808492604094855283398101031261038957610052602061004b836103a4565b92016103a4565b9060016000526000602052604060002061007561006f82546103b8565b826103f2565b600a644d7573696360d81b019055600260009081526020527fabbb5caa7dda850e60932de0934eb1f9d0f59695050f761dc64e443e5030a56980546100b9906103b8565b601f811161035c575b50600662105c9d60ea1b019055600360009081526020527f101e368776582e57ab3d116ffe2517c0a585cd5b23174b01e275c2d8329c3d838054610105906103b8565b601f811161032f575b50600c6553706f72747360d01b019055600460009081526020527f52d75039926638d3c558b2bdefb945d5be8dae29dedd1c313212a4d472d9fde58054610154906103b8565b601f8111610302575b507f456475636174696f6e00000000000000000000000000000000000000000000129055600560009081526020527f2b232c97452f0950c94e2539fdc7e69d21166113cf7a9bcb99b220a3fe5d720a80546101b7906103b8565b601f81116102d5575b507f546563686e6f6c6f6779000000000000000000000000000000000000000000149055600660009081526020527f62103cf3131c85df57aad364d21cba02556d3092d6cb54c298c2e7726a7870bd805461021e9061006f906103b8565b600a6427ba3432b960d91b01905560005b60068111156102775750600680546001600160a01b039283166001600160a01b031991821617909155600280549390921692169190911790556040516138b990816104298239f35b60078110156102bf5760406000828152600160205220600160ff1982541617905560001981146102a95760010161022f565b634e487b7160e01b600052601160045260246000fd5b634e487b7160e01b600052602160045260246000fd5b81600052601f6020600020910160051c8101905b8181106102f657506101c0565b600081556001016102e9565b81600052601f6020600020910160051c8101905b818110610323575061015d565b60008155600101610316565b81600052601f6020600020910160051c8101905b818110610350575061010e565b60008155600101610343565b81600052601f6020600020910160051c8101905b81811061037d57506100c2565b60008155600101610370565b600080fd5b634e487b7160e01b600052604160045260246000fd5b51906001600160a01b038216820361038957565b90600182811c921680156103e8575b60208310146103d257565b634e487b7160e01b600052602260045260246000fd5b91607f16916103c7565b601f82116103fe575050565b600052601f6020600020910160051c8101905b81811061041c575050565b6000815560010161041156fe608080604052600436101561001357600080fd5b60003560e01c9081631214ee661461324e575080631fa4a56014612a2757806326e98b8b146129ca57806329aa1617146129a15780632ae2b664146126f85780632c90365b1461248f5780632c9342de1461226e5780633f9a61e0146121e257806344d02881146121515780635130084a14611c935780635ce9284f14611c675780635d85fa1814611c3e578063676eeee514611bea578063784940c514611bbe5780637a37128c14611b8d57806387a6280f14611a4157806388c52d7c146119ed5780638da021c1146119c15780638fd0f3b414611990578063ae169a50146116cf578063aee84613146116b1578063b122a0ef146110c1578063b51bcc0e1461108b578063b7800e5314611041578063bb1895c814610f60578063d42f02d114610b81578063e31224ea14610b21578063e590b56a146109ea578063ed571f061461093f578063efbe8c90146104c3578063f2509ad514610207578063fa95cefb146101b35763faf5625f1461018a57600080fd5b346101ae5760003660031901126101ae57602060405168056bc75e2d631000008152f35b600080fd5b346101ae576101c1366134e8565b91600052600c60205260406000209060018060a01b031660005260205260406000209060018060a01b0316600052602052602060ff604060002054166040519015158152f35b346101ae576102153661331e565b9080600052600f60205260ff6040600020541661048557806000526003602052600a60406000205403610440578151156104065780600052600d6020526040600020918051926001600160401b0384116103f05761027381546133c3565b601f81116103a8575b50602093601f811160011461031e57908161030e93927f32b370f63ccf548a39c29203a38e84019ca7eb3569c71f02aa810aca1c02b7129596600091610313575b508160011b916000199060031b1c19161790555b83600052600f6020526040600020600160ff1982541617905583600052601060205260006040812055604051918291602083526020830190613350565b0390a2005b9050830151876102bd565b601f19811682600052856000209060005b8181106103905750916001917f32b370f63ccf548a39c29203a38e84019ca7eb3569c71f02aa810aca1c02b71296978261030e97969510610377575b5050811b0190556102d1565b85015160001960f88460031b161c19169055878061036b565b8588015183556020978801976001909301920161032f565b816000526020600020601f860160051c810191602087106103e6575b601f0160051c01905b8181106103da575061027c565b600081556001016103cd565b90915081906103c4565b634e487b7160e01b600052604160045260246000fd5b60405162461bcd60e51b8152602060048201526012602482015271496e76616c6964207075626c6963206b657960701b6044820152606490fd5b60405162461bcd60e51b815260206004820152601760248201527f4e656564203130207265766965776572732066697273740000000000000000006044820152606490fd5b60405162461bcd60e51b815260206004820152601660248201527512d95e5cc8185b1c9958591e4819d95b995c985d195960521b6044820152606490fd5b346101ae5760803660031901126101ae576004356104df613308565b906044356001600160401b0381116101ae576104ff9036906004016132b2565b9160643592831515938481036101ae5783600052600f60205260ff6040600020541615610901578151156108c4571561081357610576602060018060a01b0360065416856000526008825260ff600d6040600020015460081c16906040518080958194630eb2f16160e41b8352896004840161359b565b03915afa908115610807576000916107d8575b501561079d575b82600052600e602052604060002060018060a01b0383166000526020526105bb6040600020546133c3565b610766576000838152600e602090815260408083206001600160a01b03861684529091529020815190916001600160401b0382116103f0576105fd83546133c3565b601f811161071e575b50602090601f8311600114610692579180602094927f6db43700e50037b5cb5c847340cd6a7e0d93ee38e5b64acbccf2788c67a692679694600092610687575b50508160011b916000199060031b1c19161790555b83600052601082526040600020610672815461358c565b90556040519485526001600160a01b031693a3005b015190508880610646565b90601f1983169184600052816000209260005b81811061070657509260019285927f6db43700e50037b5cb5c847340cd6a7e0d93ee38e5b64acbccf2788c67a69267989660209896106106ed575b505050811b01905561065b565b015160001960f88460031b161c191690558880806106e0565b929360206001819287860151815501950193016106a5565b836000526020600020601f840160051c8101916020851061075c575b601f0160051c01905b8181106107505750610606565b60008155600101610743565b909150819061073a565b60405162461bcd60e51b815260206004820152600f60248201526e12d95e48185b1c9958591e481cd95d608a1b6044820152606490fd5b60405162461bcd60e51b81526020600482015260136024820152722737ba1030903b30b634b21039b2b730ba37b960691b6044820152606490fd5b6107fa915060203d602011610800575b6107f28183613291565b8101906136b1565b85610589565b503d6107e8565b6040513d6000823e3d90fd5b60009291906001600160a01b038216845b8460005260036020526040600020548110156108ba5784600052600360205281610852826040600020613538565b905460039190911b1c6001600160a01b03161461087157600101610824565b50509091925060015b6105905760405162461bcd60e51b81526020600482015260146024820152732737ba1030903b30b634b2103932bb34b2bbb2b960611b6044820152606490fd5b505090919261087a565b60405162461bcd60e51b8152602060048201526015602482015274496e76616c696420656e63727970746564206b657960581b6044820152606490fd5b60405162461bcd60e51b815260206004820152601660248201527512d95e5cc81b9bdd0819d95b995c985d1959081e595d60521b6044820152606490fd5b346101ae5760203660031901126101ae57600435600081815260086020526040902060038101546001600160a01b031633036109b757600d016001815461098960ff821615613638565b60ff19161790557fe68f10f94ca2685d65a39a1841c1e1e00e8df8b2fa15dd0562e32c33af49fe17600080a2005b60405162461bcd60e51b815260206004820152600b60248201526a2737ba1031b932b0ba37b960a91b6044820152606490fd5b346101ae5760203660031901126101ae5760043560005260086020526040600020805460018201610a1a906133fd565b90610a27600284016133fd565b60038401546004850154600586015492956001600160a01b0390921692610a50600684016133fd565b946007840154956008850154600986015491600a87015493600b88015495600c89015497600d8a015499600e01549a6040519e8f9e8f9586526020860161020090526102008601610aa091613350565b8581036040870152610ab191613350565b936060015260808d015260a08c01528a810360c08c0152610ad191613350565b9760e08a015261010089015261012088015261014087015261016086015261018085015260ff811615156101a08501526101c084019060081c60ff1690610b179161357f565b6101e08301520390f35b346101ae5760403660031901126101ae57610b3a613308565b600435600052600e60205260406000209060018060a01b0316600052602052610b7d610b6960406000206133fd565b604051918291602083526020830190613350565b0390f35b346101ae57610b8f366134a1565b506000838152600860209081526040808320600983528184203385529092528083206001600160a01b03861684529220600d82015493959194919390929060ff16610f28576004015460081c60ff1615610ef257610bf060028301546133c3565b15610eb757600482019360ff855416610e7f57600e90610c1360648811156136c9565b60008581526005602090815260408083206001600160a01b03871684528252808320338452909152902054610c4b9060ff1615613675565b01805460008581526004602090815260408083206001600160a01b038716845282528083203384529091529020805460ff19169188101560ff169190911790559260008181526005602081815260408084206001600160a01b03871685528252808420338552909152909120805460ff1916600117905583018054909390610cd4908890613715565b8094556006810196610ce6885461358c565b8098558554111560405190815260018060a01b03841690837fb0ad8b9f0729f50b6025f5db451debbc7da11dd3f0b6a4ecb8d8919609026b6260203393a460009360009560005b846000526003602052604060002054811015610e285784600052600560205260ff6040808060002060009060018060a01b038b16825260205220876000526003602052610d7d8483600020613538565b905460039190911b1c6001600160a01b03166000908152602091909152205416610daa575b600101610d2d565b95610db49061358c565b9584600052600460205260ff6040808060002060009060018060a01b038b16825260205220876000526003602052610def8483600020613538565b905460039190911b1c6001600160a01b0316600090815260209190915220541615610da25796610e2060019161358c565b979050610da2565b5087868a95600052600360205260406000205460011c1115610e4657005b610e7d94600193610e60928560ff19825416179055613722565b9081600385015554111591019060ff801983541691151516179055565b005b60405162461bcd60e51b815260206004820152601060248201526f105b1c9958591e481c995d9a595dd95960821b6044820152606490fd5b60405162461bcd60e51b8152602060048201526013602482015272139bc81cdd589b5a5cdcda5bdb88199bdd5b99606a1b6044820152606490fd5b60405162461bcd60e51b815260206004820152600e60248201526d2737ba1030903932bb34b2bbb2b960911b6044820152606490fd5b60405162461bcd60e51b815260206004820152601060248201526f10dbdb5b5d5b9a5d1e4818db1bdcd95960821b6044820152606490fd5b346101ae5760403660031901126101ae576040610f7b613308565b60043560005260096020528160002060009160018060a01b03168252602052208054600182015491610faf600282016133fd565b60038201549160ff6004820154610ffb600660058501549401549483604051998a998a52818116151560208b015260081c16151560408901526101606060890152610160880190613350565b946080870152818116151560a0870152818160081c16151560c0870152818160101c16151560e087015260181c1615156101008501526101208401526101408301520390f35b346101ae5761104f36613522565b90600052600a602052604060002080548210156101ae5760209161107291613538565b905460405160039290921b1c6001600160a01b03168152f35b346101ae5760203660031901126101ae5760043560078110156101ae5760ff6110b5602092613550565b54166040519015158152f35b60203660031901126101ae576004358060005260086020526040600020906110f060ff600d84015416156135bb565b6004820154421061167457600582015442101561163d57600a8201546009830154111561160757600782015434036115c257600081815260096020908152604080832033845290915290205461158c576002546040516323b872dd60e01b815233600482015230602482015268056bc75e2d63100000604482015290602090829060649082906000906001600160a01b03165af19081156108075760009161156d575b5015611530576040519161016083018381106001600160401b038211176103f0576040524283526020830190600082526040840160008152602092611276604051916111df8684613291565b600083526060880192835260006080890152600060a0890152600060c0890152600060e0890152600061010089015260006101208901526000610140890152866000526009865260408060002060009060018060a01b0333168252885220938851855561125f6001860192511515839060ff801983541691151516179055565b51815461ff00191690151560081b61ff0016179055565b519485516001600160401b0381116103f05761129560028401546133c3565b601f81116114e7575b5084601f821160011461144e57600c94939282600693610140937f78da64a590c3052953ad9e0a5546bbf12bb68ae7634e3fb2a774e22a8c6557c19a9b600092611443575b50508160011b916000199060031b1c19161760028501555b608081015160038501556113776004850161132860a08401511515829060ff801983541691151516179055565b60c0830151815461ff00191690151560081b61ff001617815560e0830151815461010085015163ffff00001990911691151560101b62ff0000169190911790151560181b63ff00000016179055565b6101208101516005850155015191015584600052600a835261139d33604060002061374f565b6113aa600a82015461358c565b600a820155016113bb348254613715565b90558260005260038152600a604060002054106113dc575b604051338152a2005b600083815260098252604080822033808452908452818320600401805461ff001916610100179055858352600384529120611417919061374f565b33837f8fcd9f5c27415bf85b1f568fbe33a98aaebd94a2f721378109a4a48142f1e3fb600080a36113d3565b015190508b806112e3565b60028401600052856000209760005b601f19841681106114d05750926001837f78da64a590c3052953ad9e0a5546bbf12bb68ae7634e3fb2a774e22a8c6557c1999a61014094600c999897600697601f198116106114b7575b505050811b0160028501556112fb565b015160001960f88460031b161c191690558b80806114a7565b828201518a5560019099019891870191870161145d565b6002840160005285600020601f830160051c810191878410611526575b601f0160051c01905b81811061151a575061129e565b6000815560010161150d565b9091508190611504565b60405162461bcd60e51b8152602060048201526015602482015274151bdad95b881d1c985b9cd9995c8819985a5b1959605a1b6044820152606490fd5b611586915060203d602011610800576107f28183613291565b83611193565b60405162461bcd60e51b815260206004820152600e60248201526d105b1c9958591e481a9bda5b995960921b6044820152606490fd5b60405162461bcd60e51b815260206004820152601860248201527f496e636f7272656374206465706f73697420616d6f756e7400000000000000006044820152606490fd5b60405162461bcd60e51b815260206004820152600e60248201526d10dbdb5b5d5b9a5d1e48199d5b1b60921b6044820152606490fd5b60405162461bcd60e51b815260206004820152600f60248201526e10dbdb5b5d5b9a5d1e48195b991959608a1b6044820152606490fd5b60405162461bcd60e51b815260206004820152601560248201527410dbdb5b5d5b9a5d1e481b9bdd081cdd185c9d1959605a1b6044820152606490fd5b346101ae5760003660031901126101ae576020600754604051908152f35b346101ae5760203660031901126101ae57600435600081815260086020908152604080832060098352818420338552909252909120600d8201546117169060ff16156135bb565b60ff6004820154161561195857600101805460ff8160081c166119215760ff8116156118dc576000848152600b60209081526040808320338085529252822080548392909190835b838110611863575050505081611803575b50506101009061ff00191617905560008080806117b8600886015495600b810161179a888254613742565b9055600c600782015491016117b0828254613742565b905586613715565b8181156117fa575b3390f1156108075760407f24b5efa61dd1cfc659205a97fb8ed868f3cb8c81922bab2b96423e5de1de2cb7918151903382526020820152a2005b506108fc6117c0565b9061180d91613722565b600e8401541161181e57848061176f565b60405162461bcd60e51b815260206004820152601960248201527f446964206e6f7420706173732073656e617465206175646974000000000000006044820152606490fd5b89600052600c60205260ff60408080600020600090868252602052206118898487613391565b50546001600160a01b031660009081526020919091522054166118af575b60010161175e565b94936118d46118ce600192836118c58a88613391565b50015490613715565b9561358c565b9590506118a7565b60405162461bcd60e51b815260206004820152601e60248201527f5461736b206e6f7420617070726f7665642062792072657669657765727300006044820152606490fd5b60405162461bcd60e51b815260206004820152600f60248201526e105b1c9958591e4818db185a5b5959608a1b6044820152606490fd5b60405162461bcd60e51b815260206004820152601060248201526f139bdd081c995d9a595dd959081e595d60821b6044820152606490fd5b346101ae5761199e36613522565b906000526003602052604060002080548210156101ae5760209161107291613538565b346101ae5760203660031901126101ae57600435600052600d602052610b7d610b6960406000206133fd565b346101ae576119fb366134e8565b91600052600560205260406000209060018060a01b031660005260205260406000209060018060a01b0316600052602052602060ff604060002054166040519015158152f35b346101ae5760403660031901126101ae57611a5a613308565b600435600052600b60205260406000209060018060a01b031660005260205260406000208054906001600160401b0382116103f05760405191611aa360208260051b0184613291565b80835260208301809260005260206000206000915b838310611b4857848660405191829160208301906020845251809152604083019060408160051b85010192916000905b828210611af757505050500390f35b91936001919395506020611b388192603f198a8203018652606060408a51878060a01b03815116845285810151868501520151918160408201520190613350565b9601920192018594939192611ae8565b60036020600192604051611b5b81613276565b848060a01b0386541681528486015483820152611b7a600287016133fd565b6040820152815201920192019190611ab8565b346101ae5760203660031901126101ae57600435600052600f602052602060ff604060002054166040519015158152f35b346101ae5760203660031901126101ae576004356000526000602052610b7d610b6960406000206133fd565b346101ae57611bf8366134e8565b91600052600460205260406000209060018060a01b031660005260205260406000209060018060a01b0316600052602052602060ff604060002054166040519015158152f35b346101ae5760003660031901126101ae576006546040516001600160a01b039091168152602090f35b346101ae5760203660031901126101ae57600435600052600a6020526020604060002054604051908152f35b346101ae57611ca1366134a1565b929091611ce8602060018060a01b0360065416846000526008825260ff600d6040600020015460081c16906040518080958194630eb2f16160e41b8352336004840161359b565b03915afa90811561080757600091612132575b50156120f457611d0e60648411156136c9565b6000828152600c602090815260408083206001600160a01b0385168452825280832033845290915290205460ff166120be5781600052600960205260408060002060009060018060a01b0384168252602052209260ff600485015416156120795782600052600b60205260408060002060009060018060a01b03851682526020522060405190611d9d82613276565b3382526020820190838252604083019788528054600160401b8110156103f057611dcc91600182018155613391565b91909161206357915181546001600160a01b0319166001600160a01b039190911617815590516001820155945180519095600201906001600160401b0381116103f057611e1982546133c3565b601f811161201b575b506020601f8211600114611fb15781906040969798600092611fa6575b50508160011b916000199060031b1c19161790555b6000848152600c60209081528482206001600160a01b0385168084529082528583203380855290835292869020805460ff191660011790558551938452919286917f378f514d49e4abb7486bee29952af6519de11cb70a74cd68479f52457b0518f791a482600052600b6020528160002060009160018060a01b03168252602052208054916000906000926000915b858310611f4c57505050600383101580918192611f3f575b5015611f22575060019291611f0f91613722565b600382015501805460ff19166001179055005b915050611f2b57005b60006003820155600101805460ff19169055005b90508360011c1085611efb565b909193611f5f9060016118c58786613391565b936001611f6c8285613391565b500154826000526008602052600e604060002001541115611f92575b6001019190611ee3565b92611f9e60019161358c565b939050611f88565b015190508880611e3f565b601f1982169783600052816000209860005b818110612003575091604097989991846001959410611fea575b505050811b019055611e54565b015160001960f88460031b161c19169055888080611fdd565b838301518b556001909a019960209384019301611fc3565b826000526020600020601f830160051c81019160208410612059575b601f0160051c01905b81811061204d5750611e22565b60008155600101612040565b9091508190612037565b634e487b7160e01b600052600060045260246000fd5b60405162461bcd60e51b815260206004820152601d60248201527f4e6f7420726576696577656420627920726576696577657273207965740000006044820152606490fd5b60405162461bcd60e51b815260206004820152600e60248201526d105b1c9958591e481cd8dbdc995960921b6044820152606490fd5b60405162461bcd60e51b81526020600482015260166024820152752737ba1030baba3437b934bd32b21039b2b730ba37b960511b6044820152606490fd5b61214b915060203d602011610800576107f28183613291565b85611cfb565b346101ae5760603660031901126101ae5761216a613308565b60443590600435600052600b60205260406000209060018060a01b031660005260205260406000209081548110156101ae576121a591613391565b5060018060a01b03815416610b7d6121c46002600185015494016133fd565b60405193849384526020840152606060408401526060830190613350565b346101ae5760203660031901126101ae5760043560078110156101ae5760ff61220a82613550565b541615612229576000526000602052610b7d610b6960406000206133fd565b60405162461bcd60e51b815260206004820152601760248201527f43617465676f727920646f6573206e6f742065786973740000000000000000006044820152606490fd5b346101ae5760403660031901126101ae576004356024358015158082036101ae57826000526008602052612322604060002092846000526009602052604060002060018060a01b0333166000526020526004600d60406000209501946122d860ff87541615613638565b6122e4815415156135fd565b016201000081546122fb60ff8260101c1615613675565b63ff0000001990911663ffff0000199091161791151560181b63ff00000016919091179055565b604051908152827fa953b79a8bda2946b1e815d9e09876df8d499a7d04ace4eccec405ae4a96cf0860203393a3600080805b84600052600a6020526040600020548110156123f757846000526009602052600460408060002087600052600a6020526123918483600020613538565b905460039190911b1c6001600160a01b03166000908152602091909152200154601081901c60ff166123c7575b50600101612354565b916123d360ff9161358c565b9260181c166123e3575b856123be565b916123ef60019161358c565b9290506123dd565b5080159182159283612448575b50505061240d57005b805460ff1916600117905561242181613790565b7fe68f10f94ca2685d65a39a1841c1e1e00e8df8b2fa15dd0562e32c33af49fe17600080a2005b90919250600382029180830460031490151715612479578260011b9283046002141715612479571015838080612404565b634e487b7160e01b600052601160045260246000fd5b346101ae5760203660031901126101ae57600435600081815260086020526040902060038101546001600160a01b031633036126b357806124d960ff600d60059401541615613638565b0154421061267a5760405160018152817fa953b79a8bda2946b1e815d9e09876df8d499a7d04ace4eccec405ae4a96cf0860203393a36000818152600960209081526040808320338085528184528285206004808201805463ffff00001916630101000017905587875260088652938620919095529252600d90910180549092906125679060ff1615613638565b612573815415156135fd565b0162010000815461258a60ff8260101c1615613675565b62ff00001916178155630100000063ff0000001982541617905560405160018152827fa953b79a8bda2946b1e815d9e09876df8d499a7d04ace4eccec405ae4a96cf0860203393a3600080805b84600052600a6020526040600020548110156123f757846000526009602052600460408060002087600052600a6020526126148483600020613538565b905460039190911b1c6001600160a01b03166000908152602091909152200154601081901c60ff1661264a575b506001016125d7565b9161265660ff9161358c565b9260181c16612666575b85612641565b9161267260019161358c565b929050612660565b60405162461bcd60e51b8152602060048201526011602482015270436f6d6d756e697479206f6e676f696e6760781b6044820152606490fd5b60405162461bcd60e51b815260206004820152601860248201527f4f6e6c792063726561746f722063616e2070726f706f736500000000000000006044820152606490fd5b346101ae576127063661331e565b600082815260086020908152604080832060098352818420338552909252909120600d9091015491929161273d9060ff16156135bb565b612749815415156135fd565b60ff6004820154166129685782511561292c5781600052600f60205260ff60406000205416156128e757600201918051926001600160401b0384116103f05761279281546133c3565b601f811161289f575b50602093601f811160011461281557908161030e93927fbf478fda32150efbea16148df9d2dc95245fe55fe761f2bd87b66ce55637b2af959660009161280a575b508160011b916000199060031b1c19161790555b604051918291338352604060208401526040830190613350565b9050830151876127dc565b601f19811682600052856000209060005b8181106128875750916001917fbf478fda32150efbea16148df9d2dc95245fe55fe761f2bd87b66ce55637b2af96978261030e9796951061286e575b5050811b0190556127f0565b85015160001960f88460031b161c191690558780612862565b85880151835560209788019760019093019201612826565b816000526020600020601f860160051c810191602087106128dd575b601f0160051c01905b8181106128d1575061279b565b600081556001016128c4565b90915081906128bb565b60405162461bcd60e51b815260206004820152601c60248201527f436f6d6d756e697479206b657973206e6f742067656e657261746564000000006044820152606490fd5b60405162461bcd60e51b8152602060048201526014602482015273115b5c1d1e481cdd589b5a5cdcda5bdb8815549360621b6044820152606490fd5b60405162461bcd60e51b8152602060048201526011602482015270105b1c9958591e481cdd589b5a5d1d1959607a1b6044820152606490fd5b346101ae5760003660031901126101ae576002546040516001600160a01b039091168152602090f35b346101ae5760403660031901126101ae576129e3613308565b600435600052600960205260406000209060018060a01b031660005260205260408060002060ff600181600484015416920154168251911515825215156020820152f35b6101203660031901126101ae576004356001600160401b0381116101ae57612a539036906004016132b2565b6024356001600160401b0381116101ae57612a729036906004016132b2565b6044356001600160401b0381116101ae57612a919036906004016132b2565b91606435926084359060a43560c4359160e4359360076101043510156101ae574288111561320957878111156131ba5782156131755783156131255784156130e057848402848104860361247957341061309b5760249760075497612af58961358c565b600755600654604051631ce87ebb60e01b81529a6020918c919082906001600160a01b0316612b2a600483016101043561357f565b5afa998a156108075760009a613067575b506040519761020089018981106001600160401b038211176103f05760405289895260208901526040880152336060880152608087015260a086015260c085015260e0840152610100830152610120820152600061014082015234610160820152600061018082015260006101a0820152600092610104356101c08301526101e0820152818352600860205260408320908051825560208101518051906001600160401b038211612ec1578190612bf560018601546133c3565b601f8111613017575b50602090601f8311600114612fa9578792612f9e575b50508160011b916000199060031b1c19161760018301555b60408101518051906001600160401b038211612ec1578190612c5160028601546133c3565b601f8111612f4e575b50602090601f8311600114612ee0578792612ed5575b50508160011b916000199060031b1c19161760028301555b60608101516003830180546001600160a01b0319166001600160a01b03929092169190911790556080810151600483015560a0810151600583015560c08101518051906001600160401b038211612ec1578190612ce860068601546133c3565b601f8111612e71575b50602090601f8311600114612e08578792612dfd575b50508160011b916000199060031b1c19161760068301555b60e0810151600783015561010081015160088301556101208101516009830155610140810151600a830155610160810151600b830155610180810151600c830155600d8201612d816101a08301511515829060ff801983541691151516179055565b6101c08201516007811015612de957916101e091600e9361ff0082549160081b169061ff00191617905501519101557f4406e0fd454e0f528174e628e0716cd1972c77f1fffd2faa8d73f468957ff39160405180612de361010435338361359b565b0390a280f35b634e487b7160e01b86526021600452602486fd5b015190508680612d07565b6006860188528188209250601f198416885b818110612e595750908460019594939210612e40575b505050811b016006830155612d1f565b015160001960f88460031b161c19169055868080612e30565b92936020600181928786015181550195019301612e1a565b90915060068501875260208720601f840160051c810160208510612eba575b90849392915b601f830160051c82018110612eac575050612cf1565b898155859450600101612e96565b5080612e90565b634e487b7160e01b86526041600452602486fd5b015190508680612c70565b92506002850187528087209087935b601f1984168510612f33576001945083601f19811610612f1a575b505050811b016002830155612c88565b015160001960f88460031b161c19169055868080612f0a565b81810151835560209485019460019093019290910190612eef565b90915060028501875260208720601f840160051c810160208510612f97575b90849392915b601f830160051c82018110612f89575050612c5a565b898155859450600101612f73565b5080612f6d565b015190508680612c14565b92506001850187528087209087935b601f1984168510612ffc576001945083601f19811610612fe3575b505050811b016001830155612c2c565b015160001960f88460031b161c19169055868080612fd3565b81810151835560209485019460019093019290910190612fb8565b90915060018501875260208720601f840160051c810160208510613060575b90849392915b601f830160051c82018110613052575050612bfe565b89815585945060010161303c565b5080613036565b9099506020813d602011613093575b8161308360209383613291565b810103126101ae5751988a612b3b565b3d9150613076565b60405162461bcd60e51b815260206004820152601860248201527f496e73756666696369656e742072657761726420706f6f6c00000000000000006044820152606490fd5b60405162461bcd60e51b815260206004820152601c60248201527f4d6178206d656d62657273206d75737420626520706f736974697665000000006044820152606490fd5b60405162461bcd60e51b815260206004820152602260248201527f52657761726420706572206d656d626572206d75737420626520706f73697469604482015261766560f01b6064820152608490fd5b60405162461bcd60e51b815260206004820152601f60248201527f4d656d626572206465706f736974206d75737420626520706f736974697665006044820152606490fd5b60405162461bcd60e51b815260206004820152602160248201527f456e642074696d65206d7573742062652061667465722073746172742074696d6044820152606560f81b6064820152608490fd5b60405162461bcd60e51b815260206004820152601c60248201527f53746172742074696d65206d75737420626520696e20667574757265000000006044820152606490fd5b346101ae5760203660031901126101ae57602090600435600052601082526040600020548152f35b606081019081106001600160401b038211176103f057604052565b90601f801991011681019081106001600160401b038211176103f057604052565b81601f820112156101ae578035906001600160401b0382116103f057604051926132e6601f8401601f191660200185613291565b828452602083830101116101ae57816000926020809301838601378301015290565b602435906001600160a01b03821682036101ae57565b9060406003198301126101ae5760043591602435906001600160401b0382116101ae5761334d916004016132b2565b90565b919082519283825260005b84811061337c575050826000602080949584010152601f8019910116010190565b8060208092840101518282860101520161335b565b80548210156133ad576000526003602060002091020190600090565b634e487b7160e01b600052603260045260246000fd5b90600182811c921680156133f3575b60208310146133dd57565b634e487b7160e01b600052602260045260246000fd5b91607f16916133d2565b9060405191826000825492613411846133c3565b808452936001811690811561347f5750600114613438575b5061343692500383613291565b565b90506000929192526020600020906000915b8183106134635750509060206134369282010138613429565b602091935080600191548385890101520191019091849261344a565b90506020925061343694915060ff191682840152151560051b82010138613429565b9060806003198301126101ae57600435916024356001600160a01b03811681036101ae579160443591606435906001600160401b0382116101ae5761334d916004016132b2565b60609060031901126101ae57600435906024356001600160a01b03811681036101ae57906044356001600160a01b03811681036101ae5790565b60409060031901126101ae576004359060243590565b80548210156133ad5760005260206000200190600090565b6007811015613569576000526001602052604060002090565b634e487b7160e01b600052602160045260246000fd5b9060078210156135695752565b60001981146124795760010190565b6001600160a01b039091168152604081019291613436916020019061357f565b156135c257565b60405162461bcd60e51b815260206004820152601360248201527210dbdb5b5d5b9a5d1e481a5cc818db1bdcd959606a1b6044820152606490fd5b1561360457565b60405162461bcd60e51b815260206004820152600c60248201526b2737ba10309036b2b6b132b960a11b6044820152606490fd5b1561363f57565b60405162461bcd60e51b815260206004820152600e60248201526d105b1c9958591e4818db1bdcd95960921b6044820152606490fd5b1561367c57565b60405162461bcd60e51b815260206004820152600d60248201526c105b1c9958591e481d9bdd1959609a1b6044820152606490fd5b908160209103126101ae575180151581036101ae5790565b156136d057565b60405162461bcd60e51b815260206004820152601f60248201527f53636f7265206d757374206265206265747765656e203020616e6420313030006044820152606490fd5b9190820180921161247957565b811561372c570490565b634e487b7160e01b600052601260045260246000fd5b9190820391821161247957565b8054600160401b8110156103f05761376c91600182018155613538565b81546001600160a01b0393841660039290921b91821b9390911b1916919091179055565b80600052600860205260406000209080600052600a602052604060002054801561387e57600b8301916137cb600c8454950194855490613715565b801561387757826137db91613722565b9060005b8381106137f3575050505090600080925555565b81600052600a6020528261380b826040600020613538565b9054600085815260096020908152604080832060039590951b9390931c6001600160a01b0316808352939052206001015460081c60ff1615613852575b50506001016137df565b6000808093819382821561386e575bf115610807578238613848565b506108fc613861565b5050505050565b50505056fea2646970667358221220378ecd209fcdd8ec1a54c1528577fe8e9d1033f2abb4b0359da600dbdb134eb164736f6c634300081c0033","opcodes":"PUSH1 0x80 CALLVALUE PUSH2 0x389 JUMPI PUSH1 0x1F PUSH2 0x3CE2 CODESIZE DUP2 SWAP1 SUB SWAP2 DUP3 ADD PUSH1 0x1F NOT AND DUP4 ADD SWAP2 PUSH1 0x1 PUSH1 0x1 PUSH1 0x40 SHL SUB DUP4 GT DUP5 DUP5 LT OR PUSH2 0x38E JUMPI DUP1 DUP5 SWAP3 PUSH1 0x40 SWAP5 DUP6 MSTORE DUP4 CODECOPY DUP2 ADD SUB SLT PUSH2 0x389 JUMPI PUSH2 0x52 PUSH1 0x20 PUSH2 0x4B DUP4 PUSH2 0x3A4 JUMP JUMPDEST SWAP3 ADD PUSH2 0x3A4 JUMP JUMPDEST SWAP1 PUSH1 0x1 PUSH1 0x0 MSTORE PUSH1 0x0 PUSH1 0x20 MSTORE PUSH1 0x40 PUSH1 0x0 KECCAK256 PUSH2 0x75 PUSH2 0x6F DUP3 SLOAD PUSH2 0x3B8 JUMP JUMPDEST DUP3 PUSH2 0x3F2 JUMP JUMPDEST PUSH1 0xA PUSH5 0x4D75736963 PUSH1 0xD8 SHL ADD SWAP1 SSTORE PUSH1 0x2 PUSH1 0x0 SWAP1 DUP2 MSTORE PUSH1 0x20 MSTORE PUSH32 0xABBB5CAA7DDA850E60932DE0934EB1F9D0F59695050F761DC64E443E5030A569 DUP1 SLOAD PUSH2 0xB9 SWAP1 PUSH2 0x3B8 JUMP JUMPDEST PUSH1 0x1F DUP2 GT PUSH2 0x35C JUMPI JUMPDEST POP PUSH1 0x6 PUSH3 0x105C9D PUSH1 0xEA SHL ADD SWAP1 SSTORE PUSH1 0x3 PUSH1 0x0 SWAP1 DUP2 MSTORE PUSH1 0x20 MSTORE PUSH32 0x101E368776582E57AB3D116FFE2517C0A585CD5B23174B01E275C2D8329C3D83 DUP1 SLOAD PUSH2 0x105 SWAP1 PUSH2 0x3B8 JUMP JUMPDEST PUSH1 0x1F DUP2 GT PUSH2 0x32F JUMPI JUMPDEST POP PUSH1 0xC PUSH6 0x53706F727473 PUSH1 0xD0 SHL ADD SWAP1 SSTORE PUSH1 0x4 PUSH1 0x0 SWAP1 DUP2 MSTORE PUSH1 0x20 MSTORE PUSH32 0x52D75039926638D3C558B2BDEFB945D5BE8DAE29DEDD1C313212A4D472D9FDE5 DUP1 SLOAD PUSH2 0x154 SWAP1 PUSH2 0x3B8 JUMP JUMPDEST PUSH1 0x1F DUP2 GT PUSH2 0x302 JUMPI JUMPDEST POP PUSH32 0x456475636174696F6E0000000000000000000000000000000000000000000012 SWAP1 SSTORE PUSH1 0x5 PUSH1 0x0 SWAP1 DUP2 MSTORE PUSH1 0x20 MSTORE PUSH32 0x2B232C97452F0950C94E2539FDC7E69D21166113CF7A9BCB99B220A3FE5D720A DUP1 SLOAD PUSH2 0x1B7 SWAP1 PUSH2 0x3B8 JUMP JUMPDEST PUSH1 0x1F DUP2 GT PUSH2 0x2D5 JUMPI JUMPDEST POP PUSH32 0x546563686E6F6C6F677900000000000000000000000000000000000000000014 SWAP1 SSTORE PUSH1 0x6 PUSH1 0x0 SWAP1 DUP2 MSTORE PUSH1 0x20 MSTORE PUSH32 0x62103CF3131C85DF57AAD364D21CBA02556D3092D6CB54C298C2E7726A7870BD DUP1 SLOAD PUSH2 0x21E SWAP1 PUSH2 0x6F SWAP1 PUSH2 0x3B8 JUMP JUMPDEST PUSH1 0xA PUSH5 0x27BA3432B9 PUSH1 0xD9 SHL ADD SWAP1 SSTORE PUSH1 0x0 JUMPDEST PUSH1 0x6 DUP2 GT ISZERO PUSH2 0x277 JUMPI POP PUSH1 0x6 DUP1 SLOAD PUSH1 0x1 PUSH1 0x1 PUSH1 0xA0 SHL SUB SWAP3 DUP4 AND PUSH1 0x1 PUSH1 0x1 PUSH1 0xA0 SHL SUB NOT SWAP2 DUP3 AND OR SWAP1 SWAP2 SSTORE PUSH1 0x2 DUP1 SLOAD SWAP4 SWAP1 SWAP3 AND SWAP3 AND SWAP2 SWAP1 SWAP2 OR SWAP1 SSTORE PUSH1 0x40 MLOAD PUSH2 0x38B9 SWAP1 DUP2 PUSH2 0x429 DUP3 CODECOPY RETURN JUMPDEST PUSH1 0x7 DUP2 LT ISZERO PUSH2 0x2BF JUMPI PUSH1 0x40 PUSH1 0x0 DUP3 DUP2 MSTORE PUSH1 0x1 PUSH1 0x20 MSTORE KECCAK256 PUSH1 0x1 PUSH1 0xFF NOT DUP3 SLOAD AND OR SWAP1 SSTORE PUSH1 0x0 NOT DUP2 EQ PUSH2 0x2A9 JUMPI PUSH1 0x1 ADD PUSH2 0x22F JUMP JUMPDEST PUSH4 0x4E487B71 PUSH1 0xE0 SHL PUSH1 0x0 MSTORE PUSH1 0x11 PUSH1 0x4 MSTORE PUSH1 0x24 PUSH1 0x0 REVERT JUMPDEST PUSH4 0x4E487B71 PUSH1 0xE0 SHL PUSH1 0x0 MSTORE PUSH1 0x21 PUSH1 0x4 MSTORE PUSH1 0x24 PUSH1 0x0 REVERT JUMPDEST DUP2 PUSH1 0x0 MSTORE PUSH1 0x1F PUSH1 0x20 PUSH1 0x0 KECCAK256 SWAP2 ADD PUSH1 0x5 SHR DUP2 ADD SWAP1 JUMPDEST DUP2 DUP2 LT PUSH2 0x2F6 JUMPI POP PUSH2 0x1C0 JUMP JUMPDEST PUSH1 0x0 DUP2 SSTORE PUSH1 0x1 ADD PUSH2 0x2E9 JUMP JUMPDEST DUP2 PUSH1 0x0 MSTORE PUSH1 0x1F PUSH1 0x20 PUSH1 0x0 KECCAK256 SWAP2 ADD PUSH1 0x5 SHR DUP2 ADD SWAP1 JUMPDEST DUP2 DUP2 LT PUSH2 0x323 JUMPI POP PUSH2 0x15D JUMP JUMPDEST PUSH1 0x0 DUP2 SSTORE PUSH1 0x1 ADD PUSH2 0x316 JUMP JUMPDEST DUP2 PUSH1 0x0 MSTORE PUSH1 0x1F PUSH1 0x20 PUSH1 0x0 KECCAK256 SWAP2 ADD PUSH1 0x5 SHR DUP2 ADD SWAP1 JUMPDEST DUP2 DUP2 LT PUSH2 0x350 JUMPI POP PUSH2 0x10E JUMP JUMPDEST PUSH1 0x0 DUP2 SSTORE PUSH1 0x1 ADD PUSH2 0x343 JUMP JUMPDEST DUP2 PUSH1 0x0 MSTORE PUSH1 0x1F PUSH1 0x20 PUSH1 0x0 KECCAK256 SWAP2 ADD PUSH1 0x5 SHR DUP2 ADD SWAP1 JUMPDEST DUP2 DUP2 LT PUSH2 0x37D JUMPI POP PUSH2 0xC2 JUMP JUMPDEST PUSH1 0x0 DUP2 SSTORE PUSH1 0x1 ADD PUSH2 0x370 JUMP JUMPDEST PUSH1 0x0 DUP1 REVERT JUMPDEST PUSH4 0x4E487B71 PUSH1 0xE0 SHL PUSH1 0x0 MSTORE PUSH1 0x41 PUSH1 0x4 MSTORE PUSH1 0x24 PUSH1 0x0 REVERT JUMPDEST MLOAD SWAP1 PUSH1 0x1 PUSH1 0x1 PUSH1 0xA0 SHL SUB DUP3 AND DUP3 SUB PUSH2 0x389 JUMPI JUMP JUMPDEST SWAP1 PUSH1 0x1 DUP3 DUP2 SHR SWAP3 AND DUP1 ISZERO PUSH2 0x3E8 JUMPI JUMPDEST PUSH1 0x20 DUP4 LT EQ PUSH2 0x3D2 JUMPI JUMP JUMPDEST PUSH4 0x4E487B71 PUSH1 0xE0 SHL PUSH1 0x0 MSTORE PUSH1 0x22 PUSH1 0x4 MSTORE PUSH1 0x24 PUSH1 0x0 REVERT JUMPDEST SWAP2 PUSH1 0x7F AND SWAP2 PUSH2 0x3C7 JUMP JUMPDEST PUSH1 0x1F DUP3 GT PUSH2 0x3FE JUMPI POP POP JUMP JUMPDEST PUSH1 0x0 MSTORE PUSH1 0x1F PUSH1 0x20 PUSH1 0x0 KECCAK256 SWAP2 ADD PUSH1 0x5 SHR DUP2 ADD SWAP1 JUMPDEST DUP2 DUP2 LT PUSH2 0x41C JUMPI POP POP JUMP JUMPDEST PUSH1 0x0 DUP2 SSTORE PUSH1 0x1 ADD PUSH2 0x411 JUMP INVALID PUSH1 0x80 DUP1 PUSH1 0x40 MSTORE PUSH1 0x4 CALLDATASIZE LT ISZERO PUSH2 0x13 JUMPI PUSH1 0x0 DUP1 REVERT JUMPDEST PUSH1 0x0 CALLDATALOAD PUSH1 0xE0 SHR SWAP1 DUP2 PUSH4 0x1214EE66 EQ PUSH2 0x324E JUMPI POP DUP1 PUSH4 0x1FA4A560 EQ PUSH2 0x2A27 JUMPI DUP1 PUSH4 0x26E98B8B EQ PUSH2 0x29CA JUMPI DUP1 PUSH4 0x29AA1617 EQ PUSH2 0x29A1 JUMPI DUP1 PUSH4 0x2AE2B664 EQ PUSH2 0x26F8 JUMPI DUP1 PUSH4 0x2C90365B EQ PUSH2 0x248F JUMPI DUP1 PUSH4 0x2C9342DE EQ PUSH2 0x226E JUMPI DUP1 PUSH4 0x3F9A61E0 EQ PUSH2 0x21E2 JUMPI DUP1 PUSH4 0x44D02881 EQ PUSH2 0x2151 JUMPI DUP1 PUSH4 0x5130084A EQ PUSH2 0x1C93 JUMPI DUP1 PUSH4 0x5CE9284F EQ PUSH2 0x1C67 JUMPI DUP1 PUSH4 0x5D85FA18 EQ PUSH2 0x1C3E JUMPI DUP1 PUSH4 0x676EEEE5 EQ PUSH2 0x1BEA JUMPI DUP1 PUSH4 0x784940C5 EQ PUSH2 0x1BBE JUMPI DUP1 PUSH4 0x7A37128C EQ PUSH2 0x1B8D JUMPI DUP1 PUSH4 0x87A6280F EQ PUSH2 0x1A41 JUMPI DUP1 PUSH4 0x88C52D7C EQ PUSH2 0x19ED JUMPI DUP1 PUSH4 0x8DA021C1 EQ PUSH2 0x19C1 JUMPI DUP1 PUSH4 0x8FD0F3B4 EQ PUSH2 0x1990 JUMPI DUP1 PUSH4 0xAE169A50 EQ PUSH2 0x16CF JUMPI DUP1 PUSH4 0xAEE84613 EQ PUSH2 0x16B1 JUMPI DUP1 PUSH4 0xB122A0EF EQ PUSH2 0x10C1 JUMPI DUP1 PUSH4 0xB51BCC0E EQ PUSH2 0x108B JUMPI DUP1 PUSH4 0xB7800E53 EQ PUSH2 0x1041 JUMPI DUP1 PUSH4 0xBB1895C8 EQ PUSH2 0xF60 JUMPI DUP1 PUSH4 0xD42F02D1 EQ PUSH2 0xB81 JUMPI DUP1 PUSH4 0xE31224EA EQ PUSH2 0xB21 JUMPI DUP1 PUSH4 0xE590B56A EQ PUSH2 0x9EA JUMPI DUP1 PUSH4 0xED571F06 EQ PUSH2 0x93F JUMPI DUP1 PUSH4 0xEFBE8C90 EQ PUSH2 0x4C3 JUMPI DUP1 PUSH4 0xF2509AD5 EQ PUSH2 0x207 JUMPI DUP1 PUSH4 0xFA95CEFB EQ PUSH2 0x1B3 JUMPI PUSH4 0xFAF5625F EQ PUSH2 0x18A JUMPI PUSH1 0x0 DUP1 REVERT JUMPDEST CALLVALUE PUSH2 0x1AE JUMPI PUSH1 0x0 CALLDATASIZE PUSH1 0x3 NOT ADD SLT PUSH2 0x1AE JUMPI PUSH1 0x20 PUSH1 0x40 MLOAD PUSH9 0x56BC75E2D63100000 DUP2 MSTORE RETURN JUMPDEST PUSH1 0x0 DUP1 REVERT JUMPDEST CALLVALUE PUSH2 0x1AE JUMPI PUSH2 0x1C1 CALLDATASIZE PUSH2 0x34E8 JUMP JUMPDEST SWAP2 PUSH1 0x0 MSTORE PUSH1 0xC PUSH1 0x20 MSTORE PUSH1 0x40 PUSH1 0x0 KECCAK256 SWAP1 PUSH1 0x1 DUP1 PUSH1 0xA0 SHL SUB AND PUSH1 0x0 MSTORE PUSH1 0x20 MSTORE PUSH1 0x40 PUSH1 0x0 KECCAK256 SWAP1 PUSH1 0x1 DUP1 PUSH1 0xA0 SHL SUB AND PUSH1 0x0 MSTORE PUSH1 0x20 MSTORE PUSH1 0x20 PUSH1 0xFF PUSH1 0x40 PUSH1 0x0 KECCAK256 SLOAD AND PUSH1 0x40 MLOAD SWAP1 ISZERO ISZERO DUP2 MSTORE RETURN JUMPDEST CALLVALUE PUSH2 0x1AE JUMPI PUSH2 0x215 CALLDATASIZE PUSH2 0x331E JUMP JUMPDEST SWAP1 DUP1 PUSH1 0x0 MSTORE PUSH1 0xF PUSH1 0x20 MSTORE PUSH1 0xFF PUSH1 0x40 PUSH1 0x0 KECCAK256 SLOAD AND PUSH2 0x485 JUMPI DUP1 PUSH1 0x0 MSTORE PUSH1 0x3 PUSH1 0x20 MSTORE PUSH1 0xA PUSH1 0x40 PUSH1 0x0 KECCAK256 SLOAD SUB PUSH2 0x440 JUMPI DUP2 MLOAD ISZERO PUSH2 0x406 JUMPI DUP1 PUSH1 0x0 MSTORE PUSH1 0xD PUSH1 0x20 MSTORE PUSH1 0x40 PUSH1 0x0 KECCAK256 SWAP2 DUP1 MLOAD SWAP3 PUSH1 0x1 PUSH1 0x1 PUSH1 0x40 SHL SUB DUP5 GT PUSH2 0x3F0 JUMPI PUSH2 0x273 DUP2 SLOAD PUSH2 0x33C3 JUMP JUMPDEST PUSH1 0x1F DUP2 GT PUSH2 0x3A8 JUMPI JUMPDEST POP PUSH1 0x20 SWAP4 PUSH1 0x1F DUP2 GT PUSH1 0x1 EQ PUSH2 0x31E JUMPI SWAP1 DUP2 PUSH2 0x30E SWAP4 SWAP3 PUSH32 0x32B370F63CCF548A39C29203A38E84019CA7EB3569C71F02AA810ACA1C02B712 SWAP6 SWAP7 PUSH1 0x0 SWAP2 PUSH2 0x313 JUMPI JUMPDEST POP DUP2 PUSH1 0x1 SHL SWAP2 PUSH1 0x0 NOT SWAP1 PUSH1 0x3 SHL SHR NOT AND OR SWAP1 SSTORE JUMPDEST DUP4 PUSH1 0x0 MSTORE PUSH1 0xF PUSH1 0x20 MSTORE PUSH1 0x40 PUSH1 0x0 KECCAK256 PUSH1 0x1 PUSH1 0xFF NOT DUP3 SLOAD AND OR SWAP1 SSTORE DUP4 PUSH1 0x0 MSTORE PUSH1 0x10 PUSH1 0x20 MSTORE PUSH1 0x0 PUSH1 0x40 DUP2 KECCAK256 SSTORE PUSH1 0x40 MLOAD SWAP2 DUP3 SWAP2 PUSH1 0x20 DUP4 MSTORE PUSH1 0x20 DUP4 ADD SWAP1 PUSH2 0x3350 JUMP JUMPDEST SUB SWAP1 LOG2 STOP JUMPDEST SWAP1 POP DUP4 ADD MLOAD DUP8 PUSH2 0x2BD JUMP JUMPDEST PUSH1 0x1F NOT DUP2 AND DUP3 PUSH1 0x0 MSTORE DUP6 PUSH1 0x0 KECCAK256 SWAP1 PUSH1 0x0 JUMPDEST DUP2 DUP2 LT PUSH2 0x390 JUMPI POP SWAP2 PUSH1 0x1 SWAP2 PUSH32 0x32B370F63CCF548A39C29203A38E84019CA7EB3569C71F02AA810ACA1C02B712 SWAP7 SWAP8 DUP3 PUSH2 0x30E SWAP8 SWAP7 SWAP6 LT PUSH2 0x377 JUMPI JUMPDEST POP POP DUP2 SHL ADD SWAP1 SSTORE PUSH2 0x2D1 JUMP JUMPDEST DUP6 ADD MLOAD PUSH1 0x0 NOT PUSH1 0xF8 DUP5 PUSH1 0x3 SHL AND SHR NOT AND SWAP1 SSTORE DUP8 DUP1 PUSH2 0x36B JUMP JUMPDEST DUP6 DUP9 ADD MLOAD DUP4 SSTORE PUSH1 0x20 SWAP8 DUP9 ADD SWAP8 PUSH1 0x1 SWAP1 SWAP4 ADD SWAP3 ADD PUSH2 0x32F JUMP JUMPDEST DUP2 PUSH1 0x0 MSTORE PUSH1 0x20 PUSH1 0x0 KECCAK256 PUSH1 0x1F DUP7 ADD PUSH1 0x5 SHR DUP2 ADD SWAP2 PUSH1 0x20 DUP8 LT PUSH2 0x3E6 JUMPI JUMPDEST PUSH1 0x1F ADD PUSH1 0x5 SHR ADD SWAP1 JUMPDEST DUP2 DUP2 LT PUSH2 0x3DA JUMPI POP PUSH2 0x27C JUMP JUMPDEST PUSH1 0x0 DUP2 SSTORE PUSH1 0x1 ADD PUSH2 0x3CD JUMP JUMPDEST SWAP1 SWAP2 POP DUP2 SWAP1 PUSH2 0x3C4 JUMP JUMPDEST PUSH4 0x4E487B71 PUSH1 0xE0 SHL PUSH1 0x0 MSTORE PUSH1 0x41 PUSH1 0x4 MSTORE PUSH1 0x24 PUSH1 0x0 REVERT JUMPDEST PUSH1 0x40 MLOAD PUSH3 0x461BCD PUSH1 0xE5 SHL DUP2 MSTORE PUSH1 0x20 PUSH1 0x4 DUP3 ADD MSTORE PUSH1 0x12 PUSH1 0x24 DUP3 ADD MSTORE PUSH18 0x496E76616C6964207075626C6963206B6579 PUSH1 0x70 SHL PUSH1 0x44 DUP3 ADD MSTORE PUSH1 0x64 SWAP1 REVERT JUMPDEST PUSH1 0x40 MLOAD PUSH3 0x461BCD PUSH1 0xE5 SHL DUP2 MSTORE PUSH1 0x20 PUSH1 0x4 DUP3 ADD MSTORE PUSH1 0x17 PUSH1 0x24 DUP3 ADD MSTORE PUSH32 0x4E65656420313020726576696577657273206669727374000000000000000000 PUSH1 0x44 DUP3 ADD MSTORE PUSH1 0x64 SWAP1 REVERT JUMPDEST PUSH1 0x40 MLOAD PUSH3 0x461BCD PUSH1 0xE5 SHL DUP2 MSTORE PUSH1 0x20 PUSH1 0x4 DUP3 ADD MSTORE PUSH1 0x16 PUSH1 0x24 DUP3 ADD MSTORE PUSH22 0x12D95E5CC8185B1C9958591E4819D95B995C985D1959 PUSH1 0x52 SHL PUSH1 0x44 DUP3 ADD MSTORE PUSH1 0x64 SWAP1 REVERT JUMPDEST CALLVALUE PUSH2 0x1AE JUMPI PUSH1 0x80 CALLDATASIZE PUSH1 0x3 NOT ADD SLT PUSH2 0x1AE JUMPI PUSH1 0x4 CALLDATALOAD PUSH2 0x4DF PUSH2 0x3308 JUMP JUMPDEST SWAP1 PUSH1 0x44 CALLDATALOAD PUSH1 0x1 PUSH1 0x1 PUSH1 0x40 SHL SUB DUP2 GT PUSH2 0x1AE JUMPI PUSH2 0x4FF SWAP1 CALLDATASIZE SWAP1 PUSH1 0x4 ADD PUSH2 0x32B2 JUMP JUMPDEST SWAP2 PUSH1 0x64 CALLDATALOAD SWAP3 DUP4 ISZERO ISZERO SWAP4 DUP5 DUP2 SUB PUSH2 0x1AE JUMPI DUP4 PUSH1 0x0 MSTORE PUSH1 0xF PUSH1 0x20 MSTORE PUSH1 0xFF PUSH1 0x40 PUSH1 0x0 KECCAK256 SLOAD AND ISZERO PUSH2 0x901 JUMPI DUP2 MLOAD ISZERO PUSH2 0x8C4 JUMPI ISZERO PUSH2 0x813 JUMPI PUSH2 0x576 PUSH1 0x20 PUSH1 0x1 DUP1 PUSH1 0xA0 SHL SUB PUSH1 0x6 SLOAD AND DUP6 PUSH1 0x0 MSTORE PUSH1 0x8 DUP3 MSTORE PUSH1 0xFF PUSH1 0xD PUSH1 0x40 PUSH1 0x0 KECCAK256 ADD SLOAD PUSH1 0x8 SHR AND SWAP1 PUSH1 0x40 MLOAD DUP1 DUP1 SWAP6 DUP2 SWAP5 PUSH4 0xEB2F161 PUSH1 0xE4 SHL DUP4 MSTORE DUP10 PUSH1 0x4 DUP5 ADD PUSH2 0x359B JUMP JUMPDEST SUB SWAP2 GAS STATICCALL SWAP1 DUP2 ISZERO PUSH2 0x807 JUMPI PUSH1 0x0 SWAP2 PUSH2 0x7D8 JUMPI JUMPDEST POP ISZERO PUSH2 0x79D JUMPI JUMPDEST DUP3 PUSH1 0x0 MSTORE PUSH1 0xE PUSH1 0x20 MSTORE PUSH1 0x40 PUSH1 0x0 KECCAK256 PUSH1 0x1 DUP1 PUSH1 0xA0 SHL SUB DUP4 AND PUSH1 0x0 MSTORE PUSH1 0x20 MSTORE PUSH2 0x5BB PUSH1 0x40 PUSH1 0x0 KECCAK256 SLOAD PUSH2 0x33C3 JUMP JUMPDEST PUSH2 0x766 JUMPI PUSH1 0x0 DUP4 DUP2 MSTORE PUSH1 0xE PUSH1 0x20 SWAP1 DUP2 MSTORE PUSH1 0x40 DUP1 DUP4 KECCAK256 PUSH1 0x1 PUSH1 0x1 PUSH1 0xA0 SHL SUB DUP7 AND DUP5 MSTORE SWAP1 SWAP2 MSTORE SWAP1 KECCAK256 DUP2 MLOAD SWAP1 SWAP2 PUSH1 0x1 PUSH1 0x1 PUSH1 0x40 SHL SUB DUP3 GT PUSH2 0x3F0 JUMPI PUSH2 0x5FD DUP4 SLOAD PUSH2 0x33C3 JUMP JUMPDEST PUSH1 0x1F DUP2 GT PUSH2 0x71E JUMPI JUMPDEST POP PUSH1 0x20 SWAP1 PUSH1 0x1F DUP4 GT PUSH1 0x1 EQ PUSH2 0x692 JUMPI SWAP2 DUP1 PUSH1 0x20 SWAP5 SWAP3 PUSH32 0x6DB43700E50037B5CB5C847340CD6A7E0D93EE38E5B64ACBCCF2788C67A69267 SWAP7 SWAP5 PUSH1 0x0 SWAP3 PUSH2 0x687 JUMPI JUMPDEST POP POP DUP2 PUSH1 0x1 SHL SWAP2 PUSH1 0x0 NOT SWAP1 PUSH1 0x3 SHL SHR NOT AND OR SWAP1 SSTORE JUMPDEST DUP4 PUSH1 0x0 MSTORE PUSH1 0x10 DUP3 MSTORE PUSH1 0x40 PUSH1 0x0 KECCAK256 PUSH2 0x672 DUP2 SLOAD PUSH2 0x358C JUMP JUMPDEST SWAP1 SSTORE PUSH1 0x40 MLOAD SWAP5 DUP6 MSTORE PUSH1 0x1 PUSH1 0x1 PUSH1 0xA0 SHL SUB AND SWAP4 LOG3 STOP JUMPDEST ADD MLOAD SWAP1 POP DUP9 DUP1 PUSH2 0x646 JUMP JUMPDEST SWAP1 PUSH1 0x1F NOT DUP4 AND SWAP2 DUP5 PUSH1 0x0 MSTORE DUP2 PUSH1 0x0 KECCAK256 SWAP3 PUSH1 0x0 JUMPDEST DUP2 DUP2 LT PUSH2 0x706 JUMPI POP SWAP3 PUSH1 0x1 SWAP3 DUP6 SWAP3 PUSH32 0x6DB43700E50037B5CB5C847340CD6A7E0D93EE38E5B64ACBCCF2788C67A69267 SWAP9 SWAP7 PUSH1 0x20 SWAP9 SWAP7 LT PUSH2 0x6ED JUMPI JUMPDEST POP POP POP DUP2 SHL ADD SWAP1 SSTORE PUSH2 0x65B JUMP JUMPDEST ADD MLOAD PUSH1 0x0 NOT PUSH1 0xF8 DUP5 PUSH1 0x3 SHL AND SHR NOT AND SWAP1 SSTORE DUP9 DUP1 DUP1 PUSH2 0x6E0 JUMP JUMPDEST SWAP3 SWAP4 PUSH1 0x20 PUSH1 0x1 DUP2 SWAP3 DUP8 DUP7 ADD MLOAD DUP2 SSTORE ADD SWAP6 ADD SWAP4 ADD PUSH2 0x6A5 JUMP JUMPDEST DUP4 PUSH1 0x0 MSTORE PUSH1 0x20 PUSH1 0x0 KECCAK256 PUSH1 0x1F DUP5 ADD PUSH1 0x5 SHR DUP2 ADD SWAP2 PUSH1 0x20 DUP6 LT PUSH2 0x75C JUMPI JUMPDEST PUSH1 0x1F ADD PUSH1 0x5 SHR ADD SWAP1 JUMPDEST DUP2 DUP2 LT PUSH2 0x750 JUMPI POP PUSH2 0x606 JUMP JUMPDEST PUSH1 0x0 DUP2 SSTORE PUSH1 0x1 ADD PUSH2 0x743 JUMP JUMPDEST SWAP1 SWAP2 POP DUP2 SWAP1 PUSH2 0x73A JUMP JUMPDEST PUSH1 0x40 MLOAD PUSH3 0x461BCD PUSH1 0xE5 SHL DUP2 MSTORE PUSH1 0x20 PUSH1 0x4 DUP3 ADD MSTORE PUSH1 0xF PUSH1 0x24 DUP3 ADD MSTORE PUSH15 0x12D95E48185B1C9958591E481CD95D PUSH1 0x8A SHL PUSH1 0x44 DUP3 ADD MSTORE PUSH1 0x64 SWAP1 REVERT JUMPDEST PUSH1 0x40 MLOAD PUSH3 0x461BCD PUSH1 0xE5 SHL DUP2 MSTORE PUSH1 0x20 PUSH1 0x4 DUP3 ADD MSTORE PUSH1 0x13 PUSH1 0x24 DUP3 ADD MSTORE PUSH19 0x2737BA1030903B30B634B21039B2B730BA37B9 PUSH1 0x69 SHL PUSH1 0x44 DUP3 ADD MSTORE PUSH1 0x64 SWAP1 REVERT JUMPDEST PUSH2 0x7FA SWAP2 POP PUSH1 0x20 RETURNDATASIZE PUSH1 0x20 GT PUSH2 0x800 JUMPI JUMPDEST PUSH2 0x7F2 DUP2 DUP4 PUSH2 0x3291 JUMP JUMPDEST DUP2 ADD SWAP1 PUSH2 0x36B1 JUMP JUMPDEST DUP6 PUSH2 0x589 JUMP JUMPDEST POP RETURNDATASIZE PUSH2 0x7E8 JUMP JUMPDEST PUSH1 0x40 MLOAD RETURNDATASIZE PUSH1 0x0 DUP3 RETURNDATACOPY RETURNDATASIZE SWAP1 REVERT JUMPDEST PUSH1 0x0 SWAP3 SWAP2 SWAP1 PUSH1 0x1 PUSH1 0x1 PUSH1 0xA0 SHL SUB DUP3 AND DUP5 JUMPDEST DUP5 PUSH1 0x0 MSTORE PUSH1 0x3 PUSH1 0x20 MSTORE PUSH1 0x40 PUSH1 0x0 KECCAK256 SLOAD DUP2 LT ISZERO PUSH2 0x8BA JUMPI DUP5 PUSH1 0x0 MSTORE PUSH1 0x3 PUSH1 0x20 MSTORE DUP2 PUSH2 0x852 DUP3 PUSH1 0x40 PUSH1 0x0 KECCAK256 PUSH2 0x3538 JUMP JUMPDEST SWAP1 SLOAD PUSH1 0x3 SWAP2 SWAP1 SWAP2 SHL SHR PUSH1 0x1 PUSH1 0x1 PUSH1 0xA0 SHL SUB AND EQ PUSH2 0x871 JUMPI PUSH1 0x1 ADD PUSH2 0x824 JUMP JUMPDEST POP POP SWAP1 SWAP2 SWAP3 POP PUSH1 0x1 JUMPDEST PUSH2 0x590 JUMPI PUSH1 0x40 MLOAD PUSH3 0x461BCD PUSH1 0xE5 SHL DUP2 MSTORE PUSH1 0x20 PUSH1 0x4 DUP3 ADD MSTORE PUSH1 0x14 PUSH1 0x24 DUP3 ADD MSTORE PUSH20 0x2737BA1030903B30B634B2103932BB34B2BBB2B9 PUSH1 0x61 SHL PUSH1 0x44 DUP3 ADD MSTORE PUSH1 0x64 SWAP1 REVERT JUMPDEST POP POP SWAP1 SWAP2 SWAP3 PUSH2 0x87A JUMP JUMPDEST PUSH1 0x40 MLOAD PUSH3 0x461BCD PUSH1 0xE5 SHL DUP2 MSTORE PUSH1 0x20 PUSH1 0x4 DUP3 ADD MSTORE PUSH1 0x15 PUSH1 0x24 DUP3 ADD MSTORE PUSH21 0x496E76616C696420656E63727970746564206B6579 PUSH1 0x58 SHL PUSH1 0x44 DUP3 ADD MSTORE PUSH1 0x64 SWAP1 REVERT JUMPDEST PUSH1 0x40 MLOAD PUSH3 0x461BCD PUSH1 0xE5 SHL DUP2 MSTORE PUSH1 0x20 PUSH1 0x4 DUP3 ADD MSTORE PUSH1 0x16 PUSH1 0x24 DUP3 ADD MSTORE PUSH22 0x12D95E5CC81B9BDD0819D95B995C985D1959081E595D PUSH1 0x52 SHL PUSH1 0x44 DUP3 ADD MSTORE PUSH1 0x64 SWAP1 REVERT JUMPDEST CALLVALUE PUSH2 0x1AE JUMPI PUSH1 0x20 CALLDATASIZE PUSH1 0x3 NOT ADD SLT PUSH2 0x1AE JUMPI PUSH1 0x4 CALLDATALOAD PUSH1 0x0 DUP2 DUP2 MSTORE PUSH1 0x8 PUSH1 0x20 MSTORE PUSH1 0x40 SWAP1 KECCAK256 PUSH1 0x3 DUP2 ADD SLOAD PUSH1 0x1 PUSH1 0x1 PUSH1 0xA0 SHL SUB AND CALLER SUB PUSH2 0x9B7 JUMPI PUSH1 0xD ADD PUSH1 0x1 DUP2 SLOAD PUSH2 0x989 PUSH1 0xFF DUP3 AND ISZERO PUSH2 0x3638 JUMP JUMPDEST PUSH1 0xFF NOT AND OR SWAP1 SSTORE PUSH32 0xE68F10F94CA2685D65A39A1841C1E1E00E8DF8B2FA15DD0562E32C33AF49FE17 PUSH1 0x0 DUP1 LOG2 STOP JUMPDEST PUSH1 0x40 MLOAD PUSH3 0x461BCD PUSH1 0xE5 SHL DUP2 MSTORE PUSH1 0x20 PUSH1 0x4 DUP3 ADD MSTORE PUSH1 0xB PUSH1 0x24 DUP3 ADD MSTORE PUSH11 0x2737BA1031B932B0BA37B9 PUSH1 0xA9 SHL PUSH1 0x44 DUP3 ADD MSTORE PUSH1 0x64 SWAP1 REVERT JUMPDEST CALLVALUE PUSH2 0x1AE JUMPI PUSH1 0x20 CALLDATASIZE PUSH1 0x3 NOT ADD SLT PUSH2 0x1AE JUMPI PUSH1 0x4 CALLDATALOAD PUSH1 0x0 MSTORE PUSH1 0x8 PUSH1 0x20 MSTORE PUSH1 0x40 PUSH1 0x0 KECCAK256 DUP1 SLOAD PUSH1 0x1 DUP3 ADD PUSH2 0xA1A SWAP1 PUSH2 0x33FD JUMP JUMPDEST SWAP1 PUSH2 0xA27 PUSH1 0x2 DUP5 ADD PUSH2 0x33FD JUMP JUMPDEST PUSH1 0x3 DUP5 ADD SLOAD PUSH1 0x4 DUP6 ADD SLOAD PUSH1 0x5 DUP7 ADD SLOAD SWAP3 SWAP6 PUSH1 0x1 PUSH1 0x1 PUSH1 0xA0 SHL SUB SWAP1 SWAP3 AND SWAP3 PUSH2 0xA50 PUSH1 0x6 DUP5 ADD PUSH2 0x33FD JUMP JUMPDEST SWAP5 PUSH1 0x7 DUP5 ADD SLOAD SWAP6 PUSH1 0x8 DUP6 ADD SLOAD PUSH1 0x9 DUP7 ADD SLOAD SWAP2 PUSH1 0xA DUP8 ADD SLOAD SWAP4 PUSH1 0xB DUP9 ADD SLOAD SWAP6 PUSH1 0xC DUP10 ADD SLOAD SWAP8 PUSH1 0xD DUP11 ADD SLOAD SWAP10 PUSH1 0xE ADD SLOAD SWAP11 PUSH1 0x40 MLOAD SWAP15 DUP16 SWAP15 DUP16 SWAP6 DUP7 MSTORE PUSH1 0x20 DUP7 ADD PUSH2 0x200 SWAP1 MSTORE PUSH2 0x200 DUP7 ADD PUSH2 0xAA0 SWAP2 PUSH2 0x3350 JUMP JUMPDEST DUP6 DUP2 SUB PUSH1 0x40 DUP8 ADD MSTORE PUSH2 0xAB1 SWAP2 PUSH2 0x3350 JUMP JUMPDEST SWAP4 PUSH1 0x60 ADD MSTORE PUSH1 0x80 DUP14 ADD MSTORE PUSH1 0xA0 DUP13 ADD MSTORE DUP11 DUP2 SUB PUSH1 0xC0 DUP13 ADD MSTORE PUSH2 0xAD1 SWAP2 PUSH2 0x3350 JUMP JUMPDEST SWAP8 PUSH1 0xE0 DUP11 ADD MSTORE PUSH2 0x100 DUP10 ADD MSTORE PUSH2 0x120 DUP9 ADD MSTORE PUSH2 0x140 DUP8 ADD MSTORE PUSH2 0x160 DUP7 ADD MSTORE PUSH2 0x180 DUP6 ADD MSTORE PUSH1 0xFF DUP2 AND ISZERO ISZERO PUSH2 0x1A0 DUP6 ADD MSTORE PUSH2 0x1C0 DUP5 ADD SWAP1 PUSH1 0x8 SHR PUSH1 0xFF AND SWAP1 PUSH2 0xB17 SWAP2 PUSH2 0x357F JUMP JUMPDEST PUSH2 0x1E0 DUP4 ADD MSTORE SUB SWAP1 RETURN JUMPDEST CALLVALUE PUSH2 0x1AE JUMPI PUSH1 0x40 CALLDATASIZE PUSH1 0x3 NOT ADD SLT PUSH2 0x1AE JUMPI PUSH2 0xB3A PUSH2 0x3308 JUMP JUMPDEST PUSH1 0x4 CALLDATALOAD PUSH1 0x0 MSTORE PUSH1 0xE PUSH1 0x20 MSTORE PUSH1 0x40 PUSH1 0x0 KECCAK256 SWAP1 PUSH1 0x1 DUP1 PUSH1 0xA0 SHL SUB AND PUSH1 0x0 MSTORE PUSH1 0x20 MSTORE PUSH2 0xB7D PUSH2 0xB69 PUSH1 0x40 PUSH1 0x0 KECCAK256 PUSH2 0x33FD JUMP JUMPDEST PUSH1 0x40 MLOAD SWAP2 DUP3 SWAP2 PUSH1 0x20 DUP4 MSTORE PUSH1 0x20 DUP4 ADD SWAP1 PUSH2 0x3350 JUMP JUMPDEST SUB SWAP1 RETURN JUMPDEST CALLVALUE PUSH2 0x1AE JUMPI PUSH2 0xB8F CALLDATASIZE PUSH2 0x34A1 JUMP JUMPDEST POP PUSH1 0x0 DUP4 DUP2 MSTORE PUSH1 0x8 PUSH1 0x20 SWAP1 DUP2 MSTORE PUSH1 0x40 DUP1 DUP4 KECCAK256 PUSH1 0x9 DUP4 MSTORE DUP2 DUP5 KECCAK256 CALLER DUP6 MSTORE SWAP1 SWAP3 MSTORE DUP1 DUP4 KECCAK256 PUSH1 0x1 PUSH1 0x1 PUSH1 0xA0 SHL SUB DUP7 AND DUP5 MSTORE SWAP3 KECCAK256 PUSH1 0xD DUP3 ADD SLOAD SWAP4 SWAP6 SWAP2 SWAP5 SWAP2 SWAP4 SWAP1 SWAP3 SWAP1 PUSH1 0xFF AND PUSH2 0xF28 JUMPI PUSH1 0x4 ADD SLOAD PUSH1 0x8 SHR PUSH1 0xFF AND ISZERO PUSH2 0xEF2 JUMPI PUSH2 0xBF0 PUSH1 0x2 DUP4 ADD SLOAD PUSH2 0x33C3 JUMP JUMPDEST ISZERO PUSH2 0xEB7 JUMPI PUSH1 0x4 DUP3 ADD SWAP4 PUSH1 0xFF DUP6 SLOAD AND PUSH2 0xE7F JUMPI PUSH1 0xE SWAP1 PUSH2 0xC13 PUSH1 0x64 DUP9 GT ISZERO PUSH2 0x36C9 JUMP JUMPDEST PUSH1 0x0 DUP6 DUP2 MSTORE PUSH1 0x5 PUSH1 0x20 SWAP1 DUP2 MSTORE PUSH1 0x40 DUP1 DUP4 KECCAK256 PUSH1 0x1 PUSH1 0x1 PUSH1 0xA0 SHL SUB DUP8 AND DUP5 MSTORE DUP3 MSTORE DUP1 DUP4 KECCAK256 CALLER DUP5 MSTORE SWAP1 SWAP2 MSTORE SWAP1 KECCAK256 SLOAD PUSH2 0xC4B SWAP1 PUSH1 0xFF AND ISZERO PUSH2 0x3675 JUMP JUMPDEST ADD DUP1 SLOAD PUSH1 0x0 DUP6 DUP2 MSTORE PUSH1 0x4 PUSH1 0x20 SWAP1 DUP2 MSTORE PUSH1 0x40 DUP1 DUP4 KECCAK256 PUSH1 0x1 PUSH1 0x1 PUSH1 0xA0 SHL SUB DUP8 AND DUP5 MSTORE DUP3 MSTORE DUP1 DUP4 KECCAK256 CALLER DUP5 MSTORE SWAP1 SWAP2 MSTORE SWAP1 KECCAK256 DUP1 SLOAD PUSH1 0xFF NOT AND SWAP2 DUP9 LT ISZERO PUSH1 0xFF AND SWAP2 SWAP1 SWAP2 OR SWAP1 SSTORE SWAP3 PUSH1 0x0 DUP2 DUP2 MSTORE PUSH1 0x5 PUSH1 0x20 DUP2 DUP2 MSTORE PUSH1 0x40 DUP1 DUP5 KECCAK256 PUSH1 0x1 PUSH1 0x1 PUSH1 0xA0 SHL SUB DUP8 AND DUP6 MSTORE DUP3 MSTORE DUP1 DUP5 KECCAK256 CALLER DUP6 MSTORE SWAP1 SWAP2 MSTORE SWAP1 SWAP2 KECCAK256 DUP1 SLOAD PUSH1 0xFF NOT AND PUSH1 0x1 OR SWAP1 SSTORE DUP4 ADD DUP1 SLOAD SWAP1 SWAP4 SWAP1 PUSH2 0xCD4 SWAP1 DUP9 SWAP1 PUSH2 0x3715 JUMP JUMPDEST DUP1 SWAP5 SSTORE PUSH1 0x6 DUP2 ADD SWAP7 PUSH2 0xCE6 DUP9 SLOAD PUSH2 0x358C JUMP JUMPDEST DUP1 SWAP9 SSTORE DUP6 SLOAD GT ISZERO PUSH1 0x40 MLOAD SWAP1 DUP2 MSTORE PUSH1 0x1 DUP1 PUSH1 0xA0 SHL SUB DUP5 AND SWAP1 DUP4 PUSH32 0xB0AD8B9F0729F50B6025F5DB451DEBBC7DA11DD3F0B6A4ECB8D8919609026B62 PUSH1 0x20 CALLER SWAP4 LOG4 PUSH1 0x0 SWAP4 PUSH1 0x0 SWAP6 PUSH1 0x0 JUMPDEST DUP5 PUSH1 0x0 MSTORE PUSH1 0x3 PUSH1 0x20 MSTORE PUSH1 0x40 PUSH1 0x0 KECCAK256 SLOAD DUP2 LT ISZERO PUSH2 0xE28 JUMPI DUP5 PUSH1 0x0 MSTORE PUSH1 0x5 PUSH1 0x20 MSTORE PUSH1 0xFF PUSH1 0x40 DUP1 DUP1 PUSH1 0x0 KECCAK256 PUSH1 0x0 SWAP1 PUSH1 0x1 DUP1 PUSH1 0xA0 SHL SUB DUP12 AND DUP3 MSTORE PUSH1 0x20 MSTORE KECCAK256 DUP8 PUSH1 0x0 MSTORE PUSH1 0x3 PUSH1 0x20 MSTORE PUSH2 0xD7D DUP5 DUP4 PUSH1 0x0 KECCAK256 PUSH2 0x3538 JUMP JUMPDEST SWAP1 SLOAD PUSH1 0x3 SWAP2 SWAP1 SWAP2 SHL SHR PUSH1 0x1 PUSH1 0x1 PUSH1 0xA0 SHL SUB AND PUSH1 0x0 SWAP1 DUP2 MSTORE PUSH1 0x20 SWAP2 SWAP1 SWAP2 MSTORE KECCAK256 SLOAD AND PUSH2 0xDAA JUMPI JUMPDEST PUSH1 0x1 ADD PUSH2 0xD2D JUMP JUMPDEST SWAP6 PUSH2 0xDB4 SWAP1 PUSH2 0x358C JUMP JUMPDEST SWAP6 DUP5 PUSH1 0x0 MSTORE PUSH1 0x4 PUSH1 0x20 MSTORE PUSH1 0xFF PUSH1 0x40 DUP1 DUP1 PUSH1 0x0 KECCAK256 PUSH1 0x0 SWAP1 PUSH1 0x1 DUP1 PUSH1 0xA0 SHL SUB DUP12 AND DUP3 MSTORE PUSH1 0x20 MSTORE KECCAK256 DUP8 PUSH1 0x0 MSTORE PUSH1 0x3 PUSH1 0x20 MSTORE PUSH2 0xDEF DUP5 DUP4 PUSH1 0x0 KECCAK256 PUSH2 0x3538 JUMP JUMPDEST SWAP1 SLOAD PUSH1 0x3 SWAP2 SWAP1 SWAP2 SHL SHR PUSH1 0x1 PUSH1 0x1 PUSH1 0xA0 SHL SUB AND PUSH1 0x0 SWAP1 DUP2 MSTORE PUSH1 0x20 SWAP2 SWAP1 SWAP2 MSTORE KECCAK256 SLOAD AND ISZERO PUSH2 0xDA2 JUMPI SWAP7 PUSH2 0xE20 PUSH1 0x1 SWAP2 PUSH2 0x358C JUMP JUMPDEST SWAP8 SWAP1 POP PUSH2 0xDA2 JUMP JUMPDEST POP DUP8 DUP7 DUP11 SWAP6 PUSH1 0x0 MSTORE PUSH1 0x3 PUSH1 0x20 MSTORE PUSH1 0x40 PUSH1 0x0 KECCAK256 SLOAD PUSH1 0x1 SHR GT ISZERO PUSH2 0xE46 JUMPI STOP JUMPDEST PUSH2 0xE7D SWAP5 PUSH1 0x1 SWAP4 PUSH2 0xE60 SWAP3 DUP6 PUSH1 0xFF NOT DUP3 SLOAD AND OR SWAP1 SSTORE PUSH2 0x3722 JUMP JUMPDEST SWAP1 DUP2 PUSH1 0x3 DUP6 ADD SSTORE SLOAD GT ISZERO SWAP2 ADD SWAP1 PUSH1 0xFF DUP1 NOT DUP4 SLOAD AND SWAP2 ISZERO ISZERO AND OR SWAP1 SSTORE JUMP JUMPDEST STOP JUMPDEST PUSH1 0x40 MLOAD PUSH3 0x461BCD PUSH1 0xE5 SHL DUP2 MSTORE PUSH1 0x20 PUSH1 0x4 DUP3 ADD MSTORE PUSH1 0x10 PUSH1 0x24 DUP3 ADD MSTORE PUSH16 0x105B1C9958591E481C995D9A595DD959 PUSH1 0x82 SHL PUSH1 0x44 DUP3 ADD MSTORE PUSH1 0x64 SWAP1 REVERT JUMPDEST PUSH1 0x40 MLOAD PUSH3 0x461BCD PUSH1 0xE5 SHL DUP2 MSTORE PUSH1 0x20 PUSH1 0x4 DUP3 ADD MSTORE PUSH1 0x13 PUSH1 0x24 DUP3 ADD MSTORE PUSH19 0x139BC81CDD589B5A5CDCDA5BDB88199BDD5B99 PUSH1 0x6A SHL PUSH1 0x44 DUP3 ADD MSTORE PUSH1 0x64 SWAP1 REVERT JUMPDEST PUSH1 0x40 MLOAD PUSH3 0x461BCD PUSH1 0xE5 SHL DUP2 MSTORE PUSH1 0x20 PUSH1 0x4 DUP3 ADD MSTORE PUSH1 0xE PUSH1 0x24 DUP3 ADD MSTORE PUSH14 0x2737BA1030903932BB34B2BBB2B9 PUSH1 0x91 SHL PUSH1 0x44 DUP3 ADD MSTORE PUSH1 0x64 SWAP1 REVERT JUMPDEST PUSH1 0x40 MLOAD PUSH3 0x461BCD PUSH1 0xE5 SHL DUP2 MSTORE PUSH1 0x20 PUSH1 0x4 DUP3 ADD MSTORE PUSH1 0x10 PUSH1 0x24 DUP3 ADD MSTORE PUSH16 0x10DBDB5B5D5B9A5D1E4818DB1BDCD959 PUSH1 0x82 SHL PUSH1 0x44 DUP3 ADD MSTORE PUSH1 0x64 SWAP1 REVERT JUMPDEST CALLVALUE PUSH2 0x1AE JUMPI PUSH1 0x40 CALLDATASIZE PUSH1 0x3 NOT ADD SLT PUSH2 0x1AE JUMPI PUSH1 0x40 PUSH2 0xF7B PUSH2 0x3308 JUMP JUMPDEST PUSH1 0x4 CALLDATALOAD PUSH1 0x0 MSTORE PUSH1 0x9 PUSH1 0x20 MSTORE DUP2 PUSH1 0x0 KECCAK256 PUSH1 0x0 SWAP2 PUSH1 0x1 DUP1 PUSH1 0xA0 SHL SUB AND DUP3 MSTORE PUSH1 0x20 MSTORE KECCAK256 DUP1 SLOAD PUSH1 0x1 DUP3 ADD SLOAD SWAP2 PUSH2 0xFAF PUSH1 0x2 DUP3 ADD PUSH2 0x33FD JUMP JUMPDEST PUSH1 0x3 DUP3 ADD SLOAD SWAP2 PUSH1 0xFF PUSH1 0x4 DUP3 ADD SLOAD PUSH2 0xFFB PUSH1 0x6 PUSH1 0x5 DUP6 ADD SLOAD SWAP5 ADD SLOAD SWAP5 DUP4 PUSH1 0x40 MLOAD SWAP10 DUP11 SWAP10 DUP11 MSTORE DUP2 DUP2 AND ISZERO ISZERO PUSH1 0x20 DUP12 ADD MSTORE PUSH1 0x8 SHR AND ISZERO ISZERO PUSH1 0x40 DUP10 ADD MSTORE PUSH2 0x160 PUSH1 0x60 DUP10 ADD MSTORE PUSH2 0x160 DUP9 ADD SWAP1 PUSH2 0x3350 JUMP JUMPDEST SWAP5 PUSH1 0x80 DUP8 ADD MSTORE DUP2 DUP2 AND ISZERO ISZERO PUSH1 0xA0 DUP8 ADD MSTORE DUP2 DUP2 PUSH1 0x8 SHR AND ISZERO ISZERO PUSH1 0xC0 DUP8 ADD MSTORE DUP2 DUP2 PUSH1 0x10 SHR AND ISZERO ISZERO PUSH1 0xE0 DUP8 ADD MSTORE PUSH1 0x18 SHR AND ISZERO ISZERO PUSH2 0x100 DUP6 ADD MSTORE PUSH2 0x120 DUP5 ADD MSTORE PUSH2 0x140 DUP4 ADD MSTORE SUB SWAP1 RETURN JUMPDEST CALLVALUE PUSH2 0x1AE JUMPI PUSH2 0x104F CALLDATASIZE PUSH2 0x3522 JUMP JUMPDEST SWAP1 PUSH1 0x0 MSTORE PUSH1 0xA PUSH1 0x20 MSTORE PUSH1 0x40 PUSH1 0x0 KECCAK256 DUP1 SLOAD DUP3 LT ISZERO PUSH2 0x1AE JUMPI PUSH1 0x20 SWAP2 PUSH2 0x1072 SWAP2 PUSH2 0x3538 JUMP JUMPDEST SWAP1 SLOAD PUSH1 0x40 MLOAD PUSH1 0x3 SWAP3 SWAP1 SWAP3 SHL SHR PUSH1 0x1 PUSH1 0x1 PUSH1 0xA0 SHL SUB AND DUP2 MSTORE RETURN JUMPDEST CALLVALUE PUSH2 0x1AE JUMPI PUSH1 0x20 CALLDATASIZE PUSH1 0x3 NOT ADD SLT PUSH2 0x1AE JUMPI PUSH1 0x4 CALLDATALOAD PUSH1 0x7 DUP2 LT ISZERO PUSH2 0x1AE JUMPI PUSH1 0xFF PUSH2 0x10B5 PUSH1 0x20 SWAP3 PUSH2 0x3550 JUMP JUMPDEST SLOAD AND PUSH1 0x40 MLOAD SWAP1 ISZERO ISZERO DUP2 MSTORE RETURN JUMPDEST PUSH1 0x20 CALLDATASIZE PUSH1 0x3 NOT ADD SLT PUSH2 0x1AE JUMPI PUSH1 0x4 CALLDATALOAD DUP1 PUSH1 0x0 MSTORE PUSH1 0x8 PUSH1 0x20 MSTORE PUSH1 0x40 PUSH1 0x0 KECCAK256 SWAP1 PUSH2 0x10F0 PUSH1 0xFF PUSH1 0xD DUP5 ADD SLOAD AND ISZERO PUSH2 0x35BB JUMP JUMPDEST PUSH1 0x4 DUP3 ADD SLOAD TIMESTAMP LT PUSH2 0x1674 JUMPI PUSH1 0x5 DUP3 ADD SLOAD TIMESTAMP LT ISZERO PUSH2 0x163D JUMPI PUSH1 0xA DUP3 ADD SLOAD PUSH1 0x9 DUP4 ADD SLOAD GT ISZERO PUSH2 0x1607 JUMPI PUSH1 0x7 DUP3 ADD SLOAD CALLVALUE SUB PUSH2 0x15C2 JUMPI PUSH1 0x0 DUP2 DUP2 MSTORE PUSH1 0x9 PUSH1 0x20 SWAP1 DUP2 MSTORE PUSH1 0x40 DUP1 DUP4 KECCAK256 CALLER DUP5 MSTORE SWAP1 SWAP2 MSTORE SWAP1 KECCAK256 SLOAD PUSH2 0x158C JUMPI PUSH1 0x2 SLOAD PUSH1 0x40 MLOAD PUSH4 0x23B872DD PUSH1 0xE0 SHL DUP2 MSTORE CALLER PUSH1 0x4 DUP3 ADD MSTORE ADDRESS PUSH1 0x24 DUP3 ADD MSTORE PUSH9 0x56BC75E2D63100000 PUSH1 0x44 DUP3 ADD MSTORE SWAP1 PUSH1 0x20 SWAP1 DUP3 SWAP1 PUSH1 0x64 SWAP1 DUP3 SWAP1 PUSH1 0x0 SWAP1 PUSH1 0x1 PUSH1 0x1 PUSH1 0xA0 SHL SUB AND GAS CALL SWAP1 DUP2 ISZERO PUSH2 0x807 JUMPI PUSH1 0x0 SWAP2 PUSH2 0x156D JUMPI JUMPDEST POP ISZERO PUSH2 0x1530 JUMPI PUSH1 0x40 MLOAD SWAP2 PUSH2 0x160 DUP4 ADD DUP4 DUP2 LT PUSH1 0x1 PUSH1 0x1 PUSH1 0x40 SHL SUB DUP3 GT OR PUSH2 0x3F0 JUMPI PUSH1 0x40 MSTORE TIMESTAMP DUP4 MSTORE PUSH1 0x20 DUP4 ADD SWAP1 PUSH1 0x0 DUP3 MSTORE PUSH1 0x40 DUP5 ADD PUSH1 0x0 DUP2 MSTORE PUSH1 0x20 SWAP3 PUSH2 0x1276 PUSH1 0x40 MLOAD SWAP2 PUSH2 0x11DF DUP7 DUP5 PUSH2 0x3291 JUMP JUMPDEST PUSH1 0x0 DUP4 MSTORE PUSH1 0x60 DUP9 ADD SWAP3 DUP4 MSTORE PUSH1 0x0 PUSH1 0x80 DUP10 ADD MSTORE PUSH1 0x0 PUSH1 0xA0 DUP10 ADD MSTORE PUSH1 0x0 PUSH1 0xC0 DUP10 ADD MSTORE PUSH1 0x0 PUSH1 0xE0 DUP10 ADD MSTORE PUSH1 0x0 PUSH2 0x100 DUP10 ADD MSTORE PUSH1 0x0 PUSH2 0x120 DUP10 ADD MSTORE PUSH1 0x0 PUSH2 0x140 DUP10 ADD MSTORE DUP7 PUSH1 0x0 MSTORE PUSH1 0x9 DUP7 MSTORE PUSH1 0x40 DUP1 PUSH1 0x0 KECCAK256 PUSH1 0x0 SWAP1 PUSH1 0x1 DUP1 PUSH1 0xA0 SHL SUB CALLER AND DUP3 MSTORE DUP9 MSTORE KECCAK256 SWAP4 DUP9 MLOAD DUP6 SSTORE PUSH2 0x125F PUSH1 0x1 DUP7 ADD SWAP3 MLOAD ISZERO ISZERO DUP4 SWAP1 PUSH1 0xFF DUP1 NOT DUP4 SLOAD AND SWAP2 ISZERO ISZERO AND OR SWAP1 SSTORE JUMP JUMPDEST MLOAD DUP2 SLOAD PUSH2 0xFF00 NOT AND SWAP1 ISZERO ISZERO PUSH1 0x8 SHL PUSH2 0xFF00 AND OR SWAP1 SSTORE JUMP JUMPDEST MLOAD SWAP5 DUP6 MLOAD PUSH1 0x1 PUSH1 0x1 PUSH1 0x40 SHL SUB DUP2 GT PUSH2 0x3F0 JUMPI PUSH2 0x1295 PUSH1 0x2 DUP5 ADD SLOAD PUSH2 0x33C3 JUMP JUMPDEST PUSH1 0x1F DUP2 GT PUSH2 0x14E7 JUMPI JUMPDEST POP DUP5 PUSH1 0x1F DUP3 GT PUSH1 0x1 EQ PUSH2 0x144E JUMPI PUSH1 0xC SWAP5 SWAP4 SWAP3 DUP3 PUSH1 0x6 SWAP4 PUSH2 0x140 SWAP4 PUSH32 0x78DA64A590C3052953AD9E0A5546BBF12BB68AE7634E3FB2A774E22A8C6557C1 SWAP11 SWAP12 PUSH1 0x0 SWAP3 PUSH2 0x1443 JUMPI JUMPDEST POP POP DUP2 PUSH1 0x1 SHL SWAP2 PUSH1 0x0 NOT SWAP1 PUSH1 0x3 SHL SHR NOT AND OR PUSH1 0x2 DUP6 ADD SSTORE JUMPDEST PUSH1 0x80 DUP2 ADD MLOAD PUSH1 0x3 DUP6 ADD SSTORE PUSH2 0x1377 PUSH1 0x4 DUP6 ADD PUSH2 0x1328 PUSH1 0xA0 DUP5 ADD MLOAD ISZERO ISZERO DUP3 SWAP1 PUSH1 0xFF DUP1 NOT DUP4 SLOAD AND SWAP2 ISZERO ISZERO AND OR SWAP1 SSTORE JUMP JUMPDEST PUSH1 0xC0 DUP4 ADD MLOAD DUP2 SLOAD PUSH2 0xFF00 NOT AND SWAP1 ISZERO ISZERO PUSH1 0x8 SHL PUSH2 0xFF00 AND OR DUP2 SSTORE PUSH1 0xE0 DUP4 ADD MLOAD DUP2 SLOAD PUSH2 0x100 DUP6 ADD MLOAD PUSH4 0xFFFF0000 NOT SWAP1 SWAP2 AND SWAP2 ISZERO ISZERO PUSH1 0x10 SHL PUSH3 0xFF0000 AND SWAP2 SWAP1 SWAP2 OR SWAP1 ISZERO ISZERO PUSH1 0x18 SHL PUSH4 0xFF000000 AND OR SWAP1 SSTORE JUMP JUMPDEST PUSH2 0x120 DUP2 ADD MLOAD PUSH1 0x5 DUP6 ADD SSTORE ADD MLOAD SWAP2 ADD SSTORE DUP5 PUSH1 0x0 MSTORE PUSH1 0xA DUP4 MSTORE PUSH2 0x139D CALLER PUSH1 0x40 PUSH1 0x0 KECCAK256 PUSH2 0x374F JUMP JUMPDEST PUSH2 0x13AA PUSH1 0xA DUP3 ADD SLOAD PUSH2 0x358C JUMP JUMPDEST PUSH1 0xA DUP3 ADD SSTORE ADD PUSH2 0x13BB CALLVALUE DUP3 SLOAD PUSH2 0x3715 JUMP JUMPDEST SWAP1 SSTORE DUP3 PUSH1 0x0 MSTORE PUSH1 0x3 DUP2 MSTORE PUSH1 0xA PUSH1 0x40 PUSH1 0x0 KECCAK256 SLOAD LT PUSH2 0x13DC JUMPI JUMPDEST PUSH1 0x40 MLOAD CALLER DUP2 MSTORE LOG2 STOP JUMPDEST PUSH1 0x0 DUP4 DUP2 MSTORE PUSH1 0x9 DUP3 MSTORE PUSH1 0x40 DUP1 DUP3 KECCAK256 CALLER DUP1 DUP5 MSTORE SWAP1 DUP5 MSTORE DUP2 DUP4 KECCAK256 PUSH1 0x4 ADD DUP1 SLOAD PUSH2 0xFF00 NOT AND PUSH2 0x100 OR SWAP1 SSTORE DUP6 DUP4 MSTORE PUSH1 0x3 DUP5 MSTORE SWAP2 KECCAK256 PUSH2 0x1417 SWAP2 SWAP1 PUSH2 0x374F JUMP JUMPDEST CALLER DUP4 PUSH32 0x8FCD9F5C27415BF85B1F568FBE33A98AAEBD94A2F721378109A4A48142F1E3FB PUSH1 0x0 DUP1 LOG3 PUSH2 0x13D3 JUMP JUMPDEST ADD MLOAD SWAP1 POP DUP12 DUP1 PUSH2 0x12E3 JUMP JUMPDEST PUSH1 0x2 DUP5 ADD PUSH1 0x0 MSTORE DUP6 PUSH1 0x0 KECCAK256 SWAP8 PUSH1 0x0 JUMPDEST PUSH1 0x1F NOT DUP5 AND DUP2 LT PUSH2 0x14D0 JUMPI POP SWAP3 PUSH1 0x1 DUP4 PUSH32 0x78DA64A590C3052953AD9E0A5546BBF12BB68AE7634E3FB2A774E22A8C6557C1 SWAP10 SWAP11 PUSH2 0x140 SWAP5 PUSH1 0xC SWAP10 SWAP9 SWAP8 PUSH1 0x6 SWAP8 PUSH1 0x1F NOT DUP2 AND LT PUSH2 0x14B7 JUMPI JUMPDEST POP POP POP DUP2 SHL ADD PUSH1 0x2 DUP6 ADD SSTORE PUSH2 0x12FB JUMP JUMPDEST ADD MLOAD PUSH1 0x0 NOT PUSH1 0xF8 DUP5 PUSH1 0x3 SHL AND SHR NOT AND SWAP1 SSTORE DUP12 DUP1 DUP1 PUSH2 0x14A7 JUMP JUMPDEST DUP3 DUP3 ADD MLOAD DUP11 SSTORE PUSH1 0x1 SWAP1 SWAP10 ADD SWAP9 SWAP2 DUP8 ADD SWAP2 DUP8 ADD PUSH2 0x145D JUMP JUMPDEST PUSH1 0x2 DUP5 ADD PUSH1 0x0 MSTORE DUP6 PUSH1 0x0 KECCAK256 PUSH1 0x1F DUP4 ADD PUSH1 0x5 SHR DUP2 ADD SWAP2 DUP8 DUP5 LT PUSH2 0x1526 JUMPI JUMPDEST PUSH1 0x1F ADD PUSH1 0x5 SHR ADD SWAP1 JUMPDEST DUP2 DUP2 LT PUSH2 0x151A JUMPI POP PUSH2 0x129E JUMP JUMPDEST PUSH1 0x0 DUP2 SSTORE PUSH1 0x1 ADD PUSH2 0x150D JUMP JUMPDEST SWAP1 SWAP2 POP DUP2 SWAP1 PUSH2 0x1504 JUMP JUMPDEST PUSH1 0x40 MLOAD PUSH3 0x461BCD PUSH1 0xE5 SHL DUP2 MSTORE PUSH1 0x20 PUSH1 0x4 DUP3 ADD MSTORE PUSH1 0x15 PUSH1 0x24 DUP3 ADD MSTORE PUSH21 0x151BDAD95B881D1C985B9CD9995C8819985A5B1959 PUSH1 0x5A SHL PUSH1 0x44 DUP3 ADD MSTORE PUSH1 0x64 SWAP1 REVERT JUMPDEST PUSH2 0x1586 SWAP2 POP PUSH1 0x20 RETURNDATASIZE PUSH1 0x20 GT PUSH2 0x800 JUMPI PUSH2 0x7F2 DUP2 DUP4 PUSH2 0x3291 JUMP JUMPDEST DUP4 PUSH2 0x1193 JUMP JUMPDEST PUSH1 0x40 MLOAD PUSH3 0x461BCD PUSH1 0xE5 SHL DUP2 MSTORE PUSH1 0x20 PUSH1 0x4 DUP3 ADD MSTORE PUSH1 0xE PUSH1 0x24 DUP3 ADD MSTORE PUSH14 0x105B1C9958591E481A9BDA5B9959 PUSH1 0x92 SHL PUSH1 0x44 DUP3 ADD MSTORE PUSH1 0x64 SWAP1 REVERT JUMPDEST PUSH1 0x40 MLOAD PUSH3 0x461BCD PUSH1 0xE5 SHL DUP2 MSTORE PUSH1 0x20 PUSH1 0x4 DUP3 ADD MSTORE PUSH1 0x18 PUSH1 0x24 DUP3 ADD MSTORE PUSH32 0x496E636F7272656374206465706F73697420616D6F756E740000000000000000 PUSH1 0x44 DUP3 ADD MSTORE PUSH1 0x64 SWAP1 REVERT JUMPDEST PUSH1 0x40 MLOAD PUSH3 0x461BCD PUSH1 0xE5 SHL DUP2 MSTORE PUSH1 0x20 PUSH1 0x4 DUP3 ADD MSTORE PUSH1 0xE PUSH1 0x24 DUP3 ADD MSTORE PUSH14 0x10DBDB5B5D5B9A5D1E48199D5B1B PUSH1 0x92 SHL PUSH1 0x44 DUP3 ADD MSTORE PUSH1 0x64 SWAP1 REVERT JUMPDEST PUSH1 0x40 MLOAD PUSH3 0x461BCD PUSH1 0xE5 SHL DUP2 MSTORE PUSH1 0x20 PUSH1 0x4 DUP3 ADD MSTORE PUSH1 0xF PUSH1 0x24 DUP3 ADD MSTORE PUSH15 0x10DBDB5B5D5B9A5D1E48195B991959 PUSH1 0x8A SHL PUSH1 0x44 DUP3 ADD MSTORE PUSH1 0x64 SWAP1 REVERT JUMPDEST PUSH1 0x40 MLOAD PUSH3 0x461BCD PUSH1 0xE5 SHL DUP2 MSTORE PUSH1 0x20 PUSH1 0x4 DUP3 ADD MSTORE PUSH1 0x15 PUSH1 0x24 DUP3 ADD MSTORE PUSH21 0x10DBDB5B5D5B9A5D1E481B9BDD081CDD185C9D1959 PUSH1 0x5A SHL PUSH1 0x44 DUP3 ADD MSTORE PUSH1 0x64 SWAP1 REVERT JUMPDEST CALLVALUE PUSH2 0x1AE JUMPI PUSH1 0x0 CALLDATASIZE PUSH1 0x3 NOT ADD SLT PUSH2 0x1AE JUMPI PUSH1 0x20 PUSH1 0x7 SLOAD PUSH1 0x40 MLOAD SWAP1 DUP2 MSTORE RETURN JUMPDEST CALLVALUE PUSH2 0x1AE JUMPI PUSH1 0x20 CALLDATASIZE PUSH1 0x3 NOT ADD SLT PUSH2 0x1AE JUMPI PUSH1 0x4 CALLDATALOAD PUSH1 0x0 DUP2 DUP2 MSTORE PUSH1 0x8 PUSH1 0x20 SWAP1 DUP2 MSTORE PUSH1 0x40 DUP1 DUP4 KECCAK256 PUSH1 0x9 DUP4 MSTORE DUP2 DUP5 KECCAK256 CALLER DUP6 MSTORE SWAP1 SWAP3 MSTORE SWAP1 SWAP2 KECCAK256 PUSH1 0xD DUP3 ADD SLOAD PUSH2 0x1716 SWAP1 PUSH1 0xFF AND ISZERO PUSH2 0x35BB JUMP JUMPDEST PUSH1 0xFF PUSH1 0x4 DUP3 ADD SLOAD AND ISZERO PUSH2 0x1958 JUMPI PUSH1 0x1 ADD DUP1 SLOAD PUSH1 0xFF DUP2 PUSH1 0x8 SHR AND PUSH2 0x1921 JUMPI PUSH1 0xFF DUP2 AND ISZERO PUSH2 0x18DC JUMPI PUSH1 0x0 DUP5 DUP2 MSTORE PUSH1 0xB PUSH1 0x20 SWAP1 DUP2 MSTORE PUSH1 0x40 DUP1 DUP4 KECCAK256 CALLER DUP1 DUP6 MSTORE SWAP3 MSTORE DUP3 KECCAK256 DUP1 SLOAD DUP4 SWAP3 SWAP1 SWAP2 SWAP1 DUP4 JUMPDEST DUP4 DUP2 LT PUSH2 0x1863 JUMPI POP POP POP POP DUP2 PUSH2 0x1803 JUMPI JUMPDEST POP POP PUSH2 0x100 SWAP1 PUSH2 0xFF00 NOT AND OR SWAP1 SSTORE PUSH1 0x0 DUP1 DUP1 DUP1 PUSH2 0x17B8 PUSH1 0x8 DUP7 ADD SLOAD SWAP6 PUSH1 0xB DUP2 ADD PUSH2 0x179A DUP9 DUP3 SLOAD PUSH2 0x3742 JUMP JUMPDEST SWAP1 SSTORE PUSH1 0xC PUSH1 0x7 DUP3 ADD SLOAD SWAP2 ADD PUSH2 0x17B0 DUP3 DUP3 SLOAD PUSH2 0x3742 JUMP JUMPDEST SWAP1 SSTORE DUP7 PUSH2 0x3715 JUMP JUMPDEST DUP2 DUP2 ISZERO PUSH2 0x17FA JUMPI JUMPDEST CALLER SWAP1 CALL ISZERO PUSH2 0x807 JUMPI PUSH1 0x40 PUSH32 0x24B5EFA61DD1CFC659205A97FB8ED868F3CB8C81922BAB2B96423E5DE1DE2CB7 SWAP2 DUP2 MLOAD SWAP1 CALLER DUP3 MSTORE PUSH1 0x20 DUP3 ADD MSTORE LOG2 STOP JUMPDEST POP PUSH2 0x8FC PUSH2 0x17C0 JUMP JUMPDEST SWAP1 PUSH2 0x180D SWAP2 PUSH2 0x3722 JUMP JUMPDEST PUSH1 0xE DUP5 ADD SLOAD GT PUSH2 0x181E JUMPI DUP5 DUP1 PUSH2 0x176F JUMP JUMPDEST PUSH1 0x40 MLOAD PUSH3 0x461BCD PUSH1 0xE5 SHL DUP2 MSTORE PUSH1 0x20 PUSH1 0x4 DUP3 ADD MSTORE PUSH1 0x19 PUSH1 0x24 DUP3 ADD MSTORE PUSH32 0x446964206E6F7420706173732073656E61746520617564697400000000000000 PUSH1 0x44 DUP3 ADD MSTORE PUSH1 0x64 SWAP1 REVERT JUMPDEST DUP10 PUSH1 0x0 MSTORE PUSH1 0xC PUSH1 0x20 MSTORE PUSH1 0xFF PUSH1 0x40 DUP1 DUP1 PUSH1 0x0 KECCAK256 PUSH1 0x0 SWAP1 DUP7 DUP3 MSTORE PUSH1 0x20 MSTORE KECCAK256 PUSH2 0x1889 DUP5 DUP8 PUSH2 0x3391 JUMP JUMPDEST POP SLOAD PUSH1 0x1 PUSH1 0x1 PUSH1 0xA0 SHL SUB AND PUSH1 0x0 SWAP1 DUP2 MSTORE PUSH1 0x20 SWAP2 SWAP1 SWAP2 MSTORE KECCAK256 SLOAD AND PUSH2 0x18AF JUMPI JUMPDEST PUSH1 0x1 ADD PUSH2 0x175E JUMP JUMPDEST SWAP5 SWAP4 PUSH2 0x18D4 PUSH2 0x18CE PUSH1 0x1 SWAP3 DUP4 PUSH2 0x18C5 DUP11 DUP9 PUSH2 0x3391 JUMP JUMPDEST POP ADD SLOAD SWAP1 PUSH2 0x3715 JUMP JUMPDEST SWAP6 PUSH2 0x358C JUMP JUMPDEST SWAP6 SWAP1 POP PUSH2 0x18A7 JUMP JUMPDEST PUSH1 0x40 MLOAD PUSH3 0x461BCD PUSH1 0xE5 SHL DUP2 MSTORE PUSH1 0x20 PUSH1 0x4 DUP3 ADD MSTORE PUSH1 0x1E PUSH1 0x24 DUP3 ADD MSTORE PUSH32 0x5461736B206E6F7420617070726F766564206279207265766965776572730000 PUSH1 0x44 DUP3 ADD MSTORE PUSH1 0x64 SWAP1 REVERT JUMPDEST PUSH1 0x40 MLOAD PUSH3 0x461BCD PUSH1 0xE5 SHL DUP2 MSTORE PUSH1 0x20 PUSH1 0x4 DUP3 ADD MSTORE PUSH1 0xF PUSH1 0x24 DUP3 ADD MSTORE PUSH15 0x105B1C9958591E4818DB185A5B5959 PUSH1 0x8A SHL PUSH1 0x44 DUP3 ADD MSTORE PUSH1 0x64 SWAP1 REVERT JUMPDEST PUSH1 0x40 MLOAD PUSH3 0x461BCD PUSH1 0xE5 SHL DUP2 MSTORE PUSH1 0x20 PUSH1 0x4 DUP3 ADD MSTORE PUSH1 0x10 PUSH1 0x24 DUP3 ADD MSTORE PUSH16 0x139BDD081C995D9A595DD959081E595D PUSH1 0x82 SHL PUSH1 0x44 DUP3 ADD MSTORE PUSH1 0x64 SWAP1 REVERT JUMPDEST CALLVALUE PUSH2 0x1AE JUMPI PUSH2 0x199E CALLDATASIZE PUSH2 0x3522 JUMP JUMPDEST SWAP1 PUSH1 0x0 MSTORE PUSH1 0x3 PUSH1 0x20 MSTORE PUSH1 0x40 PUSH1 0x0 KECCAK256 DUP1 SLOAD DUP3 LT ISZERO PUSH2 0x1AE JUMPI PUSH1 0x20 SWAP2 PUSH2 0x1072 SWAP2 PUSH2 0x3538 JUMP JUMPDEST CALLVALUE PUSH2 0x1AE JUMPI PUSH1 0x20 CALLDATASIZE PUSH1 0x3 NOT ADD SLT PUSH2 0x1AE JUMPI PUSH1 0x4 CALLDATALOAD PUSH1 0x0 MSTORE PUSH1 0xD PUSH1 0x20 MSTORE PUSH2 0xB7D PUSH2 0xB69 PUSH1 0x40 PUSH1 0x0 KECCAK256 PUSH2 0x33FD JUMP JUMPDEST CALLVALUE PUSH2 0x1AE JUMPI PUSH2 0x19FB CALLDATASIZE PUSH2 0x34E8 JUMP JUMPDEST SWAP2 PUSH1 0x0 MSTORE PUSH1 0x5 PUSH1 0x20 MSTORE PUSH1 0x40 PUSH1 0x0 KECCAK256 SWAP1 PUSH1 0x1 DUP1 PUSH1 0xA0 SHL SUB AND PUSH1 0x0 MSTORE PUSH1 0x20 MSTORE PUSH1 0x40 PUSH1 0x0 KECCAK256 SWAP1 PUSH1 0x1 DUP1 PUSH1 0xA0 SHL SUB AND PUSH1 0x0 MSTORE PUSH1 0x20 MSTORE PUSH1 0x20 PUSH1 0xFF PUSH1 0x40 PUSH1 0x0 KECCAK256 SLOAD AND PUSH1 0x40 MLOAD SWAP1 ISZERO ISZERO DUP2 MSTORE RETURN JUMPDEST CALLVALUE PUSH2 0x1AE JUMPI PUSH1 0x40 CALLDATASIZE PUSH1 0x3 NOT ADD SLT PUSH2 0x1AE JUMPI PUSH2 0x1A5A PUSH2 0x3308 JUMP JUMPDEST PUSH1 0x4 CALLDATALOAD PUSH1 0x0 MSTORE PUSH1 0xB PUSH1 0x20 MSTORE PUSH1 0x40 PUSH1 0x0 KECCAK256 SWAP1 PUSH1 0x1 DUP1 PUSH1 0xA0 SHL SUB AND PUSH1 0x0 MSTORE PUSH1 0x20 MSTORE PUSH1 0x40 PUSH1 0x0 KECCAK256 DUP1 SLOAD SWAP1 PUSH1 0x1 PUSH1 0x1 PUSH1 0x40 SHL SUB DUP3 GT PUSH2 0x3F0 JUMPI PUSH1 0x40 MLOAD SWAP2 PUSH2 0x1AA3 PUSH1 0x20 DUP3 PUSH1 0x5 SHL ADD DUP5 PUSH2 0x3291 JUMP JUMPDEST DUP1 DUP4 MSTORE PUSH1 0x20 DUP4 ADD DUP1 SWAP3 PUSH1 0x0 MSTORE PUSH1 0x20 PUSH1 0x0 KECCAK256 PUSH1 0x0 SWAP2 JUMPDEST DUP4 DUP4 LT PUSH2 0x1B48 JUMPI DUP5 DUP7 PUSH1 0x40 MLOAD SWAP2 DUP3 SWAP2 PUSH1 0x20 DUP4 ADD SWAP1 PUSH1 0x20 DUP5 MSTORE MLOAD DUP1 SWAP2 MSTORE PUSH1 0x40 DUP4 ADD SWAP1 PUSH1 0x40 DUP2 PUSH1 0x5 SHL DUP6 ADD ADD SWAP3 SWAP2 PUSH1 0x0 SWAP1 JUMPDEST DUP3 DUP3 LT PUSH2 0x1AF7 JUMPI POP POP POP POP SUB SWAP1 RETURN JUMPDEST SWAP2 SWAP4 PUSH1 0x1 SWAP2 SWAP4 SWAP6 POP PUSH1 0x20 PUSH2 0x1B38 DUP2 SWAP3 PUSH1 0x3F NOT DUP11 DUP3 SUB ADD DUP7 MSTORE PUSH1 0x60 PUSH1 0x40 DUP11 MLOAD DUP8 DUP1 PUSH1 0xA0 SHL SUB DUP2 MLOAD AND DUP5 MSTORE DUP6 DUP2 ADD MLOAD DUP7 DUP6 ADD MSTORE ADD MLOAD SWAP2 DUP2 PUSH1 0x40 DUP3 ADD MSTORE ADD SWAP1 PUSH2 0x3350 JUMP JUMPDEST SWAP7 ADD SWAP3 ADD SWAP3 ADD DUP6 SWAP5 SWAP4 SWAP2 SWAP3 PUSH2 0x1AE8 JUMP JUMPDEST PUSH1 0x3 PUSH1 0x20 PUSH1 0x1 SWAP3 PUSH1 0x40 MLOAD PUSH2 0x1B5B DUP2 PUSH2 0x3276 JUMP JUMPDEST DUP5 DUP1 PUSH1 0xA0 SHL SUB DUP7 SLOAD AND DUP2 MSTORE DUP5 DUP7 ADD SLOAD DUP4 DUP3 ADD MSTORE PUSH2 0x1B7A PUSH1 0x2 DUP8 ADD PUSH2 0x33FD JUMP JUMPDEST PUSH1 0x40 DUP3 ADD MSTORE DUP2 MSTORE ADD SWAP3 ADD SWAP3 ADD SWAP2 SWAP1 PUSH2 0x1AB8 JUMP JUMPDEST CALLVALUE PUSH2 0x1AE JUMPI PUSH1 0x20 CALLDATASIZE PUSH1 0x3 NOT ADD SLT PUSH2 0x1AE JUMPI PUSH1 0x4 CALLDATALOAD PUSH1 0x0 MSTORE PUSH1 0xF PUSH1 0x20 MSTORE PUSH1 0x20 PUSH1 0xFF PUSH1 0x40 PUSH1 0x0 KECCAK256 SLOAD AND PUSH1 0x40 MLOAD SWAP1 ISZERO ISZERO DUP2 MSTORE RETURN JUMPDEST CALLVALUE PUSH2 0x1AE JUMPI PUSH1 0x20 CALLDATASIZE PUSH1 0x3 NOT ADD SLT PUSH2 0x1AE JUMPI PUSH1 0x4 CALLDATALOAD PUSH1 0x0 MSTORE PUSH1 0x0 PUSH1 0x20 MSTORE PUSH2 0xB7D PUSH2 0xB69 PUSH1 0x40 PUSH1 0x0 KECCAK256 PUSH2 0x33FD JUMP JUMPDEST CALLVALUE PUSH2 0x1AE JUMPI PUSH2 0x1BF8 CALLDATASIZE PUSH2 0x34E8 JUMP JUMPDEST SWAP2 PUSH1 0x0 MSTORE PUSH1 0x4 PUSH1 0x20 MSTORE PUSH1 0x40 PUSH1 0x0 KECCAK256 SWAP1 PUSH1 0x1 DUP1 PUSH1 0xA0 SHL SUB AND PUSH1 0x0 MSTORE PUSH1 0x20 MSTORE PUSH1 0x40 PUSH1 0x0 KECCAK256 SWAP1 PUSH1 0x1 DUP1 PUSH1 0xA0 SHL SUB AND PUSH1 0x0 MSTORE PUSH1 0x20 MSTORE PUSH1 0x20 PUSH1 0xFF PUSH1 0x40 PUSH1 0x0 KECCAK256 SLOAD AND PUSH1 0x40 MLOAD SWAP1 ISZERO ISZERO DUP2 MSTORE RETURN JUMPDEST CALLVALUE PUSH2 0x1AE JUMPI PUSH1 0x0 CALLDATASIZE PUSH1 0x3 NOT ADD SLT PUSH2 0x1AE JUMPI PUSH1 0x6 SLOAD PUSH1 0x40 MLOAD PUSH1 0x1 PUSH1 0x1 PUSH1 0xA0 SHL SUB SWAP1 SWAP2 AND DUP2 MSTORE PUSH1 0x20 SWAP1 RETURN JUMPDEST CALLVALUE PUSH2 0x1AE JUMPI PUSH1 0x20 CALLDATASIZE PUSH1 0x3 NOT ADD SLT PUSH2 0x1AE JUMPI PUSH1 0x4 CALLDATALOAD PUSH1 0x0 MSTORE PUSH1 0xA PUSH1 0x20 MSTORE PUSH1 0x20 PUSH1 0x40 PUSH1 0x0 KECCAK256 SLOAD PUSH1 0x40 MLOAD SWAP1 DUP2 MSTORE RETURN JUMPDEST CALLVALUE PUSH2 0x1AE JUMPI PUSH2 0x1CA1 CALLDATASIZE PUSH2 0x34A1 JUMP JUMPDEST SWAP3 SWAP1 SWAP2 PUSH2 0x1CE8 PUSH1 0x20 PUSH1 0x1 DUP1 PUSH1 0xA0 SHL SUB PUSH1 0x6 SLOAD AND DUP5 PUSH1 0x0 MSTORE PUSH1 0x8 DUP3 MSTORE PUSH1 0xFF PUSH1 0xD PUSH1 0x40 PUSH1 0x0 KECCAK256 ADD SLOAD PUSH1 0x8 SHR AND SWAP1 PUSH1 0x40 MLOAD DUP1 DUP1 SWAP6 DUP2 SWAP5 PUSH4 0xEB2F161 PUSH1 0xE4 SHL DUP4 MSTORE CALLER PUSH1 0x4 DUP5 ADD PUSH2 0x359B JUMP JUMPDEST SUB SWAP2 GAS STATICCALL SWAP1 DUP2 ISZERO PUSH2 0x807 JUMPI PUSH1 0x0 SWAP2 PUSH2 0x2132 JUMPI JUMPDEST POP ISZERO PUSH2 0x20F4 JUMPI PUSH2 0x1D0E PUSH1 0x64 DUP5 GT ISZERO PUSH2 0x36C9 JUMP JUMPDEST PUSH1 0x0 DUP3 DUP2 MSTORE PUSH1 0xC PUSH1 0x20 SWAP1 DUP2 MSTORE PUSH1 0x40 DUP1 DUP4 KECCAK256 PUSH1 0x1 PUSH1 0x1 PUSH1 0xA0 SHL SUB DUP6 AND DUP5 MSTORE DUP3 MSTORE DUP1 DUP4 KECCAK256 CALLER DUP5 MSTORE SWAP1 SWAP2 MSTORE SWAP1 KECCAK256 SLOAD PUSH1 0xFF AND PUSH2 0x20BE JUMPI DUP2 PUSH1 0x0 MSTORE PUSH1 0x9 PUSH1 0x20 MSTORE PUSH1 0x40 DUP1 PUSH1 0x0 KECCAK256 PUSH1 0x0 SWAP1 PUSH1 0x1 DUP1 PUSH1 0xA0 SHL SUB DUP5 AND DUP3 MSTORE PUSH1 0x20 MSTORE KECCAK256 SWAP3 PUSH1 0xFF PUSH1 0x4 DUP6 ADD SLOAD AND ISZERO PUSH2 0x2079 JUMPI DUP3 PUSH1 0x0 MSTORE PUSH1 0xB PUSH1 0x20 MSTORE PUSH1 0x40 DUP1 PUSH1 0x0 KECCAK256 PUSH1 0x0 SWAP1 PUSH1 0x1 DUP1 PUSH1 0xA0 SHL SUB DUP6 AND DUP3 MSTORE PUSH1 0x20 MSTORE KECCAK256 PUSH1 0x40 MLOAD SWAP1 PUSH2 0x1D9D DUP3 PUSH2 0x3276 JUMP JUMPDEST CALLER DUP3 MSTORE PUSH1 0x20 DUP3 ADD SWAP1 DUP4 DUP3 MSTORE PUSH1 0x40 DUP4 ADD SWAP8 DUP9 MSTORE DUP1 SLOAD PUSH1 0x1 PUSH1 0x40 SHL DUP2 LT ISZERO PUSH2 0x3F0 JUMPI PUSH2 0x1DCC SWAP2 PUSH1 0x1 DUP3 ADD DUP2 SSTORE PUSH2 0x3391 JUMP JUMPDEST SWAP2 SWAP1 SWAP2 PUSH2 0x2063 JUMPI SWAP2 MLOAD DUP2 SLOAD PUSH1 0x1 PUSH1 0x1 PUSH1 0xA0 SHL SUB NOT AND PUSH1 0x1 PUSH1 0x1 PUSH1 0xA0 SHL SUB SWAP2 SWAP1 SWAP2 AND OR DUP2 SSTORE SWAP1 MLOAD PUSH1 0x1 DUP3 ADD SSTORE SWAP5 MLOAD DUP1 MLOAD SWAP1 SWAP6 PUSH1 0x2 ADD SWAP1 PUSH1 0x1 PUSH1 0x1 PUSH1 0x40 SHL SUB DUP2 GT PUSH2 0x3F0 JUMPI PUSH2 0x1E19 DUP3 SLOAD PUSH2 0x33C3 JUMP JUMPDEST PUSH1 0x1F DUP2 GT PUSH2 0x201B JUMPI JUMPDEST POP PUSH1 0x20 PUSH1 0x1F DUP3 GT PUSH1 0x1 EQ PUSH2 0x1FB1 JUMPI DUP2 SWAP1 PUSH1 0x40 SWAP7 SWAP8 SWAP9 PUSH1 0x0 SWAP3 PUSH2 0x1FA6 JUMPI JUMPDEST POP POP DUP2 PUSH1 0x1 SHL SWAP2 PUSH1 0x0 NOT SWAP1 PUSH1 0x3 SHL SHR NOT AND OR SWAP1 SSTORE JUMPDEST PUSH1 0x0 DUP5 DUP2 MSTORE PUSH1 0xC PUSH1 0x20 SWAP1 DUP2 MSTORE DUP5 DUP3 KECCAK256 PUSH1 0x1 PUSH1 0x1 PUSH1 0xA0 SHL SUB DUP6 AND DUP1 DUP5 MSTORE SWAP1 DUP3 MSTORE DUP6 DUP4 KECCAK256 CALLER DUP1 DUP6 MSTORE SWAP1 DUP4 MSTORE SWAP3 DUP7 SWAP1 KECCAK256 DUP1 SLOAD PUSH1 0xFF NOT AND PUSH1 0x1 OR SWAP1 SSTORE DUP6 MLOAD SWAP4 DUP5 MSTORE SWAP2 SWAP3 DUP7 SWAP2 PUSH32 0x378F514D49E4ABB7486BEE29952AF6519DE11CB70A74CD68479F52457B0518F7 SWAP2 LOG4 DUP3 PUSH1 0x0 MSTORE PUSH1 0xB PUSH1 0x20 MSTORE DUP2 PUSH1 0x0 KECCAK256 PUSH1 0x0 SWAP2 PUSH1 0x1 DUP1 PUSH1 0xA0 SHL SUB AND DUP3 MSTORE PUSH1 0x20 MSTORE KECCAK256 DUP1 SLOAD SWAP2 PUSH1 0x0 SWAP1 PUSH1 0x0 SWAP3 PUSH1 0x0 SWAP2 JUMPDEST DUP6 DUP4 LT PUSH2 0x1F4C JUMPI POP POP POP PUSH1 0x3 DUP4 LT ISZERO DUP1 SWAP2 DUP2 SWAP3 PUSH2 0x1F3F JUMPI JUMPDEST POP ISZERO PUSH2 0x1F22 JUMPI POP PUSH1 0x1 SWAP3 SWAP2 PUSH2 0x1F0F SWAP2 PUSH2 0x3722 JUMP JUMPDEST PUSH1 0x3 DUP3 ADD SSTORE ADD DUP1 SLOAD PUSH1 0xFF NOT AND PUSH1 0x1 OR SWAP1 SSTORE STOP JUMPDEST SWAP2 POP POP PUSH2 0x1F2B JUMPI STOP JUMPDEST PUSH1 0x0 PUSH1 0x3 DUP3 ADD SSTORE PUSH1 0x1 ADD DUP1 SLOAD PUSH1 0xFF NOT AND SWAP1 SSTORE STOP JUMPDEST SWAP1 POP DUP4 PUSH1 0x1 SHR LT DUP6 PUSH2 0x1EFB JUMP JUMPDEST SWAP1 SWAP2 SWAP4 PUSH2 0x1F5F SWAP1 PUSH1 0x1 PUSH2 0x18C5 DUP8 DUP7 PUSH2 0x3391 JUMP JUMPDEST SWAP4 PUSH1 0x1 PUSH2 0x1F6C DUP3 DUP6 PUSH2 0x3391 JUMP JUMPDEST POP ADD SLOAD DUP3 PUSH1 0x0 MSTORE PUSH1 0x8 PUSH1 0x20 MSTORE PUSH1 0xE PUSH1 0x40 PUSH1 0x0 KECCAK256 ADD SLOAD GT ISZERO PUSH2 0x1F92 JUMPI JUMPDEST PUSH1 0x1 ADD SWAP2 SWAP1 PUSH2 0x1EE3 JUMP JUMPDEST SWAP3 PUSH2 0x1F9E PUSH1 0x1 SWAP2 PUSH2 0x358C JUMP JUMPDEST SWAP4 SWAP1 POP PUSH2 0x1F88 JUMP JUMPDEST ADD MLOAD SWAP1 POP DUP9 DUP1 PUSH2 0x1E3F JUMP JUMPDEST PUSH1 0x1F NOT DUP3 AND SWAP8 DUP4 PUSH1 0x0 MSTORE DUP2 PUSH1 0x0 KECCAK256 SWAP9 PUSH1 0x0 JUMPDEST DUP2 DUP2 LT PUSH2 0x2003 JUMPI POP SWAP2 PUSH1 0x40 SWAP8 SWAP9 SWAP10 SWAP2 DUP5 PUSH1 0x1 SWAP6 SWAP5 LT PUSH2 0x1FEA JUMPI JUMPDEST POP POP POP DUP2 SHL ADD SWAP1 SSTORE PUSH2 0x1E54 JUMP JUMPDEST ADD MLOAD PUSH1 0x0 NOT PUSH1 0xF8 DUP5 PUSH1 0x3 SHL AND SHR NOT AND SWAP1 SSTORE DUP9 DUP1 DUP1 PUSH2 0x1FDD JUMP JUMPDEST DUP4 DUP4 ADD MLOAD DUP12 SSTORE PUSH1 0x1 SWAP1 SWAP11 ADD SWAP10 PUSH1 0x20 SWAP4 DUP5 ADD SWAP4 ADD PUSH2 0x1FC3 JUMP JUMPDEST DUP3 PUSH1 0x0 MSTORE PUSH1 0x20 PUSH1 0x0 KECCAK256 PUSH1 0x1F DUP4 ADD PUSH1 0x5 SHR DUP2 ADD SWAP2 PUSH1 0x20 DUP5 LT PUSH2 0x2059 JUMPI JUMPDEST PUSH1 0x1F ADD PUSH1 0x5 SHR ADD SWAP1 JUMPDEST DUP2 DUP2 LT PUSH2 0x204D JUMPI POP PUSH2 0x1E22 JUMP JUMPDEST PUSH1 0x0 DUP2 SSTORE PUSH1 0x1 ADD PUSH2 0x2040 JUMP JUMPDEST SWAP1 SWAP2 POP DUP2 SWAP1 PUSH2 0x2037 JUMP JUMPDEST PUSH4 0x4E487B71 PUSH1 0xE0 SHL PUSH1 0x0 MSTORE PUSH1 0x0 PUSH1 0x4 MSTORE PUSH1 0x24 PUSH1 0x0 REVERT JUMPDEST PUSH1 0x40 MLOAD PUSH3 0x461BCD PUSH1 0xE5 SHL DUP2 MSTORE PUSH1 0x20 PUSH1 0x4 DUP3 ADD MSTORE PUSH1 0x1D PUSH1 0x24 DUP3 ADD MSTORE PUSH32 0x4E6F742072657669657765642062792072657669657765727320796574000000 PUSH1 0x44 DUP3 ADD MSTORE PUSH1 0x64 SWAP1 REVERT JUMPDEST PUSH1 0x40 MLOAD PUSH3 0x461BCD PUSH1 0xE5 SHL DUP2 MSTORE PUSH1 0x20 PUSH1 0x4 DUP3 ADD MSTORE PUSH1 0xE PUSH1 0x24 DUP3 ADD MSTORE PUSH14 0x105B1C9958591E481CD8DBDC9959 PUSH1 0x92 SHL PUSH1 0x44 DUP3 ADD MSTORE PUSH1 0x64 SWAP1 REVERT JUMPDEST PUSH1 0x40 MLOAD PUSH3 0x461BCD PUSH1 0xE5 SHL DUP2 MSTORE PUSH1 0x20 PUSH1 0x4 DUP3 ADD MSTORE PUSH1 0x16 PUSH1 0x24 DUP3 ADD MSTORE PUSH22 0x2737BA1030BABA3437B934BD32B21039B2B730BA37B9 PUSH1 0x51 SHL PUSH1 0x44 DUP3 ADD MSTORE PUSH1 0x64 SWAP1 REVERT JUMPDEST PUSH2 0x214B SWAP2 POP PUSH1 0x20 RETURNDATASIZE PUSH1 0x20 GT PUSH2 0x800 JUMPI PUSH2 0x7F2 DUP2 DUP4 PUSH2 0x3291 JUMP JUMPDEST DUP6 PUSH2 0x1CFB JUMP JUMPDEST CALLVALUE PUSH2 0x1AE JUMPI PUSH1 0x60 CALLDATASIZE PUSH1 0x3 NOT ADD SLT PUSH2 0x1AE JUMPI PUSH2 0x216A PUSH2 0x3308 JUMP JUMPDEST PUSH1 0x44 CALLDATALOAD SWAP1 PUSH1 0x4 CALLDATALOAD PUSH1 0x0 MSTORE PUSH1 0xB PUSH1 0x20 MSTORE PUSH1 0x40 PUSH1 0x0 KECCAK256 SWAP1 PUSH1 0x1 DUP1 PUSH1 0xA0 SHL SUB AND PUSH1 0x0 MSTORE PUSH1 0x20 MSTORE PUSH1 0x40 PUSH1 0x0 KECCAK256 SWAP1 DUP2 SLOAD DUP2 LT ISZERO PUSH2 0x1AE JUMPI PUSH2 0x21A5 SWAP2 PUSH2 0x3391 JUMP JUMPDEST POP PUSH1 0x1 DUP1 PUSH1 0xA0 SHL SUB DUP2 SLOAD AND PUSH2 0xB7D PUSH2 0x21C4 PUSH1 0x2 PUSH1 0x1 DUP6 ADD SLOAD SWAP5 ADD PUSH2 0x33FD JUMP JUMPDEST PUSH1 0x40 MLOAD SWAP4 DUP5 SWAP4 DUP5 MSTORE PUSH1 0x20 DUP5 ADD MSTORE PUSH1 0x60 PUSH1 0x40 DUP5 ADD MSTORE PUSH1 0x60 DUP4 ADD SWAP1 PUSH2 0x3350 JUMP JUMPDEST CALLVALUE PUSH2 0x1AE JUMPI PUSH1 0x20 CALLDATASIZE PUSH1 0x3 NOT ADD SLT PUSH2 0x1AE JUMPI PUSH1 0x4 CALLDATALOAD PUSH1 0x7 DUP2 LT ISZERO PUSH2 0x1AE JUMPI PUSH1 0xFF PUSH2 0x220A DUP3 PUSH2 0x3550 JUMP JUMPDEST SLOAD AND ISZERO PUSH2 0x2229 JUMPI PUSH1 0x0 MSTORE PUSH1 0x0 PUSH1 0x20 MSTORE PUSH2 0xB7D PUSH2 0xB69 PUSH1 0x40 PUSH1 0x0 KECCAK256 PUSH2 0x33FD JUMP JUMPDEST PUSH1 0x40 MLOAD PUSH3 0x461BCD PUSH1 0xE5 SHL DUP2 MSTORE PUSH1 0x20 PUSH1 0x4 DUP3 ADD MSTORE PUSH1 0x17 PUSH1 0x24 DUP3 ADD MSTORE PUSH32 0x43617465676F727920646F6573206E6F74206578697374000000000000000000 PUSH1 0x44 DUP3 ADD MSTORE PUSH1 0x64 SWAP1 REVERT JUMPDEST CALLVALUE PUSH2 0x1AE JUMPI PUSH1 0x40 CALLDATASIZE PUSH1 0x3 NOT ADD SLT PUSH2 0x1AE JUMPI PUSH1 0x4 CALLDATALOAD PUSH1 0x24 CALLDATALOAD DUP1 ISZERO ISZERO DUP1 DUP3 SUB PUSH2 0x1AE JUMPI DUP3 PUSH1 0x0 MSTORE PUSH1 0x8 PUSH1 0x20 MSTORE PUSH2 0x2322 PUSH1 0x40 PUSH1 0x0 KECCAK256 SWAP3 DUP5 PUSH1 0x0 MSTORE PUSH1 0x9 PUSH1 0x20 MSTORE PUSH1 0x40 PUSH1 0x0 KECCAK256 PUSH1 0x1 DUP1 PUSH1 0xA0 SHL SUB CALLER AND PUSH1 0x0 MSTORE PUSH1 0x20 MSTORE PUSH1 0x4 PUSH1 0xD PUSH1 0x40 PUSH1 0x0 KECCAK256 SWAP6 ADD SWAP5 PUSH2 0x22D8 PUSH1 0xFF DUP8 SLOAD AND ISZERO PUSH2 0x3638 JUMP JUMPDEST PUSH2 0x22E4 DUP2 SLOAD ISZERO ISZERO PUSH2 0x35FD JUMP JUMPDEST ADD PUSH3 0x10000 DUP2 SLOAD PUSH2 0x22FB PUSH1 0xFF DUP3 PUSH1 0x10 SHR AND ISZERO PUSH2 0x3675 JUMP JUMPDEST PUSH4 0xFF000000 NOT SWAP1 SWAP2 AND PUSH4 0xFFFF0000 NOT SWAP1 SWAP2 AND OR SWAP2 ISZERO ISZERO PUSH1 0x18 SHL PUSH4 0xFF000000 AND SWAP2 SWAP1 SWAP2 OR SWAP1 SSTORE JUMP JUMPDEST PUSH1 0x40 MLOAD SWAP1 DUP2 MSTORE DUP3 PUSH32 0xA953B79A8BDA2946B1E815D9E09876DF8D499A7D04ACE4ECCEC405AE4A96CF08 PUSH1 0x20 CALLER SWAP4 LOG3 PUSH1 0x0 DUP1 DUP1 JUMPDEST DUP5 PUSH1 0x0 MSTORE PUSH1 0xA PUSH1 0x20 MSTORE PUSH1 0x40 PUSH1 0x0 KECCAK256 SLOAD DUP2 LT ISZERO PUSH2 0x23F7 JUMPI DUP5 PUSH1 0x0 MSTORE PUSH1 0x9 PUSH1 0x20 MSTORE PUSH1 0x4 PUSH1 0x40 DUP1 PUSH1 0x0 KECCAK256 DUP8 PUSH1 0x0 MSTORE PUSH1 0xA PUSH1 0x20 MSTORE PUSH2 0x2391 DUP5 DUP4 PUSH1 0x0 KECCAK256 PUSH2 0x3538 JUMP JUMPDEST SWAP1 SLOAD PUSH1 0x3 SWAP2 SWAP1 SWAP2 SHL SHR PUSH1 0x1 PUSH1 0x1 PUSH1 0xA0 SHL SUB AND PUSH1 0x0 SWAP1 DUP2 MSTORE PUSH1 0x20 SWAP2 SWAP1 SWAP2 MSTORE KECCAK256 ADD SLOAD PUSH1 0x10 DUP2 SWAP1 SHR PUSH1 0xFF AND PUSH2 0x23C7 JUMPI JUMPDEST POP PUSH1 0x1 ADD PUSH2 0x2354 JUMP JUMPDEST SWAP2 PUSH2 0x23D3 PUSH1 0xFF SWAP2 PUSH2 0x358C JUMP JUMPDEST SWAP3 PUSH1 0x18 SHR AND PUSH2 0x23E3 JUMPI JUMPDEST DUP6 PUSH2 0x23BE JUMP JUMPDEST SWAP2 PUSH2 0x23EF PUSH1 0x1 SWAP2 PUSH2 0x358C JUMP JUMPDEST SWAP3 SWAP1 POP PUSH2 0x23DD JUMP JUMPDEST POP DUP1 ISZERO SWAP2 DUP3 ISZERO SWAP3 DUP4 PUSH2 0x2448 JUMPI JUMPDEST POP POP POP PUSH2 0x240D JUMPI STOP JUMPDEST DUP1 SLOAD PUSH1 0xFF NOT AND PUSH1 0x1 OR SWAP1 SSTORE PUSH2 0x2421 DUP2 PUSH2 0x3790 JUMP JUMPDEST PUSH32 0xE68F10F94CA2685D65A39A1841C1E1E00E8DF8B2FA15DD0562E32C33AF49FE17 PUSH1 0x0 DUP1 LOG2 STOP JUMPDEST SWAP1 SWAP2 SWAP3 POP PUSH1 0x3 DUP3 MUL SWAP2 DUP1 DUP4 DIV PUSH1 0x3 EQ SWAP1 ISZERO OR ISZERO PUSH2 0x2479 JUMPI DUP3 PUSH1 0x1 SHL SWAP3 DUP4 DIV PUSH1 0x2 EQ OR ISZERO PUSH2 0x2479 JUMPI LT ISZERO DUP4 DUP1 DUP1 PUSH2 0x2404 JUMP JUMPDEST PUSH4 0x4E487B71 PUSH1 0xE0 SHL PUSH1 0x0 MSTORE PUSH1 0x11 PUSH1 0x4 MSTORE PUSH1 0x24 PUSH1 0x0 REVERT JUMPDEST CALLVALUE PUSH2 0x1AE JUMPI PUSH1 0x20 CALLDATASIZE PUSH1 0x3 NOT ADD SLT PUSH2 0x1AE JUMPI PUSH1 0x4 CALLDATALOAD PUSH1 0x0 DUP2 DUP2 MSTORE PUSH1 0x8 PUSH1 0x20 MSTORE PUSH1 0x40 SWAP1 KECCAK256 PUSH1 0x3 DUP2 ADD SLOAD PUSH1 0x1 PUSH1 0x1 PUSH1 0xA0 SHL SUB AND CALLER SUB PUSH2 0x26B3 JUMPI DUP1 PUSH2 0x24D9 PUSH1 0xFF PUSH1 0xD PUSH1 0x5 SWAP5 ADD SLOAD AND ISZERO PUSH2 0x3638 JUMP JUMPDEST ADD SLOAD TIMESTAMP LT PUSH2 0x267A JUMPI PUSH1 0x40 MLOAD PUSH1 0x1 DUP2 MSTORE DUP2 PUSH32 0xA953B79A8BDA2946B1E815D9E09876DF8D499A7D04ACE4ECCEC405AE4A96CF08 PUSH1 0x20 CALLER SWAP4 LOG3 PUSH1 0x0 DUP2 DUP2 MSTORE PUSH1 0x9 PUSH1 0x20 SWAP1 DUP2 MSTORE PUSH1 0x40 DUP1 DUP4 KECCAK256 CALLER DUP1 DUP6 MSTORE DUP2 DUP5 MSTORE DUP3 DUP6 KECCAK256 PUSH1 0x4 DUP1 DUP3 ADD DUP1 SLOAD PUSH4 0xFFFF0000 NOT AND PUSH4 0x1010000 OR SWAP1 SSTORE DUP8 DUP8 MSTORE PUSH1 0x8 DUP7 MSTORE SWAP4 DUP7 KECCAK256 SWAP2 SWAP1 SWAP6 MSTORE SWAP3 MSTORE PUSH1 0xD SWAP1 SWAP2 ADD DUP1 SLOAD SWAP1 SWAP3 SWAP1 PUSH2 0x2567 SWAP1 PUSH1 0xFF AND ISZERO PUSH2 0x3638 JUMP JUMPDEST PUSH2 0x2573 DUP2 SLOAD ISZERO ISZERO PUSH2 0x35FD JUMP JUMPDEST ADD PUSH3 0x10000 DUP2 SLOAD PUSH2 0x258A PUSH1 0xFF DUP3 PUSH1 0x10 SHR AND ISZERO PUSH2 0x3675 JUMP JUMPDEST PUSH3 0xFF0000 NOT AND OR DUP2 SSTORE PUSH4 0x1000000 PUSH4 0xFF000000 NOT DUP3 SLOAD AND OR SWAP1 SSTORE PUSH1 0x40 MLOAD PUSH1 0x1 DUP2 MSTORE DUP3 PUSH32 0xA953B79A8BDA2946B1E815D9E09876DF8D499A7D04ACE4ECCEC405AE4A96CF08 PUSH1 0x20 CALLER SWAP4 LOG3 PUSH1 0x0 DUP1 DUP1 JUMPDEST DUP5 PUSH1 0x0 MSTORE PUSH1 0xA PUSH1 0x20 MSTORE PUSH1 0x40 PUSH1 0x0 KECCAK256 SLOAD DUP2 LT ISZERO PUSH2 0x23F7 JUMPI DUP5 PUSH1 0x0 MSTORE PUSH1 0x9 PUSH1 0x20 MSTORE PUSH1 0x4 PUSH1 0x40 DUP1 PUSH1 0x0 KECCAK256 DUP8 PUSH1 0x0 MSTORE PUSH1 0xA PUSH1 0x20 MSTORE PUSH2 0x2614 DUP5 DUP4 PUSH1 0x0 KECCAK256 PUSH2 0x3538 JUMP JUMPDEST SWAP1 SLOAD PUSH1 0x3 SWAP2 SWAP1 SWAP2 SHL SHR PUSH1 0x1 PUSH1 0x1 PUSH1 0xA0 SHL SUB AND PUSH1 0x0 SWAP1 DUP2 MSTORE PUSH1 0x20 SWAP2 SWAP1 SWAP2 MSTORE KECCAK256 ADD SLOAD PUSH1 0x10 DUP2 SWAP1 SHR PUSH1 0xFF AND PUSH2 0x264A JUMPI JUMPDEST POP PUSH1 0x1 ADD PUSH2 0x25D7 JUMP JUMPDEST SWAP2 PUSH2 0x2656 PUSH1 0xFF SWAP2 PUSH2 0x358C JUMP JUMPDEST SWAP3 PUSH1 0x18 SHR AND PUSH2 0x2666 JUMPI JUMPDEST DUP6 PUSH2 0x2641 JUMP JUMPDEST SWAP2 PUSH2 0x2672 PUSH1 0x1 SWAP2 PUSH2 0x358C JUMP JUMPDEST SWAP3 SWAP1 POP PUSH2 0x2660 JUMP JUMPDEST PUSH1 0x40 MLOAD PUSH3 0x461BCD PUSH1 0xE5 SHL DUP2 MSTORE PUSH1 0x20 PUSH1 0x4 DUP3 ADD MSTORE PUSH1 0x11 PUSH1 0x24 DUP3 ADD MSTORE PUSH17 0x436F6D6D756E697479206F6E676F696E67 PUSH1 0x78 SHL PUSH1 0x44 DUP3 ADD MSTORE PUSH1 0x64 SWAP1 REVERT JUMPDEST PUSH1 0x40 MLOAD PUSH3 0x461BCD PUSH1 0xE5 SHL DUP2 MSTORE PUSH1 0x20 PUSH1 0x4 DUP3 ADD MSTORE PUSH1 0x18 PUSH1 0x24 DUP3 ADD MSTORE PUSH32 0x4F6E6C792063726561746F722063616E2070726F706F73650000000000000000 PUSH1 0x44 DUP3 ADD MSTORE PUSH1 0x64 SWAP1 REVERT JUMPDEST CALLVALUE PUSH2 0x1AE JUMPI PUSH2 0x2706 CALLDATASIZE PUSH2 0x331E JUMP JUMPDEST PUSH1 0x0 DUP3 DUP2 MSTORE PUSH1 0x8 PUSH1 0x20 SWAP1 DUP2 MSTORE PUSH1 0x40 DUP1 DUP4 KECCAK256 PUSH1 0x9 DUP4 MSTORE DUP2 DUP5 KECCAK256 CALLER DUP6 MSTORE SWAP1 SWAP3 MSTORE SWAP1 SWAP2 KECCAK256 PUSH1 0xD SWAP1 SWAP2 ADD SLOAD SWAP2 SWAP3 SWAP2 PUSH2 0x273D SWAP1 PUSH1 0xFF AND ISZERO PUSH2 0x35BB JUMP JUMPDEST PUSH2 0x2749 DUP2 SLOAD ISZERO ISZERO PUSH2 0x35FD JUMP JUMPDEST PUSH1 0xFF PUSH1 0x4 DUP3 ADD SLOAD AND PUSH2 0x2968 JUMPI DUP3 MLOAD ISZERO PUSH2 0x292C JUMPI DUP2 PUSH1 0x0 MSTORE PUSH1 0xF PUSH1 0x20 MSTORE PUSH1 0xFF PUSH1 0x40 PUSH1 0x0 KECCAK256 SLOAD AND ISZERO PUSH2 0x28E7 JUMPI PUSH1 0x2 ADD SWAP2 DUP1 MLOAD SWAP3 PUSH1 0x1 PUSH1 0x1 PUSH1 0x40 SHL SUB DUP5 GT PUSH2 0x3F0 JUMPI PUSH2 0x2792 DUP2 SLOAD PUSH2 0x33C3 JUMP JUMPDEST PUSH1 0x1F DUP2 GT PUSH2 0x289F JUMPI JUMPDEST POP PUSH1 0x20 SWAP4 PUSH1 0x1F DUP2 GT PUSH1 0x1 EQ PUSH2 0x2815 JUMPI SWAP1 DUP2 PUSH2 0x30E SWAP4 SWAP3 PUSH32 0xBF478FDA32150EFBEA16148DF9D2DC95245FE55FE761F2BD87B66CE55637B2AF SWAP6 SWAP7 PUSH1 0x0 SWAP2 PUSH2 0x280A JUMPI JUMPDEST POP DUP2 PUSH1 0x1 SHL SWAP2 PUSH1 0x0 NOT SWAP1 PUSH1 0x3 SHL SHR NOT AND OR SWAP1 SSTORE JUMPDEST PUSH1 0x40 MLOAD SWAP2 DUP3 SWAP2 CALLER DUP4 MSTORE PUSH1 0x40 PUSH1 0x20 DUP5 ADD MSTORE PUSH1 0x40 DUP4 ADD SWAP1 PUSH2 0x3350 JUMP JUMPDEST SWAP1 POP DUP4 ADD MLOAD DUP8 PUSH2 0x27DC JUMP JUMPDEST PUSH1 0x1F NOT DUP2 AND DUP3 PUSH1 0x0 MSTORE DUP6 PUSH1 0x0 KECCAK256 SWAP1 PUSH1 0x0 JUMPDEST DUP2 DUP2 LT PUSH2 0x2887 JUMPI POP SWAP2 PUSH1 0x1 SWAP2 PUSH32 0xBF478FDA32150EFBEA16148DF9D2DC95245FE55FE761F2BD87B66CE55637B2AF SWAP7 SWAP8 DUP3 PUSH2 0x30E SWAP8 SWAP7 SWAP6 LT PUSH2 0x286E JUMPI JUMPDEST POP POP DUP2 SHL ADD SWAP1 SSTORE PUSH2 0x27F0 JUMP JUMPDEST DUP6 ADD MLOAD PUSH1 0x0 NOT PUSH1 0xF8 DUP5 PUSH1 0x3 SHL AND SHR NOT AND SWAP1 SSTORE DUP8 DUP1 PUSH2 0x2862 JUMP JUMPDEST DUP6 DUP9 ADD MLOAD DUP4 SSTORE PUSH1 0x20 SWAP8 DUP9 ADD SWAP8 PUSH1 0x1 SWAP1 SWAP4 ADD SWAP3 ADD PUSH2 0x2826 JUMP JUMPDEST DUP2 PUSH1 0x0 MSTORE PUSH1 0x20 PUSH1 0x0 KECCAK256 PUSH1 0x1F DUP7 ADD PUSH1 0x5 SHR DUP2 ADD SWAP2 PUSH1 0x20 DUP8 LT PUSH2 0x28DD JUMPI JUMPDEST PUSH1 0x1F ADD PUSH1 0x5 SHR ADD SWAP1 JUMPDEST DUP2 DUP2 LT PUSH2 0x28D1 JUMPI POP PUSH2 0x279B JUMP JUMPDEST PUSH1 0x0 DUP2 SSTORE PUSH1 0x1 ADD PUSH2 0x28C4 JUMP JUMPDEST SWAP1 SWAP2 POP DUP2 SWAP1 PUSH2 0x28BB JUMP JUMPDEST PUSH1 0x40 MLOAD PUSH3 0x461BCD PUSH1 0xE5 SHL DUP2 MSTORE PUSH1 0x20 PUSH1 0x4 DUP3 ADD MSTORE PUSH1 0x1C PUSH1 0x24 DUP3 ADD MSTORE PUSH32 0x436F6D6D756E697479206B657973206E6F742067656E65726174656400000000 PUSH1 0x44 DUP3 ADD MSTORE PUSH1 0x64 SWAP1 REVERT JUMPDEST PUSH1 0x40 MLOAD PUSH3 0x461BCD PUSH1 0xE5 SHL DUP2 MSTORE PUSH1 0x20 PUSH1 0x4 DUP3 ADD MSTORE PUSH1 0x14 PUSH1 0x24 DUP3 ADD MSTORE PUSH20 0x115B5C1D1E481CDD589B5A5CDCDA5BDB88155493 PUSH1 0x62 SHL PUSH1 0x44 DUP3 ADD MSTORE PUSH1 0x64 SWAP1 REVERT JUMPDEST PUSH1 0x40 MLOAD PUSH3 0x461BCD PUSH1 0xE5 SHL DUP2 MSTORE PUSH1 0x20 PUSH1 0x4 DUP3 ADD MSTORE PUSH1 0x11 PUSH1 0x24 DUP3 ADD MSTORE PUSH17 0x105B1C9958591E481CDD589B5A5D1D1959 PUSH1 0x7A SHL PUSH1 0x44 DUP3 ADD MSTORE PUSH1 0x64 SWAP1 REVERT JUMPDEST CALLVALUE PUSH2 0x1AE JUMPI PUSH1 0x0 CALLDATASIZE PUSH1 0x3 NOT ADD SLT PUSH2 0x1AE JUMPI PUSH1 0x2 SLOAD PUSH1 0x40 MLOAD PUSH1 0x1 PUSH1 0x1 PUSH1 0xA0 SHL SUB SWAP1 SWAP2 AND DUP2 MSTORE PUSH1 0x20 SWAP1 RETURN JUMPDEST CALLVALUE PUSH2 0x1AE JUMPI PUSH1 0x40 CALLDATASIZE PUSH1 0x3 NOT ADD SLT PUSH2 0x1AE JUMPI PUSH2 0x29E3 PUSH2 0x3308 JUMP JUMPDEST PUSH1 0x4 CALLDATALOAD PUSH1 0x0 MSTORE PUSH1 0x9 PUSH1 0x20 MSTORE PUSH1 0x40 PUSH1 0x0 KECCAK256 SWAP1 PUSH1 0x1 DUP1 PUSH1 0xA0 SHL SUB AND PUSH1 0x0 MSTORE PUSH1 0x20 MSTORE PUSH1 0x40 DUP1 PUSH1 0x0 KECCAK256 PUSH1 0xFF PUSH1 0x1 DUP2 PUSH1 0x4 DUP5 ADD SLOAD AND SWAP3 ADD SLOAD AND DUP3 MLOAD SWAP2 ISZERO ISZERO DUP3 MSTORE ISZERO ISZERO PUSH1 0x20 DUP3 ADD MSTORE RETURN JUMPDEST PUSH2 0x120 CALLDATASIZE PUSH1 0x3 NOT ADD SLT PUSH2 0x1AE JUMPI PUSH1 0x4 CALLDATALOAD PUSH1 0x1 PUSH1 0x1 PUSH1 0x40 SHL SUB DUP2 GT PUSH2 0x1AE JUMPI PUSH2 0x2A53 SWAP1 CALLDATASIZE SWAP1 PUSH1 0x4 ADD PUSH2 0x32B2 JUMP JUMPDEST PUSH1 0x24 CALLDATALOAD PUSH1 0x1 PUSH1 0x1 PUSH1 0x40 SHL SUB DUP2 GT PUSH2 0x1AE JUMPI PUSH2 0x2A72 SWAP1 CALLDATASIZE SWAP1 PUSH1 0x4 ADD PUSH2 0x32B2 JUMP JUMPDEST PUSH1 0x44 CALLDATALOAD PUSH1 0x1 PUSH1 0x1 PUSH1 0x40 SHL SUB DUP2 GT PUSH2 0x1AE JUMPI PUSH2 0x2A91 SWAP1 CALLDATASIZE SWAP1 PUSH1 0x4 ADD PUSH2 0x32B2 JUMP JUMPDEST SWAP2 PUSH1 0x64 CALLDATALOAD SWAP3 PUSH1 0x84 CALLDATALOAD SWAP1 PUSH1 0xA4 CALLDATALOAD PUSH1 0xC4 CALLDATALOAD SWAP2 PUSH1 0xE4 CALLDATALOAD SWAP4 PUSH1 0x7 PUSH2 0x104 CALLDATALOAD LT ISZERO PUSH2 0x1AE JUMPI TIMESTAMP DUP9 GT ISZERO PUSH2 0x3209 JUMPI DUP8 DUP2 GT ISZERO PUSH2 0x31BA JUMPI DUP3 ISZERO PUSH2 0x3175 JUMPI DUP4 ISZERO PUSH2 0x3125 JUMPI DUP5 ISZERO PUSH2 0x30E0 JUMPI DUP5 DUP5 MUL DUP5 DUP2 DIV DUP7 SUB PUSH2 0x2479 JUMPI CALLVALUE LT PUSH2 0x309B JUMPI PUSH1 0x24 SWAP8 PUSH1 0x7 SLOAD SWAP8 PUSH2 0x2AF5 DUP10 PUSH2 0x358C JUMP JUMPDEST PUSH1 0x7 SSTORE PUSH1 0x6 SLOAD PUSH1 0x40 MLOAD PUSH4 0x1CE87EBB PUSH1 0xE0 SHL DUP2 MSTORE SWAP11 PUSH1 0x20 SWAP2 DUP13 SWAP2 SWAP1 DUP3 SWAP1 PUSH1 0x1 PUSH1 0x1 PUSH1 0xA0 SHL SUB AND PUSH2 0x2B2A PUSH1 0x4 DUP4 ADD PUSH2 0x104 CALLDATALOAD PUSH2 0x357F JUMP JUMPDEST GAS STATICCALL SWAP10 DUP11 ISZERO PUSH2 0x807 JUMPI PUSH1 0x0 SWAP11 PUSH2 0x3067 JUMPI JUMPDEST POP PUSH1 0x40 MLOAD SWAP8 PUSH2 0x200 DUP10 ADD DUP10 DUP2 LT PUSH1 0x1 PUSH1 0x1 PUSH1 0x40 SHL SUB DUP3 GT OR PUSH2 0x3F0 JUMPI PUSH1 0x40 MSTORE DUP10 DUP10 MSTORE PUSH1 0x20 DUP10 ADD MSTORE PUSH1 0x40 DUP9 ADD MSTORE CALLER PUSH1 0x60 DUP9 ADD MSTORE PUSH1 0x80 DUP8 ADD MSTORE PUSH1 0xA0 DUP7 ADD MSTORE PUSH1 0xC0 DUP6 ADD MSTORE PUSH1 0xE0 DUP5 ADD MSTORE PUSH2 0x100 DUP4 ADD MSTORE PUSH2 0x120 DUP3 ADD MSTORE PUSH1 0x0 PUSH2 0x140 DUP3 ADD MSTORE CALLVALUE PUSH2 0x160 DUP3 ADD MSTORE PUSH1 0x0 PUSH2 0x180 DUP3 ADD MSTORE PUSH1 0x0 PUSH2 0x1A0 DUP3 ADD MSTORE PUSH1 0x0 SWAP3 PUSH2 0x104 CALLDATALOAD PUSH2 0x1C0 DUP4 ADD MSTORE PUSH2 0x1E0 DUP3 ADD MSTORE DUP2 DUP4 MSTORE PUSH1 0x8 PUSH1 0x20 MSTORE PUSH1 0x40 DUP4 KECCAK256 SWAP1 DUP1 MLOAD DUP3 SSTORE PUSH1 0x20 DUP2 ADD MLOAD DUP1 MLOAD SWAP1 PUSH1 0x1 PUSH1 0x1 PUSH1 0x40 SHL SUB DUP3 GT PUSH2 0x2EC1 JUMPI DUP2 SWAP1 PUSH2 0x2BF5 PUSH1 0x1 DUP7 ADD SLOAD PUSH2 0x33C3 JUMP JUMPDEST PUSH1 0x1F DUP2 GT PUSH2 0x3017 JUMPI JUMPDEST POP PUSH1 0x20 SWAP1 PUSH1 0x1F DUP4 GT PUSH1 0x1 EQ PUSH2 0x2FA9 JUMPI DUP8 SWAP3 PUSH2 0x2F9E JUMPI JUMPDEST POP POP DUP2 PUSH1 0x1 SHL SWAP2 PUSH1 0x0 NOT SWAP1 PUSH1 0x3 SHL SHR NOT AND OR PUSH1 0x1 DUP4 ADD SSTORE JUMPDEST PUSH1 0x40 DUP2 ADD MLOAD DUP1 MLOAD SWAP1 PUSH1 0x1 PUSH1 0x1 PUSH1 0x40 SHL SUB DUP3 GT PUSH2 0x2EC1 JUMPI DUP2 SWAP1 PUSH2 0x2C51 PUSH1 0x2 DUP7 ADD SLOAD PUSH2 0x33C3 JUMP JUMPDEST PUSH1 0x1F DUP2 GT PUSH2 0x2F4E JUMPI JUMPDEST POP PUSH1 0x20 SWAP1 PUSH1 0x1F DUP4 GT PUSH1 0x1 EQ PUSH2 0x2EE0 JUMPI DUP8 SWAP3 PUSH2 0x2ED5 JUMPI JUMPDEST POP POP DUP2 PUSH1 0x1 SHL SWAP2 PUSH1 0x0 NOT SWAP1 PUSH1 0x3 SHL SHR NOT AND OR PUSH1 0x2 DUP4 ADD SSTORE JUMPDEST PUSH1 0x60 DUP2 ADD MLOAD PUSH1 0x3 DUP4 ADD DUP1 SLOAD PUSH1 0x1 PUSH1 0x1 PUSH1 0xA0 SHL SUB NOT AND PUSH1 0x1 PUSH1 0x1 PUSH1 0xA0 SHL SUB SWAP3 SWAP1 SWAP3 AND SWAP2 SWAP1 SWAP2 OR SWAP1 SSTORE PUSH1 0x80 DUP2 ADD MLOAD PUSH1 0x4 DUP4 ADD SSTORE PUSH1 0xA0 DUP2 ADD MLOAD PUSH1 0x5 DUP4 ADD SSTORE PUSH1 0xC0 DUP2 ADD MLOAD DUP1 MLOAD SWAP1 PUSH1 0x1 PUSH1 0x1 PUSH1 0x40 SHL SUB DUP3 GT PUSH2 0x2EC1 JUMPI DUP2 SWAP1 PUSH2 0x2CE8 PUSH1 0x6 DUP7 ADD SLOAD PUSH2 0x33C3 JUMP JUMPDEST PUSH1 0x1F DUP2 GT PUSH2 0x2E71 JUMPI JUMPDEST POP PUSH1 0x20 SWAP1 PUSH1 0x1F DUP4 GT PUSH1 0x1 EQ PUSH2 0x2E08 JUMPI DUP8 SWAP3 PUSH2 0x2DFD JUMPI JUMPDEST POP POP DUP2 PUSH1 0x1 SHL SWAP2 PUSH1 0x0 NOT SWAP1 PUSH1 0x3 SHL SHR NOT AND OR PUSH1 0x6 DUP4 ADD SSTORE JUMPDEST PUSH1 0xE0 DUP2 ADD MLOAD PUSH1 0x7 DUP4 ADD SSTORE PUSH2 0x100 DUP2 ADD MLOAD PUSH1 0x8 DUP4 ADD SSTORE PUSH2 0x120 DUP2 ADD MLOAD PUSH1 0x9 DUP4 ADD SSTORE PUSH2 0x140 DUP2 ADD MLOAD PUSH1 0xA DUP4 ADD SSTORE PUSH2 0x160 DUP2 ADD MLOAD PUSH1 0xB DUP4 ADD SSTORE PUSH2 0x180 DUP2 ADD MLOAD PUSH1 0xC DUP4 ADD SSTORE PUSH1 0xD DUP3 ADD PUSH2 0x2D81 PUSH2 0x1A0 DUP4 ADD MLOAD ISZERO ISZERO DUP3 SWAP1 PUSH1 0xFF DUP1 NOT DUP4 SLOAD AND SWAP2 ISZERO ISZERO AND OR SWAP1 SSTORE JUMP JUMPDEST PUSH2 0x1C0 DUP3 ADD MLOAD PUSH1 0x7 DUP2 LT ISZERO PUSH2 0x2DE9 JUMPI SWAP2 PUSH2 0x1E0 SWAP2 PUSH1 0xE SWAP4 PUSH2 0xFF00 DUP3 SLOAD SWAP2 PUSH1 0x8 SHL AND SWAP1 PUSH2 0xFF00 NOT AND OR SWAP1 SSTORE ADD MLOAD SWAP2 ADD SSTORE PUSH32 0x4406E0FD454E0F528174E628E0716CD1972C77F1FFFD2FAA8D73F468957FF391 PUSH1 0x40 MLOAD DUP1 PUSH2 0x2DE3 PUSH2 0x104 CALLDATALOAD CALLER DUP4 PUSH2 0x359B JUMP JUMPDEST SUB SWAP1 LOG2 DUP1 RETURN JUMPDEST PUSH4 0x4E487B71 PUSH1 0xE0 SHL DUP7 MSTORE PUSH1 0x21 PUSH1 0x4 MSTORE PUSH1 0x24 DUP7 REVERT JUMPDEST ADD MLOAD SWAP1 POP DUP7 DUP1 PUSH2 0x2D07 JUMP JUMPDEST PUSH1 0x6 DUP7 ADD DUP9 MSTORE DUP2 DUP9 KECCAK256 SWAP3 POP PUSH1 0x1F NOT DUP5 AND DUP9 JUMPDEST DUP2 DUP2 LT PUSH2 0x2E59 JUMPI POP SWAP1 DUP5 PUSH1 0x1 SWAP6 SWAP5 SWAP4 SWAP3 LT PUSH2 0x2E40 JUMPI JUMPDEST POP POP POP DUP2 SHL ADD PUSH1 0x6 DUP4 ADD SSTORE PUSH2 0x2D1F JUMP JUMPDEST ADD MLOAD PUSH1 0x0 NOT PUSH1 0xF8 DUP5 PUSH1 0x3 SHL AND SHR NOT AND SWAP1 SSTORE DUP7 DUP1 DUP1 PUSH2 0x2E30 JUMP JUMPDEST SWAP3 SWAP4 PUSH1 0x20 PUSH1 0x1 DUP2 SWAP3 DUP8 DUP7 ADD MLOAD DUP2 SSTORE ADD SWAP6 ADD SWAP4 ADD PUSH2 0x2E1A JUMP JUMPDEST SWAP1 SWAP2 POP PUSH1 0x6 DUP6 ADD DUP8 MSTORE PUSH1 0x20 DUP8 KECCAK256 PUSH1 0x1F DUP5 ADD PUSH1 0x5 SHR DUP2 ADD PUSH1 0x20 DUP6 LT PUSH2 0x2EBA JUMPI JUMPDEST SWAP1 DUP5 SWAP4 SWAP3 SWAP2 JUMPDEST PUSH1 0x1F DUP4 ADD PUSH1 0x5 SHR DUP3 ADD DUP2 LT PUSH2 0x2EAC JUMPI POP POP PUSH2 0x2CF1 JUMP JUMPDEST DUP10 DUP2 SSTORE DUP6 SWAP5 POP PUSH1 0x1 ADD PUSH2 0x2E96 JUMP JUMPDEST POP DUP1 PUSH2 0x2E90 JUMP JUMPDEST PUSH4 0x4E487B71 PUSH1 0xE0 SHL DUP7 MSTORE PUSH1 0x41 PUSH1 0x4 MSTORE PUSH1 0x24 DUP7 REVERT JUMPDEST ADD MLOAD SWAP1 POP DUP7 DUP1 PUSH2 0x2C70 JUMP JUMPDEST SWAP3 POP PUSH1 0x2 DUP6 ADD DUP8 MSTORE DUP1 DUP8 KECCAK256 SWAP1 DUP8 SWAP4 JUMPDEST PUSH1 0x1F NOT DUP5 AND DUP6 LT PUSH2 0x2F33 JUMPI PUSH1 0x1 SWAP5 POP DUP4 PUSH1 0x1F NOT DUP2 AND LT PUSH2 0x2F1A JUMPI JUMPDEST POP POP POP DUP2 SHL ADD PUSH1 0x2 DUP4 ADD SSTORE PUSH2 0x2C88 JUMP JUMPDEST ADD MLOAD PUSH1 0x0 NOT PUSH1 0xF8 DUP5 PUSH1 0x3 SHL AND SHR NOT AND SWAP1 SSTORE DUP7 DUP1 DUP1 PUSH2 0x2F0A JUMP JUMPDEST DUP2 DUP2 ADD MLOAD DUP4 SSTORE PUSH1 0x20 SWAP5 DUP6 ADD SWAP5 PUSH1 0x1 SWAP1 SWAP4 ADD SWAP3 SWAP1 SWAP2 ADD SWAP1 PUSH2 0x2EEF JUMP JUMPDEST SWAP1 SWAP2 POP PUSH1 0x2 DUP6 ADD DUP8 MSTORE PUSH1 0x20 DUP8 KECCAK256 PUSH1 0x1F DUP5 ADD PUSH1 0x5 SHR DUP2 ADD PUSH1 0x20 DUP6 LT PUSH2 0x2F97 JUMPI JUMPDEST SWAP1 DUP5 SWAP4 SWAP3 SWAP2 JUMPDEST PUSH1 0x1F DUP4 ADD PUSH1 0x5 SHR DUP3 ADD DUP2 LT PUSH2 0x2F89 JUMPI POP POP PUSH2 0x2C5A JUMP JUMPDEST DUP10 DUP2 SSTORE DUP6 SWAP5 POP PUSH1 0x1 ADD PUSH2 0x2F73 JUMP JUMPDEST POP DUP1 PUSH2 0x2F6D JUMP JUMPDEST ADD MLOAD SWAP1 POP DUP7 DUP1 PUSH2 0x2C14 JUMP JUMPDEST SWAP3 POP PUSH1 0x1 DUP6 ADD DUP8 MSTORE DUP1 DUP8 KECCAK256 SWAP1 DUP8 SWAP4 JUMPDEST PUSH1 0x1F NOT DUP5 AND DUP6 LT PUSH2 0x2FFC JUMPI PUSH1 0x1 SWAP5 POP DUP4 PUSH1 0x1F NOT DUP2 AND LT PUSH2 0x2FE3 JUMPI JUMPDEST POP POP POP DUP2 SHL ADD PUSH1 0x1 DUP4 ADD SSTORE PUSH2 0x2C2C JUMP JUMPDEST ADD MLOAD PUSH1 0x0 NOT PUSH1 0xF8 DUP5 PUSH1 0x3 SHL AND SHR NOT AND SWAP1 SSTORE DUP7 DUP1 DUP1 PUSH2 0x2FD3 JUMP JUMPDEST DUP2 DUP2 ADD MLOAD DUP4 SSTORE PUSH1 0x20 SWAP5 DUP6 ADD SWAP5 PUSH1 0x1 SWAP1 SWAP4 ADD SWAP3 SWAP1 SWAP2 ADD SWAP1 PUSH2 0x2FB8 JUMP JUMPDEST SWAP1 SWAP2 POP PUSH1 0x1 DUP6 ADD DUP8 MSTORE PUSH1 0x20 DUP8 KECCAK256 PUSH1 0x1F DUP5 ADD PUSH1 0x5 SHR DUP2 ADD PUSH1 0x20 DUP6 LT PUSH2 0x3060 JUMPI JUMPDEST SWAP1 DUP5 SWAP4 SWAP3 SWAP2 JUMPDEST PUSH1 0x1F DUP4 ADD PUSH1 0x5 SHR DUP3 ADD DUP2 LT PUSH2 0x3052 JUMPI POP POP PUSH2 0x2BFE JUMP JUMPDEST DUP10 DUP2 SSTORE DUP6 SWAP5 POP PUSH1 0x1 ADD PUSH2 0x303C JUMP JUMPDEST POP DUP1 PUSH2 0x3036 JUMP JUMPDEST SWAP1 SWAP10 POP PUSH1 0x20 DUP2 RETURNDATASIZE PUSH1 0x20 GT PUSH2 0x3093 JUMPI JUMPDEST DUP2 PUSH2 0x3083 PUSH1 0x20 SWAP4 DUP4 PUSH2 0x3291 JUMP JUMPDEST DUP2 ADD SUB SLT PUSH2 0x1AE JUMPI MLOAD SWAP9 DUP11 PUSH2 0x2B3B JUMP JUMPDEST RETURNDATASIZE SWAP2 POP PUSH2 0x3076 JUMP JUMPDEST PUSH1 0x40 MLOAD PUSH3 0x461BCD PUSH1 0xE5 SHL DUP2 MSTORE PUSH1 0x20 PUSH1 0x4 DUP3 ADD MSTORE PUSH1 0x18 PUSH1 0x24 DUP3 ADD MSTORE PUSH32 0x496E73756666696369656E742072657761726420706F6F6C0000000000000000 PUSH1 0x44 DUP3 ADD MSTORE PUSH1 0x64 SWAP1 REVERT JUMPDEST PUSH1 0x40 MLOAD PUSH3 0x461BCD PUSH1 0xE5 SHL DUP2 MSTORE PUSH1 0x20 PUSH1 0x4 DUP3 ADD MSTORE PUSH1 0x1C PUSH1 0x24 DUP3 ADD MSTORE PUSH32 0x4D6178206D656D62657273206D75737420626520706F73697469766500000000 PUSH1 0x44 DUP3 ADD MSTORE PUSH1 0x64 SWAP1 REVERT JUMPDEST PUSH1 0x40 MLOAD PUSH3 0x461BCD PUSH1 0xE5 SHL DUP2 MSTORE PUSH1 0x20 PUSH1 0x4 DUP3 ADD MSTORE PUSH1 0x22 PUSH1 0x24 DUP3 ADD MSTORE PUSH32 0x52657761726420706572206D656D626572206D75737420626520706F73697469 PUSH1 0x44 DUP3 ADD MSTORE PUSH2 0x7665 PUSH1 0xF0 SHL PUSH1 0x64 DUP3 ADD MSTORE PUSH1 0x84 SWAP1 REVERT JUMPDEST PUSH1 0x40 MLOAD PUSH3 0x461BCD PUSH1 0xE5 SHL DUP2 MSTORE PUSH1 0x20 PUSH1 0x4 DUP3 ADD MSTORE PUSH1 0x1F PUSH1 0x24 DUP3 ADD MSTORE PUSH32 0x4D656D626572206465706F736974206D75737420626520706F73697469766500 PUSH1 0x44 DUP3 ADD MSTORE PUSH1 0x64 SWAP1 REVERT JUMPDEST PUSH1 0x40 MLOAD PUSH3 0x461BCD PUSH1 0xE5 SHL DUP2 MSTORE PUSH1 0x20 PUSH1 0x4 DUP3 ADD MSTORE PUSH1 0x21 PUSH1 0x24 DUP3 ADD MSTORE PUSH32 0x456E642074696D65206D7573742062652061667465722073746172742074696D PUSH1 0x44 DUP3 ADD MSTORE PUSH1 0x65 PUSH1 0xF8 SHL PUSH1 0x64 DUP3 ADD MSTORE PUSH1 0x84 SWAP1 REVERT JUMPDEST PUSH1 0x40 MLOAD PUSH3 0x461BCD PUSH1 0xE5 SHL DUP2 MSTORE PUSH1 0x20 PUSH1 0x4 DUP3 ADD MSTORE PUSH1 0x1C PUSH1 0x24 DUP3 ADD MSTORE PUSH32 0x53746172742074696D65206D75737420626520696E2066757475726500000000 PUSH1 0x44 DUP3 ADD MSTORE PUSH1 0x64 SWAP1 REVERT JUMPDEST CALLVALUE PUSH2 0x1AE JUMPI PUSH1 0x20 CALLDATASIZE PUSH1 0x3 NOT ADD SLT PUSH2 0x1AE JUMPI PUSH1 0x20 SWAP1 PUSH1 0x4 CALLDATALOAD PUSH1 0x0 MSTORE PUSH1 0x10 DUP3 MSTORE PUSH1 0x40 PUSH1 0x0 KECCAK256 SLOAD DUP2 MSTORE RETURN JUMPDEST PUSH1 0x60 DUP2 ADD SWAP1 DUP2 LT PUSH1 0x1 PUSH1 0x1 PUSH1 0x40 SHL SUB DUP3 GT OR PUSH2 0x3F0 JUMPI PUSH1 0x40 MSTORE JUMP JUMPDEST SWAP1 PUSH1 0x1F DUP1 NOT SWAP2 ADD AND DUP2 ADD SWAP1 DUP2 LT PUSH1 0x1 PUSH1 0x1 PUSH1 0x40 SHL SUB DUP3 GT OR PUSH2 0x3F0 JUMPI PUSH1 0x40 MSTORE JUMP JUMPDEST DUP2 PUSH1 0x1F DUP3 ADD SLT ISZERO PUSH2 0x1AE JUMPI DUP1 CALLDATALOAD SWAP1 PUSH1 0x1 PUSH1 0x1 PUSH1 0x40 SHL SUB DUP3 GT PUSH2 0x3F0 JUMPI PUSH1 0x40 MLOAD SWAP3 PUSH2 0x32E6 PUSH1 0x1F DUP5 ADD PUSH1 0x1F NOT AND PUSH1 0x20 ADD DUP6 PUSH2 0x3291 JUMP JUMPDEST DUP3 DUP5 MSTORE PUSH1 0x20 DUP4 DUP4 ADD ADD GT PUSH2 0x1AE JUMPI DUP2 PUSH1 0x0 SWAP3 PUSH1 0x20 DUP1 SWAP4 ADD DUP4 DUP7 ADD CALLDATACOPY DUP4 ADD ADD MSTORE SWAP1 JUMP JUMPDEST PUSH1 0x24 CALLDATALOAD SWAP1 PUSH1 0x1 PUSH1 0x1 PUSH1 0xA0 SHL SUB DUP3 AND DUP3 SUB PUSH2 0x1AE JUMPI JUMP JUMPDEST SWAP1 PUSH1 0x40 PUSH1 0x3 NOT DUP4 ADD SLT PUSH2 0x1AE JUMPI PUSH1 0x4 CALLDATALOAD SWAP2 PUSH1 0x24 CALLDATALOAD SWAP1 PUSH1 0x1 PUSH1 0x1 PUSH1 0x40 SHL SUB DUP3 GT PUSH2 0x1AE JUMPI PUSH2 0x334D SWAP2 PUSH1 0x4 ADD PUSH2 0x32B2 JUMP JUMPDEST SWAP1 JUMP JUMPDEST SWAP2 SWAP1 DUP3 MLOAD SWAP3 DUP4 DUP3 MSTORE PUSH1 0x0 JUMPDEST DUP5 DUP2 LT PUSH2 0x337C JUMPI POP POP DUP3 PUSH1 0x0 PUSH1 0x20 DUP1 SWAP5 SWAP6 DUP5 ADD ADD MSTORE PUSH1 0x1F DUP1 NOT SWAP2 ADD AND ADD ADD SWAP1 JUMP JUMPDEST DUP1 PUSH1 0x20 DUP1 SWAP3 DUP5 ADD ADD MLOAD DUP3 DUP3 DUP7 ADD ADD MSTORE ADD PUSH2 0x335B JUMP JUMPDEST DUP1 SLOAD DUP3 LT ISZERO PUSH2 0x33AD JUMPI PUSH1 0x0 MSTORE PUSH1 0x3 PUSH1 0x20 PUSH1 0x0 KECCAK256 SWAP2 MUL ADD SWAP1 PUSH1 0x0 SWAP1 JUMP JUMPDEST PUSH4 0x4E487B71 PUSH1 0xE0 SHL PUSH1 0x0 MSTORE PUSH1 0x32 PUSH1 0x4 MSTORE PUSH1 0x24 PUSH1 0x0 REVERT JUMPDEST SWAP1 PUSH1 0x1 DUP3 DUP2 SHR SWAP3 AND DUP1 ISZERO PUSH2 0x33F3 JUMPI JUMPDEST PUSH1 0x20 DUP4 LT EQ PUSH2 0x33DD JUMPI JUMP JUMPDEST PUSH4 0x4E487B71 PUSH1 0xE0 SHL PUSH1 0x0 MSTORE PUSH1 0x22 PUSH1 0x4 MSTORE PUSH1 0x24 PUSH1 0x0 REVERT JUMPDEST SWAP2 PUSH1 0x7F AND SWAP2 PUSH2 0x33D2 JUMP JUMPDEST SWAP1 PUSH1 0x40 MLOAD SWAP2 DUP3 PUSH1 0x0 DUP3 SLOAD SWAP3 PUSH2 0x3411 DUP5 PUSH2 0x33C3 JUMP JUMPDEST DUP1 DUP5 MSTORE SWAP4 PUSH1 0x1 DUP2 AND SWAP1 DUP2 ISZERO PUSH2 0x347F JUMPI POP PUSH1 0x1 EQ PUSH2 0x3438 JUMPI JUMPDEST POP PUSH2 0x3436 SWAP3 POP SUB DUP4 PUSH2 0x3291 JUMP JUMPDEST JUMP JUMPDEST SWAP1 POP PUSH1 0x0 SWAP3 SWAP2 SWAP3 MSTORE PUSH1 0x20 PUSH1 0x0 KECCAK256 SWAP1 PUSH1 0x0 SWAP2 JUMPDEST DUP2 DUP4 LT PUSH2 0x3463 JUMPI POP POP SWAP1 PUSH1 0x20 PUSH2 0x3436 SWAP3 DUP3 ADD ADD CODESIZE PUSH2 0x3429 JUMP JUMPDEST PUSH1 0x20 SWAP2 SWAP4 POP DUP1 PUSH1 0x1 SWAP2 SLOAD DUP4 DUP6 DUP10 ADD ADD MSTORE ADD SWAP2 ADD SWAP1 SWAP2 DUP5 SWAP3 PUSH2 0x344A JUMP JUMPDEST SWAP1 POP PUSH1 0x20 SWAP3 POP PUSH2 0x3436 SWAP5 SWAP2 POP PUSH1 0xFF NOT AND DUP3 DUP5 ADD MSTORE ISZERO ISZERO PUSH1 0x5 SHL DUP3 ADD ADD CODESIZE PUSH2 0x3429 JUMP JUMPDEST SWAP1 PUSH1 0x80 PUSH1 0x3 NOT DUP4 ADD SLT PUSH2 0x1AE JUMPI PUSH1 0x4 CALLDATALOAD SWAP2 PUSH1 0x24 CALLDATALOAD PUSH1 0x1 PUSH1 0x1 PUSH1 0xA0 SHL SUB DUP2 AND DUP2 SUB PUSH2 0x1AE JUMPI SWAP2 PUSH1 0x44 CALLDATALOAD SWAP2 PUSH1 0x64 CALLDATALOAD SWAP1 PUSH1 0x1 PUSH1 0x1 PUSH1 0x40 SHL SUB DUP3 GT PUSH2 0x1AE JUMPI PUSH2 0x334D SWAP2 PUSH1 0x4 ADD PUSH2 0x32B2 JUMP JUMPDEST PUSH1 0x60 SWAP1 PUSH1 0x3 NOT ADD SLT PUSH2 0x1AE JUMPI PUSH1 0x4 CALLDATALOAD SWAP1 PUSH1 0x24 CALLDATALOAD PUSH1 0x1 PUSH1 0x1 PUSH1 0xA0 SHL SUB DUP2 AND DUP2 SUB PUSH2 0x1AE JUMPI SWAP1 PUSH1 0x44 CALLDATALOAD PUSH1 0x1 PUSH1 0x1 PUSH1 0xA0 SHL SUB DUP2 AND DUP2 SUB PUSH2 0x1AE JUMPI SWAP1 JUMP JUMPDEST PUSH1 0x40 SWAP1 PUSH1 0x3 NOT ADD SLT PUSH2 0x1AE JUMPI PUSH1 0x4 CALLDATALOAD SWAP1 PUSH1 0x24 CALLDATALOAD SWAP1 JUMP JUMPDEST DUP1 SLOAD DUP3 LT ISZERO PUSH2 0x33AD JUMPI PUSH1 0x0 MSTORE PUSH1 0x20 PUSH1 0x0 KECCAK256 ADD SWAP1 PUSH1 0x0 SWAP1 JUMP JUMPDEST PUSH1 0x7 DUP2 LT ISZERO PUSH2 0x3569 JUMPI PUSH1 0x0 MSTORE PUSH1 0x1 PUSH1 0x20 MSTORE PUSH1 0x40 PUSH1 0x0 KECCAK256 SWAP1 JUMP JUMPDEST PUSH4 0x4E487B71 PUSH1 0xE0 SHL PUSH1 0x0 MSTORE PUSH1 0x21 PUSH1 0x4 MSTORE PUSH1 0x24 PUSH1 0x0 REVERT JUMPDEST SWAP1 PUSH1 0x7 DUP3 LT ISZERO PUSH2 0x3569 JUMPI MSTORE JUMP JUMPDEST PUSH1 0x0 NOT DUP2 EQ PUSH2 0x2479 JUMPI PUSH1 0x1 ADD SWAP1 JUMP JUMPDEST PUSH1 0x1 PUSH1 0x1 PUSH1 0xA0 SHL SUB SWAP1 SWAP2 AND DUP2 MSTORE PUSH1 0x40 DUP2 ADD SWAP3 SWAP2 PUSH2 0x3436 SWAP2 PUSH1 0x20 ADD SWAP1 PUSH2 0x357F JUMP JUMPDEST ISZERO PUSH2 0x35C2 JUMPI JUMP JUMPDEST PUSH1 0x40 MLOAD PUSH3 0x461BCD PUSH1 0xE5 SHL DUP2 MSTORE PUSH1 0x20 PUSH1 0x4 DUP3 ADD MSTORE PUSH1 0x13 PUSH1 0x24 DUP3 ADD MSTORE PUSH19 0x10DBDB5B5D5B9A5D1E481A5CC818DB1BDCD959 PUSH1 0x6A SHL PUSH1 0x44 DUP3 ADD MSTORE PUSH1 0x64 SWAP1 REVERT JUMPDEST ISZERO PUSH2 0x3604 JUMPI JUMP JUMPDEST PUSH1 0x40 MLOAD PUSH3 0x461BCD PUSH1 0xE5 SHL DUP2 MSTORE PUSH1 0x20 PUSH1 0x4 DUP3 ADD MSTORE PUSH1 0xC PUSH1 0x24 DUP3 ADD MSTORE PUSH12 0x2737BA10309036B2B6B132B9 PUSH1 0xA1 SHL PUSH1 0x44 DUP3 ADD MSTORE PUSH1 0x64 SWAP1 REVERT JUMPDEST ISZERO PUSH2 0x363F JUMPI JUMP JUMPDEST PUSH1 0x40 MLOAD PUSH3 0x461BCD PUSH1 0xE5 SHL DUP2 MSTORE PUSH1 0x20 PUSH1 0x4 DUP3 ADD MSTORE PUSH1 0xE PUSH1 0x24 DUP3 ADD MSTORE PUSH14 0x105B1C9958591E4818DB1BDCD959 PUSH1 0x92 SHL PUSH1 0x44 DUP3 ADD MSTORE PUSH1 0x64 SWAP1 REVERT JUMPDEST ISZERO PUSH2 0x367C JUMPI JUMP JUMPDEST PUSH1 0x40 MLOAD PUSH3 0x461BCD PUSH1 0xE5 SHL DUP2 MSTORE PUSH1 0x20 PUSH1 0x4 DUP3 ADD MSTORE PUSH1 0xD PUSH1 0x24 DUP3 ADD MSTORE PUSH13 0x105B1C9958591E481D9BDD1959 PUSH1 0x9A SHL PUSH1 0x44 DUP3 ADD MSTORE PUSH1 0x64 SWAP1 REVERT JUMPDEST SWAP1 DUP2 PUSH1 0x20 SWAP2 SUB SLT PUSH2 0x1AE JUMPI MLOAD DUP1 ISZERO ISZERO DUP2 SUB PUSH2 0x1AE JUMPI SWAP1 JUMP JUMPDEST ISZERO PUSH2 0x36D0 JUMPI JUMP JUMPDEST PUSH1 0x40 MLOAD PUSH3 0x461BCD PUSH1 0xE5 SHL DUP2 MSTORE PUSH1 0x20 PUSH1 0x4 DUP3 ADD MSTORE PUSH1 0x1F PUSH1 0x24 DUP3 ADD MSTORE PUSH32 0x53636F7265206D757374206265206265747765656E203020616E642031303000 PUSH1 0x44 DUP3 ADD MSTORE PUSH1 0x64 SWAP1 REVERT JUMPDEST SWAP2 SWAP1 DUP3 ADD DUP1 SWAP3 GT PUSH2 0x2479 JUMPI JUMP JUMPDEST DUP2 ISZERO PUSH2 0x372C JUMPI DIV SWAP1 JUMP JUMPDEST PUSH4 0x4E487B71 PUSH1 0xE0 SHL PUSH1 0x0 MSTORE PUSH1 0x12 PUSH1 0x4 MSTORE PUSH1 0x24 PUSH1 0x0 REVERT JUMPDEST SWAP2 SWAP1 DUP3 SUB SWAP2 DUP3 GT PUSH2 0x2479 JUMPI JUMP JUMPDEST DUP1 SLOAD PUSH1 0x1 PUSH1 0x40 SHL DUP2 LT ISZERO PUSH2 0x3F0 JUMPI PUSH2 0x376C SWAP2 PUSH1 0x1 DUP3 ADD DUP2 SSTORE PUSH2 0x3538 JUMP JUMPDEST DUP2 SLOAD PUSH1 0x1 PUSH1 0x1 PUSH1 0xA0 SHL SUB SWAP4 DUP5 AND PUSH1 0x3 SWAP3 SWAP1 SWAP3 SHL SWAP2 DUP3 SHL SWAP4 SWAP1 SWAP2 SHL NOT AND SWAP2 SWAP1 SWAP2 OR SWAP1 SSTORE JUMP JUMPDEST DUP1 PUSH1 0x0 MSTORE PUSH1 0x8 PUSH1 0x20 MSTORE PUSH1 0x40 PUSH1 0x0 KECCAK256 SWAP1 DUP1 PUSH1 0x0 MSTORE PUSH1 0xA PUSH1 0x20 MSTORE PUSH1 0x40 PUSH1 0x0 KECCAK256 SLOAD DUP1 ISZERO PUSH2 0x387E JUMPI PUSH1 0xB DUP4 ADD SWAP2 PUSH2 0x37CB PUSH1 0xC DUP5 SLOAD SWAP6 ADD SWAP5 DUP6 SLOAD SWAP1 PUSH2 0x3715 JUMP JUMPDEST DUP1 ISZERO PUSH2 0x3877 JUMPI DUP3 PUSH2 0x37DB SWAP2 PUSH2 0x3722 JUMP JUMPDEST SWAP1 PUSH1 0x0 JUMPDEST DUP4 DUP2 LT PUSH2 0x37F3 JUMPI POP POP POP POP SWAP1 PUSH1 0x0 DUP1 SWAP3 SSTORE SSTORE JUMP JUMPDEST DUP2 PUSH1 0x0 MSTORE PUSH1 0xA PUSH1 0x20 MSTORE DUP3 PUSH2 0x380B DUP3 PUSH1 0x40 PUSH1 0x0 KECCAK256 PUSH2 0x3538 JUMP JUMPDEST SWAP1 SLOAD PUSH1 0x0 DUP6 DUP2 MSTORE PUSH1 0x9 PUSH1 0x20 SWAP1 DUP2 MSTORE PUSH1 0x40 DUP1 DUP4 KECCAK256 PUSH1 0x3 SWAP6 SWAP1 SWAP6 SHL SWAP4 SWAP1 SWAP4 SHR PUSH1 0x1 PUSH1 0x1 PUSH1 0xA0 SHL SUB AND DUP1 DUP4 MSTORE SWAP4 SWAP1 MSTORE KECCAK256 PUSH1 0x1 ADD SLOAD PUSH1 0x8 SHR PUSH1 0xFF AND ISZERO PUSH2 0x3852 JUMPI JUMPDEST POP POP PUSH1 0x1 ADD PUSH2 0x37DF JUMP JUMPDEST PUSH1 0x0 DUP1 DUP1 SWAP4 DUP2 SWAP4 DUP3 DUP3 ISZERO PUSH2 0x386E JUMPI JUMPDEST CALL ISZERO PUSH2 0x807 JUMPI DUP3 CODESIZE PUSH2 0x3848 JUMP JUMPDEST POP PUSH2 0x8FC PUSH2 0x3861 JUMP JUMPDEST POP POP POP POP POP JUMP JUMPDEST POP POP POP JUMP INVALID LOG2 PUSH5 0x6970667358 0x22 SLT KECCAK256 CALLDATACOPY DUP15 0xCD KECCAK256 SWAP16 0xCD 0xD8 0xEC BYTE SLOAD 0xC1 MSTORE DUP6 PUSH24 0xFE8E9D1033F2ABB4B0359DA600DBDB134EB164736F6C6343 STOP ADDMOD SHR STOP CALLER "},"methodIdentifiers":{"STAKE_AMOUNT()":"faf5625f","categoryExists(uint8)":"b51bcc0e","categoryNames(uint256)":"784940c5","claimReward(uint256)":"ae169a50","closeCommunityByAuthor(uint256)":"ed571f06","communities(uint256)":"e590b56a","communityCount()":"aee84613","communityPublicKey(uint256)":"8da021c1","communityToken()":"29aa1617","createCommunity(string,string,string,uint256,uint256,uint256,uint256,uint256,uint8)":"1fa4a560","encryptedKeysCount(uint256)":"1214ee66","encryptedPrivateKeys(uint256,address)":"e31224ea","getCategoryName(uint8)":"3f9a61e0","getMemberCount(uint256)":"5ce9284f","getMemberStatus(uint256,address)":"26e98b8b","getScores(uint256,address)":"87a6280f","hasGeneratedKeys(uint256)":"7a37128c","hasReviewerVoted(uint256,address,address)":"88c52d7c","hasSenatorScored(uint256,address,address)":"fa95cefb","joinCommunity(uint256)":"b122a0ef","memberAddresses(uint256,uint256)":"b7800e53","memberScores(uint256,address,uint256)":"44d02881","members(uint256,address)":"bb1895c8","proposeCloseCommunity(uint256)":"2c90365b","reviewerApprovals(uint256,address,address)":"676eeee5","reviewerScore(uint256,address,uint256,string)":"d42f02d1","reviewers(uint256,uint256)":"8fd0f3b4","senateAuditScore(uint256,address,uint256,string)":"5130084a","senateContract()":"5d85fa18","setCommunityKeys(uint256,string)":"f2509ad5","setEncryptedPrivateKey(uint256,address,string,bool)":"efbe8c90","submitCompletion(uint256,string)":"2ae2b664","voteForClose(uint256,bool)":"2c9342de"}}}}}