{"contracts/community.sol":{"GoalOrientedCommunity":{"abi":[{"inputs":[{"internalType":"address","name":"_senateAddress","type":"address"},{"internalType":"address","name":"_tokenAddress","type":"address"}],"stateMutability":"nonpayable","type":"constructor"},{"anonymous":false,"inputs":[{"indexed":true,"internalType":"uint256","name":"id","type":"uint256"},{"indexed":true,"internalType":"address","name":"member","type":"address"},{"indexed":false,"internalType":"bool","name":"vote","type":"bool"}],"name":"CloseVoteSubmitted","type":"event"},{"anonymous":false,"inputs":[{"indexed":true,"internalType":"uint256","name":"id","type":"uint256"}],"name":"CommunityClosed","type":"event"},{"anonymous":false,"inputs":[{"indexed":true,"internalType":"uint256","name":"id","type":"uint256"},{"indexed":false,"internalType":"address","name":"creator","type":"address"},{"indexed":false,"internalType":"enum CommunityTypes.Category","name":"category","type":"uint8"}],"name":"CommunityCreated","type":"event"},{"anonymous":false,"inputs":[{"indexed":true,"internalType":"uint256","name":"communityId","type":"uint256"},{"indexed":false,"internalType":"string","name":"publicKey","type":"string"}],"name":"CommunityKeysGenerated","type":"event"},{"anonymous":false,"inputs":[{"indexed":true,"internalType":"uint256","name":"id","type":"uint256"},{"indexed":false,"internalType":"address","name":"member","type":"address"}],"name":"GoalApproved","type":"event"},{"anonymous":false,"inputs":[{"indexed":true,"internalType":"uint256","name":"id","type":"uint256"},{"indexed":false,"internalType":"address","name":"member","type":"address"}],"name":"MemberJoined","type":"event"},{"anonymous":false,"inputs":[{"indexed":true,"internalType":"uint256","name":"communityId","type":"uint256"},{"indexed":true,"internalType":"address","name":"accessor","type":"address"},{"indexed":false,"internalType":"bool","name":"isSenator","type":"bool"}],"name":"PrivateKeyEncrypted","type":"event"},{"anonymous":false,"inputs":[{"indexed":true,"internalType":"uint256","name":"id","type":"uint256"},{"indexed":true,"internalType":"address","name":"reviewer","type":"address"}],"name":"ReviewerAdded","type":"event"},{"anonymous":false,"inputs":[{"indexed":true,"internalType":"uint256","name":"id","type":"uint256"},{"indexed":true,"internalType":"address","name":"reviewer","type":"address"},{"indexed":true,"internalType":"address","name":"member","type":"address"},{"indexed":false,"internalType":"bool","name":"approved","type":"bool"}],"name":"ReviewerApproval","type":"event"},{"anonymous":false,"inputs":[{"indexed":true,"internalType":"uint256","name":"id","type":"uint256"},{"indexed":false,"internalType":"address","name":"member","type":"address"},{"indexed":false,"internalType":"uint256","name":"amount","type":"uint256"}],"name":"RewardClaimed","type":"event"},{"anonymous":false,"inputs":[{"indexed":true,"internalType":"uint256","name":"id","type":"uint256"},{"indexed":true,"internalType":"address","name":"member","type":"address"},{"indexed":true,"internalType":"address","name":"senator","type":"address"},{"indexed":false,"internalType":"uint256","name":"score","type":"uint256"}],"name":"ScoreSubmitted","type":"event"},{"anonymous":false,"inputs":[{"indexed":true,"internalType":"uint256","name":"id","type":"uint256"},{"indexed":false,"internalType":"address","name":"member","type":"address"},{"indexed":false,"internalType":"string","name":"submissionUrl","type":"string"}],"name":"SubmissionUploaded","type":"event"},{"inputs":[],"name":"STAKE_AMOUNT","outputs":[{"internalType":"uint256","name":"","type":"uint256"}],"stateMutability":"view","type":"function"},{"inputs":[{"internalType":"enum CommunityTypes.Category","name":"","type":"uint8"}],"name":"categoryExists","outputs":[{"internalType":"bool","name":"","type":"bool"}],"stateMutability":"view","type":"function"},{"inputs":[{"internalType":"uint256","name":"","type":"uint256"}],"name":"categoryNames","outputs":[{"internalType":"string","name":"","type":"string"}],"stateMutability":"view","type":"function"},{"inputs":[{"internalType":"uint256","name":"_communityId","type":"uint256"}],"name":"claimReward","outputs":[],"stateMutability":"nonpayable","type":"function"},{"inputs":[{"internalType":"uint256","name":"_communityId","type":"uint256"}],"name":"closeCommunityByAuthor","outputs":[],"stateMutability":"nonpayable","type":"function"},{"inputs":[{"internalType":"uint256","name":"","type":"uint256"}],"name":"communities","outputs":[{"internalType":"uint256","name":"id","type":"uint256"},{"internalType":"string","name":"name","type":"string"},{"internalType":"string","name":"description","type":"string"},{"internalType":"address","name":"creator","type":"address"},{"internalType":"uint256","name":"startTime","type":"uint256"},{"internalType":"uint256","name":"endTime","type":"uint256"},{"internalType":"string","name":"targetGoal","type":"string"},{"internalType":"uint256","name":"memberDeposit","type":"uint256"},{"internalType":"uint256","name":"rewardPerMember","type":"uint256"},{"internalType":"uint256","name":"maxMembers","type":"uint256"},{"internalType":"uint256","name":"totalMembers","type":"uint256"},{"internalType":"uint256","name":"rewardPool","type":"uint256"},{"internalType":"uint256","name":"depositPool","type":"uint256"},{"internalType":"bool","name":"isClosed","type":"bool"},{"internalType":"enum CommunityTypes.Category","name":"category","type":"uint8"},{"internalType":"uint256","name":"passingScore","type":"uint256"}],"stateMutability":"view","type":"function"},{"inputs":[],"name":"communityCount","outputs":[{"internalType":"uint256","name":"","type":"uint256"}],"stateMutability":"view","type":"function"},{"inputs":[{"internalType":"uint256","name":"","type":"uint256"}],"name":"communityEncryptionKey","outputs":[{"internalType":"string","name":"","type":"string"}],"stateMutability":"view","type":"function"},{"inputs":[],"name":"communityToken","outputs":[{"internalType":"contract IERC20","name":"","type":"address"}],"stateMutability":"view","type":"function"},{"inputs":[{"internalType":"string","name":"_name","type":"string"},{"internalType":"string","name":"_description","type":"string"},{"internalType":"string","name":"_targetGoal","type":"string"},{"internalType":"uint256","name":"_startTime","type":"uint256"},{"internalType":"uint256","name":"_endTime","type":"uint256"},{"internalType":"uint256","name":"_memberDeposit","type":"uint256"},{"internalType":"uint256","name":"_rewardPerMember","type":"uint256"},{"internalType":"uint256","name":"_maxMembers","type":"uint256"},{"internalType":"enum CommunityTypes.Category","name":"_category","type":"uint8"}],"name":"createCommunity","outputs":[],"stateMutability":"payable","type":"function"},{"inputs":[{"internalType":"uint256","name":"","type":"uint256"},{"internalType":"address","name":"","type":"address"}],"name":"encryptedDecryptionKeys","outputs":[{"internalType":"string","name":"","type":"string"}],"stateMutability":"view","type":"function"},{"inputs":[{"internalType":"uint256","name":"","type":"uint256"}],"name":"encryptedKeysCount","outputs":[{"internalType":"uint256","name":"","type":"uint256"}],"stateMutability":"view","type":"function"},{"inputs":[{"internalType":"enum CommunityTypes.Category","name":"_category","type":"uint8"}],"name":"getCategoryName","outputs":[{"internalType":"string","name":"","type":"string"}],"stateMutability":"view","type":"function"},{"inputs":[{"internalType":"uint256","name":"communityId","type":"uint256"}],"name":"getMemberCount","outputs":[{"internalType":"uint256","name":"","type":"uint256"}],"stateMutability":"view","type":"function"},{"inputs":[{"internalType":"uint256","name":"_communityId","type":"uint256"},{"internalType":"address","name":"_member","type":"address"}],"name":"getMemberStatus","outputs":[{"internalType":"bool","name":"isScored","type":"bool"},{"internalType":"bool","name":"isApproved","type":"bool"}],"stateMutability":"view","type":"function"},{"inputs":[{"internalType":"uint256","name":"_communityId","type":"uint256"},{"internalType":"address","name":"_member","type":"address"}],"name":"getScores","outputs":[{"components":[{"internalType":"address","name":"senator","type":"address"},{"internalType":"uint256","name":"score","type":"uint256"},{"internalType":"string","name":"comment","type":"string"}],"internalType":"struct GoalOrientedCommunity.Score[]","name":"","type":"tuple[]"}],"stateMutability":"view","type":"function"},{"inputs":[{"internalType":"uint256","name":"","type":"uint256"}],"name":"hasGeneratedKeys","outputs":[{"internalType":"bool","name":"","type":"bool"}],"stateMutability":"view","type":"function"},{"inputs":[{"internalType":"uint256","name":"","type":"uint256"},{"internalType":"address","name":"","type":"address"},{"internalType":"address","name":"","type":"address"}],"name":"hasReviewerVoted","outputs":[{"internalType":"bool","name":"","type":"bool"}],"stateMutability":"view","type":"function"},{"inputs":[{"internalType":"uint256","name":"","type":"uint256"},{"internalType":"address","name":"","type":"address"},{"internalType":"address","name":"","type":"address"}],"name":"hasSenatorScored","outputs":[{"internalType":"bool","name":"","type":"bool"}],"stateMutability":"view","type":"function"},{"inputs":[{"internalType":"uint256","name":"_communityId","type":"uint256"}],"name":"joinCommunity","outputs":[],"stateMutability":"payable","type":"function"},{"inputs":[{"internalType":"uint256","name":"","type":"uint256"},{"internalType":"uint256","name":"","type":"uint256"}],"name":"memberAddresses","outputs":[{"internalType":"address","name":"","type":"address"}],"stateMutability":"view","type":"function"},{"inputs":[{"internalType":"uint256","name":"","type":"uint256"},{"internalType":"address","name":"","type":"address"},{"internalType":"uint256","name":"","type":"uint256"}],"name":"memberScores","outputs":[{"internalType":"address","name":"senator","type":"address"},{"internalType":"uint256","name":"score","type":"uint256"},{"internalType":"string","name":"comment","type":"string"}],"stateMutability":"view","type":"function"},{"inputs":[{"internalType":"uint256","name":"","type":"uint256"},{"internalType":"address","name":"","type":"address"}],"name":"members","outputs":[{"internalType":"uint256","name":"joinTime","type":"uint256"},{"internalType":"bool","name":"isApproved","type":"bool"},{"internalType":"bool","name":"hasClaimed","type":"bool"},{"internalType":"string","name":"submissionUrl","type":"string"},{"internalType":"uint256","name":"finalScore","type":"uint256"},{"internalType":"bool","name":"isScored","type":"bool"},{"internalType":"bool","name":"isReviewer","type":"bool"},{"internalType":"bool","name":"hasVotedForClose","type":"bool"},{"internalType":"bool","name":"closeVote","type":"bool"},{"internalType":"uint256","name":"totalReviewerScores","type":"uint256"},{"internalType":"uint256","name":"reviewerCount","type":"uint256"}],"stateMutability":"view","type":"function"},{"inputs":[{"internalType":"uint256","name":"_communityId","type":"uint256"}],"name":"proposeCloseCommunity","outputs":[],"stateMutability":"nonpayable","type":"function"},{"inputs":[{"internalType":"uint256","name":"","type":"uint256"},{"internalType":"address","name":"","type":"address"},{"internalType":"address","name":"","type":"address"}],"name":"reviewerApprovals","outputs":[{"internalType":"bool","name":"","type":"bool"}],"stateMutability":"view","type":"function"},{"inputs":[{"internalType":"uint256","name":"_communityId","type":"uint256"},{"internalType":"address","name":"_member","type":"address"},{"internalType":"uint256","name":"_score","type":"uint256"},{"internalType":"string","name":"_comment","type":"string"}],"name":"reviewerScore","outputs":[],"stateMutability":"nonpayable","type":"function"},{"inputs":[{"internalType":"uint256","name":"","type":"uint256"},{"internalType":"uint256","name":"","type":"uint256"}],"name":"reviewers","outputs":[{"internalType":"address","name":"","type":"address"}],"stateMutability":"view","type":"function"},{"inputs":[{"internalType":"uint256","name":"_communityId","type":"uint256"},{"internalType":"address","name":"_member","type":"address"},{"internalType":"uint256","name":"_score","type":"uint256"},{"internalType":"string","name":"_comment","type":"string"}],"name":"senateAuditScore","outputs":[],"stateMutability":"nonpayable","type":"function"},{"inputs":[],"name":"senateContract","outputs":[{"internalType":"contract Senate","name":"","type":"address"}],"stateMutability":"view","type":"function"},{"inputs":[{"internalType":"uint256","name":"_communityId","type":"uint256"},{"internalType":"string","name":"_encryptionKey","type":"string"}],"name":"setCommunityKeys","outputs":[],"stateMutability":"nonpayable","type":"function"},{"inputs":[{"internalType":"uint256","name":"_communityId","type":"uint256"},{"internalType":"address","name":"_accessor","type":"address"},{"internalType":"string","name":"_encryptedKey","type":"string"},{"internalType":"bool","name":"_isSenator","type":"bool"}],"name":"setEncryptedDecryptionKey","outputs":[],"stateMutability":"nonpayable","type":"function"},{"inputs":[{"internalType":"uint256","name":"_communityId","type":"uint256"},{"internalType":"string","name":"_submissionUrl","type":"string"}],"name":"submitCompletion","outputs":[],"stateMutability":"nonpayable","type":"function"},{"inputs":[{"internalType":"uint256","name":"_communityId","type":"uint256"},{"internalType":"bool","name":"_vote","type":"bool"}],"name":"voteForClose","outputs":[],"stateMutability":"nonpayable","type":"function"}],"evm":{"bytecode":{"linkReferences":{},"object":"60803461038957601f613ba338819003918201601f19168301916001600160401b0383118484101761038e57808492604094855283398101031261038957610052602061004b836103a4565b92016103a4565b9060016000526000602052604060002061007561006f82546103b8565b826103f2565b600a644d7573696360d81b019055600260009081526020527fabbb5caa7dda850e60932de0934eb1f9d0f59695050f761dc64e443e5030a56980546100b9906103b8565b601f811161035c575b50600662105c9d60ea1b019055600360009081526020527f101e368776582e57ab3d116ffe2517c0a585cd5b23174b01e275c2d8329c3d838054610105906103b8565b601f811161032f575b50600c6553706f72747360d01b019055600460009081526020527f52d75039926638d3c558b2bdefb945d5be8dae29dedd1c313212a4d472d9fde58054610154906103b8565b601f8111610302575b507f456475636174696f6e00000000000000000000000000000000000000000000129055600560009081526020527f2b232c97452f0950c94e2539fdc7e69d21166113cf7a9bcb99b220a3fe5d720a80546101b7906103b8565b601f81116102d5575b507f546563686e6f6c6f6779000000000000000000000000000000000000000000149055600660009081526020527f62103cf3131c85df57aad364d21cba02556d3092d6cb54c298c2e7726a7870bd805461021e9061006f906103b8565b600a6427ba3432b960d91b01905560005b60068111156102775750600680546001600160a01b039283166001600160a01b0319918216179091556002805493909216921691909117905560405161377a90816104298239f35b60078110156102bf5760406000828152600160205220600160ff1982541617905560001981146102a95760010161022f565b634e487b7160e01b600052601160045260246000fd5b634e487b7160e01b600052602160045260246000fd5b81600052601f6020600020910160051c8101905b8181106102f657506101c0565b600081556001016102e9565b81600052601f6020600020910160051c8101905b818110610323575061015d565b60008155600101610316565b81600052601f6020600020910160051c8101905b818110610350575061010e565b60008155600101610343565b81600052601f6020600020910160051c8101905b81811061037d57506100c2565b60008155600101610370565b600080fd5b634e487b7160e01b600052604160045260246000fd5b51906001600160a01b038216820361038957565b90600182811c921680156103e8575b60208310146103d257565b634e487b7160e01b600052602260045260246000fd5b91607f16916103c7565b601f82116103fe575050565b600052601f6020600020910160051c8101905b81811061041c575050565b6000815560010161041156fe6080604052600436101561001257600080fd5b60003560e01c80630427bdf11461310b5780631214ee66146130df5780631fa4a5601461290f57806326e98b8b146128b257806329aa1617146128895780632ae2b664146125e05780632c90365b146123775780632c9342de146121565780633f0db8121461210e5780633f9a61e01461208257806344d0288114611ff15780635130084a14611b3357806355e6a6db146116d35780635ce9284f146116a75780635d85fa181461167e578063676eeee51461162a578063784940c5146115e65780637a37128c146115b557806387a6280f1461146957806388c52d7c146114155780638fd0f3b4146113e4578063ae169a5014611123578063aee8461314611105578063b122a0ef14610bde578063b51bcc0e14610ba8578063b7800e5314610b5e578063bb1895c814610a7d578063d42f02d11461069e578063e590b56a14610567578063ed571f06146104bc578063f2509ad5146101fc578063fa95cefb146101a85763faf5625f1461018757600080fd5b346101a35760003660031901126101a357602060405160018152f35b600080fd5b346101a3576101b6366133a9565b91600052600c60205260406000209060018060a01b031660005260205260406000209060018060a01b0316600052602052602060ff604060002054166040519015158152f35b346101a35761020a366132fe565b9080600052600f60205260ff6040600020541661047e57806000526003602052600a60406000205403610439578151156103fb5780600052600d6020526040600020918051926001600160401b0384116103e5576102688154613137565b601f811161039d575b50602093601f811160011461031357908161030393927f32b370f63ccf548a39c29203a38e84019ca7eb3569c71f02aa810aca1c02b7129596600091610308575b508160011b916000199060031b1c19161790555b83600052600f6020526040600020600160ff1982541617905583600052601060205260006040812055604051918291602083526020830190613251565b0390a2005b9050830151876102b2565b601f19811682600052856000209060005b8181106103855750916001917f32b370f63ccf548a39c29203a38e84019ca7eb3569c71f02aa810aca1c02b7129697826103039796951061036c575b5050811b0190556102c6565b85015160001960f88460031b161c191690558780610360565b85880151835560209788019760019093019201610324565b816000526020600020601f860160051c810191602087106103db575b601f0160051c01905b8181106103cf5750610271565b600081556001016103c2565b90915081906103b9565b634e487b7160e01b600052604160045260246000fd5b60405162461bcd60e51b8152602060048201526016602482015275496e76616c696420656e6372797074696f6e206b657960501b6044820152606490fd5b60405162461bcd60e51b815260206004820152601760248201527f4e656564203130207265766965776572732066697273740000000000000000006044820152606490fd5b60405162461bcd60e51b815260206004820152601660248201527512d95e5cc8185b1c9958591e4819d95b995c985d195960521b6044820152606490fd5b346101a35760203660031901126101a357600435600081815260086020526040902060038101546001600160a01b0316330361053457600d016001815461050660ff8216156134f9565b60ff19161790557fe68f10f94ca2685d65a39a1841c1e1e00e8df8b2fa15dd0562e32c33af49fe17600080a2005b60405162461bcd60e51b815260206004820152600b60248201526a2737ba1031b932b0ba37b960a91b6044820152606490fd5b346101a35760203660031901126101a35760043560005260086020526040600020805460018201610597906131ad565b906105a4600284016131ad565b60038401546004850154600586015492956001600160a01b03909216926105cd600684016131ad565b946007840154956008850154600986015491600a87015493600b88015495600c89015497600d8a015499600e01549a6040519e8f9e8f958652602086016102009052610200860161061d91613251565b858103604087015261062e91613251565b936060015260808d015260a08c01528a810360c08c015261064e91613251565b9760e08a015261010089015261012088015261014087015261016086015261018085015260ff811615156101a08501526101c084019060081c60ff169061069491613440565b6101e08301520390f35b346101a3576106ac36613362565b506000838152600860209081526040808320600983528184203385529092528083206001600160a01b03861684529220600d82015493959194919390929060ff16610a45576004015460081c60ff1615610a0f5761070d6002830154613137565b156109d457600482019360ff85541661099c57600e90610730606488111561358a565b60008581526005602090815260408083206001600160a01b038716845282528083203384529091529020546107689060ff1615613536565b01805460008581526004602090815260408083206001600160a01b038716845282528083203384529091529020805460ff19169188101560ff169190911790559260008181526005602081815260408084206001600160a01b03871685528252808420338552909152909120805460ff19166001179055830180549093906107f19088906135d6565b8094556006810196610803885461344d565b8098558554111560405190815260018060a01b03841690837fb0ad8b9f0729f50b6025f5db451debbc7da11dd3f0b6a4ecb8d8919609026b6260203393a460009360009560005b8460005260036020526040600020548110156109455784600052600560205260ff6040808060002060009060018060a01b038b1682526020522087600052600360205261089a84836000206133f9565b905460039190911b1c6001600160a01b031660009081526020919091522054166108c7575b60010161084a565b956108d19061344d565b9584600052600460205260ff6040808060002060009060018060a01b038b1682526020522087600052600360205261090c84836000206133f9565b905460039190911b1c6001600160a01b03166000908152602091909152205416156108bf579661093d60019161344d565b9790506108bf565b5087868a95600052600360205260406000205460011c111561096357005b61099a9460019361097d928560ff198254161790556135e3565b9081600385015554111591019060ff801983541691151516179055565b005b60405162461bcd60e51b815260206004820152601060248201526f105b1c9958591e481c995d9a595dd95960821b6044820152606490fd5b60405162461bcd60e51b8152602060048201526013602482015272139bc81cdd589b5a5cdcda5bdb88199bdd5b99606a1b6044820152606490fd5b60405162461bcd60e51b815260206004820152600e60248201526d2737ba1030903932bb34b2bbb2b960911b6044820152606490fd5b60405162461bcd60e51b815260206004820152601060248201526f10dbdb5b5d5b9a5d1e4818db1bdcd95960821b6044820152606490fd5b346101a35760403660031901126101a3576040610a986132e8565b60043560005260096020528160002060009160018060a01b03168252602052208054600182015491610acc600282016131ad565b60038201549160ff6004820154610b18600660058501549401549483604051998a998a52818116151560208b015260081c16151560408901526101606060890152610160880190613251565b946080870152818116151560a0870152818160081c16151560c0870152818160101c16151560e087015260181c1615156101008501526101208401526101408301520390f35b346101a357610b6c366133e3565b90600052600a602052604060002080548210156101a357602091610b8f916133f9565b905460405160039290921b1c6001600160a01b03168152f35b346101a35760203660031901126101a35760043560078110156101a35760ff610bd2602092613411565b54166040519015158152f35b60203660031901126101a357600435806000526008602052604060002090600782015434036110c057600081815260096020908152604080832033845290915290205461108a576002546040516323b872dd60e01b81523360048201523060248201526001604482015290602090829060649082906000906001600160a01b03165af190811561107e5760009161104f575b50156110125760405161016081018181106001600160401b038211176103e5576040524281526020810192600084526040820160008152602092604051610cb7858261318c565b6000815260608201908152608082019660008852600060a084015260c083019160008352610d5760e085019260008452600061010087015260006101208701526000610140870152896000526009895260408060002060009060018060a01b03331682528b52209686518855610d406001890192511515839060ff801983541691151516179055565b51815461ff00191690151560081b61ff0016179055565b519788516001600160401b0381116103e557610d766002870154613137565b601f8111610fc9575b5087601f8211600114610f2a579361014093600c9897969383610e55946006987f78da64a590c3052953ad9e0a5546bbf12bb68ae7634e3fb2a774e22a8c6557c19e9f600092610f1f575b50508160011b916000199060031b1c19161760028901555b516003880155610e236004880192610e0c60a08701511515859060ff801983541691151516179055565b51835461ff00191690151560081b61ff0016178355565b51815461010085015163ffff00001990911691151560101b62ff0000169190911790151560181b63ff00000016179055565b6101208101516005850155015191015584600052600a8352610e7b336040600020613610565b600a8101610e89815461344d565b905501610e973482546135d6565b90558260005260038152600a60406000205410610eb8575b604051338152a2005b600083815260098252604080822033808452908452818320600401805461ff001916610100179055858352600384529120610ef39190613610565b33837f8fcd9f5c27415bf85b1f568fbe33a98aaebd94a2f721378109a4a48142f1e3fb600080a3610eaf565b015190508f80610dca565b60028701600052886000209a60005b601f1984168110610fb2575093600c989796936001847f78da64a590c3052953ad9e0a5546bbf12bb68ae7634e3fb2a774e22a8c6557c19d9e6006999561014099610e5598601f19811610610f99575b505050811b016002890155610de2565b015160001960f88460031b161c191690558f8080610f89565b828201518d556001909c019b918a01918a01610f39565b6002870160005288600020601f830160051c8101918a8410611008575b601f0160051c01905b818110610ffc5750610d7f565b60008155600101610fef565b9091508190610fe6565b60405162461bcd60e51b8152602060048201526015602482015274151bdad95b881d1c985b9cd9995c8819985a5b1959605a1b6044820152606490fd5b611071915060203d602011611077575b611069818361318c565b810190613572565b83610c70565b503d61105f565b6040513d6000823e3d90fd5b60405162461bcd60e51b815260206004820152600e60248201526d105b1c9958591e481a9bda5b995960921b6044820152606490fd5b60405162461bcd60e51b815260206004820152601860248201527f496e636f7272656374206465706f73697420616d6f756e7400000000000000006044820152606490fd5b346101a35760003660031901126101a3576020600754604051908152f35b346101a35760203660031901126101a357600435600081815260086020908152604080832060098352818420338552909252909120600d82015461116a9060ff161561347c565b60ff600482015416156113ac57600101805460ff8160081c166113755760ff811615611330576000848152600b60209081526040808320338085529252822080548392909190835b8381106112b7575050505081611257575b50506101009061ff001916179055600080808061120c600886015495600b81016111ee888254613603565b9055600c60078201549101611204828254613603565b9055866135d6565b81811561124e575b3390f11561107e5760407f24b5efa61dd1cfc659205a97fb8ed868f3cb8c81922bab2b96423e5de1de2cb7918151903382526020820152a2005b506108fc611214565b90611261916135e3565b600e840154116112725784806111c3565b60405162461bcd60e51b815260206004820152601960248201527f446964206e6f7420706173732073656e617465206175646974000000000000006044820152606490fd5b89600052600c60205260ff60408080600020600090868252602052206112dd8487613330565b50546001600160a01b03166000908152602091909152205416611303575b6001016111b2565b9493611328611322600192836113198a88613330565b500154906135d6565b9561344d565b9590506112fb565b60405162461bcd60e51b815260206004820152601e60248201527f5461736b206e6f7420617070726f7665642062792072657669657765727300006044820152606490fd5b60405162461bcd60e51b815260206004820152600f60248201526e105b1c9958591e4818db185a5b5959608a1b6044820152606490fd5b60405162461bcd60e51b815260206004820152601060248201526f139bdd081c995d9a595dd959081e595d60821b6044820152606490fd5b346101a3576113f2366133e3565b906000526003602052604060002080548210156101a357602091610b8f916133f9565b346101a357611423366133a9565b91600052600560205260406000209060018060a01b031660005260205260406000209060018060a01b0316600052602052602060ff604060002054166040519015158152f35b346101a35760403660031901126101a3576114826132e8565b600435600052600b60205260406000209060018060a01b031660005260205260406000208054906001600160401b0382116103e557604051916114cb60208260051b018461318c565b80835260208301809260005260206000206000915b83831061157057848660405191829160208301906020845251809152604083019060408160051b85010192916000905b82821061151f57505050500390f35b919360019193955060206115608192603f198a8203018652606060408a51878060a01b03815116845285810151868501520151918160408201520190613251565b9601920192018594939192611510565b6003602060019260405161158381613171565b848060a01b03865416815284860154838201526115a2600287016131ad565b60408201528152019201920191906114e0565b346101a35760203660031901126101a357600435600052600f602052602060ff604060002054166040519015158152f35b346101a35760203660031901126101a357600435600052600060205261162661161260406000206131ad565b604051918291602083526020830190613251565b0390f35b346101a357611638366133a9565b91600052600460205260406000209060018060a01b031660005260205260406000209060018060a01b0316600052602052602060ff604060002054166040519015158152f35b346101a35760003660031901126101a3576006546040516001600160a01b039091168152602090f35b346101a35760203660031901126101a357600435600052600a6020526020604060002054604051908152f35b346101a35760803660031901126101a3576004356116ef6132e8565b906044356001600160401b0381116101a35761170f903690600401613292565b9160643592831515938481036101a35783600052600f60205260ff6040600020541615611af557815115611ab85715611a0757611786602060018060a01b0360065416856000526008825260ff600d6040600020015460081c16906040518080958194630eb2f16160e41b8352896004840161345c565b03915afa90811561107e576000916119e8575b50156119ad575b82600052600e602052604060002060018060a01b0383166000526020526117cb604060002054613137565b611976576000838152600e602090815260408083206001600160a01b03861684529091529020815190916001600160401b0382116103e55761180d8354613137565b601f811161192e575b50602090601f83116001146118a2579180602094927f6db43700e50037b5cb5c847340cd6a7e0d93ee38e5b64acbccf2788c67a692679694600092611897575b50508160011b916000199060031b1c19161790555b83600052601082526040600020611882815461344d565b90556040519485526001600160a01b031693a3005b015190508880611856565b90601f1983169184600052816000209260005b81811061191657509260019285927f6db43700e50037b5cb5c847340cd6a7e0d93ee38e5b64acbccf2788c67a69267989660209896106118fd575b505050811b01905561186b565b015160001960f88460031b161c191690558880806118f0565b929360206001819287860151815501950193016118b5565b836000526020600020601f840160051c8101916020851061196c575b601f0160051c01905b8181106119605750611816565b60008155600101611953565b909150819061194a565b60405162461bcd60e51b815260206004820152600f60248201526e12d95e48185b1c9958591e481cd95d608a1b6044820152606490fd5b60405162461bcd60e51b81526020600482015260136024820152722737ba1030903b30b634b21039b2b730ba37b960691b6044820152606490fd5b611a01915060203d60201161107757611069818361318c565b85611799565b60009291906001600160a01b038216845b846000526003602052604060002054811015611aae5784600052600360205281611a468260406000206133f9565b905460039190911b1c6001600160a01b031614611a6557600101611a18565b50509091925060015b6117a05760405162461bcd60e51b81526020600482015260146024820152732737ba1030903b30b634b2103932bb34b2bbb2b960611b6044820152606490fd5b5050909192611a6e565b60405162461bcd60e51b8152602060048201526015602482015274496e76616c696420656e63727970746564206b657960581b6044820152606490fd5b60405162461bcd60e51b815260206004820152601660248201527512d95e5cc81b9bdd0819d95b995c985d1959081e595d60521b6044820152606490fd5b346101a357611b4136613362565b929091611b88602060018060a01b0360065416846000526008825260ff600d6040600020015460081c16906040518080958194630eb2f16160e41b8352336004840161345c565b03915afa90811561107e57600091611fd2575b5015611f9457611bae606484111561358a565b6000828152600c602090815260408083206001600160a01b0385168452825280832033845290915290205460ff16611f5e5781600052600960205260408060002060009060018060a01b0384168252602052209260ff60048501541615611f195782600052600b60205260408060002060009060018060a01b03851682526020522060405190611c3d82613171565b3382526020820190838252604083019788528054600160401b8110156103e557611c6c91600182018155613330565b919091611f0357915181546001600160a01b0319166001600160a01b039190911617815590516001820155945180519095600201906001600160401b0381116103e557611cb98254613137565b601f8111611ebb575b506020601f8211600114611e515781906040969798600092611e46575b50508160011b916000199060031b1c19161790555b6000848152600c60209081528482206001600160a01b0385168084529082528583203380855290835292869020805460ff191660011790558551938452919286917f378f514d49e4abb7486bee29952af6519de11cb70a74cd68479f52457b0518f791a482600052600b6020528160002060009160018060a01b03168252602052208054916000906000926000915b858310611dec57505050600383101580918192611ddf575b5015611dc2575060019291611daf916135e3565b600382015501805460ff19166001179055005b915050611dcb57005b60006003820155600101805460ff19169055005b90508360011c1085611d9b565b909193611dff9060016113198786613330565b936001611e0c8285613330565b500154826000526008602052600e604060002001541115611e32575b6001019190611d83565b92611e3e60019161344d565b939050611e28565b015190508880611cdf565b601f1982169783600052816000209860005b818110611ea3575091604097989991846001959410611e8a575b505050811b019055611cf4565b015160001960f88460031b161c19169055888080611e7d565b838301518b556001909a019960209384019301611e63565b826000526020600020601f830160051c81019160208410611ef9575b601f0160051c01905b818110611eed5750611cc2565b60008155600101611ee0565b9091508190611ed7565b634e487b7160e01b600052600060045260246000fd5b60405162461bcd60e51b815260206004820152601d60248201527f4e6f7420726576696577656420627920726576696577657273207965740000006044820152606490fd5b60405162461bcd60e51b815260206004820152600e60248201526d105b1c9958591e481cd8dbdc995960921b6044820152606490fd5b60405162461bcd60e51b81526020600482015260166024820152752737ba1030baba3437b934bd32b21039b2b730ba37b960511b6044820152606490fd5b611feb915060203d60201161107757611069818361318c565b85611b9b565b346101a35760603660031901126101a35761200a6132e8565b60443590600435600052600b60205260406000209060018060a01b031660005260205260406000209081548110156101a35761204591613330565b5060018060a01b038154166116266120646002600185015494016131ad565b60405193849384526020840152606060408401526060830190613251565b346101a35760203660031901126101a35760043560078110156101a35760ff6120aa82613411565b5416156120c957600052600060205261162661161260406000206131ad565b60405162461bcd60e51b815260206004820152601760248201527f43617465676f727920646f6573206e6f742065786973740000000000000000006044820152606490fd5b346101a35760403660031901126101a3576121276132e8565b600435600052600e60205260406000209060018060a01b031660005260205261162661161260406000206131ad565b346101a35760403660031901126101a3576004356024358015158082036101a35782600052600860205261220a604060002092846000526009602052604060002060018060a01b0333166000526020526004600d60406000209501946121c060ff875416156134f9565b6121cc815415156134be565b016201000081546121e360ff8260101c1615613536565b63ff0000001990911663ffff0000199091161791151560181b63ff00000016919091179055565b604051908152827fa953b79a8bda2946b1e815d9e09876df8d499a7d04ace4eccec405ae4a96cf0860203393a3600080805b84600052600a6020526040600020548110156122df57846000526009602052600460408060002087600052600a60205261227984836000206133f9565b905460039190911b1c6001600160a01b03166000908152602091909152200154601081901c60ff166122af575b5060010161223c565b916122bb60ff9161344d565b9260181c166122cb575b856122a6565b916122d760019161344d565b9290506122c5565b5080159182159283612330575b5050506122f557005b805460ff1916600117905561230981613651565b7fe68f10f94ca2685d65a39a1841c1e1e00e8df8b2fa15dd0562e32c33af49fe17600080a2005b90919250600382029180830460031490151715612361578260011b92830460021417156123615710158380806122ec565b634e487b7160e01b600052601160045260246000fd5b346101a35760203660031901126101a357600435600081815260086020526040902060038101546001600160a01b0316330361259b57806123c160ff600d600594015416156134f9565b015442106125625760405160018152817fa953b79a8bda2946b1e815d9e09876df8d499a7d04ace4eccec405ae4a96cf0860203393a36000818152600960209081526040808320338085528184528285206004808201805463ffff00001916630101000017905587875260088652938620919095529252600d909101805490929061244f9060ff16156134f9565b61245b815415156134be565b0162010000815461247260ff8260101c1615613536565b62ff00001916178155630100000063ff0000001982541617905560405160018152827fa953b79a8bda2946b1e815d9e09876df8d499a7d04ace4eccec405ae4a96cf0860203393a3600080805b84600052600a6020526040600020548110156122df57846000526009602052600460408060002087600052600a6020526124fc84836000206133f9565b905460039190911b1c6001600160a01b03166000908152602091909152200154601081901c60ff16612532575b506001016124bf565b9161253e60ff9161344d565b9260181c1661254e575b85612529565b9161255a60019161344d565b929050612548565b60405162461bcd60e51b8152602060048201526011602482015270436f6d6d756e697479206f6e676f696e6760781b6044820152606490fd5b60405162461bcd60e51b815260206004820152601860248201527f4f6e6c792063726561746f722063616e2070726f706f736500000000000000006044820152606490fd5b346101a3576125ee366132fe565b600082815260086020908152604080832060098352818420338552909252909120600d909101549192916126259060ff161561347c565b612631815415156134be565b60ff600482015416612850578251156128145781600052600f60205260ff60406000205416156127cf57600201918051926001600160401b0384116103e55761267a8154613137565b601f8111612787575b50602093601f81116001146126fd57908161030393927fbf478fda32150efbea16148df9d2dc95245fe55fe761f2bd87b66ce55637b2af95966000916126f2575b508160011b916000199060031b1c19161790555b604051918291338352604060208401526040830190613251565b9050830151876126c4565b601f19811682600052856000209060005b81811061276f5750916001917fbf478fda32150efbea16148df9d2dc95245fe55fe761f2bd87b66ce55637b2af96978261030397969510612756575b5050811b0190556126d8565b85015160001960f88460031b161c19169055878061274a565b8588015183556020978801976001909301920161270e565b816000526020600020601f860160051c810191602087106127c5575b601f0160051c01905b8181106127b95750612683565b600081556001016127ac565b90915081906127a3565b60405162461bcd60e51b815260206004820152601c60248201527f436f6d6d756e697479206b657973206e6f742067656e657261746564000000006044820152606490fd5b60405162461bcd60e51b8152602060048201526014602482015273115b5c1d1e481cdd589b5a5cdcda5bdb8815549360621b6044820152606490fd5b60405162461bcd60e51b8152602060048201526011602482015270105b1c9958591e481cdd589b5a5d1d1959607a1b6044820152606490fd5b346101a35760003660031901126101a3576002546040516001600160a01b039091168152602090f35b346101a35760403660031901126101a3576128cb6132e8565b600435600052600960205260406000209060018060a01b031660005260205260408060002060ff600181600484015416920154168251911515825215156020820152f35b6101203660031901126101a3576004356001600160401b0381116101a35761293b903690600401613292565b6024356001600160401b0381116101a35761295a903690600401613292565b6044356001600160401b0381116101a357612979903690600401613292565b916064359260a43560c4359160e43560076101043510156101a3574287111561309a578215613055578315613005578015612fc0578084029084820403612361573410612f7b57602495600754956129d08761344d565b600755600654604051631ce87ebb60e01b8152986020918a919082906001600160a01b0316612a056004830161010435613440565b5afa97881561107e57600098612f47575b506040519561020087018781106001600160401b038211176103e55760405287875260208701526040860152336060860152608085015260843560a085015260c084015260e08301526101008201526064610120820152600061014082015234610160820152600061018082015260006101a0820152600092610104356101c08301526101e0820152818352600860205260408320908051825560208101518051906001600160401b038211612da1578190612ad56001860154613137565b601f8111612ef7575b50602090601f8311600114612e89578792612e7e575b50508160011b916000199060031b1c19161760018301555b60408101518051906001600160401b038211612da1578190612b316002860154613137565b601f8111612e2e575b50602090601f8311600114612dc0578792612db5575b50508160011b916000199060031b1c19161760028301555b60608101516003830180546001600160a01b0319166001600160a01b03929092169190911790556080810151600483015560a0810151600583015560c08101518051906001600160401b038211612da1578190612bc86006860154613137565b601f8111612d51575b50602090601f8311600114612ce8578792612cdd575b50508160011b916000199060031b1c19161760068301555b60e0810151600783015561010081015160088301556101208101516009830155610140810151600a830155610160810151600b830155610180810151600c830155600d8201612c616101a08301511515829060ff801983541691151516179055565b6101c08201516007811015612cc957916101e091600e9361ff0082549160081b169061ff00191617905501519101557f4406e0fd454e0f528174e628e0716cd1972c77f1fffd2faa8d73f468957ff39160405180612cc361010435338361345c565b0390a280f35b634e487b7160e01b86526021600452602486fd5b015190508680612be7565b6006860188528188209250601f198416885b818110612d395750908460019594939210612d20575b505050811b016006830155612bff565b015160001960f88460031b161c19169055868080612d10565b92936020600181928786015181550195019301612cfa565b90915060068501875260208720601f840160051c810160208510612d9a575b90849392915b601f830160051c82018110612d8c575050612bd1565b898155859450600101612d76565b5080612d70565b634e487b7160e01b86526041600452602486fd5b015190508680612b50565b92506002850187528087209087935b601f1984168510612e13576001945083601f19811610612dfa575b505050811b016002830155612b68565b015160001960f88460031b161c19169055868080612dea565b81810151835560209485019460019093019290910190612dcf565b90915060028501875260208720601f840160051c810160208510612e77575b90849392915b601f830160051c82018110612e69575050612b3a565b898155859450600101612e53565b5080612e4d565b015190508680612af4565b92506001850187528087209087935b601f1984168510612edc576001945083601f19811610612ec3575b505050811b016001830155612b0c565b015160001960f88460031b161c19169055868080612eb3565b81810151835560209485019460019093019290910190612e98565b90915060018501875260208720601f840160051c810160208510612f40575b90849392915b601f830160051c82018110612f32575050612ade565b898155859450600101612f1c565b5080612f16565b9097506020813d602011612f73575b81612f636020938361318c565b810103126101a357519688612a16565b3d9150612f56565b60405162461bcd60e51b815260206004820152601860248201527f496e73756666696369656e742072657761726420706f6f6c00000000000000006044820152606490fd5b60405162461bcd60e51b815260206004820152601c60248201527f4d6178206d656d62657273206d75737420626520706f736974697665000000006044820152606490fd5b60405162461bcd60e51b815260206004820152602260248201527f52657761726420706572206d656d626572206d75737420626520706f73697469604482015261766560f01b6064820152608490fd5b60405162461bcd60e51b815260206004820152601f60248201527f4d656d626572206465706f736974206d75737420626520706f736974697665006044820152606490fd5b60405162461bcd60e51b815260206004820152601c60248201527f53746172742074696d65206d75737420626520696e20667574757265000000006044820152606490fd5b346101a35760203660031901126101a35760043560005260106020526020604060002054604051908152f35b346101a35760203660031901126101a357600435600052600d60205261162661161260406000206131ad565b90600182811c92168015613167575b602083101461315157565b634e487b7160e01b600052602260045260246000fd5b91607f1691613146565b606081019081106001600160401b038211176103e557604052565b90601f801991011681019081106001600160401b038211176103e557604052565b90604051918260008254926131c184613137565b808452936001811690811561322f57506001146131e8575b506131e69250038361318c565b565b90506000929192526020600020906000915b8183106132135750509060206131e692820101386131d9565b60209193508060019154838589010152019101909184926131fa565b9050602092506131e694915060ff191682840152151560051b820101386131d9565b919082519283825260005b84811061327d575050826000602080949584010152601f8019910116010190565b8060208092840101518282860101520161325c565b81601f820112156101a3578035906001600160401b0382116103e557604051926132c6601f8401601f19166020018561318c565b828452602083830101116101a357816000926020809301838601378301015290565b602435906001600160a01b03821682036101a357565b9060406003198301126101a35760043591602435906001600160401b0382116101a35761332d91600401613292565b90565b805482101561334c576000526003602060002091020190600090565b634e487b7160e01b600052603260045260246000fd5b9060806003198301126101a357600435916024356001600160a01b03811681036101a3579160443591606435906001600160401b0382116101a35761332d91600401613292565b60609060031901126101a357600435906024356001600160a01b03811681036101a357906044356001600160a01b03811681036101a35790565b60409060031901126101a3576004359060243590565b805482101561334c5760005260206000200190600090565b600781101561342a576000526001602052604060002090565b634e487b7160e01b600052602160045260246000fd5b90600782101561342a5752565b60001981146123615760010190565b6001600160a01b0390911681526040810192916131e69160200190613440565b1561348357565b60405162461bcd60e51b815260206004820152601360248201527210dbdb5b5d5b9a5d1e481a5cc818db1bdcd959606a1b6044820152606490fd5b156134c557565b60405162461bcd60e51b815260206004820152600c60248201526b2737ba10309036b2b6b132b960a11b6044820152606490fd5b1561350057565b60405162461bcd60e51b815260206004820152600e60248201526d105b1c9958591e4818db1bdcd95960921b6044820152606490fd5b1561353d57565b60405162461bcd60e51b815260206004820152600d60248201526c105b1c9958591e481d9bdd1959609a1b6044820152606490fd5b908160209103126101a3575180151581036101a35790565b1561359157565b60405162461bcd60e51b815260206004820152601f60248201527f53636f7265206d757374206265206265747765656e203020616e6420313030006044820152606490fd5b9190820180921161236157565b81156135ed570490565b634e487b7160e01b600052601260045260246000fd5b9190820391821161236157565b8054600160401b8110156103e55761362d916001820181556133f9565b81546001600160a01b0393841660039290921b91821b9390911b1916919091179055565b80600052600860205260406000209080600052600a602052604060002054801561373f57600b83019161368c600c84549501948554906135d6565b8015613738578261369c916135e3565b9060005b8381106136b4575050505090600080925555565b81600052600a602052826136cc8260406000206133f9565b9054600085815260096020908152604080832060039590951b9390931c6001600160a01b0316808352939052206001015460081c60ff1615613713575b50506001016136a0565b6000808093819382821561372f575bf11561107e578238613709565b506108fc613722565b5050505050565b50505056fea2646970667358221220113c655e7a506974676943ab2f9443a782a87d523e97c58be51a77a1381d2b8d64736f6c634300081c0033","opcodes":"PUSH1 0x80 CALLVALUE PUSH2 0x389 JUMPI PUSH1 0x1F PUSH2 0x3BA3 CODESIZE DUP2 SWAP1 SUB SWAP2 DUP3 ADD PUSH1 0x1F NOT AND DUP4 ADD SWAP2 PUSH1 0x1 PUSH1 0x1 PUSH1 0x40 SHL SUB DUP4 GT DUP5 DUP5 LT OR PUSH2 0x38E JUMPI DUP1 DUP5 SWAP3 PUSH1 0x40 SWAP5 DUP6 MSTORE DUP4 CODECOPY DUP2 ADD SUB SLT PUSH2 0x389 JUMPI PUSH2 0x52 PUSH1 0x20 PUSH2 0x4B DUP4 PUSH2 0x3A4 JUMP JUMPDEST SWAP3 ADD PUSH2 0x3A4 JUMP JUMPDEST SWAP1 PUSH1 0x1 PUSH1 0x0 MSTORE PUSH1 0x0 PUSH1 0x20 MSTORE PUSH1 0x40 PUSH1 0x0 KECCAK256 PUSH2 0x75 PUSH2 0x6F DUP3 SLOAD PUSH2 0x3B8 JUMP JUMPDEST DUP3 PUSH2 0x3F2 JUMP JUMPDEST PUSH1 0xA PUSH5 0x4D75736963 PUSH1 0xD8 SHL ADD SWAP1 SSTORE PUSH1 0x2 PUSH1 0x0 SWAP1 DUP2 MSTORE PUSH1 0x20 MSTORE PUSH32 0xABBB5CAA7DDA850E60932DE0934EB1F9D0F59695050F761DC64E443E5030A569 DUP1 SLOAD PUSH2 0xB9 SWAP1 PUSH2 0x3B8 JUMP JUMPDEST PUSH1 0x1F DUP2 GT PUSH2 0x35C JUMPI JUMPDEST POP PUSH1 0x6 PUSH3 0x105C9D PUSH1 0xEA SHL ADD SWAP1 SSTORE PUSH1 0x3 PUSH1 0x0 SWAP1 DUP2 MSTORE PUSH1 0x20 MSTORE PUSH32 0x101E368776582E57AB3D116FFE2517C0A585CD5B23174B01E275C2D8329C3D83 DUP1 SLOAD PUSH2 0x105 SWAP1 PUSH2 0x3B8 JUMP JUMPDEST PUSH1 0x1F DUP2 GT PUSH2 0x32F JUMPI JUMPDEST POP PUSH1 0xC PUSH6 0x53706F727473 PUSH1 0xD0 SHL ADD SWAP1 SSTORE PUSH1 0x4 PUSH1 0x0 SWAP1 DUP2 MSTORE PUSH1 0x20 MSTORE PUSH32 0x52D75039926638D3C558B2BDEFB945D5BE8DAE29DEDD1C313212A4D472D9FDE5 DUP1 SLOAD PUSH2 0x154 SWAP1 PUSH2 0x3B8 JUMP JUMPDEST PUSH1 0x1F DUP2 GT PUSH2 0x302 JUMPI JUMPDEST POP PUSH32 0x456475636174696F6E0000000000000000000000000000000000000000000012 SWAP1 SSTORE PUSH1 0x5 PUSH1 0x0 SWAP1 DUP2 MSTORE PUSH1 0x20 MSTORE PUSH32 0x2B232C97452F0950C94E2539FDC7E69D21166113CF7A9BCB99B220A3FE5D720A DUP1 SLOAD PUSH2 0x1B7 SWAP1 PUSH2 0x3B8 JUMP JUMPDEST PUSH1 0x1F DUP2 GT PUSH2 0x2D5 JUMPI JUMPDEST POP PUSH32 0x546563686E6F6C6F677900000000000000000000000000000000000000000014 SWAP1 SSTORE PUSH1 0x6 PUSH1 0x0 SWAP1 DUP2 MSTORE PUSH1 0x20 MSTORE PUSH32 0x62103CF3131C85DF57AAD364D21CBA02556D3092D6CB54C298C2E7726A7870BD DUP1 SLOAD PUSH2 0x21E SWAP1 PUSH2 0x6F SWAP1 PUSH2 0x3B8 JUMP JUMPDEST PUSH1 0xA PUSH5 0x27BA3432B9 PUSH1 0xD9 SHL ADD SWAP1 SSTORE PUSH1 0x0 JUMPDEST PUSH1 0x6 DUP2 GT ISZERO PUSH2 0x277 JUMPI POP PUSH1 0x6 DUP1 SLOAD PUSH1 0x1 PUSH1 0x1 PUSH1 0xA0 SHL SUB SWAP3 DUP4 AND PUSH1 0x1 PUSH1 0x1 PUSH1 0xA0 SHL SUB NOT SWAP2 DUP3 AND OR SWAP1 SWAP2 SSTORE PUSH1 0x2 DUP1 SLOAD SWAP4 SWAP1 SWAP3 AND SWAP3 AND SWAP2 SWAP1 SWAP2 OR SWAP1 SSTORE PUSH1 0x40 MLOAD PUSH2 0x377A SWAP1 DUP2 PUSH2 0x429 DUP3 CODECOPY RETURN JUMPDEST PUSH1 0x7 DUP2 LT ISZERO PUSH2 0x2BF JUMPI PUSH1 0x40 PUSH1 0x0 DUP3 DUP2 MSTORE PUSH1 0x1 PUSH1 0x20 MSTORE KECCAK256 PUSH1 0x1 PUSH1 0xFF NOT DUP3 SLOAD AND OR SWAP1 SSTORE PUSH1 0x0 NOT DUP2 EQ PUSH2 0x2A9 JUMPI PUSH1 0x1 ADD PUSH2 0x22F JUMP JUMPDEST PUSH4 0x4E487B71 PUSH1 0xE0 SHL PUSH1 0x0 MSTORE PUSH1 0x11 PUSH1 0x4 MSTORE PUSH1 0x24 PUSH1 0x0 REVERT JUMPDEST PUSH4 0x4E487B71 PUSH1 0xE0 SHL PUSH1 0x0 MSTORE PUSH1 0x21 PUSH1 0x4 MSTORE PUSH1 0x24 PUSH1 0x0 REVERT JUMPDEST DUP2 PUSH1 0x0 MSTORE PUSH1 0x1F PUSH1 0x20 PUSH1 0x0 KECCAK256 SWAP2 ADD PUSH1 0x5 SHR DUP2 ADD SWAP1 JUMPDEST DUP2 DUP2 LT PUSH2 0x2F6 JUMPI POP PUSH2 0x1C0 JUMP JUMPDEST PUSH1 0x0 DUP2 SSTORE PUSH1 0x1 ADD PUSH2 0x2E9 JUMP JUMPDEST DUP2 PUSH1 0x0 MSTORE PUSH1 0x1F PUSH1 0x20 PUSH1 0x0 KECCAK256 SWAP2 ADD PUSH1 0x5 SHR DUP2 ADD SWAP1 JUMPDEST DUP2 DUP2 LT PUSH2 0x323 JUMPI POP PUSH2 0x15D JUMP JUMPDEST PUSH1 0x0 DUP2 SSTORE PUSH1 0x1 ADD PUSH2 0x316 JUMP JUMPDEST DUP2 PUSH1 0x0 MSTORE PUSH1 0x1F PUSH1 0x20 PUSH1 0x0 KECCAK256 SWAP2 ADD PUSH1 0x5 SHR DUP2 ADD SWAP1 JUMPDEST DUP2 DUP2 LT PUSH2 0x350 JUMPI POP PUSH2 0x10E JUMP JUMPDEST PUSH1 0x0 DUP2 SSTORE PUSH1 0x1 ADD PUSH2 0x343 JUMP JUMPDEST DUP2 PUSH1 0x0 MSTORE PUSH1 0x1F PUSH1 0x20 PUSH1 0x0 KECCAK256 SWAP2 ADD PUSH1 0x5 SHR DUP2 ADD SWAP1 JUMPDEST DUP2 DUP2 LT PUSH2 0x37D JUMPI POP PUSH2 0xC2 JUMP JUMPDEST PUSH1 0x0 DUP2 SSTORE PUSH1 0x1 ADD PUSH2 0x370 JUMP JUMPDEST PUSH1 0x0 DUP1 REVERT JUMPDEST PUSH4 0x4E487B71 PUSH1 0xE0 SHL PUSH1 0x0 MSTORE PUSH1 0x41 PUSH1 0x4 MSTORE PUSH1 0x24 PUSH1 0x0 REVERT JUMPDEST MLOAD SWAP1 PUSH1 0x1 PUSH1 0x1 PUSH1 0xA0 SHL SUB DUP3 AND DUP3 SUB PUSH2 0x389 JUMPI JUMP JUMPDEST SWAP1 PUSH1 0x1 DUP3 DUP2 SHR SWAP3 AND DUP1 ISZERO PUSH2 0x3E8 JUMPI JUMPDEST PUSH1 0x20 DUP4 LT EQ PUSH2 0x3D2 JUMPI JUMP JUMPDEST PUSH4 0x4E487B71 PUSH1 0xE0 SHL PUSH1 0x0 MSTORE PUSH1 0x22 PUSH1 0x4 MSTORE PUSH1 0x24 PUSH1 0x0 REVERT JUMPDEST SWAP2 PUSH1 0x7F AND SWAP2 PUSH2 0x3C7 JUMP JUMPDEST PUSH1 0x1F DUP3 GT PUSH2 0x3FE JUMPI POP POP JUMP JUMPDEST PUSH1 0x0 MSTORE PUSH1 0x1F PUSH1 0x20 PUSH1 0x0 KECCAK256 SWAP2 ADD PUSH1 0x5 SHR DUP2 ADD SWAP1 JUMPDEST DUP2 DUP2 LT PUSH2 0x41C JUMPI POP POP JUMP JUMPDEST PUSH1 0x0 DUP2 SSTORE PUSH1 0x1 ADD PUSH2 0x411 JUMP INVALID PUSH1 0x80 PUSH1 0x40 MSTORE PUSH1 0x4 CALLDATASIZE LT ISZERO PUSH2 0x12 JUMPI PUSH1 0x0 DUP1 REVERT JUMPDEST PUSH1 0x0 CALLDATALOAD PUSH1 0xE0 SHR DUP1 PUSH4 0x427BDF1 EQ PUSH2 0x310B JUMPI DUP1 PUSH4 0x1214EE66 EQ PUSH2 0x30DF JUMPI DUP1 PUSH4 0x1FA4A560 EQ PUSH2 0x290F JUMPI DUP1 PUSH4 0x26E98B8B EQ PUSH2 0x28B2 JUMPI DUP1 PUSH4 0x29AA1617 EQ PUSH2 0x2889 JUMPI DUP1 PUSH4 0x2AE2B664 EQ PUSH2 0x25E0 JUMPI DUP1 PUSH4 0x2C90365B EQ PUSH2 0x2377 JUMPI DUP1 PUSH4 0x2C9342DE EQ PUSH2 0x2156 JUMPI DUP1 PUSH4 0x3F0DB812 EQ PUSH2 0x210E JUMPI DUP1 PUSH4 0x3F9A61E0 EQ PUSH2 0x2082 JUMPI DUP1 PUSH4 0x44D02881 EQ PUSH2 0x1FF1 JUMPI DUP1 PUSH4 0x5130084A EQ PUSH2 0x1B33 JUMPI DUP1 PUSH4 0x55E6A6DB EQ PUSH2 0x16D3 JUMPI DUP1 PUSH4 0x5CE9284F EQ PUSH2 0x16A7 JUMPI DUP1 PUSH4 0x5D85FA18 EQ PUSH2 0x167E JUMPI DUP1 PUSH4 0x676EEEE5 EQ PUSH2 0x162A JUMPI DUP1 PUSH4 0x784940C5 EQ PUSH2 0x15E6 JUMPI DUP1 PUSH4 0x7A37128C EQ PUSH2 0x15B5 JUMPI DUP1 PUSH4 0x87A6280F EQ PUSH2 0x1469 JUMPI DUP1 PUSH4 0x88C52D7C EQ PUSH2 0x1415 JUMPI DUP1 PUSH4 0x8FD0F3B4 EQ PUSH2 0x13E4 JUMPI DUP1 PUSH4 0xAE169A50 EQ PUSH2 0x1123 JUMPI DUP1 PUSH4 0xAEE84613 EQ PUSH2 0x1105 JUMPI DUP1 PUSH4 0xB122A0EF EQ PUSH2 0xBDE JUMPI DUP1 PUSH4 0xB51BCC0E EQ PUSH2 0xBA8 JUMPI DUP1 PUSH4 0xB7800E53 EQ PUSH2 0xB5E JUMPI DUP1 PUSH4 0xBB1895C8 EQ PUSH2 0xA7D JUMPI DUP1 PUSH4 0xD42F02D1 EQ PUSH2 0x69E JUMPI DUP1 PUSH4 0xE590B56A EQ PUSH2 0x567 JUMPI DUP1 PUSH4 0xED571F06 EQ PUSH2 0x4BC JUMPI DUP1 PUSH4 0xF2509AD5 EQ PUSH2 0x1FC JUMPI DUP1 PUSH4 0xFA95CEFB EQ PUSH2 0x1A8 JUMPI PUSH4 0xFAF5625F EQ PUSH2 0x187 JUMPI PUSH1 0x0 DUP1 REVERT JUMPDEST CALLVALUE PUSH2 0x1A3 JUMPI PUSH1 0x0 CALLDATASIZE PUSH1 0x3 NOT ADD SLT PUSH2 0x1A3 JUMPI PUSH1 0x20 PUSH1 0x40 MLOAD PUSH1 0x1 DUP2 MSTORE RETURN JUMPDEST PUSH1 0x0 DUP1 REVERT JUMPDEST CALLVALUE PUSH2 0x1A3 JUMPI PUSH2 0x1B6 CALLDATASIZE PUSH2 0x33A9 JUMP JUMPDEST SWAP2 PUSH1 0x0 MSTORE PUSH1 0xC PUSH1 0x20 MSTORE PUSH1 0x40 PUSH1 0x0 KECCAK256 SWAP1 PUSH1 0x1 DUP1 PUSH1 0xA0 SHL SUB AND PUSH1 0x0 MSTORE PUSH1 0x20 MSTORE PUSH1 0x40 PUSH1 0x0 KECCAK256 SWAP1 PUSH1 0x1 DUP1 PUSH1 0xA0 SHL SUB AND PUSH1 0x0 MSTORE PUSH1 0x20 MSTORE PUSH1 0x20 PUSH1 0xFF PUSH1 0x40 PUSH1 0x0 KECCAK256 SLOAD AND PUSH1 0x40 MLOAD SWAP1 ISZERO ISZERO DUP2 MSTORE RETURN JUMPDEST CALLVALUE PUSH2 0x1A3 JUMPI PUSH2 0x20A CALLDATASIZE PUSH2 0x32FE JUMP JUMPDEST SWAP1 DUP1 PUSH1 0x0 MSTORE PUSH1 0xF PUSH1 0x20 MSTORE PUSH1 0xFF PUSH1 0x40 PUSH1 0x0 KECCAK256 SLOAD AND PUSH2 0x47E JUMPI DUP1 PUSH1 0x0 MSTORE PUSH1 0x3 PUSH1 0x20 MSTORE PUSH1 0xA PUSH1 0x40 PUSH1 0x0 KECCAK256 SLOAD SUB PUSH2 0x439 JUMPI DUP2 MLOAD ISZERO PUSH2 0x3FB JUMPI DUP1 PUSH1 0x0 MSTORE PUSH1 0xD PUSH1 0x20 MSTORE PUSH1 0x40 PUSH1 0x0 KECCAK256 SWAP2 DUP1 MLOAD SWAP3 PUSH1 0x1 PUSH1 0x1 PUSH1 0x40 SHL SUB DUP5 GT PUSH2 0x3E5 JUMPI PUSH2 0x268 DUP2 SLOAD PUSH2 0x3137 JUMP JUMPDEST PUSH1 0x1F DUP2 GT PUSH2 0x39D JUMPI JUMPDEST POP PUSH1 0x20 SWAP4 PUSH1 0x1F DUP2 GT PUSH1 0x1 EQ PUSH2 0x313 JUMPI SWAP1 DUP2 PUSH2 0x303 SWAP4 SWAP3 PUSH32 0x32B370F63CCF548A39C29203A38E84019CA7EB3569C71F02AA810ACA1C02B712 SWAP6 SWAP7 PUSH1 0x0 SWAP2 PUSH2 0x308 JUMPI JUMPDEST POP DUP2 PUSH1 0x1 SHL SWAP2 PUSH1 0x0 NOT SWAP1 PUSH1 0x3 SHL SHR NOT AND OR SWAP1 SSTORE JUMPDEST DUP4 PUSH1 0x0 MSTORE PUSH1 0xF PUSH1 0x20 MSTORE PUSH1 0x40 PUSH1 0x0 KECCAK256 PUSH1 0x1 PUSH1 0xFF NOT DUP3 SLOAD AND OR SWAP1 SSTORE DUP4 PUSH1 0x0 MSTORE PUSH1 0x10 PUSH1 0x20 MSTORE PUSH1 0x0 PUSH1 0x40 DUP2 KECCAK256 SSTORE PUSH1 0x40 MLOAD SWAP2 DUP3 SWAP2 PUSH1 0x20 DUP4 MSTORE PUSH1 0x20 DUP4 ADD SWAP1 PUSH2 0x3251 JUMP JUMPDEST SUB SWAP1 LOG2 STOP JUMPDEST SWAP1 POP DUP4 ADD MLOAD DUP8 PUSH2 0x2B2 JUMP JUMPDEST PUSH1 0x1F NOT DUP2 AND DUP3 PUSH1 0x0 MSTORE DUP6 PUSH1 0x0 KECCAK256 SWAP1 PUSH1 0x0 JUMPDEST DUP2 DUP2 LT PUSH2 0x385 JUMPI POP SWAP2 PUSH1 0x1 SWAP2 PUSH32 0x32B370F63CCF548A39C29203A38E84019CA7EB3569C71F02AA810ACA1C02B712 SWAP7 SWAP8 DUP3 PUSH2 0x303 SWAP8 SWAP7 SWAP6 LT PUSH2 0x36C JUMPI JUMPDEST POP POP DUP2 SHL ADD SWAP1 SSTORE PUSH2 0x2C6 JUMP JUMPDEST DUP6 ADD MLOAD PUSH1 0x0 NOT PUSH1 0xF8 DUP5 PUSH1 0x3 SHL AND SHR NOT AND SWAP1 SSTORE DUP8 DUP1 PUSH2 0x360 JUMP JUMPDEST DUP6 DUP9 ADD MLOAD DUP4 SSTORE PUSH1 0x20 SWAP8 DUP9 ADD SWAP8 PUSH1 0x1 SWAP1 SWAP4 ADD SWAP3 ADD PUSH2 0x324 JUMP JUMPDEST DUP2 PUSH1 0x0 MSTORE PUSH1 0x20 PUSH1 0x0 KECCAK256 PUSH1 0x1F DUP7 ADD PUSH1 0x5 SHR DUP2 ADD SWAP2 PUSH1 0x20 DUP8 LT PUSH2 0x3DB JUMPI JUMPDEST PUSH1 0x1F ADD PUSH1 0x5 SHR ADD SWAP1 JUMPDEST DUP2 DUP2 LT PUSH2 0x3CF JUMPI POP PUSH2 0x271 JUMP JUMPDEST PUSH1 0x0 DUP2 SSTORE PUSH1 0x1 ADD PUSH2 0x3C2 JUMP JUMPDEST SWAP1 SWAP2 POP DUP2 SWAP1 PUSH2 0x3B9 JUMP JUMPDEST PUSH4 0x4E487B71 PUSH1 0xE0 SHL PUSH1 0x0 MSTORE PUSH1 0x41 PUSH1 0x4 MSTORE PUSH1 0x24 PUSH1 0x0 REVERT JUMPDEST PUSH1 0x40 MLOAD PUSH3 0x461BCD PUSH1 0xE5 SHL DUP2 MSTORE PUSH1 0x20 PUSH1 0x4 DUP3 ADD MSTORE PUSH1 0x16 PUSH1 0x24 DUP3 ADD MSTORE PUSH22 0x496E76616C696420656E6372797074696F6E206B6579 PUSH1 0x50 SHL PUSH1 0x44 DUP3 ADD MSTORE PUSH1 0x64 SWAP1 REVERT JUMPDEST PUSH1 0x40 MLOAD PUSH3 0x461BCD PUSH1 0xE5 SHL DUP2 MSTORE PUSH1 0x20 PUSH1 0x4 DUP3 ADD MSTORE PUSH1 0x17 PUSH1 0x24 DUP3 ADD MSTORE PUSH32 0x4E65656420313020726576696577657273206669727374000000000000000000 PUSH1 0x44 DUP3 ADD MSTORE PUSH1 0x64 SWAP1 REVERT JUMPDEST PUSH1 0x40 MLOAD PUSH3 0x461BCD PUSH1 0xE5 SHL DUP2 MSTORE PUSH1 0x20 PUSH1 0x4 DUP3 ADD MSTORE PUSH1 0x16 PUSH1 0x24 DUP3 ADD MSTORE PUSH22 0x12D95E5CC8185B1C9958591E4819D95B995C985D1959 PUSH1 0x52 SHL PUSH1 0x44 DUP3 ADD MSTORE PUSH1 0x64 SWAP1 REVERT JUMPDEST CALLVALUE PUSH2 0x1A3 JUMPI PUSH1 0x20 CALLDATASIZE PUSH1 0x3 NOT ADD SLT PUSH2 0x1A3 JUMPI PUSH1 0x4 CALLDATALOAD PUSH1 0x0 DUP2 DUP2 MSTORE PUSH1 0x8 PUSH1 0x20 MSTORE PUSH1 0x40 SWAP1 KECCAK256 PUSH1 0x3 DUP2 ADD SLOAD PUSH1 0x1 PUSH1 0x1 PUSH1 0xA0 SHL SUB AND CALLER SUB PUSH2 0x534 JUMPI PUSH1 0xD ADD PUSH1 0x1 DUP2 SLOAD PUSH2 0x506 PUSH1 0xFF DUP3 AND ISZERO PUSH2 0x34F9 JUMP JUMPDEST PUSH1 0xFF NOT AND OR SWAP1 SSTORE PUSH32 0xE68F10F94CA2685D65A39A1841C1E1E00E8DF8B2FA15DD0562E32C33AF49FE17 PUSH1 0x0 DUP1 LOG2 STOP JUMPDEST PUSH1 0x40 MLOAD PUSH3 0x461BCD PUSH1 0xE5 SHL DUP2 MSTORE PUSH1 0x20 PUSH1 0x4 DUP3 ADD MSTORE PUSH1 0xB PUSH1 0x24 DUP3 ADD MSTORE PUSH11 0x2737BA1031B932B0BA37B9 PUSH1 0xA9 SHL PUSH1 0x44 DUP3 ADD MSTORE PUSH1 0x64 SWAP1 REVERT JUMPDEST CALLVALUE PUSH2 0x1A3 JUMPI PUSH1 0x20 CALLDATASIZE PUSH1 0x3 NOT ADD SLT PUSH2 0x1A3 JUMPI PUSH1 0x4 CALLDATALOAD PUSH1 0x0 MSTORE PUSH1 0x8 PUSH1 0x20 MSTORE PUSH1 0x40 PUSH1 0x0 KECCAK256 DUP1 SLOAD PUSH1 0x1 DUP3 ADD PUSH2 0x597 SWAP1 PUSH2 0x31AD JUMP JUMPDEST SWAP1 PUSH2 0x5A4 PUSH1 0x2 DUP5 ADD PUSH2 0x31AD JUMP JUMPDEST PUSH1 0x3 DUP5 ADD SLOAD PUSH1 0x4 DUP6 ADD SLOAD PUSH1 0x5 DUP7 ADD SLOAD SWAP3 SWAP6 PUSH1 0x1 PUSH1 0x1 PUSH1 0xA0 SHL SUB SWAP1 SWAP3 AND SWAP3 PUSH2 0x5CD PUSH1 0x6 DUP5 ADD PUSH2 0x31AD JUMP JUMPDEST SWAP5 PUSH1 0x7 DUP5 ADD SLOAD SWAP6 PUSH1 0x8 DUP6 ADD SLOAD PUSH1 0x9 DUP7 ADD SLOAD SWAP2 PUSH1 0xA DUP8 ADD SLOAD SWAP4 PUSH1 0xB DUP9 ADD SLOAD SWAP6 PUSH1 0xC DUP10 ADD SLOAD SWAP8 PUSH1 0xD DUP11 ADD SLOAD SWAP10 PUSH1 0xE ADD SLOAD SWAP11 PUSH1 0x40 MLOAD SWAP15 DUP16 SWAP15 DUP16 SWAP6 DUP7 MSTORE PUSH1 0x20 DUP7 ADD PUSH2 0x200 SWAP1 MSTORE PUSH2 0x200 DUP7 ADD PUSH2 0x61D SWAP2 PUSH2 0x3251 JUMP JUMPDEST DUP6 DUP2 SUB PUSH1 0x40 DUP8 ADD MSTORE PUSH2 0x62E SWAP2 PUSH2 0x3251 JUMP JUMPDEST SWAP4 PUSH1 0x60 ADD MSTORE PUSH1 0x80 DUP14 ADD MSTORE PUSH1 0xA0 DUP13 ADD MSTORE DUP11 DUP2 SUB PUSH1 0xC0 DUP13 ADD MSTORE PUSH2 0x64E SWAP2 PUSH2 0x3251 JUMP JUMPDEST SWAP8 PUSH1 0xE0 DUP11 ADD MSTORE PUSH2 0x100 DUP10 ADD MSTORE PUSH2 0x120 DUP9 ADD MSTORE PUSH2 0x140 DUP8 ADD MSTORE PUSH2 0x160 DUP7 ADD MSTORE PUSH2 0x180 DUP6 ADD MSTORE PUSH1 0xFF DUP2 AND ISZERO ISZERO PUSH2 0x1A0 DUP6 ADD MSTORE PUSH2 0x1C0 DUP5 ADD SWAP1 PUSH1 0x8 SHR PUSH1 0xFF AND SWAP1 PUSH2 0x694 SWAP2 PUSH2 0x3440 JUMP JUMPDEST PUSH2 0x1E0 DUP4 ADD MSTORE SUB SWAP1 RETURN JUMPDEST CALLVALUE PUSH2 0x1A3 JUMPI PUSH2 0x6AC CALLDATASIZE PUSH2 0x3362 JUMP JUMPDEST POP PUSH1 0x0 DUP4 DUP2 MSTORE PUSH1 0x8 PUSH1 0x20 SWAP1 DUP2 MSTORE PUSH1 0x40 DUP1 DUP4 KECCAK256 PUSH1 0x9 DUP4 MSTORE DUP2 DUP5 KECCAK256 CALLER DUP6 MSTORE SWAP1 SWAP3 MSTORE DUP1 DUP4 KECCAK256 PUSH1 0x1 PUSH1 0x1 PUSH1 0xA0 SHL SUB DUP7 AND DUP5 MSTORE SWAP3 KECCAK256 PUSH1 0xD DUP3 ADD SLOAD SWAP4 SWAP6 SWAP2 SWAP5 SWAP2 SWAP4 SWAP1 SWAP3 SWAP1 PUSH1 0xFF AND PUSH2 0xA45 JUMPI PUSH1 0x4 ADD SLOAD PUSH1 0x8 SHR PUSH1 0xFF AND ISZERO PUSH2 0xA0F JUMPI PUSH2 0x70D PUSH1 0x2 DUP4 ADD SLOAD PUSH2 0x3137 JUMP JUMPDEST ISZERO PUSH2 0x9D4 JUMPI PUSH1 0x4 DUP3 ADD SWAP4 PUSH1 0xFF DUP6 SLOAD AND PUSH2 0x99C JUMPI PUSH1 0xE SWAP1 PUSH2 0x730 PUSH1 0x64 DUP9 GT ISZERO PUSH2 0x358A JUMP JUMPDEST PUSH1 0x0 DUP6 DUP2 MSTORE PUSH1 0x5 PUSH1 0x20 SWAP1 DUP2 MSTORE PUSH1 0x40 DUP1 DUP4 KECCAK256 PUSH1 0x1 PUSH1 0x1 PUSH1 0xA0 SHL SUB DUP8 AND DUP5 MSTORE DUP3 MSTORE DUP1 DUP4 KECCAK256 CALLER DUP5 MSTORE SWAP1 SWAP2 MSTORE SWAP1 KECCAK256 SLOAD PUSH2 0x768 SWAP1 PUSH1 0xFF AND ISZERO PUSH2 0x3536 JUMP JUMPDEST ADD DUP1 SLOAD PUSH1 0x0 DUP6 DUP2 MSTORE PUSH1 0x4 PUSH1 0x20 SWAP1 DUP2 MSTORE PUSH1 0x40 DUP1 DUP4 KECCAK256 PUSH1 0x1 PUSH1 0x1 PUSH1 0xA0 SHL SUB DUP8 AND DUP5 MSTORE DUP3 MSTORE DUP1 DUP4 KECCAK256 CALLER DUP5 MSTORE SWAP1 SWAP2 MSTORE SWAP1 KECCAK256 DUP1 SLOAD PUSH1 0xFF NOT AND SWAP2 DUP9 LT ISZERO PUSH1 0xFF AND SWAP2 SWAP1 SWAP2 OR SWAP1 SSTORE SWAP3 PUSH1 0x0 DUP2 DUP2 MSTORE PUSH1 0x5 PUSH1 0x20 DUP2 DUP2 MSTORE PUSH1 0x40 DUP1 DUP5 KECCAK256 PUSH1 0x1 PUSH1 0x1 PUSH1 0xA0 SHL SUB DUP8 AND DUP6 MSTORE DUP3 MSTORE DUP1 DUP5 KECCAK256 CALLER DUP6 MSTORE SWAP1 SWAP2 MSTORE SWAP1 SWAP2 KECCAK256 DUP1 SLOAD PUSH1 0xFF NOT AND PUSH1 0x1 OR SWAP1 SSTORE DUP4 ADD DUP1 SLOAD SWAP1 SWAP4 SWAP1 PUSH2 0x7F1 SWAP1 DUP9 SWAP1 PUSH2 0x35D6 JUMP JUMPDEST DUP1 SWAP5 SSTORE PUSH1 0x6 DUP2 ADD SWAP7 PUSH2 0x803 DUP9 SLOAD PUSH2 0x344D JUMP JUMPDEST DUP1 SWAP9 SSTORE DUP6 SLOAD GT ISZERO PUSH1 0x40 MLOAD SWAP1 DUP2 MSTORE PUSH1 0x1 DUP1 PUSH1 0xA0 SHL SUB DUP5 AND SWAP1 DUP4 PUSH32 0xB0AD8B9F0729F50B6025F5DB451DEBBC7DA11DD3F0B6A4ECB8D8919609026B62 PUSH1 0x20 CALLER SWAP4 LOG4 PUSH1 0x0 SWAP4 PUSH1 0x0 SWAP6 PUSH1 0x0 JUMPDEST DUP5 PUSH1 0x0 MSTORE PUSH1 0x3 PUSH1 0x20 MSTORE PUSH1 0x40 PUSH1 0x0 KECCAK256 SLOAD DUP2 LT ISZERO PUSH2 0x945 JUMPI DUP5 PUSH1 0x0 MSTORE PUSH1 0x5 PUSH1 0x20 MSTORE PUSH1 0xFF PUSH1 0x40 DUP1 DUP1 PUSH1 0x0 KECCAK256 PUSH1 0x0 SWAP1 PUSH1 0x1 DUP1 PUSH1 0xA0 SHL SUB DUP12 AND DUP3 MSTORE PUSH1 0x20 MSTORE KECCAK256 DUP8 PUSH1 0x0 MSTORE PUSH1 0x3 PUSH1 0x20 MSTORE PUSH2 0x89A DUP5 DUP4 PUSH1 0x0 KECCAK256 PUSH2 0x33F9 JUMP JUMPDEST SWAP1 SLOAD PUSH1 0x3 SWAP2 SWAP1 SWAP2 SHL SHR PUSH1 0x1 PUSH1 0x1 PUSH1 0xA0 SHL SUB AND PUSH1 0x0 SWAP1 DUP2 MSTORE PUSH1 0x20 SWAP2 SWAP1 SWAP2 MSTORE KECCAK256 SLOAD AND PUSH2 0x8C7 JUMPI JUMPDEST PUSH1 0x1 ADD PUSH2 0x84A JUMP JUMPDEST SWAP6 PUSH2 0x8D1 SWAP1 PUSH2 0x344D JUMP JUMPDEST SWAP6 DUP5 PUSH1 0x0 MSTORE PUSH1 0x4 PUSH1 0x20 MSTORE PUSH1 0xFF PUSH1 0x40 DUP1 DUP1 PUSH1 0x0 KECCAK256 PUSH1 0x0 SWAP1 PUSH1 0x1 DUP1 PUSH1 0xA0 SHL SUB DUP12 AND DUP3 MSTORE PUSH1 0x20 MSTORE KECCAK256 DUP8 PUSH1 0x0 MSTORE PUSH1 0x3 PUSH1 0x20 MSTORE PUSH2 0x90C DUP5 DUP4 PUSH1 0x0 KECCAK256 PUSH2 0x33F9 JUMP JUMPDEST SWAP1 SLOAD PUSH1 0x3 SWAP2 SWAP1 SWAP2 SHL SHR PUSH1 0x1 PUSH1 0x1 PUSH1 0xA0 SHL SUB AND PUSH1 0x0 SWAP1 DUP2 MSTORE PUSH1 0x20 SWAP2 SWAP1 SWAP2 MSTORE KECCAK256 SLOAD AND ISZERO PUSH2 0x8BF JUMPI SWAP7 PUSH2 0x93D PUSH1 0x1 SWAP2 PUSH2 0x344D JUMP JUMPDEST SWAP8 SWAP1 POP PUSH2 0x8BF JUMP JUMPDEST POP DUP8 DUP7 DUP11 SWAP6 PUSH1 0x0 MSTORE PUSH1 0x3 PUSH1 0x20 MSTORE PUSH1 0x40 PUSH1 0x0 KECCAK256 SLOAD PUSH1 0x1 SHR GT ISZERO PUSH2 0x963 JUMPI STOP JUMPDEST PUSH2 0x99A SWAP5 PUSH1 0x1 SWAP4 PUSH2 0x97D SWAP3 DUP6 PUSH1 0xFF NOT DUP3 SLOAD AND OR SWAP1 SSTORE PUSH2 0x35E3 JUMP JUMPDEST SWAP1 DUP2 PUSH1 0x3 DUP6 ADD SSTORE SLOAD GT ISZERO SWAP2 ADD SWAP1 PUSH1 0xFF DUP1 NOT DUP4 SLOAD AND SWAP2 ISZERO ISZERO AND OR SWAP1 SSTORE JUMP JUMPDEST STOP JUMPDEST PUSH1 0x40 MLOAD PUSH3 0x461BCD PUSH1 0xE5 SHL DUP2 MSTORE PUSH1 0x20 PUSH1 0x4 DUP3 ADD MSTORE PUSH1 0x10 PUSH1 0x24 DUP3 ADD MSTORE PUSH16 0x105B1C9958591E481C995D9A595DD959 PUSH1 0x82 SHL PUSH1 0x44 DUP3 ADD MSTORE PUSH1 0x64 SWAP1 REVERT JUMPDEST PUSH1 0x40 MLOAD PUSH3 0x461BCD PUSH1 0xE5 SHL DUP2 MSTORE PUSH1 0x20 PUSH1 0x4 DUP3 ADD MSTORE PUSH1 0x13 PUSH1 0x24 DUP3 ADD MSTORE PUSH19 0x139BC81CDD589B5A5CDCDA5BDB88199BDD5B99 PUSH1 0x6A SHL PUSH1 0x44 DUP3 ADD MSTORE PUSH1 0x64 SWAP1 REVERT JUMPDEST PUSH1 0x40 MLOAD PUSH3 0x461BCD PUSH1 0xE5 SHL DUP2 MSTORE PUSH1 0x20 PUSH1 0x4 DUP3 ADD MSTORE PUSH1 0xE PUSH1 0x24 DUP3 ADD MSTORE PUSH14 0x2737BA1030903932BB34B2BBB2B9 PUSH1 0x91 SHL PUSH1 0x44 DUP3 ADD MSTORE PUSH1 0x64 SWAP1 REVERT JUMPDEST PUSH1 0x40 MLOAD PUSH3 0x461BCD PUSH1 0xE5 SHL DUP2 MSTORE PUSH1 0x20 PUSH1 0x4 DUP3 ADD MSTORE PUSH1 0x10 PUSH1 0x24 DUP3 ADD MSTORE PUSH16 0x10DBDB5B5D5B9A5D1E4818DB1BDCD959 PUSH1 0x82 SHL PUSH1 0x44 DUP3 ADD MSTORE PUSH1 0x64 SWAP1 REVERT JUMPDEST CALLVALUE PUSH2 0x1A3 JUMPI PUSH1 0x40 CALLDATASIZE PUSH1 0x3 NOT ADD SLT PUSH2 0x1A3 JUMPI PUSH1 0x40 PUSH2 0xA98 PUSH2 0x32E8 JUMP JUMPDEST PUSH1 0x4 CALLDATALOAD PUSH1 0x0 MSTORE PUSH1 0x9 PUSH1 0x20 MSTORE DUP2 PUSH1 0x0 KECCAK256 PUSH1 0x0 SWAP2 PUSH1 0x1 DUP1 PUSH1 0xA0 SHL SUB AND DUP3 MSTORE PUSH1 0x20 MSTORE KECCAK256 DUP1 SLOAD PUSH1 0x1 DUP3 ADD SLOAD SWAP2 PUSH2 0xACC PUSH1 0x2 DUP3 ADD PUSH2 0x31AD JUMP JUMPDEST PUSH1 0x3 DUP3 ADD SLOAD SWAP2 PUSH1 0xFF PUSH1 0x4 DUP3 ADD SLOAD PUSH2 0xB18 PUSH1 0x6 PUSH1 0x5 DUP6 ADD SLOAD SWAP5 ADD SLOAD SWAP5 DUP4 PUSH1 0x40 MLOAD SWAP10 DUP11 SWAP10 DUP11 MSTORE DUP2 DUP2 AND ISZERO ISZERO PUSH1 0x20 DUP12 ADD MSTORE PUSH1 0x8 SHR AND ISZERO ISZERO PUSH1 0x40 DUP10 ADD MSTORE PUSH2 0x160 PUSH1 0x60 DUP10 ADD MSTORE PUSH2 0x160 DUP9 ADD SWAP1 PUSH2 0x3251 JUMP JUMPDEST SWAP5 PUSH1 0x80 DUP8 ADD MSTORE DUP2 DUP2 AND ISZERO ISZERO PUSH1 0xA0 DUP8 ADD MSTORE DUP2 DUP2 PUSH1 0x8 SHR AND ISZERO ISZERO PUSH1 0xC0 DUP8 ADD MSTORE DUP2 DUP2 PUSH1 0x10 SHR AND ISZERO ISZERO PUSH1 0xE0 DUP8 ADD MSTORE PUSH1 0x18 SHR AND ISZERO ISZERO PUSH2 0x100 DUP6 ADD MSTORE PUSH2 0x120 DUP5 ADD MSTORE PUSH2 0x140 DUP4 ADD MSTORE SUB SWAP1 RETURN JUMPDEST CALLVALUE PUSH2 0x1A3 JUMPI PUSH2 0xB6C CALLDATASIZE PUSH2 0x33E3 JUMP JUMPDEST SWAP1 PUSH1 0x0 MSTORE PUSH1 0xA PUSH1 0x20 MSTORE PUSH1 0x40 PUSH1 0x0 KECCAK256 DUP1 SLOAD DUP3 LT ISZERO PUSH2 0x1A3 JUMPI PUSH1 0x20 SWAP2 PUSH2 0xB8F SWAP2 PUSH2 0x33F9 JUMP JUMPDEST SWAP1 SLOAD PUSH1 0x40 MLOAD PUSH1 0x3 SWAP3 SWAP1 SWAP3 SHL SHR PUSH1 0x1 PUSH1 0x1 PUSH1 0xA0 SHL SUB AND DUP2 MSTORE RETURN JUMPDEST CALLVALUE PUSH2 0x1A3 JUMPI PUSH1 0x20 CALLDATASIZE PUSH1 0x3 NOT ADD SLT PUSH2 0x1A3 JUMPI PUSH1 0x4 CALLDATALOAD PUSH1 0x7 DUP2 LT ISZERO PUSH2 0x1A3 JUMPI PUSH1 0xFF PUSH2 0xBD2 PUSH1 0x20 SWAP3 PUSH2 0x3411 JUMP JUMPDEST SLOAD AND PUSH1 0x40 MLOAD SWAP1 ISZERO ISZERO DUP2 MSTORE RETURN JUMPDEST PUSH1 0x20 CALLDATASIZE PUSH1 0x3 NOT ADD SLT PUSH2 0x1A3 JUMPI PUSH1 0x4 CALLDATALOAD DUP1 PUSH1 0x0 MSTORE PUSH1 0x8 PUSH1 0x20 MSTORE PUSH1 0x40 PUSH1 0x0 KECCAK256 SWAP1 PUSH1 0x7 DUP3 ADD SLOAD CALLVALUE SUB PUSH2 0x10C0 JUMPI PUSH1 0x0 DUP2 DUP2 MSTORE PUSH1 0x9 PUSH1 0x20 SWAP1 DUP2 MSTORE PUSH1 0x40 DUP1 DUP4 KECCAK256 CALLER DUP5 MSTORE SWAP1 SWAP2 MSTORE SWAP1 KECCAK256 SLOAD PUSH2 0x108A JUMPI PUSH1 0x2 SLOAD PUSH1 0x40 MLOAD PUSH4 0x23B872DD PUSH1 0xE0 SHL DUP2 MSTORE CALLER PUSH1 0x4 DUP3 ADD MSTORE ADDRESS PUSH1 0x24 DUP3 ADD MSTORE PUSH1 0x1 PUSH1 0x44 DUP3 ADD MSTORE SWAP1 PUSH1 0x20 SWAP1 DUP3 SWAP1 PUSH1 0x64 SWAP1 DUP3 SWAP1 PUSH1 0x0 SWAP1 PUSH1 0x1 PUSH1 0x1 PUSH1 0xA0 SHL SUB AND GAS CALL SWAP1 DUP2 ISZERO PUSH2 0x107E JUMPI PUSH1 0x0 SWAP2 PUSH2 0x104F JUMPI JUMPDEST POP ISZERO PUSH2 0x1012 JUMPI PUSH1 0x40 MLOAD PUSH2 0x160 DUP2 ADD DUP2 DUP2 LT PUSH1 0x1 PUSH1 0x1 PUSH1 0x40 SHL SUB DUP3 GT OR PUSH2 0x3E5 JUMPI PUSH1 0x40 MSTORE TIMESTAMP DUP2 MSTORE PUSH1 0x20 DUP2 ADD SWAP3 PUSH1 0x0 DUP5 MSTORE PUSH1 0x40 DUP3 ADD PUSH1 0x0 DUP2 MSTORE PUSH1 0x20 SWAP3 PUSH1 0x40 MLOAD PUSH2 0xCB7 DUP6 DUP3 PUSH2 0x318C JUMP JUMPDEST PUSH1 0x0 DUP2 MSTORE PUSH1 0x60 DUP3 ADD SWAP1 DUP2 MSTORE PUSH1 0x80 DUP3 ADD SWAP7 PUSH1 0x0 DUP9 MSTORE PUSH1 0x0 PUSH1 0xA0 DUP5 ADD MSTORE PUSH1 0xC0 DUP4 ADD SWAP2 PUSH1 0x0 DUP4 MSTORE PUSH2 0xD57 PUSH1 0xE0 DUP6 ADD SWAP3 PUSH1 0x0 DUP5 MSTORE PUSH1 0x0 PUSH2 0x100 DUP8 ADD MSTORE PUSH1 0x0 PUSH2 0x120 DUP8 ADD MSTORE PUSH1 0x0 PUSH2 0x140 DUP8 ADD MSTORE DUP10 PUSH1 0x0 MSTORE PUSH1 0x9 DUP10 MSTORE PUSH1 0x40 DUP1 PUSH1 0x0 KECCAK256 PUSH1 0x0 SWAP1 PUSH1 0x1 DUP1 PUSH1 0xA0 SHL SUB CALLER AND DUP3 MSTORE DUP12 MSTORE KECCAK256 SWAP7 DUP7 MLOAD DUP9 SSTORE PUSH2 0xD40 PUSH1 0x1 DUP10 ADD SWAP3 MLOAD ISZERO ISZERO DUP4 SWAP1 PUSH1 0xFF DUP1 NOT DUP4 SLOAD AND SWAP2 ISZERO ISZERO AND OR SWAP1 SSTORE JUMP JUMPDEST MLOAD DUP2 SLOAD PUSH2 0xFF00 NOT AND SWAP1 ISZERO ISZERO PUSH1 0x8 SHL PUSH2 0xFF00 AND OR SWAP1 SSTORE JUMP JUMPDEST MLOAD SWAP8 DUP9 MLOAD PUSH1 0x1 PUSH1 0x1 PUSH1 0x40 SHL SUB DUP2 GT PUSH2 0x3E5 JUMPI PUSH2 0xD76 PUSH1 0x2 DUP8 ADD SLOAD PUSH2 0x3137 JUMP JUMPDEST PUSH1 0x1F DUP2 GT PUSH2 0xFC9 JUMPI JUMPDEST POP DUP8 PUSH1 0x1F DUP3 GT PUSH1 0x1 EQ PUSH2 0xF2A JUMPI SWAP4 PUSH2 0x140 SWAP4 PUSH1 0xC SWAP9 SWAP8 SWAP7 SWAP4 DUP4 PUSH2 0xE55 SWAP5 PUSH1 0x6 SWAP9 PUSH32 0x78DA64A590C3052953AD9E0A5546BBF12BB68AE7634E3FB2A774E22A8C6557C1 SWAP15 SWAP16 PUSH1 0x0 SWAP3 PUSH2 0xF1F JUMPI JUMPDEST POP POP DUP2 PUSH1 0x1 SHL SWAP2 PUSH1 0x0 NOT SWAP1 PUSH1 0x3 SHL SHR NOT AND OR PUSH1 0x2 DUP10 ADD SSTORE JUMPDEST MLOAD PUSH1 0x3 DUP9 ADD SSTORE PUSH2 0xE23 PUSH1 0x4 DUP9 ADD SWAP3 PUSH2 0xE0C PUSH1 0xA0 DUP8 ADD MLOAD ISZERO ISZERO DUP6 SWAP1 PUSH1 0xFF DUP1 NOT DUP4 SLOAD AND SWAP2 ISZERO ISZERO AND OR SWAP1 SSTORE JUMP JUMPDEST MLOAD DUP4 SLOAD PUSH2 0xFF00 NOT AND SWAP1 ISZERO ISZERO PUSH1 0x8 SHL PUSH2 0xFF00 AND OR DUP4 SSTORE JUMP JUMPDEST MLOAD DUP2 SLOAD PUSH2 0x100 DUP6 ADD MLOAD PUSH4 0xFFFF0000 NOT SWAP1 SWAP2 AND SWAP2 ISZERO ISZERO PUSH1 0x10 SHL PUSH3 0xFF0000 AND SWAP2 SWAP1 SWAP2 OR SWAP1 ISZERO ISZERO PUSH1 0x18 SHL PUSH4 0xFF000000 AND OR SWAP1 SSTORE JUMP JUMPDEST PUSH2 0x120 DUP2 ADD MLOAD PUSH1 0x5 DUP6 ADD SSTORE ADD MLOAD SWAP2 ADD SSTORE DUP5 PUSH1 0x0 MSTORE PUSH1 0xA DUP4 MSTORE PUSH2 0xE7B CALLER PUSH1 0x40 PUSH1 0x0 KECCAK256 PUSH2 0x3610 JUMP JUMPDEST PUSH1 0xA DUP2 ADD PUSH2 0xE89 DUP2 SLOAD PUSH2 0x344D JUMP JUMPDEST SWAP1 SSTORE ADD PUSH2 0xE97 CALLVALUE DUP3 SLOAD PUSH2 0x35D6 JUMP JUMPDEST SWAP1 SSTORE DUP3 PUSH1 0x0 MSTORE PUSH1 0x3 DUP2 MSTORE PUSH1 0xA PUSH1 0x40 PUSH1 0x0 KECCAK256 SLOAD LT PUSH2 0xEB8 JUMPI JUMPDEST PUSH1 0x40 MLOAD CALLER DUP2 MSTORE LOG2 STOP JUMPDEST PUSH1 0x0 DUP4 DUP2 MSTORE PUSH1 0x9 DUP3 MSTORE PUSH1 0x40 DUP1 DUP3 KECCAK256 CALLER DUP1 DUP5 MSTORE SWAP1 DUP5 MSTORE DUP2 DUP4 KECCAK256 PUSH1 0x4 ADD DUP1 SLOAD PUSH2 0xFF00 NOT AND PUSH2 0x100 OR SWAP1 SSTORE DUP6 DUP4 MSTORE PUSH1 0x3 DUP5 MSTORE SWAP2 KECCAK256 PUSH2 0xEF3 SWAP2 SWAP1 PUSH2 0x3610 JUMP JUMPDEST CALLER DUP4 PUSH32 0x8FCD9F5C27415BF85B1F568FBE33A98AAEBD94A2F721378109A4A48142F1E3FB PUSH1 0x0 DUP1 LOG3 PUSH2 0xEAF JUMP JUMPDEST ADD MLOAD SWAP1 POP DUP16 DUP1 PUSH2 0xDCA JUMP JUMPDEST PUSH1 0x2 DUP8 ADD PUSH1 0x0 MSTORE DUP9 PUSH1 0x0 KECCAK256 SWAP11 PUSH1 0x0 JUMPDEST PUSH1 0x1F NOT DUP5 AND DUP2 LT PUSH2 0xFB2 JUMPI POP SWAP4 PUSH1 0xC SWAP9 SWAP8 SWAP7 SWAP4 PUSH1 0x1 DUP5 PUSH32 0x78DA64A590C3052953AD9E0A5546BBF12BB68AE7634E3FB2A774E22A8C6557C1 SWAP14 SWAP15 PUSH1 0x6 SWAP10 SWAP6 PUSH2 0x140 SWAP10 PUSH2 0xE55 SWAP9 PUSH1 0x1F NOT DUP2 AND LT PUSH2 0xF99 JUMPI JUMPDEST POP POP POP DUP2 SHL ADD PUSH1 0x2 DUP10 ADD SSTORE PUSH2 0xDE2 JUMP JUMPDEST ADD MLOAD PUSH1 0x0 NOT PUSH1 0xF8 DUP5 PUSH1 0x3 SHL AND SHR NOT AND SWAP1 SSTORE DUP16 DUP1 DUP1 PUSH2 0xF89 JUMP JUMPDEST DUP3 DUP3 ADD MLOAD DUP14 SSTORE PUSH1 0x1 SWAP1 SWAP13 ADD SWAP12 SWAP2 DUP11 ADD SWAP2 DUP11 ADD PUSH2 0xF39 JUMP JUMPDEST PUSH1 0x2 DUP8 ADD PUSH1 0x0 MSTORE DUP9 PUSH1 0x0 KECCAK256 PUSH1 0x1F DUP4 ADD PUSH1 0x5 SHR DUP2 ADD SWAP2 DUP11 DUP5 LT PUSH2 0x1008 JUMPI JUMPDEST PUSH1 0x1F ADD PUSH1 0x5 SHR ADD SWAP1 JUMPDEST DUP2 DUP2 LT PUSH2 0xFFC JUMPI POP PUSH2 0xD7F JUMP JUMPDEST PUSH1 0x0 DUP2 SSTORE PUSH1 0x1 ADD PUSH2 0xFEF JUMP JUMPDEST SWAP1 SWAP2 POP DUP2 SWAP1 PUSH2 0xFE6 JUMP JUMPDEST PUSH1 0x40 MLOAD PUSH3 0x461BCD PUSH1 0xE5 SHL DUP2 MSTORE PUSH1 0x20 PUSH1 0x4 DUP3 ADD MSTORE PUSH1 0x15 PUSH1 0x24 DUP3 ADD MSTORE PUSH21 0x151BDAD95B881D1C985B9CD9995C8819985A5B1959 PUSH1 0x5A SHL PUSH1 0x44 DUP3 ADD MSTORE PUSH1 0x64 SWAP1 REVERT JUMPDEST PUSH2 0x1071 SWAP2 POP PUSH1 0x20 RETURNDATASIZE PUSH1 0x20 GT PUSH2 0x1077 JUMPI JUMPDEST PUSH2 0x1069 DUP2 DUP4 PUSH2 0x318C JUMP JUMPDEST DUP2 ADD SWAP1 PUSH2 0x3572 JUMP JUMPDEST DUP4 PUSH2 0xC70 JUMP JUMPDEST POP RETURNDATASIZE PUSH2 0x105F JUMP JUMPDEST PUSH1 0x40 MLOAD RETURNDATASIZE PUSH1 0x0 DUP3 RETURNDATACOPY RETURNDATASIZE SWAP1 REVERT JUMPDEST PUSH1 0x40 MLOAD PUSH3 0x461BCD PUSH1 0xE5 SHL DUP2 MSTORE PUSH1 0x20 PUSH1 0x4 DUP3 ADD MSTORE PUSH1 0xE PUSH1 0x24 DUP3 ADD MSTORE PUSH14 0x105B1C9958591E481A9BDA5B9959 PUSH1 0x92 SHL PUSH1 0x44 DUP3 ADD MSTORE PUSH1 0x64 SWAP1 REVERT JUMPDEST PUSH1 0x40 MLOAD PUSH3 0x461BCD PUSH1 0xE5 SHL DUP2 MSTORE PUSH1 0x20 PUSH1 0x4 DUP3 ADD MSTORE PUSH1 0x18 PUSH1 0x24 DUP3 ADD MSTORE PUSH32 0x496E636F7272656374206465706F73697420616D6F756E740000000000000000 PUSH1 0x44 DUP3 ADD MSTORE PUSH1 0x64 SWAP1 REVERT JUMPDEST CALLVALUE PUSH2 0x1A3 JUMPI PUSH1 0x0 CALLDATASIZE PUSH1 0x3 NOT ADD SLT PUSH2 0x1A3 JUMPI PUSH1 0x20 PUSH1 0x7 SLOAD PUSH1 0x40 MLOAD SWAP1 DUP2 MSTORE RETURN JUMPDEST CALLVALUE PUSH2 0x1A3 JUMPI PUSH1 0x20 CALLDATASIZE PUSH1 0x3 NOT ADD SLT PUSH2 0x1A3 JUMPI PUSH1 0x4 CALLDATALOAD PUSH1 0x0 DUP2 DUP2 MSTORE PUSH1 0x8 PUSH1 0x20 SWAP1 DUP2 MSTORE PUSH1 0x40 DUP1 DUP4 KECCAK256 PUSH1 0x9 DUP4 MSTORE DUP2 DUP5 KECCAK256 CALLER DUP6 MSTORE SWAP1 SWAP3 MSTORE SWAP1 SWAP2 KECCAK256 PUSH1 0xD DUP3 ADD SLOAD PUSH2 0x116A SWAP1 PUSH1 0xFF AND ISZERO PUSH2 0x347C JUMP JUMPDEST PUSH1 0xFF PUSH1 0x4 DUP3 ADD SLOAD AND ISZERO PUSH2 0x13AC JUMPI PUSH1 0x1 ADD DUP1 SLOAD PUSH1 0xFF DUP2 PUSH1 0x8 SHR AND PUSH2 0x1375 JUMPI PUSH1 0xFF DUP2 AND ISZERO PUSH2 0x1330 JUMPI PUSH1 0x0 DUP5 DUP2 MSTORE PUSH1 0xB PUSH1 0x20 SWAP1 DUP2 MSTORE PUSH1 0x40 DUP1 DUP4 KECCAK256 CALLER DUP1 DUP6 MSTORE SWAP3 MSTORE DUP3 KECCAK256 DUP1 SLOAD DUP4 SWAP3 SWAP1 SWAP2 SWAP1 DUP4 JUMPDEST DUP4 DUP2 LT PUSH2 0x12B7 JUMPI POP POP POP POP DUP2 PUSH2 0x1257 JUMPI JUMPDEST POP POP PUSH2 0x100 SWAP1 PUSH2 0xFF00 NOT AND OR SWAP1 SSTORE PUSH1 0x0 DUP1 DUP1 DUP1 PUSH2 0x120C PUSH1 0x8 DUP7 ADD SLOAD SWAP6 PUSH1 0xB DUP2 ADD PUSH2 0x11EE DUP9 DUP3 SLOAD PUSH2 0x3603 JUMP JUMPDEST SWAP1 SSTORE PUSH1 0xC PUSH1 0x7 DUP3 ADD SLOAD SWAP2 ADD PUSH2 0x1204 DUP3 DUP3 SLOAD PUSH2 0x3603 JUMP JUMPDEST SWAP1 SSTORE DUP7 PUSH2 0x35D6 JUMP JUMPDEST DUP2 DUP2 ISZERO PUSH2 0x124E JUMPI JUMPDEST CALLER SWAP1 CALL ISZERO PUSH2 0x107E JUMPI PUSH1 0x40 PUSH32 0x24B5EFA61DD1CFC659205A97FB8ED868F3CB8C81922BAB2B96423E5DE1DE2CB7 SWAP2 DUP2 MLOAD SWAP1 CALLER DUP3 MSTORE PUSH1 0x20 DUP3 ADD MSTORE LOG2 STOP JUMPDEST POP PUSH2 0x8FC PUSH2 0x1214 JUMP JUMPDEST SWAP1 PUSH2 0x1261 SWAP2 PUSH2 0x35E3 JUMP JUMPDEST PUSH1 0xE DUP5 ADD SLOAD GT PUSH2 0x1272 JUMPI DUP5 DUP1 PUSH2 0x11C3 JUMP JUMPDEST PUSH1 0x40 MLOAD PUSH3 0x461BCD PUSH1 0xE5 SHL DUP2 MSTORE PUSH1 0x20 PUSH1 0x4 DUP3 ADD MSTORE PUSH1 0x19 PUSH1 0x24 DUP3 ADD MSTORE PUSH32 0x446964206E6F7420706173732073656E61746520617564697400000000000000 PUSH1 0x44 DUP3 ADD MSTORE PUSH1 0x64 SWAP1 REVERT JUMPDEST DUP10 PUSH1 0x0 MSTORE PUSH1 0xC PUSH1 0x20 MSTORE PUSH1 0xFF PUSH1 0x40 DUP1 DUP1 PUSH1 0x0 KECCAK256 PUSH1 0x0 SWAP1 DUP7 DUP3 MSTORE PUSH1 0x20 MSTORE KECCAK256 PUSH2 0x12DD DUP5 DUP8 PUSH2 0x3330 JUMP JUMPDEST POP SLOAD PUSH1 0x1 PUSH1 0x1 PUSH1 0xA0 SHL SUB AND PUSH1 0x0 SWAP1 DUP2 MSTORE PUSH1 0x20 SWAP2 SWAP1 SWAP2 MSTORE KECCAK256 SLOAD AND PUSH2 0x1303 JUMPI JUMPDEST PUSH1 0x1 ADD PUSH2 0x11B2 JUMP JUMPDEST SWAP5 SWAP4 PUSH2 0x1328 PUSH2 0x1322 PUSH1 0x1 SWAP3 DUP4 PUSH2 0x1319 DUP11 DUP9 PUSH2 0x3330 JUMP JUMPDEST POP ADD SLOAD SWAP1 PUSH2 0x35D6 JUMP JUMPDEST SWAP6 PUSH2 0x344D JUMP JUMPDEST SWAP6 SWAP1 POP PUSH2 0x12FB JUMP JUMPDEST PUSH1 0x40 MLOAD PUSH3 0x461BCD PUSH1 0xE5 SHL DUP2 MSTORE PUSH1 0x20 PUSH1 0x4 DUP3 ADD MSTORE PUSH1 0x1E PUSH1 0x24 DUP3 ADD MSTORE PUSH32 0x5461736B206E6F7420617070726F766564206279207265766965776572730000 PUSH1 0x44 DUP3 ADD MSTORE PUSH1 0x64 SWAP1 REVERT JUMPDEST PUSH1 0x40 MLOAD PUSH3 0x461BCD PUSH1 0xE5 SHL DUP2 MSTORE PUSH1 0x20 PUSH1 0x4 DUP3 ADD MSTORE PUSH1 0xF PUSH1 0x24 DUP3 ADD MSTORE PUSH15 0x105B1C9958591E4818DB185A5B5959 PUSH1 0x8A SHL PUSH1 0x44 DUP3 ADD MSTORE PUSH1 0x64 SWAP1 REVERT JUMPDEST PUSH1 0x40 MLOAD PUSH3 0x461BCD PUSH1 0xE5 SHL DUP2 MSTORE PUSH1 0x20 PUSH1 0x4 DUP3 ADD MSTORE PUSH1 0x10 PUSH1 0x24 DUP3 ADD MSTORE PUSH16 0x139BDD081C995D9A595DD959081E595D PUSH1 0x82 SHL PUSH1 0x44 DUP3 ADD MSTORE PUSH1 0x64 SWAP1 REVERT JUMPDEST CALLVALUE PUSH2 0x1A3 JUMPI PUSH2 0x13F2 CALLDATASIZE PUSH2 0x33E3 JUMP JUMPDEST SWAP1 PUSH1 0x0 MSTORE PUSH1 0x3 PUSH1 0x20 MSTORE PUSH1 0x40 PUSH1 0x0 KECCAK256 DUP1 SLOAD DUP3 LT ISZERO PUSH2 0x1A3 JUMPI PUSH1 0x20 SWAP2 PUSH2 0xB8F SWAP2 PUSH2 0x33F9 JUMP JUMPDEST CALLVALUE PUSH2 0x1A3 JUMPI PUSH2 0x1423 CALLDATASIZE PUSH2 0x33A9 JUMP JUMPDEST SWAP2 PUSH1 0x0 MSTORE PUSH1 0x5 PUSH1 0x20 MSTORE PUSH1 0x40 PUSH1 0x0 KECCAK256 SWAP1 PUSH1 0x1 DUP1 PUSH1 0xA0 SHL SUB AND PUSH1 0x0 MSTORE PUSH1 0x20 MSTORE PUSH1 0x40 PUSH1 0x0 KECCAK256 SWAP1 PUSH1 0x1 DUP1 PUSH1 0xA0 SHL SUB AND PUSH1 0x0 MSTORE PUSH1 0x20 MSTORE PUSH1 0x20 PUSH1 0xFF PUSH1 0x40 PUSH1 0x0 KECCAK256 SLOAD AND PUSH1 0x40 MLOAD SWAP1 ISZERO ISZERO DUP2 MSTORE RETURN JUMPDEST CALLVALUE PUSH2 0x1A3 JUMPI PUSH1 0x40 CALLDATASIZE PUSH1 0x3 NOT ADD SLT PUSH2 0x1A3 JUMPI PUSH2 0x1482 PUSH2 0x32E8 JUMP JUMPDEST PUSH1 0x4 CALLDATALOAD PUSH1 0x0 MSTORE PUSH1 0xB PUSH1 0x20 MSTORE PUSH1 0x40 PUSH1 0x0 KECCAK256 SWAP1 PUSH1 0x1 DUP1 PUSH1 0xA0 SHL SUB AND PUSH1 0x0 MSTORE PUSH1 0x20 MSTORE PUSH1 0x40 PUSH1 0x0 KECCAK256 DUP1 SLOAD SWAP1 PUSH1 0x1 PUSH1 0x1 PUSH1 0x40 SHL SUB DUP3 GT PUSH2 0x3E5 JUMPI PUSH1 0x40 MLOAD SWAP2 PUSH2 0x14CB PUSH1 0x20 DUP3 PUSH1 0x5 SHL ADD DUP5 PUSH2 0x318C JUMP JUMPDEST DUP1 DUP4 MSTORE PUSH1 0x20 DUP4 ADD DUP1 SWAP3 PUSH1 0x0 MSTORE PUSH1 0x20 PUSH1 0x0 KECCAK256 PUSH1 0x0 SWAP2 JUMPDEST DUP4 DUP4 LT PUSH2 0x1570 JUMPI DUP5 DUP7 PUSH1 0x40 MLOAD SWAP2 DUP3 SWAP2 PUSH1 0x20 DUP4 ADD SWAP1 PUSH1 0x20 DUP5 MSTORE MLOAD DUP1 SWAP2 MSTORE PUSH1 0x40 DUP4 ADD SWAP1 PUSH1 0x40 DUP2 PUSH1 0x5 SHL DUP6 ADD ADD SWAP3 SWAP2 PUSH1 0x0 SWAP1 JUMPDEST DUP3 DUP3 LT PUSH2 0x151F JUMPI POP POP POP POP SUB SWAP1 RETURN JUMPDEST SWAP2 SWAP4 PUSH1 0x1 SWAP2 SWAP4 SWAP6 POP PUSH1 0x20 PUSH2 0x1560 DUP2 SWAP3 PUSH1 0x3F NOT DUP11 DUP3 SUB ADD DUP7 MSTORE PUSH1 0x60 PUSH1 0x40 DUP11 MLOAD DUP8 DUP1 PUSH1 0xA0 SHL SUB DUP2 MLOAD AND DUP5 MSTORE DUP6 DUP2 ADD MLOAD DUP7 DUP6 ADD MSTORE ADD MLOAD SWAP2 DUP2 PUSH1 0x40 DUP3 ADD MSTORE ADD SWAP1 PUSH2 0x3251 JUMP JUMPDEST SWAP7 ADD SWAP3 ADD SWAP3 ADD DUP6 SWAP5 SWAP4 SWAP2 SWAP3 PUSH2 0x1510 JUMP JUMPDEST PUSH1 0x3 PUSH1 0x20 PUSH1 0x1 SWAP3 PUSH1 0x40 MLOAD PUSH2 0x1583 DUP2 PUSH2 0x3171 JUMP JUMPDEST DUP5 DUP1 PUSH1 0xA0 SHL SUB DUP7 SLOAD AND DUP2 MSTORE DUP5 DUP7 ADD SLOAD DUP4 DUP3 ADD MSTORE PUSH2 0x15A2 PUSH1 0x2 DUP8 ADD PUSH2 0x31AD JUMP JUMPDEST PUSH1 0x40 DUP3 ADD MSTORE DUP2 MSTORE ADD SWAP3 ADD SWAP3 ADD SWAP2 SWAP1 PUSH2 0x14E0 JUMP JUMPDEST CALLVALUE PUSH2 0x1A3 JUMPI PUSH1 0x20 CALLDATASIZE PUSH1 0x3 NOT ADD SLT PUSH2 0x1A3 JUMPI PUSH1 0x4 CALLDATALOAD PUSH1 0x0 MSTORE PUSH1 0xF PUSH1 0x20 MSTORE PUSH1 0x20 PUSH1 0xFF PUSH1 0x40 PUSH1 0x0 KECCAK256 SLOAD AND PUSH1 0x40 MLOAD SWAP1 ISZERO ISZERO DUP2 MSTORE RETURN JUMPDEST CALLVALUE PUSH2 0x1A3 JUMPI PUSH1 0x20 CALLDATASIZE PUSH1 0x3 NOT ADD SLT PUSH2 0x1A3 JUMPI PUSH1 0x4 CALLDATALOAD PUSH1 0x0 MSTORE PUSH1 0x0 PUSH1 0x20 MSTORE PUSH2 0x1626 PUSH2 0x1612 PUSH1 0x40 PUSH1 0x0 KECCAK256 PUSH2 0x31AD JUMP JUMPDEST PUSH1 0x40 MLOAD SWAP2 DUP3 SWAP2 PUSH1 0x20 DUP4 MSTORE PUSH1 0x20 DUP4 ADD SWAP1 PUSH2 0x3251 JUMP JUMPDEST SUB SWAP1 RETURN JUMPDEST CALLVALUE PUSH2 0x1A3 JUMPI PUSH2 0x1638 CALLDATASIZE PUSH2 0x33A9 JUMP JUMPDEST SWAP2 PUSH1 0x0 MSTORE PUSH1 0x4 PUSH1 0x20 MSTORE PUSH1 0x40 PUSH1 0x0 KECCAK256 SWAP1 PUSH1 0x1 DUP1 PUSH1 0xA0 SHL SUB AND PUSH1 0x0 MSTORE PUSH1 0x20 MSTORE PUSH1 0x40 PUSH1 0x0 KECCAK256 SWAP1 PUSH1 0x1 DUP1 PUSH1 0xA0 SHL SUB AND PUSH1 0x0 MSTORE PUSH1 0x20 MSTORE PUSH1 0x20 PUSH1 0xFF PUSH1 0x40 PUSH1 0x0 KECCAK256 SLOAD AND PUSH1 0x40 MLOAD SWAP1 ISZERO ISZERO DUP2 MSTORE RETURN JUMPDEST CALLVALUE PUSH2 0x1A3 JUMPI PUSH1 0x0 CALLDATASIZE PUSH1 0x3 NOT ADD SLT PUSH2 0x1A3 JUMPI PUSH1 0x6 SLOAD PUSH1 0x40 MLOAD PUSH1 0x1 PUSH1 0x1 PUSH1 0xA0 SHL SUB SWAP1 SWAP2 AND DUP2 MSTORE PUSH1 0x20 SWAP1 RETURN JUMPDEST CALLVALUE PUSH2 0x1A3 JUMPI PUSH1 0x20 CALLDATASIZE PUSH1 0x3 NOT ADD SLT PUSH2 0x1A3 JUMPI PUSH1 0x4 CALLDATALOAD PUSH1 0x0 MSTORE PUSH1 0xA PUSH1 0x20 MSTORE PUSH1 0x20 PUSH1 0x40 PUSH1 0x0 KECCAK256 SLOAD PUSH1 0x40 MLOAD SWAP1 DUP2 MSTORE RETURN JUMPDEST CALLVALUE PUSH2 0x1A3 JUMPI PUSH1 0x80 CALLDATASIZE PUSH1 0x3 NOT ADD SLT PUSH2 0x1A3 JUMPI PUSH1 0x4 CALLDATALOAD PUSH2 0x16EF PUSH2 0x32E8 JUMP JUMPDEST SWAP1 PUSH1 0x44 CALLDATALOAD PUSH1 0x1 PUSH1 0x1 PUSH1 0x40 SHL SUB DUP2 GT PUSH2 0x1A3 JUMPI PUSH2 0x170F SWAP1 CALLDATASIZE SWAP1 PUSH1 0x4 ADD PUSH2 0x3292 JUMP JUMPDEST SWAP2 PUSH1 0x64 CALLDATALOAD SWAP3 DUP4 ISZERO ISZERO SWAP4 DUP5 DUP2 SUB PUSH2 0x1A3 JUMPI DUP4 PUSH1 0x0 MSTORE PUSH1 0xF PUSH1 0x20 MSTORE PUSH1 0xFF PUSH1 0x40 PUSH1 0x0 KECCAK256 SLOAD AND ISZERO PUSH2 0x1AF5 JUMPI DUP2 MLOAD ISZERO PUSH2 0x1AB8 JUMPI ISZERO PUSH2 0x1A07 JUMPI PUSH2 0x1786 PUSH1 0x20 PUSH1 0x1 DUP1 PUSH1 0xA0 SHL SUB PUSH1 0x6 SLOAD AND DUP6 PUSH1 0x0 MSTORE PUSH1 0x8 DUP3 MSTORE PUSH1 0xFF PUSH1 0xD PUSH1 0x40 PUSH1 0x0 KECCAK256 ADD SLOAD PUSH1 0x8 SHR AND SWAP1 PUSH1 0x40 MLOAD DUP1 DUP1 SWAP6 DUP2 SWAP5 PUSH4 0xEB2F161 PUSH1 0xE4 SHL DUP4 MSTORE DUP10 PUSH1 0x4 DUP5 ADD PUSH2 0x345C JUMP JUMPDEST SUB SWAP2 GAS STATICCALL SWAP1 DUP2 ISZERO PUSH2 0x107E JUMPI PUSH1 0x0 SWAP2 PUSH2 0x19E8 JUMPI JUMPDEST POP ISZERO PUSH2 0x19AD JUMPI JUMPDEST DUP3 PUSH1 0x0 MSTORE PUSH1 0xE PUSH1 0x20 MSTORE PUSH1 0x40 PUSH1 0x0 KECCAK256 PUSH1 0x1 DUP1 PUSH1 0xA0 SHL SUB DUP4 AND PUSH1 0x0 MSTORE PUSH1 0x20 MSTORE PUSH2 0x17CB PUSH1 0x40 PUSH1 0x0 KECCAK256 SLOAD PUSH2 0x3137 JUMP JUMPDEST PUSH2 0x1976 JUMPI PUSH1 0x0 DUP4 DUP2 MSTORE PUSH1 0xE PUSH1 0x20 SWAP1 DUP2 MSTORE PUSH1 0x40 DUP1 DUP4 KECCAK256 PUSH1 0x1 PUSH1 0x1 PUSH1 0xA0 SHL SUB DUP7 AND DUP5 MSTORE SWAP1 SWAP2 MSTORE SWAP1 KECCAK256 DUP2 MLOAD SWAP1 SWAP2 PUSH1 0x1 PUSH1 0x1 PUSH1 0x40 SHL SUB DUP3 GT PUSH2 0x3E5 JUMPI PUSH2 0x180D DUP4 SLOAD PUSH2 0x3137 JUMP JUMPDEST PUSH1 0x1F DUP2 GT PUSH2 0x192E JUMPI JUMPDEST POP PUSH1 0x20 SWAP1 PUSH1 0x1F DUP4 GT PUSH1 0x1 EQ PUSH2 0x18A2 JUMPI SWAP2 DUP1 PUSH1 0x20 SWAP5 SWAP3 PUSH32 0x6DB43700E50037B5CB5C847340CD6A7E0D93EE38E5B64ACBCCF2788C67A69267 SWAP7 SWAP5 PUSH1 0x0 SWAP3 PUSH2 0x1897 JUMPI JUMPDEST POP POP DUP2 PUSH1 0x1 SHL SWAP2 PUSH1 0x0 NOT SWAP1 PUSH1 0x3 SHL SHR NOT AND OR SWAP1 SSTORE JUMPDEST DUP4 PUSH1 0x0 MSTORE PUSH1 0x10 DUP3 MSTORE PUSH1 0x40 PUSH1 0x0 KECCAK256 PUSH2 0x1882 DUP2 SLOAD PUSH2 0x344D JUMP JUMPDEST SWAP1 SSTORE PUSH1 0x40 MLOAD SWAP5 DUP6 MSTORE PUSH1 0x1 PUSH1 0x1 PUSH1 0xA0 SHL SUB AND SWAP4 LOG3 STOP JUMPDEST ADD MLOAD SWAP1 POP DUP9 DUP1 PUSH2 0x1856 JUMP JUMPDEST SWAP1 PUSH1 0x1F NOT DUP4 AND SWAP2 DUP5 PUSH1 0x0 MSTORE DUP2 PUSH1 0x0 KECCAK256 SWAP3 PUSH1 0x0 JUMPDEST DUP2 DUP2 LT PUSH2 0x1916 JUMPI POP SWAP3 PUSH1 0x1 SWAP3 DUP6 SWAP3 PUSH32 0x6DB43700E50037B5CB5C847340CD6A7E0D93EE38E5B64ACBCCF2788C67A69267 SWAP9 SWAP7 PUSH1 0x20 SWAP9 SWAP7 LT PUSH2 0x18FD JUMPI JUMPDEST POP POP POP DUP2 SHL ADD SWAP1 SSTORE PUSH2 0x186B JUMP JUMPDEST ADD MLOAD PUSH1 0x0 NOT PUSH1 0xF8 DUP5 PUSH1 0x3 SHL AND SHR NOT AND SWAP1 SSTORE DUP9 DUP1 DUP1 PUSH2 0x18F0 JUMP JUMPDEST SWAP3 SWAP4 PUSH1 0x20 PUSH1 0x1 DUP2 SWAP3 DUP8 DUP7 ADD MLOAD DUP2 SSTORE ADD SWAP6 ADD SWAP4 ADD PUSH2 0x18B5 JUMP JUMPDEST DUP4 PUSH1 0x0 MSTORE PUSH1 0x20 PUSH1 0x0 KECCAK256 PUSH1 0x1F DUP5 ADD PUSH1 0x5 SHR DUP2 ADD SWAP2 PUSH1 0x20 DUP6 LT PUSH2 0x196C JUMPI JUMPDEST PUSH1 0x1F ADD PUSH1 0x5 SHR ADD SWAP1 JUMPDEST DUP2 DUP2 LT PUSH2 0x1960 JUMPI POP PUSH2 0x1816 JUMP JUMPDEST PUSH1 0x0 DUP2 SSTORE PUSH1 0x1 ADD PUSH2 0x1953 JUMP JUMPDEST SWAP1 SWAP2 POP DUP2 SWAP1 PUSH2 0x194A JUMP JUMPDEST PUSH1 0x40 MLOAD PUSH3 0x461BCD PUSH1 0xE5 SHL DUP2 MSTORE PUSH1 0x20 PUSH1 0x4 DUP3 ADD MSTORE PUSH1 0xF PUSH1 0x24 DUP3 ADD MSTORE PUSH15 0x12D95E48185B1C9958591E481CD95D PUSH1 0x8A SHL PUSH1 0x44 DUP3 ADD MSTORE PUSH1 0x64 SWAP1 REVERT JUMPDEST PUSH1 0x40 MLOAD PUSH3 0x461BCD PUSH1 0xE5 SHL DUP2 MSTORE PUSH1 0x20 PUSH1 0x4 DUP3 ADD MSTORE PUSH1 0x13 PUSH1 0x24 DUP3 ADD MSTORE PUSH19 0x2737BA1030903B30B634B21039B2B730BA37B9 PUSH1 0x69 SHL PUSH1 0x44 DUP3 ADD MSTORE PUSH1 0x64 SWAP1 REVERT JUMPDEST PUSH2 0x1A01 SWAP2 POP PUSH1 0x20 RETURNDATASIZE PUSH1 0x20 GT PUSH2 0x1077 JUMPI PUSH2 0x1069 DUP2 DUP4 PUSH2 0x318C JUMP JUMPDEST DUP6 PUSH2 0x1799 JUMP JUMPDEST PUSH1 0x0 SWAP3 SWAP2 SWAP1 PUSH1 0x1 PUSH1 0x1 PUSH1 0xA0 SHL SUB DUP3 AND DUP5 JUMPDEST DUP5 PUSH1 0x0 MSTORE PUSH1 0x3 PUSH1 0x20 MSTORE PUSH1 0x40 PUSH1 0x0 KECCAK256 SLOAD DUP2 LT ISZERO PUSH2 0x1AAE JUMPI DUP5 PUSH1 0x0 MSTORE PUSH1 0x3 PUSH1 0x20 MSTORE DUP2 PUSH2 0x1A46 DUP3 PUSH1 0x40 PUSH1 0x0 KECCAK256 PUSH2 0x33F9 JUMP JUMPDEST SWAP1 SLOAD PUSH1 0x3 SWAP2 SWAP1 SWAP2 SHL SHR PUSH1 0x1 PUSH1 0x1 PUSH1 0xA0 SHL SUB AND EQ PUSH2 0x1A65 JUMPI PUSH1 0x1 ADD PUSH2 0x1A18 JUMP JUMPDEST POP POP SWAP1 SWAP2 SWAP3 POP PUSH1 0x1 JUMPDEST PUSH2 0x17A0 JUMPI PUSH1 0x40 MLOAD PUSH3 0x461BCD PUSH1 0xE5 SHL DUP2 MSTORE PUSH1 0x20 PUSH1 0x4 DUP3 ADD MSTORE PUSH1 0x14 PUSH1 0x24 DUP3 ADD MSTORE PUSH20 0x2737BA1030903B30B634B2103932BB34B2BBB2B9 PUSH1 0x61 SHL PUSH1 0x44 DUP3 ADD MSTORE PUSH1 0x64 SWAP1 REVERT JUMPDEST POP POP SWAP1 SWAP2 SWAP3 PUSH2 0x1A6E JUMP JUMPDEST PUSH1 0x40 MLOAD PUSH3 0x461BCD PUSH1 0xE5 SHL DUP2 MSTORE PUSH1 0x20 PUSH1 0x4 DUP3 ADD MSTORE PUSH1 0x15 PUSH1 0x24 DUP3 ADD MSTORE PUSH21 0x496E76616C696420656E63727970746564206B6579 PUSH1 0x58 SHL PUSH1 0x44 DUP3 ADD MSTORE PUSH1 0x64 SWAP1 REVERT JUMPDEST PUSH1 0x40 MLOAD PUSH3 0x461BCD PUSH1 0xE5 SHL DUP2 MSTORE PUSH1 0x20 PUSH1 0x4 DUP3 ADD MSTORE PUSH1 0x16 PUSH1 0x24 DUP3 ADD MSTORE PUSH22 0x12D95E5CC81B9BDD0819D95B995C985D1959081E595D PUSH1 0x52 SHL PUSH1 0x44 DUP3 ADD MSTORE PUSH1 0x64 SWAP1 REVERT JUMPDEST CALLVALUE PUSH2 0x1A3 JUMPI PUSH2 0x1B41 CALLDATASIZE PUSH2 0x3362 JUMP JUMPDEST SWAP3 SWAP1 SWAP2 PUSH2 0x1B88 PUSH1 0x20 PUSH1 0x1 DUP1 PUSH1 0xA0 SHL SUB PUSH1 0x6 SLOAD AND DUP5 PUSH1 0x0 MSTORE PUSH1 0x8 DUP3 MSTORE PUSH1 0xFF PUSH1 0xD PUSH1 0x40 PUSH1 0x0 KECCAK256 ADD SLOAD PUSH1 0x8 SHR AND SWAP1 PUSH1 0x40 MLOAD DUP1 DUP1 SWAP6 DUP2 SWAP5 PUSH4 0xEB2F161 PUSH1 0xE4 SHL DUP4 MSTORE CALLER PUSH1 0x4 DUP5 ADD PUSH2 0x345C JUMP JUMPDEST SUB SWAP2 GAS STATICCALL SWAP1 DUP2 ISZERO PUSH2 0x107E JUMPI PUSH1 0x0 SWAP2 PUSH2 0x1FD2 JUMPI JUMPDEST POP ISZERO PUSH2 0x1F94 JUMPI PUSH2 0x1BAE PUSH1 0x64 DUP5 GT ISZERO PUSH2 0x358A JUMP JUMPDEST PUSH1 0x0 DUP3 DUP2 MSTORE PUSH1 0xC PUSH1 0x20 SWAP1 DUP2 MSTORE PUSH1 0x40 DUP1 DUP4 KECCAK256 PUSH1 0x1 PUSH1 0x1 PUSH1 0xA0 SHL SUB DUP6 AND DUP5 MSTORE DUP3 MSTORE DUP1 DUP4 KECCAK256 CALLER DUP5 MSTORE SWAP1 SWAP2 MSTORE SWAP1 KECCAK256 SLOAD PUSH1 0xFF AND PUSH2 0x1F5E JUMPI DUP2 PUSH1 0x0 MSTORE PUSH1 0x9 PUSH1 0x20 MSTORE PUSH1 0x40 DUP1 PUSH1 0x0 KECCAK256 PUSH1 0x0 SWAP1 PUSH1 0x1 DUP1 PUSH1 0xA0 SHL SUB DUP5 AND DUP3 MSTORE PUSH1 0x20 MSTORE KECCAK256 SWAP3 PUSH1 0xFF PUSH1 0x4 DUP6 ADD SLOAD AND ISZERO PUSH2 0x1F19 JUMPI DUP3 PUSH1 0x0 MSTORE PUSH1 0xB PUSH1 0x20 MSTORE PUSH1 0x40 DUP1 PUSH1 0x0 KECCAK256 PUSH1 0x0 SWAP1 PUSH1 0x1 DUP1 PUSH1 0xA0 SHL SUB DUP6 AND DUP3 MSTORE PUSH1 0x20 MSTORE KECCAK256 PUSH1 0x40 MLOAD SWAP1 PUSH2 0x1C3D DUP3 PUSH2 0x3171 JUMP JUMPDEST CALLER DUP3 MSTORE PUSH1 0x20 DUP3 ADD SWAP1 DUP4 DUP3 MSTORE PUSH1 0x40 DUP4 ADD SWAP8 DUP9 MSTORE DUP1 SLOAD PUSH1 0x1 PUSH1 0x40 SHL DUP2 LT ISZERO PUSH2 0x3E5 JUMPI PUSH2 0x1C6C SWAP2 PUSH1 0x1 DUP3 ADD DUP2 SSTORE PUSH2 0x3330 JUMP JUMPDEST SWAP2 SWAP1 SWAP2 PUSH2 0x1F03 JUMPI SWAP2 MLOAD DUP2 SLOAD PUSH1 0x1 PUSH1 0x1 PUSH1 0xA0 SHL SUB NOT AND PUSH1 0x1 PUSH1 0x1 PUSH1 0xA0 SHL SUB SWAP2 SWAP1 SWAP2 AND OR DUP2 SSTORE SWAP1 MLOAD PUSH1 0x1 DUP3 ADD SSTORE SWAP5 MLOAD DUP1 MLOAD SWAP1 SWAP6 PUSH1 0x2 ADD SWAP1 PUSH1 0x1 PUSH1 0x1 PUSH1 0x40 SHL SUB DUP2 GT PUSH2 0x3E5 JUMPI PUSH2 0x1CB9 DUP3 SLOAD PUSH2 0x3137 JUMP JUMPDEST PUSH1 0x1F DUP2 GT PUSH2 0x1EBB JUMPI JUMPDEST POP PUSH1 0x20 PUSH1 0x1F DUP3 GT PUSH1 0x1 EQ PUSH2 0x1E51 JUMPI DUP2 SWAP1 PUSH1 0x40 SWAP7 SWAP8 SWAP9 PUSH1 0x0 SWAP3 PUSH2 0x1E46 JUMPI JUMPDEST POP POP DUP2 PUSH1 0x1 SHL SWAP2 PUSH1 0x0 NOT SWAP1 PUSH1 0x3 SHL SHR NOT AND OR SWAP1 SSTORE JUMPDEST PUSH1 0x0 DUP5 DUP2 MSTORE PUSH1 0xC PUSH1 0x20 SWAP1 DUP2 MSTORE DUP5 DUP3 KECCAK256 PUSH1 0x1 PUSH1 0x1 PUSH1 0xA0 SHL SUB DUP6 AND DUP1 DUP5 MSTORE SWAP1 DUP3 MSTORE DUP6 DUP4 KECCAK256 CALLER DUP1 DUP6 MSTORE SWAP1 DUP4 MSTORE SWAP3 DUP7 SWAP1 KECCAK256 DUP1 SLOAD PUSH1 0xFF NOT AND PUSH1 0x1 OR SWAP1 SSTORE DUP6 MLOAD SWAP4 DUP5 MSTORE SWAP2 SWAP3 DUP7 SWAP2 PUSH32 0x378F514D49E4ABB7486BEE29952AF6519DE11CB70A74CD68479F52457B0518F7 SWAP2 LOG4 DUP3 PUSH1 0x0 MSTORE PUSH1 0xB PUSH1 0x20 MSTORE DUP2 PUSH1 0x0 KECCAK256 PUSH1 0x0 SWAP2 PUSH1 0x1 DUP1 PUSH1 0xA0 SHL SUB AND DUP3 MSTORE PUSH1 0x20 MSTORE KECCAK256 DUP1 SLOAD SWAP2 PUSH1 0x0 SWAP1 PUSH1 0x0 SWAP3 PUSH1 0x0 SWAP2 JUMPDEST DUP6 DUP4 LT PUSH2 0x1DEC JUMPI POP POP POP PUSH1 0x3 DUP4 LT ISZERO DUP1 SWAP2 DUP2 SWAP3 PUSH2 0x1DDF JUMPI JUMPDEST POP ISZERO PUSH2 0x1DC2 JUMPI POP PUSH1 0x1 SWAP3 SWAP2 PUSH2 0x1DAF SWAP2 PUSH2 0x35E3 JUMP JUMPDEST PUSH1 0x3 DUP3 ADD SSTORE ADD DUP1 SLOAD PUSH1 0xFF NOT AND PUSH1 0x1 OR SWAP1 SSTORE STOP JUMPDEST SWAP2 POP POP PUSH2 0x1DCB JUMPI STOP JUMPDEST PUSH1 0x0 PUSH1 0x3 DUP3 ADD SSTORE PUSH1 0x1 ADD DUP1 SLOAD PUSH1 0xFF NOT AND SWAP1 SSTORE STOP JUMPDEST SWAP1 POP DUP4 PUSH1 0x1 SHR LT DUP6 PUSH2 0x1D9B JUMP JUMPDEST SWAP1 SWAP2 SWAP4 PUSH2 0x1DFF SWAP1 PUSH1 0x1 PUSH2 0x1319 DUP8 DUP7 PUSH2 0x3330 JUMP JUMPDEST SWAP4 PUSH1 0x1 PUSH2 0x1E0C DUP3 DUP6 PUSH2 0x3330 JUMP JUMPDEST POP ADD SLOAD DUP3 PUSH1 0x0 MSTORE PUSH1 0x8 PUSH1 0x20 MSTORE PUSH1 0xE PUSH1 0x40 PUSH1 0x0 KECCAK256 ADD SLOAD GT ISZERO PUSH2 0x1E32 JUMPI JUMPDEST PUSH1 0x1 ADD SWAP2 SWAP1 PUSH2 0x1D83 JUMP JUMPDEST SWAP3 PUSH2 0x1E3E PUSH1 0x1 SWAP2 PUSH2 0x344D JUMP JUMPDEST SWAP4 SWAP1 POP PUSH2 0x1E28 JUMP JUMPDEST ADD MLOAD SWAP1 POP DUP9 DUP1 PUSH2 0x1CDF JUMP JUMPDEST PUSH1 0x1F NOT DUP3 AND SWAP8 DUP4 PUSH1 0x0 MSTORE DUP2 PUSH1 0x0 KECCAK256 SWAP9 PUSH1 0x0 JUMPDEST DUP2 DUP2 LT PUSH2 0x1EA3 JUMPI POP SWAP2 PUSH1 0x40 SWAP8 SWAP9 SWAP10 SWAP2 DUP5 PUSH1 0x1 SWAP6 SWAP5 LT PUSH2 0x1E8A JUMPI JUMPDEST POP POP POP DUP2 SHL ADD SWAP1 SSTORE PUSH2 0x1CF4 JUMP JUMPDEST ADD MLOAD PUSH1 0x0 NOT PUSH1 0xF8 DUP5 PUSH1 0x3 SHL AND SHR NOT AND SWAP1 SSTORE DUP9 DUP1 DUP1 PUSH2 0x1E7D JUMP JUMPDEST DUP4 DUP4 ADD MLOAD DUP12 SSTORE PUSH1 0x1 SWAP1 SWAP11 ADD SWAP10 PUSH1 0x20 SWAP4 DUP5 ADD SWAP4 ADD PUSH2 0x1E63 JUMP JUMPDEST DUP3 PUSH1 0x0 MSTORE PUSH1 0x20 PUSH1 0x0 KECCAK256 PUSH1 0x1F DUP4 ADD PUSH1 0x5 SHR DUP2 ADD SWAP2 PUSH1 0x20 DUP5 LT PUSH2 0x1EF9 JUMPI JUMPDEST PUSH1 0x1F ADD PUSH1 0x5 SHR ADD SWAP1 JUMPDEST DUP2 DUP2 LT PUSH2 0x1EED JUMPI POP PUSH2 0x1CC2 JUMP JUMPDEST PUSH1 0x0 DUP2 SSTORE PUSH1 0x1 ADD PUSH2 0x1EE0 JUMP JUMPDEST SWAP1 SWAP2 POP DUP2 SWAP1 PUSH2 0x1ED7 JUMP JUMPDEST PUSH4 0x4E487B71 PUSH1 0xE0 SHL PUSH1 0x0 MSTORE PUSH1 0x0 PUSH1 0x4 MSTORE PUSH1 0x24 PUSH1 0x0 REVERT JUMPDEST PUSH1 0x40 MLOAD PUSH3 0x461BCD PUSH1 0xE5 SHL DUP2 MSTORE PUSH1 0x20 PUSH1 0x4 DUP3 ADD MSTORE PUSH1 0x1D PUSH1 0x24 DUP3 ADD MSTORE PUSH32 0x4E6F742072657669657765642062792072657669657765727320796574000000 PUSH1 0x44 DUP3 ADD MSTORE PUSH1 0x64 SWAP1 REVERT JUMPDEST PUSH1 0x40 MLOAD PUSH3 0x461BCD PUSH1 0xE5 SHL DUP2 MSTORE PUSH1 0x20 PUSH1 0x4 DUP3 ADD MSTORE PUSH1 0xE PUSH1 0x24 DUP3 ADD MSTORE PUSH14 0x105B1C9958591E481CD8DBDC9959 PUSH1 0x92 SHL PUSH1 0x44 DUP3 ADD MSTORE PUSH1 0x64 SWAP1 REVERT JUMPDEST PUSH1 0x40 MLOAD PUSH3 0x461BCD PUSH1 0xE5 SHL DUP2 MSTORE PUSH1 0x20 PUSH1 0x4 DUP3 ADD MSTORE PUSH1 0x16 PUSH1 0x24 DUP3 ADD MSTORE PUSH22 0x2737BA1030BABA3437B934BD32B21039B2B730BA37B9 PUSH1 0x51 SHL PUSH1 0x44 DUP3 ADD MSTORE PUSH1 0x64 SWAP1 REVERT JUMPDEST PUSH2 0x1FEB SWAP2 POP PUSH1 0x20 RETURNDATASIZE PUSH1 0x20 GT PUSH2 0x1077 JUMPI PUSH2 0x1069 DUP2 DUP4 PUSH2 0x318C JUMP JUMPDEST DUP6 PUSH2 0x1B9B JUMP JUMPDEST CALLVALUE PUSH2 0x1A3 JUMPI PUSH1 0x60 CALLDATASIZE PUSH1 0x3 NOT ADD SLT PUSH2 0x1A3 JUMPI PUSH2 0x200A PUSH2 0x32E8 JUMP JUMPDEST PUSH1 0x44 CALLDATALOAD SWAP1 PUSH1 0x4 CALLDATALOAD PUSH1 0x0 MSTORE PUSH1 0xB PUSH1 0x20 MSTORE PUSH1 0x40 PUSH1 0x0 KECCAK256 SWAP1 PUSH1 0x1 DUP1 PUSH1 0xA0 SHL SUB AND PUSH1 0x0 MSTORE PUSH1 0x20 MSTORE PUSH1 0x40 PUSH1 0x0 KECCAK256 SWAP1 DUP2 SLOAD DUP2 LT ISZERO PUSH2 0x1A3 JUMPI PUSH2 0x2045 SWAP2 PUSH2 0x3330 JUMP JUMPDEST POP PUSH1 0x1 DUP1 PUSH1 0xA0 SHL SUB DUP2 SLOAD AND PUSH2 0x1626 PUSH2 0x2064 PUSH1 0x2 PUSH1 0x1 DUP6 ADD SLOAD SWAP5 ADD PUSH2 0x31AD JUMP JUMPDEST PUSH1 0x40 MLOAD SWAP4 DUP5 SWAP4 DUP5 MSTORE PUSH1 0x20 DUP5 ADD MSTORE PUSH1 0x60 PUSH1 0x40 DUP5 ADD MSTORE PUSH1 0x60 DUP4 ADD SWAP1 PUSH2 0x3251 JUMP JUMPDEST CALLVALUE PUSH2 0x1A3 JUMPI PUSH1 0x20 CALLDATASIZE PUSH1 0x3 NOT ADD SLT PUSH2 0x1A3 JUMPI PUSH1 0x4 CALLDATALOAD PUSH1 0x7 DUP2 LT ISZERO PUSH2 0x1A3 JUMPI PUSH1 0xFF PUSH2 0x20AA DUP3 PUSH2 0x3411 JUMP JUMPDEST SLOAD AND ISZERO PUSH2 0x20C9 JUMPI PUSH1 0x0 MSTORE PUSH1 0x0 PUSH1 0x20 MSTORE PUSH2 0x1626 PUSH2 0x1612 PUSH1 0x40 PUSH1 0x0 KECCAK256 PUSH2 0x31AD JUMP JUMPDEST PUSH1 0x40 MLOAD PUSH3 0x461BCD PUSH1 0xE5 SHL DUP2 MSTORE PUSH1 0x20 PUSH1 0x4 DUP3 ADD MSTORE PUSH1 0x17 PUSH1 0x24 DUP3 ADD MSTORE PUSH32 0x43617465676F727920646F6573206E6F74206578697374000000000000000000 PUSH1 0x44 DUP3 ADD MSTORE PUSH1 0x64 SWAP1 REVERT JUMPDEST CALLVALUE PUSH2 0x1A3 JUMPI PUSH1 0x40 CALLDATASIZE PUSH1 0x3 NOT ADD SLT PUSH2 0x1A3 JUMPI PUSH2 0x2127 PUSH2 0x32E8 JUMP JUMPDEST PUSH1 0x4 CALLDATALOAD PUSH1 0x0 MSTORE PUSH1 0xE PUSH1 0x20 MSTORE PUSH1 0x40 PUSH1 0x0 KECCAK256 SWAP1 PUSH1 0x1 DUP1 PUSH1 0xA0 SHL SUB AND PUSH1 0x0 MSTORE PUSH1 0x20 MSTORE PUSH2 0x1626 PUSH2 0x1612 PUSH1 0x40 PUSH1 0x0 KECCAK256 PUSH2 0x31AD JUMP JUMPDEST CALLVALUE PUSH2 0x1A3 JUMPI PUSH1 0x40 CALLDATASIZE PUSH1 0x3 NOT ADD SLT PUSH2 0x1A3 JUMPI PUSH1 0x4 CALLDATALOAD PUSH1 0x24 CALLDATALOAD DUP1 ISZERO ISZERO DUP1 DUP3 SUB PUSH2 0x1A3 JUMPI DUP3 PUSH1 0x0 MSTORE PUSH1 0x8 PUSH1 0x20 MSTORE PUSH2 0x220A PUSH1 0x40 PUSH1 0x0 KECCAK256 SWAP3 DUP5 PUSH1 0x0 MSTORE PUSH1 0x9 PUSH1 0x20 MSTORE PUSH1 0x40 PUSH1 0x0 KECCAK256 PUSH1 0x1 DUP1 PUSH1 0xA0 SHL SUB CALLER AND PUSH1 0x0 MSTORE PUSH1 0x20 MSTORE PUSH1 0x4 PUSH1 0xD PUSH1 0x40 PUSH1 0x0 KECCAK256 SWAP6 ADD SWAP5 PUSH2 0x21C0 PUSH1 0xFF DUP8 SLOAD AND ISZERO PUSH2 0x34F9 JUMP JUMPDEST PUSH2 0x21CC DUP2 SLOAD ISZERO ISZERO PUSH2 0x34BE JUMP JUMPDEST ADD PUSH3 0x10000 DUP2 SLOAD PUSH2 0x21E3 PUSH1 0xFF DUP3 PUSH1 0x10 SHR AND ISZERO PUSH2 0x3536 JUMP JUMPDEST PUSH4 0xFF000000 NOT SWAP1 SWAP2 AND PUSH4 0xFFFF0000 NOT SWAP1 SWAP2 AND OR SWAP2 ISZERO ISZERO PUSH1 0x18 SHL PUSH4 0xFF000000 AND SWAP2 SWAP1 SWAP2 OR SWAP1 SSTORE JUMP JUMPDEST PUSH1 0x40 MLOAD SWAP1 DUP2 MSTORE DUP3 PUSH32 0xA953B79A8BDA2946B1E815D9E09876DF8D499A7D04ACE4ECCEC405AE4A96CF08 PUSH1 0x20 CALLER SWAP4 LOG3 PUSH1 0x0 DUP1 DUP1 JUMPDEST DUP5 PUSH1 0x0 MSTORE PUSH1 0xA PUSH1 0x20 MSTORE PUSH1 0x40 PUSH1 0x0 KECCAK256 SLOAD DUP2 LT ISZERO PUSH2 0x22DF JUMPI DUP5 PUSH1 0x0 MSTORE PUSH1 0x9 PUSH1 0x20 MSTORE PUSH1 0x4 PUSH1 0x40 DUP1 PUSH1 0x0 KECCAK256 DUP8 PUSH1 0x0 MSTORE PUSH1 0xA PUSH1 0x20 MSTORE PUSH2 0x2279 DUP5 DUP4 PUSH1 0x0 KECCAK256 PUSH2 0x33F9 JUMP JUMPDEST SWAP1 SLOAD PUSH1 0x3 SWAP2 SWAP1 SWAP2 SHL SHR PUSH1 0x1 PUSH1 0x1 PUSH1 0xA0 SHL SUB AND PUSH1 0x0 SWAP1 DUP2 MSTORE PUSH1 0x20 SWAP2 SWAP1 SWAP2 MSTORE KECCAK256 ADD SLOAD PUSH1 0x10 DUP2 SWAP1 SHR PUSH1 0xFF AND PUSH2 0x22AF JUMPI JUMPDEST POP PUSH1 0x1 ADD PUSH2 0x223C JUMP JUMPDEST SWAP2 PUSH2 0x22BB PUSH1 0xFF SWAP2 PUSH2 0x344D JUMP JUMPDEST SWAP3 PUSH1 0x18 SHR AND PUSH2 0x22CB JUMPI JUMPDEST DUP6 PUSH2 0x22A6 JUMP JUMPDEST SWAP2 PUSH2 0x22D7 PUSH1 0x1 SWAP2 PUSH2 0x344D JUMP JUMPDEST SWAP3 SWAP1 POP PUSH2 0x22C5 JUMP JUMPDEST POP DUP1 ISZERO SWAP2 DUP3 ISZERO SWAP3 DUP4 PUSH2 0x2330 JUMPI JUMPDEST POP POP POP PUSH2 0x22F5 JUMPI STOP JUMPDEST DUP1 SLOAD PUSH1 0xFF NOT AND PUSH1 0x1 OR SWAP1 SSTORE PUSH2 0x2309 DUP2 PUSH2 0x3651 JUMP JUMPDEST PUSH32 0xE68F10F94CA2685D65A39A1841C1E1E00E8DF8B2FA15DD0562E32C33AF49FE17 PUSH1 0x0 DUP1 LOG2 STOP JUMPDEST SWAP1 SWAP2 SWAP3 POP PUSH1 0x3 DUP3 MUL SWAP2 DUP1 DUP4 DIV PUSH1 0x3 EQ SWAP1 ISZERO OR ISZERO PUSH2 0x2361 JUMPI DUP3 PUSH1 0x1 SHL SWAP3 DUP4 DIV PUSH1 0x2 EQ OR ISZERO PUSH2 0x2361 JUMPI LT ISZERO DUP4 DUP1 DUP1 PUSH2 0x22EC JUMP JUMPDEST PUSH4 0x4E487B71 PUSH1 0xE0 SHL PUSH1 0x0 MSTORE PUSH1 0x11 PUSH1 0x4 MSTORE PUSH1 0x24 PUSH1 0x0 REVERT JUMPDEST CALLVALUE PUSH2 0x1A3 JUMPI PUSH1 0x20 CALLDATASIZE PUSH1 0x3 NOT ADD SLT PUSH2 0x1A3 JUMPI PUSH1 0x4 CALLDATALOAD PUSH1 0x0 DUP2 DUP2 MSTORE PUSH1 0x8 PUSH1 0x20 MSTORE PUSH1 0x40 SWAP1 KECCAK256 PUSH1 0x3 DUP2 ADD SLOAD PUSH1 0x1 PUSH1 0x1 PUSH1 0xA0 SHL SUB AND CALLER SUB PUSH2 0x259B JUMPI DUP1 PUSH2 0x23C1 PUSH1 0xFF PUSH1 0xD PUSH1 0x5 SWAP5 ADD SLOAD AND ISZERO PUSH2 0x34F9 JUMP JUMPDEST ADD SLOAD TIMESTAMP LT PUSH2 0x2562 JUMPI PUSH1 0x40 MLOAD PUSH1 0x1 DUP2 MSTORE DUP2 PUSH32 0xA953B79A8BDA2946B1E815D9E09876DF8D499A7D04ACE4ECCEC405AE4A96CF08 PUSH1 0x20 CALLER SWAP4 LOG3 PUSH1 0x0 DUP2 DUP2 MSTORE PUSH1 0x9 PUSH1 0x20 SWAP1 DUP2 MSTORE PUSH1 0x40 DUP1 DUP4 KECCAK256 CALLER DUP1 DUP6 MSTORE DUP2 DUP5 MSTORE DUP3 DUP6 KECCAK256 PUSH1 0x4 DUP1 DUP3 ADD DUP1 SLOAD PUSH4 0xFFFF0000 NOT AND PUSH4 0x1010000 OR SWAP1 SSTORE DUP8 DUP8 MSTORE PUSH1 0x8 DUP7 MSTORE SWAP4 DUP7 KECCAK256 SWAP2 SWAP1 SWAP6 MSTORE SWAP3 MSTORE PUSH1 0xD SWAP1 SWAP2 ADD DUP1 SLOAD SWAP1 SWAP3 SWAP1 PUSH2 0x244F SWAP1 PUSH1 0xFF AND ISZERO PUSH2 0x34F9 JUMP JUMPDEST PUSH2 0x245B DUP2 SLOAD ISZERO ISZERO PUSH2 0x34BE JUMP JUMPDEST ADD PUSH3 0x10000 DUP2 SLOAD PUSH2 0x2472 PUSH1 0xFF DUP3 PUSH1 0x10 SHR AND ISZERO PUSH2 0x3536 JUMP JUMPDEST PUSH3 0xFF0000 NOT AND OR DUP2 SSTORE PUSH4 0x1000000 PUSH4 0xFF000000 NOT DUP3 SLOAD AND OR SWAP1 SSTORE PUSH1 0x40 MLOAD PUSH1 0x1 DUP2 MSTORE DUP3 PUSH32 0xA953B79A8BDA2946B1E815D9E09876DF8D499A7D04ACE4ECCEC405AE4A96CF08 PUSH1 0x20 CALLER SWAP4 LOG3 PUSH1 0x0 DUP1 DUP1 JUMPDEST DUP5 PUSH1 0x0 MSTORE PUSH1 0xA PUSH1 0x20 MSTORE PUSH1 0x40 PUSH1 0x0 KECCAK256 SLOAD DUP2 LT ISZERO PUSH2 0x22DF JUMPI DUP5 PUSH1 0x0 MSTORE PUSH1 0x9 PUSH1 0x20 MSTORE PUSH1 0x4 PUSH1 0x40 DUP1 PUSH1 0x0 KECCAK256 DUP8 PUSH1 0x0 MSTORE PUSH1 0xA PUSH1 0x20 MSTORE PUSH2 0x24FC DUP5 DUP4 PUSH1 0x0 KECCAK256 PUSH2 0x33F9 JUMP JUMPDEST SWAP1 SLOAD PUSH1 0x3 SWAP2 SWAP1 SWAP2 SHL SHR PUSH1 0x1 PUSH1 0x1 PUSH1 0xA0 SHL SUB AND PUSH1 0x0 SWAP1 DUP2 MSTORE PUSH1 0x20 SWAP2 SWAP1 SWAP2 MSTORE KECCAK256 ADD SLOAD PUSH1 0x10 DUP2 SWAP1 SHR PUSH1 0xFF AND PUSH2 0x2532 JUMPI JUMPDEST POP PUSH1 0x1 ADD PUSH2 0x24BF JUMP JUMPDEST SWAP2 PUSH2 0x253E PUSH1 0xFF SWAP2 PUSH2 0x344D JUMP JUMPDEST SWAP3 PUSH1 0x18 SHR AND PUSH2 0x254E JUMPI JUMPDEST DUP6 PUSH2 0x2529 JUMP JUMPDEST SWAP2 PUSH2 0x255A PUSH1 0x1 SWAP2 PUSH2 0x344D JUMP JUMPDEST SWAP3 SWAP1 POP PUSH2 0x2548 JUMP JUMPDEST PUSH1 0x40 MLOAD PUSH3 0x461BCD PUSH1 0xE5 SHL DUP2 MSTORE PUSH1 0x20 PUSH1 0x4 DUP3 ADD MSTORE PUSH1 0x11 PUSH1 0x24 DUP3 ADD MSTORE PUSH17 0x436F6D6D756E697479206F6E676F696E67 PUSH1 0x78 SHL PUSH1 0x44 DUP3 ADD MSTORE PUSH1 0x64 SWAP1 REVERT JUMPDEST PUSH1 0x40 MLOAD PUSH3 0x461BCD PUSH1 0xE5 SHL DUP2 MSTORE PUSH1 0x20 PUSH1 0x4 DUP3 ADD MSTORE PUSH1 0x18 PUSH1 0x24 DUP3 ADD MSTORE PUSH32 0x4F6E6C792063726561746F722063616E2070726F706F73650000000000000000 PUSH1 0x44 DUP3 ADD MSTORE PUSH1 0x64 SWAP1 REVERT JUMPDEST CALLVALUE PUSH2 0x1A3 JUMPI PUSH2 0x25EE CALLDATASIZE PUSH2 0x32FE JUMP JUMPDEST PUSH1 0x0 DUP3 DUP2 MSTORE PUSH1 0x8 PUSH1 0x20 SWAP1 DUP2 MSTORE PUSH1 0x40 DUP1 DUP4 KECCAK256 PUSH1 0x9 DUP4 MSTORE DUP2 DUP5 KECCAK256 CALLER DUP6 MSTORE SWAP1 SWAP3 MSTORE SWAP1 SWAP2 KECCAK256 PUSH1 0xD SWAP1 SWAP2 ADD SLOAD SWAP2 SWAP3 SWAP2 PUSH2 0x2625 SWAP1 PUSH1 0xFF AND ISZERO PUSH2 0x347C JUMP JUMPDEST PUSH2 0x2631 DUP2 SLOAD ISZERO ISZERO PUSH2 0x34BE JUMP JUMPDEST PUSH1 0xFF PUSH1 0x4 DUP3 ADD SLOAD AND PUSH2 0x2850 JUMPI DUP3 MLOAD ISZERO PUSH2 0x2814 JUMPI DUP2 PUSH1 0x0 MSTORE PUSH1 0xF PUSH1 0x20 MSTORE PUSH1 0xFF PUSH1 0x40 PUSH1 0x0 KECCAK256 SLOAD AND ISZERO PUSH2 0x27CF JUMPI PUSH1 0x2 ADD SWAP2 DUP1 MLOAD SWAP3 PUSH1 0x1 PUSH1 0x1 PUSH1 0x40 SHL SUB DUP5 GT PUSH2 0x3E5 JUMPI PUSH2 0x267A DUP2 SLOAD PUSH2 0x3137 JUMP JUMPDEST PUSH1 0x1F DUP2 GT PUSH2 0x2787 JUMPI JUMPDEST POP PUSH1 0x20 SWAP4 PUSH1 0x1F DUP2 GT PUSH1 0x1 EQ PUSH2 0x26FD JUMPI SWAP1 DUP2 PUSH2 0x303 SWAP4 SWAP3 PUSH32 0xBF478FDA32150EFBEA16148DF9D2DC95245FE55FE761F2BD87B66CE55637B2AF SWAP6 SWAP7 PUSH1 0x0 SWAP2 PUSH2 0x26F2 JUMPI JUMPDEST POP DUP2 PUSH1 0x1 SHL SWAP2 PUSH1 0x0 NOT SWAP1 PUSH1 0x3 SHL SHR NOT AND OR SWAP1 SSTORE JUMPDEST PUSH1 0x40 MLOAD SWAP2 DUP3 SWAP2 CALLER DUP4 MSTORE PUSH1 0x40 PUSH1 0x20 DUP5 ADD MSTORE PUSH1 0x40 DUP4 ADD SWAP1 PUSH2 0x3251 JUMP JUMPDEST SWAP1 POP DUP4 ADD MLOAD DUP8 PUSH2 0x26C4 JUMP JUMPDEST PUSH1 0x1F NOT DUP2 AND DUP3 PUSH1 0x0 MSTORE DUP6 PUSH1 0x0 KECCAK256 SWAP1 PUSH1 0x0 JUMPDEST DUP2 DUP2 LT PUSH2 0x276F JUMPI POP SWAP2 PUSH1 0x1 SWAP2 PUSH32 0xBF478FDA32150EFBEA16148DF9D2DC95245FE55FE761F2BD87B66CE55637B2AF SWAP7 SWAP8 DUP3 PUSH2 0x303 SWAP8 SWAP7 SWAP6 LT PUSH2 0x2756 JUMPI JUMPDEST POP POP DUP2 SHL ADD SWAP1 SSTORE PUSH2 0x26D8 JUMP JUMPDEST DUP6 ADD MLOAD PUSH1 0x0 NOT PUSH1 0xF8 DUP5 PUSH1 0x3 SHL AND SHR NOT AND SWAP1 SSTORE DUP8 DUP1 PUSH2 0x274A JUMP JUMPDEST DUP6 DUP9 ADD MLOAD DUP4 SSTORE PUSH1 0x20 SWAP8 DUP9 ADD SWAP8 PUSH1 0x1 SWAP1 SWAP4 ADD SWAP3 ADD PUSH2 0x270E JUMP JUMPDEST DUP2 PUSH1 0x0 MSTORE PUSH1 0x20 PUSH1 0x0 KECCAK256 PUSH1 0x1F DUP7 ADD PUSH1 0x5 SHR DUP2 ADD SWAP2 PUSH1 0x20 DUP8 LT PUSH2 0x27C5 JUMPI JUMPDEST PUSH1 0x1F ADD PUSH1 0x5 SHR ADD SWAP1 JUMPDEST DUP2 DUP2 LT PUSH2 0x27B9 JUMPI POP PUSH2 0x2683 JUMP JUMPDEST PUSH1 0x0 DUP2 SSTORE PUSH1 0x1 ADD PUSH2 0x27AC JUMP JUMPDEST SWAP1 SWAP2 POP DUP2 SWAP1 PUSH2 0x27A3 JUMP JUMPDEST PUSH1 0x40 MLOAD PUSH3 0x461BCD PUSH1 0xE5 SHL DUP2 MSTORE PUSH1 0x20 PUSH1 0x4 DUP3 ADD MSTORE PUSH1 0x1C PUSH1 0x24 DUP3 ADD MSTORE PUSH32 0x436F6D6D756E697479206B657973206E6F742067656E65726174656400000000 PUSH1 0x44 DUP3 ADD MSTORE PUSH1 0x64 SWAP1 REVERT JUMPDEST PUSH1 0x40 MLOAD PUSH3 0x461BCD PUSH1 0xE5 SHL DUP2 MSTORE PUSH1 0x20 PUSH1 0x4 DUP3 ADD MSTORE PUSH1 0x14 PUSH1 0x24 DUP3 ADD MSTORE PUSH20 0x115B5C1D1E481CDD589B5A5CDCDA5BDB88155493 PUSH1 0x62 SHL PUSH1 0x44 DUP3 ADD MSTORE PUSH1 0x64 SWAP1 REVERT JUMPDEST PUSH1 0x40 MLOAD PUSH3 0x461BCD PUSH1 0xE5 SHL DUP2 MSTORE PUSH1 0x20 PUSH1 0x4 DUP3 ADD MSTORE PUSH1 0x11 PUSH1 0x24 DUP3 ADD MSTORE PUSH17 0x105B1C9958591E481CDD589B5A5D1D1959 PUSH1 0x7A SHL PUSH1 0x44 DUP3 ADD MSTORE PUSH1 0x64 SWAP1 REVERT JUMPDEST CALLVALUE PUSH2 0x1A3 JUMPI PUSH1 0x0 CALLDATASIZE PUSH1 0x3 NOT ADD SLT PUSH2 0x1A3 JUMPI PUSH1 0x2 SLOAD PUSH1 0x40 MLOAD PUSH1 0x1 PUSH1 0x1 PUSH1 0xA0 SHL SUB SWAP1 SWAP2 AND DUP2 MSTORE PUSH1 0x20 SWAP1 RETURN JUMPDEST CALLVALUE PUSH2 0x1A3 JUMPI PUSH1 0x40 CALLDATASIZE PUSH1 0x3 NOT ADD SLT PUSH2 0x1A3 JUMPI PUSH2 0x28CB PUSH2 0x32E8 JUMP JUMPDEST PUSH1 0x4 CALLDATALOAD PUSH1 0x0 MSTORE PUSH1 0x9 PUSH1 0x20 MSTORE PUSH1 0x40 PUSH1 0x0 KECCAK256 SWAP1 PUSH1 0x1 DUP1 PUSH1 0xA0 SHL SUB AND PUSH1 0x0 MSTORE PUSH1 0x20 MSTORE PUSH1 0x40 DUP1 PUSH1 0x0 KECCAK256 PUSH1 0xFF PUSH1 0x1 DUP2 PUSH1 0x4 DUP5 ADD SLOAD AND SWAP3 ADD SLOAD AND DUP3 MLOAD SWAP2 ISZERO ISZERO DUP3 MSTORE ISZERO ISZERO PUSH1 0x20 DUP3 ADD MSTORE RETURN JUMPDEST PUSH2 0x120 CALLDATASIZE PUSH1 0x3 NOT ADD SLT PUSH2 0x1A3 JUMPI PUSH1 0x4 CALLDATALOAD PUSH1 0x1 PUSH1 0x1 PUSH1 0x40 SHL SUB DUP2 GT PUSH2 0x1A3 JUMPI PUSH2 0x293B SWAP1 CALLDATASIZE SWAP1 PUSH1 0x4 ADD PUSH2 0x3292 JUMP JUMPDEST PUSH1 0x24 CALLDATALOAD PUSH1 0x1 PUSH1 0x1 PUSH1 0x40 SHL SUB DUP2 GT PUSH2 0x1A3 JUMPI PUSH2 0x295A SWAP1 CALLDATASIZE SWAP1 PUSH1 0x4 ADD PUSH2 0x3292 JUMP JUMPDEST PUSH1 0x44 CALLDATALOAD PUSH1 0x1 PUSH1 0x1 PUSH1 0x40 SHL SUB DUP2 GT PUSH2 0x1A3 JUMPI PUSH2 0x2979 SWAP1 CALLDATASIZE SWAP1 PUSH1 0x4 ADD PUSH2 0x3292 JUMP JUMPDEST SWAP2 PUSH1 0x64 CALLDATALOAD SWAP3 PUSH1 0xA4 CALLDATALOAD PUSH1 0xC4 CALLDATALOAD SWAP2 PUSH1 0xE4 CALLDATALOAD PUSH1 0x7 PUSH2 0x104 CALLDATALOAD LT ISZERO PUSH2 0x1A3 JUMPI TIMESTAMP DUP8 GT ISZERO PUSH2 0x309A JUMPI DUP3 ISZERO PUSH2 0x3055 JUMPI DUP4 ISZERO PUSH2 0x3005 JUMPI DUP1 ISZERO PUSH2 0x2FC0 JUMPI DUP1 DUP5 MUL SWAP1 DUP5 DUP3 DIV SUB PUSH2 0x2361 JUMPI CALLVALUE LT PUSH2 0x2F7B JUMPI PUSH1 0x24 SWAP6 PUSH1 0x7 SLOAD SWAP6 PUSH2 0x29D0 DUP8 PUSH2 0x344D JUMP JUMPDEST PUSH1 0x7 SSTORE PUSH1 0x6 SLOAD PUSH1 0x40 MLOAD PUSH4 0x1CE87EBB PUSH1 0xE0 SHL DUP2 MSTORE SWAP9 PUSH1 0x20 SWAP2 DUP11 SWAP2 SWAP1 DUP3 SWAP1 PUSH1 0x1 PUSH1 0x1 PUSH1 0xA0 SHL SUB AND PUSH2 0x2A05 PUSH1 0x4 DUP4 ADD PUSH2 0x104 CALLDATALOAD PUSH2 0x3440 JUMP JUMPDEST GAS STATICCALL SWAP8 DUP9 ISZERO PUSH2 0x107E JUMPI PUSH1 0x0 SWAP9 PUSH2 0x2F47 JUMPI JUMPDEST POP PUSH1 0x40 MLOAD SWAP6 PUSH2 0x200 DUP8 ADD DUP8 DUP2 LT PUSH1 0x1 PUSH1 0x1 PUSH1 0x40 SHL SUB DUP3 GT OR PUSH2 0x3E5 JUMPI PUSH1 0x40 MSTORE DUP8 DUP8 MSTORE PUSH1 0x20 DUP8 ADD MSTORE PUSH1 0x40 DUP7 ADD MSTORE CALLER PUSH1 0x60 DUP7 ADD MSTORE PUSH1 0x80 DUP6 ADD MSTORE PUSH1 0x84 CALLDATALOAD PUSH1 0xA0 DUP6 ADD MSTORE PUSH1 0xC0 DUP5 ADD MSTORE PUSH1 0xE0 DUP4 ADD MSTORE PUSH2 0x100 DUP3 ADD MSTORE PUSH1 0x64 PUSH2 0x120 DUP3 ADD MSTORE PUSH1 0x0 PUSH2 0x140 DUP3 ADD MSTORE CALLVALUE PUSH2 0x160 DUP3 ADD MSTORE PUSH1 0x0 PUSH2 0x180 DUP3 ADD MSTORE PUSH1 0x0 PUSH2 0x1A0 DUP3 ADD MSTORE PUSH1 0x0 SWAP3 PUSH2 0x104 CALLDATALOAD PUSH2 0x1C0 DUP4 ADD MSTORE PUSH2 0x1E0 DUP3 ADD MSTORE DUP2 DUP4 MSTORE PUSH1 0x8 PUSH1 0x20 MSTORE PUSH1 0x40 DUP4 KECCAK256 SWAP1 DUP1 MLOAD DUP3 SSTORE PUSH1 0x20 DUP2 ADD MLOAD DUP1 MLOAD SWAP1 PUSH1 0x1 PUSH1 0x1 PUSH1 0x40 SHL SUB DUP3 GT PUSH2 0x2DA1 JUMPI DUP2 SWAP1 PUSH2 0x2AD5 PUSH1 0x1 DUP7 ADD SLOAD PUSH2 0x3137 JUMP JUMPDEST PUSH1 0x1F DUP2 GT PUSH2 0x2EF7 JUMPI JUMPDEST POP PUSH1 0x20 SWAP1 PUSH1 0x1F DUP4 GT PUSH1 0x1 EQ PUSH2 0x2E89 JUMPI DUP8 SWAP3 PUSH2 0x2E7E JUMPI JUMPDEST POP POP DUP2 PUSH1 0x1 SHL SWAP2 PUSH1 0x0 NOT SWAP1 PUSH1 0x3 SHL SHR NOT AND OR PUSH1 0x1 DUP4 ADD SSTORE JUMPDEST PUSH1 0x40 DUP2 ADD MLOAD DUP1 MLOAD SWAP1 PUSH1 0x1 PUSH1 0x1 PUSH1 0x40 SHL SUB DUP3 GT PUSH2 0x2DA1 JUMPI DUP2 SWAP1 PUSH2 0x2B31 PUSH1 0x2 DUP7 ADD SLOAD PUSH2 0x3137 JUMP JUMPDEST PUSH1 0x1F DUP2 GT PUSH2 0x2E2E JUMPI JUMPDEST POP PUSH1 0x20 SWAP1 PUSH1 0x1F DUP4 GT PUSH1 0x1 EQ PUSH2 0x2DC0 JUMPI DUP8 SWAP3 PUSH2 0x2DB5 JUMPI JUMPDEST POP POP DUP2 PUSH1 0x1 SHL SWAP2 PUSH1 0x0 NOT SWAP1 PUSH1 0x3 SHL SHR NOT AND OR PUSH1 0x2 DUP4 ADD SSTORE JUMPDEST PUSH1 0x60 DUP2 ADD MLOAD PUSH1 0x3 DUP4 ADD DUP1 SLOAD PUSH1 0x1 PUSH1 0x1 PUSH1 0xA0 SHL SUB NOT AND PUSH1 0x1 PUSH1 0x1 PUSH1 0xA0 SHL SUB SWAP3 SWAP1 SWAP3 AND SWAP2 SWAP1 SWAP2 OR SWAP1 SSTORE PUSH1 0x80 DUP2 ADD MLOAD PUSH1 0x4 DUP4 ADD SSTORE PUSH1 0xA0 DUP2 ADD MLOAD PUSH1 0x5 DUP4 ADD SSTORE PUSH1 0xC0 DUP2 ADD MLOAD DUP1 MLOAD SWAP1 PUSH1 0x1 PUSH1 0x1 PUSH1 0x40 SHL SUB DUP3 GT PUSH2 0x2DA1 JUMPI DUP2 SWAP1 PUSH2 0x2BC8 PUSH1 0x6 DUP7 ADD SLOAD PUSH2 0x3137 JUMP JUMPDEST PUSH1 0x1F DUP2 GT PUSH2 0x2D51 JUMPI JUMPDEST POP PUSH1 0x20 SWAP1 PUSH1 0x1F DUP4 GT PUSH1 0x1 EQ PUSH2 0x2CE8 JUMPI DUP8 SWAP3 PUSH2 0x2CDD JUMPI JUMPDEST POP POP DUP2 PUSH1 0x1 SHL SWAP2 PUSH1 0x0 NOT SWAP1 PUSH1 0x3 SHL SHR NOT AND OR PUSH1 0x6 DUP4 ADD SSTORE JUMPDEST PUSH1 0xE0 DUP2 ADD MLOAD PUSH1 0x7 DUP4 ADD SSTORE PUSH2 0x100 DUP2 ADD MLOAD PUSH1 0x8 DUP4 ADD SSTORE PUSH2 0x120 DUP2 ADD MLOAD PUSH1 0x9 DUP4 ADD SSTORE PUSH2 0x140 DUP2 ADD MLOAD PUSH1 0xA DUP4 ADD SSTORE PUSH2 0x160 DUP2 ADD MLOAD PUSH1 0xB DUP4 ADD SSTORE PUSH2 0x180 DUP2 ADD MLOAD PUSH1 0xC DUP4 ADD SSTORE PUSH1 0xD DUP3 ADD PUSH2 0x2C61 PUSH2 0x1A0 DUP4 ADD MLOAD ISZERO ISZERO DUP3 SWAP1 PUSH1 0xFF DUP1 NOT DUP4 SLOAD AND SWAP2 ISZERO ISZERO AND OR SWAP1 SSTORE JUMP JUMPDEST PUSH2 0x1C0 DUP3 ADD MLOAD PUSH1 0x7 DUP2 LT ISZERO PUSH2 0x2CC9 JUMPI SWAP2 PUSH2 0x1E0 SWAP2 PUSH1 0xE SWAP4 PUSH2 0xFF00 DUP3 SLOAD SWAP2 PUSH1 0x8 SHL AND SWAP1 PUSH2 0xFF00 NOT AND OR SWAP1 SSTORE ADD MLOAD SWAP2 ADD SSTORE PUSH32 0x4406E0FD454E0F528174E628E0716CD1972C77F1FFFD2FAA8D73F468957FF391 PUSH1 0x40 MLOAD DUP1 PUSH2 0x2CC3 PUSH2 0x104 CALLDATALOAD CALLER DUP4 PUSH2 0x345C JUMP JUMPDEST SUB SWAP1 LOG2 DUP1 RETURN JUMPDEST PUSH4 0x4E487B71 PUSH1 0xE0 SHL DUP7 MSTORE PUSH1 0x21 PUSH1 0x4 MSTORE PUSH1 0x24 DUP7 REVERT JUMPDEST ADD MLOAD SWAP1 POP DUP7 DUP1 PUSH2 0x2BE7 JUMP JUMPDEST PUSH1 0x6 DUP7 ADD DUP9 MSTORE DUP2 DUP9 KECCAK256 SWAP3 POP PUSH1 0x1F NOT DUP5 AND DUP9 JUMPDEST DUP2 DUP2 LT PUSH2 0x2D39 JUMPI POP SWAP1 DUP5 PUSH1 0x1 SWAP6 SWAP5 SWAP4 SWAP3 LT PUSH2 0x2D20 JUMPI JUMPDEST POP POP POP DUP2 SHL ADD PUSH1 0x6 DUP4 ADD SSTORE PUSH2 0x2BFF JUMP JUMPDEST ADD MLOAD PUSH1 0x0 NOT PUSH1 0xF8 DUP5 PUSH1 0x3 SHL AND SHR NOT AND SWAP1 SSTORE DUP7 DUP1 DUP1 PUSH2 0x2D10 JUMP JUMPDEST SWAP3 SWAP4 PUSH1 0x20 PUSH1 0x1 DUP2 SWAP3 DUP8 DUP7 ADD MLOAD DUP2 SSTORE ADD SWAP6 ADD SWAP4 ADD PUSH2 0x2CFA JUMP JUMPDEST SWAP1 SWAP2 POP PUSH1 0x6 DUP6 ADD DUP8 MSTORE PUSH1 0x20 DUP8 KECCAK256 PUSH1 0x1F DUP5 ADD PUSH1 0x5 SHR DUP2 ADD PUSH1 0x20 DUP6 LT PUSH2 0x2D9A JUMPI JUMPDEST SWAP1 DUP5 SWAP4 SWAP3 SWAP2 JUMPDEST PUSH1 0x1F DUP4 ADD PUSH1 0x5 SHR DUP3 ADD DUP2 LT PUSH2 0x2D8C JUMPI POP POP PUSH2 0x2BD1 JUMP JUMPDEST DUP10 DUP2 SSTORE DUP6 SWAP5 POP PUSH1 0x1 ADD PUSH2 0x2D76 JUMP JUMPDEST POP DUP1 PUSH2 0x2D70 JUMP JUMPDEST PUSH4 0x4E487B71 PUSH1 0xE0 SHL DUP7 MSTORE PUSH1 0x41 PUSH1 0x4 MSTORE PUSH1 0x24 DUP7 REVERT JUMPDEST ADD MLOAD SWAP1 POP DUP7 DUP1 PUSH2 0x2B50 JUMP JUMPDEST SWAP3 POP PUSH1 0x2 DUP6 ADD DUP8 MSTORE DUP1 DUP8 KECCAK256 SWAP1 DUP8 SWAP4 JUMPDEST PUSH1 0x1F NOT DUP5 AND DUP6 LT PUSH2 0x2E13 JUMPI PUSH1 0x1 SWAP5 POP DUP4 PUSH1 0x1F NOT DUP2 AND LT PUSH2 0x2DFA JUMPI JUMPDEST POP POP POP DUP2 SHL ADD PUSH1 0x2 DUP4 ADD SSTORE PUSH2 0x2B68 JUMP JUMPDEST ADD MLOAD PUSH1 0x0 NOT PUSH1 0xF8 DUP5 PUSH1 0x3 SHL AND SHR NOT AND SWAP1 SSTORE DUP7 DUP1 DUP1 PUSH2 0x2DEA JUMP JUMPDEST DUP2 DUP2 ADD MLOAD DUP4 SSTORE PUSH1 0x20 SWAP5 DUP6 ADD SWAP5 PUSH1 0x1 SWAP1 SWAP4 ADD SWAP3 SWAP1 SWAP2 ADD SWAP1 PUSH2 0x2DCF JUMP JUMPDEST SWAP1 SWAP2 POP PUSH1 0x2 DUP6 ADD DUP8 MSTORE PUSH1 0x20 DUP8 KECCAK256 PUSH1 0x1F DUP5 ADD PUSH1 0x5 SHR DUP2 ADD PUSH1 0x20 DUP6 LT PUSH2 0x2E77 JUMPI JUMPDEST SWAP1 DUP5 SWAP4 SWAP3 SWAP2 JUMPDEST PUSH1 0x1F DUP4 ADD PUSH1 0x5 SHR DUP3 ADD DUP2 LT PUSH2 0x2E69 JUMPI POP POP PUSH2 0x2B3A JUMP JUMPDEST DUP10 DUP2 SSTORE DUP6 SWAP5 POP PUSH1 0x1 ADD PUSH2 0x2E53 JUMP JUMPDEST POP DUP1 PUSH2 0x2E4D JUMP JUMPDEST ADD MLOAD SWAP1 POP DUP7 DUP1 PUSH2 0x2AF4 JUMP JUMPDEST SWAP3 POP PUSH1 0x1 DUP6 ADD DUP8 MSTORE DUP1 DUP8 KECCAK256 SWAP1 DUP8 SWAP4 JUMPDEST PUSH1 0x1F NOT DUP5 AND DUP6 LT PUSH2 0x2EDC JUMPI PUSH1 0x1 SWAP5 POP DUP4 PUSH1 0x1F NOT DUP2 AND LT PUSH2 0x2EC3 JUMPI JUMPDEST POP POP POP DUP2 SHL ADD PUSH1 0x1 DUP4 ADD SSTORE PUSH2 0x2B0C JUMP JUMPDEST ADD MLOAD PUSH1 0x0 NOT PUSH1 0xF8 DUP5 PUSH1 0x3 SHL AND SHR NOT AND SWAP1 SSTORE DUP7 DUP1 DUP1 PUSH2 0x2EB3 JUMP JUMPDEST DUP2 DUP2 ADD MLOAD DUP4 SSTORE PUSH1 0x20 SWAP5 DUP6 ADD SWAP5 PUSH1 0x1 SWAP1 SWAP4 ADD SWAP3 SWAP1 SWAP2 ADD SWAP1 PUSH2 0x2E98 JUMP JUMPDEST SWAP1 SWAP2 POP PUSH1 0x1 DUP6 ADD DUP8 MSTORE PUSH1 0x20 DUP8 KECCAK256 PUSH1 0x1F DUP5 ADD PUSH1 0x5 SHR DUP2 ADD PUSH1 0x20 DUP6 LT PUSH2 0x2F40 JUMPI JUMPDEST SWAP1 DUP5 SWAP4 SWAP3 SWAP2 JUMPDEST PUSH1 0x1F DUP4 ADD PUSH1 0x5 SHR DUP3 ADD DUP2 LT PUSH2 0x2F32 JUMPI POP POP PUSH2 0x2ADE JUMP JUMPDEST DUP10 DUP2 SSTORE DUP6 SWAP5 POP PUSH1 0x1 ADD PUSH2 0x2F1C JUMP JUMPDEST POP DUP1 PUSH2 0x2F16 JUMP JUMPDEST SWAP1 SWAP8 POP PUSH1 0x20 DUP2 RETURNDATASIZE PUSH1 0x20 GT PUSH2 0x2F73 JUMPI JUMPDEST DUP2 PUSH2 0x2F63 PUSH1 0x20 SWAP4 DUP4 PUSH2 0x318C JUMP JUMPDEST DUP2 ADD SUB SLT PUSH2 0x1A3 JUMPI MLOAD SWAP7 DUP9 PUSH2 0x2A16 JUMP JUMPDEST RETURNDATASIZE SWAP2 POP PUSH2 0x2F56 JUMP JUMPDEST PUSH1 0x40 MLOAD PUSH3 0x461BCD PUSH1 0xE5 SHL DUP2 MSTORE PUSH1 0x20 PUSH1 0x4 DUP3 ADD MSTORE PUSH1 0x18 PUSH1 0x24 DUP3 ADD MSTORE PUSH32 0x496E73756666696369656E742072657761726420706F6F6C0000000000000000 PUSH1 0x44 DUP3 ADD MSTORE PUSH1 0x64 SWAP1 REVERT JUMPDEST PUSH1 0x40 MLOAD PUSH3 0x461BCD PUSH1 0xE5 SHL DUP2 MSTORE PUSH1 0x20 PUSH1 0x4 DUP3 ADD MSTORE PUSH1 0x1C PUSH1 0x24 DUP3 ADD MSTORE PUSH32 0x4D6178206D656D62657273206D75737420626520706F73697469766500000000 PUSH1 0x44 DUP3 ADD MSTORE PUSH1 0x64 SWAP1 REVERT JUMPDEST PUSH1 0x40 MLOAD PUSH3 0x461BCD PUSH1 0xE5 SHL DUP2 MSTORE PUSH1 0x20 PUSH1 0x4 DUP3 ADD MSTORE PUSH1 0x22 PUSH1 0x24 DUP3 ADD MSTORE PUSH32 0x52657761726420706572206D656D626572206D75737420626520706F73697469 PUSH1 0x44 DUP3 ADD MSTORE PUSH2 0x7665 PUSH1 0xF0 SHL PUSH1 0x64 DUP3 ADD MSTORE PUSH1 0x84 SWAP1 REVERT JUMPDEST PUSH1 0x40 MLOAD PUSH3 0x461BCD PUSH1 0xE5 SHL DUP2 MSTORE PUSH1 0x20 PUSH1 0x4 DUP3 ADD MSTORE PUSH1 0x1F PUSH1 0x24 DUP3 ADD MSTORE PUSH32 0x4D656D626572206465706F736974206D75737420626520706F73697469766500 PUSH1 0x44 DUP3 ADD MSTORE PUSH1 0x64 SWAP1 REVERT JUMPDEST PUSH1 0x40 MLOAD PUSH3 0x461BCD PUSH1 0xE5 SHL DUP2 MSTORE PUSH1 0x20 PUSH1 0x4 DUP3 ADD MSTORE PUSH1 0x1C PUSH1 0x24 DUP3 ADD MSTORE PUSH32 0x53746172742074696D65206D75737420626520696E2066757475726500000000 PUSH1 0x44 DUP3 ADD MSTORE PUSH1 0x64 SWAP1 REVERT JUMPDEST CALLVALUE PUSH2 0x1A3 JUMPI PUSH1 0x20 CALLDATASIZE PUSH1 0x3 NOT ADD SLT PUSH2 0x1A3 JUMPI PUSH1 0x4 CALLDATALOAD PUSH1 0x0 MSTORE PUSH1 0x10 PUSH1 0x20 MSTORE PUSH1 0x20 PUSH1 0x40 PUSH1 0x0 KECCAK256 SLOAD PUSH1 0x40 MLOAD SWAP1 DUP2 MSTORE RETURN JUMPDEST CALLVALUE PUSH2 0x1A3 JUMPI PUSH1 0x20 CALLDATASIZE PUSH1 0x3 NOT ADD SLT PUSH2 0x1A3 JUMPI PUSH1 0x4 CALLDATALOAD PUSH1 0x0 MSTORE PUSH1 0xD PUSH1 0x20 MSTORE PUSH2 0x1626 PUSH2 0x1612 PUSH1 0x40 PUSH1 0x0 KECCAK256 PUSH2 0x31AD JUMP JUMPDEST SWAP1 PUSH1 0x1 DUP3 DUP2 SHR SWAP3 AND DUP1 ISZERO PUSH2 0x3167 JUMPI JUMPDEST PUSH1 0x20 DUP4 LT EQ PUSH2 0x3151 JUMPI JUMP JUMPDEST PUSH4 0x4E487B71 PUSH1 0xE0 SHL PUSH1 0x0 MSTORE PUSH1 0x22 PUSH1 0x4 MSTORE PUSH1 0x24 PUSH1 0x0 REVERT JUMPDEST SWAP2 PUSH1 0x7F AND SWAP2 PUSH2 0x3146 JUMP JUMPDEST PUSH1 0x60 DUP2 ADD SWAP1 DUP2 LT PUSH1 0x1 PUSH1 0x1 PUSH1 0x40 SHL SUB DUP3 GT OR PUSH2 0x3E5 JUMPI PUSH1 0x40 MSTORE JUMP JUMPDEST SWAP1 PUSH1 0x1F DUP1 NOT SWAP2 ADD AND DUP2 ADD SWAP1 DUP2 LT PUSH1 0x1 PUSH1 0x1 PUSH1 0x40 SHL SUB DUP3 GT OR PUSH2 0x3E5 JUMPI PUSH1 0x40 MSTORE JUMP JUMPDEST SWAP1 PUSH1 0x40 MLOAD SWAP2 DUP3 PUSH1 0x0 DUP3 SLOAD SWAP3 PUSH2 0x31C1 DUP5 PUSH2 0x3137 JUMP JUMPDEST DUP1 DUP5 MSTORE SWAP4 PUSH1 0x1 DUP2 AND SWAP1 DUP2 ISZERO PUSH2 0x322F JUMPI POP PUSH1 0x1 EQ PUSH2 0x31E8 JUMPI JUMPDEST POP PUSH2 0x31E6 SWAP3 POP SUB DUP4 PUSH2 0x318C JUMP JUMPDEST JUMP JUMPDEST SWAP1 POP PUSH1 0x0 SWAP3 SWAP2 SWAP3 MSTORE PUSH1 0x20 PUSH1 0x0 KECCAK256 SWAP1 PUSH1 0x0 SWAP2 JUMPDEST DUP2 DUP4 LT PUSH2 0x3213 JUMPI POP POP SWAP1 PUSH1 0x20 PUSH2 0x31E6 SWAP3 DUP3 ADD ADD CODESIZE PUSH2 0x31D9 JUMP JUMPDEST PUSH1 0x20 SWAP2 SWAP4 POP DUP1 PUSH1 0x1 SWAP2 SLOAD DUP4 DUP6 DUP10 ADD ADD MSTORE ADD SWAP2 ADD SWAP1 SWAP2 DUP5 SWAP3 PUSH2 0x31FA JUMP JUMPDEST SWAP1 POP PUSH1 0x20 SWAP3 POP PUSH2 0x31E6 SWAP5 SWAP2 POP PUSH1 0xFF NOT AND DUP3 DUP5 ADD MSTORE ISZERO ISZERO PUSH1 0x5 SHL DUP3 ADD ADD CODESIZE PUSH2 0x31D9 JUMP JUMPDEST SWAP2 SWAP1 DUP3 MLOAD SWAP3 DUP4 DUP3 MSTORE PUSH1 0x0 JUMPDEST DUP5 DUP2 LT PUSH2 0x327D JUMPI POP POP DUP3 PUSH1 0x0 PUSH1 0x20 DUP1 SWAP5 SWAP6 DUP5 ADD ADD MSTORE PUSH1 0x1F DUP1 NOT SWAP2 ADD AND ADD ADD SWAP1 JUMP JUMPDEST DUP1 PUSH1 0x20 DUP1 SWAP3 DUP5 ADD ADD MLOAD DUP3 DUP3 DUP7 ADD ADD MSTORE ADD PUSH2 0x325C JUMP JUMPDEST DUP2 PUSH1 0x1F DUP3 ADD SLT ISZERO PUSH2 0x1A3 JUMPI DUP1 CALLDATALOAD SWAP1 PUSH1 0x1 PUSH1 0x1 PUSH1 0x40 SHL SUB DUP3 GT PUSH2 0x3E5 JUMPI PUSH1 0x40 MLOAD SWAP3 PUSH2 0x32C6 PUSH1 0x1F DUP5 ADD PUSH1 0x1F NOT AND PUSH1 0x20 ADD DUP6 PUSH2 0x318C JUMP JUMPDEST DUP3 DUP5 MSTORE PUSH1 0x20 DUP4 DUP4 ADD ADD GT PUSH2 0x1A3 JUMPI DUP2 PUSH1 0x0 SWAP3 PUSH1 0x20 DUP1 SWAP4 ADD DUP4 DUP7 ADD CALLDATACOPY DUP4 ADD ADD MSTORE SWAP1 JUMP JUMPDEST PUSH1 0x24 CALLDATALOAD SWAP1 PUSH1 0x1 PUSH1 0x1 PUSH1 0xA0 SHL SUB DUP3 AND DUP3 SUB PUSH2 0x1A3 JUMPI JUMP JUMPDEST SWAP1 PUSH1 0x40 PUSH1 0x3 NOT DUP4 ADD SLT PUSH2 0x1A3 JUMPI PUSH1 0x4 CALLDATALOAD SWAP2 PUSH1 0x24 CALLDATALOAD SWAP1 PUSH1 0x1 PUSH1 0x1 PUSH1 0x40 SHL SUB DUP3 GT PUSH2 0x1A3 JUMPI PUSH2 0x332D SWAP2 PUSH1 0x4 ADD PUSH2 0x3292 JUMP JUMPDEST SWAP1 JUMP JUMPDEST DUP1 SLOAD DUP3 LT ISZERO PUSH2 0x334C JUMPI PUSH1 0x0 MSTORE PUSH1 0x3 PUSH1 0x20 PUSH1 0x0 KECCAK256 SWAP2 MUL ADD SWAP1 PUSH1 0x0 SWAP1 JUMP JUMPDEST PUSH4 0x4E487B71 PUSH1 0xE0 SHL PUSH1 0x0 MSTORE PUSH1 0x32 PUSH1 0x4 MSTORE PUSH1 0x24 PUSH1 0x0 REVERT JUMPDEST SWAP1 PUSH1 0x80 PUSH1 0x3 NOT DUP4 ADD SLT PUSH2 0x1A3 JUMPI PUSH1 0x4 CALLDATALOAD SWAP2 PUSH1 0x24 CALLDATALOAD PUSH1 0x1 PUSH1 0x1 PUSH1 0xA0 SHL SUB DUP2 AND DUP2 SUB PUSH2 0x1A3 JUMPI SWAP2 PUSH1 0x44 CALLDATALOAD SWAP2 PUSH1 0x64 CALLDATALOAD SWAP1 PUSH1 0x1 PUSH1 0x1 PUSH1 0x40 SHL SUB DUP3 GT PUSH2 0x1A3 JUMPI PUSH2 0x332D SWAP2 PUSH1 0x4 ADD PUSH2 0x3292 JUMP JUMPDEST PUSH1 0x60 SWAP1 PUSH1 0x3 NOT ADD SLT PUSH2 0x1A3 JUMPI PUSH1 0x4 CALLDATALOAD SWAP1 PUSH1 0x24 CALLDATALOAD PUSH1 0x1 PUSH1 0x1 PUSH1 0xA0 SHL SUB DUP2 AND DUP2 SUB PUSH2 0x1A3 JUMPI SWAP1 PUSH1 0x44 CALLDATALOAD PUSH1 0x1 PUSH1 0x1 PUSH1 0xA0 SHL SUB DUP2 AND DUP2 SUB PUSH2 0x1A3 JUMPI SWAP1 JUMP JUMPDEST PUSH1 0x40 SWAP1 PUSH1 0x3 NOT ADD SLT PUSH2 0x1A3 JUMPI PUSH1 0x4 CALLDATALOAD SWAP1 PUSH1 0x24 CALLDATALOAD SWAP1 JUMP JUMPDEST DUP1 SLOAD DUP3 LT ISZERO PUSH2 0x334C JUMPI PUSH1 0x0 MSTORE PUSH1 0x20 PUSH1 0x0 KECCAK256 ADD SWAP1 PUSH1 0x0 SWAP1 JUMP JUMPDEST PUSH1 0x7 DUP2 LT ISZERO PUSH2 0x342A JUMPI PUSH1 0x0 MSTORE PUSH1 0x1 PUSH1 0x20 MSTORE PUSH1 0x40 PUSH1 0x0 KECCAK256 SWAP1 JUMP JUMPDEST PUSH4 0x4E487B71 PUSH1 0xE0 SHL PUSH1 0x0 MSTORE PUSH1 0x21 PUSH1 0x4 MSTORE PUSH1 0x24 PUSH1 0x0 REVERT JUMPDEST SWAP1 PUSH1 0x7 DUP3 LT ISZERO PUSH2 0x342A JUMPI MSTORE JUMP JUMPDEST PUSH1 0x0 NOT DUP2 EQ PUSH2 0x2361 JUMPI PUSH1 0x1 ADD SWAP1 JUMP JUMPDEST PUSH1 0x1 PUSH1 0x1 PUSH1 0xA0 SHL SUB SWAP1 SWAP2 AND DUP2 MSTORE PUSH1 0x40 DUP2 ADD SWAP3 SWAP2 PUSH2 0x31E6 SWAP2 PUSH1 0x20 ADD SWAP1 PUSH2 0x3440 JUMP JUMPDEST ISZERO PUSH2 0x3483 JUMPI JUMP JUMPDEST PUSH1 0x40 MLOAD PUSH3 0x461BCD PUSH1 0xE5 SHL DUP2 MSTORE PUSH1 0x20 PUSH1 0x4 DUP3 ADD MSTORE PUSH1 0x13 PUSH1 0x24 DUP3 ADD MSTORE PUSH19 0x10DBDB5B5D5B9A5D1E481A5CC818DB1BDCD959 PUSH1 0x6A SHL PUSH1 0x44 DUP3 ADD MSTORE PUSH1 0x64 SWAP1 REVERT JUMPDEST ISZERO PUSH2 0x34C5 JUMPI JUMP JUMPDEST PUSH1 0x40 MLOAD PUSH3 0x461BCD PUSH1 0xE5 SHL DUP2 MSTORE PUSH1 0x20 PUSH1 0x4 DUP3 ADD MSTORE PUSH1 0xC PUSH1 0x24 DUP3 ADD MSTORE PUSH12 0x2737BA10309036B2B6B132B9 PUSH1 0xA1 SHL PUSH1 0x44 DUP3 ADD MSTORE PUSH1 0x64 SWAP1 REVERT JUMPDEST ISZERO PUSH2 0x3500 JUMPI JUMP JUMPDEST PUSH1 0x40 MLOAD PUSH3 0x461BCD PUSH1 0xE5 SHL DUP2 MSTORE PUSH1 0x20 PUSH1 0x4 DUP3 ADD MSTORE PUSH1 0xE PUSH1 0x24 DUP3 ADD MSTORE PUSH14 0x105B1C9958591E4818DB1BDCD959 PUSH1 0x92 SHL PUSH1 0x44 DUP3 ADD MSTORE PUSH1 0x64 SWAP1 REVERT JUMPDEST ISZERO PUSH2 0x353D JUMPI JUMP JUMPDEST PUSH1 0x40 MLOAD PUSH3 0x461BCD PUSH1 0xE5 SHL DUP2 MSTORE PUSH1 0x20 PUSH1 0x4 DUP3 ADD MSTORE PUSH1 0xD PUSH1 0x24 DUP3 ADD MSTORE PUSH13 0x105B1C9958591E481D9BDD1959 PUSH1 0x9A SHL PUSH1 0x44 DUP3 ADD MSTORE PUSH1 0x64 SWAP1 REVERT JUMPDEST SWAP1 DUP2 PUSH1 0x20 SWAP2 SUB SLT PUSH2 0x1A3 JUMPI MLOAD DUP1 ISZERO ISZERO DUP2 SUB PUSH2 0x1A3 JUMPI SWAP1 JUMP JUMPDEST ISZERO PUSH2 0x3591 JUMPI JUMP JUMPDEST PUSH1 0x40 MLOAD PUSH3 0x461BCD PUSH1 0xE5 SHL DUP2 MSTORE PUSH1 0x20 PUSH1 0x4 DUP3 ADD MSTORE PUSH1 0x1F PUSH1 0x24 DUP3 ADD MSTORE PUSH32 0x53636F7265206D757374206265206265747765656E203020616E642031303000 PUSH1 0x44 DUP3 ADD MSTORE PUSH1 0x64 SWAP1 REVERT JUMPDEST SWAP2 SWAP1 DUP3 ADD DUP1 SWAP3 GT PUSH2 0x2361 JUMPI JUMP JUMPDEST DUP2 ISZERO PUSH2 0x35ED JUMPI DIV SWAP1 JUMP JUMPDEST PUSH4 0x4E487B71 PUSH1 0xE0 SHL PUSH1 0x0 MSTORE PUSH1 0x12 PUSH1 0x4 MSTORE PUSH1 0x24 PUSH1 0x0 REVERT JUMPDEST SWAP2 SWAP1 DUP3 SUB SWAP2 DUP3 GT PUSH2 0x2361 JUMPI JUMP JUMPDEST DUP1 SLOAD PUSH1 0x1 PUSH1 0x40 SHL DUP2 LT ISZERO PUSH2 0x3E5 JUMPI PUSH2 0x362D SWAP2 PUSH1 0x1 DUP3 ADD DUP2 SSTORE PUSH2 0x33F9 JUMP JUMPDEST DUP2 SLOAD PUSH1 0x1 PUSH1 0x1 PUSH1 0xA0 SHL SUB SWAP4 DUP5 AND PUSH1 0x3 SWAP3 SWAP1 SWAP3 SHL SWAP2 DUP3 SHL SWAP4 SWAP1 SWAP2 SHL NOT AND SWAP2 SWAP1 SWAP2 OR SWAP1 SSTORE JUMP JUMPDEST DUP1 PUSH1 0x0 MSTORE PUSH1 0x8 PUSH1 0x20 MSTORE PUSH1 0x40 PUSH1 0x0 KECCAK256 SWAP1 DUP1 PUSH1 0x0 MSTORE PUSH1 0xA PUSH1 0x20 MSTORE PUSH1 0x40 PUSH1 0x0 KECCAK256 SLOAD DUP1 ISZERO PUSH2 0x373F JUMPI PUSH1 0xB DUP4 ADD SWAP2 PUSH2 0x368C PUSH1 0xC DUP5 SLOAD SWAP6 ADD SWAP5 DUP6 SLOAD SWAP1 PUSH2 0x35D6 JUMP JUMPDEST DUP1 ISZERO PUSH2 0x3738 JUMPI DUP3 PUSH2 0x369C SWAP2 PUSH2 0x35E3 JUMP JUMPDEST SWAP1 PUSH1 0x0 JUMPDEST DUP4 DUP2 LT PUSH2 0x36B4 JUMPI POP POP POP POP SWAP1 PUSH1 0x0 DUP1 SWAP3 SSTORE SSTORE JUMP JUMPDEST DUP2 PUSH1 0x0 MSTORE PUSH1 0xA PUSH1 0x20 MSTORE DUP3 PUSH2 0x36CC DUP3 PUSH1 0x40 PUSH1 0x0 KECCAK256 PUSH2 0x33F9 JUMP JUMPDEST SWAP1 SLOAD PUSH1 0x0 DUP6 DUP2 MSTORE PUSH1 0x9 PUSH1 0x20 SWAP1 DUP2 MSTORE PUSH1 0x40 DUP1 DUP4 KECCAK256 PUSH1 0x3 SWAP6 SWAP1 SWAP6 SHL SWAP4 SWAP1 SWAP4 SHR PUSH1 0x1 PUSH1 0x1 PUSH1 0xA0 SHL SUB AND DUP1 DUP4 MSTORE SWAP4 SWAP1 MSTORE KECCAK256 PUSH1 0x1 ADD SLOAD PUSH1 0x8 SHR PUSH1 0xFF AND ISZERO PUSH2 0x3713 JUMPI JUMPDEST POP POP PUSH1 0x1 ADD PUSH2 0x36A0 JUMP JUMPDEST PUSH1 0x0 DUP1 DUP1 SWAP4 DUP2 SWAP4 DUP3 DUP3 ISZERO PUSH2 0x372F JUMPI JUMPDEST CALL ISZERO PUSH2 0x107E JUMPI DUP3 CODESIZE PUSH2 0x3709 JUMP JUMPDEST POP PUSH2 0x8FC PUSH2 0x3722 JUMP JUMPDEST POP POP POP POP POP JUMP JUMPDEST POP POP POP JUMP INVALID LOG2 PUSH5 0x6970667358 0x22 SLT KECCAK256 GT EXTCODECOPY PUSH6 0x5E7A50697467 PUSH10 0x43AB2F9443A782A87D52 RETURNDATACOPY SWAP8 0xC5 DUP12 0xE5 BYTE PUSH24 0xA1381D2B8D64736F6C634300081C00330000000000000000 "},"methodIdentifiers":{"STAKE_AMOUNT()":"faf5625f","categoryExists(uint8)":"b51bcc0e","categoryNames(uint256)":"784940c5","claimReward(uint256)":"ae169a50","closeCommunityByAuthor(uint256)":"ed571f06","communities(uint256)":"e590b56a","communityCount()":"aee84613","communityEncryptionKey(uint256)":"0427bdf1","communityToken()":"29aa1617","createCommunity(string,string,string,uint256,uint256,uint256,uint256,uint256,uint8)":"1fa4a560","encryptedDecryptionKeys(uint256,address)":"3f0db812","encryptedKeysCount(uint256)":"1214ee66","getCategoryName(uint8)":"3f9a61e0","getMemberCount(uint256)":"5ce9284f","getMemberStatus(uint256,address)":"26e98b8b","getScores(uint256,address)":"87a6280f","hasGeneratedKeys(uint256)":"7a37128c","hasReviewerVoted(uint256,address,address)":"88c52d7c","hasSenatorScored(uint256,address,address)":"fa95cefb","joinCommunity(uint256)":"b122a0ef","memberAddresses(uint256,uint256)":"b7800e53","memberScores(uint256,address,uint256)":"44d02881","members(uint256,address)":"bb1895c8","proposeCloseCommunity(uint256)":"2c90365b","reviewerApprovals(uint256,address,address)":"676eeee5","reviewerScore(uint256,address,uint256,string)":"d42f02d1","reviewers(uint256,uint256)":"8fd0f3b4","senateAuditScore(uint256,address,uint256,string)":"5130084a","senateContract()":"5d85fa18","setCommunityKeys(uint256,string)":"f2509ad5","setEncryptedDecryptionKey(uint256,address,string,bool)":"55e6a6db","submitCompletion(uint256,string)":"2ae2b664","voteForClose(uint256,bool)":"2c9342de"}}}}}