{"contracts/SubmissionManager.sol":{"SubmissionManager":{"abi":[{"inputs":[{"internalType":"address","name":"_senateAddress","type":"address"}],"stateMutability":"nonpayable","type":"constructor"},{"anonymous":false,"inputs":[{"indexed":true,"internalType":"uint256","name":"communityId","type":"uint256"},{"indexed":true,"internalType":"address","name":"member","type":"address"},{"indexed":false,"internalType":"uint256","name":"finalScore","type":"uint256"}],"name":"FinalScoreCalculated","type":"event"},{"anonymous":false,"inputs":[{"indexed":true,"internalType":"uint256","name":"communityId","type":"uint256"},{"indexed":true,"internalType":"address","name":"member","type":"address"},{"indexed":true,"internalType":"address","name":"senator","type":"address"},{"indexed":false,"internalType":"uint256","name":"score","type":"uint256"}],"name":"ScoreSubmitted","type":"event"},{"anonymous":false,"inputs":[{"indexed":true,"internalType":"uint256","name":"communityId","type":"uint256"},{"indexed":true,"internalType":"address","name":"member","type":"address"},{"indexed":false,"internalType":"string","name":"contentUrl","type":"string"}],"name":"SubmissionCreated","type":"event"},{"inputs":[{"internalType":"enum CommunityTypes.Category","name":"","type":"uint8"}],"name":"categoryExists","outputs":[{"internalType":"bool","name":"","type":"bool"}],"stateMutability":"view","type":"function"},{"inputs":[{"internalType":"uint256","name":"","type":"uint256"}],"name":"categoryNames","outputs":[{"internalType":"string","name":"","type":"string"}],"stateMutability":"view","type":"function"},{"inputs":[{"internalType":"enum CommunityTypes.Category","name":"_category","type":"uint8"}],"name":"getCategoryName","outputs":[{"internalType":"string","name":"","type":"string"}],"stateMutability":"view","type":"function"},{"inputs":[{"internalType":"uint256","name":"_communityId","type":"uint256"},{"internalType":"address","name":"_member","type":"address"}],"name":"getFinalScore","outputs":[{"internalType":"uint256","name":"","type":"uint256"},{"internalType":"bool","name":"","type":"bool"}],"stateMutability":"view","type":"function"},{"inputs":[{"internalType":"uint256","name":"_communityId","type":"uint256"},{"internalType":"address","name":"_member","type":"address"},{"internalType":"address","name":"_senator","type":"address"}],"name":"getSenatorScore","outputs":[{"internalType":"uint256","name":"","type":"uint256"}],"stateMutability":"view","type":"function"},{"inputs":[],"name":"senateContract","outputs":[{"internalType":"contract Senate","name":"","type":"address"}],"stateMutability":"view","type":"function"},{"inputs":[{"internalType":"uint256","name":"","type":"uint256"},{"internalType":"address","name":"","type":"address"},{"internalType":"address","name":"","type":"address"}],"name":"senatorScores","outputs":[{"internalType":"uint256","name":"","type":"uint256"}],"stateMutability":"view","type":"function"},{"inputs":[{"internalType":"uint256","name":"","type":"uint256"},{"internalType":"address","name":"","type":"address"},{"internalType":"uint256","name":"","type":"uint256"}],"name":"submissionScorers","outputs":[{"internalType":"address","name":"","type":"address"}],"stateMutability":"view","type":"function"},{"inputs":[{"internalType":"uint256","name":"","type":"uint256"},{"internalType":"address","name":"","type":"address"}],"name":"submissions","outputs":[{"internalType":"address","name":"member","type":"address"},{"internalType":"uint256","name":"communityId","type":"uint256"},{"internalType":"string","name":"contentUrl","type":"string"},{"internalType":"uint256","name":"submitTime","type":"uint256"},{"internalType":"bool","name":"isScored","type":"bool"},{"internalType":"uint256","name":"finalScore","type":"uint256"}],"stateMutability":"view","type":"function"},{"inputs":[{"internalType":"uint256","name":"_communityId","type":"uint256"},{"internalType":"string","name":"_contentUrl","type":"string"},{"internalType":"enum CommunityTypes.Category","name":"_category","type":"uint8"}],"name":"submitContent","outputs":[],"stateMutability":"nonpayable","type":"function"},{"inputs":[{"internalType":"uint256","name":"_communityId","type":"uint256"},{"internalType":"address","name":"_member","type":"address"},{"internalType":"uint256","name":"_score","type":"uint256"}],"name":"submitScore","outputs":[],"stateMutability":"nonpayable","type":"function"}],"evm":{"bytecode":{"linkReferences":{},"object":"60803461036c57601f61126338819003918201601f19168301916001600160401b038311848410176103715780849260209460405283398101031261036c57516001600160a01b0381169081900361036c5760016000526000602052604060002061007361006d8254610387565b826103c1565b600a644d7573696360d81b019055600260009081526020527fabbb5caa7dda850e60932de0934eb1f9d0f59695050f761dc64e443e5030a56980546100b790610387565b601f811161033f575b50600662105c9d60ea1b019055600360009081526020527f101e368776582e57ab3d116ffe2517c0a585cd5b23174b01e275c2d8329c3d83805461010390610387565b601f8111610312575b50600c6553706f72747360d01b019055600460009081526020527f52d75039926638d3c558b2bdefb945d5be8dae29dedd1c313212a4d472d9fde5805461015290610387565b601f81116102e5575b507f456475636174696f6e00000000000000000000000000000000000000000000129055600560009081526020527f2b232c97452f0950c94e2539fdc7e69d21166113cf7a9bcb99b220a3fe5d720a80546101b590610387565b601f81116102b8575b507f546563686e6f6c6f6779000000000000000000000000000000000000000000149055600660009081526020527f62103cf3131c85df57aad364d21cba02556d3092d6cb54c298c2e7726a7870bd805461021c9061006d90610387565b600a6427ba3432b960d91b01905560005b600681111561025a5750600280546001600160a01b031916919091179055604051610e6b90816103f88239f35b60078110156102a25760406000828152600160205220600160ff19825416179055600019811461028c5760010161022d565b634e487b7160e01b600052601160045260246000fd5b634e487b7160e01b600052602160045260246000fd5b81600052601f6020600020910160051c8101905b8181106102d957506101be565b600081556001016102cc565b81600052601f6020600020910160051c8101905b818110610306575061015b565b600081556001016102f9565b81600052601f6020600020910160051c8101905b818110610333575061010c565b60008155600101610326565b81600052601f6020600020910160051c8101905b81811061036057506100c0565b60008155600101610353565b600080fd5b634e487b7160e01b600052604160045260246000fd5b90600182811c921680156103b7575b60208310146103a157565b634e487b7160e01b600052602260045260246000fd5b91607f1691610396565b601f82116103cd575050565b600052601f6020600020910160051c8101905b8181106103eb575050565b600081556001016103e056fe6080604052600436101561001257600080fd5b60003560e01c80630317a6a314610bc25780630504429b146108875780630e4dbf5c146107e657806329d8e857146102765780633f9a61e0146101ea57806349e97bf7146100955780635d85fa18146101c1578063784940c51461017d578063818c43681461011f578063b51bcc0e146100e95763eedfae641461009557600080fd5b346100e4576100a336610d9c565b91600052600460205260406000209060018060a01b031660005260205260406000209060018060a01b03166000526020526020604060002054604051908152f35b600080fd5b346100e45760203660031901126100e45760043560078110156100e45760ff610113602092610e04565b54166040519015158152f35b346100e45761012d36610d72565b91600052600560205260406000209060018060a01b0316600052602052604060002080548210156100e45760209161016491610dd6565b905460405160039290921b1c6001600160a01b03168152f35b346100e45760203660031901126100e45760043560005260006020526101bd6101a96040600020610c8d565b604051918291602083526020830190610d31565b0390f35b346100e45760003660031901126100e4576002546040516001600160a01b039091168152602090f35b346100e45760203660031901126100e45760043560078110156100e45760ff61021282610e04565b5416156102315760005260006020526101bd6101a96040600020610c8d565b60405162461bcd60e51b815260206004820152601760248201527f43617465676f727920646f6573206e6f742065786973740000000000000000006044820152606490fd5b346100e45761028436610d72565b826000939293526003602052604060002060018060a01b03841660005260205260406000206003810154156107aa576004015460ff16610774576064811161072f57600254604051633b835c3d60e21b81523360048201526001600160a01b0390911693602082602481885afa9081156106005760249260009261070d575b5060209060405193848092633b835c3d60e21b825260018060a01b0316988960048301525afa918215610600576000926106ec575b50600782101561060c57600781101561060c57036106ae576000828152600460209081526040808320868452825280832033845290915290205461066957600082815260046020908152604080832086845282528083203384528252808320849055848352600582528083208684529091529020805468010000000000000000811015610653576103ce91600182018155610dd6565b81549060031b9033821b9160018060a01b03901b191617905560405190815282827f378f514d49e4abb7486bee29952af6519de11cb70a74cd68479f52457b0518f760203394a4600254604051633b835c3d60e21b815260048101849052906001600160a01b0316602082602481845afa91821561060057600092610622575b50604051638a1943fd60e01b815291600781101561060c57602483602093819360048301525afa908115610600576000916105ce575b5081600052600560205260406000208360005260205260406000205410156104a857005b80600052600560205260406000208260005260205260406000206000808254925b838210610560575050811561054a577f2f0b17ded3481ee6aacbefb24a3e74b8e7c0a3aac8d9b7ca5dc4df68027efd8d91602091048360005260038252604060002085600052825280600560406000200155836000526003825260406000208560005282526004604060002001600160ff19825416179055604051908152a3005b634e487b7160e01b600052601260045260246000fd5b909184600052600460205260408080600020600090898252602052206105868585610dd6565b905460039190911b1c6001600160a01b03166000908152602091909152205481019081106105b85791600101906104c9565b634e487b7160e01b600052601160045260246000fd5b90506020813d6020116105f8575b816105e960209383610c31565b810103126100e4575183610484565b3d91506105dc565b6040513d6000823e3d90fd5b634e487b7160e01b600052602160045260246000fd5b61064591925060203d60201161064c575b61063d8183610c31565b810190610e1d565b908461044e565b503d610633565b634e487b7160e01b600052604160045260246000fd5b60405162461bcd60e51b815260206004820152601e60248201527f416c72656164792073636f72656420627920746869732073656e61746f7200006044820152606490fd5b60405162461bcd60e51b81526020600482015260166024820152752737ba1030baba3437b934bd32b21039b2b730ba37b960511b6044820152606490fd5b61070691925060203d60201161064c5761063d8183610c31565b9085610338565b602091925061072890823d841161064c5761063d8183610c31565b9190610303565b60405162461bcd60e51b815260206004820152601f60248201527f53636f7265206d757374206265206265747765656e203020616e6420313030006044820152606490fd5b60405162461bcd60e51b815260206004820152600e60248201526d105b1c9958591e481cd8dbdc995960921b6044820152606490fd5b60405162461bcd60e51b815260206004820152601460248201527314dd589b5a5cdcda5bdb881b9bdd08199bdd5b9960621b6044820152606490fd5b346100e45760403660031901126100e4576040610801610c1b565b6004356000908152600360209081528382206001600160a01b0393841683529052919091208054600182015492169061083c60028201610c8d565b600382015491610871600560ff600484015416920154926040519687968752602087015260c0604087015260c0860190610d31565b9260608501521515608084015260a08301520390f35b346100e45760603660031901126100e45760043560243567ffffffffffffffff81116100e457366023820112156100e457806004013567ffffffffffffffff811161065357604051916108e4601f8301601f191660200184610c31565b81835236602483830101116100e457816000926024602093018386013783010152600760443510156100e457805115610b7d57600082815260036020908152604080832033845290915290206004015460ff16610b38576040519160c0830183811067ffffffffffffffff8211176106535760409081523380855260208086018481528684018681524260608901908152600060808a0181815260a08b01828152898352600387528883209783529690955295909520975188546001600160a01b0319166001600160a01b03919091161788559051600188015551805190969390600285019067ffffffffffffffff8111610653576109e38254610c53565b601f8111610af0575b506020601f8211600114610a8557819060059798999a600092610a7a575b50508160011b916000199060031b1c19161790555b516003850155600484019051151560ff80198354169116179055519101557f72075524713934864c8a8ff2740c94cd50c441bf186d8ffd9b908ca8dbb4776d6040516020815280610a7533956020830190610d31565b0390a3005b015190508a80610a0a565b601f1982169983600052816000209a60005b818110610ad8575091600598999a9b91846001959410610abf575b505050811b019055610a1f565b015160001960f88460031b161c191690558a8080610ab2565b838301518d556001909c019b60209384019301610a97565b826000526020600020601f830160051c81019160208410610b2e575b601f0160051c01905b818110610b2257506109ec565b60008155600101610b15565b9091508190610b0c565b60405162461bcd60e51b815260206004820152601c60248201527f416c7265616479207375626d697474656420616e642073636f726564000000006044820152606490fd5b60405162461bcd60e51b815260206004820152601b60248201527f436f6e74656e742055524c2063616e6e6f7420626520656d70747900000000006044820152606490fd5b346100e45760403660031901126100e457610bdb610c1b565b600435600052600360205260406000209060018060a01b031660005260205260408060002060ff6004600583015492015416825191825215156020820152f35b602435906001600160a01b03821682036100e457565b90601f8019910116810190811067ffffffffffffffff82111761065357604052565b90600182811c92168015610c83575b6020831014610c6d57565b634e487b7160e01b600052602260045260246000fd5b91607f1691610c62565b9060405191826000825492610ca184610c53565b8084529360018116908115610d0f5750600114610cc8575b50610cc692500383610c31565b565b90506000929192526020600020906000915b818310610cf3575050906020610cc69282010138610cb9565b6020919350806001915483858901015201910190918492610cda565b905060209250610cc694915060ff191682840152151560051b82010138610cb9565b919082519283825260005b848110610d5d575050826000602080949584010152601f8019910116010190565b80602080928401015182828601015201610d3c565b60609060031901126100e457600435906024356001600160a01b03811681036100e4579060443590565b60609060031901126100e457600435906024356001600160a01b03811681036100e457906044356001600160a01b03811681036100e45790565b8054821015610dee5760005260206000200190600090565b634e487b7160e01b600052603260045260246000fd5b600781101561060c576000526001602052604060002090565b908160209103126100e4575160078110156100e4579056fea26469706673582212204c42e9c4e3ad2a3f360d13fc1e26b9177b9dc3228df355e7250445b349ad80d864736f6c634300081c0033","opcodes":"PUSH1 0x80 CALLVALUE PUSH2 0x36C JUMPI PUSH1 0x1F PUSH2 0x1263 CODESIZE DUP2 SWAP1 SUB SWAP2 DUP3 ADD PUSH1 0x1F NOT AND DUP4 ADD SWAP2 PUSH1 0x1 PUSH1 0x1 PUSH1 0x40 SHL SUB DUP4 GT DUP5 DUP5 LT OR PUSH2 0x371 JUMPI DUP1 DUP5 SWAP3 PUSH1 0x20 SWAP5 PUSH1 0x40 MSTORE DUP4 CODECOPY DUP2 ADD SUB SLT PUSH2 0x36C JUMPI MLOAD PUSH1 0x1 PUSH1 0x1 PUSH1 0xA0 SHL SUB DUP2 AND SWAP1 DUP2 SWAP1 SUB PUSH2 0x36C JUMPI PUSH1 0x1 PUSH1 0x0 MSTORE PUSH1 0x0 PUSH1 0x20 MSTORE PUSH1 0x40 PUSH1 0x0 KECCAK256 PUSH2 0x73 PUSH2 0x6D DUP3 SLOAD PUSH2 0x387 JUMP JUMPDEST DUP3 PUSH2 0x3C1 JUMP JUMPDEST PUSH1 0xA PUSH5 0x4D75736963 PUSH1 0xD8 SHL ADD SWAP1 SSTORE PUSH1 0x2 PUSH1 0x0 SWAP1 DUP2 MSTORE PUSH1 0x20 MSTORE PUSH32 0xABBB5CAA7DDA850E60932DE0934EB1F9D0F59695050F761DC64E443E5030A569 DUP1 SLOAD PUSH2 0xB7 SWAP1 PUSH2 0x387 JUMP JUMPDEST PUSH1 0x1F DUP2 GT PUSH2 0x33F JUMPI JUMPDEST POP PUSH1 0x6 PUSH3 0x105C9D PUSH1 0xEA SHL ADD SWAP1 SSTORE PUSH1 0x3 PUSH1 0x0 SWAP1 DUP2 MSTORE PUSH1 0x20 MSTORE PUSH32 0x101E368776582E57AB3D116FFE2517C0A585CD5B23174B01E275C2D8329C3D83 DUP1 SLOAD PUSH2 0x103 SWAP1 PUSH2 0x387 JUMP JUMPDEST PUSH1 0x1F DUP2 GT PUSH2 0x312 JUMPI JUMPDEST POP PUSH1 0xC PUSH6 0x53706F727473 PUSH1 0xD0 SHL ADD SWAP1 SSTORE PUSH1 0x4 PUSH1 0x0 SWAP1 DUP2 MSTORE PUSH1 0x20 MSTORE PUSH32 0x52D75039926638D3C558B2BDEFB945D5BE8DAE29DEDD1C313212A4D472D9FDE5 DUP1 SLOAD PUSH2 0x152 SWAP1 PUSH2 0x387 JUMP JUMPDEST PUSH1 0x1F DUP2 GT PUSH2 0x2E5 JUMPI JUMPDEST POP PUSH32 0x456475636174696F6E0000000000000000000000000000000000000000000012 SWAP1 SSTORE PUSH1 0x5 PUSH1 0x0 SWAP1 DUP2 MSTORE PUSH1 0x20 MSTORE PUSH32 0x2B232C97452F0950C94E2539FDC7E69D21166113CF7A9BCB99B220A3FE5D720A DUP1 SLOAD PUSH2 0x1B5 SWAP1 PUSH2 0x387 JUMP JUMPDEST PUSH1 0x1F DUP2 GT PUSH2 0x2B8 JUMPI JUMPDEST POP PUSH32 0x546563686E6F6C6F677900000000000000000000000000000000000000000014 SWAP1 SSTORE PUSH1 0x6 PUSH1 0x0 SWAP1 DUP2 MSTORE PUSH1 0x20 MSTORE PUSH32 0x62103CF3131C85DF57AAD364D21CBA02556D3092D6CB54C298C2E7726A7870BD DUP1 SLOAD PUSH2 0x21C SWAP1 PUSH2 0x6D SWAP1 PUSH2 0x387 JUMP JUMPDEST PUSH1 0xA PUSH5 0x27BA3432B9 PUSH1 0xD9 SHL ADD SWAP1 SSTORE PUSH1 0x0 JUMPDEST PUSH1 0x6 DUP2 GT ISZERO PUSH2 0x25A JUMPI POP PUSH1 0x2 DUP1 SLOAD PUSH1 0x1 PUSH1 0x1 PUSH1 0xA0 SHL SUB NOT AND SWAP2 SWAP1 SWAP2 OR SWAP1 SSTORE PUSH1 0x40 MLOAD PUSH2 0xE6B SWAP1 DUP2 PUSH2 0x3F8 DUP3 CODECOPY RETURN JUMPDEST PUSH1 0x7 DUP2 LT ISZERO PUSH2 0x2A2 JUMPI PUSH1 0x40 PUSH1 0x0 DUP3 DUP2 MSTORE PUSH1 0x1 PUSH1 0x20 MSTORE KECCAK256 PUSH1 0x1 PUSH1 0xFF NOT DUP3 SLOAD AND OR SWAP1 SSTORE PUSH1 0x0 NOT DUP2 EQ PUSH2 0x28C JUMPI PUSH1 0x1 ADD PUSH2 0x22D JUMP JUMPDEST PUSH4 0x4E487B71 PUSH1 0xE0 SHL PUSH1 0x0 MSTORE PUSH1 0x11 PUSH1 0x4 MSTORE PUSH1 0x24 PUSH1 0x0 REVERT JUMPDEST PUSH4 0x4E487B71 PUSH1 0xE0 SHL PUSH1 0x0 MSTORE PUSH1 0x21 PUSH1 0x4 MSTORE PUSH1 0x24 PUSH1 0x0 REVERT JUMPDEST DUP2 PUSH1 0x0 MSTORE PUSH1 0x1F PUSH1 0x20 PUSH1 0x0 KECCAK256 SWAP2 ADD PUSH1 0x5 SHR DUP2 ADD SWAP1 JUMPDEST DUP2 DUP2 LT PUSH2 0x2D9 JUMPI POP PUSH2 0x1BE JUMP JUMPDEST PUSH1 0x0 DUP2 SSTORE PUSH1 0x1 ADD PUSH2 0x2CC JUMP JUMPDEST DUP2 PUSH1 0x0 MSTORE PUSH1 0x1F PUSH1 0x20 PUSH1 0x0 KECCAK256 SWAP2 ADD PUSH1 0x5 SHR DUP2 ADD SWAP1 JUMPDEST DUP2 DUP2 LT PUSH2 0x306 JUMPI POP PUSH2 0x15B JUMP JUMPDEST PUSH1 0x0 DUP2 SSTORE PUSH1 0x1 ADD PUSH2 0x2F9 JUMP JUMPDEST DUP2 PUSH1 0x0 MSTORE PUSH1 0x1F PUSH1 0x20 PUSH1 0x0 KECCAK256 SWAP2 ADD PUSH1 0x5 SHR DUP2 ADD SWAP1 JUMPDEST DUP2 DUP2 LT PUSH2 0x333 JUMPI POP PUSH2 0x10C JUMP JUMPDEST PUSH1 0x0 DUP2 SSTORE PUSH1 0x1 ADD PUSH2 0x326 JUMP JUMPDEST DUP2 PUSH1 0x0 MSTORE PUSH1 0x1F PUSH1 0x20 PUSH1 0x0 KECCAK256 SWAP2 ADD PUSH1 0x5 SHR DUP2 ADD SWAP1 JUMPDEST DUP2 DUP2 LT PUSH2 0x360 JUMPI POP PUSH2 0xC0 JUMP JUMPDEST PUSH1 0x0 DUP2 SSTORE PUSH1 0x1 ADD PUSH2 0x353 JUMP JUMPDEST PUSH1 0x0 DUP1 REVERT JUMPDEST PUSH4 0x4E487B71 PUSH1 0xE0 SHL PUSH1 0x0 MSTORE PUSH1 0x41 PUSH1 0x4 MSTORE PUSH1 0x24 PUSH1 0x0 REVERT JUMPDEST SWAP1 PUSH1 0x1 DUP3 DUP2 SHR SWAP3 AND DUP1 ISZERO PUSH2 0x3B7 JUMPI JUMPDEST PUSH1 0x20 DUP4 LT EQ PUSH2 0x3A1 JUMPI JUMP JUMPDEST PUSH4 0x4E487B71 PUSH1 0xE0 SHL PUSH1 0x0 MSTORE PUSH1 0x22 PUSH1 0x4 MSTORE PUSH1 0x24 PUSH1 0x0 REVERT JUMPDEST SWAP2 PUSH1 0x7F AND SWAP2 PUSH2 0x396 JUMP JUMPDEST PUSH1 0x1F DUP3 GT PUSH2 0x3CD JUMPI POP POP JUMP JUMPDEST PUSH1 0x0 MSTORE PUSH1 0x1F PUSH1 0x20 PUSH1 0x0 KECCAK256 SWAP2 ADD PUSH1 0x5 SHR DUP2 ADD SWAP1 JUMPDEST DUP2 DUP2 LT PUSH2 0x3EB JUMPI POP POP JUMP JUMPDEST PUSH1 0x0 DUP2 SSTORE PUSH1 0x1 ADD PUSH2 0x3E0 JUMP INVALID PUSH1 0x80 PUSH1 0x40 MSTORE PUSH1 0x4 CALLDATASIZE LT ISZERO PUSH2 0x12 JUMPI PUSH1 0x0 DUP1 REVERT JUMPDEST PUSH1 0x0 CALLDATALOAD PUSH1 0xE0 SHR DUP1 PUSH4 0x317A6A3 EQ PUSH2 0xBC2 JUMPI DUP1 PUSH4 0x504429B EQ PUSH2 0x887 JUMPI DUP1 PUSH4 0xE4DBF5C EQ PUSH2 0x7E6 JUMPI DUP1 PUSH4 0x29D8E857 EQ PUSH2 0x276 JUMPI DUP1 PUSH4 0x3F9A61E0 EQ PUSH2 0x1EA JUMPI DUP1 PUSH4 0x49E97BF7 EQ PUSH2 0x95 JUMPI DUP1 PUSH4 0x5D85FA18 EQ PUSH2 0x1C1 JUMPI DUP1 PUSH4 0x784940C5 EQ PUSH2 0x17D JUMPI DUP1 PUSH4 0x818C4368 EQ PUSH2 0x11F JUMPI DUP1 PUSH4 0xB51BCC0E EQ PUSH2 0xE9 JUMPI PUSH4 0xEEDFAE64 EQ PUSH2 0x95 JUMPI PUSH1 0x0 DUP1 REVERT JUMPDEST CALLVALUE PUSH2 0xE4 JUMPI PUSH2 0xA3 CALLDATASIZE PUSH2 0xD9C JUMP JUMPDEST SWAP2 PUSH1 0x0 MSTORE PUSH1 0x4 PUSH1 0x20 MSTORE PUSH1 0x40 PUSH1 0x0 KECCAK256 SWAP1 PUSH1 0x1 DUP1 PUSH1 0xA0 SHL SUB AND PUSH1 0x0 MSTORE PUSH1 0x20 MSTORE PUSH1 0x40 PUSH1 0x0 KECCAK256 SWAP1 PUSH1 0x1 DUP1 PUSH1 0xA0 SHL SUB AND PUSH1 0x0 MSTORE PUSH1 0x20 MSTORE PUSH1 0x20 PUSH1 0x40 PUSH1 0x0 KECCAK256 SLOAD PUSH1 0x40 MLOAD SWAP1 DUP2 MSTORE RETURN JUMPDEST PUSH1 0x0 DUP1 REVERT JUMPDEST CALLVALUE PUSH2 0xE4 JUMPI PUSH1 0x20 CALLDATASIZE PUSH1 0x3 NOT ADD SLT PUSH2 0xE4 JUMPI PUSH1 0x4 CALLDATALOAD PUSH1 0x7 DUP2 LT ISZERO PUSH2 0xE4 JUMPI PUSH1 0xFF PUSH2 0x113 PUSH1 0x20 SWAP3 PUSH2 0xE04 JUMP JUMPDEST SLOAD AND PUSH1 0x40 MLOAD SWAP1 ISZERO ISZERO DUP2 MSTORE RETURN JUMPDEST CALLVALUE PUSH2 0xE4 JUMPI PUSH2 0x12D CALLDATASIZE PUSH2 0xD72 JUMP JUMPDEST SWAP2 PUSH1 0x0 MSTORE PUSH1 0x5 PUSH1 0x20 MSTORE PUSH1 0x40 PUSH1 0x0 KECCAK256 SWAP1 PUSH1 0x1 DUP1 PUSH1 0xA0 SHL SUB AND PUSH1 0x0 MSTORE PUSH1 0x20 MSTORE PUSH1 0x40 PUSH1 0x0 KECCAK256 DUP1 SLOAD DUP3 LT ISZERO PUSH2 0xE4 JUMPI PUSH1 0x20 SWAP2 PUSH2 0x164 SWAP2 PUSH2 0xDD6 JUMP JUMPDEST SWAP1 SLOAD PUSH1 0x40 MLOAD PUSH1 0x3 SWAP3 SWAP1 SWAP3 SHL SHR PUSH1 0x1 PUSH1 0x1 PUSH1 0xA0 SHL SUB AND DUP2 MSTORE RETURN JUMPDEST CALLVALUE PUSH2 0xE4 JUMPI PUSH1 0x20 CALLDATASIZE PUSH1 0x3 NOT ADD SLT PUSH2 0xE4 JUMPI PUSH1 0x4 CALLDATALOAD PUSH1 0x0 MSTORE PUSH1 0x0 PUSH1 0x20 MSTORE PUSH2 0x1BD PUSH2 0x1A9 PUSH1 0x40 PUSH1 0x0 KECCAK256 PUSH2 0xC8D JUMP JUMPDEST PUSH1 0x40 MLOAD SWAP2 DUP3 SWAP2 PUSH1 0x20 DUP4 MSTORE PUSH1 0x20 DUP4 ADD SWAP1 PUSH2 0xD31 JUMP JUMPDEST SUB SWAP1 RETURN JUMPDEST CALLVALUE PUSH2 0xE4 JUMPI PUSH1 0x0 CALLDATASIZE PUSH1 0x3 NOT ADD SLT PUSH2 0xE4 JUMPI PUSH1 0x2 SLOAD PUSH1 0x40 MLOAD PUSH1 0x1 PUSH1 0x1 PUSH1 0xA0 SHL SUB SWAP1 SWAP2 AND DUP2 MSTORE PUSH1 0x20 SWAP1 RETURN JUMPDEST CALLVALUE PUSH2 0xE4 JUMPI PUSH1 0x20 CALLDATASIZE PUSH1 0x3 NOT ADD SLT PUSH2 0xE4 JUMPI PUSH1 0x4 CALLDATALOAD PUSH1 0x7 DUP2 LT ISZERO PUSH2 0xE4 JUMPI PUSH1 0xFF PUSH2 0x212 DUP3 PUSH2 0xE04 JUMP JUMPDEST SLOAD AND ISZERO PUSH2 0x231 JUMPI PUSH1 0x0 MSTORE PUSH1 0x0 PUSH1 0x20 MSTORE PUSH2 0x1BD PUSH2 0x1A9 PUSH1 0x40 PUSH1 0x0 KECCAK256 PUSH2 0xC8D JUMP JUMPDEST PUSH1 0x40 MLOAD PUSH3 0x461BCD PUSH1 0xE5 SHL DUP2 MSTORE PUSH1 0x20 PUSH1 0x4 DUP3 ADD MSTORE PUSH1 0x17 PUSH1 0x24 DUP3 ADD MSTORE PUSH32 0x43617465676F727920646F6573206E6F74206578697374000000000000000000 PUSH1 0x44 DUP3 ADD MSTORE PUSH1 0x64 SWAP1 REVERT JUMPDEST CALLVALUE PUSH2 0xE4 JUMPI PUSH2 0x284 CALLDATASIZE PUSH2 0xD72 JUMP JUMPDEST DUP3 PUSH1 0x0 SWAP4 SWAP3 SWAP4 MSTORE PUSH1 0x3 PUSH1 0x20 MSTORE PUSH1 0x40 PUSH1 0x0 KECCAK256 PUSH1 0x1 DUP1 PUSH1 0xA0 SHL SUB DUP5 AND PUSH1 0x0 MSTORE PUSH1 0x20 MSTORE PUSH1 0x40 PUSH1 0x0 KECCAK256 PUSH1 0x3 DUP2 ADD SLOAD ISZERO PUSH2 0x7AA JUMPI PUSH1 0x4 ADD SLOAD PUSH1 0xFF AND PUSH2 0x774 JUMPI PUSH1 0x64 DUP2 GT PUSH2 0x72F JUMPI PUSH1 0x2 SLOAD PUSH1 0x40 MLOAD PUSH4 0x3B835C3D PUSH1 0xE2 SHL DUP2 MSTORE CALLER PUSH1 0x4 DUP3 ADD MSTORE PUSH1 0x1 PUSH1 0x1 PUSH1 0xA0 SHL SUB SWAP1 SWAP2 AND SWAP4 PUSH1 0x20 DUP3 PUSH1 0x24 DUP2 DUP9 GAS STATICCALL SWAP1 DUP2 ISZERO PUSH2 0x600 JUMPI PUSH1 0x24 SWAP3 PUSH1 0x0 SWAP3 PUSH2 0x70D JUMPI JUMPDEST POP PUSH1 0x20 SWAP1 PUSH1 0x40 MLOAD SWAP4 DUP5 DUP1 SWAP3 PUSH4 0x3B835C3D PUSH1 0xE2 SHL DUP3 MSTORE PUSH1 0x1 DUP1 PUSH1 0xA0 SHL SUB AND SWAP9 DUP10 PUSH1 0x4 DUP4 ADD MSTORE GAS STATICCALL SWAP2 DUP3 ISZERO PUSH2 0x600 JUMPI PUSH1 0x0 SWAP3 PUSH2 0x6EC JUMPI JUMPDEST POP PUSH1 0x7 DUP3 LT ISZERO PUSH2 0x60C JUMPI PUSH1 0x7 DUP2 LT ISZERO PUSH2 0x60C JUMPI SUB PUSH2 0x6AE JUMPI PUSH1 0x0 DUP3 DUP2 MSTORE PUSH1 0x4 PUSH1 0x20 SWAP1 DUP2 MSTORE PUSH1 0x40 DUP1 DUP4 KECCAK256 DUP7 DUP5 MSTORE DUP3 MSTORE DUP1 DUP4 KECCAK256 CALLER DUP5 MSTORE SWAP1 SWAP2 MSTORE SWAP1 KECCAK256 SLOAD PUSH2 0x669 JUMPI PUSH1 0x0 DUP3 DUP2 MSTORE PUSH1 0x4 PUSH1 0x20 SWAP1 DUP2 MSTORE PUSH1 0x40 DUP1 DUP4 KECCAK256 DUP7 DUP5 MSTORE DUP3 MSTORE DUP1 DUP4 KECCAK256 CALLER DUP5 MSTORE DUP3 MSTORE DUP1 DUP4 KECCAK256 DUP5 SWAP1 SSTORE DUP5 DUP4 MSTORE PUSH1 0x5 DUP3 MSTORE DUP1 DUP4 KECCAK256 DUP7 DUP5 MSTORE SWAP1 SWAP2 MSTORE SWAP1 KECCAK256 DUP1 SLOAD PUSH9 0x10000000000000000 DUP2 LT ISZERO PUSH2 0x653 JUMPI PUSH2 0x3CE SWAP2 PUSH1 0x1 DUP3 ADD DUP2 SSTORE PUSH2 0xDD6 JUMP JUMPDEST DUP2 SLOAD SWAP1 PUSH1 0x3 SHL SWAP1 CALLER DUP3 SHL SWAP2 PUSH1 0x1 DUP1 PUSH1 0xA0 SHL SUB SWAP1 SHL NOT AND OR SWAP1 SSTORE PUSH1 0x40 MLOAD SWAP1 DUP2 MSTORE DUP3 DUP3 PUSH32 0x378F514D49E4ABB7486BEE29952AF6519DE11CB70A74CD68479F52457B0518F7 PUSH1 0x20 CALLER SWAP5 LOG4 PUSH1 0x2 SLOAD PUSH1 0x40 MLOAD PUSH4 0x3B835C3D PUSH1 0xE2 SHL DUP2 MSTORE PUSH1 0x4 DUP2 ADD DUP5 SWAP1 MSTORE SWAP1 PUSH1 0x1 PUSH1 0x1 PUSH1 0xA0 SHL SUB AND PUSH1 0x20 DUP3 PUSH1 0x24 DUP2 DUP5 GAS STATICCALL SWAP2 DUP3 ISZERO PUSH2 0x600 JUMPI PUSH1 0x0 SWAP3 PUSH2 0x622 JUMPI JUMPDEST POP PUSH1 0x40 MLOAD PUSH4 0x8A1943FD PUSH1 0xE0 SHL DUP2 MSTORE SWAP2 PUSH1 0x7 DUP2 LT ISZERO PUSH2 0x60C JUMPI PUSH1 0x24 DUP4 PUSH1 0x20 SWAP4 DUP2 SWAP4 PUSH1 0x4 DUP4 ADD MSTORE GAS STATICCALL SWAP1 DUP2 ISZERO PUSH2 0x600 JUMPI PUSH1 0x0 SWAP2 PUSH2 0x5CE JUMPI JUMPDEST POP DUP2 PUSH1 0x0 MSTORE PUSH1 0x5 PUSH1 0x20 MSTORE PUSH1 0x40 PUSH1 0x0 KECCAK256 DUP4 PUSH1 0x0 MSTORE PUSH1 0x20 MSTORE PUSH1 0x40 PUSH1 0x0 KECCAK256 SLOAD LT ISZERO PUSH2 0x4A8 JUMPI STOP JUMPDEST DUP1 PUSH1 0x0 MSTORE PUSH1 0x5 PUSH1 0x20 MSTORE PUSH1 0x40 PUSH1 0x0 KECCAK256 DUP3 PUSH1 0x0 MSTORE PUSH1 0x20 MSTORE PUSH1 0x40 PUSH1 0x0 KECCAK256 PUSH1 0x0 DUP1 DUP3 SLOAD SWAP3 JUMPDEST DUP4 DUP3 LT PUSH2 0x560 JUMPI POP POP DUP2 ISZERO PUSH2 0x54A JUMPI PUSH32 0x2F0B17DED3481EE6AACBEFB24A3E74B8E7C0A3AAC8D9B7CA5DC4DF68027EFD8D SWAP2 PUSH1 0x20 SWAP2 DIV DUP4 PUSH1 0x0 MSTORE PUSH1 0x3 DUP3 MSTORE PUSH1 0x40 PUSH1 0x0 KECCAK256 DUP6 PUSH1 0x0 MSTORE DUP3 MSTORE DUP1 PUSH1 0x5 PUSH1 0x40 PUSH1 0x0 KECCAK256 ADD SSTORE DUP4 PUSH1 0x0 MSTORE PUSH1 0x3 DUP3 MSTORE PUSH1 0x40 PUSH1 0x0 KECCAK256 DUP6 PUSH1 0x0 MSTORE DUP3 MSTORE PUSH1 0x4 PUSH1 0x40 PUSH1 0x0 KECCAK256 ADD PUSH1 0x1 PUSH1 0xFF NOT DUP3 SLOAD AND OR SWAP1 SSTORE PUSH1 0x40 MLOAD SWAP1 DUP2 MSTORE LOG3 STOP JUMPDEST PUSH4 0x4E487B71 PUSH1 0xE0 SHL PUSH1 0x0 MSTORE PUSH1 0x12 PUSH1 0x4 MSTORE PUSH1 0x24 PUSH1 0x0 REVERT JUMPDEST SWAP1 SWAP2 DUP5 PUSH1 0x0 MSTORE PUSH1 0x4 PUSH1 0x20 MSTORE PUSH1 0x40 DUP1 DUP1 PUSH1 0x0 KECCAK256 PUSH1 0x0 SWAP1 DUP10 DUP3 MSTORE PUSH1 0x20 MSTORE KECCAK256 PUSH2 0x586 DUP6 DUP6 PUSH2 0xDD6 JUMP JUMPDEST SWAP1 SLOAD PUSH1 0x3 SWAP2 SWAP1 SWAP2 SHL SHR PUSH1 0x1 PUSH1 0x1 PUSH1 0xA0 SHL SUB AND PUSH1 0x0 SWAP1 DUP2 MSTORE PUSH1 0x20 SWAP2 SWAP1 SWAP2 MSTORE KECCAK256 SLOAD DUP2 ADD SWAP1 DUP2 LT PUSH2 0x5B8 JUMPI SWAP2 PUSH1 0x1 ADD SWAP1 PUSH2 0x4C9 JUMP JUMPDEST PUSH4 0x4E487B71 PUSH1 0xE0 SHL PUSH1 0x0 MSTORE PUSH1 0x11 PUSH1 0x4 MSTORE PUSH1 0x24 PUSH1 0x0 REVERT JUMPDEST SWAP1 POP PUSH1 0x20 DUP2 RETURNDATASIZE PUSH1 0x20 GT PUSH2 0x5F8 JUMPI JUMPDEST DUP2 PUSH2 0x5E9 PUSH1 0x20 SWAP4 DUP4 PUSH2 0xC31 JUMP JUMPDEST DUP2 ADD SUB SLT PUSH2 0xE4 JUMPI MLOAD DUP4 PUSH2 0x484 JUMP JUMPDEST RETURNDATASIZE SWAP2 POP PUSH2 0x5DC JUMP JUMPDEST PUSH1 0x40 MLOAD RETURNDATASIZE PUSH1 0x0 DUP3 RETURNDATACOPY RETURNDATASIZE SWAP1 REVERT JUMPDEST PUSH4 0x4E487B71 PUSH1 0xE0 SHL PUSH1 0x0 MSTORE PUSH1 0x21 PUSH1 0x4 MSTORE PUSH1 0x24 PUSH1 0x0 REVERT JUMPDEST PUSH2 0x645 SWAP2 SWAP3 POP PUSH1 0x20 RETURNDATASIZE PUSH1 0x20 GT PUSH2 0x64C JUMPI JUMPDEST PUSH2 0x63D DUP2 DUP4 PUSH2 0xC31 JUMP JUMPDEST DUP2 ADD SWAP1 PUSH2 0xE1D JUMP JUMPDEST SWAP1 DUP5 PUSH2 0x44E JUMP JUMPDEST POP RETURNDATASIZE PUSH2 0x633 JUMP JUMPDEST PUSH4 0x4E487B71 PUSH1 0xE0 SHL PUSH1 0x0 MSTORE PUSH1 0x41 PUSH1 0x4 MSTORE PUSH1 0x24 PUSH1 0x0 REVERT JUMPDEST PUSH1 0x40 MLOAD PUSH3 0x461BCD PUSH1 0xE5 SHL DUP2 MSTORE PUSH1 0x20 PUSH1 0x4 DUP3 ADD MSTORE PUSH1 0x1E PUSH1 0x24 DUP3 ADD MSTORE PUSH32 0x416C72656164792073636F72656420627920746869732073656E61746F720000 PUSH1 0x44 DUP3 ADD MSTORE PUSH1 0x64 SWAP1 REVERT JUMPDEST PUSH1 0x40 MLOAD PUSH3 0x461BCD PUSH1 0xE5 SHL DUP2 MSTORE PUSH1 0x20 PUSH1 0x4 DUP3 ADD MSTORE PUSH1 0x16 PUSH1 0x24 DUP3 ADD MSTORE PUSH22 0x2737BA1030BABA3437B934BD32B21039B2B730BA37B9 PUSH1 0x51 SHL PUSH1 0x44 DUP3 ADD MSTORE PUSH1 0x64 SWAP1 REVERT JUMPDEST PUSH2 0x706 SWAP2 SWAP3 POP PUSH1 0x20 RETURNDATASIZE PUSH1 0x20 GT PUSH2 0x64C JUMPI PUSH2 0x63D DUP2 DUP4 PUSH2 0xC31 JUMP JUMPDEST SWAP1 DUP6 PUSH2 0x338 JUMP JUMPDEST PUSH1 0x20 SWAP2 SWAP3 POP PUSH2 0x728 SWAP1 DUP3 RETURNDATASIZE DUP5 GT PUSH2 0x64C JUMPI PUSH2 0x63D DUP2 DUP4 PUSH2 0xC31 JUMP JUMPDEST SWAP2 SWAP1 PUSH2 0x303 JUMP JUMPDEST PUSH1 0x40 MLOAD PUSH3 0x461BCD PUSH1 0xE5 SHL DUP2 MSTORE PUSH1 0x20 PUSH1 0x4 DUP3 ADD MSTORE PUSH1 0x1F PUSH1 0x24 DUP3 ADD MSTORE PUSH32 0x53636F7265206D757374206265206265747765656E203020616E642031303000 PUSH1 0x44 DUP3 ADD MSTORE PUSH1 0x64 SWAP1 REVERT JUMPDEST PUSH1 0x40 MLOAD PUSH3 0x461BCD PUSH1 0xE5 SHL DUP2 MSTORE PUSH1 0x20 PUSH1 0x4 DUP3 ADD MSTORE PUSH1 0xE PUSH1 0x24 DUP3 ADD MSTORE PUSH14 0x105B1C9958591E481CD8DBDC9959 PUSH1 0x92 SHL PUSH1 0x44 DUP3 ADD MSTORE PUSH1 0x64 SWAP1 REVERT JUMPDEST PUSH1 0x40 MLOAD PUSH3 0x461BCD PUSH1 0xE5 SHL DUP2 MSTORE PUSH1 0x20 PUSH1 0x4 DUP3 ADD MSTORE PUSH1 0x14 PUSH1 0x24 DUP3 ADD MSTORE PUSH20 0x14DD589B5A5CDCDA5BDB881B9BDD08199BDD5B99 PUSH1 0x62 SHL PUSH1 0x44 DUP3 ADD MSTORE PUSH1 0x64 SWAP1 REVERT JUMPDEST CALLVALUE PUSH2 0xE4 JUMPI PUSH1 0x40 CALLDATASIZE PUSH1 0x3 NOT ADD SLT PUSH2 0xE4 JUMPI PUSH1 0x40 PUSH2 0x801 PUSH2 0xC1B JUMP JUMPDEST PUSH1 0x4 CALLDATALOAD PUSH1 0x0 SWAP1 DUP2 MSTORE PUSH1 0x3 PUSH1 0x20 SWAP1 DUP2 MSTORE DUP4 DUP3 KECCAK256 PUSH1 0x1 PUSH1 0x1 PUSH1 0xA0 SHL SUB SWAP4 DUP5 AND DUP4 MSTORE SWAP1 MSTORE SWAP2 SWAP1 SWAP2 KECCAK256 DUP1 SLOAD PUSH1 0x1 DUP3 ADD SLOAD SWAP3 AND SWAP1 PUSH2 0x83C PUSH1 0x2 DUP3 ADD PUSH2 0xC8D JUMP JUMPDEST PUSH1 0x3 DUP3 ADD SLOAD SWAP2 PUSH2 0x871 PUSH1 0x5 PUSH1 0xFF PUSH1 0x4 DUP5 ADD SLOAD AND SWAP3 ADD SLOAD SWAP3 PUSH1 0x40 MLOAD SWAP7 DUP8 SWAP7 DUP8 MSTORE PUSH1 0x20 DUP8 ADD MSTORE PUSH1 0xC0 PUSH1 0x40 DUP8 ADD MSTORE PUSH1 0xC0 DUP7 ADD SWAP1 PUSH2 0xD31 JUMP JUMPDEST SWAP3 PUSH1 0x60 DUP6 ADD MSTORE ISZERO ISZERO PUSH1 0x80 DUP5 ADD MSTORE PUSH1 0xA0 DUP4 ADD MSTORE SUB SWAP1 RETURN JUMPDEST CALLVALUE PUSH2 0xE4 JUMPI PUSH1 0x60 CALLDATASIZE PUSH1 0x3 NOT ADD SLT PUSH2 0xE4 JUMPI PUSH1 0x4 CALLDATALOAD PUSH1 0x24 CALLDATALOAD PUSH8 0xFFFFFFFFFFFFFFFF DUP2 GT PUSH2 0xE4 JUMPI CALLDATASIZE PUSH1 0x23 DUP3 ADD SLT ISZERO PUSH2 0xE4 JUMPI DUP1 PUSH1 0x4 ADD CALLDATALOAD PUSH8 0xFFFFFFFFFFFFFFFF DUP2 GT PUSH2 0x653 JUMPI PUSH1 0x40 MLOAD SWAP2 PUSH2 0x8E4 PUSH1 0x1F DUP4 ADD PUSH1 0x1F NOT AND PUSH1 0x20 ADD DUP5 PUSH2 0xC31 JUMP JUMPDEST DUP2 DUP4 MSTORE CALLDATASIZE PUSH1 0x24 DUP4 DUP4 ADD ADD GT PUSH2 0xE4 JUMPI DUP2 PUSH1 0x0 SWAP3 PUSH1 0x24 PUSH1 0x20 SWAP4 ADD DUP4 DUP7 ADD CALLDATACOPY DUP4 ADD ADD MSTORE PUSH1 0x7 PUSH1 0x44 CALLDATALOAD LT ISZERO PUSH2 0xE4 JUMPI DUP1 MLOAD ISZERO PUSH2 0xB7D JUMPI PUSH1 0x0 DUP3 DUP2 MSTORE PUSH1 0x3 PUSH1 0x20 SWAP1 DUP2 MSTORE PUSH1 0x40 DUP1 DUP4 KECCAK256 CALLER DUP5 MSTORE SWAP1 SWAP2 MSTORE SWAP1 KECCAK256 PUSH1 0x4 ADD SLOAD PUSH1 0xFF AND PUSH2 0xB38 JUMPI PUSH1 0x40 MLOAD SWAP2 PUSH1 0xC0 DUP4 ADD DUP4 DUP2 LT PUSH8 0xFFFFFFFFFFFFFFFF DUP3 GT OR PUSH2 0x653 JUMPI PUSH1 0x40 SWAP1 DUP2 MSTORE CALLER DUP1 DUP6 MSTORE PUSH1 0x20 DUP1 DUP7 ADD DUP5 DUP2 MSTORE DUP7 DUP5 ADD DUP7 DUP2 MSTORE TIMESTAMP PUSH1 0x60 DUP10 ADD SWAP1 DUP2 MSTORE PUSH1 0x0 PUSH1 0x80 DUP11 ADD DUP2 DUP2 MSTORE PUSH1 0xA0 DUP12 ADD DUP3 DUP2 MSTORE DUP10 DUP4 MSTORE PUSH1 0x3 DUP8 MSTORE DUP9 DUP4 KECCAK256 SWAP8 DUP4 MSTORE SWAP7 SWAP1 SWAP6 MSTORE SWAP6 SWAP1 SWAP6 KECCAK256 SWAP8 MLOAD DUP9 SLOAD PUSH1 0x1 PUSH1 0x1 PUSH1 0xA0 SHL SUB NOT AND PUSH1 0x1 PUSH1 0x1 PUSH1 0xA0 SHL SUB SWAP2 SWAP1 SWAP2 AND OR DUP9 SSTORE SWAP1 MLOAD PUSH1 0x1 DUP9 ADD SSTORE MLOAD DUP1 MLOAD SWAP1 SWAP7 SWAP4 SWAP1 PUSH1 0x2 DUP6 ADD SWAP1 PUSH8 0xFFFFFFFFFFFFFFFF DUP2 GT PUSH2 0x653 JUMPI PUSH2 0x9E3 DUP3 SLOAD PUSH2 0xC53 JUMP JUMPDEST PUSH1 0x1F DUP2 GT PUSH2 0xAF0 JUMPI JUMPDEST POP PUSH1 0x20 PUSH1 0x1F DUP3 GT PUSH1 0x1 EQ PUSH2 0xA85 JUMPI DUP2 SWAP1 PUSH1 0x5 SWAP8 SWAP9 SWAP10 SWAP11 PUSH1 0x0 SWAP3 PUSH2 0xA7A JUMPI JUMPDEST POP POP DUP2 PUSH1 0x1 SHL SWAP2 PUSH1 0x0 NOT SWAP1 PUSH1 0x3 SHL SHR NOT AND OR SWAP1 SSTORE JUMPDEST MLOAD PUSH1 0x3 DUP6 ADD SSTORE PUSH1 0x4 DUP5 ADD SWAP1 MLOAD ISZERO ISZERO PUSH1 0xFF DUP1 NOT DUP4 SLOAD AND SWAP2 AND OR SWAP1 SSTORE MLOAD SWAP2 ADD SSTORE PUSH32 0x72075524713934864C8A8FF2740C94CD50C441BF186D8FFD9B908CA8DBB4776D PUSH1 0x40 MLOAD PUSH1 0x20 DUP2 MSTORE DUP1 PUSH2 0xA75 CALLER SWAP6 PUSH1 0x20 DUP4 ADD SWAP1 PUSH2 0xD31 JUMP JUMPDEST SUB SWAP1 LOG3 STOP JUMPDEST ADD MLOAD SWAP1 POP DUP11 DUP1 PUSH2 0xA0A JUMP JUMPDEST PUSH1 0x1F NOT DUP3 AND SWAP10 DUP4 PUSH1 0x0 MSTORE DUP2 PUSH1 0x0 KECCAK256 SWAP11 PUSH1 0x0 JUMPDEST DUP2 DUP2 LT PUSH2 0xAD8 JUMPI POP SWAP2 PUSH1 0x5 SWAP9 SWAP10 SWAP11 SWAP12 SWAP2 DUP5 PUSH1 0x1 SWAP6 SWAP5 LT PUSH2 0xABF JUMPI JUMPDEST POP POP POP DUP2 SHL ADD SWAP1 SSTORE PUSH2 0xA1F JUMP JUMPDEST ADD MLOAD PUSH1 0x0 NOT PUSH1 0xF8 DUP5 PUSH1 0x3 SHL AND SHR NOT AND SWAP1 SSTORE DUP11 DUP1 DUP1 PUSH2 0xAB2 JUMP JUMPDEST DUP4 DUP4 ADD MLOAD DUP14 SSTORE PUSH1 0x1 SWAP1 SWAP13 ADD SWAP12 PUSH1 0x20 SWAP4 DUP5 ADD SWAP4 ADD PUSH2 0xA97 JUMP JUMPDEST DUP3 PUSH1 0x0 MSTORE PUSH1 0x20 PUSH1 0x0 KECCAK256 PUSH1 0x1F DUP4 ADD PUSH1 0x5 SHR DUP2 ADD SWAP2 PUSH1 0x20 DUP5 LT PUSH2 0xB2E JUMPI JUMPDEST PUSH1 0x1F ADD PUSH1 0x5 SHR ADD SWAP1 JUMPDEST DUP2 DUP2 LT PUSH2 0xB22 JUMPI POP PUSH2 0x9EC JUMP JUMPDEST PUSH1 0x0 DUP2 SSTORE PUSH1 0x1 ADD PUSH2 0xB15 JUMP JUMPDEST SWAP1 SWAP2 POP DUP2 SWAP1 PUSH2 0xB0C JUMP JUMPDEST PUSH1 0x40 MLOAD PUSH3 0x461BCD PUSH1 0xE5 SHL DUP2 MSTORE PUSH1 0x20 PUSH1 0x4 DUP3 ADD MSTORE PUSH1 0x1C PUSH1 0x24 DUP3 ADD MSTORE PUSH32 0x416C7265616479207375626D697474656420616E642073636F72656400000000 PUSH1 0x44 DUP3 ADD MSTORE PUSH1 0x64 SWAP1 REVERT JUMPDEST PUSH1 0x40 MLOAD PUSH3 0x461BCD PUSH1 0xE5 SHL DUP2 MSTORE PUSH1 0x20 PUSH1 0x4 DUP3 ADD MSTORE PUSH1 0x1B PUSH1 0x24 DUP3 ADD MSTORE PUSH32 0x436F6E74656E742055524C2063616E6E6F7420626520656D7074790000000000 PUSH1 0x44 DUP3 ADD MSTORE PUSH1 0x64 SWAP1 REVERT JUMPDEST CALLVALUE PUSH2 0xE4 JUMPI PUSH1 0x40 CALLDATASIZE PUSH1 0x3 NOT ADD SLT PUSH2 0xE4 JUMPI PUSH2 0xBDB PUSH2 0xC1B JUMP JUMPDEST PUSH1 0x4 CALLDATALOAD PUSH1 0x0 MSTORE PUSH1 0x3 PUSH1 0x20 MSTORE PUSH1 0x40 PUSH1 0x0 KECCAK256 SWAP1 PUSH1 0x1 DUP1 PUSH1 0xA0 SHL SUB AND PUSH1 0x0 MSTORE PUSH1 0x20 MSTORE PUSH1 0x40 DUP1 PUSH1 0x0 KECCAK256 PUSH1 0xFF PUSH1 0x4 PUSH1 0x5 DUP4 ADD SLOAD SWAP3 ADD SLOAD AND DUP3 MLOAD SWAP2 DUP3 MSTORE ISZERO ISZERO PUSH1 0x20 DUP3 ADD MSTORE RETURN JUMPDEST PUSH1 0x24 CALLDATALOAD SWAP1 PUSH1 0x1 PUSH1 0x1 PUSH1 0xA0 SHL SUB DUP3 AND DUP3 SUB PUSH2 0xE4 JUMPI JUMP JUMPDEST SWAP1 PUSH1 0x1F DUP1 NOT SWAP2 ADD AND DUP2 ADD SWAP1 DUP2 LT PUSH8 0xFFFFFFFFFFFFFFFF DUP3 GT OR PUSH2 0x653 JUMPI PUSH1 0x40 MSTORE JUMP JUMPDEST SWAP1 PUSH1 0x1 DUP3 DUP2 SHR SWAP3 AND DUP1 ISZERO PUSH2 0xC83 JUMPI JUMPDEST PUSH1 0x20 DUP4 LT EQ PUSH2 0xC6D JUMPI JUMP JUMPDEST PUSH4 0x4E487B71 PUSH1 0xE0 SHL PUSH1 0x0 MSTORE PUSH1 0x22 PUSH1 0x4 MSTORE PUSH1 0x24 PUSH1 0x0 REVERT JUMPDEST SWAP2 PUSH1 0x7F AND SWAP2 PUSH2 0xC62 JUMP JUMPDEST SWAP1 PUSH1 0x40 MLOAD SWAP2 DUP3 PUSH1 0x0 DUP3 SLOAD SWAP3 PUSH2 0xCA1 DUP5 PUSH2 0xC53 JUMP JUMPDEST DUP1 DUP5 MSTORE SWAP4 PUSH1 0x1 DUP2 AND SWAP1 DUP2 ISZERO PUSH2 0xD0F JUMPI POP PUSH1 0x1 EQ PUSH2 0xCC8 JUMPI JUMPDEST POP PUSH2 0xCC6 SWAP3 POP SUB DUP4 PUSH2 0xC31 JUMP JUMPDEST JUMP JUMPDEST SWAP1 POP PUSH1 0x0 SWAP3 SWAP2 SWAP3 MSTORE PUSH1 0x20 PUSH1 0x0 KECCAK256 SWAP1 PUSH1 0x0 SWAP2 JUMPDEST DUP2 DUP4 LT PUSH2 0xCF3 JUMPI POP POP SWAP1 PUSH1 0x20 PUSH2 0xCC6 SWAP3 DUP3 ADD ADD CODESIZE PUSH2 0xCB9 JUMP JUMPDEST PUSH1 0x20 SWAP2 SWAP4 POP DUP1 PUSH1 0x1 SWAP2 SLOAD DUP4 DUP6 DUP10 ADD ADD MSTORE ADD SWAP2 ADD SWAP1 SWAP2 DUP5 SWAP3 PUSH2 0xCDA JUMP JUMPDEST SWAP1 POP PUSH1 0x20 SWAP3 POP PUSH2 0xCC6 SWAP5 SWAP2 POP PUSH1 0xFF NOT AND DUP3 DUP5 ADD MSTORE ISZERO ISZERO PUSH1 0x5 SHL DUP3 ADD ADD CODESIZE PUSH2 0xCB9 JUMP JUMPDEST SWAP2 SWAP1 DUP3 MLOAD SWAP3 DUP4 DUP3 MSTORE PUSH1 0x0 JUMPDEST DUP5 DUP2 LT PUSH2 0xD5D JUMPI POP POP DUP3 PUSH1 0x0 PUSH1 0x20 DUP1 SWAP5 SWAP6 DUP5 ADD ADD MSTORE PUSH1 0x1F DUP1 NOT SWAP2 ADD AND ADD ADD SWAP1 JUMP JUMPDEST DUP1 PUSH1 0x20 DUP1 SWAP3 DUP5 ADD ADD MLOAD DUP3 DUP3 DUP7 ADD ADD MSTORE ADD PUSH2 0xD3C JUMP JUMPDEST PUSH1 0x60 SWAP1 PUSH1 0x3 NOT ADD SLT PUSH2 0xE4 JUMPI PUSH1 0x4 CALLDATALOAD SWAP1 PUSH1 0x24 CALLDATALOAD PUSH1 0x1 PUSH1 0x1 PUSH1 0xA0 SHL SUB DUP2 AND DUP2 SUB PUSH2 0xE4 JUMPI SWAP1 PUSH1 0x44 CALLDATALOAD SWAP1 JUMP JUMPDEST PUSH1 0x60 SWAP1 PUSH1 0x3 NOT ADD SLT PUSH2 0xE4 JUMPI PUSH1 0x4 CALLDATALOAD SWAP1 PUSH1 0x24 CALLDATALOAD PUSH1 0x1 PUSH1 0x1 PUSH1 0xA0 SHL SUB DUP2 AND DUP2 SUB PUSH2 0xE4 JUMPI SWAP1 PUSH1 0x44 CALLDATALOAD PUSH1 0x1 PUSH1 0x1 PUSH1 0xA0 SHL SUB DUP2 AND DUP2 SUB PUSH2 0xE4 JUMPI SWAP1 JUMP JUMPDEST DUP1 SLOAD DUP3 LT ISZERO PUSH2 0xDEE JUMPI PUSH1 0x0 MSTORE PUSH1 0x20 PUSH1 0x0 KECCAK256 ADD SWAP1 PUSH1 0x0 SWAP1 JUMP JUMPDEST PUSH4 0x4E487B71 PUSH1 0xE0 SHL PUSH1 0x0 MSTORE PUSH1 0x32 PUSH1 0x4 MSTORE PUSH1 0x24 PUSH1 0x0 REVERT JUMPDEST PUSH1 0x7 DUP2 LT ISZERO PUSH2 0x60C JUMPI PUSH1 0x0 MSTORE PUSH1 0x1 PUSH1 0x20 MSTORE PUSH1 0x40 PUSH1 0x0 KECCAK256 SWAP1 JUMP JUMPDEST SWAP1 DUP2 PUSH1 0x20 SWAP2 SUB SLT PUSH2 0xE4 JUMPI MLOAD PUSH1 0x7 DUP2 LT ISZERO PUSH2 0xE4 JUMPI SWAP1 JUMP INVALID LOG2 PUSH5 0x6970667358 0x22 SLT KECCAK256 0x4C TIMESTAMP 0xE9 0xC4 0xE3 0xAD 0x2A EXTCODEHASH CALLDATASIZE 0xD SGT 0xFC 0x1E 0x26 0xB9 OR PUSH28 0x9DC3228DF355E7250445B349AD80D864736F6C634300081C00330000 "},"methodIdentifiers":{"categoryExists(uint8)":"b51bcc0e","categoryNames(uint256)":"784940c5","getCategoryName(uint8)":"3f9a61e0","getFinalScore(uint256,address)":"0317a6a3","getSenatorScore(uint256,address,address)":"eedfae64","senateContract()":"5d85fa18","senatorScores(uint256,address,address)":"49e97bf7","submissionScorers(uint256,address,uint256)":"818c4368","submissions(uint256,address)":"0e4dbf5c","submitContent(uint256,string,uint8)":"0504429b","submitScore(uint256,address,uint256)":"29d8e857"}}}}}