{"contracts/Senate.sol":{"Senate":{"abi":[{"inputs":[],"stateMutability":"nonpayable","type":"constructor"},{"anonymous":false,"inputs":[{"indexed":true,"internalType":"enum CommunityTypes.Category","name":"category","type":"uint8"},{"indexed":false,"internalType":"uint256","name":"newScore","type":"uint256"}],"name":"MinPassScoreUpdated","type":"event"},{"anonymous":false,"inputs":[{"indexed":true,"internalType":"enum CommunityTypes.Category","name":"category","type":"uint8"},{"indexed":true,"internalType":"address","name":"senator","type":"address"}],"name":"SenatorElected","type":"event"},{"anonymous":false,"inputs":[{"indexed":true,"internalType":"enum CommunityTypes.Category","name":"category","type":"uint8"},{"indexed":true,"internalType":"address","name":"senator","type":"address"}],"name":"SenatorRetired","type":"event"},{"anonymous":false,"inputs":[{"indexed":true,"internalType":"enum CommunityTypes.Category","name":"category","type":"uint8"},{"indexed":true,"internalType":"address","name":"voter","type":"address"},{"indexed":true,"internalType":"address","name":"candidate","type":"address"}],"name":"VoteCast","type":"event"},{"inputs":[{"internalType":"address","name":"_senator","type":"address"},{"internalType":"enum CommunityTypes.Category","name":"_category","type":"uint8"}],"name":"addSenator","outputs":[],"stateMutability":"nonpayable","type":"function"},{"inputs":[{"internalType":"enum CommunityTypes.Category","name":"","type":"uint8"}],"name":"categoryExists","outputs":[{"internalType":"bool","name":"","type":"bool"}],"stateMutability":"view","type":"function"},{"inputs":[{"internalType":"uint256","name":"","type":"uint256"}],"name":"categoryNames","outputs":[{"internalType":"string","name":"","type":"string"}],"stateMutability":"view","type":"function"},{"inputs":[{"internalType":"enum CommunityTypes.Category","name":"_category","type":"uint8"}],"name":"getActiveSenatorCount","outputs":[{"internalType":"uint256","name":"","type":"uint256"}],"stateMutability":"view","type":"function"},{"inputs":[{"internalType":"enum CommunityTypes.Category","name":"_category","type":"uint8"}],"name":"getCategoryName","outputs":[{"internalType":"string","name":"","type":"string"}],"stateMutability":"view","type":"function"},{"inputs":[{"internalType":"enum CommunityTypes.Category","name":"_category","type":"uint8"}],"name":"getMinPassScore","outputs":[{"internalType":"uint256","name":"","type":"uint256"}],"stateMutability":"view","type":"function"},{"inputs":[{"internalType":"enum CommunityTypes.Category","name":"","type":"uint8"},{"internalType":"address","name":"","type":"address"}],"name":"hasVoted","outputs":[{"internalType":"bool","name":"","type":"bool"}],"stateMutability":"view","type":"function"},{"inputs":[{"internalType":"address","name":"_addr","type":"address"},{"internalType":"enum CommunityTypes.Category","name":"_category","type":"uint8"}],"name":"isSenator","outputs":[{"internalType":"bool","name":"","type":"bool"}],"stateMutability":"view","type":"function"},{"inputs":[{"internalType":"enum CommunityTypes.Category","name":"_category","type":"uint8"}],"name":"nominate","outputs":[],"stateMutability":"nonpayable","type":"function"},{"inputs":[{"internalType":"enum CommunityTypes.Category","name":"","type":"uint8"}],"name":"senateConfigs","outputs":[{"internalType":"uint256","name":"minPassScore","type":"uint256"},{"internalType":"uint256","name":"termDuration","type":"uint256"},{"internalType":"uint256","name":"minVotesToElect","type":"uint256"},{"internalType":"uint256","name":"maxSenators","type":"uint256"}],"stateMutability":"view","type":"function"},{"inputs":[{"internalType":"address","name":"","type":"address"}],"name":"senatorCategories","outputs":[{"internalType":"enum CommunityTypes.Category","name":"","type":"uint8"}],"stateMutability":"view","type":"function"},{"inputs":[{"internalType":"enum CommunityTypes.Category","name":"","type":"uint8"},{"internalType":"uint256","name":"","type":"uint256"}],"name":"senators","outputs":[{"internalType":"address","name":"addr","type":"address"},{"internalType":"uint256","name":"votes","type":"uint256"},{"internalType":"uint256","name":"startTime","type":"uint256"},{"internalType":"uint256","name":"endTime","type":"uint256"},{"internalType":"bool","name":"active","type":"bool"}],"stateMutability":"view","type":"function"},{"inputs":[{"internalType":"enum CommunityTypes.Category","name":"_category","type":"uint8"},{"internalType":"uint256","name":"_newScore","type":"uint256"}],"name":"updateMinPassScore","outputs":[],"stateMutability":"nonpayable","type":"function"},{"inputs":[{"internalType":"enum CommunityTypes.Category","name":"_category","type":"uint8"},{"internalType":"address","name":"_candidate","type":"address"}],"name":"vote","outputs":[],"stateMutability":"nonpayable","type":"function"},{"inputs":[{"internalType":"enum CommunityTypes.Category","name":"","type":"uint8"},{"internalType":"address","name":"","type":"address"}],"name":"votedFor","outputs":[{"internalType":"address","name":"","type":"address"}],"stateMutability":"view","type":"function"}],"evm":{"bytecode":{"linkReferences":{},"object":"60806040523461038f5760016000526000602052604060002061002b61002582546103b9565b826103f3565b600a644d7573696360d81b019055600260009081526020527fabbb5caa7dda850e60932de0934eb1f9d0f59695050f761dc64e443e5030a569805461006f906103b9565b601f8111610362575b50600662105c9d60ea1b019055600360009081526020527f101e368776582e57ab3d116ffe2517c0a585cd5b23174b01e275c2d8329c3d8380546100bb906103b9565b601f8111610335575b50600c6553706f72747360d01b019055600460009081526020527f52d75039926638d3c558b2bdefb945d5be8dae29dedd1c313212a4d472d9fde5805461010a906103b9565b601f8111610308575b507f456475636174696f6e00000000000000000000000000000000000000000000129055600560009081526020527f2b232c97452f0950c94e2539fdc7e69d21166113cf7a9bcb99b220a3fe5d720a805461016d906103b9565b601f81116102db575b507f546563686e6f6c6f6779000000000000000000000000000000000000000000149055600660009081526020527f62103cf3131c85df57aad364d21cba02556d3092d6cb54c298c2e7726a7870bd80546101d490610025906103b9565b600a6427ba3432b960d91b01905560005b60068111156102ac5760005b600681111561020957604051610f20908161042a8239f35b6007811015610296576040516080810191906001600160401b038311818410176102805761027b926040526046815260036020820162ed4e0081526040830160648152606084019160058352604060008781526002602052209451855551600185015551600284015551910155610394565b6101f1565b634e487b7160e01b600052604160045260246000fd5b634e487b7160e01b600052602160045260246000fd5b6007811015610296576102d69060406000828152600160205220600160ff19825416179055610394565b6101e5565b81600052601f6020600020910160051c8101905b8181106102fc5750610176565b600081556001016102ef565b81600052601f6020600020910160051c8101905b8181106103295750610113565b6000815560010161031c565b81600052601f6020600020910160051c8101905b81811061035657506100c4565b60008155600101610349565b81600052601f6020600020910160051c8101905b8181106103835750610078565b60008155600101610376565b600080fd5b60001981146103a35760010190565b634e487b7160e01b600052601160045260246000fd5b90600182811c921680156103e9575b60208310146103d357565b634e487b7160e01b600052602260045260246000fd5b91607f16916103c8565b601f82116103ff575050565b600052601f6020600020910160051c8101905b81811061041d575050565b6000815560010161041256fe6080604052600436101561001257600080fd5b60003560e01c80631ce87ebb14610a8e57806335d335af146109ad5780633a60a0511461095a5780633e293a6c146108eb5780633f9a61e01461085f5780634e2ad8ea1461072a5780635f167487146106ed578063784940c5146106b157806387288440146106755780638a1943fd146105e55780639bac92f3146104cb578063b51bcc0e14610495578063b81c645314610149578063eb2f1610146101265763ee0d70f4146100c157600080fd5b34610121576020366003190112610121576004356001600160a01b0381169081900361012157600052600460205260ff60406000205416604051600782101561010b576020918152f35b634e487b7160e01b600052602160045260246000fd5b600080fd5b3461012157602061013f61013936610d0c565b90610e60565b6040519015158152f35b346101215761015736610bd6565b61016082610b42565b336000908152602091909152604090205460ff16610460576001600160a01b0316903382146104245761019281610af7565b90600091825b815481101561041c57846101ac8284610b5b565b50546001600160a01b0316146101c457600101610198565b9192508060016101d5848094610b5b565b50016101e18154610e16565b90556101f06001938492610b5b565b50015460026101fe85610ade565b015411156102c8575b505b1561028d5761021781610b42565b33600090815260209190915260409020805460ff1916600117905561023b81610b29565b3360009081526020919091526040902080546001600160a01b03191683179055600781101561010b5733907f8084d6c9657cf625aabd090126fedbc9f3db46379d9518f9591cc324bfa8e62b600080a4005b60405162461bcd60e51b815260206004820152601360248201527210d85b991a59185d19481b9bdd08199bdd5b99606a1b6044820152606490fd5b6102da906102d584610af7565b610b5b565b506004810180546102ee60ff821615610d3b565b60008481815b6103d1575b5050600361030687610ade565b015411156103955760ff1916831790554260028201556103318261032985610ade565b015442610e3b565b600382015560018060a01b038154166000526004602052610356836040600020610e48565b546001600160a01b0316600783101561010b57827ff969f9b89705fe938fd03aaf3f2b546c05fa9212d04edc8753388de4409d1863600080a383610207565b60405162461bcd60e51b815260206004820152601460248201527313585e081cd95b985d1bdc9cc81c995858da195960621b6044820152606490fd5b6103da88610af7565b548110156104175760ff60046103f3836102d58c610af7565b50015416610404575b8101816102f4565b9161040f8291610e16565b9290506103fc565b6102f9565b505090610209565b60405162461bcd60e51b815260206004820152601460248201527321b0b73737ba103b37ba32903337b91039b2b63360611b6044820152606490fd5b60405162461bcd60e51b815260206004820152600d60248201526c105b1c9958591e481d9bdd1959609a1b6044820152606490fd5b346101215760203660031901126101215760043560078110156101215760ff6104bf602092610b10565b54166040519015158152f35b34610121576104d936610d0c565b6001600160a01b039091169081156105a05781600052600460205260ff60406000205416600781101561010b576105109015610d3b565b61055961051c82610af7565b61052a600161032985610ade565b906040519161053883610c05565b85835260006020840152426040840152606083015260016080830152610d7b565b816000526004602052610570816040600020610e48565b600781101561010b577ff969f9b89705fe938fd03aaf3f2b546c05fa9212d04edc8753388de4409d1863600080a3005b60405162461bcd60e51b815260206004820152601760248201527f496e76616c69642073656e61746f7220616464726573730000000000000000006044820152606490fd5b346101215760203660031901126101215760043560078110156101215761060d600091610af7565b80549060005b82811061062557602084604051908152f35b60ff60046106338385610b5b565b500154168061065e575b61064a575b600101610613565b92610656600191610e16565b939050610642565b50600361066b8284610b5b565b500154421061063d565b346101215761068d61068636610bd6565b9190610b42565b9060018060a01b0316600052602052602060ff604060002054166040519015158152f35b346101215760203660031901126101215760043560005260006020526106e96106dd6040600020610c37565b60405191829182610b8d565b0390f35b34610121576107056106fe36610bd6565b9190610b29565b6001600160a01b03918216600090815260209182526040908190205490519216825290f35b346101215760203660031901126101215760043560078110156101215760ff61075282610b10565b5416156108275733600052600460205260ff6040600020541690600782101561010b576107826107879215610d3b565b610af7565b80549060005b8281106107cb576107c982604051906107a582610c05565b33825260006020830152600060408301526000606083015260006080830152610d7b565b005b6107d58183610b5b565b50546001600160a01b031633146107ee5760010161078d565b60405162461bcd60e51b8152602060048201526011602482015270105b1c9958591e481b9bdb5a5b985d1959607a1b6044820152606490fd5b60405162461bcd60e51b815260206004820152601060248201526f496e76616c69642063617465676f727960801b6044820152606490fd5b346101215760203660031901126101215760043560078110156101215760ff61088782610b10565b5416156108a65760005260006020526106e96106dd6040600020610c37565b60405162461bcd60e51b815260206004820152601760248201527f43617465676f727920646f6573206e6f742065786973740000000000000000006044820152606490fd5b34610121576109036108fc36610abf565b9190610af7565b80548210156101215760a09161091891610b5b565b50600180831b0381541690600181015490600281015460ff60046003840154930154169260405194855260208501526040840152606083015215156080820152f35b3461012157602036600319011261012157600435600781101561012157610982608091610ade565b8054906001810154906003600282015491015491604051938452602084015260408301526060820152f35b34610121576109bb36610abf565b6109c58233610e60565b15610a595780151580610a4e575b15610a1957806109e283610ade565b55600782101561010b5760207fbb28b82677b93f9743c8cb95950ca0ad87f5ca3d90bbb90bcb80f530208189b591604051908152a2005b60405162461bcd60e51b815260206004820152600d60248201526c496e76616c69642073636f726560981b6044820152606490fd5b5060648111156109d3565b60405162461bcd60e51b815260206004820152600d60248201526c2737ba10309039b2b730ba37b960991b6044820152606490fd5b3461012157602036600319011261012157600435600781101561012157610ab6602091610ade565b54604051908152f35b6040906003190112610121576004356007811015610121579060243590565b600781101561010b576000526002602052604060002090565b600781101561010b576000526003602052604060002090565b600781101561010b576000526001602052604060002090565b600781101561010b576000526006602052604060002090565b600781101561010b576000526005602052604060002090565b8054821015610b77576000526005602060002091020190600090565b634e487b7160e01b600052603260045260246000fd5b91909160208152825180602083015260005b818110610bc0575060409293506000838284010152601f8019910116010190565b8060208092870101516040828601015201610b9f565b604090600319011261012157600435600781101561012157906024356001600160a01b03811681036101215790565b60a0810190811067ffffffffffffffff821117610c2157604052565b634e487b7160e01b600052604160045260246000fd5b90604051916000908054908160011c91600181168015610d02575b602084108114610cee57838752908115610cd05750600114610c95575b5050829003601f01601f1916820167ffffffffffffffff811183821017610c2157604052565b90915060005260206000206000905b828210610cba5750602091508301013880610c6f565b6001816020925483858901015201910190610ca4565b9150506020925060ff191682850152151560051b8301013880610c6f565b634e487b7160e01b85526022600452602485fd5b92607f1692610c52565b6040906003190112610121576004356001600160a01b0381168103610121579060243560078110156101215790565b15610d4257565b60405162461bcd60e51b815260206004820152601160248201527020b63932b0b23c90309039b2b730ba37b960791b6044820152606490fd5b805468010000000000000000811015610c2157610d9d91600182018155610b5b565b610e0057600460809160018060a01b0360018060a01b03855116166bffffffffffffffffffffffff60a01b82541617815560208401516001820155604084015160028201556060840151600382015501910151151560ff80198354169116179055565b634e487b7160e01b600052600060045260246000fd5b6000198114610e255760010190565b634e487b7160e01b600052601160045260246000fd5b91908201809211610e2557565b90600781101561010b5760ff80198354169116179055565b90610e6a90610af7565b80549160005b838110610e805750505050600090565b610e8a8184610b5b565b50546001600160a01b0383811691161480610ed2575b80610ebb575b610eb257600101610e70565b50505050600190565b506003610ec88285610b5b565b5001544210610ea6565b5060ff6004610ee18386610b5b565b50015416610ea056fea2646970667358221220eae873ca19e43923685e0fc289b2b6d9a9bff4246794e38cee4ff0ba5bb40dee64736f6c634300081c0033","opcodes":"PUSH1 0x80 PUSH1 0x40 MSTORE CALLVALUE PUSH2 0x38F JUMPI PUSH1 0x1 PUSH1 0x0 MSTORE PUSH1 0x0 PUSH1 0x20 MSTORE PUSH1 0x40 PUSH1 0x0 KECCAK256 PUSH2 0x2B PUSH2 0x25 DUP3 SLOAD PUSH2 0x3B9 JUMP JUMPDEST DUP3 PUSH2 0x3F3 JUMP JUMPDEST PUSH1 0xA PUSH5 0x4D75736963 PUSH1 0xD8 SHL ADD SWAP1 SSTORE PUSH1 0x2 PUSH1 0x0 SWAP1 DUP2 MSTORE PUSH1 0x20 MSTORE PUSH32 0xABBB5CAA7DDA850E60932DE0934EB1F9D0F59695050F761DC64E443E5030A569 DUP1 SLOAD PUSH2 0x6F SWAP1 PUSH2 0x3B9 JUMP JUMPDEST PUSH1 0x1F DUP2 GT PUSH2 0x362 JUMPI JUMPDEST POP PUSH1 0x6 PUSH3 0x105C9D PUSH1 0xEA SHL ADD SWAP1 SSTORE PUSH1 0x3 PUSH1 0x0 SWAP1 DUP2 MSTORE PUSH1 0x20 MSTORE PUSH32 0x101E368776582E57AB3D116FFE2517C0A585CD5B23174B01E275C2D8329C3D83 DUP1 SLOAD PUSH2 0xBB SWAP1 PUSH2 0x3B9 JUMP JUMPDEST PUSH1 0x1F DUP2 GT PUSH2 0x335 JUMPI JUMPDEST POP PUSH1 0xC PUSH6 0x53706F727473 PUSH1 0xD0 SHL ADD SWAP1 SSTORE PUSH1 0x4 PUSH1 0x0 SWAP1 DUP2 MSTORE PUSH1 0x20 MSTORE PUSH32 0x52D75039926638D3C558B2BDEFB945D5BE8DAE29DEDD1C313212A4D472D9FDE5 DUP1 SLOAD PUSH2 0x10A SWAP1 PUSH2 0x3B9 JUMP JUMPDEST PUSH1 0x1F DUP2 GT PUSH2 0x308 JUMPI JUMPDEST POP PUSH32 0x456475636174696F6E0000000000000000000000000000000000000000000012 SWAP1 SSTORE PUSH1 0x5 PUSH1 0x0 SWAP1 DUP2 MSTORE PUSH1 0x20 MSTORE PUSH32 0x2B232C97452F0950C94E2539FDC7E69D21166113CF7A9BCB99B220A3FE5D720A DUP1 SLOAD PUSH2 0x16D SWAP1 PUSH2 0x3B9 JUMP JUMPDEST PUSH1 0x1F DUP2 GT PUSH2 0x2DB JUMPI JUMPDEST POP PUSH32 0x546563686E6F6C6F677900000000000000000000000000000000000000000014 SWAP1 SSTORE PUSH1 0x6 PUSH1 0x0 SWAP1 DUP2 MSTORE PUSH1 0x20 MSTORE PUSH32 0x62103CF3131C85DF57AAD364D21CBA02556D3092D6CB54C298C2E7726A7870BD DUP1 SLOAD PUSH2 0x1D4 SWAP1 PUSH2 0x25 SWAP1 PUSH2 0x3B9 JUMP JUMPDEST PUSH1 0xA PUSH5 0x27BA3432B9 PUSH1 0xD9 SHL ADD SWAP1 SSTORE PUSH1 0x0 JUMPDEST PUSH1 0x6 DUP2 GT ISZERO PUSH2 0x2AC JUMPI PUSH1 0x0 JUMPDEST PUSH1 0x6 DUP2 GT ISZERO PUSH2 0x209 JUMPI PUSH1 0x40 MLOAD PUSH2 0xF20 SWAP1 DUP2 PUSH2 0x42A DUP3 CODECOPY RETURN JUMPDEST PUSH1 0x7 DUP2 LT ISZERO PUSH2 0x296 JUMPI PUSH1 0x40 MLOAD PUSH1 0x80 DUP2 ADD SWAP2 SWAP1 PUSH1 0x1 PUSH1 0x1 PUSH1 0x40 SHL SUB DUP4 GT DUP2 DUP5 LT OR PUSH2 0x280 JUMPI PUSH2 0x27B SWAP3 PUSH1 0x40 MSTORE PUSH1 0x46 DUP2 MSTORE PUSH1 0x3 PUSH1 0x20 DUP3 ADD PUSH3 0xED4E00 DUP2 MSTORE PUSH1 0x40 DUP4 ADD PUSH1 0x64 DUP2 MSTORE PUSH1 0x60 DUP5 ADD SWAP2 PUSH1 0x5 DUP4 MSTORE PUSH1 0x40 PUSH1 0x0 DUP8 DUP2 MSTORE PUSH1 0x2 PUSH1 0x20 MSTORE KECCAK256 SWAP5 MLOAD DUP6 SSTORE MLOAD PUSH1 0x1 DUP6 ADD SSTORE MLOAD PUSH1 0x2 DUP5 ADD SSTORE MLOAD SWAP2 ADD SSTORE PUSH2 0x394 JUMP JUMPDEST PUSH2 0x1F1 JUMP JUMPDEST PUSH4 0x4E487B71 PUSH1 0xE0 SHL PUSH1 0x0 MSTORE PUSH1 0x41 PUSH1 0x4 MSTORE PUSH1 0x24 PUSH1 0x0 REVERT JUMPDEST PUSH4 0x4E487B71 PUSH1 0xE0 SHL PUSH1 0x0 MSTORE PUSH1 0x21 PUSH1 0x4 MSTORE PUSH1 0x24 PUSH1 0x0 REVERT JUMPDEST PUSH1 0x7 DUP2 LT ISZERO PUSH2 0x296 JUMPI PUSH2 0x2D6 SWAP1 PUSH1 0x40 PUSH1 0x0 DUP3 DUP2 MSTORE PUSH1 0x1 PUSH1 0x20 MSTORE KECCAK256 PUSH1 0x1 PUSH1 0xFF NOT DUP3 SLOAD AND OR SWAP1 SSTORE PUSH2 0x394 JUMP JUMPDEST PUSH2 0x1E5 JUMP JUMPDEST DUP2 PUSH1 0x0 MSTORE PUSH1 0x1F PUSH1 0x20 PUSH1 0x0 KECCAK256 SWAP2 ADD PUSH1 0x5 SHR DUP2 ADD SWAP1 JUMPDEST DUP2 DUP2 LT PUSH2 0x2FC JUMPI POP PUSH2 0x176 JUMP JUMPDEST PUSH1 0x0 DUP2 SSTORE PUSH1 0x1 ADD PUSH2 0x2EF JUMP JUMPDEST DUP2 PUSH1 0x0 MSTORE PUSH1 0x1F PUSH1 0x20 PUSH1 0x0 KECCAK256 SWAP2 ADD PUSH1 0x5 SHR DUP2 ADD SWAP1 JUMPDEST DUP2 DUP2 LT PUSH2 0x329 JUMPI POP PUSH2 0x113 JUMP JUMPDEST PUSH1 0x0 DUP2 SSTORE PUSH1 0x1 ADD PUSH2 0x31C JUMP JUMPDEST DUP2 PUSH1 0x0 MSTORE PUSH1 0x1F PUSH1 0x20 PUSH1 0x0 KECCAK256 SWAP2 ADD PUSH1 0x5 SHR DUP2 ADD SWAP1 JUMPDEST DUP2 DUP2 LT PUSH2 0x356 JUMPI POP PUSH2 0xC4 JUMP JUMPDEST PUSH1 0x0 DUP2 SSTORE PUSH1 0x1 ADD PUSH2 0x349 JUMP JUMPDEST DUP2 PUSH1 0x0 MSTORE PUSH1 0x1F PUSH1 0x20 PUSH1 0x0 KECCAK256 SWAP2 ADD PUSH1 0x5 SHR DUP2 ADD SWAP1 JUMPDEST DUP2 DUP2 LT PUSH2 0x383 JUMPI POP PUSH2 0x78 JUMP JUMPDEST PUSH1 0x0 DUP2 SSTORE PUSH1 0x1 ADD PUSH2 0x376 JUMP JUMPDEST PUSH1 0x0 DUP1 REVERT JUMPDEST PUSH1 0x0 NOT DUP2 EQ PUSH2 0x3A3 JUMPI PUSH1 0x1 ADD SWAP1 JUMP JUMPDEST PUSH4 0x4E487B71 PUSH1 0xE0 SHL PUSH1 0x0 MSTORE PUSH1 0x11 PUSH1 0x4 MSTORE PUSH1 0x24 PUSH1 0x0 REVERT JUMPDEST SWAP1 PUSH1 0x1 DUP3 DUP2 SHR SWAP3 AND DUP1 ISZERO PUSH2 0x3E9 JUMPI JUMPDEST PUSH1 0x20 DUP4 LT EQ PUSH2 0x3D3 JUMPI JUMP JUMPDEST PUSH4 0x4E487B71 PUSH1 0xE0 SHL PUSH1 0x0 MSTORE PUSH1 0x22 PUSH1 0x4 MSTORE PUSH1 0x24 PUSH1 0x0 REVERT JUMPDEST SWAP2 PUSH1 0x7F AND SWAP2 PUSH2 0x3C8 JUMP JUMPDEST PUSH1 0x1F DUP3 GT PUSH2 0x3FF JUMPI POP POP JUMP JUMPDEST PUSH1 0x0 MSTORE PUSH1 0x1F PUSH1 0x20 PUSH1 0x0 KECCAK256 SWAP2 ADD PUSH1 0x5 SHR DUP2 ADD SWAP1 JUMPDEST DUP2 DUP2 LT PUSH2 0x41D JUMPI POP POP JUMP JUMPDEST PUSH1 0x0 DUP2 SSTORE PUSH1 0x1 ADD PUSH2 0x412 JUMP INVALID PUSH1 0x80 PUSH1 0x40 MSTORE PUSH1 0x4 CALLDATASIZE LT ISZERO PUSH2 0x12 JUMPI PUSH1 0x0 DUP1 REVERT JUMPDEST PUSH1 0x0 CALLDATALOAD PUSH1 0xE0 SHR DUP1 PUSH4 0x1CE87EBB EQ PUSH2 0xA8E JUMPI DUP1 PUSH4 0x35D335AF EQ PUSH2 0x9AD JUMPI DUP1 PUSH4 0x3A60A051 EQ PUSH2 0x95A JUMPI DUP1 PUSH4 0x3E293A6C EQ PUSH2 0x8EB JUMPI DUP1 PUSH4 0x3F9A61E0 EQ PUSH2 0x85F JUMPI DUP1 PUSH4 0x4E2AD8EA EQ PUSH2 0x72A JUMPI DUP1 PUSH4 0x5F167487 EQ PUSH2 0x6ED JUMPI DUP1 PUSH4 0x784940C5 EQ PUSH2 0x6B1 JUMPI DUP1 PUSH4 0x87288440 EQ PUSH2 0x675 JUMPI DUP1 PUSH4 0x8A1943FD EQ PUSH2 0x5E5 JUMPI DUP1 PUSH4 0x9BAC92F3 EQ PUSH2 0x4CB JUMPI DUP1 PUSH4 0xB51BCC0E EQ PUSH2 0x495 JUMPI DUP1 PUSH4 0xB81C6453 EQ PUSH2 0x149 JUMPI DUP1 PUSH4 0xEB2F1610 EQ PUSH2 0x126 JUMPI PUSH4 0xEE0D70F4 EQ PUSH2 0xC1 JUMPI PUSH1 0x0 DUP1 REVERT JUMPDEST CALLVALUE PUSH2 0x121 JUMPI PUSH1 0x20 CALLDATASIZE PUSH1 0x3 NOT ADD SLT PUSH2 0x121 JUMPI PUSH1 0x4 CALLDATALOAD PUSH1 0x1 PUSH1 0x1 PUSH1 0xA0 SHL SUB DUP2 AND SWAP1 DUP2 SWAP1 SUB PUSH2 0x121 JUMPI PUSH1 0x0 MSTORE PUSH1 0x4 PUSH1 0x20 MSTORE PUSH1 0xFF PUSH1 0x40 PUSH1 0x0 KECCAK256 SLOAD AND PUSH1 0x40 MLOAD PUSH1 0x7 DUP3 LT ISZERO PUSH2 0x10B JUMPI PUSH1 0x20 SWAP2 DUP2 MSTORE RETURN JUMPDEST PUSH4 0x4E487B71 PUSH1 0xE0 SHL PUSH1 0x0 MSTORE PUSH1 0x21 PUSH1 0x4 MSTORE PUSH1 0x24 PUSH1 0x0 REVERT JUMPDEST PUSH1 0x0 DUP1 REVERT JUMPDEST CALLVALUE PUSH2 0x121 JUMPI PUSH1 0x20 PUSH2 0x13F PUSH2 0x139 CALLDATASIZE PUSH2 0xD0C JUMP JUMPDEST SWAP1 PUSH2 0xE60 JUMP JUMPDEST PUSH1 0x40 MLOAD SWAP1 ISZERO ISZERO DUP2 MSTORE RETURN JUMPDEST CALLVALUE PUSH2 0x121 JUMPI PUSH2 0x157 CALLDATASIZE PUSH2 0xBD6 JUMP JUMPDEST PUSH2 0x160 DUP3 PUSH2 0xB42 JUMP JUMPDEST CALLER PUSH1 0x0 SWAP1 DUP2 MSTORE PUSH1 0x20 SWAP2 SWAP1 SWAP2 MSTORE PUSH1 0x40 SWAP1 KECCAK256 SLOAD PUSH1 0xFF AND PUSH2 0x460 JUMPI PUSH1 0x1 PUSH1 0x1 PUSH1 0xA0 SHL SUB AND SWAP1 CALLER DUP3 EQ PUSH2 0x424 JUMPI PUSH2 0x192 DUP2 PUSH2 0xAF7 JUMP JUMPDEST SWAP1 PUSH1 0x0 SWAP2 DUP3 JUMPDEST DUP2 SLOAD DUP2 LT ISZERO PUSH2 0x41C JUMPI DUP5 PUSH2 0x1AC DUP3 DUP5 PUSH2 0xB5B JUMP JUMPDEST POP SLOAD PUSH1 0x1 PUSH1 0x1 PUSH1 0xA0 SHL SUB AND EQ PUSH2 0x1C4 JUMPI PUSH1 0x1 ADD PUSH2 0x198 JUMP JUMPDEST SWAP2 SWAP3 POP DUP1 PUSH1 0x1 PUSH2 0x1D5 DUP5 DUP1 SWAP5 PUSH2 0xB5B JUMP JUMPDEST POP ADD PUSH2 0x1E1 DUP2 SLOAD PUSH2 0xE16 JUMP JUMPDEST SWAP1 SSTORE PUSH2 0x1F0 PUSH1 0x1 SWAP4 DUP5 SWAP3 PUSH2 0xB5B JUMP JUMPDEST POP ADD SLOAD PUSH1 0x2 PUSH2 0x1FE DUP6 PUSH2 0xADE JUMP JUMPDEST ADD SLOAD GT ISZERO PUSH2 0x2C8 JUMPI JUMPDEST POP JUMPDEST ISZERO PUSH2 0x28D JUMPI PUSH2 0x217 DUP2 PUSH2 0xB42 JUMP JUMPDEST CALLER PUSH1 0x0 SWAP1 DUP2 MSTORE PUSH1 0x20 SWAP2 SWAP1 SWAP2 MSTORE PUSH1 0x40 SWAP1 KECCAK256 DUP1 SLOAD PUSH1 0xFF NOT AND PUSH1 0x1 OR SWAP1 SSTORE PUSH2 0x23B DUP2 PUSH2 0xB29 JUMP JUMPDEST CALLER PUSH1 0x0 SWAP1 DUP2 MSTORE PUSH1 0x20 SWAP2 SWAP1 SWAP2 MSTORE PUSH1 0x40 SWAP1 KECCAK256 DUP1 SLOAD PUSH1 0x1 PUSH1 0x1 PUSH1 0xA0 SHL SUB NOT AND DUP4 OR SWAP1 SSTORE PUSH1 0x7 DUP2 LT ISZERO PUSH2 0x10B JUMPI CALLER SWAP1 PUSH32 0x8084D6C9657CF625AABD090126FEDBC9F3DB46379D9518F9591CC324BFA8E62B PUSH1 0x0 DUP1 LOG4 STOP JUMPDEST PUSH1 0x40 MLOAD PUSH3 0x461BCD PUSH1 0xE5 SHL DUP2 MSTORE PUSH1 0x20 PUSH1 0x4 DUP3 ADD MSTORE PUSH1 0x13 PUSH1 0x24 DUP3 ADD MSTORE PUSH19 0x10D85B991A59185D19481B9BDD08199BDD5B99 PUSH1 0x6A SHL PUSH1 0x44 DUP3 ADD MSTORE PUSH1 0x64 SWAP1 REVERT JUMPDEST PUSH2 0x2DA SWAP1 PUSH2 0x2D5 DUP5 PUSH2 0xAF7 JUMP JUMPDEST PUSH2 0xB5B JUMP JUMPDEST POP PUSH1 0x4 DUP2 ADD DUP1 SLOAD PUSH2 0x2EE PUSH1 0xFF DUP3 AND ISZERO PUSH2 0xD3B JUMP JUMPDEST PUSH1 0x0 DUP5 DUP2 DUP2 JUMPDEST PUSH2 0x3D1 JUMPI JUMPDEST POP POP PUSH1 0x3 PUSH2 0x306 DUP8 PUSH2 0xADE JUMP JUMPDEST ADD SLOAD GT ISZERO PUSH2 0x395 JUMPI PUSH1 0xFF NOT AND DUP4 OR SWAP1 SSTORE TIMESTAMP PUSH1 0x2 DUP3 ADD SSTORE PUSH2 0x331 DUP3 PUSH2 0x329 DUP6 PUSH2 0xADE JUMP JUMPDEST ADD SLOAD TIMESTAMP PUSH2 0xE3B JUMP JUMPDEST PUSH1 0x3 DUP3 ADD SSTORE PUSH1 0x1 DUP1 PUSH1 0xA0 SHL SUB DUP2 SLOAD AND PUSH1 0x0 MSTORE PUSH1 0x4 PUSH1 0x20 MSTORE PUSH2 0x356 DUP4 PUSH1 0x40 PUSH1 0x0 KECCAK256 PUSH2 0xE48 JUMP JUMPDEST SLOAD PUSH1 0x1 PUSH1 0x1 PUSH1 0xA0 SHL SUB AND PUSH1 0x7 DUP4 LT ISZERO PUSH2 0x10B JUMPI DUP3 PUSH32 0xF969F9B89705FE938FD03AAF3F2B546C05FA9212D04EDC8753388DE4409D1863 PUSH1 0x0 DUP1 LOG3 DUP4 PUSH2 0x207 JUMP JUMPDEST PUSH1 0x40 MLOAD PUSH3 0x461BCD PUSH1 0xE5 SHL DUP2 MSTORE PUSH1 0x20 PUSH1 0x4 DUP3 ADD MSTORE PUSH1 0x14 PUSH1 0x24 DUP3 ADD MSTORE PUSH20 0x13585E081CD95B985D1BDC9CC81C995858DA1959 PUSH1 0x62 SHL PUSH1 0x44 DUP3 ADD MSTORE PUSH1 0x64 SWAP1 REVERT JUMPDEST PUSH2 0x3DA DUP9 PUSH2 0xAF7 JUMP JUMPDEST SLOAD DUP2 LT ISZERO PUSH2 0x417 JUMPI PUSH1 0xFF PUSH1 0x4 PUSH2 0x3F3 DUP4 PUSH2 0x2D5 DUP13 PUSH2 0xAF7 JUMP JUMPDEST POP ADD SLOAD AND PUSH2 0x404 JUMPI JUMPDEST DUP2 ADD DUP2 PUSH2 0x2F4 JUMP JUMPDEST SWAP2 PUSH2 0x40F DUP3 SWAP2 PUSH2 0xE16 JUMP JUMPDEST SWAP3 SWAP1 POP PUSH2 0x3FC JUMP JUMPDEST PUSH2 0x2F9 JUMP JUMPDEST POP POP SWAP1 PUSH2 0x209 JUMP JUMPDEST PUSH1 0x40 MLOAD PUSH3 0x461BCD PUSH1 0xE5 SHL DUP2 MSTORE PUSH1 0x20 PUSH1 0x4 DUP3 ADD MSTORE PUSH1 0x14 PUSH1 0x24 DUP3 ADD MSTORE PUSH20 0x21B0B73737BA103B37BA32903337B91039B2B633 PUSH1 0x61 SHL PUSH1 0x44 DUP3 ADD MSTORE PUSH1 0x64 SWAP1 REVERT JUMPDEST PUSH1 0x40 MLOAD PUSH3 0x461BCD PUSH1 0xE5 SHL DUP2 MSTORE PUSH1 0x20 PUSH1 0x4 DUP3 ADD MSTORE PUSH1 0xD PUSH1 0x24 DUP3 ADD MSTORE PUSH13 0x105B1C9958591E481D9BDD1959 PUSH1 0x9A SHL PUSH1 0x44 DUP3 ADD MSTORE PUSH1 0x64 SWAP1 REVERT JUMPDEST CALLVALUE PUSH2 0x121 JUMPI PUSH1 0x20 CALLDATASIZE PUSH1 0x3 NOT ADD SLT PUSH2 0x121 JUMPI PUSH1 0x4 CALLDATALOAD PUSH1 0x7 DUP2 LT ISZERO PUSH2 0x121 JUMPI PUSH1 0xFF PUSH2 0x4BF PUSH1 0x20 SWAP3 PUSH2 0xB10 JUMP JUMPDEST SLOAD AND PUSH1 0x40 MLOAD SWAP1 ISZERO ISZERO DUP2 MSTORE RETURN JUMPDEST CALLVALUE PUSH2 0x121 JUMPI PUSH2 0x4D9 CALLDATASIZE PUSH2 0xD0C JUMP JUMPDEST PUSH1 0x1 PUSH1 0x1 PUSH1 0xA0 SHL SUB SWAP1 SWAP2 AND SWAP1 DUP2 ISZERO PUSH2 0x5A0 JUMPI DUP2 PUSH1 0x0 MSTORE PUSH1 0x4 PUSH1 0x20 MSTORE PUSH1 0xFF PUSH1 0x40 PUSH1 0x0 KECCAK256 SLOAD AND PUSH1 0x7 DUP2 LT ISZERO PUSH2 0x10B JUMPI PUSH2 0x510 SWAP1 ISZERO PUSH2 0xD3B JUMP JUMPDEST PUSH2 0x559 PUSH2 0x51C DUP3 PUSH2 0xAF7 JUMP JUMPDEST PUSH2 0x52A PUSH1 0x1 PUSH2 0x329 DUP6 PUSH2 0xADE JUMP JUMPDEST SWAP1 PUSH1 0x40 MLOAD SWAP2 PUSH2 0x538 DUP4 PUSH2 0xC05 JUMP JUMPDEST DUP6 DUP4 MSTORE PUSH1 0x0 PUSH1 0x20 DUP5 ADD MSTORE TIMESTAMP PUSH1 0x40 DUP5 ADD MSTORE PUSH1 0x60 DUP4 ADD MSTORE PUSH1 0x1 PUSH1 0x80 DUP4 ADD MSTORE PUSH2 0xD7B JUMP JUMPDEST DUP2 PUSH1 0x0 MSTORE PUSH1 0x4 PUSH1 0x20 MSTORE PUSH2 0x570 DUP2 PUSH1 0x40 PUSH1 0x0 KECCAK256 PUSH2 0xE48 JUMP JUMPDEST PUSH1 0x7 DUP2 LT ISZERO PUSH2 0x10B JUMPI PUSH32 0xF969F9B89705FE938FD03AAF3F2B546C05FA9212D04EDC8753388DE4409D1863 PUSH1 0x0 DUP1 LOG3 STOP JUMPDEST PUSH1 0x40 MLOAD PUSH3 0x461BCD PUSH1 0xE5 SHL DUP2 MSTORE PUSH1 0x20 PUSH1 0x4 DUP3 ADD MSTORE PUSH1 0x17 PUSH1 0x24 DUP3 ADD MSTORE PUSH32 0x496E76616C69642073656E61746F722061646472657373000000000000000000 PUSH1 0x44 DUP3 ADD MSTORE PUSH1 0x64 SWAP1 REVERT JUMPDEST CALLVALUE PUSH2 0x121 JUMPI PUSH1 0x20 CALLDATASIZE PUSH1 0x3 NOT ADD SLT PUSH2 0x121 JUMPI PUSH1 0x4 CALLDATALOAD PUSH1 0x7 DUP2 LT ISZERO PUSH2 0x121 JUMPI PUSH2 0x60D PUSH1 0x0 SWAP2 PUSH2 0xAF7 JUMP JUMPDEST DUP1 SLOAD SWAP1 PUSH1 0x0 JUMPDEST DUP3 DUP2 LT PUSH2 0x625 JUMPI PUSH1 0x20 DUP5 PUSH1 0x40 MLOAD SWAP1 DUP2 MSTORE RETURN JUMPDEST PUSH1 0xFF PUSH1 0x4 PUSH2 0x633 DUP4 DUP6 PUSH2 0xB5B JUMP JUMPDEST POP ADD SLOAD AND DUP1 PUSH2 0x65E JUMPI JUMPDEST PUSH2 0x64A JUMPI JUMPDEST PUSH1 0x1 ADD PUSH2 0x613 JUMP JUMPDEST SWAP3 PUSH2 0x656 PUSH1 0x1 SWAP2 PUSH2 0xE16 JUMP JUMPDEST SWAP4 SWAP1 POP PUSH2 0x642 JUMP JUMPDEST POP PUSH1 0x3 PUSH2 0x66B DUP3 DUP5 PUSH2 0xB5B JUMP JUMPDEST POP ADD SLOAD TIMESTAMP LT PUSH2 0x63D JUMP JUMPDEST CALLVALUE PUSH2 0x121 JUMPI PUSH2 0x68D PUSH2 0x686 CALLDATASIZE PUSH2 0xBD6 JUMP JUMPDEST SWAP2 SWAP1 PUSH2 0xB42 JUMP JUMPDEST SWAP1 PUSH1 0x1 DUP1 PUSH1 0xA0 SHL SUB AND PUSH1 0x0 MSTORE PUSH1 0x20 MSTORE PUSH1 0x20 PUSH1 0xFF PUSH1 0x40 PUSH1 0x0 KECCAK256 SLOAD AND PUSH1 0x40 MLOAD SWAP1 ISZERO ISZERO DUP2 MSTORE RETURN JUMPDEST CALLVALUE PUSH2 0x121 JUMPI PUSH1 0x20 CALLDATASIZE PUSH1 0x3 NOT ADD SLT PUSH2 0x121 JUMPI PUSH1 0x4 CALLDATALOAD PUSH1 0x0 MSTORE PUSH1 0x0 PUSH1 0x20 MSTORE PUSH2 0x6E9 PUSH2 0x6DD PUSH1 0x40 PUSH1 0x0 KECCAK256 PUSH2 0xC37 JUMP JUMPDEST PUSH1 0x40 MLOAD SWAP2 DUP3 SWAP2 DUP3 PUSH2 0xB8D JUMP JUMPDEST SUB SWAP1 RETURN JUMPDEST CALLVALUE PUSH2 0x121 JUMPI PUSH2 0x705 PUSH2 0x6FE CALLDATASIZE PUSH2 0xBD6 JUMP JUMPDEST SWAP2 SWAP1 PUSH2 0xB29 JUMP JUMPDEST PUSH1 0x1 PUSH1 0x1 PUSH1 0xA0 SHL SUB SWAP2 DUP3 AND PUSH1 0x0 SWAP1 DUP2 MSTORE PUSH1 0x20 SWAP2 DUP3 MSTORE PUSH1 0x40 SWAP1 DUP2 SWAP1 KECCAK256 SLOAD SWAP1 MLOAD SWAP3 AND DUP3 MSTORE SWAP1 RETURN JUMPDEST CALLVALUE PUSH2 0x121 JUMPI PUSH1 0x20 CALLDATASIZE PUSH1 0x3 NOT ADD SLT PUSH2 0x121 JUMPI PUSH1 0x4 CALLDATALOAD PUSH1 0x7 DUP2 LT ISZERO PUSH2 0x121 JUMPI PUSH1 0xFF PUSH2 0x752 DUP3 PUSH2 0xB10 JUMP JUMPDEST SLOAD AND ISZERO PUSH2 0x827 JUMPI CALLER PUSH1 0x0 MSTORE PUSH1 0x4 PUSH1 0x20 MSTORE PUSH1 0xFF PUSH1 0x40 PUSH1 0x0 KECCAK256 SLOAD AND SWAP1 PUSH1 0x7 DUP3 LT ISZERO PUSH2 0x10B JUMPI PUSH2 0x782 PUSH2 0x787 SWAP3 ISZERO PUSH2 0xD3B JUMP JUMPDEST PUSH2 0xAF7 JUMP JUMPDEST DUP1 SLOAD SWAP1 PUSH1 0x0 JUMPDEST DUP3 DUP2 LT PUSH2 0x7CB JUMPI PUSH2 0x7C9 DUP3 PUSH1 0x40 MLOAD SWAP1 PUSH2 0x7A5 DUP3 PUSH2 0xC05 JUMP JUMPDEST CALLER DUP3 MSTORE PUSH1 0x0 PUSH1 0x20 DUP4 ADD MSTORE PUSH1 0x0 PUSH1 0x40 DUP4 ADD MSTORE PUSH1 0x0 PUSH1 0x60 DUP4 ADD MSTORE PUSH1 0x0 PUSH1 0x80 DUP4 ADD MSTORE PUSH2 0xD7B JUMP JUMPDEST STOP JUMPDEST PUSH2 0x7D5 DUP2 DUP4 PUSH2 0xB5B JUMP JUMPDEST POP SLOAD PUSH1 0x1 PUSH1 0x1 PUSH1 0xA0 SHL SUB AND CALLER EQ PUSH2 0x7EE JUMPI PUSH1 0x1 ADD PUSH2 0x78D JUMP JUMPDEST PUSH1 0x40 MLOAD PUSH3 0x461BCD PUSH1 0xE5 SHL DUP2 MSTORE PUSH1 0x20 PUSH1 0x4 DUP3 ADD MSTORE PUSH1 0x11 PUSH1 0x24 DUP3 ADD MSTORE PUSH17 0x105B1C9958591E481B9BDB5A5B985D1959 PUSH1 0x7A SHL PUSH1 0x44 DUP3 ADD MSTORE PUSH1 0x64 SWAP1 REVERT JUMPDEST PUSH1 0x40 MLOAD PUSH3 0x461BCD PUSH1 0xE5 SHL DUP2 MSTORE PUSH1 0x20 PUSH1 0x4 DUP3 ADD MSTORE PUSH1 0x10 PUSH1 0x24 DUP3 ADD MSTORE PUSH16 0x496E76616C69642063617465676F7279 PUSH1 0x80 SHL PUSH1 0x44 DUP3 ADD MSTORE PUSH1 0x64 SWAP1 REVERT JUMPDEST CALLVALUE PUSH2 0x121 JUMPI PUSH1 0x20 CALLDATASIZE PUSH1 0x3 NOT ADD SLT PUSH2 0x121 JUMPI PUSH1 0x4 CALLDATALOAD PUSH1 0x7 DUP2 LT ISZERO PUSH2 0x121 JUMPI PUSH1 0xFF PUSH2 0x887 DUP3 PUSH2 0xB10 JUMP JUMPDEST SLOAD AND ISZERO PUSH2 0x8A6 JUMPI PUSH1 0x0 MSTORE PUSH1 0x0 PUSH1 0x20 MSTORE PUSH2 0x6E9 PUSH2 0x6DD PUSH1 0x40 PUSH1 0x0 KECCAK256 PUSH2 0xC37 JUMP JUMPDEST PUSH1 0x40 MLOAD PUSH3 0x461BCD PUSH1 0xE5 SHL DUP2 MSTORE PUSH1 0x20 PUSH1 0x4 DUP3 ADD MSTORE PUSH1 0x17 PUSH1 0x24 DUP3 ADD MSTORE PUSH32 0x43617465676F727920646F6573206E6F74206578697374000000000000000000 PUSH1 0x44 DUP3 ADD MSTORE PUSH1 0x64 SWAP1 REVERT JUMPDEST CALLVALUE PUSH2 0x121 JUMPI PUSH2 0x903 PUSH2 0x8FC CALLDATASIZE PUSH2 0xABF JUMP JUMPDEST SWAP2 SWAP1 PUSH2 0xAF7 JUMP JUMPDEST DUP1 SLOAD DUP3 LT ISZERO PUSH2 0x121 JUMPI PUSH1 0xA0 SWAP2 PUSH2 0x918 SWAP2 PUSH2 0xB5B JUMP JUMPDEST POP PUSH1 0x1 DUP1 DUP4 SHL SUB DUP2 SLOAD AND SWAP1 PUSH1 0x1 DUP2 ADD SLOAD SWAP1 PUSH1 0x2 DUP2 ADD SLOAD PUSH1 0xFF PUSH1 0x4 PUSH1 0x3 DUP5 ADD SLOAD SWAP4 ADD SLOAD AND SWAP3 PUSH1 0x40 MLOAD SWAP5 DUP6 MSTORE PUSH1 0x20 DUP6 ADD MSTORE PUSH1 0x40 DUP5 ADD MSTORE PUSH1 0x60 DUP4 ADD MSTORE ISZERO ISZERO PUSH1 0x80 DUP3 ADD MSTORE RETURN JUMPDEST CALLVALUE PUSH2 0x121 JUMPI PUSH1 0x20 CALLDATASIZE PUSH1 0x3 NOT ADD SLT PUSH2 0x121 JUMPI PUSH1 0x4 CALLDATALOAD PUSH1 0x7 DUP2 LT ISZERO PUSH2 0x121 JUMPI PUSH2 0x982 PUSH1 0x80 SWAP2 PUSH2 0xADE JUMP JUMPDEST DUP1 SLOAD SWAP1 PUSH1 0x1 DUP2 ADD SLOAD SWAP1 PUSH1 0x3 PUSH1 0x2 DUP3 ADD SLOAD SWAP2 ADD SLOAD SWAP2 PUSH1 0x40 MLOAD SWAP4 DUP5 MSTORE PUSH1 0x20 DUP5 ADD MSTORE PUSH1 0x40 DUP4 ADD MSTORE PUSH1 0x60 DUP3 ADD MSTORE RETURN JUMPDEST CALLVALUE PUSH2 0x121 JUMPI PUSH2 0x9BB CALLDATASIZE PUSH2 0xABF JUMP JUMPDEST PUSH2 0x9C5 DUP3 CALLER PUSH2 0xE60 JUMP JUMPDEST ISZERO PUSH2 0xA59 JUMPI DUP1 ISZERO ISZERO DUP1 PUSH2 0xA4E JUMPI JUMPDEST ISZERO PUSH2 0xA19 JUMPI DUP1 PUSH2 0x9E2 DUP4 PUSH2 0xADE JUMP JUMPDEST SSTORE PUSH1 0x7 DUP3 LT ISZERO PUSH2 0x10B JUMPI PUSH1 0x20 PUSH32 0xBB28B82677B93F9743C8CB95950CA0AD87F5CA3D90BBB90BCB80F530208189B5 SWAP2 PUSH1 0x40 MLOAD SWAP1 DUP2 MSTORE LOG2 STOP JUMPDEST PUSH1 0x40 MLOAD PUSH3 0x461BCD PUSH1 0xE5 SHL DUP2 MSTORE PUSH1 0x20 PUSH1 0x4 DUP3 ADD MSTORE PUSH1 0xD PUSH1 0x24 DUP3 ADD MSTORE PUSH13 0x496E76616C69642073636F7265 PUSH1 0x98 SHL PUSH1 0x44 DUP3 ADD MSTORE PUSH1 0x64 SWAP1 REVERT JUMPDEST POP PUSH1 0x64 DUP2 GT ISZERO PUSH2 0x9D3 JUMP JUMPDEST PUSH1 0x40 MLOAD PUSH3 0x461BCD PUSH1 0xE5 SHL DUP2 MSTORE PUSH1 0x20 PUSH1 0x4 DUP3 ADD MSTORE PUSH1 0xD PUSH1 0x24 DUP3 ADD MSTORE PUSH13 0x2737BA10309039B2B730BA37B9 PUSH1 0x99 SHL PUSH1 0x44 DUP3 ADD MSTORE PUSH1 0x64 SWAP1 REVERT JUMPDEST CALLVALUE PUSH2 0x121 JUMPI PUSH1 0x20 CALLDATASIZE PUSH1 0x3 NOT ADD SLT PUSH2 0x121 JUMPI PUSH1 0x4 CALLDATALOAD PUSH1 0x7 DUP2 LT ISZERO PUSH2 0x121 JUMPI PUSH2 0xAB6 PUSH1 0x20 SWAP2 PUSH2 0xADE JUMP JUMPDEST SLOAD PUSH1 0x40 MLOAD SWAP1 DUP2 MSTORE RETURN JUMPDEST PUSH1 0x40 SWAP1 PUSH1 0x3 NOT ADD SLT PUSH2 0x121 JUMPI PUSH1 0x4 CALLDATALOAD PUSH1 0x7 DUP2 LT ISZERO PUSH2 0x121 JUMPI SWAP1 PUSH1 0x24 CALLDATALOAD SWAP1 JUMP JUMPDEST PUSH1 0x7 DUP2 LT ISZERO PUSH2 0x10B JUMPI PUSH1 0x0 MSTORE PUSH1 0x2 PUSH1 0x20 MSTORE PUSH1 0x40 PUSH1 0x0 KECCAK256 SWAP1 JUMP JUMPDEST PUSH1 0x7 DUP2 LT ISZERO PUSH2 0x10B JUMPI PUSH1 0x0 MSTORE PUSH1 0x3 PUSH1 0x20 MSTORE PUSH1 0x40 PUSH1 0x0 KECCAK256 SWAP1 JUMP JUMPDEST PUSH1 0x7 DUP2 LT ISZERO PUSH2 0x10B JUMPI PUSH1 0x0 MSTORE PUSH1 0x1 PUSH1 0x20 MSTORE PUSH1 0x40 PUSH1 0x0 KECCAK256 SWAP1 JUMP JUMPDEST PUSH1 0x7 DUP2 LT ISZERO PUSH2 0x10B JUMPI PUSH1 0x0 MSTORE PUSH1 0x6 PUSH1 0x20 MSTORE PUSH1 0x40 PUSH1 0x0 KECCAK256 SWAP1 JUMP JUMPDEST PUSH1 0x7 DUP2 LT ISZERO PUSH2 0x10B JUMPI PUSH1 0x0 MSTORE PUSH1 0x5 PUSH1 0x20 MSTORE PUSH1 0x40 PUSH1 0x0 KECCAK256 SWAP1 JUMP JUMPDEST DUP1 SLOAD DUP3 LT ISZERO PUSH2 0xB77 JUMPI PUSH1 0x0 MSTORE PUSH1 0x5 PUSH1 0x20 PUSH1 0x0 KECCAK256 SWAP2 MUL ADD SWAP1 PUSH1 0x0 SWAP1 JUMP JUMPDEST PUSH4 0x4E487B71 PUSH1 0xE0 SHL PUSH1 0x0 MSTORE PUSH1 0x32 PUSH1 0x4 MSTORE PUSH1 0x24 PUSH1 0x0 REVERT JUMPDEST SWAP2 SWAP1 SWAP2 PUSH1 0x20 DUP2 MSTORE DUP3 MLOAD DUP1 PUSH1 0x20 DUP4 ADD MSTORE PUSH1 0x0 JUMPDEST DUP2 DUP2 LT PUSH2 0xBC0 JUMPI POP PUSH1 0x40 SWAP3 SWAP4 POP PUSH1 0x0 DUP4 DUP3 DUP5 ADD ADD MSTORE PUSH1 0x1F DUP1 NOT SWAP2 ADD AND ADD ADD SWAP1 JUMP JUMPDEST DUP1 PUSH1 0x20 DUP1 SWAP3 DUP8 ADD ADD MLOAD PUSH1 0x40 DUP3 DUP7 ADD ADD MSTORE ADD PUSH2 0xB9F JUMP JUMPDEST PUSH1 0x40 SWAP1 PUSH1 0x3 NOT ADD SLT PUSH2 0x121 JUMPI PUSH1 0x4 CALLDATALOAD PUSH1 0x7 DUP2 LT ISZERO PUSH2 0x121 JUMPI SWAP1 PUSH1 0x24 CALLDATALOAD PUSH1 0x1 PUSH1 0x1 PUSH1 0xA0 SHL SUB DUP2 AND DUP2 SUB PUSH2 0x121 JUMPI SWAP1 JUMP JUMPDEST PUSH1 0xA0 DUP2 ADD SWAP1 DUP2 LT PUSH8 0xFFFFFFFFFFFFFFFF DUP3 GT OR PUSH2 0xC21 JUMPI PUSH1 0x40 MSTORE JUMP JUMPDEST PUSH4 0x4E487B71 PUSH1 0xE0 SHL PUSH1 0x0 MSTORE PUSH1 0x41 PUSH1 0x4 MSTORE PUSH1 0x24 PUSH1 0x0 REVERT JUMPDEST SWAP1 PUSH1 0x40 MLOAD SWAP2 PUSH1 0x0 SWAP1 DUP1 SLOAD SWAP1 DUP2 PUSH1 0x1 SHR SWAP2 PUSH1 0x1 DUP2 AND DUP1 ISZERO PUSH2 0xD02 JUMPI JUMPDEST PUSH1 0x20 DUP5 LT DUP2 EQ PUSH2 0xCEE JUMPI DUP4 DUP8 MSTORE SWAP1 DUP2 ISZERO PUSH2 0xCD0 JUMPI POP PUSH1 0x1 EQ PUSH2 0xC95 JUMPI JUMPDEST POP POP DUP3 SWAP1 SUB PUSH1 0x1F ADD PUSH1 0x1F NOT AND DUP3 ADD PUSH8 0xFFFFFFFFFFFFFFFF DUP2 GT DUP4 DUP3 LT OR PUSH2 0xC21 JUMPI PUSH1 0x40 MSTORE JUMP JUMPDEST SWAP1 SWAP2 POP PUSH1 0x0 MSTORE PUSH1 0x20 PUSH1 0x0 KECCAK256 PUSH1 0x0 SWAP1 JUMPDEST DUP3 DUP3 LT PUSH2 0xCBA JUMPI POP PUSH1 0x20 SWAP2 POP DUP4 ADD ADD CODESIZE DUP1 PUSH2 0xC6F JUMP JUMPDEST PUSH1 0x1 DUP2 PUSH1 0x20 SWAP3 SLOAD DUP4 DUP6 DUP10 ADD ADD MSTORE ADD SWAP2 ADD SWAP1 PUSH2 0xCA4 JUMP JUMPDEST SWAP2 POP POP PUSH1 0x20 SWAP3 POP PUSH1 0xFF NOT AND DUP3 DUP6 ADD MSTORE ISZERO ISZERO PUSH1 0x5 SHL DUP4 ADD ADD CODESIZE DUP1 PUSH2 0xC6F JUMP JUMPDEST PUSH4 0x4E487B71 PUSH1 0xE0 SHL DUP6 MSTORE PUSH1 0x22 PUSH1 0x4 MSTORE PUSH1 0x24 DUP6 REVERT JUMPDEST SWAP3 PUSH1 0x7F AND SWAP3 PUSH2 0xC52 JUMP JUMPDEST PUSH1 0x40 SWAP1 PUSH1 0x3 NOT ADD SLT PUSH2 0x121 JUMPI PUSH1 0x4 CALLDATALOAD PUSH1 0x1 PUSH1 0x1 PUSH1 0xA0 SHL SUB DUP2 AND DUP2 SUB PUSH2 0x121 JUMPI SWAP1 PUSH1 0x24 CALLDATALOAD PUSH1 0x7 DUP2 LT ISZERO PUSH2 0x121 JUMPI SWAP1 JUMP JUMPDEST ISZERO PUSH2 0xD42 JUMPI JUMP JUMPDEST PUSH1 0x40 MLOAD PUSH3 0x461BCD PUSH1 0xE5 SHL DUP2 MSTORE PUSH1 0x20 PUSH1 0x4 DUP3 ADD MSTORE PUSH1 0x11 PUSH1 0x24 DUP3 ADD MSTORE PUSH17 0x20B63932B0B23C90309039B2B730BA37B9 PUSH1 0x79 SHL PUSH1 0x44 DUP3 ADD MSTORE PUSH1 0x64 SWAP1 REVERT JUMPDEST DUP1 SLOAD PUSH9 0x10000000000000000 DUP2 LT ISZERO PUSH2 0xC21 JUMPI PUSH2 0xD9D SWAP2 PUSH1 0x1 DUP3 ADD DUP2 SSTORE PUSH2 0xB5B JUMP JUMPDEST PUSH2 0xE00 JUMPI PUSH1 0x4 PUSH1 0x80 SWAP2 PUSH1 0x1 DUP1 PUSH1 0xA0 SHL SUB PUSH1 0x1 DUP1 PUSH1 0xA0 SHL SUB DUP6 MLOAD AND AND PUSH12 0xFFFFFFFFFFFFFFFFFFFFFFFF PUSH1 0xA0 SHL DUP3 SLOAD AND OR DUP2 SSTORE PUSH1 0x20 DUP5 ADD MLOAD PUSH1 0x1 DUP3 ADD SSTORE PUSH1 0x40 DUP5 ADD MLOAD PUSH1 0x2 DUP3 ADD SSTORE PUSH1 0x60 DUP5 ADD MLOAD PUSH1 0x3 DUP3 ADD SSTORE ADD SWAP2 ADD MLOAD ISZERO ISZERO PUSH1 0xFF DUP1 NOT DUP4 SLOAD AND SWAP2 AND OR SWAP1 SSTORE JUMP JUMPDEST PUSH4 0x4E487B71 PUSH1 0xE0 SHL PUSH1 0x0 MSTORE PUSH1 0x0 PUSH1 0x4 MSTORE PUSH1 0x24 PUSH1 0x0 REVERT JUMPDEST PUSH1 0x0 NOT DUP2 EQ PUSH2 0xE25 JUMPI PUSH1 0x1 ADD SWAP1 JUMP JUMPDEST PUSH4 0x4E487B71 PUSH1 0xE0 SHL PUSH1 0x0 MSTORE PUSH1 0x11 PUSH1 0x4 MSTORE PUSH1 0x24 PUSH1 0x0 REVERT JUMPDEST SWAP2 SWAP1 DUP3 ADD DUP1 SWAP3 GT PUSH2 0xE25 JUMPI JUMP JUMPDEST SWAP1 PUSH1 0x7 DUP2 LT ISZERO PUSH2 0x10B JUMPI PUSH1 0xFF DUP1 NOT DUP4 SLOAD AND SWAP2 AND OR SWAP1 SSTORE JUMP JUMPDEST SWAP1 PUSH2 0xE6A SWAP1 PUSH2 0xAF7 JUMP JUMPDEST DUP1 SLOAD SWAP2 PUSH1 0x0 JUMPDEST DUP4 DUP2 LT PUSH2 0xE80 JUMPI POP POP POP POP PUSH1 0x0 SWAP1 JUMP JUMPDEST PUSH2 0xE8A DUP2 DUP5 PUSH2 0xB5B JUMP JUMPDEST POP SLOAD PUSH1 0x1 PUSH1 0x1 PUSH1 0xA0 SHL SUB DUP4 DUP2 AND SWAP2 AND EQ DUP1 PUSH2 0xED2 JUMPI JUMPDEST DUP1 PUSH2 0xEBB JUMPI JUMPDEST PUSH2 0xEB2 JUMPI PUSH1 0x1 ADD PUSH2 0xE70 JUMP JUMPDEST POP POP POP POP PUSH1 0x1 SWAP1 JUMP JUMPDEST POP PUSH1 0x3 PUSH2 0xEC8 DUP3 DUP6 PUSH2 0xB5B JUMP JUMPDEST POP ADD SLOAD TIMESTAMP LT PUSH2 0xEA6 JUMP JUMPDEST POP PUSH1 0xFF PUSH1 0x4 PUSH2 0xEE1 DUP4 DUP7 PUSH2 0xB5B JUMP JUMPDEST POP ADD SLOAD AND PUSH2 0xEA0 JUMP INVALID LOG2 PUSH5 0x6970667358 0x22 SLT KECCAK256 0xEA 0xE8 PUSH20 0xCA19E43923685E0FC289B2B6D9A9BFF4246794E3 DUP13 0xEE 0x4F CREATE 0xBA JUMPDEST 0xB4 0xD 0xEE PUSH5 0x736F6C6343 STOP ADDMOD SHR STOP CALLER "},"methodIdentifiers":{"addSenator(address,uint8)":"9bac92f3","categoryExists(uint8)":"b51bcc0e","categoryNames(uint256)":"784940c5","getActiveSenatorCount(uint8)":"8a1943fd","getCategoryName(uint8)":"3f9a61e0","getMinPassScore(uint8)":"1ce87ebb","hasVoted(uint8,address)":"87288440","isSenator(address,uint8)":"eb2f1610","nominate(uint8)":"4e2ad8ea","senateConfigs(uint8)":"3a60a051","senatorCategories(address)":"ee0d70f4","senators(uint8,uint256)":"3e293a6c","updateMinPassScore(uint8,uint256)":"35d335af","vote(uint8,address)":"b81c6453","votedFor(uint8,address)":"5f167487"}}}}}