{
  "_format": "hh-sol-artifact-1",
  "contractName": "GoalOrientedCommunity",
  "sourceName": "contracts/community.sol",
  "abi": [
    {
      "inputs": [
        {
          "internalType": "address",
          "name": "_senateAddress",
          "type": "address"
        },
        {
          "internalType": "address",
          "name": "_tokenAddress",
          "type": "address"
        }
      ],
      "stateMutability": "nonpayable",
      "type": "constructor"
    },
    {
      "anonymous": false,
      "inputs": [
        {
          "indexed": true,
          "internalType": "uint256",
          "name": "id",
          "type": "uint256"
        },
        {
          "indexed": true,
          "internalType": "address",
          "name": "member",
          "type": "address"
        },
        {
          "indexed": false,
          "internalType": "bool",
          "name": "vote",
          "type": "bool"
        }
      ],
      "name": "CloseVoteSubmitted",
      "type": "event"
    },
    {
      "anonymous": false,
      "inputs": [
        {
          "indexed": true,
          "internalType": "uint256",
          "name": "id",
          "type": "uint256"
        }
      ],
      "name": "CommunityClosed",
      "type": "event"
    },
    {
      "anonymous": false,
      "inputs": [
        {
          "indexed": true,
          "internalType": "uint256",
          "name": "id",
          "type": "uint256"
        },
        {
          "indexed": false,
          "internalType": "address",
          "name": "creator",
          "type": "address"
        },
        {
          "indexed": false,
          "internalType": "enum CommunityTypes.Category",
          "name": "category",
          "type": "uint8"
        }
      ],
      "name": "CommunityCreated",
      "type": "event"
    },
    {
      "anonymous": false,
      "inputs": [
        {
          "indexed": true,
          "internalType": "uint256",
          "name": "id",
          "type": "uint256"
        },
        {
          "indexed": false,
          "internalType": "address",
          "name": "member",
          "type": "address"
        }
      ],
      "name": "GoalApproved",
      "type": "event"
    },
    {
      "anonymous": false,
      "inputs": [
        {
          "indexed": true,
          "internalType": "uint256",
          "name": "id",
          "type": "uint256"
        },
        {
          "indexed": false,
          "internalType": "address",
          "name": "member",
          "type": "address"
        }
      ],
      "name": "MemberJoined",
      "type": "event"
    },
    {
      "anonymous": false,
      "inputs": [
        {
          "indexed": true,
          "internalType": "uint256",
          "name": "id",
          "type": "uint256"
        },
        {
          "indexed": true,
          "internalType": "address",
          "name": "reviewer",
          "type": "address"
        }
      ],
      "name": "ReviewerAdded",
      "type": "event"
    },
    {
      "anonymous": false,
      "inputs": [
        {
          "indexed": true,
          "internalType": "uint256",
          "name": "id",
          "type": "uint256"
        },
        {
          "indexed": true,
          "internalType": "address",
          "name": "reviewer",
          "type": "address"
        },
        {
          "indexed": true,
          "internalType": "address",
          "name": "member",
          "type": "address"
        },
        {
          "indexed": false,
          "internalType": "bool",
          "name": "approved",
          "type": "bool"
        }
      ],
      "name": "ReviewerApproval",
      "type": "event"
    },
    {
      "anonymous": false,
      "inputs": [
        {
          "indexed": true,
          "internalType": "uint256",
          "name": "id",
          "type": "uint256"
        },
        {
          "indexed": false,
          "internalType": "address",
          "name": "member",
          "type": "address"
        },
        {
          "indexed": false,
          "internalType": "uint256",
          "name": "amount",
          "type": "uint256"
        }
      ],
      "name": "RewardClaimed",
      "type": "event"
    },
    {
      "anonymous": false,
      "inputs": [
        {
          "indexed": true,
          "internalType": "uint256",
          "name": "id",
          "type": "uint256"
        },
        {
          "indexed": true,
          "internalType": "address",
          "name": "member",
          "type": "address"
        },
        {
          "indexed": true,
          "internalType": "address",
          "name": "senator",
          "type": "address"
        },
        {
          "indexed": false,
          "internalType": "uint256",
          "name": "score",
          "type": "uint256"
        }
      ],
      "name": "ScoreSubmitted",
      "type": "event"
    },
    {
      "anonymous": false,
      "inputs": [
        {
          "indexed": true,
          "internalType": "uint256",
          "name": "id",
          "type": "uint256"
        },
        {
          "indexed": false,
          "internalType": "address",
          "name": "member",
          "type": "address"
        },
        {
          "indexed": false,
          "internalType": "string",
          "name": "submissionUrl",
          "type": "string"
        }
      ],
      "name": "SubmissionUploaded",
      "type": "event"
    },
    {
      "inputs": [],
      "name": "STAKE_AMOUNT",
      "outputs": [
        {
          "internalType": "uint256",
          "name": "",
          "type": "uint256"
        }
      ],
      "stateMutability": "view",
      "type": "function"
    },
    {
      "inputs": [
        {
          "internalType": "enum CommunityTypes.Category",
          "name": "",
          "type": "uint8"
        }
      ],
      "name": "categoryExists",
      "outputs": [
        {
          "internalType": "bool",
          "name": "",
          "type": "bool"
        }
      ],
      "stateMutability": "view",
      "type": "function"
    },
    {
      "inputs": [
        {
          "internalType": "uint256",
          "name": "",
          "type": "uint256"
        }
      ],
      "name": "categoryNames",
      "outputs": [
        {
          "internalType": "string",
          "name": "",
          "type": "string"
        }
      ],
      "stateMutability": "view",
      "type": "function"
    },
    {
      "inputs": [
        {
          "internalType": "uint256",
          "name": "_communityId",
          "type": "uint256"
        }
      ],
      "name": "claimReward",
      "outputs": [],
      "stateMutability": "nonpayable",
      "type": "function"
    },
    {
      "inputs": [
        {
          "internalType": "uint256",
          "name": "_communityId",
          "type": "uint256"
        }
      ],
      "name": "closeCommunityByAuthor",
      "outputs": [],
      "stateMutability": "nonpayable",
      "type": "function"
    },
    {
      "inputs": [
        {
          "internalType": "uint256",
          "name": "",
          "type": "uint256"
        }
      ],
      "name": "communities",
      "outputs": [
        {
          "internalType": "uint256",
          "name": "id",
          "type": "uint256"
        },
        {
          "internalType": "string",
          "name": "name",
          "type": "string"
        },
        {
          "internalType": "string",
          "name": "description",
          "type": "string"
        },
        {
          "internalType": "address",
          "name": "creator",
          "type": "address"
        },
        {
          "internalType": "uint256",
          "name": "startTime",
          "type": "uint256"
        },
        {
          "internalType": "uint256",
          "name": "endTime",
          "type": "uint256"
        },
        {
          "internalType": "string",
          "name": "targetGoal",
          "type": "string"
        },
        {
          "internalType": "uint256",
          "name": "memberDeposit",
          "type": "uint256"
        },
        {
          "internalType": "uint256",
          "name": "rewardPerMember",
          "type": "uint256"
        },
        {
          "internalType": "uint256",
          "name": "maxMembers",
          "type": "uint256"
        },
        {
          "internalType": "uint256",
          "name": "totalMembers",
          "type": "uint256"
        },
        {
          "internalType": "uint256",
          "name": "rewardPool",
          "type": "uint256"
        },
        {
          "internalType": "uint256",
          "name": "depositPool",
          "type": "uint256"
        },
        {
          "internalType": "bool",
          "name": "isClosed",
          "type": "bool"
        },
        {
          "internalType": "enum CommunityTypes.Category",
          "name": "category",
          "type": "uint8"
        },
        {
          "internalType": "uint256",
          "name": "passingScore",
          "type": "uint256"
        }
      ],
      "stateMutability": "view",
      "type": "function"
    },
    {
      "inputs": [],
      "name": "communityCount",
      "outputs": [
        {
          "internalType": "uint256",
          "name": "",
          "type": "uint256"
        }
      ],
      "stateMutability": "view",
      "type": "function"
    },
    {
      "inputs": [],
      "name": "communityToken",
      "outputs": [
        {
          "internalType": "contract IERC20",
          "name": "",
          "type": "address"
        }
      ],
      "stateMutability": "view",
      "type": "function"
    },
    {
      "inputs": [
        {
          "internalType": "string",
          "name": "_name",
          "type": "string"
        },
        {
          "internalType": "string",
          "name": "_description",
          "type": "string"
        },
        {
          "internalType": "string",
          "name": "_targetGoal",
          "type": "string"
        },
        {
          "internalType": "uint256",
          "name": "_startTime",
          "type": "uint256"
        },
        {
          "internalType": "uint256",
          "name": "_endTime",
          "type": "uint256"
        },
        {
          "internalType": "uint256",
          "name": "_memberDeposit",
          "type": "uint256"
        },
        {
          "internalType": "uint256",
          "name": "_rewardPerMember",
          "type": "uint256"
        },
        {
          "internalType": "uint256",
          "name": "_maxMembers",
          "type": "uint256"
        },
        {
          "internalType": "enum CommunityTypes.Category",
          "name": "_category",
          "type": "uint8"
        }
      ],
      "name": "createCommunity",
      "outputs": [],
      "stateMutability": "payable",
      "type": "function"
    },
    {
      "inputs": [
        {
          "internalType": "enum CommunityTypes.Category",
          "name": "_category",
          "type": "uint8"
        }
      ],
      "name": "getCategoryName",
      "outputs": [
        {
          "internalType": "string",
          "name": "",
          "type": "string"
        }
      ],
      "stateMutability": "view",
      "type": "function"
    },
    {
      "inputs": [
        {
          "internalType": "uint256",
          "name": "communityId",
          "type": "uint256"
        }
      ],
      "name": "getMemberCount",
      "outputs": [
        {
          "internalType": "uint256",
          "name": "",
          "type": "uint256"
        }
      ],
      "stateMutability": "view",
      "type": "function"
    },
    {
      "inputs": [
        {
          "internalType": "uint256",
          "name": "_communityId",
          "type": "uint256"
        },
        {
          "internalType": "address",
          "name": "_member",
          "type": "address"
        }
      ],
      "name": "getMemberStatus",
      "outputs": [
        {
          "internalType": "bool",
          "name": "isScored",
          "type": "bool"
        },
        {
          "internalType": "bool",
          "name": "isApproved",
          "type": "bool"
        }
      ],
      "stateMutability": "view",
      "type": "function"
    },
    {
      "inputs": [
        {
          "internalType": "uint256",
          "name": "_communityId",
          "type": "uint256"
        },
        {
          "internalType": "address",
          "name": "_member",
          "type": "address"
        }
      ],
      "name": "getScores",
      "outputs": [
        {
          "components": [
            {
              "internalType": "address",
              "name": "senator",
              "type": "address"
            },
            {
              "internalType": "uint256",
              "name": "score",
              "type": "uint256"
            },
            {
              "internalType": "string",
              "name": "comment",
              "type": "string"
            }
          ],
          "internalType": "struct GoalOrientedCommunity.Score[]",
          "name": "",
          "type": "tuple[]"
        }
      ],
      "stateMutability": "view",
      "type": "function"
    },
    {
      "inputs": [
        {
          "internalType": "uint256",
          "name": "",
          "type": "uint256"
        },
        {
          "internalType": "address",
          "name": "",
          "type": "address"
        },
        {
          "internalType": "address",
          "name": "",
          "type": "address"
        }
      ],
      "name": "hasReviewerVoted",
      "outputs": [
        {
          "internalType": "bool",
          "name": "",
          "type": "bool"
        }
      ],
      "stateMutability": "view",
      "type": "function"
    },
    {
      "inputs": [
        {
          "internalType": "uint256",
          "name": "",
          "type": "uint256"
        },
        {
          "internalType": "address",
          "name": "",
          "type": "address"
        },
        {
          "internalType": "address",
          "name": "",
          "type": "address"
        }
      ],
      "name": "hasSenatorScored",
      "outputs": [
        {
          "internalType": "bool",
          "name": "",
          "type": "bool"
        }
      ],
      "stateMutability": "view",
      "type": "function"
    },
    {
      "inputs": [
        {
          "internalType": "uint256",
          "name": "_communityId",
          "type": "uint256"
        }
      ],
      "name": "joinCommunity",
      "outputs": [],
      "stateMutability": "payable",
      "type": "function"
    },
    {
      "inputs": [
        {
          "internalType": "uint256",
          "name": "",
          "type": "uint256"
        },
        {
          "internalType": "uint256",
          "name": "",
          "type": "uint256"
        }
      ],
      "name": "memberAddresses",
      "outputs": [
        {
          "internalType": "address",
          "name": "",
          "type": "address"
        }
      ],
      "stateMutability": "view",
      "type": "function"
    },
    {
      "inputs": [
        {
          "internalType": "uint256",
          "name": "",
          "type": "uint256"
        },
        {
          "internalType": "address",
          "name": "",
          "type": "address"
        },
        {
          "internalType": "uint256",
          "name": "",
          "type": "uint256"
        }
      ],
      "name": "memberScores",
      "outputs": [
        {
          "internalType": "address",
          "name": "senator",
          "type": "address"
        },
        {
          "internalType": "uint256",
          "name": "score",
          "type": "uint256"
        },
        {
          "internalType": "string",
          "name": "comment",
          "type": "string"
        }
      ],
      "stateMutability": "view",
      "type": "function"
    },
    {
      "inputs": [
        {
          "internalType": "uint256",
          "name": "",
          "type": "uint256"
        },
        {
          "internalType": "address",
          "name": "",
          "type": "address"
        }
      ],
      "name": "members",
      "outputs": [
        {
          "internalType": "uint256",
          "name": "joinTime",
          "type": "uint256"
        },
        {
          "internalType": "bool",
          "name": "isApproved",
          "type": "bool"
        },
        {
          "internalType": "bool",
          "name": "hasClaimed",
          "type": "bool"
        },
        {
          "internalType": "string",
          "name": "submissionUrl",
          "type": "string"
        },
        {
          "internalType": "uint256",
          "name": "finalScore",
          "type": "uint256"
        },
        {
          "internalType": "bool",
          "name": "isScored",
          "type": "bool"
        },
        {
          "internalType": "bool",
          "name": "isReviewer",
          "type": "bool"
        },
        {
          "internalType": "bool",
          "name": "hasVotedForClose",
          "type": "bool"
        },
        {
          "internalType": "bool",
          "name": "closeVote",
          "type": "bool"
        },
        {
          "internalType": "uint256",
          "name": "totalReviewerScores",
          "type": "uint256"
        },
        {
          "internalType": "uint256",
          "name": "reviewerCount",
          "type": "uint256"
        }
      ],
      "stateMutability": "view",
      "type": "function"
    },
    {
      "inputs": [
        {
          "internalType": "uint256",
          "name": "_communityId",
          "type": "uint256"
        }
      ],
      "name": "proposeCloseCommunity",
      "outputs": [],
      "stateMutability": "nonpayable",
      "type": "function"
    },
    {
      "inputs": [
        {
          "internalType": "uint256",
          "name": "",
          "type": "uint256"
        },
        {
          "internalType": "address",
          "name": "",
          "type": "address"
        },
        {
          "internalType": "address",
          "name": "",
          "type": "address"
        }
      ],
      "name": "reviewerApprovals",
      "outputs": [
        {
          "internalType": "bool",
          "name": "",
          "type": "bool"
        }
      ],
      "stateMutability": "view",
      "type": "function"
    },
    {
      "inputs": [
        {
          "internalType": "uint256",
          "name": "_communityId",
          "type": "uint256"
        },
        {
          "internalType": "address",
          "name": "_member",
          "type": "address"
        },
        {
          "internalType": "uint256",
          "name": "_score",
          "type": "uint256"
        },
        {
          "internalType": "string",
          "name": "_comment",
          "type": "string"
        }
      ],
      "name": "reviewerScore",
      "outputs": [],
      "stateMutability": "nonpayable",
      "type": "function"
    },
    {
      "inputs": [
        {
          "internalType": "uint256",
          "name": "",
          "type": "uint256"
        },
        {
          "internalType": "uint256",
          "name": "",
          "type": "uint256"
        }
      ],
      "name": "reviewers",
      "outputs": [
        {
          "internalType": "address",
          "name": "",
          "type": "address"
        }
      ],
      "stateMutability": "view",
      "type": "function"
    },
    {
      "inputs": [
        {
          "internalType": "uint256",
          "name": "_communityId",
          "type": "uint256"
        },
        {
          "internalType": "address",
          "name": "_member",
          "type": "address"
        },
        {
          "internalType": "uint256",
          "name": "_score",
          "type": "uint256"
        },
        {
          "internalType": "string",
          "name": "_comment",
          "type": "string"
        }
      ],
      "name": "senateAuditScore",
      "outputs": [],
      "stateMutability": "nonpayable",
      "type": "function"
    },
    {
      "inputs": [],
      "name": "senateContract",
      "outputs": [
        {
          "internalType": "contract Senate",
          "name": "",
          "type": "address"
        }
      ],
      "stateMutability": "view",
      "type": "function"
    },
    {
      "inputs": [
        {
          "internalType": "uint256",
          "name": "_communityId",
          "type": "uint256"
        },
        {
          "internalType": "string",
          "name": "_submissionUrl",
          "type": "string"
        }
      ],
      "name": "submitCompletion",
      "outputs": [],
      "stateMutability": "nonpayable",
      "type": "function"
    },
    {
      "inputs": [
        {
          "internalType": "uint256",
          "name": "_communityId",
          "type": "uint256"
        },
        {
          "internalType": "bool",
          "name": "_vote",
          "type": "bool"
        }
      ],
      "name": "voteForClose",
      "outputs": [],
      "stateMutability": "nonpayable",
      "type": "function"
    }
  ],
  "bytecode": "0x60803461038957601f61346938819003918201601f19168301916001600160401b0383118484101761038e57808492604094855283398101031261038957610052602061004b836103a4565b92016103a4565b9060016000526000602052604060002061007561006f82546103b8565b826103f2565b600a644d7573696360d81b019055600260009081526020527fabbb5caa7dda850e60932de0934eb1f9d0f59695050f761dc64e443e5030a56980546100b9906103b8565b601f811161035c575b50600662105c9d60ea1b019055600360009081526020527f101e368776582e57ab3d116ffe2517c0a585cd5b23174b01e275c2d8329c3d838054610105906103b8565b601f811161032f575b50600c6553706f72747360d01b019055600460009081526020527f52d75039926638d3c558b2bdefb945d5be8dae29dedd1c313212a4d472d9fde58054610154906103b8565b601f8111610302575b507f456475636174696f6e00000000000000000000000000000000000000000000129055600560009081526020527f2b232c97452f0950c94e2539fdc7e69d21166113cf7a9bcb99b220a3fe5d720a80546101b7906103b8565b601f81116102d5575b507f546563686e6f6c6f6779000000000000000000000000000000000000000000149055600660009081526020527f62103cf3131c85df57aad364d21cba02556d3092d6cb54c298c2e7726a7870bd805461021e9061006f906103b8565b600a6427ba3432b960d91b01905560005b60068111156102775750600680546001600160a01b039283166001600160a01b0319918216179091556002805493909216921691909117905560405161304090816104298239f35b60078110156102bf5760406000828152600160205220600160ff1982541617905560001981146102a95760010161022f565b634e487b7160e01b600052601160045260246000fd5b634e487b7160e01b600052602160045260246000fd5b81600052601f6020600020910160051c8101905b8181106102f657506101c0565b600081556001016102e9565b81600052601f6020600020910160051c8101905b818110610323575061015d565b60008155600101610316565b81600052601f6020600020910160051c8101905b818110610350575061010e565b60008155600101610343565b81600052601f6020600020910160051c8101905b81811061037d57506100c2565b60008155600101610370565b600080fd5b634e487b7160e01b600052604160045260246000fd5b51906001600160a01b038216820361038957565b90600182811c921680156103e8575b60208310146103d257565b634e487b7160e01b600052602260045260246000fd5b91607f16916103c7565b601f82116103fe575050565b600052601f6020600020910160051c8101905b81811061041c575050565b6000815560010161041156fe6080604052600436101561001257600080fd5b60003560e01c80631fa4a5601461220557806326e98b8b146121a857806329aa16171461217f5780632ae2b66414611f085780632c90365b14611c9f5780632c9342de14611a7e5780633f9a61e0146119f257806344d02881146119615780635130084a146114a35780635ce9284f146114775780635d85fa181461144e578063676eeee5146113fa578063784940c5146113b657806387a6280f1461126a57806388c52d7c146112165780638fd0f3b4146111e5578063ae169a5014610f24578063aee8461314610f06578063b122a0ef146108e4578063b51bcc0e146108ae578063b7800e5314610864578063bb1895c814610783578063d42f02d1146103a4578063e590b56a1461026d578063ed571f06146101c2578063fa95cefb1461016e5763faf5625f1461014557600080fd5b3461016957600036600319011261016957602060405168056bc75e2d631000008152f35b600080fd5b346101695761017c36612c6f565b91600052600c60205260406000209060018060a01b031660005260205260406000209060018060a01b0316600052602052602060ff604060002054166040519015158152f35b3461016957602036600319011261016957600435600081815260086020526040902060038101546001600160a01b0316330361023a57600d016001815461020c60ff821615612dbf565b60ff19161790557fe68f10f94ca2685d65a39a1841c1e1e00e8df8b2fa15dd0562e32c33af49fe17600080a2005b60405162461bcd60e51b815260206004820152600b60248201526a2737ba1031b932b0ba37b960a91b6044820152606490fd5b34610169576020366003190112610169576004356000526008602052604060002080546001820161029d90612b81565b906102aa60028401612b81565b60038401546004850154600586015492956001600160a01b03909216926102d360068401612b81565b946007840154956008850154600986015491600a87015493600b88015495600c89015497600d8a015499600e01549a6040519e8f9e8f958652602086016102009052610200860161032391612ad4565b858103604087015261033491612ad4565b936060015260808d015260a08c01528a810360c08c015261035491612ad4565b9760e08a015261010089015261012088015261014087015261016086015261018085015260ff811615156101a08501526101c084019060081c60ff169061039a91612d06565b6101e08301520390f35b34610169576103b236612c25565b506000838152600860209081526040808320600983528184203385529092528083206001600160a01b03861684529220600d82015493959194919390929060ff1661074b576004015460081c60ff1615610715576104136002830154612b47565b156106da57600482019360ff8554166106a257600e906104366064881115612e50565b60008581526005602090815260408083206001600160a01b0387168452825280832033845290915290205461046e9060ff1615612dfc565b01805460008581526004602090815260408083206001600160a01b038716845282528083203384529091529020805460ff19169188101560ff169190911790559260008181526005602081815260408084206001600160a01b03871685528252808420338552909152909120805460ff19166001179055830180549093906104f7908890612e9c565b80945560068101966105098854612d13565b8098558554111560405190815260018060a01b03841690837fb0ad8b9f0729f50b6025f5db451debbc7da11dd3f0b6a4ecb8d8919609026b6260203393a460009360009560005b84600052600360205260406000205481101561064b5784600052600560205260ff6040808060002060009060018060a01b038b168252602052208760005260036020526105a08483600020612cbf565b905460039190911b1c6001600160a01b031660009081526020919091522054166105cd575b600101610550565b956105d790612d13565b9584600052600460205260ff6040808060002060009060018060a01b038b168252602052208760005260036020526106128483600020612cbf565b905460039190911b1c6001600160a01b03166000908152602091909152205416156105c55796610643600191612d13565b9790506105c5565b5087868a95600052600360205260406000205460011c111561066957005b6106a094600193610683928560ff19825416179055612ea9565b9081600385015554111591019060ff801983541691151516179055565b005b60405162461bcd60e51b815260206004820152601060248201526f105b1c9958591e481c995d9a595dd95960821b6044820152606490fd5b60405162461bcd60e51b8152602060048201526013602482015272139bc81cdd589b5a5cdcda5bdb88199bdd5b99606a1b6044820152606490fd5b60405162461bcd60e51b815260206004820152600e60248201526d2737ba1030903932bb34b2bbb2b960911b6044820152606490fd5b60405162461bcd60e51b815260206004820152601060248201526f10dbdb5b5d5b9a5d1e4818db1bdcd95960821b6044820152606490fd5b3461016957604036600319011261016957604061079e612abe565b60043560005260096020528160002060009160018060a01b031682526020522080546001820154916107d260028201612b81565b60038201549160ff600482015461081e600660058501549401549483604051998a998a52818116151560208b015260081c16151560408901526101606060890152610160880190612ad4565b946080870152818116151560a0870152818160081c16151560c0870152818160101c16151560e087015260181c1615156101008501526101208401526101408301520390f35b346101695761087236612ca9565b90600052600a602052604060002080548210156101695760209161089591612cbf565b905460405160039290921b1c6001600160a01b03168152f35b346101695760203660031901126101695760043560078110156101695760ff6108d8602092612cd7565b54166040519015158152f35b60203660031901126101695760043580600052600860205260406000209061091360ff600d8401541615612d42565b60048201544210610ec9576005820154421015610e9257600a82015460098301541115610e5c5760078201543403610e17576000818152600960209081526040808320338452909152902054610de1576002546040516323b872dd60e01b815233600482015230602482015268056bc75e2d63100000604482015290602090829060649082906000906001600160a01b03165af1908115610dd557600091610da6575b5015610d69576040519161016083018381106001600160401b03821117610d53576040524283526020830190600082526040840160008152602092610a9960405191610a028684612a47565b600083526060880192835260006080890152600060a0890152600060c0890152600060e0890152600061010089015260006101208901526000610140890152866000526009865260408060002060009060018060a01b03331682528852209388518555610a826001860192511515839060ff801983541691151516179055565b51815461ff00191690151560081b61ff0016179055565b519485516001600160401b038111610d5357610ab86002840154612b47565b601f8111610d0a575b5084601f8211600114610c7157600c94939282600693610140937f78da64a590c3052953ad9e0a5546bbf12bb68ae7634e3fb2a774e22a8c6557c19a9b600092610c66575b50508160011b916000199060031b1c19161760028501555b60808101516003850155610b9a60048501610b4b60a08401511515829060ff801983541691151516179055565b60c0830151815461ff00191690151560081b61ff001617815560e0830151815461010085015163ffff00001990911691151560101b62ff0000169190911790151560181b63ff00000016179055565b6101208101516005850155015191015584600052600a8352610bc0336040600020612ed6565b610bcd600a820154612d13565b600a82015501610bde348254612e9c565b90558260005260038152600a60406000205410610bff575b604051338152a2005b600083815260098252604080822033808452908452818320600401805461ff001916610100179055858352600384529120610c3a9190612ed6565b33837f8fcd9f5c27415bf85b1f568fbe33a98aaebd94a2f721378109a4a48142f1e3fb600080a3610bf6565b015190508b80610b06565b60028401600052856000209760005b601f1984168110610cf35750926001837f78da64a590c3052953ad9e0a5546bbf12bb68ae7634e3fb2a774e22a8c6557c1999a61014094600c999897600697601f19811610610cda575b505050811b016002850155610b1e565b015160001960f88460031b161c191690558b8080610cca565b828201518a55600190990198918701918701610c80565b6002840160005285600020601f830160051c810191878410610d49575b601f0160051c01905b818110610d3d5750610ac1565b60008155600101610d30565b9091508190610d27565b634e487b7160e01b600052604160045260246000fd5b60405162461bcd60e51b8152602060048201526015602482015274151bdad95b881d1c985b9cd9995c8819985a5b1959605a1b6044820152606490fd5b610dc8915060203d602011610dce575b610dc08183612a47565b810190612e38565b836109b6565b503d610db6565b6040513d6000823e3d90fd5b60405162461bcd60e51b815260206004820152600e60248201526d105b1c9958591e481a9bda5b995960921b6044820152606490fd5b60405162461bcd60e51b815260206004820152601860248201527f496e636f7272656374206465706f73697420616d6f756e7400000000000000006044820152606490fd5b60405162461bcd60e51b815260206004820152600e60248201526d10dbdb5b5d5b9a5d1e48199d5b1b60921b6044820152606490fd5b60405162461bcd60e51b815260206004820152600f60248201526e10dbdb5b5d5b9a5d1e48195b991959608a1b6044820152606490fd5b60405162461bcd60e51b815260206004820152601560248201527410dbdb5b5d5b9a5d1e481b9bdd081cdd185c9d1959605a1b6044820152606490fd5b34610169576000366003190112610169576020600754604051908152f35b3461016957602036600319011261016957600435600081815260086020908152604080832060098352818420338552909252909120600d820154610f6b9060ff1615612d42565b60ff600482015416156111ad57600101805460ff8160081c166111765760ff811615611131576000848152600b60209081526040808320338085529252822080548392909190835b8381106110b8575050505081611058575b50506101009061ff001916179055600080808061100d600886015495600b8101610fef888254612ec9565b9055600c60078201549101611005828254612ec9565b905586612e9c565b81811561104f575b3390f115610dd55760407f24b5efa61dd1cfc659205a97fb8ed868f3cb8c81922bab2b96423e5de1de2cb7918151903382526020820152a2005b506108fc611015565b9061106291612ea9565b600e84015411611073578480610fc4565b60405162461bcd60e51b815260206004820152601960248201527f446964206e6f7420706173732073656e617465206175646974000000000000006044820152606490fd5b89600052600c60205260ff60408080600020600090868252602052206110de8487612b15565b50546001600160a01b03166000908152602091909152205416611104575b600101610fb3565b94936111296111236001928361111a8a88612b15565b50015490612e9c565b95612d13565b9590506110fc565b60405162461bcd60e51b815260206004820152601e60248201527f5461736b206e6f7420617070726f7665642062792072657669657765727300006044820152606490fd5b60405162461bcd60e51b815260206004820152600f60248201526e105b1c9958591e4818db185a5b5959608a1b6044820152606490fd5b60405162461bcd60e51b815260206004820152601060248201526f139bdd081c995d9a595dd959081e595d60821b6044820152606490fd5b34610169576111f336612ca9565b906000526003602052604060002080548210156101695760209161089591612cbf565b346101695761122436612c6f565b91600052600560205260406000209060018060a01b031660005260205260406000209060018060a01b0316600052602052602060ff604060002054166040519015158152f35b3461016957604036600319011261016957611283612abe565b600435600052600b60205260406000209060018060a01b031660005260205260406000208054906001600160401b038211610d5357604051916112cc60208260051b0184612a47565b80835260208301809260005260206000206000915b83831061137157848660405191829160208301906020845251809152604083019060408160051b85010192916000905b82821061132057505050500390f35b919360019193955060206113618192603f198a8203018652606060408a51878060a01b03815116845285810151868501520151918160408201520190612ad4565b9601920192018594939192611311565b6003602060019260405161138481612a2c565b848060a01b03865416815284860154838201526113a360028701612b81565b60408201528152019201920191906112e1565b346101695760203660031901126101695760043560005260006020526113f66113e26040600020612b81565b604051918291602083526020830190612ad4565b0390f35b346101695761140836612c6f565b91600052600460205260406000209060018060a01b031660005260205260406000209060018060a01b0316600052602052602060ff604060002054166040519015158152f35b34610169576000366003190112610169576006546040516001600160a01b039091168152602090f35b3461016957602036600319011261016957600435600052600a6020526020604060002054604051908152f35b34610169576114b136612c25565b9290916114f8602060018060a01b0360065416846000526008825260ff600d6040600020015460081c16906040518080958194630eb2f16160e41b83523360048401612d22565b03915afa908115610dd557600091611942575b50156119045761151e6064841115612e50565b6000828152600c602090815260408083206001600160a01b0385168452825280832033845290915290205460ff166118ce5781600052600960205260408060002060009060018060a01b0384168252602052209260ff600485015416156118895782600052600b60205260408060002060009060018060a01b038516825260205220604051906115ad82612a2c565b3382526020820190838252604083019788528054600160401b811015610d53576115dc91600182018155612b15565b91909161187357915181546001600160a01b0319166001600160a01b039190911617815590516001820155945180519095600201906001600160401b038111610d53576116298254612b47565b601f811161182b575b506020601f82116001146117c157819060409697986000926117b6575b50508160011b916000199060031b1c19161790555b6000848152600c60209081528482206001600160a01b0385168084529082528583203380855290835292869020805460ff191660011790558551938452919286917f378f514d49e4abb7486bee29952af6519de11cb70a74cd68479f52457b0518f791a482600052600b6020528160002060009160018060a01b03168252602052208054916000906000926000915b85831061175c5750505060038310158091819261174f575b501561173257506001929161171f91612ea9565b600382015501805460ff19166001179055005b91505061173b57005b60006003820155600101805460ff19169055005b90508360011c108561170b565b90919361176f90600161111a8786612b15565b93600161177c8285612b15565b500154826000526008602052600e6040600020015411156117a2575b60010191906116f3565b926117ae600191612d13565b939050611798565b01519050888061164f565b601f1982169783600052816000209860005b8181106118135750916040979899918460019594106117fa575b505050811b019055611664565b015160001960f88460031b161c191690558880806117ed565b838301518b556001909a0199602093840193016117d3565b826000526020600020601f830160051c81019160208410611869575b601f0160051c01905b81811061185d5750611632565b60008155600101611850565b9091508190611847565b634e487b7160e01b600052600060045260246000fd5b60405162461bcd60e51b815260206004820152601d60248201527f4e6f7420726576696577656420627920726576696577657273207965740000006044820152606490fd5b60405162461bcd60e51b815260206004820152600e60248201526d105b1c9958591e481cd8dbdc995960921b6044820152606490fd5b60405162461bcd60e51b81526020600482015260166024820152752737ba1030baba3437b934bd32b21039b2b730ba37b960511b6044820152606490fd5b61195b915060203d602011610dce57610dc08183612a47565b8561150b565b346101695760603660031901126101695761197a612abe565b60443590600435600052600b60205260406000209060018060a01b03166000526020526040600020908154811015610169576119b591612b15565b5060018060a01b038154166113f66119d4600260018501549401612b81565b60405193849384526020840152606060408401526060830190612ad4565b346101695760203660031901126101695760043560078110156101695760ff611a1a82612cd7565b541615611a395760005260006020526113f66113e26040600020612b81565b60405162461bcd60e51b815260206004820152601760248201527f43617465676f727920646f6573206e6f742065786973740000000000000000006044820152606490fd5b346101695760403660031901126101695760043560243580151580820361016957826000526008602052611b32604060002092846000526009602052604060002060018060a01b0333166000526020526004600d6040600020950194611ae860ff87541615612dbf565b611af481541515612d84565b01620100008154611b0b60ff8260101c1615612dfc565b63ff0000001990911663ffff0000199091161791151560181b63ff00000016919091179055565b604051908152827fa953b79a8bda2946b1e815d9e09876df8d499a7d04ace4eccec405ae4a96cf0860203393a3600080805b84600052600a602052604060002054811015611c0757846000526009602052600460408060002087600052600a602052611ba18483600020612cbf565b905460039190911b1c6001600160a01b03166000908152602091909152200154601081901c60ff16611bd7575b50600101611b64565b91611be360ff91612d13565b9260181c16611bf3575b85611bce565b91611bff600191612d13565b929050611bed565b5080159182159283611c58575b505050611c1d57005b805460ff19166001179055611c3181612f17565b7fe68f10f94ca2685d65a39a1841c1e1e00e8df8b2fa15dd0562e32c33af49fe17600080a2005b90919250600382029180830460031490151715611c89578260011b9283046002141715611c89571015838080611c14565b634e487b7160e01b600052601160045260246000fd5b3461016957602036600319011261016957600435600081815260086020526040902060038101546001600160a01b03163303611ec35780611ce960ff600d60059401541615612dbf565b01544210611e8a5760405160018152817fa953b79a8bda2946b1e815d9e09876df8d499a7d04ace4eccec405ae4a96cf0860203393a36000818152600960209081526040808320338085528184528285206004808201805463ffff00001916630101000017905587875260088652938620919095529252600d9091018054909290611d779060ff1615612dbf565b611d8381541515612d84565b01620100008154611d9a60ff8260101c1615612dfc565b62ff00001916178155630100000063ff0000001982541617905560405160018152827fa953b79a8bda2946b1e815d9e09876df8d499a7d04ace4eccec405ae4a96cf0860203393a3600080805b84600052600a602052604060002054811015611c0757846000526009602052600460408060002087600052600a602052611e248483600020612cbf565b905460039190911b1c6001600160a01b03166000908152602091909152200154601081901c60ff16611e5a575b50600101611de7565b91611e6660ff91612d13565b9260181c16611e76575b85611e51565b91611e82600191612d13565b929050611e70565b60405162461bcd60e51b8152602060048201526011602482015270436f6d6d756e697479206f6e676f696e6760781b6044820152606490fd5b60405162461bcd60e51b815260206004820152601860248201527f4f6e6c792063726561746f722063616e2070726f706f736500000000000000006044820152606490fd5b34610169576040366003190112610169576004356024356001600160401b03811161016957611f3b903690600401612a68565b600082815260086020908152604080832060098352818420338552909252909120600d90910154919291611f729060ff1615612d42565b611f7e81541515612d84565b60ff6004820154166121465782511561210a57600201918051926001600160401b038411610d5357611fb08154612b47565b601f81116120c2575b50602093601f811160011461203857908161202893927fbf478fda32150efbea16148df9d2dc95245fe55fe761f2bd87b66ce55637b2af959660009161202d575b508160011b916000199060031b1c19161790555b604051918291338352604060208401526040830190612ad4565b0390a2005b905083015187611ffa565b601f19811682600052856000209060005b8181106120aa5750916001917fbf478fda32150efbea16148df9d2dc95245fe55fe761f2bd87b66ce55637b2af96978261202897969510612091575b5050811b01905561200e565b85015160001960f88460031b161c191690558780612085565b85880151835560209788019760019093019201612049565b816000526020600020601f860160051c81019160208710612100575b601f0160051c01905b8181106120f45750611fb9565b600081556001016120e7565b90915081906120de565b60405162461bcd60e51b8152602060048201526014602482015273115b5c1d1e481cdd589b5a5cdcda5bdb8815549360621b6044820152606490fd5b60405162461bcd60e51b8152602060048201526011602482015270105b1c9958591e481cdd589b5a5d1d1959607a1b6044820152606490fd5b34610169576000366003190112610169576002546040516001600160a01b039091168152602090f35b34610169576040366003190112610169576121c1612abe565b600435600052600960205260406000209060018060a01b031660005260205260408060002060ff600181600484015416920154168251911515825215156020820152f35b610120366003190112610169576004356001600160401b03811161016957612231903690600401612a68565b6024356001600160401b03811161016957612250903690600401612a68565b6044356001600160401b0381116101695761226f903690600401612a68565b91606435926084359060a43560c4359160e43593600761010435101561016957428811156129e757878111156129985782156129535783156129035784156128be578484028481048603611c8957341061287957602497600754976122d389612d13565b600755600654604051631ce87ebb60e01b81529a6020918c919082906001600160a01b03166123086004830161010435612d06565b5afa998a15610dd55760009a612845575b506040519761020089018981106001600160401b03821117610d535760405289895260208901526040880152336060880152608087015260a086015260c085015260e0840152610100830152610120820152600061014082015234610160820152600061018082015260006101a0820152600092610104356101c08301526101e0820152818352600860205260408320908051825560208101518051906001600160401b03821161269f5781906123d36001860154612b47565b601f81116127f5575b50602090601f831160011461278757879261277c575b50508160011b916000199060031b1c19161760018301555b60408101518051906001600160401b03821161269f57819061242f6002860154612b47565b601f811161272c575b50602090601f83116001146126be5787926126b3575b50508160011b916000199060031b1c19161760028301555b60608101516003830180546001600160a01b0319166001600160a01b03929092169190911790556080810151600483015560a0810151600583015560c08101518051906001600160401b03821161269f5781906124c66006860154612b47565b601f811161264f575b50602090601f83116001146125e65787926125db575b50508160011b916000199060031b1c19161760068301555b60e0810151600783015561010081015160088301556101208101516009830155610140810151600a830155610160810151600b830155610180810151600c830155600d820161255f6101a08301511515829060ff801983541691151516179055565b6101c082015160078110156125c757916101e091600e9361ff0082549160081b169061ff00191617905501519101557f4406e0fd454e0f528174e628e0716cd1972c77f1fffd2faa8d73f468957ff391604051806125c1610104353383612d22565b0390a280f35b634e487b7160e01b86526021600452602486fd5b0151905086806124e5565b6006860188528188209250601f198416885b818110612637575090846001959493921061261e575b505050811b0160068301556124fd565b015160001960f88460031b161c1916905586808061260e565b929360206001819287860151815501950193016125f8565b90915060068501875260208720601f840160051c810160208510612698575b90849392915b601f830160051c8201811061268a5750506124cf565b898155859450600101612674565b508061266e565b634e487b7160e01b86526041600452602486fd5b01519050868061244e565b92506002850187528087209087935b601f1984168510612711576001945083601f198116106126f8575b505050811b016002830155612466565b015160001960f88460031b161c191690558680806126e8565b818101518355602094850194600190930192909101906126cd565b90915060028501875260208720601f840160051c810160208510612775575b90849392915b601f830160051c82018110612767575050612438565b898155859450600101612751565b508061274b565b0151905086806123f2565b92506001850187528087209087935b601f19841685106127da576001945083601f198116106127c1575b505050811b01600183015561240a565b015160001960f88460031b161c191690558680806127b1565b81810151835560209485019460019093019290910190612796565b90915060018501875260208720601f840160051c81016020851061283e575b90849392915b601f830160051c820181106128305750506123dc565b89815585945060010161281a565b5080612814565b9099506020813d602011612871575b8161286160209383612a47565b810103126101695751988a612319565b3d9150612854565b60405162461bcd60e51b815260206004820152601860248201527f496e73756666696369656e742072657761726420706f6f6c00000000000000006044820152606490fd5b60405162461bcd60e51b815260206004820152601c60248201527f4d6178206d656d62657273206d75737420626520706f736974697665000000006044820152606490fd5b60405162461bcd60e51b815260206004820152602260248201527f52657761726420706572206d656d626572206d75737420626520706f73697469604482015261766560f01b6064820152608490fd5b60405162461bcd60e51b815260206004820152601f60248201527f4d656d626572206465706f736974206d75737420626520706f736974697665006044820152606490fd5b60405162461bcd60e51b815260206004820152602160248201527f456e642074696d65206d7573742062652061667465722073746172742074696d6044820152606560f81b6064820152608490fd5b60405162461bcd60e51b815260206004820152601c60248201527f53746172742074696d65206d75737420626520696e20667574757265000000006044820152606490fd5b606081019081106001600160401b03821117610d5357604052565b90601f801991011681019081106001600160401b03821117610d5357604052565b81601f82011215610169578035906001600160401b038211610d535760405192612a9c601f8401601f191660200185612a47565b8284526020838301011161016957816000926020809301838601378301015290565b602435906001600160a01b038216820361016957565b919082519283825260005b848110612b00575050826000602080949584010152601f8019910116010190565b80602080928401015182828601015201612adf565b8054821015612b31576000526003602060002091020190600090565b634e487b7160e01b600052603260045260246000fd5b90600182811c92168015612b77575b6020831014612b6157565b634e487b7160e01b600052602260045260246000fd5b91607f1691612b56565b9060405191826000825492612b9584612b47565b8084529360018116908115612c035750600114612bbc575b50612bba92500383612a47565b565b90506000929192526020600020906000915b818310612be7575050906020612bba9282010138612bad565b6020919350806001915483858901015201910190918492612bce565b905060209250612bba94915060ff191682840152151560051b82010138612bad565b90608060031983011261016957600435916024356001600160a01b0381168103610169579160443591606435906001600160401b03821161016957612c6c91600401612a68565b90565b606090600319011261016957600435906024356001600160a01b038116810361016957906044356001600160a01b03811681036101695790565b6040906003190112610169576004359060243590565b8054821015612b315760005260206000200190600090565b6007811015612cf0576000526001602052604060002090565b634e487b7160e01b600052602160045260246000fd5b906007821015612cf05752565b6000198114611c895760010190565b6001600160a01b039091168152604081019291612bba9160200190612d06565b15612d4957565b60405162461bcd60e51b815260206004820152601360248201527210dbdb5b5d5b9a5d1e481a5cc818db1bdcd959606a1b6044820152606490fd5b15612d8b57565b60405162461bcd60e51b815260206004820152600c60248201526b2737ba10309036b2b6b132b960a11b6044820152606490fd5b15612dc657565b60405162461bcd60e51b815260206004820152600e60248201526d105b1c9958591e4818db1bdcd95960921b6044820152606490fd5b15612e0357565b60405162461bcd60e51b815260206004820152600d60248201526c105b1c9958591e481d9bdd1959609a1b6044820152606490fd5b90816020910312610169575180151581036101695790565b15612e5757565b60405162461bcd60e51b815260206004820152601f60248201527f53636f7265206d757374206265206265747765656e203020616e6420313030006044820152606490fd5b91908201809211611c8957565b8115612eb3570490565b634e487b7160e01b600052601260045260246000fd5b91908203918211611c8957565b8054600160401b811015610d5357612ef391600182018155612cbf565b81546001600160a01b0393841660039290921b91821b9390911b1916919091179055565b80600052600860205260406000209080600052600a602052604060002054801561300557600b830191612f52600c8454950194855490612e9c565b8015612ffe5782612f6291612ea9565b9060005b838110612f7a575050505090600080925555565b81600052600a60205282612f92826040600020612cbf565b9054600085815260096020908152604080832060039590951b9390931c6001600160a01b0316808352939052206001015460081c60ff1615612fd9575b5050600101612f66565b60008080938193828215612ff5575bf115610dd5578238612fcf565b506108fc612fe8565b5050505050565b50505056fea26469706673582212209d4a613172211be6c001045ae1b6ccdf777d033c73031624d4890d118e7a440f64736f6c634300081c0033",
  "linkReferences": {},
  "deployedLinkReferences": {}
}