{
  "_format": "hh-sol-artifact-1",
  "contractName": "GoalOrientedCommunity",
  "sourceName": "contracts/community.sol",
  "abi": [
    {
      "inputs": [
        {
          "internalType": "address",
          "name": "_senateAddress",
          "type": "address"
        },
        {
          "internalType": "address",
          "name": "_tokenAddress",
          "type": "address"
        }
      ],
      "stateMutability": "nonpayable",
      "type": "constructor"
    },
    {
      "anonymous": false,
      "inputs": [
        {
          "indexed": true,
          "internalType": "uint256",
          "name": "id",
          "type": "uint256"
        },
        {
          "indexed": true,
          "internalType": "address",
          "name": "member",
          "type": "address"
        },
        {
          "indexed": false,
          "internalType": "bool",
          "name": "vote",
          "type": "bool"
        }
      ],
      "name": "CloseVoteSubmitted",
      "type": "event"
    },
    {
      "anonymous": false,
      "inputs": [
        {
          "indexed": true,
          "internalType": "uint256",
          "name": "id",
          "type": "uint256"
        }
      ],
      "name": "CommunityClosed",
      "type": "event"
    },
    {
      "anonymous": false,
      "inputs": [
        {
          "indexed": true,
          "internalType": "uint256",
          "name": "id",
          "type": "uint256"
        },
        {
          "indexed": false,
          "internalType": "address",
          "name": "creator",
          "type": "address"
        },
        {
          "indexed": false,
          "internalType": "enum CommunityTypes.Category",
          "name": "category",
          "type": "uint8"
        }
      ],
      "name": "CommunityCreated",
      "type": "event"
    },
    {
      "anonymous": false,
      "inputs": [
        {
          "indexed": true,
          "internalType": "uint256",
          "name": "communityId",
          "type": "uint256"
        },
        {
          "indexed": false,
          "internalType": "string",
          "name": "publicKey",
          "type": "string"
        }
      ],
      "name": "CommunityKeysGenerated",
      "type": "event"
    },
    {
      "anonymous": false,
      "inputs": [
        {
          "indexed": true,
          "internalType": "uint256",
          "name": "id",
          "type": "uint256"
        },
        {
          "indexed": false,
          "internalType": "address",
          "name": "member",
          "type": "address"
        }
      ],
      "name": "GoalApproved",
      "type": "event"
    },
    {
      "anonymous": false,
      "inputs": [
        {
          "indexed": true,
          "internalType": "uint256",
          "name": "id",
          "type": "uint256"
        },
        {
          "indexed": false,
          "internalType": "address",
          "name": "member",
          "type": "address"
        }
      ],
      "name": "MemberJoined",
      "type": "event"
    },
    {
      "anonymous": false,
      "inputs": [
        {
          "indexed": true,
          "internalType": "uint256",
          "name": "communityId",
          "type": "uint256"
        },
        {
          "indexed": true,
          "internalType": "address",
          "name": "accessor",
          "type": "address"
        },
        {
          "indexed": false,
          "internalType": "bool",
          "name": "isSenator",
          "type": "bool"
        }
      ],
      "name": "PrivateKeyEncrypted",
      "type": "event"
    },
    {
      "anonymous": false,
      "inputs": [
        {
          "indexed": true,
          "internalType": "uint256",
          "name": "id",
          "type": "uint256"
        },
        {
          "indexed": true,
          "internalType": "address",
          "name": "reviewer",
          "type": "address"
        }
      ],
      "name": "ReviewerAdded",
      "type": "event"
    },
    {
      "anonymous": false,
      "inputs": [
        {
          "indexed": true,
          "internalType": "uint256",
          "name": "id",
          "type": "uint256"
        },
        {
          "indexed": true,
          "internalType": "address",
          "name": "reviewer",
          "type": "address"
        },
        {
          "indexed": true,
          "internalType": "address",
          "name": "member",
          "type": "address"
        },
        {
          "indexed": false,
          "internalType": "bool",
          "name": "approved",
          "type": "bool"
        }
      ],
      "name": "ReviewerApproval",
      "type": "event"
    },
    {
      "anonymous": false,
      "inputs": [
        {
          "indexed": true,
          "internalType": "uint256",
          "name": "id",
          "type": "uint256"
        },
        {
          "indexed": false,
          "internalType": "address",
          "name": "member",
          "type": "address"
        },
        {
          "indexed": false,
          "internalType": "uint256",
          "name": "amount",
          "type": "uint256"
        }
      ],
      "name": "RewardClaimed",
      "type": "event"
    },
    {
      "anonymous": false,
      "inputs": [
        {
          "indexed": true,
          "internalType": "uint256",
          "name": "id",
          "type": "uint256"
        },
        {
          "indexed": true,
          "internalType": "address",
          "name": "member",
          "type": "address"
        },
        {
          "indexed": true,
          "internalType": "address",
          "name": "senator",
          "type": "address"
        },
        {
          "indexed": false,
          "internalType": "uint256",
          "name": "score",
          "type": "uint256"
        }
      ],
      "name": "ScoreSubmitted",
      "type": "event"
    },
    {
      "anonymous": false,
      "inputs": [
        {
          "indexed": true,
          "internalType": "uint256",
          "name": "id",
          "type": "uint256"
        },
        {
          "indexed": false,
          "internalType": "address",
          "name": "member",
          "type": "address"
        },
        {
          "indexed": false,
          "internalType": "string",
          "name": "submissionUrl",
          "type": "string"
        }
      ],
      "name": "SubmissionUploaded",
      "type": "event"
    },
    {
      "inputs": [],
      "name": "STAKE_AMOUNT",
      "outputs": [
        {
          "internalType": "uint256",
          "name": "",
          "type": "uint256"
        }
      ],
      "stateMutability": "view",
      "type": "function"
    },
    {
      "inputs": [
        {
          "internalType": "enum CommunityTypes.Category",
          "name": "",
          "type": "uint8"
        }
      ],
      "name": "categoryExists",
      "outputs": [
        {
          "internalType": "bool",
          "name": "",
          "type": "bool"
        }
      ],
      "stateMutability": "view",
      "type": "function"
    },
    {
      "inputs": [
        {
          "internalType": "uint256",
          "name": "",
          "type": "uint256"
        }
      ],
      "name": "categoryNames",
      "outputs": [
        {
          "internalType": "string",
          "name": "",
          "type": "string"
        }
      ],
      "stateMutability": "view",
      "type": "function"
    },
    {
      "inputs": [
        {
          "internalType": "uint256",
          "name": "_communityId",
          "type": "uint256"
        }
      ],
      "name": "claimReward",
      "outputs": [],
      "stateMutability": "nonpayable",
      "type": "function"
    },
    {
      "inputs": [
        {
          "internalType": "uint256",
          "name": "_communityId",
          "type": "uint256"
        }
      ],
      "name": "closeCommunityByAuthor",
      "outputs": [],
      "stateMutability": "nonpayable",
      "type": "function"
    },
    {
      "inputs": [
        {
          "internalType": "uint256",
          "name": "",
          "type": "uint256"
        }
      ],
      "name": "communities",
      "outputs": [
        {
          "internalType": "uint256",
          "name": "id",
          "type": "uint256"
        },
        {
          "internalType": "string",
          "name": "name",
          "type": "string"
        },
        {
          "internalType": "string",
          "name": "description",
          "type": "string"
        },
        {
          "internalType": "address",
          "name": "creator",
          "type": "address"
        },
        {
          "internalType": "uint256",
          "name": "startTime",
          "type": "uint256"
        },
        {
          "internalType": "uint256",
          "name": "endTime",
          "type": "uint256"
        },
        {
          "internalType": "string",
          "name": "targetGoal",
          "type": "string"
        },
        {
          "internalType": "uint256",
          "name": "memberDeposit",
          "type": "uint256"
        },
        {
          "internalType": "uint256",
          "name": "rewardPerMember",
          "type": "uint256"
        },
        {
          "internalType": "uint256",
          "name": "maxMembers",
          "type": "uint256"
        },
        {
          "internalType": "uint256",
          "name": "totalMembers",
          "type": "uint256"
        },
        {
          "internalType": "uint256",
          "name": "rewardPool",
          "type": "uint256"
        },
        {
          "internalType": "uint256",
          "name": "depositPool",
          "type": "uint256"
        },
        {
          "internalType": "bool",
          "name": "isClosed",
          "type": "bool"
        },
        {
          "internalType": "enum CommunityTypes.Category",
          "name": "category",
          "type": "uint8"
        },
        {
          "internalType": "uint256",
          "name": "passingScore",
          "type": "uint256"
        }
      ],
      "stateMutability": "view",
      "type": "function"
    },
    {
      "inputs": [],
      "name": "communityCount",
      "outputs": [
        {
          "internalType": "uint256",
          "name": "",
          "type": "uint256"
        }
      ],
      "stateMutability": "view",
      "type": "function"
    },
    {
      "inputs": [
        {
          "internalType": "uint256",
          "name": "",
          "type": "uint256"
        }
      ],
      "name": "communityEncryptionKey",
      "outputs": [
        {
          "internalType": "string",
          "name": "",
          "type": "string"
        }
      ],
      "stateMutability": "view",
      "type": "function"
    },
    {
      "inputs": [],
      "name": "communityToken",
      "outputs": [
        {
          "internalType": "contract IERC20",
          "name": "",
          "type": "address"
        }
      ],
      "stateMutability": "view",
      "type": "function"
    },
    {
      "inputs": [
        {
          "internalType": "string",
          "name": "_name",
          "type": "string"
        },
        {
          "internalType": "string",
          "name": "_description",
          "type": "string"
        },
        {
          "internalType": "string",
          "name": "_targetGoal",
          "type": "string"
        },
        {
          "internalType": "uint256",
          "name": "_startTime",
          "type": "uint256"
        },
        {
          "internalType": "uint256",
          "name": "_endTime",
          "type": "uint256"
        },
        {
          "internalType": "uint256",
          "name": "_memberDeposit",
          "type": "uint256"
        },
        {
          "internalType": "uint256",
          "name": "_rewardPerMember",
          "type": "uint256"
        },
        {
          "internalType": "uint256",
          "name": "_maxMembers",
          "type": "uint256"
        },
        {
          "internalType": "enum CommunityTypes.Category",
          "name": "_category",
          "type": "uint8"
        }
      ],
      "name": "createCommunity",
      "outputs": [],
      "stateMutability": "payable",
      "type": "function"
    },
    {
      "inputs": [
        {
          "internalType": "uint256",
          "name": "",
          "type": "uint256"
        },
        {
          "internalType": "address",
          "name": "",
          "type": "address"
        }
      ],
      "name": "encryptedDecryptionKeys",
      "outputs": [
        {
          "internalType": "string",
          "name": "",
          "type": "string"
        }
      ],
      "stateMutability": "view",
      "type": "function"
    },
    {
      "inputs": [
        {
          "internalType": "uint256",
          "name": "",
          "type": "uint256"
        }
      ],
      "name": "encryptedKeysCount",
      "outputs": [
        {
          "internalType": "uint256",
          "name": "",
          "type": "uint256"
        }
      ],
      "stateMutability": "view",
      "type": "function"
    },
    {
      "inputs": [
        {
          "internalType": "enum CommunityTypes.Category",
          "name": "_category",
          "type": "uint8"
        }
      ],
      "name": "getCategoryName",
      "outputs": [
        {
          "internalType": "string",
          "name": "",
          "type": "string"
        }
      ],
      "stateMutability": "view",
      "type": "function"
    },
    {
      "inputs": [
        {
          "internalType": "uint256",
          "name": "communityId",
          "type": "uint256"
        }
      ],
      "name": "getMemberCount",
      "outputs": [
        {
          "internalType": "uint256",
          "name": "",
          "type": "uint256"
        }
      ],
      "stateMutability": "view",
      "type": "function"
    },
    {
      "inputs": [
        {
          "internalType": "uint256",
          "name": "_communityId",
          "type": "uint256"
        },
        {
          "internalType": "address",
          "name": "_member",
          "type": "address"
        }
      ],
      "name": "getMemberStatus",
      "outputs": [
        {
          "internalType": "bool",
          "name": "isScored",
          "type": "bool"
        },
        {
          "internalType": "bool",
          "name": "isApproved",
          "type": "bool"
        }
      ],
      "stateMutability": "view",
      "type": "function"
    },
    {
      "inputs": [
        {
          "internalType": "uint256",
          "name": "_communityId",
          "type": "uint256"
        },
        {
          "internalType": "address",
          "name": "_member",
          "type": "address"
        }
      ],
      "name": "getScores",
      "outputs": [
        {
          "components": [
            {
              "internalType": "address",
              "name": "senator",
              "type": "address"
            },
            {
              "internalType": "uint256",
              "name": "score",
              "type": "uint256"
            },
            {
              "internalType": "string",
              "name": "comment",
              "type": "string"
            }
          ],
          "internalType": "struct GoalOrientedCommunity.Score[]",
          "name": "",
          "type": "tuple[]"
        }
      ],
      "stateMutability": "view",
      "type": "function"
    },
    {
      "inputs": [
        {
          "internalType": "uint256",
          "name": "",
          "type": "uint256"
        }
      ],
      "name": "hasGeneratedKeys",
      "outputs": [
        {
          "internalType": "bool",
          "name": "",
          "type": "bool"
        }
      ],
      "stateMutability": "view",
      "type": "function"
    },
    {
      "inputs": [
        {
          "internalType": "uint256",
          "name": "",
          "type": "uint256"
        },
        {
          "internalType": "address",
          "name": "",
          "type": "address"
        },
        {
          "internalType": "address",
          "name": "",
          "type": "address"
        }
      ],
      "name": "hasReviewerVoted",
      "outputs": [
        {
          "internalType": "bool",
          "name": "",
          "type": "bool"
        }
      ],
      "stateMutability": "view",
      "type": "function"
    },
    {
      "inputs": [
        {
          "internalType": "uint256",
          "name": "",
          "type": "uint256"
        },
        {
          "internalType": "address",
          "name": "",
          "type": "address"
        },
        {
          "internalType": "address",
          "name": "",
          "type": "address"
        }
      ],
      "name": "hasSenatorScored",
      "outputs": [
        {
          "internalType": "bool",
          "name": "",
          "type": "bool"
        }
      ],
      "stateMutability": "view",
      "type": "function"
    },
    {
      "inputs": [
        {
          "internalType": "uint256",
          "name": "_communityId",
          "type": "uint256"
        }
      ],
      "name": "joinCommunity",
      "outputs": [],
      "stateMutability": "payable",
      "type": "function"
    },
    {
      "inputs": [
        {
          "internalType": "uint256",
          "name": "",
          "type": "uint256"
        },
        {
          "internalType": "uint256",
          "name": "",
          "type": "uint256"
        }
      ],
      "name": "memberAddresses",
      "outputs": [
        {
          "internalType": "address",
          "name": "",
          "type": "address"
        }
      ],
      "stateMutability": "view",
      "type": "function"
    },
    {
      "inputs": [
        {
          "internalType": "uint256",
          "name": "",
          "type": "uint256"
        },
        {
          "internalType": "address",
          "name": "",
          "type": "address"
        },
        {
          "internalType": "uint256",
          "name": "",
          "type": "uint256"
        }
      ],
      "name": "memberScores",
      "outputs": [
        {
          "internalType": "address",
          "name": "senator",
          "type": "address"
        },
        {
          "internalType": "uint256",
          "name": "score",
          "type": "uint256"
        },
        {
          "internalType": "string",
          "name": "comment",
          "type": "string"
        }
      ],
      "stateMutability": "view",
      "type": "function"
    },
    {
      "inputs": [
        {
          "internalType": "uint256",
          "name": "",
          "type": "uint256"
        },
        {
          "internalType": "address",
          "name": "",
          "type": "address"
        }
      ],
      "name": "members",
      "outputs": [
        {
          "internalType": "uint256",
          "name": "joinTime",
          "type": "uint256"
        },
        {
          "internalType": "bool",
          "name": "isApproved",
          "type": "bool"
        },
        {
          "internalType": "bool",
          "name": "hasClaimed",
          "type": "bool"
        },
        {
          "internalType": "string",
          "name": "submissionUrl",
          "type": "string"
        },
        {
          "internalType": "uint256",
          "name": "finalScore",
          "type": "uint256"
        },
        {
          "internalType": "bool",
          "name": "isScored",
          "type": "bool"
        },
        {
          "internalType": "bool",
          "name": "isReviewer",
          "type": "bool"
        },
        {
          "internalType": "bool",
          "name": "hasVotedForClose",
          "type": "bool"
        },
        {
          "internalType": "bool",
          "name": "closeVote",
          "type": "bool"
        },
        {
          "internalType": "uint256",
          "name": "totalReviewerScores",
          "type": "uint256"
        },
        {
          "internalType": "uint256",
          "name": "reviewerCount",
          "type": "uint256"
        }
      ],
      "stateMutability": "view",
      "type": "function"
    },
    {
      "inputs": [
        {
          "internalType": "uint256",
          "name": "_communityId",
          "type": "uint256"
        }
      ],
      "name": "proposeCloseCommunity",
      "outputs": [],
      "stateMutability": "nonpayable",
      "type": "function"
    },
    {
      "inputs": [
        {
          "internalType": "uint256",
          "name": "",
          "type": "uint256"
        },
        {
          "internalType": "address",
          "name": "",
          "type": "address"
        },
        {
          "internalType": "address",
          "name": "",
          "type": "address"
        }
      ],
      "name": "reviewerApprovals",
      "outputs": [
        {
          "internalType": "bool",
          "name": "",
          "type": "bool"
        }
      ],
      "stateMutability": "view",
      "type": "function"
    },
    {
      "inputs": [
        {
          "internalType": "uint256",
          "name": "_communityId",
          "type": "uint256"
        },
        {
          "internalType": "address",
          "name": "_member",
          "type": "address"
        },
        {
          "internalType": "uint256",
          "name": "_score",
          "type": "uint256"
        },
        {
          "internalType": "string",
          "name": "_comment",
          "type": "string"
        }
      ],
      "name": "reviewerScore",
      "outputs": [],
      "stateMutability": "nonpayable",
      "type": "function"
    },
    {
      "inputs": [
        {
          "internalType": "uint256",
          "name": "",
          "type": "uint256"
        },
        {
          "internalType": "uint256",
          "name": "",
          "type": "uint256"
        }
      ],
      "name": "reviewers",
      "outputs": [
        {
          "internalType": "address",
          "name": "",
          "type": "address"
        }
      ],
      "stateMutability": "view",
      "type": "function"
    },
    {
      "inputs": [
        {
          "internalType": "uint256",
          "name": "_communityId",
          "type": "uint256"
        },
        {
          "internalType": "address",
          "name": "_member",
          "type": "address"
        },
        {
          "internalType": "uint256",
          "name": "_score",
          "type": "uint256"
        },
        {
          "internalType": "string",
          "name": "_comment",
          "type": "string"
        }
      ],
      "name": "senateAuditScore",
      "outputs": [],
      "stateMutability": "nonpayable",
      "type": "function"
    },
    {
      "inputs": [],
      "name": "senateContract",
      "outputs": [
        {
          "internalType": "contract Senate",
          "name": "",
          "type": "address"
        }
      ],
      "stateMutability": "view",
      "type": "function"
    },
    {
      "inputs": [
        {
          "internalType": "uint256",
          "name": "_communityId",
          "type": "uint256"
        },
        {
          "internalType": "string",
          "name": "_encryptionKey",
          "type": "string"
        }
      ],
      "name": "setCommunityKeys",
      "outputs": [],
      "stateMutability": "nonpayable",
      "type": "function"
    },
    {
      "inputs": [
        {
          "internalType": "uint256",
          "name": "_communityId",
          "type": "uint256"
        },
        {
          "internalType": "address",
          "name": "_accessor",
          "type": "address"
        },
        {
          "internalType": "string",
          "name": "_encryptedKey",
          "type": "string"
        },
        {
          "internalType": "bool",
          "name": "_isSenator",
          "type": "bool"
        }
      ],
      "name": "setEncryptedDecryptionKey",
      "outputs": [],
      "stateMutability": "nonpayable",
      "type": "function"
    },
    {
      "inputs": [
        {
          "internalType": "uint256",
          "name": "_communityId",
          "type": "uint256"
        },
        {
          "internalType": "string",
          "name": "_submissionUrl",
          "type": "string"
        }
      ],
      "name": "submitCompletion",
      "outputs": [],
      "stateMutability": "nonpayable",
      "type": "function"
    },
    {
      "inputs": [
        {
          "internalType": "uint256",
          "name": "_communityId",
          "type": "uint256"
        },
        {
          "internalType": "bool",
          "name": "_vote",
          "type": "bool"
        }
      ],
      "name": "voteForClose",
      "outputs": [],
      "stateMutability": "nonpayable",
      "type": "function"
    }
  ],
  "bytecode": "0x60803461038957601f613ce738819003918201601f19168301916001600160401b0383118484101761038e57808492604094855283398101031261038957610052602061004b836103a4565b92016103a4565b9060016000526000602052604060002061007561006f82546103b8565b826103f2565b600a644d7573696360d81b019055600260009081526020527fabbb5caa7dda850e60932de0934eb1f9d0f59695050f761dc64e443e5030a56980546100b9906103b8565b601f811161035c575b50600662105c9d60ea1b019055600360009081526020527f101e368776582e57ab3d116ffe2517c0a585cd5b23174b01e275c2d8329c3d838054610105906103b8565b601f811161032f575b50600c6553706f72747360d01b019055600460009081526020527f52d75039926638d3c558b2bdefb945d5be8dae29dedd1c313212a4d472d9fde58054610154906103b8565b601f8111610302575b507f456475636174696f6e00000000000000000000000000000000000000000000129055600560009081526020527f2b232c97452f0950c94e2539fdc7e69d21166113cf7a9bcb99b220a3fe5d720a80546101b7906103b8565b601f81116102d5575b507f546563686e6f6c6f6779000000000000000000000000000000000000000000149055600660009081526020527f62103cf3131c85df57aad364d21cba02556d3092d6cb54c298c2e7726a7870bd805461021e9061006f906103b8565b600a6427ba3432b960d91b01905560005b60068111156102775750600680546001600160a01b039283166001600160a01b031991821617909155600280549390921692169190911790556040516138be90816104298239f35b60078110156102bf5760406000828152600160205220600160ff1982541617905560001981146102a95760010161022f565b634e487b7160e01b600052601160045260246000fd5b634e487b7160e01b600052602160045260246000fd5b81600052601f6020600020910160051c8101905b8181106102f657506101c0565b600081556001016102e9565b81600052601f6020600020910160051c8101905b818110610323575061015d565b60008155600101610316565b81600052601f6020600020910160051c8101905b818110610350575061010e565b60008155600101610343565b81600052601f6020600020910160051c8101905b81811061037d57506100c2565b60008155600101610370565b600080fd5b634e487b7160e01b600052604160045260246000fd5b51906001600160a01b038216820361038957565b90600182811c921680156103e8575b60208310146103d257565b634e487b7160e01b600052602260045260246000fd5b91607f16916103c7565b601f82116103fe575050565b600052601f6020600020910160051c8101905b81811061041c575050565b6000815560010161041156fe6080604052600436101561001257600080fd5b60003560e01c80630427bdf11461324f5780631214ee66146132235780631fa4a560146129fc57806326e98b8b1461299f57806329aa1617146129765780632ae2b664146126cd5780632c90365b146124645780632c9342de146122435780633f0db812146121fb5780633f9a61e01461216f57806344d02881146120de5780635130084a14611c2057806355e6a6db146117c05780635ce9284f146117945780635d85fa181461176b578063676eeee514611717578063784940c5146116d35780637a37128c146116a257806387a6280f1461155657806388c52d7c146115025780638fd0f3b4146114d1578063ae169a5014611210578063aee84613146111f2578063b122a0ef14610be6578063b51bcc0e14610bb0578063b7800e5314610b66578063bb1895c814610a85578063d42f02d1146106a6578063e590b56a1461056f578063ed571f06146104c4578063f2509ad514610204578063fa95cefb146101b05763faf5625f1461018757600080fd5b346101ab5760003660031901126101ab57602060405168056bc75e2d631000008152f35b600080fd5b346101ab576101be366134ed565b91600052600c60205260406000209060018060a01b031660005260205260406000209060018060a01b0316600052602052602060ff604060002054166040519015158152f35b346101ab5761021236613442565b9080600052600f60205260ff6040600020541661048657806000526003602052600a60406000205403610441578151156104035780600052600d6020526040600020918051926001600160401b0384116103ed57610270815461327b565b601f81116103a5575b50602093601f811160011461031b57908161030b93927f32b370f63ccf548a39c29203a38e84019ca7eb3569c71f02aa810aca1c02b7129596600091610310575b508160011b916000199060031b1c19161790555b83600052600f6020526040600020600160ff1982541617905583600052601060205260006040812055604051918291602083526020830190613395565b0390a2005b9050830151876102ba565b601f19811682600052856000209060005b81811061038d5750916001917f32b370f63ccf548a39c29203a38e84019ca7eb3569c71f02aa810aca1c02b71296978261030b97969510610374575b5050811b0190556102ce565b85015160001960f88460031b161c191690558780610368565b8588015183556020978801976001909301920161032c565b816000526020600020601f860160051c810191602087106103e3575b601f0160051c01905b8181106103d75750610279565b600081556001016103ca565b90915081906103c1565b634e487b7160e01b600052604160045260246000fd5b60405162461bcd60e51b8152602060048201526016602482015275496e76616c696420656e6372797074696f6e206b657960501b6044820152606490fd5b60405162461bcd60e51b815260206004820152601760248201527f4e656564203130207265766965776572732066697273740000000000000000006044820152606490fd5b60405162461bcd60e51b815260206004820152601660248201527512d95e5cc8185b1c9958591e4819d95b995c985d195960521b6044820152606490fd5b346101ab5760203660031901126101ab57600435600081815260086020526040902060038101546001600160a01b0316330361053c57600d016001815461050e60ff82161561363d565b60ff19161790557fe68f10f94ca2685d65a39a1841c1e1e00e8df8b2fa15dd0562e32c33af49fe17600080a2005b60405162461bcd60e51b815260206004820152600b60248201526a2737ba1031b932b0ba37b960a91b6044820152606490fd5b346101ab5760203660031901126101ab576004356000526008602052604060002080546001820161059f906132f1565b906105ac600284016132f1565b60038401546004850154600586015492956001600160a01b03909216926105d5600684016132f1565b946007840154956008850154600986015491600a87015493600b88015495600c89015497600d8a015499600e01549a6040519e8f9e8f958652602086016102009052610200860161062591613395565b858103604087015261063691613395565b936060015260808d015260a08c01528a810360c08c015261065691613395565b9760e08a015261010089015261012088015261014087015261016086015261018085015260ff811615156101a08501526101c084019060081c60ff169061069c91613584565b6101e08301520390f35b346101ab576106b4366134a6565b506000838152600860209081526040808320600983528184203385529092528083206001600160a01b03861684529220600d82015493959194919390929060ff16610a4d576004015460081c60ff1615610a1757610715600283015461327b565b156109dc57600482019360ff8554166109a457600e9061073860648811156136ce565b60008581526005602090815260408083206001600160a01b038716845282528083203384529091529020546107709060ff161561367a565b01805460008581526004602090815260408083206001600160a01b038716845282528083203384529091529020805460ff19169188101560ff169190911790559260008181526005602081815260408084206001600160a01b03871685528252808420338552909152909120805460ff19166001179055830180549093906107f990889061371a565b809455600681019661080b8854613591565b8098558554111560405190815260018060a01b03841690837fb0ad8b9f0729f50b6025f5db451debbc7da11dd3f0b6a4ecb8d8919609026b6260203393a460009360009560005b84600052600360205260406000205481101561094d5784600052600560205260ff6040808060002060009060018060a01b038b168252602052208760005260036020526108a2848360002061353d565b905460039190911b1c6001600160a01b031660009081526020919091522054166108cf575b600101610852565b956108d990613591565b9584600052600460205260ff6040808060002060009060018060a01b038b16825260205220876000526003602052610914848360002061353d565b905460039190911b1c6001600160a01b03166000908152602091909152205416156108c75796610945600191613591565b9790506108c7565b5087868a95600052600360205260406000205460011c111561096b57005b6109a294600193610985928560ff19825416179055613727565b9081600385015554111591019060ff801983541691151516179055565b005b60405162461bcd60e51b815260206004820152601060248201526f105b1c9958591e481c995d9a595dd95960821b6044820152606490fd5b60405162461bcd60e51b8152602060048201526013602482015272139bc81cdd589b5a5cdcda5bdb88199bdd5b99606a1b6044820152606490fd5b60405162461bcd60e51b815260206004820152600e60248201526d2737ba1030903932bb34b2bbb2b960911b6044820152606490fd5b60405162461bcd60e51b815260206004820152601060248201526f10dbdb5b5d5b9a5d1e4818db1bdcd95960821b6044820152606490fd5b346101ab5760403660031901126101ab576040610aa061342c565b60043560005260096020528160002060009160018060a01b03168252602052208054600182015491610ad4600282016132f1565b60038201549160ff6004820154610b20600660058501549401549483604051998a998a52818116151560208b015260081c16151560408901526101606060890152610160880190613395565b946080870152818116151560a0870152818160081c16151560c0870152818160101c16151560e087015260181c1615156101008501526101208401526101408301520390f35b346101ab57610b7436613527565b90600052600a602052604060002080548210156101ab57602091610b979161353d565b905460405160039290921b1c6001600160a01b03168152f35b346101ab5760203660031901126101ab5760043560078110156101ab5760ff610bda602092613555565b54166040519015158152f35b60203660031901126101ab57600435806000526008602052604060002090610c1560ff600d84015416156135c0565b600482015442106111b557600582015442101561117e57600a8201546009830154111561114857600782015434036111035760008181526009602090815260408083203384529091529020546110cd576002546040516323b872dd60e01b815233600482015230602482015268056bc75e2d63100000604482015290602090829060649082906000906001600160a01b03165af19081156110c157600091611092575b5015611055576040519161016083018381106001600160401b038211176103ed576040524283526020830190600082526040840160008152602092610d9b60405191610d0486846132d0565b600083526060880192835260006080890152600060a0890152600060c0890152600060e0890152600061010089015260006101208901526000610140890152866000526009865260408060002060009060018060a01b03331682528852209388518555610d846001860192511515839060ff801983541691151516179055565b51815461ff00191690151560081b61ff0016179055565b519485516001600160401b0381116103ed57610dba600284015461327b565b601f811161100c575b5084601f8211600114610f7357600c94939282600693610140937f78da64a590c3052953ad9e0a5546bbf12bb68ae7634e3fb2a774e22a8c6557c19a9b600092610f68575b50508160011b916000199060031b1c19161760028501555b60808101516003850155610e9c60048501610e4d60a08401511515829060ff801983541691151516179055565b60c0830151815461ff00191690151560081b61ff001617815560e0830151815461010085015163ffff00001990911691151560101b62ff0000169190911790151560181b63ff00000016179055565b6101208101516005850155015191015584600052600a8352610ec2336040600020613754565b610ecf600a820154613591565b600a82015501610ee034825461371a565b90558260005260038152600a60406000205410610f01575b604051338152a2005b600083815260098252604080822033808452908452818320600401805461ff001916610100179055858352600384529120610f3c9190613754565b33837f8fcd9f5c27415bf85b1f568fbe33a98aaebd94a2f721378109a4a48142f1e3fb600080a3610ef8565b015190508b80610e08565b60028401600052856000209760005b601f1984168110610ff55750926001837f78da64a590c3052953ad9e0a5546bbf12bb68ae7634e3fb2a774e22a8c6557c1999a61014094600c999897600697601f19811610610fdc575b505050811b016002850155610e20565b015160001960f88460031b161c191690558b8080610fcc565b828201518a55600190990198918701918701610f82565b6002840160005285600020601f830160051c81019187841061104b575b601f0160051c01905b81811061103f5750610dc3565b60008155600101611032565b9091508190611029565b60405162461bcd60e51b8152602060048201526015602482015274151bdad95b881d1c985b9cd9995c8819985a5b1959605a1b6044820152606490fd5b6110b4915060203d6020116110ba575b6110ac81836132d0565b8101906136b6565b83610cb8565b503d6110a2565b6040513d6000823e3d90fd5b60405162461bcd60e51b815260206004820152600e60248201526d105b1c9958591e481a9bda5b995960921b6044820152606490fd5b60405162461bcd60e51b815260206004820152601860248201527f496e636f7272656374206465706f73697420616d6f756e7400000000000000006044820152606490fd5b60405162461bcd60e51b815260206004820152600e60248201526d10dbdb5b5d5b9a5d1e48199d5b1b60921b6044820152606490fd5b60405162461bcd60e51b815260206004820152600f60248201526e10dbdb5b5d5b9a5d1e48195b991959608a1b6044820152606490fd5b60405162461bcd60e51b815260206004820152601560248201527410dbdb5b5d5b9a5d1e481b9bdd081cdd185c9d1959605a1b6044820152606490fd5b346101ab5760003660031901126101ab576020600754604051908152f35b346101ab5760203660031901126101ab57600435600081815260086020908152604080832060098352818420338552909252909120600d8201546112579060ff16156135c0565b60ff6004820154161561149957600101805460ff8160081c166114625760ff81161561141d576000848152600b60209081526040808320338085529252822080548392909190835b8381106113a4575050505081611344575b50506101009061ff00191617905560008080806112f9600886015495600b81016112db888254613747565b9055600c600782015491016112f1828254613747565b90558661371a565b81811561133b575b3390f1156110c15760407f24b5efa61dd1cfc659205a97fb8ed868f3cb8c81922bab2b96423e5de1de2cb7918151903382526020820152a2005b506108fc611301565b9061134e91613727565b600e8401541161135f5784806112b0565b60405162461bcd60e51b815260206004820152601960248201527f446964206e6f7420706173732073656e617465206175646974000000000000006044820152606490fd5b89600052600c60205260ff60408080600020600090868252602052206113ca8487613474565b50546001600160a01b031660009081526020919091522054166113f0575b60010161129f565b949361141561140f600192836114068a88613474565b5001549061371a565b95613591565b9590506113e8565b60405162461bcd60e51b815260206004820152601e60248201527f5461736b206e6f7420617070726f7665642062792072657669657765727300006044820152606490fd5b60405162461bcd60e51b815260206004820152600f60248201526e105b1c9958591e4818db185a5b5959608a1b6044820152606490fd5b60405162461bcd60e51b815260206004820152601060248201526f139bdd081c995d9a595dd959081e595d60821b6044820152606490fd5b346101ab576114df36613527565b906000526003602052604060002080548210156101ab57602091610b979161353d565b346101ab57611510366134ed565b91600052600560205260406000209060018060a01b031660005260205260406000209060018060a01b0316600052602052602060ff604060002054166040519015158152f35b346101ab5760403660031901126101ab5761156f61342c565b600435600052600b60205260406000209060018060a01b031660005260205260406000208054906001600160401b0382116103ed57604051916115b860208260051b01846132d0565b80835260208301809260005260206000206000915b83831061165d57848660405191829160208301906020845251809152604083019060408160051b85010192916000905b82821061160c57505050500390f35b9193600191939550602061164d8192603f198a8203018652606060408a51878060a01b03815116845285810151868501520151918160408201520190613395565b96019201920185949391926115fd565b60036020600192604051611670816132b5565b848060a01b038654168152848601548382015261168f600287016132f1565b60408201528152019201920191906115cd565b346101ab5760203660031901126101ab57600435600052600f602052602060ff604060002054166040519015158152f35b346101ab5760203660031901126101ab5760043560005260006020526117136116ff60406000206132f1565b604051918291602083526020830190613395565b0390f35b346101ab57611725366134ed565b91600052600460205260406000209060018060a01b031660005260205260406000209060018060a01b0316600052602052602060ff604060002054166040519015158152f35b346101ab5760003660031901126101ab576006546040516001600160a01b039091168152602090f35b346101ab5760203660031901126101ab57600435600052600a6020526020604060002054604051908152f35b346101ab5760803660031901126101ab576004356117dc61342c565b906044356001600160401b0381116101ab576117fc9036906004016133d6565b9160643592831515938481036101ab5783600052600f60205260ff6040600020541615611be257815115611ba55715611af457611873602060018060a01b0360065416856000526008825260ff600d6040600020015460081c16906040518080958194630eb2f16160e41b835289600484016135a0565b03915afa9081156110c157600091611ad5575b5015611a9a575b82600052600e602052604060002060018060a01b0383166000526020526118b860406000205461327b565b611a63576000838152600e602090815260408083206001600160a01b03861684529091529020815190916001600160401b0382116103ed576118fa835461327b565b601f8111611a1b575b50602090601f831160011461198f579180602094927f6db43700e50037b5cb5c847340cd6a7e0d93ee38e5b64acbccf2788c67a692679694600092611984575b50508160011b916000199060031b1c19161790555b8360005260108252604060002061196f8154613591565b90556040519485526001600160a01b031693a3005b015190508880611943565b90601f1983169184600052816000209260005b818110611a0357509260019285927f6db43700e50037b5cb5c847340cd6a7e0d93ee38e5b64acbccf2788c67a69267989660209896106119ea575b505050811b019055611958565b015160001960f88460031b161c191690558880806119dd565b929360206001819287860151815501950193016119a2565b836000526020600020601f840160051c81019160208510611a59575b601f0160051c01905b818110611a4d5750611903565b60008155600101611a40565b9091508190611a37565b60405162461bcd60e51b815260206004820152600f60248201526e12d95e48185b1c9958591e481cd95d608a1b6044820152606490fd5b60405162461bcd60e51b81526020600482015260136024820152722737ba1030903b30b634b21039b2b730ba37b960691b6044820152606490fd5b611aee915060203d6020116110ba576110ac81836132d0565b85611886565b60009291906001600160a01b038216845b846000526003602052604060002054811015611b9b5784600052600360205281611b3382604060002061353d565b905460039190911b1c6001600160a01b031614611b5257600101611b05565b50509091925060015b61188d5760405162461bcd60e51b81526020600482015260146024820152732737ba1030903b30b634b2103932bb34b2bbb2b960611b6044820152606490fd5b5050909192611b5b565b60405162461bcd60e51b8152602060048201526015602482015274496e76616c696420656e63727970746564206b657960581b6044820152606490fd5b60405162461bcd60e51b815260206004820152601660248201527512d95e5cc81b9bdd0819d95b995c985d1959081e595d60521b6044820152606490fd5b346101ab57611c2e366134a6565b929091611c75602060018060a01b0360065416846000526008825260ff600d6040600020015460081c16906040518080958194630eb2f16160e41b835233600484016135a0565b03915afa9081156110c1576000916120bf575b501561208157611c9b60648411156136ce565b6000828152600c602090815260408083206001600160a01b0385168452825280832033845290915290205460ff1661204b5781600052600960205260408060002060009060018060a01b0384168252602052209260ff600485015416156120065782600052600b60205260408060002060009060018060a01b03851682526020522060405190611d2a826132b5565b3382526020820190838252604083019788528054600160401b8110156103ed57611d5991600182018155613474565b919091611ff057915181546001600160a01b0319166001600160a01b039190911617815590516001820155945180519095600201906001600160401b0381116103ed57611da6825461327b565b601f8111611fa8575b506020601f8211600114611f3e5781906040969798600092611f33575b50508160011b916000199060031b1c19161790555b6000848152600c60209081528482206001600160a01b0385168084529082528583203380855290835292869020805460ff191660011790558551938452919286917f378f514d49e4abb7486bee29952af6519de11cb70a74cd68479f52457b0518f791a482600052600b6020528160002060009160018060a01b03168252602052208054916000906000926000915b858310611ed957505050600383101580918192611ecc575b5015611eaf575060019291611e9c91613727565b600382015501805460ff19166001179055005b915050611eb857005b60006003820155600101805460ff19169055005b90508360011c1085611e88565b909193611eec9060016114068786613474565b936001611ef98285613474565b500154826000526008602052600e604060002001541115611f1f575b6001019190611e70565b92611f2b600191613591565b939050611f15565b015190508880611dcc565b601f1982169783600052816000209860005b818110611f90575091604097989991846001959410611f77575b505050811b019055611de1565b015160001960f88460031b161c19169055888080611f6a565b838301518b556001909a019960209384019301611f50565b826000526020600020601f830160051c81019160208410611fe6575b601f0160051c01905b818110611fda5750611daf565b60008155600101611fcd565b9091508190611fc4565b634e487b7160e01b600052600060045260246000fd5b60405162461bcd60e51b815260206004820152601d60248201527f4e6f7420726576696577656420627920726576696577657273207965740000006044820152606490fd5b60405162461bcd60e51b815260206004820152600e60248201526d105b1c9958591e481cd8dbdc995960921b6044820152606490fd5b60405162461bcd60e51b81526020600482015260166024820152752737ba1030baba3437b934bd32b21039b2b730ba37b960511b6044820152606490fd5b6120d8915060203d6020116110ba576110ac81836132d0565b85611c88565b346101ab5760603660031901126101ab576120f761342c565b60443590600435600052600b60205260406000209060018060a01b031660005260205260406000209081548110156101ab5761213291613474565b5060018060a01b038154166117136121516002600185015494016132f1565b60405193849384526020840152606060408401526060830190613395565b346101ab5760203660031901126101ab5760043560078110156101ab5760ff61219782613555565b5416156121b65760005260006020526117136116ff60406000206132f1565b60405162461bcd60e51b815260206004820152601760248201527f43617465676f727920646f6573206e6f742065786973740000000000000000006044820152606490fd5b346101ab5760403660031901126101ab5761221461342c565b600435600052600e60205260406000209060018060a01b03166000526020526117136116ff60406000206132f1565b346101ab5760403660031901126101ab576004356024358015158082036101ab578260005260086020526122f7604060002092846000526009602052604060002060018060a01b0333166000526020526004600d60406000209501946122ad60ff8754161561363d565b6122b981541515613602565b016201000081546122d060ff8260101c161561367a565b63ff0000001990911663ffff0000199091161791151560181b63ff00000016919091179055565b604051908152827fa953b79a8bda2946b1e815d9e09876df8d499a7d04ace4eccec405ae4a96cf0860203393a3600080805b84600052600a6020526040600020548110156123cc57846000526009602052600460408060002087600052600a602052612366848360002061353d565b905460039190911b1c6001600160a01b03166000908152602091909152200154601081901c60ff1661239c575b50600101612329565b916123a860ff91613591565b9260181c166123b8575b85612393565b916123c4600191613591565b9290506123b2565b508015918215928361241d575b5050506123e257005b805460ff191660011790556123f681613795565b7fe68f10f94ca2685d65a39a1841c1e1e00e8df8b2fa15dd0562e32c33af49fe17600080a2005b9091925060038202918083046003149015171561244e578260011b928304600214171561244e5710158380806123d9565b634e487b7160e01b600052601160045260246000fd5b346101ab5760203660031901126101ab57600435600081815260086020526040902060038101546001600160a01b0316330361268857806124ae60ff600d6005940154161561363d565b0154421061264f5760405160018152817fa953b79a8bda2946b1e815d9e09876df8d499a7d04ace4eccec405ae4a96cf0860203393a36000818152600960209081526040808320338085528184528285206004808201805463ffff00001916630101000017905587875260088652938620919095529252600d909101805490929061253c9060ff161561363d565b61254881541515613602565b0162010000815461255f60ff8260101c161561367a565b62ff00001916178155630100000063ff0000001982541617905560405160018152827fa953b79a8bda2946b1e815d9e09876df8d499a7d04ace4eccec405ae4a96cf0860203393a3600080805b84600052600a6020526040600020548110156123cc57846000526009602052600460408060002087600052600a6020526125e9848360002061353d565b905460039190911b1c6001600160a01b03166000908152602091909152200154601081901c60ff1661261f575b506001016125ac565b9161262b60ff91613591565b9260181c1661263b575b85612616565b91612647600191613591565b929050612635565b60405162461bcd60e51b8152602060048201526011602482015270436f6d6d756e697479206f6e676f696e6760781b6044820152606490fd5b60405162461bcd60e51b815260206004820152601860248201527f4f6e6c792063726561746f722063616e2070726f706f736500000000000000006044820152606490fd5b346101ab576126db36613442565b600082815260086020908152604080832060098352818420338552909252909120600d909101549192916127129060ff16156135c0565b61271e81541515613602565b60ff60048201541661293d578251156129015781600052600f60205260ff60406000205416156128bc57600201918051926001600160401b0384116103ed57612767815461327b565b601f8111612874575b50602093601f81116001146127ea57908161030b93927fbf478fda32150efbea16148df9d2dc95245fe55fe761f2bd87b66ce55637b2af95966000916127df575b508160011b916000199060031b1c19161790555b604051918291338352604060208401526040830190613395565b9050830151876127b1565b601f19811682600052856000209060005b81811061285c5750916001917fbf478fda32150efbea16148df9d2dc95245fe55fe761f2bd87b66ce55637b2af96978261030b97969510612843575b5050811b0190556127c5565b85015160001960f88460031b161c191690558780612837565b858801518355602097880197600190930192016127fb565b816000526020600020601f860160051c810191602087106128b2575b601f0160051c01905b8181106128a65750612770565b60008155600101612899565b9091508190612890565b60405162461bcd60e51b815260206004820152601c60248201527f436f6d6d756e697479206b657973206e6f742067656e657261746564000000006044820152606490fd5b60405162461bcd60e51b8152602060048201526014602482015273115b5c1d1e481cdd589b5a5cdcda5bdb8815549360621b6044820152606490fd5b60405162461bcd60e51b8152602060048201526011602482015270105b1c9958591e481cdd589b5a5d1d1959607a1b6044820152606490fd5b346101ab5760003660031901126101ab576002546040516001600160a01b039091168152602090f35b346101ab5760403660031901126101ab576129b861342c565b600435600052600960205260406000209060018060a01b031660005260205260408060002060ff600181600484015416920154168251911515825215156020820152f35b6101203660031901126101ab576004356001600160401b0381116101ab57612a289036906004016133d6565b6024356001600160401b0381116101ab57612a479036906004016133d6565b6044356001600160401b0381116101ab57612a669036906004016133d6565b91606435926084359060a43560c4359160e4359360076101043510156101ab57428811156131de578781111561318f57821561314a5783156130fa5784156130b557848402848104860361244e5734106130705760249760075497612aca89613591565b600755600654604051631ce87ebb60e01b81529a6020918c919082906001600160a01b0316612aff6004830161010435613584565b5afa998a156110c15760009a61303c575b506040519761020089018981106001600160401b038211176103ed5760405289895260208901526040880152336060880152608087015260a086015260c085015260e0840152610100830152610120820152600061014082015234610160820152600061018082015260006101a0820152600092610104356101c08301526101e0820152818352600860205260408320908051825560208101518051906001600160401b038211612e96578190612bca600186015461327b565b601f8111612fec575b50602090601f8311600114612f7e578792612f73575b50508160011b916000199060031b1c19161760018301555b60408101518051906001600160401b038211612e96578190612c26600286015461327b565b601f8111612f23575b50602090601f8311600114612eb5578792612eaa575b50508160011b916000199060031b1c19161760028301555b60608101516003830180546001600160a01b0319166001600160a01b03929092169190911790556080810151600483015560a0810151600583015560c08101518051906001600160401b038211612e96578190612cbd600686015461327b565b601f8111612e46575b50602090601f8311600114612ddd578792612dd2575b50508160011b916000199060031b1c19161760068301555b60e0810151600783015561010081015160088301556101208101516009830155610140810151600a830155610160810151600b830155610180810151600c830155600d8201612d566101a08301511515829060ff801983541691151516179055565b6101c08201516007811015612dbe57916101e091600e9361ff0082549160081b169061ff00191617905501519101557f4406e0fd454e0f528174e628e0716cd1972c77f1fffd2faa8d73f468957ff39160405180612db86101043533836135a0565b0390a280f35b634e487b7160e01b86526021600452602486fd5b015190508680612cdc565b6006860188528188209250601f198416885b818110612e2e5750908460019594939210612e15575b505050811b016006830155612cf4565b015160001960f88460031b161c19169055868080612e05565b92936020600181928786015181550195019301612def565b90915060068501875260208720601f840160051c810160208510612e8f575b90849392915b601f830160051c82018110612e81575050612cc6565b898155859450600101612e6b565b5080612e65565b634e487b7160e01b86526041600452602486fd5b015190508680612c45565b92506002850187528087209087935b601f1984168510612f08576001945083601f19811610612eef575b505050811b016002830155612c5d565b015160001960f88460031b161c19169055868080612edf565b81810151835560209485019460019093019290910190612ec4565b90915060028501875260208720601f840160051c810160208510612f6c575b90849392915b601f830160051c82018110612f5e575050612c2f565b898155859450600101612f48565b5080612f42565b015190508680612be9565b92506001850187528087209087935b601f1984168510612fd1576001945083601f19811610612fb8575b505050811b016001830155612c01565b015160001960f88460031b161c19169055868080612fa8565b81810151835560209485019460019093019290910190612f8d565b90915060018501875260208720601f840160051c810160208510613035575b90849392915b601f830160051c82018110613027575050612bd3565b898155859450600101613011565b508061300b565b9099506020813d602011613068575b81613058602093836132d0565b810103126101ab5751988a612b10565b3d915061304b565b60405162461bcd60e51b815260206004820152601860248201527f496e73756666696369656e742072657761726420706f6f6c00000000000000006044820152606490fd5b60405162461bcd60e51b815260206004820152601c60248201527f4d6178206d656d62657273206d75737420626520706f736974697665000000006044820152606490fd5b60405162461bcd60e51b815260206004820152602260248201527f52657761726420706572206d656d626572206d75737420626520706f73697469604482015261766560f01b6064820152608490fd5b60405162461bcd60e51b815260206004820152601f60248201527f4d656d626572206465706f736974206d75737420626520706f736974697665006044820152606490fd5b60405162461bcd60e51b815260206004820152602160248201527f456e642074696d65206d7573742062652061667465722073746172742074696d6044820152606560f81b6064820152608490fd5b60405162461bcd60e51b815260206004820152601c60248201527f53746172742074696d65206d75737420626520696e20667574757265000000006044820152606490fd5b346101ab5760203660031901126101ab5760043560005260106020526020604060002054604051908152f35b346101ab5760203660031901126101ab57600435600052600d6020526117136116ff60406000206132f1565b90600182811c921680156132ab575b602083101461329557565b634e487b7160e01b600052602260045260246000fd5b91607f169161328a565b606081019081106001600160401b038211176103ed57604052565b90601f801991011681019081106001600160401b038211176103ed57604052565b90604051918260008254926133058461327b565b8084529360018116908115613373575060011461332c575b5061332a925003836132d0565b565b90506000929192526020600020906000915b81831061335757505090602061332a928201013861331d565b602091935080600191548385890101520191019091849261333e565b90506020925061332a94915060ff191682840152151560051b8201013861331d565b919082519283825260005b8481106133c1575050826000602080949584010152601f8019910116010190565b806020809284010151828286010152016133a0565b81601f820112156101ab578035906001600160401b0382116103ed576040519261340a601f8401601f1916602001856132d0565b828452602083830101116101ab57816000926020809301838601378301015290565b602435906001600160a01b03821682036101ab57565b9060406003198301126101ab5760043591602435906001600160401b0382116101ab57613471916004016133d6565b90565b8054821015613490576000526003602060002091020190600090565b634e487b7160e01b600052603260045260246000fd5b9060806003198301126101ab57600435916024356001600160a01b03811681036101ab579160443591606435906001600160401b0382116101ab57613471916004016133d6565b60609060031901126101ab57600435906024356001600160a01b03811681036101ab57906044356001600160a01b03811681036101ab5790565b60409060031901126101ab576004359060243590565b80548210156134905760005260206000200190600090565b600781101561356e576000526001602052604060002090565b634e487b7160e01b600052602160045260246000fd5b90600782101561356e5752565b600019811461244e5760010190565b6001600160a01b03909116815260408101929161332a9160200190613584565b156135c757565b60405162461bcd60e51b815260206004820152601360248201527210dbdb5b5d5b9a5d1e481a5cc818db1bdcd959606a1b6044820152606490fd5b1561360957565b60405162461bcd60e51b815260206004820152600c60248201526b2737ba10309036b2b6b132b960a11b6044820152606490fd5b1561364457565b60405162461bcd60e51b815260206004820152600e60248201526d105b1c9958591e4818db1bdcd95960921b6044820152606490fd5b1561368157565b60405162461bcd60e51b815260206004820152600d60248201526c105b1c9958591e481d9bdd1959609a1b6044820152606490fd5b908160209103126101ab575180151581036101ab5790565b156136d557565b60405162461bcd60e51b815260206004820152601f60248201527f53636f7265206d757374206265206265747765656e203020616e6420313030006044820152606490fd5b9190820180921161244e57565b8115613731570490565b634e487b7160e01b600052601260045260246000fd5b9190820391821161244e57565b8054600160401b8110156103ed576137719160018201815561353d565b81546001600160a01b0393841660039290921b91821b9390911b1916919091179055565b80600052600860205260406000209080600052600a602052604060002054801561388357600b8301916137d0600c845495019485549061371a565b801561387c57826137e091613727565b9060005b8381106137f8575050505090600080925555565b81600052600a6020528261381082604060002061353d565b9054600085815260096020908152604080832060039590951b9390931c6001600160a01b0316808352939052206001015460081c60ff1615613857575b50506001016137e4565b60008080938193828215613873575bf1156110c157823861384d565b506108fc613866565b5050505050565b50505056fea2646970667358221220c0fc5f2f889fe8ad09040c78ed29dbf5070022f725df3d5d033f59c7af29edd464736f6c634300081c0033",
  "linkReferences": {},
  "deployedLinkReferences": {}
}