{
  "_format": "hh-sol-artifact-1",
  "contractName": "GoalOrientedCommunity",
  "sourceName": "contracts/community.sol",
  "abi": [
    {
      "inputs": [
        {
          "internalType": "address",
          "name": "_senateAddress",
          "type": "address"
        },
        {
          "internalType": "address",
          "name": "_tokenAddress",
          "type": "address"
        }
      ],
      "stateMutability": "nonpayable",
      "type": "constructor"
    },
    {
      "anonymous": false,
      "inputs": [
        {
          "indexed": true,
          "internalType": "uint256",
          "name": "id",
          "type": "uint256"
        },
        {
          "indexed": true,
          "internalType": "address",
          "name": "member",
          "type": "address"
        },
        {
          "indexed": false,
          "internalType": "bool",
          "name": "vote",
          "type": "bool"
        }
      ],
      "name": "CloseVoteSubmitted",
      "type": "event"
    },
    {
      "anonymous": false,
      "inputs": [
        {
          "indexed": true,
          "internalType": "uint256",
          "name": "id",
          "type": "uint256"
        }
      ],
      "name": "CommunityClosed",
      "type": "event"
    },
    {
      "anonymous": false,
      "inputs": [
        {
          "indexed": true,
          "internalType": "uint256",
          "name": "id",
          "type": "uint256"
        },
        {
          "indexed": false,
          "internalType": "address",
          "name": "creator",
          "type": "address"
        },
        {
          "indexed": false,
          "internalType": "enum CommunityTypes.Category",
          "name": "category",
          "type": "uint8"
        }
      ],
      "name": "CommunityCreated",
      "type": "event"
    },
    {
      "anonymous": false,
      "inputs": [
        {
          "indexed": true,
          "internalType": "uint256",
          "name": "communityId",
          "type": "uint256"
        },
        {
          "indexed": false,
          "internalType": "string",
          "name": "publicKey",
          "type": "string"
        }
      ],
      "name": "CommunityKeysGenerated",
      "type": "event"
    },
    {
      "anonymous": false,
      "inputs": [
        {
          "indexed": true,
          "internalType": "uint256",
          "name": "id",
          "type": "uint256"
        },
        {
          "indexed": false,
          "internalType": "address",
          "name": "member",
          "type": "address"
        }
      ],
      "name": "GoalApproved",
      "type": "event"
    },
    {
      "anonymous": false,
      "inputs": [
        {
          "indexed": true,
          "internalType": "uint256",
          "name": "id",
          "type": "uint256"
        },
        {
          "indexed": false,
          "internalType": "address",
          "name": "member",
          "type": "address"
        }
      ],
      "name": "MemberJoined",
      "type": "event"
    },
    {
      "anonymous": false,
      "inputs": [
        {
          "indexed": true,
          "internalType": "uint256",
          "name": "communityId",
          "type": "uint256"
        },
        {
          "indexed": true,
          "internalType": "address",
          "name": "accessor",
          "type": "address"
        },
        {
          "indexed": false,
          "internalType": "bool",
          "name": "isSenator",
          "type": "bool"
        }
      ],
      "name": "PrivateKeyEncrypted",
      "type": "event"
    },
    {
      "anonymous": false,
      "inputs": [
        {
          "indexed": true,
          "internalType": "uint256",
          "name": "id",
          "type": "uint256"
        },
        {
          "indexed": true,
          "internalType": "address",
          "name": "reviewer",
          "type": "address"
        }
      ],
      "name": "ReviewerAdded",
      "type": "event"
    },
    {
      "anonymous": false,
      "inputs": [
        {
          "indexed": true,
          "internalType": "uint256",
          "name": "id",
          "type": "uint256"
        },
        {
          "indexed": true,
          "internalType": "address",
          "name": "reviewer",
          "type": "address"
        },
        {
          "indexed": true,
          "internalType": "address",
          "name": "member",
          "type": "address"
        },
        {
          "indexed": false,
          "internalType": "bool",
          "name": "approved",
          "type": "bool"
        }
      ],
      "name": "ReviewerApproval",
      "type": "event"
    },
    {
      "anonymous": false,
      "inputs": [
        {
          "indexed": true,
          "internalType": "uint256",
          "name": "id",
          "type": "uint256"
        },
        {
          "indexed": false,
          "internalType": "address",
          "name": "member",
          "type": "address"
        },
        {
          "indexed": false,
          "internalType": "uint256",
          "name": "amount",
          "type": "uint256"
        }
      ],
      "name": "RewardClaimed",
      "type": "event"
    },
    {
      "anonymous": false,
      "inputs": [
        {
          "indexed": true,
          "internalType": "uint256",
          "name": "id",
          "type": "uint256"
        },
        {
          "indexed": true,
          "internalType": "address",
          "name": "member",
          "type": "address"
        },
        {
          "indexed": true,
          "internalType": "address",
          "name": "senator",
          "type": "address"
        },
        {
          "indexed": false,
          "internalType": "uint256",
          "name": "score",
          "type": "uint256"
        }
      ],
      "name": "ScoreSubmitted",
      "type": "event"
    },
    {
      "anonymous": false,
      "inputs": [
        {
          "indexed": true,
          "internalType": "uint256",
          "name": "id",
          "type": "uint256"
        },
        {
          "indexed": false,
          "internalType": "address",
          "name": "member",
          "type": "address"
        },
        {
          "indexed": false,
          "internalType": "string",
          "name": "submissionUrl",
          "type": "string"
        }
      ],
      "name": "SubmissionUploaded",
      "type": "event"
    },
    {
      "inputs": [],
      "name": "STAKE_AMOUNT",
      "outputs": [
        {
          "internalType": "uint256",
          "name": "",
          "type": "uint256"
        }
      ],
      "stateMutability": "view",
      "type": "function"
    },
    {
      "inputs": [
        {
          "internalType": "enum CommunityTypes.Category",
          "name": "",
          "type": "uint8"
        }
      ],
      "name": "categoryExists",
      "outputs": [
        {
          "internalType": "bool",
          "name": "",
          "type": "bool"
        }
      ],
      "stateMutability": "view",
      "type": "function"
    },
    {
      "inputs": [
        {
          "internalType": "uint256",
          "name": "",
          "type": "uint256"
        }
      ],
      "name": "categoryNames",
      "outputs": [
        {
          "internalType": "string",
          "name": "",
          "type": "string"
        }
      ],
      "stateMutability": "view",
      "type": "function"
    },
    {
      "inputs": [
        {
          "internalType": "uint256",
          "name": "_communityId",
          "type": "uint256"
        }
      ],
      "name": "claimReward",
      "outputs": [],
      "stateMutability": "nonpayable",
      "type": "function"
    },
    {
      "inputs": [
        {
          "internalType": "uint256",
          "name": "_communityId",
          "type": "uint256"
        }
      ],
      "name": "closeCommunityByAuthor",
      "outputs": [],
      "stateMutability": "nonpayable",
      "type": "function"
    },
    {
      "inputs": [
        {
          "internalType": "uint256",
          "name": "",
          "type": "uint256"
        }
      ],
      "name": "communities",
      "outputs": [
        {
          "internalType": "uint256",
          "name": "id",
          "type": "uint256"
        },
        {
          "internalType": "string",
          "name": "name",
          "type": "string"
        },
        {
          "internalType": "string",
          "name": "description",
          "type": "string"
        },
        {
          "internalType": "address",
          "name": "creator",
          "type": "address"
        },
        {
          "internalType": "uint256",
          "name": "startTime",
          "type": "uint256"
        },
        {
          "internalType": "uint256",
          "name": "endTime",
          "type": "uint256"
        },
        {
          "internalType": "string",
          "name": "targetGoal",
          "type": "string"
        },
        {
          "internalType": "uint256",
          "name": "memberDeposit",
          "type": "uint256"
        },
        {
          "internalType": "uint256",
          "name": "rewardPerMember",
          "type": "uint256"
        },
        {
          "internalType": "uint256",
          "name": "maxMembers",
          "type": "uint256"
        },
        {
          "internalType": "uint256",
          "name": "totalMembers",
          "type": "uint256"
        },
        {
          "internalType": "uint256",
          "name": "rewardPool",
          "type": "uint256"
        },
        {
          "internalType": "uint256",
          "name": "depositPool",
          "type": "uint256"
        },
        {
          "internalType": "bool",
          "name": "isClosed",
          "type": "bool"
        },
        {
          "internalType": "enum CommunityTypes.Category",
          "name": "category",
          "type": "uint8"
        },
        {
          "internalType": "uint256",
          "name": "passingScore",
          "type": "uint256"
        }
      ],
      "stateMutability": "view",
      "type": "function"
    },
    {
      "inputs": [],
      "name": "communityCount",
      "outputs": [
        {
          "internalType": "uint256",
          "name": "",
          "type": "uint256"
        }
      ],
      "stateMutability": "view",
      "type": "function"
    },
    {
      "inputs": [
        {
          "internalType": "uint256",
          "name": "",
          "type": "uint256"
        }
      ],
      "name": "communityEncryptionKey",
      "outputs": [
        {
          "internalType": "string",
          "name": "",
          "type": "string"
        }
      ],
      "stateMutability": "view",
      "type": "function"
    },
    {
      "inputs": [],
      "name": "communityToken",
      "outputs": [
        {
          "internalType": "contract IERC20",
          "name": "",
          "type": "address"
        }
      ],
      "stateMutability": "view",
      "type": "function"
    },
    {
      "inputs": [
        {
          "internalType": "string",
          "name": "_name",
          "type": "string"
        },
        {
          "internalType": "string",
          "name": "_description",
          "type": "string"
        },
        {
          "internalType": "string",
          "name": "_targetGoal",
          "type": "string"
        },
        {
          "internalType": "uint256",
          "name": "_startTime",
          "type": "uint256"
        },
        {
          "internalType": "uint256",
          "name": "_endTime",
          "type": "uint256"
        },
        {
          "internalType": "uint256",
          "name": "_memberDeposit",
          "type": "uint256"
        },
        {
          "internalType": "uint256",
          "name": "_rewardPerMember",
          "type": "uint256"
        },
        {
          "internalType": "uint256",
          "name": "_maxMembers",
          "type": "uint256"
        },
        {
          "internalType": "enum CommunityTypes.Category",
          "name": "_category",
          "type": "uint8"
        }
      ],
      "name": "createCommunity",
      "outputs": [],
      "stateMutability": "payable",
      "type": "function"
    },
    {
      "inputs": [
        {
          "internalType": "uint256",
          "name": "",
          "type": "uint256"
        },
        {
          "internalType": "address",
          "name": "",
          "type": "address"
        }
      ],
      "name": "encryptedDecryptionKeys",
      "outputs": [
        {
          "internalType": "string",
          "name": "",
          "type": "string"
        }
      ],
      "stateMutability": "view",
      "type": "function"
    },
    {
      "inputs": [
        {
          "internalType": "uint256",
          "name": "",
          "type": "uint256"
        }
      ],
      "name": "encryptedKeysCount",
      "outputs": [
        {
          "internalType": "uint256",
          "name": "",
          "type": "uint256"
        }
      ],
      "stateMutability": "view",
      "type": "function"
    },
    {
      "inputs": [
        {
          "internalType": "enum CommunityTypes.Category",
          "name": "_category",
          "type": "uint8"
        }
      ],
      "name": "getCategoryName",
      "outputs": [
        {
          "internalType": "string",
          "name": "",
          "type": "string"
        }
      ],
      "stateMutability": "view",
      "type": "function"
    },
    {
      "inputs": [
        {
          "internalType": "uint256",
          "name": "communityId",
          "type": "uint256"
        }
      ],
      "name": "getMemberCount",
      "outputs": [
        {
          "internalType": "uint256",
          "name": "",
          "type": "uint256"
        }
      ],
      "stateMutability": "view",
      "type": "function"
    },
    {
      "inputs": [
        {
          "internalType": "uint256",
          "name": "_communityId",
          "type": "uint256"
        },
        {
          "internalType": "address",
          "name": "_member",
          "type": "address"
        }
      ],
      "name": "getMemberStatus",
      "outputs": [
        {
          "internalType": "bool",
          "name": "isScored",
          "type": "bool"
        },
        {
          "internalType": "bool",
          "name": "isApproved",
          "type": "bool"
        }
      ],
      "stateMutability": "view",
      "type": "function"
    },
    {
      "inputs": [
        {
          "internalType": "uint256",
          "name": "communityId",
          "type": "uint256"
        }
      ],
      "name": "getReviewersLength",
      "outputs": [
        {
          "internalType": "uint256",
          "name": "",
          "type": "uint256"
        }
      ],
      "stateMutability": "view",
      "type": "function"
    },
    {
      "inputs": [
        {
          "internalType": "uint256",
          "name": "_communityId",
          "type": "uint256"
        },
        {
          "internalType": "address",
          "name": "_member",
          "type": "address"
        }
      ],
      "name": "getScores",
      "outputs": [
        {
          "components": [
            {
              "internalType": "address",
              "name": "senator",
              "type": "address"
            },
            {
              "internalType": "uint256",
              "name": "score",
              "type": "uint256"
            },
            {
              "internalType": "string",
              "name": "comment",
              "type": "string"
            }
          ],
          "internalType": "struct GoalOrientedCommunity.Score[]",
          "name": "",
          "type": "tuple[]"
        }
      ],
      "stateMutability": "view",
      "type": "function"
    },
    {
      "inputs": [
        {
          "internalType": "uint256",
          "name": "",
          "type": "uint256"
        }
      ],
      "name": "hasGeneratedKeys",
      "outputs": [
        {
          "internalType": "bool",
          "name": "",
          "type": "bool"
        }
      ],
      "stateMutability": "view",
      "type": "function"
    },
    {
      "inputs": [
        {
          "internalType": "uint256",
          "name": "",
          "type": "uint256"
        },
        {
          "internalType": "address",
          "name": "",
          "type": "address"
        },
        {
          "internalType": "address",
          "name": "",
          "type": "address"
        }
      ],
      "name": "hasReviewerVoted",
      "outputs": [
        {
          "internalType": "bool",
          "name": "",
          "type": "bool"
        }
      ],
      "stateMutability": "view",
      "type": "function"
    },
    {
      "inputs": [
        {
          "internalType": "uint256",
          "name": "",
          "type": "uint256"
        },
        {
          "internalType": "address",
          "name": "",
          "type": "address"
        },
        {
          "internalType": "address",
          "name": "",
          "type": "address"
        }
      ],
      "name": "hasSenatorScored",
      "outputs": [
        {
          "internalType": "bool",
          "name": "",
          "type": "bool"
        }
      ],
      "stateMutability": "view",
      "type": "function"
    },
    {
      "inputs": [
        {
          "internalType": "uint256",
          "name": "_communityId",
          "type": "uint256"
        }
      ],
      "name": "joinCommunity",
      "outputs": [],
      "stateMutability": "payable",
      "type": "function"
    },
    {
      "inputs": [
        {
          "internalType": "uint256",
          "name": "",
          "type": "uint256"
        },
        {
          "internalType": "uint256",
          "name": "",
          "type": "uint256"
        }
      ],
      "name": "memberAddresses",
      "outputs": [
        {
          "internalType": "address",
          "name": "",
          "type": "address"
        }
      ],
      "stateMutability": "view",
      "type": "function"
    },
    {
      "inputs": [
        {
          "internalType": "uint256",
          "name": "",
          "type": "uint256"
        },
        {
          "internalType": "address",
          "name": "",
          "type": "address"
        },
        {
          "internalType": "uint256",
          "name": "",
          "type": "uint256"
        }
      ],
      "name": "memberScores",
      "outputs": [
        {
          "internalType": "address",
          "name": "senator",
          "type": "address"
        },
        {
          "internalType": "uint256",
          "name": "score",
          "type": "uint256"
        },
        {
          "internalType": "string",
          "name": "comment",
          "type": "string"
        }
      ],
      "stateMutability": "view",
      "type": "function"
    },
    {
      "inputs": [
        {
          "internalType": "uint256",
          "name": "",
          "type": "uint256"
        },
        {
          "internalType": "address",
          "name": "",
          "type": "address"
        }
      ],
      "name": "members",
      "outputs": [
        {
          "internalType": "uint256",
          "name": "joinTime",
          "type": "uint256"
        },
        {
          "internalType": "bool",
          "name": "isApproved",
          "type": "bool"
        },
        {
          "internalType": "bool",
          "name": "hasClaimed",
          "type": "bool"
        },
        {
          "internalType": "string",
          "name": "submissionUrl",
          "type": "string"
        },
        {
          "internalType": "uint256",
          "name": "finalScore",
          "type": "uint256"
        },
        {
          "internalType": "bool",
          "name": "isScored",
          "type": "bool"
        },
        {
          "internalType": "bool",
          "name": "isReviewer",
          "type": "bool"
        },
        {
          "internalType": "bool",
          "name": "hasVotedForClose",
          "type": "bool"
        },
        {
          "internalType": "bool",
          "name": "closeVote",
          "type": "bool"
        },
        {
          "internalType": "uint256",
          "name": "totalReviewerScores",
          "type": "uint256"
        },
        {
          "internalType": "uint256",
          "name": "reviewerCount",
          "type": "uint256"
        }
      ],
      "stateMutability": "view",
      "type": "function"
    },
    {
      "inputs": [
        {
          "internalType": "uint256",
          "name": "_communityId",
          "type": "uint256"
        }
      ],
      "name": "proposeCloseCommunity",
      "outputs": [],
      "stateMutability": "nonpayable",
      "type": "function"
    },
    {
      "inputs": [
        {
          "internalType": "uint256",
          "name": "",
          "type": "uint256"
        },
        {
          "internalType": "address",
          "name": "",
          "type": "address"
        },
        {
          "internalType": "address",
          "name": "",
          "type": "address"
        }
      ],
      "name": "reviewerApprovals",
      "outputs": [
        {
          "internalType": "bool",
          "name": "",
          "type": "bool"
        }
      ],
      "stateMutability": "view",
      "type": "function"
    },
    {
      "inputs": [
        {
          "internalType": "uint256",
          "name": "_communityId",
          "type": "uint256"
        },
        {
          "internalType": "address",
          "name": "_member",
          "type": "address"
        },
        {
          "internalType": "uint256",
          "name": "_score",
          "type": "uint256"
        },
        {
          "internalType": "string",
          "name": "_comment",
          "type": "string"
        }
      ],
      "name": "reviewerScore",
      "outputs": [],
      "stateMutability": "nonpayable",
      "type": "function"
    },
    {
      "inputs": [
        {
          "internalType": "uint256",
          "name": "",
          "type": "uint256"
        },
        {
          "internalType": "uint256",
          "name": "",
          "type": "uint256"
        }
      ],
      "name": "reviewers",
      "outputs": [
        {
          "internalType": "address",
          "name": "",
          "type": "address"
        }
      ],
      "stateMutability": "view",
      "type": "function"
    },
    {
      "inputs": [
        {
          "internalType": "uint256",
          "name": "_communityId",
          "type": "uint256"
        },
        {
          "internalType": "address",
          "name": "_member",
          "type": "address"
        },
        {
          "internalType": "uint256",
          "name": "_score",
          "type": "uint256"
        },
        {
          "internalType": "string",
          "name": "_comment",
          "type": "string"
        }
      ],
      "name": "senateAuditScore",
      "outputs": [],
      "stateMutability": "nonpayable",
      "type": "function"
    },
    {
      "inputs": [],
      "name": "senateContract",
      "outputs": [
        {
          "internalType": "contract Senate",
          "name": "",
          "type": "address"
        }
      ],
      "stateMutability": "view",
      "type": "function"
    },
    {
      "inputs": [
        {
          "internalType": "uint256",
          "name": "_communityId",
          "type": "uint256"
        },
        {
          "internalType": "string",
          "name": "_encryptionKey",
          "type": "string"
        }
      ],
      "name": "setCommunityKeys",
      "outputs": [],
      "stateMutability": "nonpayable",
      "type": "function"
    },
    {
      "inputs": [
        {
          "internalType": "uint256",
          "name": "_communityId",
          "type": "uint256"
        },
        {
          "internalType": "address",
          "name": "_accessor",
          "type": "address"
        },
        {
          "internalType": "string",
          "name": "_encryptedKey",
          "type": "string"
        },
        {
          "internalType": "bool",
          "name": "_isSenator",
          "type": "bool"
        }
      ],
      "name": "setEncryptedDecryptionKey",
      "outputs": [],
      "stateMutability": "nonpayable",
      "type": "function"
    },
    {
      "inputs": [
        {
          "internalType": "uint256",
          "name": "_communityId",
          "type": "uint256"
        },
        {
          "internalType": "string",
          "name": "_submissionUrl",
          "type": "string"
        }
      ],
      "name": "submitCompletion",
      "outputs": [],
      "stateMutability": "nonpayable",
      "type": "function"
    },
    {
      "inputs": [
        {
          "internalType": "uint256",
          "name": "_communityId",
          "type": "uint256"
        },
        {
          "internalType": "bool",
          "name": "_vote",
          "type": "bool"
        }
      ],
      "name": "voteForClose",
      "outputs": [],
      "stateMutability": "nonpayable",
      "type": "function"
    }
  ],
  "bytecode": "0x60803461038957601f613c7638819003918201601f19168301916001600160401b0383118484101761038e57808492604094855283398101031261038957610052602061004b836103a4565b92016103a4565b9060016000526000602052604060002061007561006f82546103b8565b826103f2565b600a644d7573696360d81b019055600260009081526020527fabbb5caa7dda850e60932de0934eb1f9d0f59695050f761dc64e443e5030a56980546100b9906103b8565b601f811161035c575b50600662105c9d60ea1b019055600360009081526020527f101e368776582e57ab3d116ffe2517c0a585cd5b23174b01e275c2d8329c3d838054610105906103b8565b601f811161032f575b50600c6553706f72747360d01b019055600460009081526020527f52d75039926638d3c558b2bdefb945d5be8dae29dedd1c313212a4d472d9fde58054610154906103b8565b601f8111610302575b507f456475636174696f6e00000000000000000000000000000000000000000000129055600560009081526020527f2b232c97452f0950c94e2539fdc7e69d21166113cf7a9bcb99b220a3fe5d720a80546101b7906103b8565b601f81116102d5575b507f546563686e6f6c6f6779000000000000000000000000000000000000000000149055600660009081526020527f62103cf3131c85df57aad364d21cba02556d3092d6cb54c298c2e7726a7870bd805461021e9061006f906103b8565b600a6427ba3432b960d91b01905560005b60068111156102775750600680546001600160a01b039283166001600160a01b0319918216179091556002805493909216921691909117905560405161384d90816104298239f35b60078110156102bf5760406000828152600160205220600160ff1982541617905560001981146102a95760010161022f565b634e487b7160e01b600052601160045260246000fd5b634e487b7160e01b600052602160045260246000fd5b81600052601f6020600020910160051c8101905b8181106102f657506101c0565b600081556001016102e9565b81600052601f6020600020910160051c8101905b818110610323575061015d565b60008155600101610316565b81600052601f6020600020910160051c8101905b818110610350575061010e565b60008155600101610343565b81600052601f6020600020910160051c8101905b81811061037d57506100c2565b60008155600101610370565b600080fd5b634e487b7160e01b600052604160045260246000fd5b51906001600160a01b038216820361038957565b90600182811c921680156103e8575b60208310146103d257565b634e487b7160e01b600052602260045260246000fd5b91607f16916103c7565b601f82116103fe575050565b600052601f6020600020910160051c8101905b81811061041c575050565b6000815560010161041156fe6080604052600436101561001257600080fd5b60003560e01c80630427bdf1146131ec5780631214ee66146131c05780631fa4a560146124b357806326e98b8b1461245657806329aa16171461242d5780632ae2b664146121dc5780632c90365b14611f785780632c9342de14611d285780633f0db81214611ce05780633f9a61e014611c5457806344d0288114611bc35780635130084a1461170557806355e6a6db146114e75780635ce9284f146114bb5780635d85fa1814611492578063676eeee51461143e578063784940c5146113fa5780637a37128c146113c95780637dcec09f1461139d57806387a6280f1461125157806388c52d7c146111fd5780638fd0f3b4146111cc578063ae169a5014610f0b578063aee8461314610eed578063b122a0ef146109b2578063b51bcc0e1461097c578063b7800e5314610932578063bb1895c814610851578063d42f02d114610472578063e590b56a1461033b578063ed571f0614610290578063f2509ad514610207578063fa95cefb146101b35763faf5625f1461019257600080fd5b346101ae5760003660031901126101ae57602060405160018152f35b600080fd5b346101ae576101c1366134a6565b91600052600c60205260406000209060018060a01b031660005260205260406000209060018060a01b0316600052602052602060ff604060002054166040519015158152f35b346101ae57610215366133fb565b5080600052600f60205260ff60406000205416610252576000908152600f60209081526040808320805460ff191660011790556010909152812055005b60405162461bcd60e51b815260206004820152601660248201527512d95e5cc8185b1c9958591e4819d95b995c985d195960521b6044820152606490fd5b346101ae5760203660031901126101ae57600435600081815260086020526040902060038101546001600160a01b0316330361030857600d01600181546102da60ff82161561360d565b60ff19161790557fe68f10f94ca2685d65a39a1841c1e1e00e8df8b2fa15dd0562e32c33af49fe17600080a2005b60405162461bcd60e51b815260206004820152600b60248201526a2737ba1031b932b0ba37b960a91b6044820152606490fd5b346101ae5760203660031901126101ae576004356000526008602052604060002080546001820161036b906132aa565b90610378600284016132aa565b60038401546004850154600586015492956001600160a01b03909216926103a1600684016132aa565b946007840154956008850154600986015491600a87015493600b88015495600c89015497600d8a015499600e01549a6040519e8f9e8f95865260208601610200905261020086016103f19161334e565b85810360408701526104029161334e565b936060015260808d015260a08c01528a810360c08c01526104229161334e565b9760e08a015261010089015261012088015261014087015261016086015261018085015260ff811615156101a08501526101c084019060081c60ff16906104689161353d565b6101e08301520390f35b346101ae576104803661345f565b506000838152600860209081526040808320600983528184203385529092528083206001600160a01b03861684529220600d82015493959194919390929060ff16610819576004015460081c60ff16156107e3576104e16002830154613218565b156107a857600482019360ff85541661077057600e90610504606488111561369e565b60008581526005602090815260408083206001600160a01b0387168452825280832033845290915290205461053c9060ff161561364a565b01805460008581526004602090815260408083206001600160a01b038716845282528083203384529091529020805460ff19169188101560ff169190911790559260008181526005602081815260408084206001600160a01b03871685528252808420338552909152909120805460ff19166001179055830180549093906105c59088906136ea565b80945560068101966105d7885461354a565b8098558554111560405190815260018060a01b03841690837fb0ad8b9f0729f50b6025f5db451debbc7da11dd3f0b6a4ecb8d8919609026b6260203393a460009360009560005b8460005260036020526040600020548110156107195784600052600560205260ff6040808060002060009060018060a01b038b1682526020522087600052600360205261066e84836000206134f6565b905460039190911b1c6001600160a01b0316600090815260209190915220541661069b575b60010161061e565b956106a59061354a565b9584600052600460205260ff6040808060002060009060018060a01b038b168252602052208760005260036020526106e084836000206134f6565b905460039190911b1c6001600160a01b0316600090815260209190915220541615610693579661071160019161354a565b979050610693565b5087868a95600052600360205260406000205460011c111561073757005b61076e94600193610751928560ff198254161790556136f7565b9081600385015554111591019060ff801983541691151516179055565b005b60405162461bcd60e51b815260206004820152601060248201526f105b1c9958591e481c995d9a595dd95960821b6044820152606490fd5b60405162461bcd60e51b8152602060048201526013602482015272139bc81cdd589b5a5cdcda5bdb88199bdd5b99606a1b6044820152606490fd5b60405162461bcd60e51b815260206004820152600e60248201526d2737ba1030903932bb34b2bbb2b960911b6044820152606490fd5b60405162461bcd60e51b815260206004820152601060248201526f10dbdb5b5d5b9a5d1e4818db1bdcd95960821b6044820152606490fd5b346101ae5760403660031901126101ae57604061086c6133e5565b60043560005260096020528160002060009160018060a01b031682526020522080546001820154916108a0600282016132aa565b60038201549160ff60048201546108ec600660058501549401549483604051998a998a52818116151560208b015260081c1615156040890152610160606089015261016088019061334e565b946080870152818116151560a0870152818160081c16151560c0870152818160101c16151560e087015260181c1615156101008501526101208401526101408301520390f35b346101ae57610940366134e0565b90600052600a602052604060002080548210156101ae57602091610963916134f6565b905460405160039290921b1c6001600160a01b03168152f35b346101ae5760203660031901126101ae5760043560078110156101ae5760ff6109a660209261350e565b54166040519015158152f35b60203660031901126101ae5760043580600052600860205260406000209060078201543403610ea8576000818152600960209081526040808320338452909152902054610e72576002546040516323b872dd60e01b81523360048201523060248201526001604482015290602090829060649082906000906001600160a01b03165af1908115610e6657600091610e37575b5015610dfa57604051610a568161326d565b4281526020810192600084526040820160008152602092604051610a7a8582613289565b6000815260608201908152608082019660008852600060a084015260c083019160008352610b1a60e085019260008452600061010087015260006101208701526000610140870152896000526009895260408060002060009060018060a01b03331682528b52209686518855610b036001890192511515839060ff801983541691151516179055565b51815461ff00191690151560081b61ff0016179055565b519788516001600160401b038111610de457610b396002870154613218565b601f8111610d9b575b508799601f8211600114610cf85793610c0361014094600c9998979484610c23957f78da64a590c3052953ad9e0a5546bbf12bb68ae7634e3fb2a774e22a8c6557c19e9f60069a600092610ced575b50508160011b916000199060031b1c19161760028a01555b516003890155610bea6004890193610bd360a08801511515869060ff801983541691151516179055565b51845461ff00191690151560081b61ff0016178455565b51825462ff0000191690151560101b62ff000016178255565b610100830151815463ff000000191690151560181b63ff00000016179055565b6101208101516005850155015191015584600052600a8352610c4933604060002061356a565b600a8101610c57815461354a565b905501610c653482546136ea565b90558260005260038152600a60406000205410610c86575b604051338152a2005b600083815260098252604080822033808452908452818320600401805461ff001916610100179055858352600384529120610cc1919061356a565b33837f8fcd9f5c27415bf85b1f568fbe33a98aaebd94a2f721378109a4a48142f1e3fb600080a3610c7d565b015190503880610b91565b9960028701600052886000209a60005b601f1984168110610d84575061014094600c999897946001857f78da64a590c3052953ad9e0a5546bbf12bb68ae7634e3fb2a774e22a8c6557c19e9f60069a96610c0396610c2399601f19811610610d6b575b505050811b0160028a0155610ba9565b015160001960f88460031b161c19169055388080610d5b565b828201518d556001909c019b918a01918a01610d08565b6002870160005288600020601f830160051c8101918a8410610dda575b601f0160051c01905b818110610dce5750610b42565b60008155600101610dc1565b9091508190610db8565b634e487b7160e01b600052604160045260246000fd5b60405162461bcd60e51b8152602060048201526015602482015274151bdad95b881d1c985b9cd9995c8819985a5b1959605a1b6044820152606490fd5b610e59915060203d602011610e5f575b610e518183613289565b810190613686565b83610a44565b503d610e47565b6040513d6000823e3d90fd5b60405162461bcd60e51b815260206004820152600e60248201526d105b1c9958591e481a9bda5b995960921b6044820152606490fd5b60405162461bcd60e51b815260206004820152601860248201527f496e636f7272656374206465706f73697420616d6f756e7400000000000000006044820152606490fd5b346101ae5760003660031901126101ae576020600754604051908152f35b346101ae5760203660031901126101ae57600435600081815260086020908152604080832060098352818420338552909252909120600d820154610f529060ff16156135cb565b60ff6004820154161561119457600101805460ff8160081c1661115d5760ff811615611118576000848152600b60209081526040808320338085529252822080548392909190835b83811061109f57505050508161103f575b50506101009061ff0019161790556000808080610ff4600886015495600b8101610fd6888254613717565b9055600c60078201549101610fec828254613717565b9055866136ea565b818115611036575b3390f115610e665760407f24b5efa61dd1cfc659205a97fb8ed868f3cb8c81922bab2b96423e5de1de2cb7918151903382526020820152a2005b506108fc610ffc565b90611049916136f7565b600e8401541161105a578480610fab565b60405162461bcd60e51b815260206004820152601960248201527f446964206e6f7420706173732073656e617465206175646974000000000000006044820152606490fd5b89600052600c60205260ff60408080600020600090868252602052206110c5848761342d565b50546001600160a01b031660009081526020919091522054166110eb575b600101610f9a565b949361111061110a600192836111018a8861342d565b500154906136ea565b9561354a565b9590506110e3565b60405162461bcd60e51b815260206004820152601e60248201527f5461736b206e6f7420617070726f7665642062792072657669657765727300006044820152606490fd5b60405162461bcd60e51b815260206004820152600f60248201526e105b1c9958591e4818db185a5b5959608a1b6044820152606490fd5b60405162461bcd60e51b815260206004820152601060248201526f139bdd081c995d9a595dd959081e595d60821b6044820152606490fd5b346101ae576111da366134e0565b906000526003602052604060002080548210156101ae57602091610963916134f6565b346101ae5761120b366134a6565b91600052600560205260406000209060018060a01b031660005260205260406000209060018060a01b0316600052602052602060ff604060002054166040519015158152f35b346101ae5760403660031901126101ae5761126a6133e5565b600435600052600b60205260406000209060018060a01b031660005260205260406000208054906001600160401b038211610de457604051916112b360208260051b0184613289565b80835260208301809260005260206000206000915b83831061135857848660405191829160208301906020845251809152604083019060408160051b85010192916000905b82821061130757505050500390f35b919360019193955060206113488192603f198a8203018652606060408a51878060a01b0381511684528581015186850152015191816040820152019061334e565b96019201920185949391926112f8565b6003602060019260405161136b81613252565b848060a01b038654168152848601548382015261138a600287016132aa565b60408201528152019201920191906112c8565b346101ae5760203660031901126101ae5760043560005260036020526020604060002054604051908152f35b346101ae5760203660031901126101ae57600435600052600f602052602060ff604060002054166040519015158152f35b346101ae5760203660031901126101ae57600435600052600060205261143a61142660406000206132aa565b60405191829160208352602083019061334e565b0390f35b346101ae5761144c366134a6565b91600052600460205260406000209060018060a01b031660005260205260406000209060018060a01b0316600052602052602060ff604060002054166040519015158152f35b346101ae5760003660031901126101ae576006546040516001600160a01b039091168152602090f35b346101ae5760203660031901126101ae57600435600052600a6020526020604060002054604051908152f35b346101ae5760803660031901126101ae576004356115036133e5565b6044356001600160401b0381116101ae5761152290369060040161338f565b5060643580151581036101ae5782600052600f60205260ff60406000205416156116c7571561161f5760206115909160018060a01b0360065416846000526008835260ff600d6040600020015460081c1691604051809581948293630eb2f16160e41b8452600484016135ab565b03915afa908115610e6657600091611600575b50156115c5575b600052601060205260406000206115c1815461354a565b9055005b60405162461bcd60e51b81526020600482015260136024820152722737ba1030903b30b634b21039b2b730ba37b960691b6044820152606490fd5b611619915060203d602011610e5f57610e518183613289565b826115a3565b6000906001600160a01b0316815b8360005260036020526040600020548110156116c0578360005260036020528161165b8260406000206134f6565b905460039190911b1c6001600160a01b03161461167a5760010161162d565b50505060015b6115aa5760405162461bcd60e51b81526020600482015260146024820152732737ba1030903b30b634b2103932bb34b2bbb2b960611b6044820152606490fd5b5050611680565b60405162461bcd60e51b815260206004820152601660248201527512d95e5cc81b9bdd0819d95b995c985d1959081e595d60521b6044820152606490fd5b346101ae576117133661345f565b92909161175a602060018060a01b0360065416846000526008825260ff600d6040600020015460081c16906040518080958194630eb2f16160e41b835233600484016135ab565b03915afa908115610e6657600091611ba4575b5015611b6657611780606484111561369e565b6000828152600c602090815260408083206001600160a01b0385168452825280832033845290915290205460ff16611b305781600052600960205260408060002060009060018060a01b0384168252602052209260ff60048501541615611aeb5782600052600b60205260408060002060009060018060a01b0385168252602052206040519061180f82613252565b3382526020820190838252604083019788528054600160401b811015610de45761183e9160018201815561342d565b919091611ad557915181546001600160a01b0319166001600160a01b039190911617815590516001820155945180519095600201906001600160401b038111610de45761188b8254613218565b601f8111611a8d575b506020601f8211600114611a235781906040969798600092611a18575b50508160011b916000199060031b1c19161790555b6000848152600c60209081528482206001600160a01b0385168084529082528583203380855290835292869020805460ff191660011790558551938452919286917f378f514d49e4abb7486bee29952af6519de11cb70a74cd68479f52457b0518f791a482600052600b6020528160002060009160018060a01b03168252602052208054916000906000926000915b8583106119be575050506003831015809181926119b1575b5015611994575060019291611981916136f7565b600382015501805460ff19166001179055005b91505061199d57005b60006003820155600101805460ff19169055005b90508360011c108561196d565b9091936119d1906001611101878661342d565b9360016119de828561342d565b500154826000526008602052600e604060002001541115611a04575b6001019190611955565b92611a1060019161354a565b9390506119fa565b0151905088806118b1565b601f1982169783600052816000209860005b818110611a75575091604097989991846001959410611a5c575b505050811b0190556118c6565b015160001960f88460031b161c19169055888080611a4f565b838301518b556001909a019960209384019301611a35565b826000526020600020601f830160051c81019160208410611acb575b601f0160051c01905b818110611abf5750611894565b60008155600101611ab2565b9091508190611aa9565b634e487b7160e01b600052600060045260246000fd5b60405162461bcd60e51b815260206004820152601d60248201527f4e6f7420726576696577656420627920726576696577657273207965740000006044820152606490fd5b60405162461bcd60e51b815260206004820152600e60248201526d105b1c9958591e481cd8dbdc995960921b6044820152606490fd5b60405162461bcd60e51b81526020600482015260166024820152752737ba1030baba3437b934bd32b21039b2b730ba37b960511b6044820152606490fd5b611bbd915060203d602011610e5f57610e518183613289565b8561176d565b346101ae5760603660031901126101ae57611bdc6133e5565b60443590600435600052600b60205260406000209060018060a01b031660005260205260406000209081548110156101ae57611c179161342d565b5060018060a01b0381541661143a611c366002600185015494016132aa565b6040519384938452602084015260606040840152606083019061334e565b346101ae5760203660031901126101ae5760043560078110156101ae5760ff611c7c8261350e565b541615611c9b57600052600060205261143a61142660406000206132aa565b60405162461bcd60e51b815260206004820152601760248201527f43617465676f727920646f6573206e6f742065786973740000000000000000006044820152606490fd5b346101ae5760403660031901126101ae57611cf96133e5565b600435600052600e60205260406000209060018060a01b031660005260205261143a61142660406000206132aa565b346101ae5760403660031901126101ae576004356024358015158082036101ae578260005260086020526040600020836000526009602052604060002060018060a01b033316600052602052600d6040600020910192611d8c60ff8554161561360d565b815415611f44576004611dd79201620100008154611db060ff8260101c161561364a565b63ff0000001990911663ffff0000199091161791151560181b63ff00000016919091179055565b604051908152827fa953b79a8bda2946b1e815d9e09876df8d499a7d04ace4eccec405ae4a96cf0860203393a3600080805b84600052600a602052604060002054811015611eac57846000526009602052600460408060002087600052600a602052611e4684836000206134f6565b905460039190911b1c6001600160a01b03166000908152602091909152200154601081901c60ff16611e7c575b50600101611e09565b91611e8860ff9161354a565b9260181c16611e98575b85611e73565b91611ea460019161354a565b929050611e92565b5080159182159283611efd575b505050611ec257005b805460ff19166001179055611ed681613724565b7fe68f10f94ca2685d65a39a1841c1e1e00e8df8b2fa15dd0562e32c33af49fe17600080a2005b90919250600382029180830460031490151715611f2e578260011b9283046002141715611f2e571015838080611eb9565b634e487b7160e01b600052601160045260246000fd5b60405162461bcd60e51b815260206004820152600c60248201526b2737ba10309036b2b6b132b960a11b6044820152606490fd5b346101ae5760203660031901126101ae57600435600081815260086020526040902060038101546001600160a01b031633036121975780611fc260ff600d6005940154161561360d565b0154421061215e5760405160018152817fa953b79a8bda2946b1e815d9e09876df8d499a7d04ace4eccec405ae4a96cf0860203393a360008181526009602090815260408083203380855281845282852060048101805463ffff000019166301010000179055868652600885529285209452909152600d909101805490919061204e9060ff161561360d565b805415611f445760040162010000815461206e60ff8260101c161561364a565b62ff00001916178155630100000063ff0000001982541617905560405160018152827fa953b79a8bda2946b1e815d9e09876df8d499a7d04ace4eccec405ae4a96cf0860203393a3600080805b84600052600a602052604060002054811015611eac57846000526009602052600460408060002087600052600a6020526120f884836000206134f6565b905460039190911b1c6001600160a01b03166000908152602091909152200154601081901c60ff1661212e575b506001016120bb565b9161213a60ff9161354a565b9260181c1661214a575b85612125565b9161215660019161354a565b929050612144565b60405162461bcd60e51b8152602060048201526011602482015270436f6d6d756e697479206f6e676f696e6760781b6044820152606490fd5b60405162461bcd60e51b815260206004820152601860248201527f4f6e6c792063726561746f722063616e2070726f706f736500000000000000006044820152606490fd5b346101ae576121ea366133fb565b908060005260086020526040600020816000526009602052604060002060018060a01b03331660005260205261222c60ff600d604060002093015416156135cb565b60ff6004820154166123f4578251156123b857600201918051926001600160401b038411610de45761225e8154613218565b601f8111612370575b50602093601f81116001146122e65790816122d693927fbf478fda32150efbea16148df9d2dc95245fe55fe761f2bd87b66ce55637b2af95966000916122db575b508160011b916000199060031b1c19161790555b60405191829133835260406020840152604083019061334e565b0390a2005b9050830151876122a8565b601f19811682600052856000209060005b8181106123585750916001917fbf478fda32150efbea16148df9d2dc95245fe55fe761f2bd87b66ce55637b2af9697826122d69796951061233f575b5050811b0190556122bc565b85015160001960f88460031b161c191690558780612333565b858801518355602097880197600190930192016122f7565b816000526020600020601f860160051c810191602087106123ae575b601f0160051c01905b8181106123a25750612267565b60008155600101612395565b909150819061238c565b60405162461bcd60e51b8152602060048201526014602482015273115b5c1d1e481cdd589b5a5cdcda5bdb8815549360621b6044820152606490fd5b60405162461bcd60e51b8152602060048201526011602482015270105b1c9958591e481cdd589b5a5d1d1959607a1b6044820152606490fd5b346101ae5760003660031901126101ae576002546040516001600160a01b039091168152602090f35b346101ae5760403660031901126101ae5761246f6133e5565b600435600052600960205260406000209060018060a01b031660005260205260408060002060ff600181600484015416920154168251911515825215156020820152f35b6101203660031901126101ae576004356001600160401b0381116101ae576124df90369060040161338f565b6024356001600160401b0381116101ae576124fe90369060040161338f565b6044356001600160401b0381116101ae5761251d90369060040161338f565b916064359260a43560c4359160e43560076101043510156101ae574287111561317b5782156131365783156130e65780156130a1578084029084820403611f2e57341061305c57602495600754956125748761354a565b600755600654604051631ce87ebb60e01b8152986020918a919082906001600160a01b03166125a9600483016101043561353d565b5afa978815610e6657600098613028575b506040519561020087018781106001600160401b03821117610de45760405287875260208701526040860152336060860152608085015260843560a085015260c084015260e08301526101008201526064610120820152600061014082015234610160820152600061018082015260006101a0820152600092610104356101c08301526101e0820152818352600860205260408320908051825560208101518051906001600160401b038211612e825781906126796001860154613218565b601f8111612fd8575b50602090601f8311600114612f6a578792612f5f575b50508160011b916000199060031b1c19161760018301555b60408101518051906001600160401b038211612e825781906126d56002860154613218565b601f8111612f0f575b50602090601f8311600114612ea1578792612e96575b50508160011b916000199060031b1c19161760028301555b60608101516003830180546001600160a01b0319166001600160a01b03929092169190911790556080810151600483015560a0810151600583015560c08101518051906001600160401b038211612e8257819061276c6006860154613218565b601f8111612e32575b50602090601f8311600114612dc9578792612dbe575b50508160011b916000199060031b1c19161760068301555b60e0810151600783015561010081015160088301556101208101516009830155610140810151600a830155610160810151600b830155610180810151600c830155600d82016128056101a08301511515829060ff801983541691151516179055565b6101c08201516007811015612daa57815461ff00191660089190911b61ff00161790556101e00151600e919091015560405161284081613252565b73f39fd6e51aad88f6f4ce6ab8827279cfffb9226681527370997970c51812dc3a010c7d01b50e0d17dc79c860208201527370997970c51812dc3a010c7d01b50e0d17dc79c8604082015282906020915b60038110612b4f5750506040516128a78161326d565b42815281810190848252604081019185835261293f604051916128ca8684613289565b878352606084019283528760808501528760a08501528760c08501528760e0850152876101008501528761012085015287610140850152868852600986526040882060018060a01b03331689528652604088209484518655610b036001870192511515839060ff801983541691151516179055565b518051906001600160401b038211612b3b5761295e6002850154613218565b601f8111612af9575b508490601f8311600114612a875792826006936101409360089897968b92612a7c575b50508160011b916000199060031b1c19161760028501555b60808101516003850155612a08600485016129cf60a08401511515829060ff801983541691151516179055565b60c0830151815461ff00191690151560081b61ff001617815560e0830151815462ff0000191690151560101b62ff000016178155610c03565b61012081015160058501550151910155828452600a8152612a2c336040862061356a565b82845252600a6040832001612a41815461354a565b90557f4406e0fd454e0f528174e628e0716cd1972c77f1fffd2faa8d73f468957ff39160405180612a766101043533836135ab565b0390a280f35b015190508a8061298a565b6002850188528588209190601f198416895b818110612ae2575093610140936008989796936001938360069810612ac9575b505050811b0160028501556129a2565b015160001960f88460031b161c191690558a8080612ab9565b929388600181928786015181550195019301612a99565b600285018852858820601f840160051c8101878510612b34575b601f830160051c82018110612b29575050612967565b898155600101612b13565b5080612b13565b634e487b7160e01b87526041600452602487fd5b8385526003835260408520612b78906001600160a01b03612b708486613559565b51169061356a565b604051612b848161326d565b428152838101908682526040810191878352612c2f60405191612ba78884613289565b898352606084019283528960808501528960a0850152600160c08501528960e0850152896101008501528961012085015289610140850152888a526009885260408a2060018060a01b03612bfb888a613559565b511660018060a01b03168b52885260408a209484518655610b036001870192511515839060ff801983541691151516179055565b518051906001600160401b038211612d9657612c4e6002850154613218565b601f8111612d54575b508690601f8311600114612cdf5792826006936101409360019897968d92612cd4575b5050600019600383901b1c191690871b1760028501555b60808101516003850155612cbe600485016129cf60a08401511515829060ff801983541691151516179055565b6101208101516005850155015191015501612891565b015190508c80612c7a565b90600285018a52878a20918a5b89601f1986168210612d3e57505083610140936001989796938993600697601f19811610612d25575b505050811b016002850155612c91565b015160001960f88460031b161c191690558c8080612d15565b6001849582939585015181550194019201612cec565b600285018a52878a20601f840160051c8101898510612d8f575b601f830160051c82018110612d84575050612c57565b8b8155600101612d6e565b5080612d6e565b634e487b7160e01b89526041600452602489fd5b634e487b7160e01b86526021600452602486fd5b01519050868061278b565b6006860188528188209250601f198416885b818110612e1a5750908460019594939210612e01575b505050811b0160068301556127a3565b015160001960f88460031b161c19169055868080612df1565b92936020600181928786015181550195019301612ddb565b90915060068501875260208720601f840160051c810160208510612e7b575b90849392915b601f830160051c82018110612e6d575050612775565b898155859450600101612e57565b5080612e51565b634e487b7160e01b86526041600452602486fd5b0151905086806126f4565b92506002850187528087209087935b601f1984168510612ef4576001945083601f19811610612edb575b505050811b01600283015561270c565b015160001960f88460031b161c19169055868080612ecb565b81810151835560209485019460019093019290910190612eb0565b90915060028501875260208720601f840160051c810160208510612f58575b90849392915b601f830160051c82018110612f4a5750506126de565b898155859450600101612f34565b5080612f2e565b015190508680612698565b92506001850187528087209087935b601f1984168510612fbd576001945083601f19811610612fa4575b505050811b0160018301556126b0565b015160001960f88460031b161c19169055868080612f94565b81810151835560209485019460019093019290910190612f79565b90915060018501875260208720601f840160051c810160208510613021575b90849392915b601f830160051c82018110613013575050612682565b898155859450600101612ffd565b5080612ff7565b9097506020813d602011613054575b8161304460209383613289565b810103126101ae575196886125ba565b3d9150613037565b60405162461bcd60e51b815260206004820152601860248201527f496e73756666696369656e742072657761726420706f6f6c00000000000000006044820152606490fd5b60405162461bcd60e51b815260206004820152601c60248201527f4d6178206d656d62657273206d75737420626520706f736974697665000000006044820152606490fd5b60405162461bcd60e51b815260206004820152602260248201527f52657761726420706572206d656d626572206d75737420626520706f73697469604482015261766560f01b6064820152608490fd5b60405162461bcd60e51b815260206004820152601f60248201527f4d656d626572206465706f736974206d75737420626520706f736974697665006044820152606490fd5b60405162461bcd60e51b815260206004820152601c60248201527f53746172742074696d65206d75737420626520696e20667574757265000000006044820152606490fd5b346101ae5760203660031901126101ae5760043560005260106020526020604060002054604051908152f35b346101ae5760203660031901126101ae57600435600052600d60205261143a61142660406000206132aa565b90600182811c92168015613248575b602083101461323257565b634e487b7160e01b600052602260045260246000fd5b91607f1691613227565b606081019081106001600160401b03821117610de457604052565b61016081019081106001600160401b03821117610de457604052565b90601f801991011681019081106001600160401b03821117610de457604052565b90604051918260008254926132be84613218565b808452936001811690811561332c57506001146132e5575b506132e392500383613289565b565b90506000929192526020600020906000915b8183106133105750509060206132e392820101386132d6565b60209193508060019154838589010152019101909184926132f7565b9050602092506132e394915060ff191682840152151560051b820101386132d6565b919082519283825260005b84811061337a575050826000602080949584010152601f8019910116010190565b80602080928401015182828601015201613359565b81601f820112156101ae578035906001600160401b038211610de457604051926133c3601f8401601f191660200185613289565b828452602083830101116101ae57816000926020809301838601378301015290565b602435906001600160a01b03821682036101ae57565b9060406003198301126101ae5760043591602435906001600160401b0382116101ae5761342a9160040161338f565b90565b8054821015613449576000526003602060002091020190600090565b634e487b7160e01b600052603260045260246000fd5b9060806003198301126101ae57600435916024356001600160a01b03811681036101ae579160443591606435906001600160401b0382116101ae5761342a9160040161338f565b60609060031901126101ae57600435906024356001600160a01b03811681036101ae57906044356001600160a01b03811681036101ae5790565b60409060031901126101ae576004359060243590565b80548210156134495760005260206000200190600090565b6007811015613527576000526001602052604060002090565b634e487b7160e01b600052602160045260246000fd5b9060078210156135275752565b6000198114611f2e5760010190565b9060038110156134495760051b0190565b8054600160401b811015610de457613587916001820181556134f6565b81546001600160a01b0393841660039290921b91821b9390911b1916919091179055565b6001600160a01b0390911681526040810192916132e3916020019061353d565b156135d257565b60405162461bcd60e51b815260206004820152601360248201527210dbdb5b5d5b9a5d1e481a5cc818db1bdcd959606a1b6044820152606490fd5b1561361457565b60405162461bcd60e51b815260206004820152600e60248201526d105b1c9958591e4818db1bdcd95960921b6044820152606490fd5b1561365157565b60405162461bcd60e51b815260206004820152600d60248201526c105b1c9958591e481d9bdd1959609a1b6044820152606490fd5b908160209103126101ae575180151581036101ae5790565b156136a557565b60405162461bcd60e51b815260206004820152601f60248201527f53636f7265206d757374206265206265747765656e203020616e6420313030006044820152606490fd5b91908201809211611f2e57565b8115613701570490565b634e487b7160e01b600052601260045260246000fd5b91908203918211611f2e57565b80600052600860205260406000209080600052600a602052604060002054801561381257600b83019161375f600c84549501948554906136ea565b801561380b578261376f916136f7565b9060005b838110613787575050505090600080925555565b81600052600a6020528261379f8260406000206134f6565b9054600085815260096020908152604080832060039590951b9390931c6001600160a01b0316808352939052206001015460081c60ff16156137e6575b5050600101613773565b60008080938193828215613802575bf115610e665782386137dc565b506108fc6137f5565b5050505050565b50505056fea2646970667358221220e0c9a63424d4974b9d34b1280aa8dd843b1f4988ce2799dca33d47c282ff3b2064736f6c634300081c0033",
  "linkReferences": {},
  "deployedLinkReferences": {}
}