{
  "_format": "hh-sol-artifact-1",
  "contractName": "Senate",
  "sourceName": "contracts/Senate.sol",
  "abi": [
    {
      "inputs": [],
      "stateMutability": "nonpayable",
      "type": "constructor"
    },
    {
      "anonymous": false,
      "inputs": [
        {
          "indexed": true,
          "internalType": "enum CommunityTypes.Category",
          "name": "category",
          "type": "uint8"
        },
        {
          "indexed": false,
          "internalType": "uint256",
          "name": "newScore",
          "type": "uint256"
        }
      ],
      "name": "MinPassScoreUpdated",
      "type": "event"
    },
    {
      "anonymous": false,
      "inputs": [
        {
          "indexed": true,
          "internalType": "enum CommunityTypes.Category",
          "name": "category",
          "type": "uint8"
        },
        {
          "indexed": true,
          "internalType": "address",
          "name": "senator",
          "type": "address"
        }
      ],
      "name": "SenatorElected",
      "type": "event"
    },
    {
      "anonymous": false,
      "inputs": [
        {
          "indexed": true,
          "internalType": "enum CommunityTypes.Category",
          "name": "category",
          "type": "uint8"
        },
        {
          "indexed": true,
          "internalType": "address",
          "name": "senator",
          "type": "address"
        }
      ],
      "name": "SenatorRetired",
      "type": "event"
    },
    {
      "anonymous": false,
      "inputs": [
        {
          "indexed": true,
          "internalType": "enum CommunityTypes.Category",
          "name": "category",
          "type": "uint8"
        },
        {
          "indexed": true,
          "internalType": "address",
          "name": "voter",
          "type": "address"
        },
        {
          "indexed": true,
          "internalType": "address",
          "name": "candidate",
          "type": "address"
        }
      ],
      "name": "VoteCast",
      "type": "event"
    },
    {
      "inputs": [
        {
          "internalType": "address",
          "name": "_senator",
          "type": "address"
        },
        {
          "internalType": "enum CommunityTypes.Category",
          "name": "_category",
          "type": "uint8"
        }
      ],
      "name": "addSenator",
      "outputs": [],
      "stateMutability": "nonpayable",
      "type": "function"
    },
    {
      "inputs": [
        {
          "internalType": "enum CommunityTypes.Category",
          "name": "",
          "type": "uint8"
        }
      ],
      "name": "categoryExists",
      "outputs": [
        {
          "internalType": "bool",
          "name": "",
          "type": "bool"
        }
      ],
      "stateMutability": "view",
      "type": "function"
    },
    {
      "inputs": [
        {
          "internalType": "uint256",
          "name": "",
          "type": "uint256"
        }
      ],
      "name": "categoryNames",
      "outputs": [
        {
          "internalType": "string",
          "name": "",
          "type": "string"
        }
      ],
      "stateMutability": "view",
      "type": "function"
    },
    {
      "inputs": [
        {
          "internalType": "enum CommunityTypes.Category",
          "name": "_category",
          "type": "uint8"
        }
      ],
      "name": "getActiveSenatorCount",
      "outputs": [
        {
          "internalType": "uint256",
          "name": "",
          "type": "uint256"
        }
      ],
      "stateMutability": "view",
      "type": "function"
    },
    {
      "inputs": [
        {
          "internalType": "enum CommunityTypes.Category",
          "name": "_category",
          "type": "uint8"
        }
      ],
      "name": "getCategoryName",
      "outputs": [
        {
          "internalType": "string",
          "name": "",
          "type": "string"
        }
      ],
      "stateMutability": "view",
      "type": "function"
    },
    {
      "inputs": [
        {
          "internalType": "enum CommunityTypes.Category",
          "name": "_category",
          "type": "uint8"
        }
      ],
      "name": "getMinPassScore",
      "outputs": [
        {
          "internalType": "uint256",
          "name": "",
          "type": "uint256"
        }
      ],
      "stateMutability": "view",
      "type": "function"
    },
    {
      "inputs": [
        {
          "internalType": "enum CommunityTypes.Category",
          "name": "",
          "type": "uint8"
        },
        {
          "internalType": "address",
          "name": "",
          "type": "address"
        }
      ],
      "name": "hasVoted",
      "outputs": [
        {
          "internalType": "bool",
          "name": "",
          "type": "bool"
        }
      ],
      "stateMutability": "view",
      "type": "function"
    },
    {
      "inputs": [
        {
          "internalType": "address",
          "name": "_addr",
          "type": "address"
        },
        {
          "internalType": "enum CommunityTypes.Category",
          "name": "_category",
          "type": "uint8"
        }
      ],
      "name": "isSenator",
      "outputs": [
        {
          "internalType": "bool",
          "name": "",
          "type": "bool"
        }
      ],
      "stateMutability": "view",
      "type": "function"
    },
    {
      "inputs": [
        {
          "internalType": "enum CommunityTypes.Category",
          "name": "_category",
          "type": "uint8"
        }
      ],
      "name": "nominate",
      "outputs": [],
      "stateMutability": "nonpayable",
      "type": "function"
    },
    {
      "inputs": [
        {
          "internalType": "enum CommunityTypes.Category",
          "name": "",
          "type": "uint8"
        }
      ],
      "name": "senateConfigs",
      "outputs": [
        {
          "internalType": "uint256",
          "name": "minPassScore",
          "type": "uint256"
        },
        {
          "internalType": "uint256",
          "name": "termDuration",
          "type": "uint256"
        },
        {
          "internalType": "uint256",
          "name": "minVotesToElect",
          "type": "uint256"
        },
        {
          "internalType": "uint256",
          "name": "maxSenators",
          "type": "uint256"
        }
      ],
      "stateMutability": "view",
      "type": "function"
    },
    {
      "inputs": [
        {
          "internalType": "address",
          "name": "",
          "type": "address"
        }
      ],
      "name": "senatorCategories",
      "outputs": [
        {
          "internalType": "enum CommunityTypes.Category",
          "name": "",
          "type": "uint8"
        }
      ],
      "stateMutability": "view",
      "type": "function"
    },
    {
      "inputs": [
        {
          "internalType": "enum CommunityTypes.Category",
          "name": "",
          "type": "uint8"
        },
        {
          "internalType": "uint256",
          "name": "",
          "type": "uint256"
        }
      ],
      "name": "senators",
      "outputs": [
        {
          "internalType": "address",
          "name": "addr",
          "type": "address"
        },
        {
          "internalType": "uint256",
          "name": "votes",
          "type": "uint256"
        },
        {
          "internalType": "uint256",
          "name": "startTime",
          "type": "uint256"
        },
        {
          "internalType": "uint256",
          "name": "endTime",
          "type": "uint256"
        },
        {
          "internalType": "bool",
          "name": "active",
          "type": "bool"
        }
      ],
      "stateMutability": "view",
      "type": "function"
    },
    {
      "inputs": [
        {
          "internalType": "enum CommunityTypes.Category",
          "name": "_category",
          "type": "uint8"
        },
        {
          "internalType": "uint256",
          "name": "_newScore",
          "type": "uint256"
        }
      ],
      "name": "updateMinPassScore",
      "outputs": [],
      "stateMutability": "nonpayable",
      "type": "function"
    },
    {
      "inputs": [
        {
          "internalType": "enum CommunityTypes.Category",
          "name": "_category",
          "type": "uint8"
        },
        {
          "internalType": "uint256",
          "name": "_newMinVotes",
          "type": "uint256"
        }
      ],
      "name": "updateMinVotesToElect",
      "outputs": [],
      "stateMutability": "nonpayable",
      "type": "function"
    },
    {
      "inputs": [
        {
          "internalType": "enum CommunityTypes.Category",
          "name": "_category",
          "type": "uint8"
        },
        {
          "internalType": "uint256",
          "name": "_newDuration",
          "type": "uint256"
        }
      ],
      "name": "updateTermDuration",
      "outputs": [],
      "stateMutability": "nonpayable",
      "type": "function"
    },
    {
      "inputs": [
        {
          "internalType": "enum CommunityTypes.Category",
          "name": "_category",
          "type": "uint8"
        },
        {
          "internalType": "address",
          "name": "_candidate",
          "type": "address"
        }
      ],
      "name": "vote",
      "outputs": [],
      "stateMutability": "nonpayable",
      "type": "function"
    },
    {
      "inputs": [
        {
          "internalType": "enum CommunityTypes.Category",
          "name": "",
          "type": "uint8"
        },
        {
          "internalType": "address",
          "name": "",
          "type": "address"
        }
      ],
      "name": "votedFor",
      "outputs": [
        {
          "internalType": "address",
          "name": "",
          "type": "address"
        }
      ],
      "stateMutability": "view",
      "type": "function"
    }
  ],
  "bytecode": "0x60806040523461038f5760016000526000602052604060002061002b61002582546103b9565b826103f3565b600a644d7573696360d81b019055600260009081526020527fabbb5caa7dda850e60932de0934eb1f9d0f59695050f761dc64e443e5030a569805461006f906103b9565b601f8111610362575b50600662105c9d60ea1b019055600360009081526020527f101e368776582e57ab3d116ffe2517c0a585cd5b23174b01e275c2d8329c3d8380546100bb906103b9565b601f8111610335575b50600c6553706f72747360d01b019055600460009081526020527f52d75039926638d3c558b2bdefb945d5be8dae29dedd1c313212a4d472d9fde5805461010a906103b9565b601f8111610308575b507f456475636174696f6e00000000000000000000000000000000000000000000129055600560009081526020527f2b232c97452f0950c94e2539fdc7e69d21166113cf7a9bcb99b220a3fe5d720a805461016d906103b9565b601f81116102db575b507f546563686e6f6c6f6779000000000000000000000000000000000000000000149055600660009081526020527f62103cf3131c85df57aad364d21cba02556d3092d6cb54c298c2e7726a7870bd80546101d490610025906103b9565b600a6427ba3432b960d91b01905560005b60068111156102ac5760005b600681111561020957604051611010908161042a8239f35b6007811015610296576040516080810191906001600160401b038311818410176102805761027b926040526046815260036020820162ed4e0081526040830160648152606084019160058352604060008781526002602052209451855551600185015551600284015551910155610394565b6101f1565b634e487b7160e01b600052604160045260246000fd5b634e487b7160e01b600052602160045260246000fd5b6007811015610296576102d69060406000828152600160205220600160ff19825416179055610394565b6101e5565b81600052601f6020600020910160051c8101905b8181106102fc5750610176565b600081556001016102ef565b81600052601f6020600020910160051c8101905b8181106103295750610113565b6000815560010161031c565b81600052601f6020600020910160051c8101905b81811061035657506100c4565b60008155600101610349565b81600052601f6020600020910160051c8101905b8181106103835750610078565b60008155600101610376565b600080fd5b60001981146103a35760010190565b634e487b7160e01b600052601160045260246000fd5b90600182811c921680156103e9575b60208310146103d357565b634e487b7160e01b600052602260045260246000fd5b91607f16916103c8565b601f82116103ff575050565b600052601f6020600020910160051c8101905b81811061041d575050565b6000815560010161041256fe6080604052600436101561001257600080fd5b60003560e01c80631178f84114610b0e5780631ce87ebb14610add57806335d335af14610a335780633a60a051146109e05780633e293a6c146109715780633f9a61e0146108e55780634e2ad8ea146107b05780635f16748714610773578063784940c51461073757806387288440146106fb5780638a1943fd1461066b5780639bac92f314610551578063b51bcc0e1461051b578063b81c6453146101cf578063eb2f1610146101ac578063ee0d70f41461014c5763fb716cbd146100d757600080fd5b34610147576100e536610b73565b906100f86100f38233610f50565b610def565b811561010d57610109600291610b92565b0155005b60405162461bcd60e51b8152602060048201526012602482015271125b9d985b1a59081d9bdd194818dbdd5b9d60721b6044820152606490fd5b600080fd5b34610147576020366003190112610147576004356001600160a01b0381169081900361014757600052600460205260ff604060002054166040516007821015610196576020918152f35b634e487b7160e01b600052602160045260246000fd5b346101475760206101c56101bf36610dc0565b90610f50565b6040519015158152f35b34610147576101dd36610c8a565b6101e682610bf6565b336000908152602091909152604090205460ff166104e6576001600160a01b0316903382146104aa5761021881610bab565b90600091825b81548110156104a257846102328284610c0f565b50546001600160a01b03161461024a5760010161021e565b91925080600161025b848094610c0f565b50016102678154610f06565b90556102766001938492610c0f565b500154600261028485610b92565b0154111561034e575b505b156103135761029d81610bf6565b33600090815260209190915260409020805460ff191660011790556102c181610bdd565b3360009081526020919091526040902080546001600160a01b0319168317905560078110156101965733907f8084d6c9657cf625aabd090126fedbc9f3db46379d9518f9591cc324bfa8e62b600080a4005b60405162461bcd60e51b815260206004820152601360248201527210d85b991a59185d19481b9bdd08199bdd5b99606a1b6044820152606490fd5b6103609061035b84610bab565b610c0f565b5060048101805461037460ff821615610e2b565b60008481815b610457575b5050600361038c87610b92565b0154111561041b5760ff1916831790554260028201556103b7826103af85610b92565b015442610f2b565b600382015560018060a01b0381541660005260046020526103dc836040600020610f38565b546001600160a01b0316600783101561019657827ff969f9b89705fe938fd03aaf3f2b546c05fa9212d04edc8753388de4409d1863600080a38361028d565b60405162461bcd60e51b815260206004820152601460248201527313585e081cd95b985d1bdc9cc81c995858da195960621b6044820152606490fd5b61046088610bab565b5481101561049d5760ff60046104798361035b8c610bab565b5001541661048a575b81018161037a565b916104958291610f06565b929050610482565b61037f565b50509061028f565b60405162461bcd60e51b815260206004820152601460248201527321b0b73737ba103b37ba32903337b91039b2b63360611b6044820152606490fd5b60405162461bcd60e51b815260206004820152600d60248201526c105b1c9958591e481d9bdd1959609a1b6044820152606490fd5b346101475760203660031901126101475760043560078110156101475760ff610545602092610bc4565b54166040519015158152f35b346101475761055f36610dc0565b6001600160a01b039091169081156106265781600052600460205260ff604060002054166007811015610196576105969015610e2b565b6105df6105a282610bab565b6105b060016103af85610b92565b90604051916105be83610cb9565b85835260006020840152426040840152606083015260016080830152610e6b565b8160005260046020526105f6816040600020610f38565b6007811015610196577ff969f9b89705fe938fd03aaf3f2b546c05fa9212d04edc8753388de4409d1863600080a3005b60405162461bcd60e51b815260206004820152601760248201527f496e76616c69642073656e61746f7220616464726573730000000000000000006044820152606490fd5b3461014757602036600319011261014757600435600781101561014757610693600091610bab565b80549060005b8281106106ab57602084604051908152f35b60ff60046106b98385610c0f565b50015416806106e4575b6106d0575b600101610699565b926106dc600191610f06565b9390506106c8565b5060036106f18284610c0f565b50015442106106c3565b346101475761071361070c36610c8a565b9190610bf6565b9060018060a01b0316600052602052602060ff604060002054166040519015158152f35b3461014757602036600319011261014757600435600052600060205261076f6107636040600020610ceb565b60405191829182610c41565b0390f35b346101475761078b61078436610c8a565b9190610bdd565b6001600160a01b03918216600090815260209182526040908190205490519216825290f35b346101475760203660031901126101475760043560078110156101475760ff6107d882610bc4565b5416156108ad5733600052600460205260ff604060002054169060078210156101965761080861080d9215610e2b565b610bab565b80549060005b8281106108515761084f826040519061082b82610cb9565b33825260006020830152600060408301526000606083015260006080830152610e6b565b005b61085b8183610c0f565b50546001600160a01b0316331461087457600101610813565b60405162461bcd60e51b8152602060048201526011602482015270105b1c9958591e481b9bdb5a5b985d1959607a1b6044820152606490fd5b60405162461bcd60e51b815260206004820152601060248201526f496e76616c69642063617465676f727960801b6044820152606490fd5b346101475760203660031901126101475760043560078110156101475760ff61090d82610bc4565b54161561092c57600052600060205261076f6107636040600020610ceb565b60405162461bcd60e51b815260206004820152601760248201527f43617465676f727920646f6573206e6f742065786973740000000000000000006044820152606490fd5b346101475761098961098236610b73565b9190610bab565b80548210156101475760a09161099e91610c0f565b50600180831b0381541690600181015490600281015460ff60046003840154930154169260405194855260208501526040840152606083015215156080820152f35b3461014757602036600319011261014757600435600781101561014757610a08608091610b92565b8054906001810154906003600282015491015491604051938452602084015260408301526060820152f35b3461014757610a4136610b73565b610a4e6100f38333610f50565b80151580610ad2575b15610a9d5780610a6683610b92565b5560078210156101965760207fbb28b82677b93f9743c8cb95950ca0ad87f5ca3d90bbb90bcb80f530208189b591604051908152a2005b60405162461bcd60e51b815260206004820152600d60248201526c496e76616c69642073636f726560981b6044820152606490fd5b506064811115610a57565b3461014757602036600319011261014757600435600781101561014757610b05602091610b92565b54604051908152f35b3461014757610b1c36610b73565b90610b2a6100f38233610f50565b8115610b3b57610109600191610b92565b60405162461bcd60e51b815260206004820152601060248201526f24b73b30b634b210323ab930ba34b7b760811b6044820152606490fd5b6040906003190112610147576004356007811015610147579060243590565b6007811015610196576000526002602052604060002090565b6007811015610196576000526003602052604060002090565b6007811015610196576000526001602052604060002090565b6007811015610196576000526006602052604060002090565b6007811015610196576000526005602052604060002090565b8054821015610c2b576000526005602060002091020190600090565b634e487b7160e01b600052603260045260246000fd5b91909160208152825180602083015260005b818110610c74575060409293506000838284010152601f8019910116010190565b8060208092870101516040828601015201610c53565b604090600319011261014757600435600781101561014757906024356001600160a01b03811681036101475790565b60a0810190811067ffffffffffffffff821117610cd557604052565b634e487b7160e01b600052604160045260246000fd5b90604051916000908054908160011c91600181168015610db6575b602084108114610da257838752908115610d845750600114610d49575b5050829003601f01601f1916820167ffffffffffffffff811183821017610cd557604052565b90915060005260206000206000905b828210610d6e5750602091508301013880610d23565b6001816020925483858901015201910190610d58565b9150506020925060ff191682850152151560051b8301013880610d23565b634e487b7160e01b85526022600452602485fd5b92607f1692610d06565b6040906003190112610147576004356001600160a01b0381168103610147579060243560078110156101475790565b15610df657565b60405162461bcd60e51b815260206004820152600d60248201526c2737ba10309039b2b730ba37b960991b6044820152606490fd5b15610e3257565b60405162461bcd60e51b815260206004820152601160248201527020b63932b0b23c90309039b2b730ba37b960791b6044820152606490fd5b805468010000000000000000811015610cd557610e8d91600182018155610c0f565b610ef057600460809160018060a01b0360018060a01b03855116166bffffffffffffffffffffffff60a01b82541617815560208401516001820155604084015160028201556060840151600382015501910151151560ff80198354169116179055565b634e487b7160e01b600052600060045260246000fd5b6000198114610f155760010190565b634e487b7160e01b600052601160045260246000fd5b91908201809211610f1557565b9060078110156101965760ff80198354169116179055565b90610f5a90610bab565b80549160005b838110610f705750505050600090565b610f7a8184610c0f565b50546001600160a01b0383811691161480610fc2575b80610fab575b610fa257600101610f60565b50505050600190565b506003610fb88285610c0f565b5001544210610f96565b5060ff6004610fd18386610c0f565b50015416610f9056fea26469706673582212208a010a7df2b5838504c7912d327764ccd1b4d4ce1d30ad1cd905dd68c335fbc864736f6c634300081c0033",
  "linkReferences": {},
  "deployedLinkReferences": {}
}