{
  "_format": "hh-sol-artifact-1",
  "contractName": "SubmissionManager",
  "sourceName": "contracts/SubmissionManager.sol",
  "abi": [
    {
      "inputs": [
        {
          "internalType": "address",
          "name": "_senateAddress",
          "type": "address"
        }
      ],
      "stateMutability": "nonpayable",
      "type": "constructor"
    },
    {
      "anonymous": false,
      "inputs": [
        {
          "indexed": true,
          "internalType": "uint256",
          "name": "communityId",
          "type": "uint256"
        },
        {
          "indexed": true,
          "internalType": "address",
          "name": "member",
          "type": "address"
        },
        {
          "indexed": false,
          "internalType": "uint256",
          "name": "finalScore",
          "type": "uint256"
        }
      ],
      "name": "FinalScoreCalculated",
      "type": "event"
    },
    {
      "anonymous": false,
      "inputs": [
        {
          "indexed": true,
          "internalType": "uint256",
          "name": "communityId",
          "type": "uint256"
        },
        {
          "indexed": true,
          "internalType": "address",
          "name": "member",
          "type": "address"
        },
        {
          "indexed": true,
          "internalType": "address",
          "name": "senator",
          "type": "address"
        },
        {
          "indexed": false,
          "internalType": "uint256",
          "name": "score",
          "type": "uint256"
        }
      ],
      "name": "ScoreSubmitted",
      "type": "event"
    },
    {
      "anonymous": false,
      "inputs": [
        {
          "indexed": true,
          "internalType": "uint256",
          "name": "communityId",
          "type": "uint256"
        },
        {
          "indexed": true,
          "internalType": "address",
          "name": "member",
          "type": "address"
        },
        {
          "indexed": false,
          "internalType": "string",
          "name": "contentUrl",
          "type": "string"
        }
      ],
      "name": "SubmissionCreated",
      "type": "event"
    },
    {
      "inputs": [
        {
          "internalType": "enum CommunityTypes.Category",
          "name": "",
          "type": "uint8"
        }
      ],
      "name": "categoryExists",
      "outputs": [
        {
          "internalType": "bool",
          "name": "",
          "type": "bool"
        }
      ],
      "stateMutability": "view",
      "type": "function"
    },
    {
      "inputs": [
        {
          "internalType": "uint256",
          "name": "",
          "type": "uint256"
        }
      ],
      "name": "categoryNames",
      "outputs": [
        {
          "internalType": "string",
          "name": "",
          "type": "string"
        }
      ],
      "stateMutability": "view",
      "type": "function"
    },
    {
      "inputs": [
        {
          "internalType": "enum CommunityTypes.Category",
          "name": "_category",
          "type": "uint8"
        }
      ],
      "name": "getCategoryName",
      "outputs": [
        {
          "internalType": "string",
          "name": "",
          "type": "string"
        }
      ],
      "stateMutability": "view",
      "type": "function"
    },
    {
      "inputs": [
        {
          "internalType": "uint256",
          "name": "_communityId",
          "type": "uint256"
        },
        {
          "internalType": "address",
          "name": "_member",
          "type": "address"
        }
      ],
      "name": "getFinalScore",
      "outputs": [
        {
          "internalType": "uint256",
          "name": "",
          "type": "uint256"
        },
        {
          "internalType": "bool",
          "name": "",
          "type": "bool"
        }
      ],
      "stateMutability": "view",
      "type": "function"
    },
    {
      "inputs": [
        {
          "internalType": "uint256",
          "name": "_communityId",
          "type": "uint256"
        },
        {
          "internalType": "address",
          "name": "_member",
          "type": "address"
        },
        {
          "internalType": "address",
          "name": "_senator",
          "type": "address"
        }
      ],
      "name": "getSenatorScore",
      "outputs": [
        {
          "internalType": "uint256",
          "name": "",
          "type": "uint256"
        }
      ],
      "stateMutability": "view",
      "type": "function"
    },
    {
      "inputs": [],
      "name": "senateContract",
      "outputs": [
        {
          "internalType": "contract Senate",
          "name": "",
          "type": "address"
        }
      ],
      "stateMutability": "view",
      "type": "function"
    },
    {
      "inputs": [
        {
          "internalType": "uint256",
          "name": "",
          "type": "uint256"
        },
        {
          "internalType": "address",
          "name": "",
          "type": "address"
        },
        {
          "internalType": "address",
          "name": "",
          "type": "address"
        }
      ],
      "name": "senatorScores",
      "outputs": [
        {
          "internalType": "uint256",
          "name": "",
          "type": "uint256"
        }
      ],
      "stateMutability": "view",
      "type": "function"
    },
    {
      "inputs": [
        {
          "internalType": "uint256",
          "name": "",
          "type": "uint256"
        },
        {
          "internalType": "address",
          "name": "",
          "type": "address"
        },
        {
          "internalType": "uint256",
          "name": "",
          "type": "uint256"
        }
      ],
      "name": "submissionScorers",
      "outputs": [
        {
          "internalType": "address",
          "name": "",
          "type": "address"
        }
      ],
      "stateMutability": "view",
      "type": "function"
    },
    {
      "inputs": [
        {
          "internalType": "uint256",
          "name": "",
          "type": "uint256"
        },
        {
          "internalType": "address",
          "name": "",
          "type": "address"
        }
      ],
      "name": "submissions",
      "outputs": [
        {
          "internalType": "address",
          "name": "member",
          "type": "address"
        },
        {
          "internalType": "uint256",
          "name": "communityId",
          "type": "uint256"
        },
        {
          "internalType": "string",
          "name": "contentUrl",
          "type": "string"
        },
        {
          "internalType": "uint256",
          "name": "submitTime",
          "type": "uint256"
        },
        {
          "internalType": "bool",
          "name": "isScored",
          "type": "bool"
        },
        {
          "internalType": "uint256",
          "name": "finalScore",
          "type": "uint256"
        },
        {
          "internalType": "enum CommunityTypes.Category",
          "name": "category",
          "type": "uint8"
        }
      ],
      "stateMutability": "view",
      "type": "function"
    },
    {
      "inputs": [
        {
          "internalType": "uint256",
          "name": "_communityId",
          "type": "uint256"
        },
        {
          "internalType": "string",
          "name": "_contentUrl",
          "type": "string"
        },
        {
          "internalType": "enum CommunityTypes.Category",
          "name": "_category",
          "type": "uint8"
        }
      ],
      "name": "submitContent",
      "outputs": [],
      "stateMutability": "nonpayable",
      "type": "function"
    },
    {
      "inputs": [
        {
          "internalType": "uint256",
          "name": "_communityId",
          "type": "uint256"
        },
        {
          "internalType": "address",
          "name": "_member",
          "type": "address"
        },
        {
          "internalType": "uint256",
          "name": "_score",
          "type": "uint256"
        }
      ],
      "name": "submitScore",
      "outputs": [],
      "stateMutability": "nonpayable",
      "type": "function"
    }
  ],
  "bytecode": "0x60803461036c57601f61128038819003918201601f19168301916001600160401b038311848410176103715780849260209460405283398101031261036c57516001600160a01b0381169081900361036c5760016000526000602052604060002061007361006d8254610387565b826103c1565b600a644d7573696360d81b019055600260009081526020527fabbb5caa7dda850e60932de0934eb1f9d0f59695050f761dc64e443e5030a56980546100b790610387565b601f811161033f575b50600662105c9d60ea1b019055600360009081526020527f101e368776582e57ab3d116ffe2517c0a585cd5b23174b01e275c2d8329c3d83805461010390610387565b601f8111610312575b50600c6553706f72747360d01b019055600460009081526020527f52d75039926638d3c558b2bdefb945d5be8dae29dedd1c313212a4d472d9fde5805461015290610387565b601f81116102e5575b507f456475636174696f6e00000000000000000000000000000000000000000000129055600560009081526020527f2b232c97452f0950c94e2539fdc7e69d21166113cf7a9bcb99b220a3fe5d720a80546101b590610387565b601f81116102b8575b507f546563686e6f6c6f6779000000000000000000000000000000000000000000149055600660009081526020527f62103cf3131c85df57aad364d21cba02556d3092d6cb54c298c2e7726a7870bd805461021c9061006d90610387565b600a6427ba3432b960d91b01905560005b600681111561025a5750600280546001600160a01b031916919091179055604051610e8890816103f88239f35b60078110156102a25760406000828152600160205220600160ff19825416179055600019811461028c5760010161022d565b634e487b7160e01b600052601160045260246000fd5b634e487b7160e01b600052602160045260246000fd5b81600052601f6020600020910160051c8101905b8181106102d957506101be565b600081556001016102cc565b81600052601f6020600020910160051c8101905b818110610306575061015b565b600081556001016102f9565b81600052601f6020600020910160051c8101905b818110610333575061010c565b60008155600101610326565b81600052601f6020600020910160051c8101905b81811061036057506100c0565b60008155600101610353565b600080fd5b634e487b7160e01b600052604160045260246000fd5b90600182811c921680156103b7575b60208310146103a157565b634e487b7160e01b600052602260045260246000fd5b91607f1691610396565b601f82116103cd575050565b600052601f6020600020910160051c8101905b8181106103eb575050565b600081556001016103e056fe6080604052600436101561001257600080fd5b60003560e01c80630317a6a314610bd45780630504429b146108495780630e4dbf5c1461079757806329d8e857146102765780633f9a61e0146101ea57806349e97bf7146100955780635d85fa18146101c1578063784940c51461017d578063818c43681461011f578063b51bcc0e146100e95763eedfae641461009557600080fd5b346100e4576100a336610dd1565b91600052600460205260406000209060018060a01b031660005260205260406000209060018060a01b03166000526020526020604060002054604051908152f35b600080fd5b346100e45760203660031901126100e45760043560078110156100e45760ff610113602092610e39565b54166040519015158152f35b346100e45761012d36610da7565b91600052600560205260406000209060018060a01b0316600052602052604060002080548210156100e45760209161016491610e0b565b905460405160039290921b1c6001600160a01b03168152f35b346100e45760203660031901126100e45760043560005260006020526101bd6101a96040600020610c9f565b604051918291602083526020830190610d43565b0390f35b346100e45760003660031901126100e4576002546040516001600160a01b039091168152602090f35b346100e45760203660031901126100e45760043560078110156100e45760ff61021282610e39565b5416156102315760005260006020526101bd6101a96040600020610c9f565b60405162461bcd60e51b815260206004820152601760248201527f43617465676f727920646f6573206e6f742065786973740000000000000000006044820152606490fd5b346100e45761028436610da7565b9190816000526003602052604060002060018060a01b038216600052602052604060002060038101541561075b576004015460ff1661072557606483116106e057816000526003602052604060002060018060a01b03821660005260205260ff600660406000200154166020610323604460018060a01b0360025416936040519485938492630eb2f16160e41b84523360048501526024840190610d84565b5afa9081156105f95760009161069e575b50156106605760008281526004602090815260408083206001600160a01b0385168452825280832033845290915290205461061b5760008281526004602090815260408083206001600160a01b0385168085529083528184203385528352818420879055858452600583528184209084529091529020805468010000000000000000811015610605576103cc91600182018155610e0b565b81549060031b9033821b9160018060a01b03901b191617905560018060a01b03169160405190815282827f378f514d49e4abb7486bee29952af6519de11cb70a74cd68479f52457b0518f760203394a480600052600360205260406000208260005260205260ff60066040600020015416602061046c602460018060a01b0360025416936040519485938492638a1943fd60e01b84526004840190610d84565b5afa9081156105f9576000916105c7575b5081600052600560205260406000208360005260205260406000205410156104a157005b80600052600560205260406000208260005260205260406000206000808254925b8382106105595750508115610543577f2f0b17ded3481ee6aacbefb24a3e74b8e7c0a3aac8d9b7ca5dc4df68027efd8d91602091048360005260038252604060002085600052825280600560406000200155836000526003825260406000208560005282526004604060002001600160ff19825416179055604051908152a3005b634e487b7160e01b600052601260045260246000fd5b9091846000526004602052604080806000206000908982526020522061057f8585610e0b565b905460039190911b1c6001600160a01b03166000908152602091909152205481019081106105b15791600101906104c2565b634e487b7160e01b600052601160045260246000fd5b90506020813d6020116105f1575b816105e260209383610c43565b810103126100e457518361047d565b3d91506105d5565b6040513d6000823e3d90fd5b634e487b7160e01b600052604160045260246000fd5b60405162461bcd60e51b815260206004820152601e60248201527f416c72656164792073636f72656420627920746869732073656e61746f7200006044820152606490fd5b60405162461bcd60e51b81526020600482015260166024820152752737ba1030baba3437b934bd32b21039b2b730ba37b960511b6044820152606490fd5b6020813d6020116106d8575b816106b760209383610c43565b810103126106d457519081151582036106d1575084610334565b80fd5b5080fd5b3d91506106aa565b60405162461bcd60e51b815260206004820152601f60248201527f53636f7265206d757374206265206265747765656e203020616e6420313030006044820152606490fd5b60405162461bcd60e51b815260206004820152600e60248201526d105b1c9958591e481cd8dbdc995960921b6044820152606490fd5b60405162461bcd60e51b815260206004820152601460248201527314dd589b5a5cdcda5bdb881b9bdd08199bdd5b9960621b6044820152606490fd5b346100e45760403660031901126100e45760406107b2610c2d565b6004356000908152600360209081528382206001600160a01b039384168352905291909120805460018201549216906101bd6107f060028301610c9f565b60038301549260ff60048201541661082d60ff6006600585015494015416936040519889988952602089015260e0604089015260e0880190610d43565b9460608701521515608086015260a085015260c0840190610d84565b346100e45760603660031901126100e45760043560243567ffffffffffffffff81116100e457366023820112156100e457806004013567ffffffffffffffff811161060557604051916108a6601f8301601f191660200184610c43565b81835236602483830101116100e4578160009260246020930183860137830101526044359060078210156100e457805115610b8f57600083815260036020908152604080832033845290915290206004015460ff16610b4a576040519260e0840184811067ffffffffffffffff8211176106055760405233845260208401818152604085019483865260608101428152608082016000815260a08301916000835260c0840194600098865286895260036020526040892060018060a01b0333168a52602052604089209460018060a01b039051166bffffffffffffffffffffffff60a01b86541617855551600185015560028401985198895167ffffffffffffffff8111610b36576109b88254610c65565b601f8111610af1575b506020601f8211600114610a895781908b9c6006999a9b9c92610a7e575b50508160011b916000199060031b1c19161790555b516003840155600483019051151560ff801983541691161790555160058201550190516007811015610a6a5760ff801983541691161790557f72075524713934864c8a8ff2740c94cd50c441bf186d8ffd9b908ca8dbb4776d6040516020815280610a6433956020830190610d43565b0390a380f35b634e487b7160e01b85526021600452602485fd5b015190508c806109df565b828b52808b209b601f1983168c5b818110610ad95750916006999a9b9c9d91846001959410610ac0575b505050811b0190556109f4565b015160001960f88460031b161c191690558c8080610ab3565b838301518f556001909e019d60209384019301610a97565b828b5260208b20601f830160051c81019160208410610b2c575b601f0160051c01905b818110610b2157506109c1565b8b8155600101610b14565b9091508190610b0b565b634e487b7160e01b8a52604160045260248afd5b60405162461bcd60e51b815260206004820152601c60248201527f416c7265616479207375626d697474656420616e642073636f726564000000006044820152606490fd5b60405162461bcd60e51b815260206004820152601b60248201527f436f6e74656e742055524c2063616e6e6f7420626520656d70747900000000006044820152606490fd5b346100e45760403660031901126100e457610bed610c2d565b600435600052600360205260406000209060018060a01b031660005260205260408060002060ff6004600583015492015416825191825215156020820152f35b602435906001600160a01b03821682036100e457565b90601f8019910116810190811067ffffffffffffffff82111761060557604052565b90600182811c92168015610c95575b6020831014610c7f57565b634e487b7160e01b600052602260045260246000fd5b91607f1691610c74565b9060405191826000825492610cb384610c65565b8084529360018116908115610d215750600114610cda575b50610cd892500383610c43565b565b90506000929192526020600020906000915b818310610d05575050906020610cd89282010138610ccb565b6020919350806001915483858901015201910190918492610cec565b905060209250610cd894915060ff191682840152151560051b82010138610ccb565b919082519283825260005b848110610d6f575050826000602080949584010152601f8019910116010190565b80602080928401015182828601015201610d4e565b906007821015610d915752565b634e487b7160e01b600052602160045260246000fd5b60609060031901126100e457600435906024356001600160a01b03811681036100e4579060443590565b60609060031901126100e457600435906024356001600160a01b03811681036100e457906044356001600160a01b03811681036100e45790565b8054821015610e235760005260206000200190600090565b634e487b7160e01b600052603260045260246000fd5b6007811015610d9157600052600160205260406000209056fea264697066735822122008e129222f78c5d2787860424e8efd4b04b251e3a2c4e92769f3f41eb9d8d89b64736f6c634300081c0033",
  "linkReferences": {},
  "deployedLinkReferences": {}
}