{
  "_format": "hh-sol-artifact-1",
  "contractName": "SubmissionManager",
  "sourceName": "contracts/SubmissionManager.sol",
  "abi": [
    {
      "inputs": [
        {
          "internalType": "address",
          "name": "_senateAddress",
          "type": "address"
        }
      ],
      "stateMutability": "nonpayable",
      "type": "constructor"
    },
    {
      "anonymous": false,
      "inputs": [
        {
          "indexed": true,
          "internalType": "uint256",
          "name": "communityId",
          "type": "uint256"
        },
        {
          "indexed": true,
          "internalType": "address",
          "name": "member",
          "type": "address"
        },
        {
          "indexed": false,
          "internalType": "uint256",
          "name": "finalScore",
          "type": "uint256"
        }
      ],
      "name": "FinalScoreCalculated",
      "type": "event"
    },
    {
      "anonymous": false,
      "inputs": [
        {
          "indexed": true,
          "internalType": "uint256",
          "name": "communityId",
          "type": "uint256"
        },
        {
          "indexed": true,
          "internalType": "address",
          "name": "member",
          "type": "address"
        },
        {
          "indexed": true,
          "internalType": "address",
          "name": "senator",
          "type": "address"
        },
        {
          "indexed": false,
          "internalType": "uint256",
          "name": "score",
          "type": "uint256"
        }
      ],
      "name": "ScoreSubmitted",
      "type": "event"
    },
    {
      "anonymous": false,
      "inputs": [
        {
          "indexed": true,
          "internalType": "uint256",
          "name": "communityId",
          "type": "uint256"
        },
        {
          "indexed": true,
          "internalType": "address",
          "name": "member",
          "type": "address"
        },
        {
          "indexed": false,
          "internalType": "string",
          "name": "contentUrl",
          "type": "string"
        }
      ],
      "name": "SubmissionCreated",
      "type": "event"
    },
    {
      "inputs": [],
      "name": "INITIAL_REPUTATION",
      "outputs": [
        {
          "internalType": "uint256",
          "name": "",
          "type": "uint256"
        }
      ],
      "stateMutability": "view",
      "type": "function"
    },
    {
      "inputs": [],
      "name": "MIN_SCORES_REQUIRED",
      "outputs": [
        {
          "internalType": "uint256",
          "name": "",
          "type": "uint256"
        }
      ],
      "stateMutability": "view",
      "type": "function"
    },
    {
      "inputs": [],
      "name": "REPUTATION_DECREASE",
      "outputs": [
        {
          "internalType": "uint256",
          "name": "",
          "type": "uint256"
        }
      ],
      "stateMutability": "view",
      "type": "function"
    },
    {
      "inputs": [],
      "name": "REPUTATION_INCREASE",
      "outputs": [
        {
          "internalType": "uint256",
          "name": "",
          "type": "uint256"
        }
      ],
      "stateMutability": "view",
      "type": "function"
    },
    {
      "inputs": [
        {
          "internalType": "enum CommunityTypes.Category",
          "name": "",
          "type": "uint8"
        }
      ],
      "name": "categoryExists",
      "outputs": [
        {
          "internalType": "bool",
          "name": "",
          "type": "bool"
        }
      ],
      "stateMutability": "view",
      "type": "function"
    },
    {
      "inputs": [
        {
          "internalType": "uint256",
          "name": "",
          "type": "uint256"
        }
      ],
      "name": "categoryNames",
      "outputs": [
        {
          "internalType": "string",
          "name": "",
          "type": "string"
        }
      ],
      "stateMutability": "view",
      "type": "function"
    },
    {
      "inputs": [
        {
          "internalType": "enum CommunityTypes.Category",
          "name": "_category",
          "type": "uint8"
        }
      ],
      "name": "getCategoryName",
      "outputs": [
        {
          "internalType": "string",
          "name": "",
          "type": "string"
        }
      ],
      "stateMutability": "view",
      "type": "function"
    },
    {
      "inputs": [
        {
          "internalType": "uint256",
          "name": "_communityId",
          "type": "uint256"
        },
        {
          "internalType": "address",
          "name": "_member",
          "type": "address"
        }
      ],
      "name": "getFinalScore",
      "outputs": [
        {
          "internalType": "uint256",
          "name": "",
          "type": "uint256"
        },
        {
          "internalType": "bool",
          "name": "",
          "type": "bool"
        }
      ],
      "stateMutability": "view",
      "type": "function"
    },
    {
      "inputs": [
        {
          "internalType": "uint256",
          "name": "_communityId",
          "type": "uint256"
        },
        {
          "internalType": "address",
          "name": "_member",
          "type": "address"
        },
        {
          "internalType": "address",
          "name": "_senator",
          "type": "address"
        }
      ],
      "name": "getSenatorScore",
      "outputs": [
        {
          "internalType": "uint256",
          "name": "",
          "type": "uint256"
        }
      ],
      "stateMutability": "view",
      "type": "function"
    },
    {
      "inputs": [
        {
          "internalType": "address",
          "name": "",
          "type": "address"
        }
      ],
      "name": "scorerInfo",
      "outputs": [
        {
          "internalType": "uint256",
          "name": "reputation",
          "type": "uint256"
        },
        {
          "internalType": "uint256",
          "name": "totalScores",
          "type": "uint256"
        },
        {
          "internalType": "bool",
          "name": "isInitialized",
          "type": "bool"
        }
      ],
      "stateMutability": "view",
      "type": "function"
    },
    {
      "inputs": [],
      "name": "senateContract",
      "outputs": [
        {
          "internalType": "contract Senate",
          "name": "",
          "type": "address"
        }
      ],
      "stateMutability": "view",
      "type": "function"
    },
    {
      "inputs": [
        {
          "internalType": "uint256",
          "name": "",
          "type": "uint256"
        },
        {
          "internalType": "address",
          "name": "",
          "type": "address"
        },
        {
          "internalType": "address",
          "name": "",
          "type": "address"
        }
      ],
      "name": "senatorScores",
      "outputs": [
        {
          "internalType": "uint256",
          "name": "",
          "type": "uint256"
        }
      ],
      "stateMutability": "view",
      "type": "function"
    },
    {
      "inputs": [
        {
          "internalType": "uint256",
          "name": "",
          "type": "uint256"
        },
        {
          "internalType": "address",
          "name": "",
          "type": "address"
        },
        {
          "internalType": "uint256",
          "name": "",
          "type": "uint256"
        }
      ],
      "name": "submissionScorers",
      "outputs": [
        {
          "internalType": "address",
          "name": "",
          "type": "address"
        }
      ],
      "stateMutability": "view",
      "type": "function"
    },
    {
      "inputs": [
        {
          "internalType": "uint256",
          "name": "",
          "type": "uint256"
        },
        {
          "internalType": "address",
          "name": "",
          "type": "address"
        }
      ],
      "name": "submissions",
      "outputs": [
        {
          "internalType": "address",
          "name": "member",
          "type": "address"
        },
        {
          "internalType": "uint256",
          "name": "communityId",
          "type": "uint256"
        },
        {
          "internalType": "string",
          "name": "contentUrl",
          "type": "string"
        },
        {
          "internalType": "uint256",
          "name": "submitTime",
          "type": "uint256"
        },
        {
          "internalType": "bool",
          "name": "isScored",
          "type": "bool"
        },
        {
          "internalType": "uint256",
          "name": "finalScore",
          "type": "uint256"
        },
        {
          "internalType": "enum CommunityTypes.Category",
          "name": "category",
          "type": "uint8"
        }
      ],
      "stateMutability": "view",
      "type": "function"
    },
    {
      "inputs": [
        {
          "internalType": "uint256",
          "name": "_communityId",
          "type": "uint256"
        },
        {
          "internalType": "string",
          "name": "_contentUrl",
          "type": "string"
        },
        {
          "internalType": "enum CommunityTypes.Category",
          "name": "_category",
          "type": "uint8"
        }
      ],
      "name": "submitContent",
      "outputs": [],
      "stateMutability": "nonpayable",
      "type": "function"
    },
    {
      "inputs": [
        {
          "internalType": "uint256",
          "name": "_communityId",
          "type": "uint256"
        },
        {
          "internalType": "address",
          "name": "_member",
          "type": "address"
        },
        {
          "internalType": "uint256",
          "name": "_score",
          "type": "uint256"
        }
      ],
      "name": "submitScore",
      "outputs": [],
      "stateMutability": "nonpayable",
      "type": "function"
    }
  ],
  "bytecode": "0x60803461036c57601f61188238819003918201601f19168301916001600160401b038311848410176103715780849260209460405283398101031261036c57516001600160a01b0381169081900361036c5760016000526000602052604060002061007361006d8254610387565b826103c1565b600a644d7573696360d81b019055600260009081526020527fabbb5caa7dda850e60932de0934eb1f9d0f59695050f761dc64e443e5030a56980546100b790610387565b601f811161033f575b50600662105c9d60ea1b019055600360009081526020527f101e368776582e57ab3d116ffe2517c0a585cd5b23174b01e275c2d8329c3d83805461010390610387565b601f8111610312575b50600c6553706f72747360d01b019055600460009081526020527f52d75039926638d3c558b2bdefb945d5be8dae29dedd1c313212a4d472d9fde5805461015290610387565b601f81116102e5575b507f456475636174696f6e00000000000000000000000000000000000000000000129055600560009081526020527f2b232c97452f0950c94e2539fdc7e69d21166113cf7a9bcb99b220a3fe5d720a80546101b590610387565b601f81116102b8575b507f546563686e6f6c6f6779000000000000000000000000000000000000000000149055600660009081526020527f62103cf3131c85df57aad364d21cba02556d3092d6cb54c298c2e7726a7870bd805461021c9061006d90610387565b600a6427ba3432b960d91b01905560005b600681111561025a5750600280546001600160a01b03191691909117905560405161148a90816103f88239f35b60078110156102a25760406000828152600160205220600160ff19825416179055600019811461028c5760010161022d565b634e487b7160e01b600052601160045260246000fd5b634e487b7160e01b600052602160045260246000fd5b81600052601f6020600020910160051c8101905b8181106102d957506101be565b600081556001016102cc565b81600052601f6020600020910160051c8101905b818110610306575061015b565b600081556001016102f9565b81600052601f6020600020910160051c8101905b818110610333575061010c565b60008155600101610326565b81600052601f6020600020910160051c8101905b81811061036057506100c0565b60008155600101610353565b600080fd5b634e487b7160e01b600052604160045260246000fd5b90600182811c921680156103b7575b60208310146103a157565b634e487b7160e01b600052602260045260246000fd5b91607f1691610396565b601f82116103cd575050565b600052601f6020600020910160051c8101905b8181106103eb575050565b600081556001016103e056fe6080604052600436101561001257600080fd5b60003560e01c80630317a6a3146110e45780630504429b14610d545780630e4dbf5c14610ca257806329d8e857146103785780633f9a61e0146102ec57806349e97bf7146100cc5780635c4fe6ca146102925780635d85fa1814610269578063784940c5146102255780637b05725814610208578063818c4368146101aa578063aac38d8c1461018e578063b51bcc0e14610158578063cb66a0f31461013c578063e6fc2d8a146101205763eedfae64146100cc57600080fd5b3461011b576100da366112e1565b91600052600460205260406000209060018060a01b031660005260205260406000209060018060a01b03166000526020526020604060002054604051908152f35b600080fd5b3461011b57600036600319011261011b57602060405160328152f35b3461011b57600036600319011261011b57602060405160038152f35b3461011b57602036600319011261011b57600435600781101561011b5760ff610182602092611349565b54166040519015158152f35b3461011b57600036600319011261011b576020604051600a8152f35b3461011b576101b8366112b7565b91600052600560205260406000209060018060a01b03166000526020526040600020805482101561011b576020916101ef9161131b565b905460405160039290921b1c6001600160a01b03168152f35b3461011b57600036600319011261011b5760206040516103e88152f35b3461011b57602036600319011261011b57600435600052600060205261026561025160406000206111af565b604051918291602083526020830190611253565b0390f35b3461011b57600036600319011261011b576002546040516001600160a01b039091168152602090f35b3461011b57602036600319011261011b576004356001600160a01b0381169081900361011b5760005260066020526060604060002080549060ff600260018301549201541690604051928352602083015215156040820152f35b3461011b57602036600319011261011b57600435600781101561011b5760ff61031482611349565b54161561033357600052600060205261026561025160406000206111af565b60405162461bcd60e51b815260206004820152601760248201527f43617465676f727920646f6573206e6f742065786973740000000000000000006044820152606490fd5b3461011b57610386366112b7565b9190816000526003602052604060002060018060a01b0382166000526020526040600020600381015415610c66576004015460ff16610c305760648311610beb57816000526003602052604060002060018060a01b03821660005260205260ff600660406000200154166020610425604460018060a01b0360025416936040519485938492630eb2f16160e41b84523360048501526024840190611294565b5afa908115610b1a57600091610ba9575b5015610b6b5760008281526004602090815260408083206001600160a01b03851684528252808320338452909152902054610b265760008281526004602090815260408083206001600160a01b0385168085529083528184203385528352818420879055858452600583528184209084529091529020805468010000000000000000811015610738576104ce9160018201815561131b565b81549060031b9033821b9160018060a01b03901b191617905560018060a01b03169160405190815282827f378f514d49e4abb7486bee29952af6519de11cb70a74cd68479f52457b0518f760203394a480600052600360205260406000208260005260205260ff60066040600020015416602061056e602460018060a01b0360025416936040519485938492638a1943fd60e01b84526004840190611294565b5afa908115610b1a57600091610ae8575b5081600052600560205260406000208360005260205260406000205410156105a357005b8060005260056020526040806000206000908482526020522091825460038110610aaa576105d96105d38261137a565b9161137a565b9060009260005b865481101561074e576105f3818861131b565b60018060a01b0391549060031b1c169485600052600660205260ff60026040600020015416156106c5575b600087815260046020908152604080832086845282528083206001600160a01b038a168452909152902054610684919061065884876113ac565b5286600052600660205260406000205461067284886113ac565b5261067d83876113ac565b51906113c0565b94600052600660205260016040600020019081549160001983146106af5760018093019055016105e0565b634e487b7160e01b600052601160045260246000fd5b604051906060820182811067ffffffffffffffff8211176107385761068492610731916040526103e88152600260208201600081526040830190600182528b600052600660205260406000209351845551600184015551151591019060ff801983541691151516179055565b905061061e565b634e487b7160e01b600052604160045260246000fd5b5094929390946000936000945b87518610156107975761078f600191610789610777898c6113ac565b516107828a8a6113ac565b51906113cd565b906113c0565b95019461075b565b6107a6929691939795506113e0565b90600092835b855185101561083757600190846107c387896113ac565b511115610802576107f9906107896107e5876107df8a8c6113ac565b51611400565b6107f3886107df8b8d6113ac565b906113cd565b945b01936107ac565b6108319061078961081d610816898b6113ac565b5188611400565b6107f361082a8a8c6113ac565b5189611400565b946107fb565b610853919593945061084e909692968451906113e0565b61140d565b936000918290600187901b906001600160ff1b03881688141590835b8751811015610a255782610883828a6113ac565b51906106af57610893858b6113c0565b101580610a02575b6108a8575b60010161086f565b95936108c96108d4916107896108be8a8c6113ac565b516107828b8b6113ac565b9461067d88886113ac565b95886108e0828a6113ac565b5111156109e857896108f68a6107df848c6113ac565b1161093b57610905818c61131b565b60018060a01b0391549060031b1c1660005260066020526040600020908154603281018091116106af57600192555b90506108a0565b610945818c61131b565b905460039190911b1c6001600160a01b03166000908152600660205260408120549091908c90600a116109db578192509061097f9161131b565b905460039190911b1c6001600160a01b03166000908152600660205260409020546009198101919082116106af576001916109ba828e61131b565b848060a01b0391549060031b1c166000526006602052604060002055610934565b6109ba826001949261131b565b896109fd6109f6838b6113ac565b518b611400565b6108f6565b509150610a0f82886113ac565b5191600092610a1e858b611400565b111561089b565b50999850505090507f2f0b17ded3481ee6aacbefb24a3e74b8e7c0a3aac8d9b7ca5dc4df68027efd8d945060209350610a5e92506113e0565b8360005260038252604060002085600052825280600560406000200155836000526003825260406000208560005282526004604060002001600160ff19825416179055604051908152a3005b60405162461bcd60e51b81526020600482015260166024820152754e656564206174206c6561737420332073636f72657360501b6044820152606490fd5b90506020813d602011610b12575b81610b0360209383611153565b8101031261011b57518361057f565b3d9150610af6565b6040513d6000823e3d90fd5b60405162461bcd60e51b815260206004820152601e60248201527f416c72656164792073636f72656420627920746869732073656e61746f7200006044820152606490fd5b60405162461bcd60e51b81526020600482015260166024820152752737ba1030baba3437b934bd32b21039b2b730ba37b960511b6044820152606490fd5b6020813d602011610be3575b81610bc260209383611153565b81010312610bdf5751908115158203610bdc575084610436565b80fd5b5080fd5b3d9150610bb5565b60405162461bcd60e51b815260206004820152601f60248201527f53636f7265206d757374206265206265747765656e203020616e6420313030006044820152606490fd5b60405162461bcd60e51b815260206004820152600e60248201526d105b1c9958591e481cd8dbdc995960921b6044820152606490fd5b60405162461bcd60e51b815260206004820152601460248201527314dd589b5a5cdcda5bdb881b9bdd08199bdd5b9960621b6044820152606490fd5b3461011b57604036600319011261011b576040610cbd61113d565b6004356000908152600360209081528382206001600160a01b03938416835290529190912080546001820154921690610265610cfb600283016111af565b60038301549260ff600482015416610d3860ff6006600585015494015416936040519889988952602089015260e0604089015260e0880190611253565b9460608701521515608086015260a085015260c0840190611294565b3461011b57606036600319011261011b5760043560243567ffffffffffffffff811161011b573660238201121561011b57806004013567ffffffffffffffff81116107385760405191610db1601f8301601f191660200184611153565b818352366024838301011161011b5781600092602460209301838601378301015260443591600783101561011b5781511561109f57600081815260036020908152604080832033845290915290206004015460ff1661105a5760405160e0810181811067ffffffffffffffff821117610738576040908152338083526020808401858152848401878152426060870190815260006080880181815260a0890182815260c08a019c8d528a83526003875288832097835296909552958620965187546001600160a01b0319166001600160a01b03919091161787559151600187015551805194989594600286019167ffffffffffffffff821161104657610eb78354611175565b601f8111611001575b506020908b601f8411600114610f935792600698979694928192610f18979592610f88575b50508160011b916000199060031b1c19161790555b516003850155511515600484019060ff801983541691151516179055565b5160058201550190516007811015610f745760ff801983541691161790557f72075524713934864c8a8ff2740c94cd50c441bf186d8ffd9b908ca8dbb4776d6040516020815280610f6e33956020830190611253565b0390a380f35b634e487b7160e01b85526021600452602485fd5b015190508d80610ee5565b50838c52818c209190601f1984168d5b818110610fe95750926001928592610f18989660069c9b9a989610610fd0575b505050811b019055610efa565b015160001960f88460031b161c191690558d8080610fc3565b92936020600181928786015181550195019301610fa3565b838c5260208c20601f840160051c8101916020851061103c575b601f0160051c01905b8181106110315750610ec0565b8c8155600101611024565b909150819061101b565b634e487b7160e01b8b52604160045260248bfd5b60405162461bcd60e51b815260206004820152601c60248201527f416c7265616479207375626d697474656420616e642073636f726564000000006044820152606490fd5b60405162461bcd60e51b815260206004820152601b60248201527f436f6e74656e742055524c2063616e6e6f7420626520656d70747900000000006044820152606490fd5b3461011b57604036600319011261011b576110fd61113d565b600435600052600360205260406000209060018060a01b031660005260205260408060002060ff6004600583015492015416825191825215156020820152f35b602435906001600160a01b038216820361011b57565b90601f8019910116810190811067ffffffffffffffff82111761073857604052565b90600182811c921680156111a5575b602083101461118f57565b634e487b7160e01b600052602260045260246000fd5b91607f1691611184565b90604051918260008254926111c384611175565b808452936001811690811561123157506001146111ea575b506111e892500383611153565b565b90506000929192526020600020906000915b8183106112155750509060206111e892820101386111db565b60209193508060019154838589010152019101909184926111fc565b9050602092506111e894915060ff191682840152151560051b820101386111db565b919082519283825260005b84811061127f575050826000602080949584010152601f8019910116010190565b8060208092840101518282860101520161125e565b9060078210156112a15752565b634e487b7160e01b600052602160045260246000fd5b606090600319011261011b57600435906024356001600160a01b038116810361011b579060443590565b606090600319011261011b57600435906024356001600160a01b038116810361011b57906044356001600160a01b038116810361011b5790565b80548210156113335760005260206000200190600090565b634e487b7160e01b600052603260045260246000fd5b60078110156112a1576000526001602052604060002090565b67ffffffffffffffff81116107385760051b60200190565b9061138482611362565b6113916040519182611153565b82815280926113a2601f1991611362565b0190602036910137565b80518210156113335760209160051b010190565b919082018092116106af57565b818102929181159184041417156106af57565b81156113ea570490565b634e487b7160e01b600052601260045260246000fd5b919082039182116106af57565b801561144e57600181018082116106af5760011c815b82821061142f57505090565b9091506114458261144081846113e0565b6113c0565b60011c90611423565b5060009056fea26469706673582212201eb64931eff4e264db8e7f87ae27d75a6ee21376f2f36d950c0e8bb5346e9d1c64736f6c634300081c0033",
  "linkReferences": {},
  "deployedLinkReferences": {}
}