{
  "_format": "hh-sol-artifact-1",
  "contractName": "Lock",
  "sourceName": "contracts/Lock.sol",
  "abi": [
    {
      "inputs": [
        {
          "internalType": "address",
          "name": "_tokenAddress",
          "type": "address"
        },
        {
          "internalType": "address",
          "name": "_communityAddress",
          "type": "address"
        }
      ],
      "stateMutability": "nonpayable",
      "type": "constructor"
    },
    {
      "anonymous": false,
      "inputs": [
        {
          "indexed": true,
          "internalType": "address",
          "name": "user",
          "type": "address"
        },
        {
          "indexed": true,
          "internalType": "uint256",
          "name": "communityId",
          "type": "uint256"
        },
        {
          "indexed": false,
          "internalType": "uint256",
          "name": "amount",
          "type": "uint256"
        }
      ],
      "name": "TokensStaked",
      "type": "event"
    },
    {
      "anonymous": false,
      "inputs": [
        {
          "indexed": true,
          "internalType": "address",
          "name": "user",
          "type": "address"
        },
        {
          "indexed": true,
          "internalType": "uint256",
          "name": "communityId",
          "type": "uint256"
        },
        {
          "indexed": false,
          "internalType": "uint256",
          "name": "amount",
          "type": "uint256"
        }
      ],
      "name": "TokensUnstaked",
      "type": "event"
    },
    {
      "inputs": [],
      "name": "communityContract",
      "outputs": [
        {
          "internalType": "contract GoalOrientedCommunity",
          "name": "",
          "type": "address"
        }
      ],
      "stateMutability": "view",
      "type": "function"
    },
    {
      "inputs": [
        {
          "internalType": "uint256",
          "name": "_communityId",
          "type": "uint256"
        },
        {
          "internalType": "uint256",
          "name": "_amount",
          "type": "uint256"
        }
      ],
      "name": "stake",
      "outputs": [],
      "stateMutability": "nonpayable",
      "type": "function"
    },
    {
      "inputs": [
        {
          "internalType": "address",
          "name": "",
          "type": "address"
        }
      ],
      "name": "stakes",
      "outputs": [
        {
          "internalType": "uint256",
          "name": "communityId",
          "type": "uint256"
        },
        {
          "internalType": "uint256",
          "name": "amount",
          "type": "uint256"
        },
        {
          "internalType": "uint256",
          "name": "timestamp",
          "type": "uint256"
        }
      ],
      "stateMutability": "view",
      "type": "function"
    },
    {
      "inputs": [],
      "name": "stakingToken",
      "outputs": [
        {
          "internalType": "contract IERC20",
          "name": "",
          "type": "address"
        }
      ],
      "stateMutability": "view",
      "type": "function"
    },
    {
      "inputs": [],
      "name": "unstake",
      "outputs": [],
      "stateMutability": "nonpayable",
      "type": "function"
    }
  ],
  "bytecode": "0x608034608657601f61062638819003918201601f19168301916001600160401b03831184841017608b578084926040948552833981010312608657604b602060458360a1565b920160a1565b600080546001600160a01b039384166001600160a01b0319918216179091556001805492909316911617905560405161057190816100b58239f35b600080fd5b634e487b7160e01b600052604160045260246000fd5b51906001600160a01b038216820360865756fe608080604052600436101561001357600080fd5b60003560e01c90816316934fc41461047b575080632def66201461028557806372f702f31461025c5780637b0472f01461008457638e6340291461005657600080fd5b3461007f57600036600319011261007f576001546040516001600160a01b039091168152602090f35b600080fd5b3461007f57604036600319011261007f576004356024358015610217573360005260026020526001604060002001546101e157600080546040516323b872dd60e01b8152336004820152306024820152604481018490529160209183916064918391906001600160a01b03165af180156101d55760009061019a575b61010a91506104fd565b6040516060810181811067ffffffffffffffff8211176101845760405282815260026020820183815260408301904282523360005282602052604060002093518455516001840155519101556040519081527fdd2a19c3bdd089cbe77c04f5655f83de0504d6140d12c8667646f55d0557c4dc60203392a3005b634e487b7160e01b600052604160045260246000fd5b506020813d6020116101cd575b816101b4602093836104ce565b8101031261007f576101c861010a916104f0565b610100565b3d91506101a7565b6040513d6000823e3d90fd5b60405162461bcd60e51b815260206004820152600e60248201526d105b1c9958591e481cdd185ad95960921b6044820152606490fd5b60405162461bcd60e51b815260206004820152601d60248201527f416d6f756e74206d7573742062652067726561746572207468616e20300000006044820152606490fd5b3461007f57600036600319011261007f576000546040516001600160a01b039091168152602090f35b3461007f57600036600319011261007f57336000526002602052604060002060018101548015610445576001549154604080516326e98b8b60e01b8152600481018390523360248201529193829060449082906001600160a01b03165afa9081156101d5576000916103fe575b50156103c457336000526002602052600060026040822082815582600182015501556000602060018060a01b0382541660446040518094819363a9059cbb60e01b83523360048401528760248401525af180156101d557600090610389575b61035b91506104fd565b6040519081527f6f2d3e000c89d37446b7c0374c0125068ff316d1e3ee302336478a8cd03c233660203392a3005b506020813d6020116103bc575b816103a3602093836104ce565b8101031261007f576103b761035b916104f0565b610351565b3d9150610396565b60405162461bcd60e51b815260206004820152601260248201527115185cdac81b9bdd0818dbdb5c1b195d195960721b6044820152606490fd5b90506040813d60401161043d575b81610419604093836104ce565b8101031261007f57602081610430610437936104f0565b50016104f0565b836102f2565b3d915061040c565b60405162461bcd60e51b815260206004820152600e60248201526d139bc81cdd185ad948199bdd5b9960921b6044820152606490fd5b3461007f57602036600319011261007f576004356001600160a01b038116919082900361007f57606091600052600260205260406000208054906002600182015491015491835260208301526040820152f35b90601f8019910116810190811067ffffffffffffffff82111761018457604052565b5190811515820361007f57565b1561050457565b60405162461bcd60e51b815260206004820152600f60248201526e151c985b9cd9995c8819985a5b1959608a1b6044820152606490fdfea2646970667358221220e19751a1d004e51250b6818e3020bf525c83c4cfa38ec958db684807bf1f267a64736f6c634300081c0033",
  "linkReferences": {},
  "deployedLinkReferences": {}
}