{
  "_format": "hh-sol-artifact-1",
  "contractName": "MockCommunity",
  "sourceName": "contracts/MockCommunity.sol",
  "abi": [
    {
      "inputs": [
        {
          "internalType": "uint256",
          "name": "_communityId",
          "type": "uint256"
        },
        {
          "internalType": "address",
          "name": "_member",
          "type": "address"
        }
      ],
      "name": "getMemberStatus",
      "outputs": [
        {
          "internalType": "bool",
          "name": "isScored",
          "type": "bool"
        },
        {
          "internalType": "bool",
          "name": "isApproved",
          "type": "bool"
        }
      ],
      "stateMutability": "view",
      "type": "function"
    },
    {
      "inputs": [
        {
          "internalType": "uint256",
          "name": "",
          "type": "uint256"
        },
        {
          "internalType": "address",
          "name": "",
          "type": "address"
        }
      ],
      "name": "memberApproved",
      "outputs": [
        {
          "internalType": "bool",
          "name": "",
          "type": "bool"
        }
      ],
      "stateMutability": "view",
      "type": "function"
    },
    {
      "inputs": [
        {
          "internalType": "uint256",
          "name": "",
          "type": "uint256"
        },
        {
          "internalType": "address",
          "name": "",
          "type": "address"
        }
      ],
      "name": "memberScored",
      "outputs": [
        {
          "internalType": "bool",
          "name": "",
          "type": "bool"
        }
      ],
      "stateMutability": "view",
      "type": "function"
    },
    {
      "inputs": [
        {
          "internalType": "uint256",
          "name": "_communityId",
          "type": "uint256"
        },
        {
          "internalType": "address",
          "name": "_member",
          "type": "address"
        },
        {
          "internalType": "bool",
          "name": "_isScored",
          "type": "bool"
        },
        {
          "internalType": "bool",
          "name": "_isApproved",
          "type": "bool"
        }
      ],
      "name": "setMemberStatus",
      "outputs": [],
      "stateMutability": "nonpayable",
      "type": "function"
    }
  ],
  "bytecode": "0x60808060405234601557610242908161001b8239f35b600080fdfe6080604052600436101561001257600080fd5b60003560e01c806326e98b8b1461018c578063483489e1146100e7578063547b502d1461009a576365a38d751461004857600080fd5b34610095576040366003190112610095576100616101f6565b600435600052600060205260406000209060018060a01b0316600052602052602060ff604060002054166040519015158152f35b600080fd5b34610095576040366003190112610095576100b36101f6565b600435600052600160205260406000209060018060a01b0316600052602052602060ff604060002054166040519015158152f35b34610095576080366003190112610095576004356101036101f6565b90604435918215158303610095576064359182151583036100955761015861018a94826000526000602052604060002060018060a01b03851660005260205260406000209060ff801983541691151516179055565b600052600160205260406000209060018060a01b031660005260205260406000209060ff801983541691151516179055565b005b346100955760403660031901126100955760406004356101aa6101f6565b600082815260208181528482206001600160a01b0393909316808352928152848220549382526001815284822092825291825283902054835160ff938416151581529216151590820152f35b602435906001600160a01b03821682036100955756fea2646970667358221220a51cf8c442daaa21389b1483af2d7e075a66903de01aac7ccd2d6f911c728aef64736f6c634300081c0033",
  "linkReferences": {},
  "deployedLinkReferences": {}
}