{
  "_format": "hh-sol-artifact-1",
  "contractName": "UserAbility",
  "sourceName": "contracts/UserAbility.sol",
  "abi": [
    {
      "inputs": [
        {
          "internalType": "address",
          "name": "_communityAddress",
          "type": "address"
        }
      ],
      "stateMutability": "nonpayable",
      "type": "constructor"
    },
    {
      "anonymous": false,
      "inputs": [
        {
          "indexed": true,
          "internalType": "address",
          "name": "user",
          "type": "address"
        },
        {
          "indexed": true,
          "internalType": "enum CommunityTypes.Category",
          "name": "category",
          "type": "uint8"
        },
        {
          "indexed": false,
          "internalType": "uint256",
          "name": "newScore",
          "type": "uint256"
        }
      ],
      "name": "AbilityScoreIncreased",
      "type": "event"
    },
    {
      "anonymous": false,
      "inputs": [
        {
          "indexed": true,
          "internalType": "address",
          "name": "user",
          "type": "address"
        },
        {
          "indexed": true,
          "internalType": "uint256",
          "name": "communityId",
          "type": "uint256"
        },
        {
          "indexed": false,
          "internalType": "enum CommunityTypes.Category",
          "name": "category",
          "type": "uint8"
        }
      ],
      "name": "CommunityCompletionRecorded",
      "type": "event"
    },
    {
      "inputs": [
        {
          "internalType": "address",
          "name": "",
          "type": "address"
        },
        {
          "internalType": "enum CommunityTypes.Category",
          "name": "",
          "type": "uint8"
        }
      ],
      "name": "abilityScores",
      "outputs": [
        {
          "internalType": "uint256",
          "name": "",
          "type": "uint256"
        }
      ],
      "stateMutability": "view",
      "type": "function"
    },
    {
      "inputs": [
        {
          "internalType": "enum CommunityTypes.Category",
          "name": "",
          "type": "uint8"
        }
      ],
      "name": "categoryExists",
      "outputs": [
        {
          "internalType": "bool",
          "name": "",
          "type": "bool"
        }
      ],
      "stateMutability": "view",
      "type": "function"
    },
    {
      "inputs": [
        {
          "internalType": "uint256",
          "name": "",
          "type": "uint256"
        }
      ],
      "name": "categoryNames",
      "outputs": [
        {
          "internalType": "string",
          "name": "",
          "type": "string"
        }
      ],
      "stateMutability": "view",
      "type": "function"
    },
    {
      "inputs": [],
      "name": "communityContract",
      "outputs": [
        {
          "internalType": "contract GoalOrientedCommunity",
          "name": "",
          "type": "address"
        }
      ],
      "stateMutability": "view",
      "type": "function"
    },
    {
      "inputs": [
        {
          "internalType": "address",
          "name": "_user",
          "type": "address"
        },
        {
          "internalType": "enum CommunityTypes.Category",
          "name": "_category",
          "type": "uint8"
        }
      ],
      "name": "getAbilityScore",
      "outputs": [
        {
          "internalType": "uint256",
          "name": "",
          "type": "uint256"
        }
      ],
      "stateMutability": "view",
      "type": "function"
    },
    {
      "inputs": [
        {
          "internalType": "address",
          "name": "_user",
          "type": "address"
        }
      ],
      "name": "getAllAbilityScores",
      "outputs": [
        {
          "internalType": "enum CommunityTypes.Category[]",
          "name": "categories",
          "type": "uint8[]"
        },
        {
          "internalType": "uint256[]",
          "name": "scores",
          "type": "uint256[]"
        }
      ],
      "stateMutability": "view",
      "type": "function"
    },
    {
      "inputs": [
        {
          "internalType": "enum CommunityTypes.Category",
          "name": "_category",
          "type": "uint8"
        }
      ],
      "name": "getCategoryName",
      "outputs": [
        {
          "internalType": "string",
          "name": "",
          "type": "string"
        }
      ],
      "stateMutability": "view",
      "type": "function"
    },
    {
      "inputs": [
        {
          "internalType": "address",
          "name": "_user",
          "type": "address"
        }
      ],
      "name": "getTopAbility",
      "outputs": [
        {
          "internalType": "enum CommunityTypes.Category",
          "name": "",
          "type": "uint8"
        },
        {
          "internalType": "uint256",
          "name": "",
          "type": "uint256"
        }
      ],
      "stateMutability": "view",
      "type": "function"
    },
    {
      "inputs": [
        {
          "internalType": "address",
          "name": "_user",
          "type": "address"
        }
      ],
      "name": "getTotalAbilityScore",
      "outputs": [
        {
          "internalType": "uint256",
          "name": "",
          "type": "uint256"
        }
      ],
      "stateMutability": "view",
      "type": "function"
    },
    {
      "inputs": [
        {
          "internalType": "address",
          "name": "_user",
          "type": "address"
        },
        {
          "internalType": "uint256",
          "name": "_communityId",
          "type": "uint256"
        }
      ],
      "name": "isCompletionRecorded",
      "outputs": [
        {
          "internalType": "bool",
          "name": "",
          "type": "bool"
        }
      ],
      "stateMutability": "view",
      "type": "function"
    },
    {
      "inputs": [
        {
          "internalType": "uint256",
          "name": "_communityId",
          "type": "uint256"
        }
      ],
      "name": "recordCompletion",
      "outputs": [],
      "stateMutability": "nonpayable",
      "type": "function"
    },
    {
      "inputs": [
        {
          "internalType": "address",
          "name": "",
          "type": "address"
        },
        {
          "internalType": "uint256",
          "name": "",
          "type": "uint256"
        }
      ],
      "name": "recordedCommunities",
      "outputs": [
        {
          "internalType": "bool",
          "name": "",
          "type": "bool"
        }
      ],
      "stateMutability": "view",
      "type": "function"
    }
  ],
  "bytecode": "0x60803461036c57601f610f8738819003918201601f19168301916001600160401b038311848410176103715780849260209460405283398101031261036c57516001600160a01b0381169081900361036c5760016000526000602052604060002061007361006d8254610387565b826103c1565b600a644d7573696360d81b019055600260009081526020527fabbb5caa7dda850e60932de0934eb1f9d0f59695050f761dc64e443e5030a56980546100b790610387565b601f811161033f575b50600662105c9d60ea1b019055600360009081526020527f101e368776582e57ab3d116ffe2517c0a585cd5b23174b01e275c2d8329c3d83805461010390610387565b601f8111610312575b50600c6553706f72747360d01b019055600460009081526020527f52d75039926638d3c558b2bdefb945d5be8dae29dedd1c313212a4d472d9fde5805461015290610387565b601f81116102e5575b507f456475636174696f6e00000000000000000000000000000000000000000000129055600560009081526020527f2b232c97452f0950c94e2539fdc7e69d21166113cf7a9bcb99b220a3fe5d720a80546101b590610387565b601f81116102b8575b507f546563686e6f6c6f6779000000000000000000000000000000000000000000149055600660009081526020527f62103cf3131c85df57aad364d21cba02556d3092d6cb54c298c2e7726a7870bd805461021c9061006d90610387565b600a6427ba3432b960d91b01905560005b600681111561025a5750600280546001600160a01b031916919091179055604051610b8f90816103f88239f35b60078110156102a25760406000828152600160205220600160ff19825416179055600019811461028c5760010161022d565b634e487b7160e01b600052601160045260246000fd5b634e487b7160e01b600052602160045260246000fd5b81600052601f6020600020910160051c8101905b8181106102d957506101be565b600081556001016102cc565b81600052601f6020600020910160051c8101905b818110610306575061015b565b600081556001016102f9565b81600052601f6020600020910160051c8101905b818110610333575061010c565b60008155600101610326565b81600052601f6020600020910160051c8101905b81811061036057506100c0565b60008155600101610353565b600080fd5b634e487b7160e01b600052604160045260246000fd5b90600182811c921680156103b7575b60208310146103a157565b634e487b7160e01b600052602260045260246000fd5b91607f1691610396565b601f82116103cd575050565b600052601f6020600020910160051c8101905b8181106103eb575050565b600081556001016103e056fe6080604052600436101561001257600080fd5b60003560e01c806339aa43bb146106d75780633f9a61e01461064b57806361661c08146100a0578063784940c51461060f5780638e634029146105e657806396f480f914610599578063a56d688414610599578063b4106fba14610259578063b51bcc0e14610223578063bfd7cdca14610195578063d910558a146100de5763de668d07146100a057600080fd5b346100d95760206100d06100b33661093e565b6001600160a01b0390911660009081526003845260409020610986565b54604051908152f35b600080fd5b346100d95760203660031901126100d9576100f76108cc565b60009081906001600160a01b0316815b600681111561012657604080518561011f82876108e2565b6020820152f35b600781101561017f5781600052600360205283610147826040600020610986565b541161015c575b61015790610aa6565b610107565b91508092506000526003602052610177816040600020610986565b54918161014e565b634e487b7160e01b600052602160045260246000fd5b346100d95760203660031901126100d9576101ae6108cc565b60009081906001600160a01b03165b60068311156101d157602082604051908152f35b90600783101561017f578160005260036020526101f2836040600020610986565b54810180911161020d576102069092610aa6565b91906101bd565b634e487b7160e01b600052601160045260246000fd5b346100d95760203660031901126100d95760043560078110156100d95760ff61024d60209261096d565b54166040519015158152f35b346100d95760203660031901126100d95760043533600052600460205260406000208160005260205260ff6040600020541661053a5760018060a01b03600254166040516326e98b8b60e01b8152826004820152336024820152604081604481855afa80156104995760009182916104f2575b50816104ea575b50156104a5576000602491604051928380926372c85ab560e11b82528660048301525afa908115610499576000916103d6575b5033600052600360205261031e816040600020610986565b8054906001820180921161020d57553360005260046020526040600020826000526020526040600020600160ff19825416179055336000526003602052610369816040600020610986565b54600782101561017f5781906040519081527ffacd5d2406fdd8dfca6fb41b3fead78c8a79939d15d0e708e593c5a5fca1dbd660203392a36103ae60405180926108e2565b7f06b956ac162f72fc4ec3412f42e0601da2103bf25f2e66de4ff6a4bb5328647660203392a3005b3d8083833e6103e5818361099e565b81016102008282031261049557602082015167ffffffffffffffff81116104915781610412918401610b04565b50604082015167ffffffffffffffff81116104915781610433918401610b04565b5060608201516001600160a01b038116036104955760c082015167ffffffffffffffff811161049157829161046c916101c09401610b04565b5061047a6101a08201610af7565b50015190600782101561048e575082610306565b80fd5b8380fd5b8280fd5b6040513d6000823e3d90fd5b60405162461bcd60e51b815260206004820152601c60248201527f436f6d6d756e697479207461736b206e6f7420636f6d706c65746564000000006044820152606490fd5b9050836102d3565b9190506040823d604011610532575b8161050e6040938361099e565b8101031261048e575061052c602061052583610af7565b9201610af7565b846102cc565b3d9150610501565b60405162461bcd60e51b815260206004820152603160248201527f4162696c6974792073636f726520616c7265616479207265636f7264656420666044820152706f72207468697320636f6d6d756e69747960781b6064820152608490fd5b346100d95760403660031901126100d9576001600160a01b036105ba6108cc565b1660005260046020526040600020602435600052602052602060ff604060002054166040519015158152f35b346100d95760003660031901126100d9576002546040516001600160a01b039091168152602090f35b346100d95760203660031901126100d957600435600052600060205261064761063b60406000206109d6565b60405191829182610912565b0390f35b346100d95760203660031901126100d95760043560078110156100d95760ff6106738261096d565b54161561069257600052600060205261064761063b60406000206109d6565b60405162461bcd60e51b815260206004820152601760248201527f43617465676f727920646f6573206e6f742065786973740000000000000000006044820152606490fd5b346100d95760203660031901126100d9576106f06108cc565b6000906001600160a01b0316815b6006811115610883575061071182610ab5565b9061071f604051928361099e565b82825261072b83610ab5565b6020830190601f190136823761075961074385610ab5565b94610751604051968761099e565b808652610ab5565b602085019290601f190136843760009060005b6006811115610801575050506040519384936040850190604086525180915260608501929060005b8181106107da5750505060209084830382860152519182815201919060005b8181106107c1575050500390f35b82518452859450602093840193909201916001016107b3565b919495509192602080826107f160019489516108e2565b0195019101918695949392610794565b6007819794959697101561017f57816000526003602052610826816040600020610986565b5461083f575b61083590610aa6565b959493929561076c565b9161087b8161086a856040610857610835968d610acd565b8260009152878152600360205220610986565b546108758288610acd565b52610aa6565b92905061082c565b600781101561017f578160005260036020526108a3816040600020610986565b546108b7575b6108b290610aa6565b6106fe565b916108c46108b291610aa6565b9290506108a9565b600435906001600160a01b03821682036100d957565b90600782101561017f5752565b60005b8381106109025750506000910152565b81810151838201526020016108f2565b6040916020825261093281518092816020860152602086860191016108ef565b601f01601f1916010190565b60409060031901126100d9576004356001600160a01b03811681036100d9579060243560078110156100d95790565b600781101561017f576000526001602052604060002090565b90600781101561017f57600052602052604060002090565b90601f8019910116810190811067ffffffffffffffff8211176109c057604052565b634e487b7160e01b600052604160045260246000fd5b906040519160008154918260011c92600181168015610a9c575b602085108114610a8857848752869392918115610a665750600114610a1f575b50610a1d9250038361099e565b565b90506000929192526020600020906000915b818310610a4a575050906020610a1d9282010138610a10565b6020919350806001915483858901015201910190918492610a31565b905060209250610a1d94915060ff191682840152151560051b82010138610a10565b634e487b7160e01b84526022600452602484fd5b93607f16936109f0565b600019811461020d5760010190565b67ffffffffffffffff81116109c05760051b60200190565b8051821015610ae15760209160051b010190565b634e487b7160e01b600052603260045260246000fd5b519081151582036100d957565b81601f820112156100d957805167ffffffffffffffff81116109c05760405192610b38601f8301601f19166020018561099e565b818452602082840101116100d957610b5691602080850191016108ef565b9056fea2646970667358221220f54bfe278306a12b80f3d2ff771416ea17ff720189fb33db53dc911bda60c2b964736f6c634300081c0033",
  "linkReferences": {},
  "deployedLinkReferences": {}
}