{
  "_format": "hh-sol-artifact-1",
  "contractName": "CommunityTypes",
  "sourceName": "contracts/CommunityTypes.sol",
  "abi": [
    {
      "inputs": [],
      "stateMutability": "nonpayable",
      "type": "constructor"
    },
    {
      "inputs": [
        {
          "internalType": "enum CommunityTypes.Category",
          "name": "",
          "type": "uint8"
        }
      ],
      "name": "categoryExists",
      "outputs": [
        {
          "internalType": "bool",
          "name": "",
          "type": "bool"
        }
      ],
      "stateMutability": "view",
      "type": "function"
    },
    {
      "inputs": [
        {
          "internalType": "uint256",
          "name": "",
          "type": "uint256"
        }
      ],
      "name": "categoryNames",
      "outputs": [
        {
          "internalType": "string",
          "name": "",
          "type": "string"
        }
      ],
      "stateMutability": "view",
      "type": "function"
    },
    {
      "inputs": [
        {
          "internalType": "enum CommunityTypes.Category",
          "name": "_category",
          "type": "uint8"
        }
      ],
      "name": "getCategoryName",
      "outputs": [
        {
          "internalType": "string",
          "name": "",
          "type": "string"
        }
      ],
      "stateMutability": "view",
      "type": "function"
    }
  ],
  "bytecode": "0x60806040523461030f5760016000526000602052604060002061002b6100258254610314565b8261034e565b600a644d7573696360d81b019055600260009081526020527fabbb5caa7dda850e60932de0934eb1f9d0f59695050f761dc64e443e5030a569805461006f90610314565b601f81116102e2575b50600662105c9d60ea1b019055600360009081526020527f101e368776582e57ab3d116ffe2517c0a585cd5b23174b01e275c2d8329c3d8380546100bb90610314565b601f81116102b5575b50600c6553706f72747360d01b019055600460009081526020527f52d75039926638d3c558b2bdefb945d5be8dae29dedd1c313212a4d472d9fde5805461010a90610314565b601f8111610288575b507f456475636174696f6e00000000000000000000000000000000000000000000129055600560009081526020527f2b232c97452f0950c94e2539fdc7e69d21166113cf7a9bcb99b220a3fe5d720a805461016d90610314565b601f811161025b575b507f546563686e6f6c6f6779000000000000000000000000000000000000000000149055600660009081526020527f62103cf3131c85df57aad364d21cba02556d3092d6cb54c298c2e7726a7870bd80546101d49061002590610314565b600a6427ba3432b960d91b01905560005b60068111156101fd576040516102d990816103858239f35b60078110156102455760406000828152600160205220600160ff19825416179055600019811461022f576001016101e5565b634e487b7160e01b600052601160045260246000fd5b634e487b7160e01b600052602160045260246000fd5b81600052601f6020600020910160051c8101905b81811061027c5750610176565b6000815560010161026f565b81600052601f6020600020910160051c8101905b8181106102a95750610113565b6000815560010161029c565b81600052601f6020600020910160051c8101905b8181106102d657506100c4565b600081556001016102c9565b81600052601f6020600020910160051c8101905b8181106103035750610078565b600081556001016102f6565b600080fd5b90600182811c92168015610344575b602083101461032e57565b634e487b7160e01b600052602260045260246000fd5b91607f1691610323565b601f821161035a575050565b600052601f6020600020910160051c8101905b818110610378575050565b6000815560010161036d56fe6080604052600436101561001257600080fd5b60003560e01c80633f9a61e0146100b4578063784940c5146100785763b51bcc0e1461003d57600080fd5b346100735760203660031901126100735760043560078110156100735760ff610067602092610274565b54166040519015158152f35b600080fd5b346100735760203660031901126100735760043560005260006020526100b06100a46040600020610189565b60405191829182610140565b0390f35b346100735760203660031901126100735760043560078110156100735760ff6100dc82610274565b5416156100fb5760005260006020526100b06100a46040600020610189565b60405162461bcd60e51b815260206004820152601760248201527f43617465676f727920646f6573206e6f742065786973740000000000000000006044820152606490fd5b91909160208152825180602083015260005b818110610173575060409293506000838284010152601f8019910116010190565b8060208092870101516040828601015201610152565b90604051916000908054908160011c9160018116801561026a575b6020841081146102565783875290811561023857506001146101fd575b5050829003601f01601f1916820167ffffffffffffffff8111838210176101e757604052565b634e487b7160e01b600052604160045260246000fd5b90915060005260206000206000905b82821061022257506020915083010138806101c1565b600181602092548385890101520191019061020c565b9150506020925060ff191682850152151560051b83010138806101c1565b634e487b7160e01b85526022600452602485fd5b92607f16926101a4565b600781101561028d576000526001602052604060002090565b634e487b7160e01b600052602160045260246000fdfea2646970667358221220ffd25c7d6d6da92fd8777344d54994568693509c9ca95347bb4525c7b556d5a864736f6c634300081c0033",
  "linkReferences": {},
  "deployedLinkReferences": {}
}